:020000040000FA
:0600000002010A021E3B92
:03002B000222BCF2
:0300330002229E08
:03003B000222D5C9
:0300430002225244
:03005300021EAEDC
:03006B00022278F6
:10008300021CEFE5C754F84401F5C77901220000CB
:100093000080FB120086B900030200F4E4792178A2
:1000A30008B800028004F709D8FCE479297802B87B
:1000B30000028004F709D8FCE490028178DE790914
:1000C3008002F0A3D8FCD9FA900B5EAA82AB83908E
:1000D300013A786679028015E493A3AC82AD838AF2
:1000E300828B83F0A3AA82AB838C828D83D8E9D9D8
:1000F300E77582817583C8740312011C758291753B
:100103008300740012011C75D00075813F7518813E
:10011300751902759F00020096C09FF59FE473D086
:100123009F22D083D082C09FE493C0E0740193C028
:10013300E0740293F59F22FF0000B400002800281A
:1001430000283075A000A000A000A000000800084F
:10015300E001F0001000100010001000100010006B
:1001630050005000500010001000D00700000000A5
:1001730000000F00010005003075070010000100AA
:1001830081FF0000FF2D054B053305FF0202020826
:10019300025000A0000000E80302188501000000DF
:1001A30085021285010000B30B020E85010000B227
:1001B30002021285010000B40B021E85010000C873
:1001C30002021285010000B50B020C85010000CA72
:1001D30002021285010000B60B020A85080000CB5B
:1001E30002021285010000B70B020885010000B866
:1001F3000BFFFF0100FF20021885010000038502A9
:1002030012850100001D0C0206850000000000029B
:1002130010850300005A03810B810B810B810B8135
:100223000B810B810B810B810B810B810B810B816B
:100233000BFD0D150EF70DFFFF01E803053F10FF42
:1002430000013075030201060000000000000000F9
:10025300000000000000000000000000000000009B
:1002630000000000FFFF0600800CE8030509414E73
:1002730043530201060D140518061807180B18112D
:10028300180F184170706C6520414E4353000000F5
:100293000000000000000000DD1200001201251D17
:1002A300C00312012533C00312012560C0031201EC
:1002B3002590C003120125A7C003120125C8C0035E
:1002C300120125F9C0031201254AC1031201256158
:1002D300C103120125B5B903120125CCB9031201DB
:1002E30025FBB90312012534BA031201255CBA03B5
:1002F3001201258ABA03120125A1BA03120125B8F6
:10030300BA03120125CEBA03120125F5BA0312016D
:100313002508BB031201251EBB0312012546BB039F
:1003230012012522D80112012521D9011201254BE1
:10033300D901120125A0D901120125C1D901120148
:1003430025DAD901120125DCD901120125FDD901D4
:10035300120125F6DA0112012538DC01120125F517
:10036300DC01120125C2DD0112012526DE01120185
:1003730025BDDE01120125C0DE0112012546DF0184
:1003830012012589DF01120125DBDF01120125DEC0
:10039300DF0112012515E0011201253CE0011201E4
:1003A30025D2E0011201255BE101120125A4E1013F
:1003B300120125B1E101120125B4E1011201251257
:1003C300E2011201252AE201120125A4E201120130
:1003D30025A7E201120125CAE201120125CDE2019E
:1003E30012012574E30112012597E301120125AFE0
:1003F300E301120125DFE301120125ECE301120100
:1004030025EFE3011201255BE40112012549E50112
:10041300120125FFE50112012512F7021201253A07
:10042300F70212012568F7021201259FF702120154
:100433002507F80212012550F8021201259BF80244
:10044300120125D9F80212012516F90212012544D9
:10045300F902120125EBF902120125F5F902120145
:100463002502FA0212012535FA02120125F7FA02D2
:1004730012012503FB021201251BFB021201252594
:10048300FB0212012596C403120125A4C403120121
:1004930025BCC403120125D4C403120125FBBA01F0
:1004A30012012599BB0112012511BC011201252658
:1004B300BD0112012560BD0112012509BE01120112
:1004C30025DEBE0112012542C00112012599C0019A
:1004D30012012520C10112012507C2011201255471
:1004E300C201120125E2C20112012506C301120154
:1004F30025DBC4011201251CC5011201253EC501DE
:10050300120125BFC501120125A9C6011201256FDC
:10051300C701120125E0EA02120125B2EB02120122
:10052300255BEC021201259EEC021201252BED0244
:10053300120125B7ED0212012598EE02120125C71B
:10054300EE02120125C3EF021201250BF002120184
:10055300250DF10212012551F10212012577F10255
:10056300120125BBC603120125919903120125A788
:100573009903120125CD9903120125F59A0312015E
:1005830025FF9A03120125589C03120125589D0348
:10059300120125ECF10212012521F3021201255467
:1005A300F3021201259EF3021201255CF5021201EA
:1005B30025D598011201255E99011201256E990135
:1005C300120125499A01120125869A011201250D6E
:1005D3009B01120125599B01120125649B01120104
:1005E300253D9C011201259F9C011201253B9D0184
:1005F3001201253F9F01120125F6A0011201257268
:10060300A1011201254FA2011201257DA5011201AD
:10061300251BA60112012578A701120125EBA801CC
:1006230012012594A901120125DDA9011201251446
:10063300AA01120125B9AA0112012537AB01120142
:1006430025EBAB011201254EAC0112012593AD013F
:10065300120125A3AD01120125C6AD011201251119
:10066300AE01120125B6AE01120125ACAF01120194
:100673002576B001120125EEB10112012530B20138
:10068300120125CEB201120125F4B201120125E2B5
:10069300B401120125E7B401120125C8B601120104
:1006A300251CB7011201257EB701120125A6B7014A
:1006B3001201254AB8011201250CB9011201253D89
:1006C300B90112012540B90112012588B9011201AE
:1006D30025CAB90112012531BA0112012578B103E6
:1006E3001201258BB10312012594B103120125AD2B
:1006F300B103120125F8B103120125D3B20312018C
:100703002562B303120125ADB3031201254823006B
:100713001201255423001201258D2300120125D235
:1007230023001201258924001201250F250012013F
:10073300253B250012012574250012012588270079
:100743001201256429001201254F2B001201258671
:100753002C00120125E62E00120125D22F001201D2
:1007630025183100120125253200120125423200DD
:100773001201257A3200120125943200120125FC60
:100783003200120125963700120125373800120175
:1007930025883800120125AF3800120125FD3800E5
:1007A3001201251B39001201256F3900120125772B
:1007B3003A00120125FF3A001201259A840312011F
:1007C30025A484031201256F85031201258A85035D
:1007D300120125B08503120125F485031201252C8E
:1007E3008603120125558603120125CE86031201C5
:1007F30025E38603120125F886031201252F8703BB
:10080300120125438703120125748703120125AEC4
:100813008703120125DA8703120125518803120188
:10082300259A8803120125C48803120125E9880348
:10083300120125A595031201256F96031201255276
:100843009703120125C897031201250A9803120181
:10085300253799031201254DA80212012576A80216
:100863001201258FA802120125D4A902120125B273
:10087300AA02120125D1AA021201255EAB021201BE
:1008830025A1AB02120125EEAC021201258DAD02AA
:100893001201250CB002120125A3B0021201257723
:1008A300B10212012559B202120125C5B302120188
:1008B3002558B40212012578C103120125E1C103B1
:1008C30012012535C2031201255CC2031201251151
:1008D30089031201257E8903120125C989031201A7
:1008E30025BE8A03120125BA8B03120125A48C03AA
:1008F300120125EECA0212012530CB021201250A8C
:10090300CC02120125E3CC02120125DECD02120135
:1009130025BDCE0212012529CF02120125F0CF02F7
:100923001201255BD002120125C2D002120125ED6E
:10093300D0021201255ED102120125F1D10212016A
:10094300255AD2021201256FD202120125B7D20213
:10095300120125D0D20212012535D3021201253806
:10096300D302120125A6AB03120125CEAB0312015C
:10097300250CAC03120125CAAC0312012535AD03C6
:1009830012012551AD0312012579AD03120125A9E9
:10099300AD03120125B8AD0312012532AE031201D6
:1009A3002558AE0312012577E60112012554E8010B
:1009B3001201254FEA0112012522EB011201256DD7
:1009C300EB01120125B8EB01120125CAEB0112015B
:1009D300250AEC011201253FEC011201258BEC01E4
:1009E300120125BAEC01120125DDEC011201252AC1
:1009F300ED01120125B3ED01120125C0EF01120132
:100A030025ABF101120125EEF10112012553F3018A
:100A130012012594F30112012507F4011201255354
:100A2300F401120125CFB402120125FAB402120116
:100A330025E1BB0212012505BE02120125C0BF023A
:100A43001201251DC102120125663B00120125FD7D
:100A53003B00120125433C00120125823D00120197
:100A630025193F00120125933F00120125AE3F00D7
:100A7300120125234000120125524100120125AD28
:100A83004200120125AF43001201250C450012015B
:100A930025254500120125824500120125644600E3
:100AA30012012597460012012507470012012581EF
:100AB3004700120125D047001201259C480012016E
:100AC30025A14900120125804A001201250B4B0084
:100AD300120125794B00120125ED4B001201251659
:100AE3004C00120125D54C001201254F4E00120176
:100AF300256C4E001201258B4E001201251C4F0060
:100B0300120125414F00120125694F00120125E40E
:100B13004F001201253E500012012592510012018F
:100B2300254F520012012522530012012500800295
:100B33001201255080021201255C80021201253921
:100B43008102120125698102120125A1810212018C
:100B530025208202120125588202120125AA82024F
:100B6300120125E782021201250C850212012538A4
:100B730087021201253389021201250E8B0212010D
:100B830025EE7F001201252485011201256E8501C2
:100B93001201254D8B01120125CE8C011201252D49
:100BA3009301120125289401120125659401120174
:100BB30025889401120125CA9401120125D39401B9
:100BC300120125DD9401120125C99501120125BDEC
:100BD3009601120125505300120125C85D00120130
:100BE30025CE5D00120125DA640012012590A803C9
:100BF3001201258EA903120125E4A903120125225E
:100C0300AA031201257FAA03120125FCAA031201DC
:100C13002505AB0312012511AB0312012524AB03F8
:100C230012012560AB0312012576AB031201256681
:100C33008D03120125738D031201258D8D0312017E
:100C430025CC8D031201250A8E031201256F8E0315
:100C5300120125848E031201258F8E031201259C18
:100C63008E03120125B38E03120125C18E031201D7
:100C730025CC8E03120125D88E03120125E78E039E
:100C8300120125F28E03120125158F03120125BED1
:100C93008F03120125CE8F03120125E88F03120162
:100CA3002505900312012521900312012546900387
:100CB300120125509003120125649003120125832C
:100CC3009003120125E49003120125EA9003120117
:100CD30025F09003120125F69003120125029103DA
:100CE300120125359103120125D48D0212012556D7
:100CF3008E02120125FF8E02120125479002120176
:100D0300255592021201253B93021201257093028D
:100D13001201259293021201253B94021201250B25
:100D23009602120125349602120125AC9602120195
:100D330025DE9602120125EB960212012536970253
:100D43001201255A9702120125AB9902120125B50A
:100D53009A02120125119B02120125A4C901120155
:100D630025B5CA0112012599CB01120125A3CB0197
:100D7300120125C5CB01120125D1CB011201257525
:100D8300CD01120125A2CD01120125B8CE01120118
:100D9300250DCF011201255CD00112012531D101AE
:100DA3001201258DD101120125F8D1011201252D42
:100DB300D20112012570D2011201253AD501120187
:100DC3002552D501120125E3D501120125F1D501E3
:100DD3001201253ED6011201254CD601120125B878
:100DE300D60112012533D7011201258AD701120139
:100DF300257EF401120125A0F401120125B1F601AB
:100E030012012570F9011201259AFA0112012558E0
:100E1300FB0112012544FC01120125FCB703120159
:100E23002521B80312012597B803120125C3E30254
:100E3300120125CCE302120125D5E302120125ADEF
:100E4300E4021201255EE6021201258EE60212017A
:100E530025B9E602120125E9E60212012514E7028B
:100E630012012548E70212012574E702120125B792
:100E7300E702120125E2E70212012529E802120125
:100E8300257EE802120125C0E8021201251AE902B3
:100E930012012545E90212012594E902120125C434
:100EA300E902120125EFE9021201251DEA021201EE
:100EB3002540EA0212012544C70312012570C70326
:100EC3001201259DC703120125A7C703120125B7E8
:100ED300C70312012592DB021201259CDB021201DA
:100EE30025DDDB0212012526DC0212012560DC026E
:100EF300120125B6DC02120125D7DC021201258678
:100F0300DF021201258FDF02120125E3DF02120146
:100F1300250CE00212012516E00212012584E002ED
:100F230012012514E1021201256FE1021201259D30
:100F3300E10212012525E20212012564E2021201F7
:100F43002599E202120125ABE202120125CAE2024F
:100F5300120125D3E20212012595E30212012500B5
:100F63008003120125F78003120125118103120169
:100F730025228103120125348303120125538303A0
:100F8300120125C77D00120125FD7D0012012531C7
:100F93007E001201257E7F00120125C1C7031201C5
:100FA30025D7C703120125E1C703120125BAFB02A6
:100FB300120125CDFB0212012591FC02120125D05D
:100FC300FC02120125EDFC0212012526FD0212018D
:100FD3002573FD02120125A5FD02120125DCFD0288
:100FE300120125EFFF021201259CFF011201258545
:100FF300BE03120125A8BE03120125D7BE031201A9
:10100300256FBF0312012587BF03120125C9BF0343
:101013001201258DC2031201259BC2031201250C67
:10102300C3031201256AC30312012576C303120108
:10103300252BC803120125956900120125736B0046
:10104300120125126D00120125BD6D001201253D0F
:101053006E00120125C26E00120125EB6E00120113
:10106300253D6F001201251873001201258F7300AF
:10107300120125A67400120125E074001201252136
:101083007500120125687600120125BE7600120153
:1010930025077700120125767700120125E27700F4
:1010A3001201251378001201252B78001201254423
:1010B30079001201255479001201250A7B001201DF
:1010C30025217B00120125537B00120125F57C00AD
:1010D300120125897D001201256DC5031201257EAC
:1010E300C503120125D4C80312012513C903120134
:1010F3002590C9031201251EC6031201252EC6031E
:1011030012012549C603120125B1C6031201259414
:10111300C30312012519C4031201257DC40312015F
:1011230025F0BC0312012519BD031201257FBD0360
:101133001201259FBD03120125F0BD031201254BAA
:10114300BE03120125B29103120125DF910312019F
:1011530025519203120125669203120125879303F9
:101163001201250A9403120125839403120125A277
:101173009403120125C5940312012502950312015C
:10118300251A9503120125709503120125DFA40387
:10119300120125F6A40312012570A503120125549B
:1011A300A6031201252BA803120125629D03120138
:1011B30025F29D031201257B9E03120125179F0330
:1011C300120125A89F0312012558A00312012566C9
:1011D300A003120125E4A003120125F7A0031201C5
:1011E300250DA10312012517A1031201252AA1032D
:1011F30012012558BB03120125AABB031201251DA9
:10120300BC031201258ABC03120125A0AE031201FF
:1012130025CAAE0312012599AF0312012575B00348
:1012230012012506B1031201255CD3021201252800
:10123300D40212012569D402120125A3D40212019A
:101243002501D50212012555D502120125B3D50278
:1012530012012549D60212012551D702120125DBBD
:10126300D80212012579D902120125E0D90212010F
:1012730025F3D902120125E7DA0212012530DB0238
:101283001201255E9B02120125909E021201252167
:10129300A00212012578A00212012595A0021201D5
:1012A3002515A10212012591A20212012560A302B4
:1012B300120125CDA602120125B7A702120125406E
:1012C300C1021201252CC30212012539C4021201E5
:1012D3002514C502120125ACC60212012579C702E5
:1012E300120125FDC802120125CEC9021201256C87
:1012F300CA0212012525B60312012549B6031201BC
:101303002542B703120125D7B30312012534B503D0
:101313001201252DA1031201254EA10312012589D6
:10132300A1031201251DC903120125B87F00120173
:10133300254AC90312012572C903E066701008A388
:10134300E066700A08A3E066700408A3E06622C39F
:10135300E7960809E7960809E7960809E79622C37E
:10136300E09608A3E09608A3E09608A3E09622C0BF
:1013730008C3E096F50808A3E096420808A3E096A0
:10138300420808A3E09645087001D3D00822080854
:1013930008EAC0E0EBC0E086F0E7A4FA180986F09B
:1013A300E7A42AFA180986F0E7A42AFA180986F0AE
:1013B300E7A42AFA1986F0E7A4FBE5F02AFA19084C
:1013C30086F0E7A42BFBE5F03AFA190886F0E7A4C8
:1013D3002BFBE5F03AFA18180986F0E7A4C5F02BC1
:1013E300FBE43AFA1908E7C5F0C6A426F6E5F03B94
:1013F300FBE43AFA1886F0E7A4F6E5F00826F6E4EB
:101403003B08F6E43A08F6D0E0FBD0E0FA22E4CF5A
:10141300C0E0E4CEC0E0E4CDC0E0E4CCC0E075F0D1
:1014230020C3E633F608E633F608E633F608E63378
:10143300F6181818EC33FCED33FDEE33FEEF33FFF3
:10144300C3EC9709ED9709EE9709EF97191919401E
:101453000FFFEC97FC09ED97FD09EE97FE191906AE
:10146300D5F0BEECF709EDF709EEF709EFF7191917
:1014730019D0E0FCD0E0FDD0E0FED0E0FF22601602
:10148300080808C6C313C618C613C618C613C61859
:10149300C613C6D5E0EA22700908080822601618A8
:1014A3001818C6C333C608C633C608C633C608C62B
:1014B30033C6D5E0EA22E627F60809E637F6080937
:1014C300E637F60809E637F622E026F608A3E03603
:1014D300F608A3E036F608A3E036F622E026F00885
:1014E300A3E036F008A3E036F008A3E036F022C309
:1014F300E697F60809E697F60809E697F60809E677
:1015030097F622C3E096F008A3E096F008A3E096CE
:10151300F008A3E096F022E056F608A3E056F6089A
:10152300A3E056F608A3E056F622E056F008A3E03F
:1015330056F008A3E056F008A3E056F022E0F608C0
:10154300A3E0F608A3E0F608A3E0F622E6F008A37A
:10155300E6F008A3E6F008A3E6F022E0FAA3E0FB36
:10156300A3E0FCA3E0FD22EAF0A3EBF0A3ECF0A3DD
:10157300EDF022CAC0E0E6F0A308DAFAD0E0FA22DE
:10158300CAC0E0E0A3C582CCC582C583CDC583F0C4
:10159300A3C582CCC582C583CDC583DAE6D0E0CAB4
:1015A30022C3E498F8E499F91215E58026C3E49A76
:1015B300FAE49BFBE920E7E91215E5E498F8E499DE
:1015C300F922C3E498F8E499F91215E5E498F8E4EC
:1015D30099F9C3E49AFAE49BFB22EB20E7CFE920D5
:1015E300E7E0B90010BB0008E88AF084F8AAF0220B
:1015F300E4FBC8FA22EB70227B10C833C8C933C995
:10160300335007C39AC3DBF280069A50012ADBEA00
:10161300C833F4C8C933F4C9FA2275F008E4C833EF
:10162300C8C933C933C99AC99B5004C92AC93BD510
:10163300F0ECFBC833F4C8E4C9FA22600D08C6A273
:10164300E713C618C613C6D5E0F322600C08C6C359
:1016530013C618C613C6D5E0F422700422600D1811
:10166300C6C333C608C633C6D5E0F41822251810FE
:10167300AF08F518400215198008F518400215192E
:10168300D2AF22C0D0251810AF08F51850020519A3
:101693008008F51850020519D2AFD0D0222518F5CD
:1016A3008210AF08F518400215198008F51840029A
:1016B3001519D2AF851983222518F582E43519F55A
:1016C3008322E4732518C582C0E0E51934FFC5837E
:1016D300C0E0E518C3958224F810AF088583198507
:1016E30082188008858319858218D2AFCEF0A3E5CE
:1016F30020F0A37808E608F0A3DEFAEFF0A3E58173
:1017030024FAF8E608F0A3E608F0A3E608F0A30835
:1017130008E608F0A3E608F0A315811581D0E0FEE2
:10172300D0E0F8158115811581E8C0E0EEC0E02214
:101733002518C582C0E0E51934FFC583C0E0E5186C
:10174300C3958224F910AF08858319858218800810
:10175300858319858218D2AFCEF0A3E520F0A37854
:1017630008E608F0A3DEFAEFF0A3E58124FBF8E630
:1017730008F0A3E608F0A30808E608F0A3E608F0DB
:10178300A315811581D0E0FED0E0F815811581E81D
:10179300C0E0EEC0E022851983851882E0A3FEE055
:1017A300A3F5207808E0A3F608DFFAE0A3FFE0A39F
:1017B300C0E0E0A3C0E0E0A3C0E0E0A3C0E0E0A39A
:1017C300C0E010AF088582188583198008858218C8
:1017D300858319D2AFD083D08202012285198385F4
:1017E3001882E0A3FEE0A3F5207808E0A3F608DF63
:1017F300FAE0A3FFE0A3C0E0E0A3C0E0E0A3C0E001
:10180300E0A3C0E010AF088582188583198008859E
:101813008218858319D2AFD083D08222C0D02518F5
:10182300C582C0E0E51934FFC583C0E0E518C39560
:101833008224F310AF088583198582188008858375
:1018430019858218D2AFC8F0A3E9F0A3EAF0A3EB9D
:10185300F0A37908E709F0A3D8FAECF0A3EDF0A31D
:10186300EEF0A3EFF0A3D0E0F0A3D0E0F0A3D0E03C
:10187300F0A3E520F0A3E5F0F0A3228519838518F2
:1018830082E0C0E0A3E0F9A3E0FAA3E0FBA37808B9
:10189300E0F608A3DFFAE0FCA3E0FDA3E0FEA3E08B
:1018A300FFA3E0C0E0A3E0C0E0A3E0F5D0A3E0F530
:1018B30020A3E0A3F5F010AF088583198582188073
:1018C30008858319858218D2AFD082D083D0E0F8FF
:1018D300D0E03274048006740280027401C0E0F424
:1018E300041216A0D0E01215762274048004740248
:1018F3008000CCC0E0EDC0E0E518C39CCCAD19502E
:10190300011D10AF068C188D1980068C188D19D205
:10191300AF121583D0E0FDD0E0FC22D083D082E962
:10192300C0E0E493A3C386F0C5F095F0F908E4930F
:10193300A386F0C5F095F0700BE493A3C39940051B
:10194300E9048002A3E475F002A42582F582E5F0A0
:101953003583F583D0E0F9E493A3C0E0E493C0E0DA
:1019630022D083D082CCC0E0E493A3600612198E08
:101973001470FAE493A360061219AD1470FAD0E060
:10198300FCE493A3C0E0E493C0E022C0E0E493A3AB
:10199300D39C5010E493A3C39C400AD0E0D0E0D082
:1019A300E0021981A3A3A3D0E022C0E0E493A36CD7
:1019B3007009D0E0D0E0D0E0021981A3A3D0E022E7
:1019C300D083D082ECC0E0EDC0E0E493A3FCE493C9
:1019D300A3FDED4C600D121A0FEC24FFFCED34FF58
:1019E300FD80EFE493A3FCE493A3FDED4C600D12A3
:1019F3001A4EEC24FFFCED34FFFD80EFD0E0FDD068
:101A0300E0FCE493A3C0E0E493C0E022C0E0C3E4BD
:101A13009396087401939618400FE4936670080830
:101A2300740193661870007019A3A3C3E493960816
:101A33007401939618A3A3400DD0E0D0E0D0E00248
:101A430019FFA3A3A3A3A3A3D0E022C0E0C0F088FF
:101A5300F0E4936670080874019366187000A8F0A8
:101A6300A3A3700BD0F0D0E0D0E0D0E00219FFA325
:061A7300A3D0F0D0E02238
:101A7C0074F5121733EAFEEBFFEE2434F8EF340062
:101A8C00F988088909EE2435F582EF3400F583E0F6
:101A9C00F8EE2437F582EF3400F583E0F50AEC8597
:101AAC000AF0A4FCAAF0850AF0EDA42AFDE82CF8B3
:101ABC00E43DF97A257B001215E5EA850882850953
:101ACC0083F05407F87401B800028004C333D8FCC7
:101ADC00C0E0E0131313541FF8EE28F8EF3400F9AC
:101AEC00E8245DF582E93400F583D0E0F8E0586035
:101AFC0008EE2434F582EF801EEE2436F582EF34A6
:101B0C0000F583E0F5F0EA84A8F0EE28F8EF340055
:101B1C00F9E82438F582E93400F583E0F97F040212
:101B2C0017DF74F5121733EAFEEBFFEE2434F5825F
:101B3C00EF3400F583E0C0E0EE2435F582EF34009D
:101B4C00F583D0E0F08E828F83A3A3A3A3A3A3A3DA
:101B5C00C082C0838E828F83A3A3A3A3A3E0F8A328
:101B6C00E0F9D083D082E0C398F508A3E099F50999
:101B7C00EE2480F582EF3400F583E064017069EEA9
:101B8C002481F582EF3400F583E0F8A3E0F98E822E
:101B9C008F83A3A3A3A3A3A3A3E0FCA3E0FD8E8246
:101BAC008F83A3A3A3A3A3E0FAA3E0FBC3EA9CEB5C
:101BBC009D5027C3EC98ED99402EC3EA98EB9950B1
:101BCC00277C3F7D05EEFAEFFB120ADFEE2480F551
:101BDC0082EF3400F583E4F0800EC3EA98EB994071
:101BEC00E0C3EC98ED9950D9EE2434F8EF3400F9B9
:101BFC00E8FCE9FDEE2435F582EF3400F583E0F8DE
:101C0C00EE2437F582EF3400F583E0F50AE508851C
:101C1C000AF0A4F508AAF0850AF0E509A42AF5094A
:101C2C00E82508F8E43509F97A257B001215E5EA70
:101C3C008C828D83F05407F87401B800028004C3C1
:101C4C0033D8FCC0E0E0131313541FF8EE28F8EF60
:101C5C003400F9E8245DF582E93400F583D0E0F82E
:101C6C00E0586008EE2434F582EF801EEE2436F541
:101C7C0082EF3400F583E0F5F0EA84A8F0EE28F862
:101C8C00EF3400F9E82438F582E93400F583E0F903
:101C9C00122244021B29C082C083851882851983B5
:101CAC00E0F8A3E0F9C3EA9CEB9D5012C3EC98ED6D
:101CBC00994019C3EA98EB99501279018010C3EA44
:101CCC0098EB9940F5C3EC98ED9950EE7900D083E0
:101CDC00D08222EAC39CFAEB9DFB220085218785EA
:101CEC0022C622C0E0C0D0E8C0E0E9C0E0EAC0E013
:101CFC00EBC0E0ECC0E0EDC0E0C008C009C00AC019
:101D0C000BC082C083C0F0759B00906182E0A2E69C
:101D1C004003021DCDE591A2E64003021DCD759155
:101D2C00BF900404E064057008120C0B120C1780B1
:101D3C0003120C11752100120C6BE9900405F0795B
:101D4C0000120C5F120A557A017B00900403E0F933
:101D5C00120F35907803E064426003021E16900562
:101D6C00A1E014F06003021E16C2AF121D7A0078B7
:101D7C002AD0E0F618D0E0F6E59F5407F9700590EC
:101D8C0084A080039084F47808121540E9C4C0E064
:101D9C007829E65508F50808E65509F509740B7815
:101DAC000812164ED0E02508F8906270E0A2E740C9
:101DBC00F8E8C333906272F0906270E0D2E0F08089
:101DCC0049E0A2E55024E591A2E5501E7591DF9003
:101DDC000404E0640D7013900426E004F064287091
:101DEC0002E4F07A00E0F9120CDD906181E0A2E3EC
:101DFC005009E5E9A2E3500375E9F7A3E0A2E75027
:101E0C0009E591A2E7500375917FD0F0D083D08281
:101E1C00D00BD00AD009D008D0E0FDD0E0FCD0E047
:101E2C00FBD0E0FAD0E0F9D0E0F8D0D0D0E032C06E
:101E3C00E0C0D0C082C083906183E0A2E05009E58D
:101E4C00BFA2E0500375BFFEE0A2E15009E5BFA2BE
:101E5C00E1500375BFFDE0A2E25009E5BFA2E250DC
:101E6C000375BFFBE0A2E35009E5BFA2E350037585
:101E7C00BFF7E0A2E45009E5BFA2E4500375BFEF41
:101E8C00E0A2E55009E5BFA2E5500375BFDFE0A273
:101E9C00E65009E5BFA2E6500375BFBFD083D082E0
:101EAC008088C0E0C0D0E8C0E0E9C0E0EAC0E0EB68
:101EBC00C0E0ECC0E0EDC0E0C0F0E5A7A2E6500F3A
:101ECC00E5A1A2E6500953A7BF75A1BF121F13E5E8
:101EDC00A7A2E5500CE5A1A2E5500653A7DF75A11A
:101EEC00DFE5A7A2E15009E5A1A2E1500375A1FD30
:101EFC00E5A7A2E2500CE5A1A2E2500653A7FB75A0
:101F0C00A1FBD0F0021E2474F81217337521019036
:101F1C000404E064067015120BAB8A828B83A3A3B6
:101F2C00A3A3A3A3E0FAA3E0FB120BF9A2AFE43343
:101F3C00FED2AF90040AE0640170187A207B009006
:101F4C000403E0F9120FD17A207B00900403E0F92E
:101F5C00120F3B906182E0D2E6F09005A0E0602188
:101F6C0085C6228016900409E064017008E5C65409
:101F7C00F84405F5C653BEFC121CE87401652160DB
:101F8C00E4EEA2E092AF7F010217DF008E238F24D4
:101F9C00858228858327851882851983E0CEA3E066
:101FAC00CF852882852783EBC9EAC8EDCBECCA75AF
:101FBC00F010C3E833C8E933C9EA33CAEB33CBC3F7
:101FCC00EA9EF526EB9FF525B35004AB25AA26EC2B
:101FDC0033CCED33CDD5F0DAAE23AF242274F1122D
:101FEC0017338A088B098C0A8D0B740F1216BB7869
:101FFC000C1215409084BC780812151A9084BC7889
:10200C000C12151A7808790C12135250157808799D
:10201C000C1214F29084E4780812137240157901B2
:10202C008013780C79081214F29084E4780C121353
:10203C007240EB79007F080217DF74ED1217338AB8
:10204C00088B098C0A8D0B74131216BB780C1215A5
:10205C00409084BC780812151A9084BC780C121528
:10206C001A780C790812135240117808790C121452
:10207C00F2AA08AB09AC0AAD0B80227510007511E1
:10208C00007512007513017810790C1214F2781087
:10209C0079081214B9AA10AB11AC12AD137F0C0253
:1020AC0017DF9084BC78081215408A828B837808DD
:1020BC0012152D7F040217DF74F51217338C828DE5
:1020CC008378081215408A828B837808121506EAE9
:1020DC002404F8EB3400F98C828D83A3A3A3A3E032
:1020EC00FCA3E0FD88828983C3E09CF0A3E09DF013
:1020FC0088828983C3E09420A3E0944E402290848C
:10210C007C78081215408A828B8378081214DF8A37
:10211C00828B83A3A3A3A3E02420F0A3E0344EF08E
:10212C00808074F5121733E9FE900556E0FAA3E0AF
:10213C00FBEEC333F8E433F9745828F58274833911
:10214C00F583E02AF508A3E03BF50978081218DAC4
:10215C0090847812155E121F9874021216868A08E3
:10216C008B098C0A8D0B74107808121481AA08AB99
:10217C00097F040217DF74F11217338A0C8B0D8C54
:10218C000E8D0F740F1216BBE0FAA3E0FB74111244
:10219C0016BBE0F508A3E0F50974131216BBE0FEBC
:1021AC00A3E0FF78081218DAEA2401F508EB3400F2
:1021BC00F509E4F50AF50B780C7908121391908463
:1021CC00DC7808121540780C7908121391AA0CAB24
:1021DC000DAC0EAD0F121F9874021216868B09EA05
:1021EC00450960047A0180027A00EC2AFCED340087
:1021FC00FDECF8EDF97A717B021215E58808890976
:10220C00E4F50AF50B8E828F83780812154FECF8E3
:10221C00EDF97A717B021215E58A088B0974057841
:10222C000812165D8E828F83A3A3A3A3E508F0A3E7
:10223C00E509F07F080217DFC082C083E9906000D7
:10224C00F0D083D08222C0E074F212181FA2AFE447
:10225C0033FED2AFC2C0E5D1A2E4500653D1EF1287
:10226C0011EDEEA2E092AF7F0102187EC0E074F295
:10227C0012181FA2AFE433FED2AFE589A2E15003DE
:10228C0012113F758900C2C5EEA2E092AF7F010228
:10229C00187EC0E074F212181FA2AFE433FED2AF66
:1022AC00E58BA2E0500312113F758B00C2E880D879
:1022BC00C0E0C0D0E8C0E0E5A8D2AFC2C7A2E792A8
:1022CC00AFD0E0F8D0D0D0E032C0E0C0D0E8C0E071
:1022DC00E9C0E0C008C009C082C083A2AFE433F9F2
:1022EC00D2AF900A42E0F8A3E0687008539AFBA3BF
:1022FC0074018026C2E9900A42E0F50874012508B1
:10230C00F074C22508F58274093400F583E0F5C138
:10231C00900A42E0C394804002E4F0E9A2E092AF5C
:10232C00D083D082D009D008D0E0F9D0E0F8D0D05A
:03233C00D0E032BC
:10234000FFFFFFFFFFFFFFFFC082C083E9900C1C6F
:10235000F002256774F71216C7E9900322F07C5A41
:102360007D037AFF7BFF12079790032374FFF0A38E
:10237000F0A3E4F0A3F07905120725900322E0F919
:1023800012064D7AAF7B0712096B02327574F41294
:1023900016C78A088B09EB54806030900322E0F95D
:1023A000120F1D8A0A8B0BAE0AAF0BEE4F60138E15
:1023B000828F83E064B07003120737EEFAEFFB12EE
:1023C0000F0BAA08E5096480FB80047A007B0002F9
:1023D000253674F21216C774FC121670EAFEEBFF73
:1023E00074121216BB12375CEE4F70030224757420
:1023F000021216BBEEF0A3EF122771ECF0A3ED1260
:102400002771AA82AB83120647E9F50A706AE508CC
:10241000450960648E828F83123742EE4F60567A90
:10242000067B00120F8F8A0C8B0DA80CA90DE849B2
:102430007005750A13804188828983E4122482EE34
:10244000F0A3EF12376DE508F0A3E509F09003283B
:10245000122509900328700512321F801B12320DBD
:102460008003EAFCEBFD8C828D8312250970F38CCE
:10247000828D8380E3750A02A90A7404121686020B
:10248000395CF0A3123713A32274F21216C7890A1B
:10249000E975F017A4FEAFF0900327E4F090032550
:1024A000122509600A120F95900325E4F0A3F0EEBF
:1024B000FAEFFB120F8F8A088B09EA4509602FEEAD
:1024C000FCEFFD7900120EF3900325E508F0A3E57B
:1024D00009F07B0080081224F3E4F0A3F00BEBC3B7
:1024E000950A40F2E50A900327F0790080027913FB
:1024F00002395CEB75F017A4F8A9F0900325E028E9
:10250000FAA3E0398A82F58322122EB1EA4B2274B3
:10251000F41216C77900EAA2E0501B75085275093B
:102520008478081218DA7C047D007A1E7B0C12076E
:102530001F74021216867F04021799C082C083900E
:10254000032812256E601C88828983A3A3E06A7029
:1025500003A3E06B8882898370E8A3A3A3A3122E50
:10256000AD80047A007B00D083D082020122123A2F
:1025700042E8492274EE1216C774FC121670EAFE85
:10258000EBFF851882851983E4F0A3F0EE24021294
:1025900031FFEE240512371AEE2404F50EEF122B4C
:1025A00026E024FE603924FC604624FE605224FEAE
:1025B000605E24FE700302268724FE70030226EB71
:1025C00024FE70030226FA24FE700302270924FC6D
:1025D000700302271824FE70030227270227649045
:1025E00003417417F0A3E41227791202DB02276477
:1025F000851882851983AC82AD8312073D0227348A
:10260000851882851983AC82AD8312074302273473
:10261000850C08850D0974021216BBAC82AD83854A
:102620000882850983122EAD12066B8A0C8B0DACC5
:102630000CAD0DEC4D603BE4F50CF50D780C12186B
:10264000DA750C41750D03780C1218DA750C4275A9
:102650000D03780C1218DA74081216BB1218F11256
:102660003A66121686E9F50C700B122EA31202F3CD
:10267000800F750C01850882850983122767123245
:102680001F850C0802273774021216BBAC82AD837B
:10269000850C82850D83122C78603C850C82850D1B
:1026A00083A3A31218F17510417511037810121845
:1026B000DA75104275110378101218DA74081216C0
:1026C000BB1218F1123A66121686E9F509700B1260
:1026D0002EA31202F9800F750901850C82850D83E6
:1026E00012276712321F850908804C8518828519C8
:1026F00083AC82AD83120749803A8518828519839D
:10270000AC82AD8312074F802B851882851983AC6C
:1027100082AD83120755801C851882851983AC828F
:10272000AD8312075B800D851882851983AC82AD5D
:1027300083120761E9F508E50860298E828F83A37B
:10274000E06414601F850E82850F83E090034112C0
:102750002771123A3E90034212321FE508A3122756
:10276000791202D502310E123A42851882851983F8
:1027700022F085188285198322F07C417D03850A29
:1027800082850B83122EB12274EE1216C774FC12CE
:1027900016708A0A8B0B8C0E8D0FEA2405F508EB58
:1027A0003400F5097C157D0079007A417B03120E17
:1027B000F3E5082402F50CE50912371D851882851A
:1027C000198385821085831178101218DA850882A2
:1027D000850983A3A3A3A3122C6F1218DAE508249A
:1027E00005F510E5093400F51178101218DA850C9A
:1027F00082850D83122FC412066574061216868A0E
:10280000108B11AE10AF11E50A2402F50AE50B1288
:102810003202EE4F7003022946801774021216BB73
:10282000122EAD88828983EAF0A3EBF0900341E099
:1028300004F0900341E0C394054003022946E4F507
:1028400010F51178101218DA75102A751103781026
:102850001218DA75102B75110378101218DA740635
:102860001216BB1218F17910EEFCEFFD123A681245
:102870001686E9705E850882850983A3A3A3A3A3B6
:10288000A3A3E0F890032AE0687048122C6F121896
:10289000DA7C2B7D03E5082408FAE5093400FB12F5
:1028A0000EED7402121686E960298E828F83A3A32F
:1028B000A3A3122EAD900341E0F51074027810121C
:1028C000165D74422510F58274033511F583EAF024
:1028D000A3EBF074021216BB858210858311781069
:1028E0001218DA74021216BB1218F1850C82850DCB
:1028F00083122ED31216868A108B11AE10AF119050
:102900000341E0F5107511007402781012165D7421
:10291000412510F874033511F988828983A31225A3
:10292000097003022812E82403080808E93400F9B2
:10293000EE4F600302281B8882898374FFF0A3F0A6
:10294000900341E004F0900341E0600A122EA312CC
:1029500002E77900800B8508828509831232167997
:102960000A02310E74EA1216C774FE1216708C1227
:102970008D13EA2405F50CEB123A50123746750810
:1029800000750900EA2402F510EB3400F5118518F2
:102990008285198385820A85830B780A1218DA8565
:1029A0000C82850D83A3A3A3A3122B3C1218DAE596
:1029B0000C2405F50AE50D123202780A1218DA85A0
:1029C0000C82850D83122B40120665740612168642
:1029D0008A0A8B0BEA450B7003022AE1EA2404F50C
:1029E0000EEB122B261237468A828B83A3A3A3E019
:1029F000F9851082851183122EB76003022AE1E463
:102A0000F514F51578141218DA75142A751503786B
:102A1000141218DA75142B75150378141218DA7459
:102A2000061216BB1218F17913AC0AAD0B85108291
:102A3000851183123A6E121686E9F5096003022A9F
:102A4000E190032AE0F8E5087009E02402900342CF
:102A5000F08014900342E0FCE82402FAE43400FB26
:102A6000EA6C7001EB707E850882AA82122C669453
:102A700014122C5E506B850E82850F83E0C0E074CB
:102A8000432A122B1DD0E0F00508850E82850F83A6
:102A9000A3E0C0E085080A7443250A122B1DD0E08C
:102AA000F0050890032A122B3C1218DA7C2B7D03C8
:102AB00085080A7443250A122B3012168690032AC1
:102AC000E02508F50874FF6E700374FF6F6012EE66
:102AD00024010EEF3400FFE508C3941450030229CB
:102AE0008EE5086013122EC1851082851183122E87
:102AF000AD1202ED79008014E509700375090A85AD
:102B00001282851383EEF0A3EFF0A9097402121666
:102B1000867F0E02179985080C7443250CF5827484
:102B2000033400F583223400F50F850E82F58322ED
:102B3000FA74033400FB120EDB74022212377C227B
:102B4000A3A3122B462212320DFDEEFAEFFB2274E4
:102B5000EE1216C774FE1216708C0E8D0FEA240545
:102B6000F50CEB12371D750B00900341E4F0F50AEC
:102B7000EA2402F508EB3400F5098044900341E0B3
:102B8000FA90032AE0F8122C669417122C5E400D7E
:102B9000900341E0F87416C39890032AF0122C6F4A
:102BA0001218DA7C2B7D0374422AFA7403122B3339
:102BB00012168690032AE0F8900341E028F0050AF7
:102BC000E50C2416F582E50D122B21E0F8E50AC389
:102BD000985074900341E0C39416506BE50AC333D8
:102BE000F8E433F9E50C28FEE50D39FF85188285F8
:102BF0001983AC82AD838E828F83122C7870087516
:102C00000B011232128050E4F510F51178101218F1
:102C1000DA75102A75110378101218DA75102B75F1
:102C2000110378101218DA74061216BB1218F17913
:102C300016850882850983123A6E121686E9F50B0D
:102C40007003022B7C80BB7C417D03850882850953
:102C500083122EAD1202FFA90B7402023110E99407
:102C600000C365D03322EA28F8E43400F9E822E012
:102C7000F5107511007810221231058A108B11ACF5
:102C800010AD11EC4D2274EA1216C774FC121670C6
:102C90008A0C8B0D8C128D13EA2405F50AEB123287
:102CA00002750800750900E50A2402F510E50B34E9
:102CB00000F51174021216BB85820E85830F780E03
:102CC0001218DA850A82850B83A3A3A3A3123722E5
:102CD0001218DAE50A2405F50EE50B3400F50F7835
:102CE0000E1218DA851082851183123208122EA76F
:102CF00012066574061216868A0E8B0FAE0EAF0F83
:102D0000E50C2402F50EE50D3400F50F80388882BD
:102D1000898374FFF00508122B1674FFF0050890E4
:102D2000032AE0F50C750D00780C1218DA7C2B7D67
:102D30000385080C7443250C122B30121686900361
:102D40002AE02508F508EE4F60278E828F83A3A323
:102D5000A3E0F9850E82850F83122EB7EE240412AC
:102D6000371AE96027850C82850D83122E9912325D
:102D70001FE5087003022E7F122EC1850E82850F7B
:102D800083122EAD1203057900022E94E4F514F59A
:102D90001578141218DA75142A7515037814121898
:102DA000DA75142B75150378141218DA74081216D4
:102DB000BB1218F17911EEFCEFFD850E82850F83B1
:102DC000123A6E121686E9F509709A850882AA826F
:102DD000EA90032A7009E02404900342F08025E081
:102DE000F8900342E0F514E82404FCE43400FDEC20
:102DF00065147001ED7081122C669412122C5E40E5
:102E000003022D78850C82850D83E0C0E074432A8F
:102E1000122B1DD0E0F00508850C82850D83A3E000
:102E2000C0E0122B16D0E0122EDC85820C85830DBB
:102E3000780C1218DA74041216BB1218F18510827D
:102E4000851183122ED31216868A0C8B0DAE0CAF11
:102E50000D85080C7443250CF874033400F9EE4F0B
:102E60007003022D0E851882851983E0888289837C
:102E7000122EDCA3E0C0E0122B16D0E0022D1CE5E0
:102E800009700375090A850A82850B83122E99122F
:102E9000321FA9097404022B0E123A428512828550
:102EA0001383227C417D03850A82850B83122EB118
:102EB00022E0FAA3E0FB22122EB1120653E9F50933
:102EC00022900342E0F5F0E50884900341F07C4154
:102ED0007D0322122B46120671740422F005088528
:102EE00018828519832274EC1216C774FE121670AC
:102EF0008A088B098C0E8D0FEA2405FEEB3400FF47
:102F00001230EFEE241812371AEA450B7003022F25
:102F1000921230D85029122FB78A108B11EA45111E
:102F2000606B7912AC0AAD0B850882850983122E7D
:102F3000AD8510828511831216C5E9F50A7058E433
:102F4000F50AF50B780A1218DA8E828F83A3A3E0B4
:102F5000F50A780A1218DAEE24031231FF780A1201
:102F600018DA8E828F83122FC41207857406121608
:102F700086E9F50A7021850C82850D83E0701F8536
:102F80000882850983122EAD12030B8011750A0E7B
:102F90008009750A018004E50A6003123212850C6B
:102FA00082850D83E0600479008002A90A74021210
:102FB00016867F0C021799851882851983122EB107
:102FC0001207732212320DFD850882850983122EA5
:102FD000B12274EE1216C774FE1216708A088B099D
:102FE0008C0C8D0DEA2405FEEB3400FF750E0012EB
:102FF00030EFEA450B70030230B61230D8502C1275
:103000002FB78A0E8B0FEA450F604A7912AC0AADD2
:103010000B850882850983122EAD850E82850F836C
:103020001216C5E9F50E60030230B98508828509DC
:10303000831232F4AA0AFB1230CA70147AFF7BFFA3
:103040001230CA606C88828983E50AF0A3E50BF030
:10305000750A008007750E0E805F050A900327E051
:10306000FAE50AC39A504AE50A75F017A4FAABF0DC
:1030700088828983A3A3E02AFAA3E03BFB8A828BA0
:1030800083123208EC4D70D2750A17750B00780A5E
:103090001218DAEEFCEFFD120EDB7402121686EE49
:1030A000FCEFFD850882850983122EAD1203118085
:1030B00014750E098003750E01123A3A850C82854B
:1030C0000D8312321FA90E022C591207678A108B2A
:1030D00011A810A911E84922E5082402F508E5091C
:1030E0003400F5098A828B83A3A3A3E0A2E522859D
:1030F0001882851983AC82AD838E828F831231054D
:103100008A0A8B0B22E0FAA3E0FB12066B227404FE
:103110001216867F0A02179974EC1216C78C108D4E
:1031200011EA2405F50CEB12371D750F00EA240295
:10313000F50AEB123202850A82F583122EAD123A9D
:10314000F470030231F4750E008071850C82850DD8
:1031500083E06401704F8E828F83A3A31218F18ED7
:10316000828F83A3A3A3A3E0F51275130078121234
:1031700018DAEE2405F512EF3400F5137812121860
:10318000DA122EA71207857406121686E9F50F606B
:1031900014850C82850D83E4F0123A3A85108285FD
:1031A000118312321F7C177D007900EEFAEFFB12BB
:1031B0000EF38E828F83E4F0A3F0050E900327E0D8
:1031C000F8E50EC398501EE50E75F017A4F8A9F0A7
:1031D000850882850983A3A3123A5A123208EC4D5E
:1031E000600302314B85088285098374FFF0A3F0E8
:1031F000E50F7006122EA7120317A90F022FB2F5C2
:103200000AEF3400F50B22A312320DFD22E0FCA3DD
:10321000E0228E828F83123A42850E82850F83E8E8
:10322000F0A3E9F022C082C083900323E06A700318
:10323000A3E06B70067A237B0380047A007B000294
:10324000256774F71216C77F00EF75F003A4F8A97D
:10325000F0EC28F8ED39F988828983E06A7003A3DD
:10326000E06B7006E8FAE9FB800B0FEFC3940240B5
:10327000D87A007B007F0102179974F61216C712E4
:10328000382B70067A007B008007A3A3A3A3122E1D
:10329000AD0238EC74F21216C7E9FE740E1216BBBA
:1032A0001232F474101216BB12375C8C828D83E0DC
:1032B0006402703BA3123A3E88828983E0F50CA336
:1032C000E0F9A80C74026870037429697021750C08
:1032D00002750D00780C1218DA78081218DA780ADC
:1032E0001218DAEEF91207A974061216868002790E
:1032F0000102395CE0F50AA3E0F50B2274E812162E
:10330000C774FB121670E9851882851983F08A1636
:103310008B178C0E8D0F741F1216BB12375C742125
:103320001216BB1232F474231216BB1237467510F4
:10333000008C828D83A3A3A3E0A2E4502A741D1203
:1033400016BB122FBD8A828B83E5824583700302F0
:103350003408790AAC0EAD0FAA16AB171216C5E9E0
:10336000F510600302340B850E82850F83E0640242
:1033700060030236C1A3123A3E850882850983A301
:10338000858212858313E50E2406F50CE50F1237AE
:103390001D88828983E0FAA3E0F9EA2400F514E4A9
:1033A00039F51578141219C3010000280128D0330B
:1033B00007000228A734032817340029D135012932
:1033C000F9350229A0350329D13504296236C136E1
:1033D000EE4F703E850C82850D83123737FAE9FB7C
:1033E0008A828B83E0850A82850B831237731218D9
:1033F000DA8A828B83A312320DFDAA08AB09120E62
:10340000DB7402121686800375100EA91074050273
:103410003A4875100B80F4EE4F70F7850A82850BE1
:10342000837401F012374C850882850983F07C0093
:103430007D00850E82850F83A3A3A3A3E02401FA58
:10344000A3E03400FB12066BEA4B60418A828B8357
:10345000E02402F8850A82850B83E028F0EA240440
:10346000F8EB3400F988828983E085128285138322
:103470001237851237731218DA8A828B8312320759
:10348000E5082403FAE5093400FB0233FE850A82CD
:10349000850B83E02404F07C047D007900AA12AB44
:1034A00013120EF302340BEE4F6003023412123784
:1034B0004CFEA3E0FF850A82850B837404F0EE8541
:1034C0000882850983F0EF851282851383F07403E7
:1034D0001216BBAC82AD83EEFAEFFB123819700303
:1034E00002357D8A828B83A3A312374274011216A0
:1034F000BB85820E85830F780E1218DA74051216BA
:10350000BB1218F17CFF7DFF12067174041216863F
:103510008B0FEA450F7033850C82850D831237229D
:103520001218DA850C82850D83A31218F17C027DB6
:10353000007A167B8512040D7404121686E9700A4F
:1035400074011216BB74FFF0A3F08E828F83E064C7
:10355000027034750C02750D00780C1218DA8E8228
:103560008F83123207E5082404FAE509122B33127F
:103570001686850A82850B83E02402800974011275
:1035800016BBEEF0A3EFF074011216BB123733F046
:1035900074011216BBA312372BA3A3A3F002340BA2
:1035A000EE4F6003023412850C82850D83123208BF
:1035B000AA16AB1712079D850A82850B837402F049
:1035C000EA850882850983F0851282851383EB8062
:1035D000CBEE4F600302341212374CF8A3E0F985AA
:1035E0000A82850B837402F0E8850882850983F0DE
:1035F000E985128285138380A3850C82850D831251
:103600002EAD120ED5EAFC8C82A882C39EE49F40A8
:103610004BE86E7001EF70047C00801F8518828576
:103620001983E0FAEE2AFAEF3400FBC3EA98EB9430
:10363000005003E08004EECCC39CFCEC850A82853C
:103640000B83F08C0A750B00780A1218DA850C824D
:10365000850D83E02EFCA3E03F0233F975100702CD
:10366000340BEE4F6003023412850C82850D8312F9
:103670003A3E850A82850B837407F088828983121B
:10368000372B123713E0851282851383F0E824026A
:10369000FAE93400FB8A828B8312372B12376412CB
:1036A0003733A312376D12373CF0E82405F8E934BC
:1036B00000F98882898312373CA3123785A302352B
:1036C00099741D1216BB1238247003023408123A82
:1036D0003E880C890DE8450D70030234088E108F6A
:1036E0001178101218DA780A1218DA78081218DA33
:1036F00074061216BBE0F9AC0EAD0FAA16AB178517
:103700000C82850D831216C57406121686E9F51013
:1037100002340BF088828983A322F50CEF3400F584
:103720000D22E0F50E750F00780E22E085088285E7
:1037300009832212378C22123A42E82212378CA3D4
:10374000A322A3A3A3A3E0FEA3E0FF22850C82850E
:103750000D83E0F8A3E0F5838882E022E0F508A37A
:10376000E0F50922A3A3F08A828B83A3221224848A
:10377000A3A322F08A828B8312377C22E0F50A759C
:103780000B00780A2212371312378C22E085088248
:10379000850983A3A32274EE1216C774FE12167055
:1037A0008A0A8B0BECFAEDFB74141216BBE0F510D1
:1037B000A3E0F51174161216BBE0FE74181216BBC6
:1037C000E0F50EA3E0F50F851882851983AC82AD74
:1037D00083123819603E8518828519831238246057
:1037E0002FA3A312375CE50845096024780E121850
:1037F000DA78101218DAEEF9AC0CAD0DAA0AAB0BA0
:103800008508828509831216C574041216868006FF
:10381000790E80027901022C5912066B8A0C8B0DED
:10382000EA450D22122EB112382B221207318A825C
:103830008B83E58245832274F61216C774FE121636
:1038400070740C1216BB123737851882851983F0F5
:1038500074011216BBE9F0E4F508F50978081218AE
:10386000DA75080278081218DA74041216BB858219
:103870000885830978081218DA120785740612166B
:10388000867402121686806474F71216C7EAFEEB7D
:10389000FF89087C5A7D0312079DEA5402600BA938
:1038A00008EEFAEFFB12065F8002790102327574AE
:1038B000F61216C774FF6A700374FF6B701C7B00EE
:1038C000EB75F003A4F8A9F0EC28F8ED39F91238FB
:1038D000F10BEBC39402501480E612076D8A088B3B
:1038E00009A808A909E84960031238F17F02021704
:1038F000998882898374FF122482E4F02274F6127C
:1039000016C712076D8A828B83E58245836006A302
:10391000A3E0FA80027A007B0080D174F21216C70D
:103920008A088B09ECFEEDFF740E1216BBE0F50A57
:10393000123961701CEEFCEFFD7AFF7BFF123961DA
:1039400070047911801688828983E508F0A3E5095F
:10395000F088828983A3A3E50AF079007F06021725
:103960009912076D8A0C8B0DA80CA90DE8492274D9
:10397000EE1216C7EAFEEBFF8C088D09890C741253
:103980001216BB123A3E74141216BB123208741689
:103990001216BB122EAD750D00EC4D6003023A32CB
:1039A0007402650C6003023A2D8882898312320DFD
:1039B000F9EC2400F50EE439F50FEAF4F8EBF4F92C
:1039C000EC58F8E50F59F9E849705DE5082406F868
:1039D000E5093400F9880A890B8882F583122B42A5
:1039E00012079D8A108B11E50E65107004E50F65B6
:1039F000116042780E1218DA850A82850B83122B29
:103A0000421207A37402121686E9F50D7027780E8C
:103A10001218DA850882850983A3A3122B401207A6
:103A2000B57402121686800D750D808008750D0D17
:103A30008003750D0BA90D0231138E828F83123A0C
:103A40004222E0F8A3E0F9221216867F10021799AD
:103A50003400F50D850C82F58322E028FEA3E039C1
:103A6000FF8E828F83227916850A82850B83122E20
:103A7000B112077F74082274F21216C7EAFEEBFF38
:103A8000890B7401650B600E7402650B706379011C
:103A9000120989E9705BEEFAEFFB123AF4604775A0
:103AA0000A00800B7C177D007900120EF3050A9046
:103AB0000327E0F8E50AC3985021E50A75F017A43A
:103AC000F8A9F0850882850983A3A3E028FAA3E07A
:103AD00039FB8A828B8312256E70C985088285091D
:103AE0008374FFF0A3F07C5A7D03EEFAEFFB12071C
:103AF0009702395C1207678A088B09EA4509227424
:103B0000F21216C78A088B09ECFEEDFF740E12162E
:103B1000BB1232F4900C1CE0F4603D7A097B001279
:103B20000F05EA4B60328A828B8374B1F0A3E412F2
:103B30003766A3123764A3E508F0A3E509123B5BDF
:103B4000EEF0A3EF123B5BA3A3E50AF0A3E50BF0B5
:103B5000900C1CE0F9120F1102395CF08A828B8301
:103B6000A3A3A3A3A322C082C0839061907404F096
:103B7000A37448F0A37402F09061807440F09061E7
:103B8000BC7403F09061877419F0906265741BF047
:103B900090619C740DF090619A7433F0A37455F0A9
:103BA0009061A0743AF090059EE064017009C291A2
:103BB000900408746780059004087461F0902346AF
:103BC000E493906186F0902340E493F46027E493BB
:103BD000540FF8906185E0686012E5C6548044494E
:103BE000F5C6E59E547F644970F8E8F053C680E559
:103BF0009E547F70FA7905120CBF023D7BC082C0D3
:103C000083E5A8F853A87E906181E4F0A3F0A3F0C7
:103C1000C2BA539AFEC289759B00C2C275E900758B
:103C2000910075BF0075A91175B905906181F0A368
:103C300074C0F0A3E4F0D2BA439A0174805842A849
:103C4000023D7BC082C08374F8121670900406E0B7
:103C5000F8A3E0F9E8497003023D71900406E054CE
:103C60004060237908851882851983AA82AB831264
:103C70000B39851882851983AA82AB8312081B90A1
:103C80000406E054BFF0E054806010790C7AC27BE7
:103C900005120B39900406E0547FF0E0A2E05031A9
:103CA00090619A7433F0A37455F09061A0743AF067
:103CB00090059EE064017009C291900408746780C9
:103CC000059004087461F0120821900406E054FE87
:103CD000F0E05402603190619A743FF0A3745AF09E
:103CE0009061A0747FF090059EE064017009D2910C
:103CF00090040874718005900408746AF012082119
:103D0000900406E054FDF0E054046013902344E472
:103D100093906186F0120827900406E054FBF0E0CF
:103D200054086013902345E493906186F0120827AD
:103D3000900406E054F7F0E054106013902346E43A
:103D400093906186F0120827900406E054EFF0E0AB
:103D50005420600A120827900406E054DFF0A3E024
:103D60005401600D120A6112082D900407E054FE00
:103D7000F074081216868003F0A3F0D083D082027C
:103D8000012274EC1216C774F4121670851882851D
:103D90001983AC82AD8375838475827074041215A7
:103DA0008390234493F46003023F0F907808E0C3AC
:103DB00094025003023EEF74041216BBAC82AD8332
:103DC00075838475824A7408121583851882851953
:103DD0008385821285831374041216BBAC82AD8373
:103DE000750EFF750FFF7FFF7E00750C48750D780F
:103DF000801574086E7003023E8274096E700302AF
:103E00003E82740A6E607B850C82850D8378081271
:103E100015408C828D83A909E50AC9F888107418A9
:103E20007808121481E5104508F8C3E098A3E099DA
:103E3000850C82850D83780812154040188C828D80
:103E40008374187808121481E5104508F8E0C398C7
:103E5000F8A3E0801C74187808121481E510450856
:103E6000FAE9FB8C828D83E0F8A3E0F9EAC398F8C5
:103E7000EB99F9C3E8950EE9950F5006880E890F66
:103E8000EEFF0EE50C2404F50CE50D3400F50DEE07
:103E9000C394135003023DF274FF650E700474FF67
:103EA000650F60238F087402780812165D74482528
:103EB00008F58274783509F5837808121540851263
:103EC00082851383E508F0EC24020C0CED3400FD30
:103ED000851282851383A3858212858313740C1245
:103EE00016BBE5826C7003E5836D6003023DE075EF
:103EF000080175090078081218DA74021216BBACB2
:103F000082AD837AD17B0812111574021216867461
:103F10000C1216867F0C021799C082C0839061AE86
:103F20007468F0A3746AF090624574FBF0A304F027
:103F300053F4FD43FE0290059E7401F09061A0E0F1
:103F4000643A90619A70237433F0A37455F09061D1
:103F5000A0743AF0740164017009C291900408746D
:103F600067802890040874618021743FF0A3745A1C
:103F7000F09061A0747FF0740164017009D2919097
:103F8000040874718005900408746A023D7A7F0405
:103F9000021799C082C083900550E06401700A90B6
:103FA0000555E06004790C80027900023D7BC082F7
:103FB000C08375E1F1900553E0605514600814600A
:103FC000591460518059120A73900549E0F97A4AF0
:103FD0007B05120C419084D412155E120C779084EC
:103FE000D012155E120C4D900554E0F9120C59795F
:103FF00001120CB3900547E02416F8A3E03400F951
:1040000088828983748BF0A3740AF07900023D7B67
:10401000120A7980B4120A7F80AF120A8580AA79C9
:104020001280EA74F41216C775D90D900538E0A213
:10403000E0E4331313F8900549E0C4333354C04827
:104040004401F5D97847790588828983A3A3A3E041
:10405000F5D988828983A3A882A983E8644D700377
:10406000E9640570E37838790588828983A3E0F5EF
:10407000D988828983A3A882A983E8643E7003E972
:10408000640570E575E195900538E0F97A397B05AE
:10409000120C47900C3E7425F0A3740AF0A37481AF
:1040A000F0A3740BF0A37481F0A3740BF0A37481DC
:1040B000F0A3740BF0A3742BF0A3740AF0A3748123
:1040C000F0A3740BF0A37443F0A3740AF0900C4CAB
:1040D0007481F0A3740BF0A37481F0A3740BF0A3AC
:1040E0007481F0A3740BF0A37481F0A3740BF0A39C
:1040F0007481F0A3740BF0A37481F0A3740BF0909F
:104100000547E0F8A3E0F5838882A3A37808121599
:10411000409084D878081214CC9084BC780812158A
:104120001A900547E0240EF8A3E03400F98882894C
:1041300083780812154F900547E02414F8A3E03463
:1041400000F9888289837413F09004047402F002E9
:104150003F8EC082C083900559E02407F5D99005B1
:1041600049E0C4333354C0F5D9784779058882894A
:1041700083A3A3A3E0F5D988828983A3A882A98316
:10418000E8644D7003E9640570E3900559E0601F31
:1041900078477905FAE82413F582E93400F583E0DD
:1041A000F5D988828983A3A882A9831AEA70E69048
:1041B0000579E02407F5D9900549E0C4333354C0AC
:1041C0004404F5D97847790588828983A3A3A3E0BD
:1041D000F5D988828983A3A882A983E8644D7003F6
:1041E000E9640570E3900579E0601F78477905FA86
:1041F000E82433F582E93400F583E0F5D988828933
:1042000083A3A882A9831AEA70E675E195900C3E13
:104210007431F0A3740AF0A37481F0A3740BF0A3BB
:104220007481F0A3740BF0A37481F0A3740BF0A35A
:10423000742BF0A3740AF0A37481F0A3740BF0A3A1
:104240007443F0A3740AF0900C4C7481F0A3740BC7
:10425000F0A37481F0A3740BF0A37481F0A3740B2A
:10426000F0A37481F0A3740BF0A37481F0A3740B1A
:10427000F0A37481F0A3740BF090847C12155E900F
:104280000547E0240EF8A3E03400F9888289831200
:10429000156A900547E02414F8A3E03400F98882F9
:1042A00089837412F09004047401023D7AC082C0C4
:1042B00083900559E02407F5D9900549E0C43333CC
:1042C00054C04402F5D97847790588828983A3A32D
:1042D000A3E0F5D988828983A3A882A983E8644DE5
:1042E0007003E9640570E3900559E0601F78477931
:1042F00005FAE82413F582E93400F583E0F5D9885E
:10430000828983A3A882A9831AEA70E675E1959051
:104310000C3E743DF0A3740AF0A3743DF0A3740A3C
:10432000F0A3743DF0A3740AF0A3743DF0A3740AE3
:10433000F0A3743DF0A3740AF0A3743DF0A3740AD3
:10434000F0A37443F0A3740AF0900C4C7481F0A3B2
:10435000740BF0A37481F0A3740BF0A37481F0A329
:10436000740BF0A37481F0A3740BF0A37481F0A319
:10437000740BF0A37481F0A3740BF090847C12157D
:104380005E900547E0240EF8A3E03400F9888289A6
:104390008312156A900547E02414F8A3E03400F96D
:1043A000888289837414F09004047404023D7AC0F6
:1043B00082C083900559E02407F5D9900549E0C4EF
:1043C000333354C04406F5D9784779058882898308
:1043D000A3A3A3E0F5D988828983A3A882A983E84F
:1043E000644D7003E9640570E3900559E0601F783F
:1043F000477905FAE82413F582E93400F583E0F5FE
:10440000D988828983A3A882A9831AEA70E69005D5
:1044100079E02407F5D9900549E0C4333354C0440A
:1044200004F5D97847790588828983A3A3A3E0F5A9
:10443000D988828983A3A882A983E8644D7003E99F
:10444000640570E3900579E0601F78477905FAE824
:104450002433F582E93400F583E0F5D98882898335
:10446000A3A882A9831AEA70E675E195900C3E74C0
:1044700037F0A3740AF0A37481F0A3740BF0A37453
:1044800081F0A3740BF0A37481F0A3740BF0A374F8
:1044900081F0A3740BF0A37481F0A3740BF0A374E8
:1044A00043F0A3740AF0900C4C7481F0A3740BF0E9
:1044B000A37481F0A3740BF0A37481F0A3740BF0C8
:1044C000A37481F0A3740BF0A37481F0A3740BF0B8
:1044D000A37481F0A3740BF090847C12155E900598
:1044E00047E0240EF8A3E03400F98882898312158E
:1044F0006A900547E02414F8A3E03400F988828923
:10450000837415F09004047403023D7AC082C08362
:10451000900547E0F8A3E0F5838882A3A3A3A3A3B3
:10452000A3E4023D7874F71216C7900432E0F875E0
:10453000F004A4C8AAF02AF9743428F8740439F9EC
:10454000E82405FAE93400FB8A828B83E0FCA3E0CF
:10455000FD88828983A3A3A3A3A3A3A3A3A3ECF0B1
:10456000A3EDF088828983A3A3A3A3A3A3A3E0243C
:10457000FFF8A3E034FFF98A828B83E8F0A3E90215
:1045800047CA74F71216C7EAFEEBFF9061D0E060ED
:104590000302465F75D90E75D90375D904EE248CD4
:1045A000F582EF3400F583E5822408F8E5833400D2
:1045B000F9E0F5D9A3E865827003E9658370F2EE4E
:1045C0002484F582EF3400F583E5822404F8E58342
:1045D0003400F9E0F5D9A3E865827003E9658370DA
:1045E000F275E1957908EE248CFAEF3400FB120B9A
:1045F0002D7904EE2484FAEF3400FB120B2D7C009D
:10460000EEF8EFF9ECFAC3E49AFA95E0FBEE2AFA39
:10461000EF3BFBEA248BF582EB3400F583E0C0E04E
:10462000E824ABF582E93400F583D0E0F00C888211
:104630008983A3A882A983ECC3940840C7EE2470A1
:10464000F582EF3400F583E0F8A3E0F9EE2472F58B
:1046500082EF3400F583E8F0A3E9F0790180027974
:10466000000247CBC082C08375D90275D90375D9C2
:104670000575E195EA2470F582EB3400F583E0F8E6
:10468000A3E0F9EA2472F582EB3400F583E8F0A3A5
:10469000E9F07901023D7B74F61216C7EAFEEBFFE2
:1046A0009005A27406F07508A2750905780812181D
:1046B000DA7C017903120B75740212168675D9061D
:1046C00075D9037582A2758305E0F5D9A3E58264E7
:1046D000A77004E583640570F075E195900404E02B
:1046E0006408701EEE2470F582EF3400F583E0F864
:1046F000A3E0F9EE2472F582EF3400F583E8F0A32D
:10470000E9F0790102489774F61216C7EAFEEBFF4A
:104710009061D0E0706678019005A2740BF090046F
:1047200004E0640770197508A27509057808121865
:10473000DA7C017903120B757402121686780574FF
:104740000128F5D975D9037582A2758305E8FAE0C9
:10475000F5D9A31AEA70F875E195EE2470F582EFA9
:104760003400F583E0F8A3E0F9EE2472F582EF342B
:1047700000F583E8F0A3E9F07901800279000248AE
:104780009774F71216C7EAFEEBFF75D90375D903C4
:1047900075D90DEE24DEF582EF3400F583E0F5D90E
:1047A00075E1957904120C7DEE2470F582EF3400EA
:1047B000F583E0F8A3E0F9EE2472F582EF3400F51A
:1047C00083E8F0A3E9F079018001F07F01021799F5
:1047D00074F61216C7EAFEEBFF9061D0E0F8748021
:1047E000C398FAEE2483F582EF3400F583E0600489
:1047F000780480027800E8240BF8EAC3985003029A
:1048000048957D099005A2EDF0EE24E3F8EF340021
:10481000F97AA37B057C0888828983E08A828B836E
:10482000F088828983A3A882A9838A828B83A3AA22
:1048300082AB831CEC70E0EE2483F582EF3400F54C
:1048400083E0601D7508A275090578081218DA7CE6
:10485000097903EEFAEFFB120B7574021216867DCE
:104860000D74012DF5D975D9037582A27583058D57
:1048700008E0F5D9A31508E50870F675E195790407
:10488000120C7DEE241DF582EF3400F583E4F0A3D5
:10489000F07901800279007F0202179974F61216EE
:1048A000C7EAFEEBFF9061D0E0F87480C398FAEE9F
:1048B0002483F582EF3400F583E0600478048002FD
:1048C0007800E82408F8EAC398500302499C7D0662
:1048D0009005A2740CF0900421E09005A3F07A22D8
:1048E0007B0478A479057C028A828B83E0888289A4
:1048F00083F08A828B83A3AA82AB8388828983A375
:10490000A882A9831CEC70E07A247B047C028A8252
:104910008B83E088828983F08A828B83A3AA82AB0F
:104920008388828983A3A882A9831CEC70E0EE248B
:1049300083F582EF3400F583E0601D7508A27509E8
:104940000578081218DA7C067903EEFAEFFB120BF1
:104950007574021216867D0A74012DF5D975D90376
:104960007582A27583058D08E0F5D9A31508E508C1
:1049700070F675E1957904120C7DEE2470F582EFE6
:104980003400F583E0F8A3E0F9EE2472F582EF3409
:1049900000F583E8F0A3E9F079018002790002488C
:1049A0009774F61216C7EAFEEBFF9061D0E0F87438
:1049B00080C398FAEE2483F582EF3400F583E0603B
:1049C00004780480027800E82404F8EAC3985003CD
:1049D000024A7B78029005A2E8F0EE24F5F582EF1A
:1049E0003400F583E09005A3F0EE2483F582EF34E4
:1049F00000F583E0601B7508A27509057808121898
:104A0000DA7C027903EEFA120B75740212168678BC
:104A100006740128F5D975D9037582A275830588B6
:104A200008E0F5D9A31508E50870F675E195EE24C0
:104A300074F582EF3400F583E4F0EE2480F582EF24
:104A40003400F583E4F0EE241DF582EF3400F583A5
:104A5000E4F0A3F07904120C7DEE240DF582EF341E
:104A600000F583E0F8A3E0F9EE2472F582EF34005C
:104A7000F583E8F0A3E9F079018002790002489714
:104A800074F61216C79061D0E0F87480C398FCEAFF
:104A90002483F582EB3400F583E06004780480021F
:104AA0007800E82404F8ECC398405B79029005A2F2
:104AB0007407F0EA24F6F582EB3400F583E0900504
:104AC000A3F0EA2483F582EB3400F583E0601875E7
:104AD00008A275090578081218DA7C0209120B750C
:104AE00074021216867906740129F5D975D90375F1
:104AF00082A2758305E9F8E0F5D9A318E870F87586
:104B0000E19579018002790002489774F51216C781
:104B1000E9FCA2AFE433F50AC2AF7D0080010DEAE3
:104B2000246FF582EB3400F583E0F8EDC398501A5A
:104B30008D08EA2508F8EB3400F9E8246BF582E9E2
:104B40003400F583E06C70D68024EA246FF8EB34EF
:104B500000F9E0FEEA2EFAEB3400FBEA246BF58262
:104B6000EB3400F583ECF088828983E004F0E50AF9
:104B7000A2E092AF7F0302179974F61216C7A2AF94
:104B8000E433FDC2AFEA246FF582EB3400F583E035
:104B900014F07C0060368C08EA2508F8EB3400F944
:104BA000E8246CF582E93400F583E0C0E0E8246B8A
:104BB000F582E93400F583D0E0F00CEA246FF58249
:104BC000EB3400F583E0F8ECC39840CAEA246EF5B4
:104BD00082EB3400F58374FFF0EA246AF582EB344B
:104BE00000F583E4F0EDA2E092AF024897C082C0E6
:104BF00083E5A8F8C2AFEA246BF582EB3400F583B5
:104C0000E9F0EA246AF582EB3400F583E4F0E8A2E7
:104C1000E792AF023D7B74F31216C7EAFEEBFFEC9E
:104C2000FAEDFB8A828B83A3A3A3A3E0541FF0EECB
:104C30002436F582EF3400F583E4F0F50AEEFCEF5C
:104C4000FD8A828B83E0C0E0EC245DF582ED3400C8
:104C5000F583D0E0F0750B00E50A33333354F8F5F3
:104C60000C8A828B83E0F508750900E50B78081241
:104C7000163EE508A2E0502FEE2436F8EF3400F996
:104C800088828983E0F508EE2508F508EF3400F501
:104C900009E5082438F582E5093400F583E50CF0D0
:104CA00088828983E004F0050B050CE50BC39408AA
:104CB00040AF050A8A828B83A3AA82AB838C828D44
:104CC00083A3AC82AD83E50AC394055003024C4133
:104CD0007F0502179974F71216C7900430E064013B
:104CE00070077A007B00024E4C7E00900436E07024
:104CF000F17401F0A3E4F0A3F090049604F09004A2
:104D000099E4F0A3F090049C04F0900439E4F0A33B
:104D1000F0A3F0A3F090044304F0900469E4F09051
:104D2000846412155E90044C12156A900450E4F0ED
:104D3000A3F0A3F09004B4F09004A8F090049D7444
:104D400080F0A3E4F09004A3F090049BF090051F82
:104D5000F0A3F0A3F0A3F0A3F0A3F0A3F0A3F090CE
:104D60000528F09004B7F0900507F0A3F090846454
:104D700012155E90050912156A90846412155E90F2
:104D8000050D12156A900513E4F0900515F09005D5
:104D900011F090052BF0A3F0A3F0A3F0A3F0A3F083
:104DA000A3F0A3F078307904E8246FF582E93400A9
:104DB000F58374FFF00E88828983A3A882A983EE0D
:104DC000C3940440E37A307B04783F790588828974
:104DD00083E0C0E0EA2461F582EB3400F583D0E0A3
:104DE000F088828983A3A882A9838A828B83A3AA5D
:104DF00082AB83E864447003E9640570D07A307B49
:104E0000047817790488828983A3E0C0E0EA24E764
:104E1000F582EB3400F583D0E0F088828983A3A883
:104E200082A9838A828B83A3AA82AB83E8641F70E2
:104E300003E9640470CF900430E004F0640170086A
:104E4000900438E0900432F07A347B040247CBC0FF
:104E500082C083900437E4F0900436F0900430F080
:104E6000A3F0A374FFF075E1F1023D7BC082C08323
:104E700078007900900437E06004783479048882FF
:104E80008983A3A3A3A3E0F9023D7B74F61216C79E
:104E9000EAFEEBFF8E828F83A3A3A3E0600F8E82D6
:104EA0008F83A3A3A3E4F0900431E014F0900430C6
:104EB000E014F0700690043274FFF08E828F83A3AA
:104EC000A3E4F0900544E0700D900431E0640170BB
:104ED000057900120C5FEE2465F582EF3400F5834E
:104EE000E0F8A3E0F9E8496029EE2465F8EF340022
:104EF000F9880889098882F583E0FCA3E0FD900425
:104F000032E0FA7B00120851850882850983E4F0BB
:104F1000A3F0EEFAEFFB120BA502489774F71216F6
:104F2000C7EAFEEBFF8E828F83A3A3A3A3E0FA7BE5
:104F300000120893EEFAEFFB120AF7120B8D0247EC
:104F4000CBC082C0837817790488828983A3E4F078
:104F500088828983A3A882A983E8641F7003E96417
:104F60000470E69004180242A874F61216C7EAFE0E
:104F7000EBFFEC2403F8ED3400F988088909EC24F0
:104F800007F8ED3400F9E8FCE9FD8C828D83E0F848
:104F9000A3E0F9850882850983E0FAA3E0FB1215F6
:104FA000E5EE240DF582EF3400F583E8F0A3E9F097
:104FB0008C828D83E0F8A3E0F9850882850983E07F
:104FC000FAA3E0FB1215E58B09EA45096013EE240C
:104FD0000DF582EF3400F583E02401F0A3E0340006
:104FE000F002489774F61216C7EAFEEBFFEE242E85
:104FF000F582EF3400F583E0FCA3E0FD780079FA58
:10500000ECFAEDFB1215E5EE2470F582EF3400F5B5
:1050100083E8F0A3E9F0780079FAECFAEDFB1215D9
:10502000E58B09EA45096013EE2470F582EF340040
:10503000F583E02401F0A3E03400F002489774F017
:105040001216C7EAFEEBFF74101216BB7808121591
:1050500040120C238A0C8B0D8C0E8D0F9084E078FF
:105060000C1214CC9084BC780C12151A780C1218FF
:10507000D68E828F83E0F8A3E0F5838882A3A31203
:10508000155E121FE97404121686E9600302518B43
:105090008E828F83E02402F8A3E03400F9E8FAE975
:1050A000FB8A828B8378081214DF9084BC78081204
:1050B00015408A828B83780812152DEE240BF58219
:1050C000EF3400F583C082C0838E828F83A3A3A3B5
:1050D000A3A3E02401F8A3E03400F9D083D082E058
:1050E000687003A3E0697005790102518D8E828F8B
:1050F00083A3A3A3A3A3A3A3E02401F0A3E034000C
:10510000F0EE2474F582EF3400F583E0640170362C
:10511000EE2475F582EF3400F583E0F8A3E0F98E14
:10512000828F83A3A3A3A3A3A3A3E0687003A3E038
:10513000697013EE2475F582EF3400F583E02401E5
:10514000F0A3E03400F0EE2480F582EF3400F58324
:10515000E064017036EE2481F582EF3400F583E0DF
:10516000F8A3E0F98E828F83A3A3A3A3A3A3A3E054
:10517000687003A3E0697013EE2481F582EF3400B8
:10518000F583E02401F0A3E03400F079007F080209
:10519000179974F71216C7900432E0F875F004A45A
:1051A000C8AAF02AF9743428FE740439FF8028EE66
:1051B0002465F8EF3400F988828983E0FCA3E0FDE0
:1051C00088828983E4F0A3F08E828F83A3A3A3A3B4
:1051D000E0FA7B00120851EE2465F582EF3400F509
:1051E00083E0F8A3E0F9E849604FEE2464F582EF2C
:1051F0003400F583E0F50878081218DEEE2463F534
:1052000082EF3400F583E0F9EE2465F582EF340097
:10521000F583E0FCA3E0FDEEFAEFFB120B21740135
:10522000121686E96089EE2465F582EF3400F58375
:10523000E0F8A3E0F9E84970137C007D008E828FCE
:1052400083A3A3A3A3E0FA7B001208510247CB7407
:10525000F21216C7EAFEEBFF890A740E1216BBE0C3
:10526000FAEE2462F582EF3400F583E06401600316
:1052700002531B9061D0E0F87480C398F50CEE24C3
:1052800083F582EF3400F583E060047804800278CF
:10529000008908E928F8E43400F9E824020808E95C
:1052A0003400F9E50C98E499A2D265D0334068EA5D
:1052B0007005750B028003750B01E06039750900FC
:1052C00078081218DA7AA27B05120B5774021216AC
:1052D000867508A275090578081218DAAC0AA90BB8
:1052E000EEFAEFFB120B7574021216867404250A8F
:1052F000F50A7CA27D057401250AF5D9850BD9E54F
:105300000A600D8C828D83F8E0F5D9A318E870F857
:1053100075E195790080067907800279FF7F0602A2
:105320001799C082C083E960208C828D83E08A82D5
:105330008B83F08C828D83A3AC82AD838A828B8336
:10534000A3AA82AB8319E970E0ECFAEDFB023D7B86
:1053500074EA1216C7907803E06442705E9005A16B
:10536000E014F07056C2AF12536A00782AD0E0F60B
:1053700018D0E0F6E59F5407F970059084A08003EB
:105380009084F47808121540E9C4C0E07829E65505
:1053900008F50808E65509F509740B780812164E49
:1053A000D0E02508F8906270E0A2E740F8E8C33347
:1053B000906272F0906270E0D2E0F0900432E0F41B
:1053C0007003025773E0F875F004A4C8AAF02AF934
:1053D000743428FE740439FFEE2402F582EF3401A0
:1053E000F583E0F8A3E0F9E849601EEE2402F582B7
:1053F000EF3401F583E0FAA3E0FBEE2401F582EF40
:105400003401F583E0F9120F358E828F83A3A3A3B5
:10541000A3A3A3A3E0F8A3E0F98E828F83A3A3A3A1
:10542000A3A3E8F0A3E9F0906054E090040BF0909F
:105430006055E090040CF0906056E090040DF09000
:105440006057E090040EF0906058E090040FF090E8
:105450006059E0900410F090605AE0900411F090D0
:10546000605BE0900412F090605CE0FC900413F04C
:1054700090605DE0FB900414F090605EE0FD9004AD
:1054800015F090605FE0FA900416F0900411E08C43
:10549000082508F8E43400F98D08E82508F8E9340F
:1054A00000F98B08E82508F8E93400F98A08E825AE
:1054B00008FAE93400FBEE24F7F582EF3400F583B7
:1054C000E02AF0A3E03BF08C08EE24F9F582EF34FB
:1054D00000F583E02508F0A3E03400F0EE24FBF5AE
:1054E00082EF3400F583E02401F0A3E03400F0EE15
:1054F00024FFF582EF3400F583E0F8A3E0F9E849F2
:105500006042906000E0C333FCE433FDE82CF58298
:10551000E93DF583E02AF0A3E03BF0906000E0FA7B
:10552000900413E0FCEAC333FAE433FBE82AF8E919
:105530003BF9E8244AF582E93400F583E02CF0A336
:10554000E03400F0900411E07011900414E0700B4E
:10555000A3E07007A3E070030256538E828F83A3EB
:10556000A3A3A3A3E0F8A3E0F9EE240DF582EF34A2
:1055700000F583E028F8A3E039F9EE240BF582EF7B
:105580003400F583E8F0A3E9F0EE240FF582EF3460
:1055900000F583E4F0EE241CF582EF3400F583E09F
:1055A0006401701EEE2420F582EF3400F583E0F8EC
:1055B000A3E0F9EE241DF582EF3400F583E8F0A3B3
:1055C000E9F090040CE06052EE241CF582EF340008
:1055D000F5837401F0EE246AF582EF3400F583E080
:1055E0007038EE2474F582EF3400F583E0702BEE12
:1055F0002480F582EF3400F583E0701EEE2420F560
:1056000082EF3400F583E0F8A3E0F9EE241DF58283
:10561000EF3400F583E8F0A3E9F0906062E07003F6
:105620000257068E828F83E0F8A3E0F9E82406FC97
:10563000E93400FDE82402FAE93400FB120C1D8E67
:10564000828F83E02412F8A3E03400F988828983F2
:10565000025710900413E0603AEE240FF582EF3405
:1056600000F583E4F0EE241CF582EF3400F583E0CE
:1056700064017040EE2420F582EF3400F583E0F8F9
:10568000A3E0F9EE241DF582EF3400F583E8F0A3E2
:10569000E98020EE24FDF582EF3400F583E024015B
:1056A000F0A3E03400F0EE241DF582EF3400F58322
:1056B000E4F0A3F0EE240BF582EF3400F583E0F87C
:1056C000A3E0F98E828F83A3A3A3A3A3E068700352
:1056D000A3E06960030255C2EE240FF582EF3400A7
:1056E000F583E060128E828F83A3A3A3A3A3E0645B
:1056F000057002A3E0600B7908EEFAEFFB120AFDD9
:105700008071793E80F3EE241DF582EF3400F5833D
:10571000E4F0A3F0906060E0C0E0EE2469F582EF71
:105720003400F583D0E0F0900411E0F8EE2467F542
:1057300082EF3400F583E02802587390059FE064FF
:10574000017035120CCBEE2467F582EF3400F5833F
:10575000E070069060607480F0EEFAEFFB120BE7E9
:10576000E96401600E120B1B120BE1E96401600396
:10577000120B8D7F0E021799EE2483F582EF340011
:10578000F583E06004780480027800E50CC398F9A2
:105790001208458A0A8B0BEA450B60A7EE2483F5B5
:1057A00082EF3400F583E070048A088B09E50C6011
:1057B00012850882850983F512E5D9F0A31512E553
:1057C0001270F6EE2483F582EF3400F583E0603743
:1057D00074FC250CF50C78081218DAAC0CA90DEE47
:1057E000FAEFFB120B7B7402121686E97019740330
:1057F000650D70030258B3E50A24FBFAE50B34FF8C
:10580000FB120F950258B37403650D70030258B86C
:10581000850C0E750F00780E1218DAAC08AD09AAC7
:105820000AAB0B120B577402121686EE2469F5822E
:10583000EF3400F583E064807004747F8001E0F54C
:105840000878081218DEE50DF50878081218DEA9A8
:105850000CAC0AAD0B900432E0FA7B0012084B74DA
:1058600002121686120CD7EE2467F582EF3400F58B
:1058700083E014F0E070030257537508A275090520
:10588000750A00750B00E5D914F50CE5D95403F53C
:105890000D60207403650D70030257ADE50C7003B5
:1058A00002573BEE2468F582EF3400F583E0600395
:1058B00002573B793D0256F9850882850983E0F855
:1058C000A3858208858309603B147003025AB014D3
:1058D0007003025DA4147003025B0E24FD700302CA
:1058E0005C2E147003025864147003025C8424FE5E
:1058F0007003025C3D147003025C7F147003025D50
:1059000019025D28EE2477F510EF3400F511E085DB
:105910001082851183F0850882850983A38582081A
:10592000858309EE2478F50EEF3400F50F7902AC8B
:1059300008AD09AA0EFB120B278A088B09EE247A00
:10594000F50CEF3400F50D7902AC08AD09AA0CFB9B
:10595000120B278A088B097902AC08AD09EE247C6A
:10596000FAEF3400FB120B278A088B09EE247EF530
:105970000AEF3400F50B7902AC08AD09AA0AFB1254
:105980000B278A088B09851082851183E0C333F0C9
:10599000850E82850F83E0F8A3E0F9E8C333F8E9C8
:1059A00033F9850E82850F83E8F0A3E9F0850C8238
:1059B000850D83E0F8A3E0F9E8C333F8E933F9850E
:1059C0000C82850D83E8F0A3E9F0850A82850B83BC
:1059D000E0F50CA3E0F50D7404780C12165D850A51
:1059E00082850B83E50CF0A3E50DF0EE2475F50A36
:1059F000EF3400F50B7902AC08AD09AA0AFB120BD3
:105A000027850A82850B83C082C0838E828F83A301
:105A1000A3A3A3A3E0F8A3E0F9D083D082E0C398C6
:105A2000F8A3E099F9C3E894FFE9947F4005792849
:105A30000256F9EE247CF582EF3400F583E0240170
:105A4000F508A3E03400F509E4F50AF50BEE247A35
:105A5000F582EF3400F583E0F8A3E0F9E8C333F80A
:105A6000E933F9880C890DE4F50EF50F7808790C07
:105A7000121391EE247EF582EF3400F583E0F50CED
:105A8000A3E0F50D780C79081213524005793B021A
:105A900056F9EE2474F582EF3400F5837401F0EECC
:105AA000241DF582EF3400F583E4F0A3F00258647E
:105AB000EE2481F50AEF3400F50B7402C0E079059D
:105AC000AC08AD097A3F7B05120B27EAFCEBFDD051
:105AD000E0F9AA0AAB0B120B27850A82850B83C05B
:105AE00082C0838E828F83A3A3A3A3A3E0F8A3E045
:105AF000F9D083D082E0C398F8A3E099F9C3E89481
:105B0000FFE9947F4003025A2EEE24808087EE2422
:105B1000E2F582EF3400F583E07039EEF8EFF97AC0
:105B2000177B048A828B83A3E0C0E0E824E3F5823C
