:020000040000FA
:0600000002010A021DC20C
:03002B000222307E
:0300330002221294
:03003B0002224955
:030043000221C6D1
:03005300021E3852
:03006B000221EC83
:10008300021CB3E5C754F84401F5C7790122000007
:100093000080FB120086B900030200F4E4792178A2
:1000A30008B800028004F709D8FCE479297802B87B
:1000B30000028004F709D8FCE490028178DE790914
:1000C3008002F0A3D8FCD9FA900B5EAA82AB83908E
:1000D300013A786679028015E493A3AC82AD838AF2
:1000E300828B83F0A3AA82AB838C828D83D8E9D9D8
:1000F300E77582FF7583C0740312011C75829175C5
:100103008300740012011C75D00075813F7518813E
:10011300751902759F00020096C09FF59FE473D086
:100123009F22D083D082C09FE493C0E0740193C028
:10013300E0740293F59F22FF0000B400002800281A
:1001430000283075A000A000A000A000000800084F
:10015300E001F0001000100010001000100010006B
:1001630050005000500010001000D00700000000A5
:1001730000000F00010005003075070010000100AA
:1001830081FF0000FF2D054B053305FF0202020826
:10019300025000A0000000E803021693010000FCD7
:1001A30092021093010000B30B020C93010000B202
:1001B30002021093010000B40B020A93010000C86D
:1001C30002021093010000B50B021C93010000CA48
:1001D30002021093010000B60B020893080000CB43
:1001E30002021093010000B70B020693010000B84E
:1001F3000BFFFF0100FF20021693010000FF920294
:1002030010930100001D0C02049300000000000283
:100213000E930300005A03D50BD50BD50BD50BD585
:100223000BD50BD50BD50BD50BD50BD50BD50BD5CB
:100233000BA50EBD0E9F0EFFFF01E803053F10FF48
:1002430000013075030201060000000000000000F9
:10025300000000000000000000000000000000009B
:1002630000000000FFFF0600800CE8030509414E73
:1002730043530201060D140518061807180B18112D
:10028300180F184170706C6520414E4353000000F5
:100293000000000000000000851300001201259BF0
:1002A300B803120125B1B803120125DEB803120108
:1002B300250EB90312012525B90312012546B903F9
:1002C30012012577B903120125C8B903120125DFED
:1002D300B90312012533B2031201254AB2031201F5
:1002E3002579B203120125B2B203120125DAB20352
:1002F30012012508B3031201251FB303120125368A
:10030300B3031201254CB30312012573B303120186
:100313002586B3031201259CB303120125C4B3033D
:10032300120125A5E001120125A4E101120125CE48
:10033300E10112012523E20112012544E201120128
:10034300255DE2011201255FE20112012580E20130
:1003530012012579E301120125BBE401120125787D
:10036300E50112012545E601120125A9E601120165
:100373002540E70112012543E701120125C9E701E1
:100383001201250CE8011201255EE8011201256125
:10039300E80112012598E801120125BFE8011201C5
:1003A3002555E901120125DEE90112012527EA019C
:1003B30012012534EA0112012537EA0112012595BC
:1003C300EA01120125ADEA0112012527EB01120111
:1003D300252AEB011201254DEB0112012550EB01FA
:1003E300120125F7EB011201251AEC011201253246
:1003F300EC0112012562EC011201256FEC011201DF
:100403002572EC01120125DEEC01120125CCED0170
:1004130012012582EE01120125FFF40212012527A4
:10042300F50212012555F5021201258CF502120180
:1004330025F4F5021201253DF60212012588F60284
:10044300120125C6F60212012503F7021201253116
:10045300F702120125D8F702120125E2F702120171
:1004630025EFF70212012522F802120125E4F80212
:10047300120125F0F80212012508F90212012512D2
:10048300F90212012514BD0312012522BD03120135
:10049300253ABD0312012552BD031201257EC30176
:1004A3001201251CC40112012594C401120125A9BE
:1004B300C501120125E3C5011201258CC6011201F4
:1004C3002561C701120125C5C8011201251CC901F7
:1004D300120125A3C9011201258ACA01120125D7D8
:1004E300CA0112012565CB0112012589CB01120135
:1004F300255ECD011201259FCD01120125C1CD013C
:1005030012012542CE011201252CCF01120125F241
:10051300CF011201250BE402120125DDE4021201D1
:100523002586E502120125C9E50212012556E602D8
:10053300120125E2E602120125C3E702120125F2A8
:10054300E702120125EEE80212012536E902120143
:100553002538EA021201257CEA02120125A2EA02E9
:1005630012012539BF03120125ED9403120125035E
:1005730095031201252995031201255196031201B2
:10058300255B9603120125B49703120125B4980342
:1005930012012517EB021201254CEC021201257FF3
:1005A300EC02120125C9EC0212012587EE021201A9
:1005B30025D462001201255D63001201256D6300DD
:1005C3001201254864001201258564001201250CDF
:1005D30065001201255865001201256365001201AB
:1005E300253C66001201259E66001201253A67002C
:1005F3001201253E6900120125F56A0012012571D9
:100603006B001201254E6C001201257C6F00120154
:10061300251A7000120125777100120125EA720074
:10062300120125937300120125DC730012012513B7
:100633007400120125B874001201253675001201E9
:100643002570A501120125D3A50112012518A701C3
:1006530012012528A7011201254BA7011201259696
:10066300A7011201253BA80112012531A90112019D
:1006730025FBA90112012573AB01120125B5AB01BD
:1006830012012553AC0112012579AC011201256732
:10069300AE011201256CAE011201254DB00112010C
:1006A30025A1B00112012503B1011201252BB101CE
:1006B300120125CFB10112012591B201120125C208
:1006C300B201120125C5B2011201250DB3011201B8
:1006D300254FB301120125B6B301120125BEA903AB
:1006E300120125D1A903120125DAA903120125F369
:1006F300A9031201253EAA0312012519AB03120116
:1007030025A8AB03120125F3AB03120125BC22007C
:10071300120125C8220012012501230012012546DA
:100723002300120125FD2300120125832400120159
:1007330025AF2400120125E82400120125FC260020
:10074300120125D82800120125C32A00120125FA17
:100753002B001201255A2E00120125462F001201EB
:10076300258C3000120125993100120125B6310084
:10077300120125EE31001201250832001201257005
:1007830032001201250A3700120125AB370012018E
:1007930025FC37001201252338001201257138008A
:1007A3001201258F3800120125E33800120125EBD1
:1007B3003900120125733A0012012500800312014A
:1007C300250A8003120125D58003120125F0800339
:1007D3001201251681031201255A81031201259264
:1007E3008103120125BB8103120125348203120107
:1007F300254982031201255E820312012595820396
:10080300120125A98203120125DA8203120125149C
:100813008303120125408303120125B783031201C9
:10082300250084031201252A84031201254F840322
:10083300120125019103120125CB9103120125AE6B
:1008430092031201252493031201256693031201D7
:1008530025939403120125D59902120125FE9902CD
:10086300120125179A021201255C9B021201253AF7
:100873009C02120125599C02120125E69C021201D9
:1008830025299D02120125769E02120125159F023C
:1008930012012594A1021201252BA202120125FFA8
:1008A300A202120125E1A3021201254DA5021201A4
:1008B30025E0A502120125F6B9031201255FBA034B
:1008C300120125B3BA03120125DABA0312012577FF
:1008D3008403120125E484031201252F85031201E9
:1008E300252486031201252087031201250A880384
:1008F30012012519C4021201255BC4021201253518
:10090300C5021201250EC60212012509C7021201F2
:1009130025E8C70212012554C8021201251BC9028A
:1009230012012586C902120125EDC90212012518FB
:10093300CA0212012589CA021201251CCB02120127
:100943002585CB021201259ACB02120125E2CB02A7
:10095300120125FBCB0212012560CC021201256393
:10096300CC02120125ECA30312012514A4031201E6
:100973002552A40312012510A5031201257BA5030B
:1009830012012597A503120125BFA503120125EF27
:10099300A503120125FEA50312012578A603120162
:1009A300259EA60312012580B4011201251DB6015F
:1009B30012012503B801120125CDB8011201251436
:1009C300B9011201255BB9011201256DB9011201AB
:1009D30025ADB901120125DCB90112012528BA019F
:1009E30012012560BA011201258EBA01120125DF19
:1009F300BA011201256EBB011201255CBE01120171
:100A03002536C00112012572C001120125CCC10196
:100A130012012513C20112012588C201120125D634
:100A2300C20112012516BB0212012533BB021201BA
:100A330025CDC002120125CFC10212012549C302EF
:100A4300120125F7C3021201250C4F00120125558F
:100A53004F00120125824F00120125B54F001201EC
:100A630025C24F00120125CE4F00120125E04F0091
:100A7300120125B55000120125135100120125481A
:100A83005100120125E452001201253153001201D5
:100A930025555300120125C2530012012567540046
:100AA300120125235500120125A2550012012566C6
:100AB3005600120125755600120125F65600120143
:100AC30025955700120125C75700120125625800CA
:100AD300120125C05800120125FA58001201257B86
:100AE3005900120125445A00120125ED5A00120142
:100AF30025745B00120125CC5B001201252D5C00DF
:100B0300120125565C001201250C5D0012012556C9
:100B13005E00120125995E00120125B65E001201E6
:100B230025D55E00120125205F00120125455F00D7
:100B33001201256E5F00120125DD5F001201251FE2
:100B43006000120125236100120125BD610012011D
:100B530025896200120125A2620012012575B102E6
:100B6300120125C8B102120125D4B102120125A92F
:100B7300B202120125D0B2021201250BB3021201F7
:100B83002577B302120125ABB302120125E4B302A8
:100B9300120125FCB30212012555B4021201256E80
:100BA300B402120125B7B402120125CAB40212011C
:100BB30025E4B402120125FAB40212012516B60285
:100BC30012012527B70212012574B8021201255913
:100BD300B902120125F77F00120125EF8C021201E1
:100BE30025238D021201258E9002120125D8910230
:100BF300120125A292021201252C9402120125074B
:100C030095021201254195021201256495021201F4
:100C130025A69502120125AF9502120125F9950229
:100C2300120125039602120125AF960212012583B4
:100C33009702120125D79702120125399802120152
:100C4300258C9802120125BB9802120125FA9802FD
:100C53001201252093011201257A9B01120125809F
:100C63009B011201253BA10112012521A5011201BE
:100C73002589FC01120125FFFC0112012515FD0147
:100C830012012552FD011201258AFD0112012507DA
:100C9300FE0112012542FE01120125BDFE011201D2
:100CA30025F9FE0112012502FF011201250EFF01A4
:100CB30012012528FF011201254DFF0112012563B1
:100CC300FF01120125A7FF011201253DF0021201C8
:100CD3002550F0021201256AF00212012593F00259
:100CE300120125D6F00212012515F1021201255336
:100CF300F102120125B8F102120125CDF102120110
:100D030025D8F102120125E5F102120125FCF102B9
:100D13001201250AF20212012515F2021201252100
:100D2300F20212012534F2021201253FF2021201EE
:100D33002562F2021201250BF3021201251BF302B5
:100D430012012535F30212012552F3021201256E19
:100D5300F30212012593F3021201259DF3021201FE
:100D630025B1F302120125D0F30212012531F40259
:100D730012012537F4021201253DF4021201254325
:100D8300F4021201254FF40212012582F40212012A
:100D930025FFEE0112012581EF011201252AF00141
:100DA30012012572F10112012580F301120125665A
:100DB300F4011201259BF401120125BDF401120176
:100DC3002566F50112012536F7011201255FF701AA
:100DD300120125D7F70112012509F8011201251681
:100DE300F80112012561F80112012585F8011201AC
:100DF30025D6FA01120125E0FB011201253CFC0175
:100E030012012527D20112012538D3011201251C15
:100E1300D40112012526D40112012548D40112015F
:100E23002554D401120125F8D50112012525D60137
:100E33001201253BD70112012590D701120125DFAD
:100E4300D801120125B4D90112012510DA011201CA
:100E5300257BDA01120125B0DA01120125F3DA014B
:100E6300120125BDDD01120125D5DD011201256623
:100E7300DE0112012574DE01120125C1DE0112011A
:100E830025CFDE011201253BDF01120125B6DF016B
:100E93001201250DE00112012557A6021201257941
:100EA300A6021201258AA80212012549AB021201EA
:100EB3002573AC0212012531AD021201251DAE02CC
:100EC30012012541FE0212012566FE02120125DCF4
:100ED300FE02120125EEDC02120125F7DC021201EB
:100EE3002500DD02120125D8DD0212012589DF026A
:100EF300120125B9DF02120125E4DF0212012514D4
:100F0300E0021201253FE00212012573E002120103
:100F1300259FE002120125E2E0021201250DE10204
:100F230012012554E102120125A9E102120125EB68
:100F3300E10212012545E20212012570E2021201CB
:100F430025BFE202120125EFE2021201251AE30294
:100F530012012548E3021201256BE302120125C2A7
:100F6300BF03120125EEBF031201251BC0031201AB
:100F73002525C00312012535C003120125BDD40266
:100F8300120125C7D40212012508D50212012551E9
:100F9300D5021201258BD502120125E1D5021201DA
:100FA3002502D602120125B1D802120125BAD802B0
:100FB3001201250ED90212012537D902120125414A
:100FC300D902120125AFD9021201253FDA0212011B
:100FD300259ADA02120125C8DA0212012550DB0232
:100FE3001201258FDB02120125C4DB02120125D673
:100FF300DB02120125F5DB02120125FEDB021201E1
:1010030025C0DC02120125A7F9021201259EFA026E
:10101300120125B8FA02120125C9FA02120125DBD1
:10102300FC02120125FAFC021201256BAE03120128
:1010330025A1AE03120125D5AE0312012522B0036B
:101043001201253FC00312012555C0031201255F7C
:10105300C003120125CC8803120125DF8803120186
:1010630025A38903120125E28903120125FF8903C0
:10107300120125388A03120125858A03120125B737
:101083008A03120125EE8A03120125018D03120141
:1010930025987F0012012503B70312012526B70304
:1010A30012012555B703120125EDB70312012505DA
:1010B300B80312012547B8031201250BBB03120124
:1010C3002519BB031201258ABB03120125E8BB03C3
:1010D300120125F4BB03120125A9C003120125DA6D
:1010E3003A00120125B83C00120125573E001201B7
:1010F30025023F00120125823F001201250740000F
:101103001201253040001201258240001201255DA5
:101113004400120125D44400120125EB45001201BD
:1011230025254600120125664600120125AD47001C
:101133001201250348001201254C4800120125BB6A
:1011430048001201252749001201255849001201C0
:1011530025704900120125894A00120125994A0088
:101163001201254F4C00120125664C0012012598EF
:101173004C001201253A4E00120125CE4E001201F9
:1011830025EBBD03120125FCBD0312012552C1034A
:1011930012012591C1031201251CC2031201259CD2
:1011A300BE03120125ACBE03120125C7BE03120103
:1011B300252FBF0312012512BC0312012597BC037F
:1011C300120125FBBC031201256EB50312012597FD
:1011D300B503120125FDB5031201251DB603120146
:1011E300256EB603120125C9B6031201250E8D0320
:1011F3001201253B8D03120125AD8D03120125C27A
:101203008D03120125E38E03120125668F0312015C
:1012130025DF8F03120125FE8F0312012521900381
:101223001201255E9003120125769003120125CC4D
:1012330090031201253BA00312012552A0031201C2
:1012430025CCA003120125B0A10312012587A30316
:10125300120125BE98031201254E9903120125D7C9
:101263009903120125739A03120125049B031201AA
:1012730025B49B03120125C29B03120125409C0345
:10128300120125539C03120125699C031201257346
:101293009C03120125869C03120125D6B303120178
:1012A3002528B4031201259BB40312012508B503B5
:1012B300120125E6A60312012510A703120125DF5B
:1012C300A703120125BBA8031201254CA903120190
:1012D3002587CC0212012553CD0212012594CD029C
:1012E300120125CECD021201252CCE02120125803A
:1012F300CE02120125DECE0212012574CF021201A5
:10130300257CD00212012506D202120125A4D202A5
:101313001201250BD3021201251ED302120125123D
:10132300D4021201255BD4021201250080021201AE
:1013330025328302120125C384021201251A850274
:10134300120125378502120125B7850212012533C3
:1013530087021201250288021201256F8B021201F6
:1013630025598C02120125EA7500120125D6770052
:10137300120125E37800120125BE790012012556DA
:101383007B00120125237C00120125A77D00120199
:1013930025787E00120125167F001201255CB0031B
:1013A30012012580B00312012579B1031201251D15
:1013B300AC031201257AAD03120125899C031201A6
:1013C30025AA9C03120125E59C03120125D1C10323
:1013D3001201259BC103120125D7FF01120125FE2E
:1013E300C103E066701008A3E066700A08A3E06614
:1013F300700408A3E06622C3E7960809E796080984
:10140300E7960809E79622C3E09608A3E09608A3A7
:10141300E09608A3E09622C008C3E096F50808A367
:10142300E096420808A3E096420808A3E096450820
:101433007001D3D00822080808EAC0E0EBC0E086B8
:10144300F0E7A4FA180986F0E7A42AFA180986F047
:10145300E7A42AFA180986F0E7A42AFA1986F0E71E
:10146300A4FBE5F02AFA190886F0E7A42BFBE5F0C4
:101473003AFA190886F0E7A42BFBE5F03AFA1818B4
:101483000986F0E7A4C5F02BFBE43AFA1908E7C58F
:10149300F0C6A426F6E5F03BFBE43AFA1886F0E73B
:1014A300A4F6E5F00826F6E43B08F6E43A08F6D09D
:1014B300E0FBD0E0FA22E4CFC0E0E4CEC0E0E4CD2C
:1014C300C0E0E4CCC0E075F020C3E633F608E633B1
:1014D300F608E633F608E633F6181818EC33FCED95
:1014E30033FDEE33FEEF33FFC3EC9709ED9709EEBF
:1014F3009709EF97191919400FFFEC97FC09ED971E
:10150300FD09EE97FE191906D5F0BEECF709EDF7C4
:1015130009EEF709EFF7191919D0E0FCD0E0FDD077
:10152300E0FED0E0FF226016080808C6C313C61801
:10153300C613C618C613C618C613C6D5E0EA22706A
:1015430009080808226016181818C6C333C608C647
:1015530033C608C633C608C633C6D5E0EA22E62733
:10156300F60809E637F60809E637F60809E637F616
:1015730022E026F608A3E036F608A3E036F608A331
:10158300E036F622E026F008A3E036F008A3E036C2
:10159300F008A3E036F022C3E697F60809E697F6CB
:1015A3000809E697F60809E697F622C3E096F008DD
:1015B300A3E096F008A3E096F008A3E096F022E0FB
:1015C30056F608A3E056F608A3E056F608A3E0563D
:1015D300F622E056F008A3E056F008A3E056F00820
:1015E300A3E056F022E0F608A3E0F608A3E0F6082D
:1015F300A3E0F622E6F008A3E6F008A3E6F008A3CA
:10160300E6F022E0FAA3E0FBA3E0FCA3E0FD22EA7C
:10161300F0A3EBF0A3ECF0A3EDF022CAC0E0E6F0F8
:10162300A308DAFAD0E0FA22CAC0E0E0A3C582CC6C
:10163300C582C583CDC583F0A3C582CCC582C583CE
:10164300CDC583DAE6D0E0CA22C3E498F8E499F979
:1016530012168D8026C3E49AFAE49BFBE920E7E99E
:1016630012168DE498F8E499F922C3E498F8E49902
:10167300F912168DE498F8E499F9C3E49AFAE49B15
:10168300FB22EB20E7CFE920E7E0B90010BB00081D
:10169300E88AF084F8AAF022E4FBC8FA22EB70226D
:1016A3007B10C833C8C933C9335007C39AC3DBF2AD
:1016B30080069A50012ADBEAC833F4C8C933F4C957
:1016C300FA2275F008E4C833C8C933C933C99AC9C3
:1016D3009B5004C92AC93BD5F0ECFBC833F4C8E4DA
:1016E300C9FA22600D08C6A2E713C618C613C6D5E9
:1016F300E0F322600C08C6C313C618C613C6D5E0B0
:10170300F422700422600D18C6C333C608C633C65C
:10171300D5E0F41822251810AF08F5184002151962
:101723008008F51840021519D2AF22C0D025181031
:10173300AF08F518500205198008F518500205196D
:10174300D2AFD0D0222518F58210AF08F518400289
:1017530015198008F51840021519D2AF851983228F
:101763002518F582E43519F58322E4732518C5821B
:10177300C0E0E51934FFC583C0E0E518C3958224B2
:10178300F810AF0885831985821880088583198529
:101793008218D2AFCEF0A3E520F0A37808E608F0D4
:1017A300A3DEFAEFF0A3E58124FAF8E608F0A3E656
:1017B30008F0A3E608F0A30808E608F0A3E608F09B
:1017C300A315811581D0E0FED0E0F81581158115B0
:1017D30081E8C0E0EEC0E0222518C582C0E0E5192B
:1017E30034FFC583C0E0E518C3958224F910AF0820
:1017F3008583198582188008858319858218D2AF5D
:10180300CEF0A3E520F0A37808E608F0A3DEFAEF14
:10181300F0A3E58124FBF8E608F0A3E608F0A308AB
:1018230008E608F0A3E608F0A315811581D0E0FED1
:10183300D0E0F815811581E8C0E0EEC0E0228519FB
:1018430083851882E0A3FEE0A3F5207808E0A3F6E1
:1018530008DFFAE0A3FFE0A3C0E0E0A3C0E0E0A359
:10186300C0E0E0A3C0E0E0A3C0E010AF08858218A9
:101873008583198008858218858319D2AFD083D0D8
:1018830082020122851983851882E0A3FEE0A3F575
:10189300207808E0A3F608DFFAE0A3FFE0A3C0E0A6
:1018A300E0A3C0E0E0A3C0E0E0A3C0E010AF088580
:1018B30082188583198008858218858319D2AFD051
:1018C30083D08222C0D02518C582C0E0E51934FF39
:1018D300C583C0E0E518C3958224F310AF08858360
:1018E300198582188008858319858218D2AFC8F0BC
:1018F300A3E9F0A3EAF0A3EBF0A37908E709F0A3C7
:10190300D8FAECF0A3EDF0A3EEF0A3EFF0A3D0E050
:10191300F0A3D0E0F0A3D0E0F0A3E520F0A3E5F03E
:10192300F0A322851983851882E0C0E0A3E0F9A320
:10193300E0FAA3E0FBA37808E0F608A3DFFAE0FCF3
:10194300A3E0FDA3E0FEA3E0FFA3E0C0E0A3E0C0AB
:10195300E0A3E0F5D0A3E0F520A3E0A3F5F010AFFA
:10196300088583198582188008858319858218D292
:10197300AFD082D083D0E0F8D0E032740480067414
:101983000280027401C0E0F404121748D0E012167A
:101993001E227404800474028000CCC0E0EDC0E019
:1019A300E518C39CCCAD1950011D10AF068C188DE2
:1019B3001980068C188D19D2AF12162BD0E0FDD0EA
:1019C300E0FC22D083D082E9C0E0E493A3C386F095
:1019D300C5F095F0F908E493A386F0C5F095F0708F
:1019E3000BE493A3C3994005E9048002A3E475F0D3
:1019F30002A42582F582E5F03583F583D0E0F9E48E
:101A030093A3C0E0E493C0E022D083D082CCC0E0B3
:101A1300E493A36006121A361470FAE493A36006E3
:101A2300121A551470FAD0E0FCE493A3C0E0E493D7
:101A3300C0E022C0E0E493A3D39C5010E493A3C37B
:101A43009C400AD0E0D0E0D0E0021A29A3A3A3D09F
:101A5300E022C0E0E493A36C7009D0E0D0E0D0E0D2
:101A6300021A29A3A3D0E022D083D082ECC0E0EDF8
:101A7300C0E0E493A3FCE493A3FDED4C600D121AC4
:101A8300B7EC24FFFCED34FFFD80EFE493A3FCE40B
:101A930093A3FDED4C600D121AF6EC24FFFCED341C
:101AA300FFFD80EFD0E0FDD0E0FCE493A3C0E0E4D1
:101AB30093C0E022C0E0C3E49396087401939618A0
:101AC300400FE49366700808740193661870007001
:101AD30019A3A3C3E49396087401939618A3A34090
:101AE3000DD0E0D0E0D0E0021AA7A3A3A3A3A3A341
:101AF300D0E022C0E0C0F088F0E493667008087478
:101B0300019366187000A8F0A3A3700BD0F0D0E087
:0E1B1300D0E0D0E0021AA7A3A3D0F0D0E022C9
:101B240074F51217DBEAFEEBFFEE2434F8EF340011
:101B3400F988088909EE2435121C5CF8EE24371262
:101B44001C5CF50AEC850AF0A4FCAAF0850AF0ED09
:101B5400A42AFDE82CF8E43DF97A257B0012168DC1
:101B6400EA850882850983F05407F87401B80002F5
:101B74008004C333D8FCC0E0E0131313541FF8EE01
:101B840028F8EF3400F9E8245DF582E93400F583A0
:101B9400D0E0F8E0586008850882850983801DEE4E
:101BA4002436121C5CF5F0EA84A8F0EE28F8EF3431
:101BB40000F9E82438F582E93400F583E0F97F047C
:101BC40002188774F51217DBEAFEEBFFEE243412D9
:101BD4001C5CC0E0EE2435F582EF3400F583D0E0E0
:101BE400F08E828F83A3A3A3A3A3E0FAA3E0FB8ECA
:101BF400828F83A3A3A3A3A3A3A3E0FCA3E0FDEC90
:101C0400C39AF50AED9BF50BEE2480F508EF34003A
:101C1400F509850882F583E06401702BEE2481F5D3
:101C240082EF3400F583121999121C65740212179D
:101C34002EE960137C3F7D05EEFAEFFB120B038562
:101C44000882850983E4F0AC0AAD0BEEFAEFFB12CF
:101C54001B241221B8021BC2F582EF3400F583E085
:101C640022C082C083851882851983E0F8A3E0F935
:101C7400C3EA9CEB9D5012C3EC98ED994019C3EA5A
:101C840098EB99501279018010C3EA98EB9940F5CA
:101C9400C3EC98ED9950EE7900D083D08222EAC348
:101CA4009CFAEB9DFB2200008521878522C622C079
:101CB400E074EF1218C7759B00906182E0A2E640C1
:101CC40003021D74E591A2E64003021D747591BFE1
:101CD400900404E064057008120CA1120CAD80039A
:101CE400120CA7752100120D13E9900405F0790078
:101CF400120D07120A6D7A017B00900403E0F912B9
:101D04000FDD907803E064426003021DBD9005A1DD
:101D1400E014F06003021DBDC2AF121D2100782A39
:101D2400D0E0F618D0E0F6E59F5407F970059092DC
:101D3400D080039092F878081215E8E9C4C0E078DE
:101D440029E65508F50808E65509F509740B7808DD
:101D54001216F6D0E02508F8906270E0A2E740F889
:101D6400E8C333906272F0906270E0D2E0F0804990
:101D7400E0A2E55024E591A2E5501E7591DF9004A0
:101D840004E0640D7013900426E004F064287002EB
:101D9400E4F07A00E0F9120D85906181E0A2E3504D
:101DA40009E5E9A2E3500375E9F7A3E0A2E75009C6
:101DB400E591A2E7500375917F7F04021926C0E0E4
:101DC400C0D0C082C083906183E0A2E05009E5BF27
:101DD400A2E0500375BFFEE0A2E15009E5BFA2E115
:101DE400500375BFFDE0A2E25009E5BFA2E2500333
:101DF40075BFFBE0A2E35009E5BFA2E3500375BF42
:101E0400F7E0A2E45009E5BFA2E4500375BFEFE098
:101E1400A2E55009E5BFA2E5500375BFDFE0A2E6E5
:101E24005009E5BFA2E6500375BFBFD083D082D06E
:101E3400D0D0E032C0E074F21218C7E5A7A2E45093
:101E44000FE5A1A2E4500953A7EF75A1EF121E8C70
:101E5400E5A7A2E5500CE5A1A2E5500653A7DF755E
:101E6400A1DFE5A7A2E15009E5A1A2E1500375A114
:101E7400FDE5A7A2E2500CE5A1A2E2500653A7FBA0
:101E840075A1FB7F0102192674F81217DB75210175
:101E9400900404E0640670077A007B00120C89A2A7
:101EA400AFE433FED2AF90040AE0640170187A20E4
:101EB4007B00900403E0F91210797A207B009004EF
:101EC40003E0F9120FE3906182E0D2E6F09005A0FE
:101ED400E0602185C6228016900409E06401700840
:101EE400E5C654F84405F5C653BEFC121CAC740197
:101EF400652160E4EEA2E092AF7F01021887000042
:101F04008E238F24858228858327851882851983CB
:101F1400E0CEA3E0CF852882852783EBC9EAC8ED0C
:101F2400CBECCA75F010C3E833C8E933C9EA33CA45
:101F3400EB33CBC3EA9EF526EB9FF525B35004ABF8
:101F440025AA26EC33CCED33CDD5F0DAAE23AF247D
:101F54002274F11217DB8A088B098C0A8D0B740F1B
:101F6400121763780C1215E89092BC78081215C207
:101F74009092BC780C1215C27808790C1213FA509E
:101F8400157808790C12159A9092D4780812141ABC
:101F9400401579018013780C790812159A9092D41F
:101FA400780C12141A40EB79007F0802188774ED3C
:101FB4001217DB8A088B098C0A8D0B7413121763B2
:101FC400780C1215E89092BC78081215C29092BC55
:101FD400780C1215C2780C79081213FA401178089B
:101FE400790C12159AAA08AB09AC0AAD0B802275BC
:101FF40010007511007512007513017810790C1218
:10200400159A78107908121561AA10AB11AC12ADAB
:10201400137F0C0218879092BC78081215E88A8204
:102024008B8378081215D57F0402188774F512176C
:10203400DB8C828D8378081215E88A828B8378087A
:102044001215AE122084C3E098F0A3E09912207612
:10205400401E90927C78081215E88A828B83780857
:102064001215878E828F83E02420F0A3E0344EF093
:1020740080A4F08E828F83C3E09420A3E0944E2248
:10208400EA2404F8EB3400F9E8FEE9FF8C828D833E
:10209400A3A3A3A3E0F8A3E0F98E828F832274F5AF
:1020A4001217DBE9FE900556E0FAA3E0FBEEC3331A
:1020B400F8E433F9746628F582749139F583E02ADB
:1020C400F508A3E03BF50978081219829092A4124E
:1020D4001606121F04740212172E8A088B098C0A22
:1020E4008D0B74107808121529AA08AB097F040215
:1020F400188774F11217DB8A0C8B0D8C0E8D0F74FC
:102104000F121763E0FAA3E0FB7411121763E0F5F2
:1021140008A3E0F5097413121763E0FEA3E0FF7847
:1021240008121982EA2401F508EB3400F509E4F5F4
:102134000AF50B780C79081214399092B0780812C9
:1021440015E8780C7908121439AA0CAB0DAC0EAD55
:102154000F121F04740212172E8B09EA450960043A
:102164007A0180027A00EC2AFCED3400FDECF8EDF3
:10217400F97A717B0212168D88088909E4F50AF54B
:102184000B8E828F8378081215F7ECF8EDF97A71CB
:102194007B0212168D8A088B0974057808121705BC
:1021A4008E828F83A3A3A3A3E508F0A3E509F07FA0
:1021B40008021887C082C083E9906000F0D083D001
:1021C4008222C0E074F21218C7A2AFE433FED2AF89
:1021D400C2C0E5D1A2E4500653D1EF121295EEA28B
:1021E400E092AF7F01021926C0E074F21218C7A270
:1021F400AFE433FED2AFE589A2E150031211E775D3
:102204008900C2C5EEA2E092AF7F01021926C0E0A8
:1022140074F21218C7A2AFE433FED2AFE58BA2E08A
:1022240050031211E7758B00C2E880D8C0E0C0D01B
:10223400E8C0E0E5A8D2AFC2C7A2E792AFD0E0F809
:10224400D0D0D0E032C0E0C0D0E8C0E0E9C0E0C007
:1022540008C009C082C083A2AFE433F9D2AF900AA8
:1022640042E0F8A3E0687008539AFBA37401802647
:10227400C2E9900A42E0F50874012508F074C22509
:1022840008F58274093400F583E0F5C1900A42E050
:10229400C394804002E4F0E9A2E092AFD083D082FC
:0F22A400D009D008D0E0F9D0E0F8D0D0D0E032A7
:1022B400FFFFFFFFFFFFFFFFC082C083E9900C1CFC
:1022C400F00224DB74F712176FE9900322F07C5AB2
:1022D4007D037AFF7BFF12079790032374FFF0A31B
:1022E400F0A3E4F0A3F07905120725900322E0F9A6
:1022F40012064D7AAF7B0712096B0231E974F412AE
:10230400176F8A088B09EB54806030900322E0F940
:10231400120FC58A0A8B0BAE0AAF0BEE4F60138EF9
:10232400828F83E064B07003120737EEFAEFFB127A
:102334000FB3AA08E5096480FB80047A007B0002DD
:1023440024AA74F212176F74FC121718EAFEEBFF3A
:1023540074121217631236D0EE4F70030223E9741D
:1023640002121763EEF0A3EF1226E5ECF0A3ED12D0
:1023740026E5AA82AB83120647E9F50A706AE508E6
:10238400450960648E828F831236B6EE4F60567AAA
:10239400067B001210378A0C8B0DA80CA90DE84996
:1023A4007005750A13804188828983E41223F6EE4E
:1023B400F0A3EF1236E1E508F0A3E509F090032855
:1023C40012247D9003287005123193801B123181F1
:1023D4008003EAFCEBFD8C828D8312247D70F38CE8
:1023E400828D8380E3750A02A90A740412172E02EF
:1023F40038D0F0A3123687A32274F212176F890A19
:10240400E975F017A4FEAFF0900327E4F0900325DC
:1024140012247D600A12103D900325E4F0A3F0EE2F
:10242400FAEFFB1210378A088B09EA4509602FEE90
:10243400FCEFFD7900120F9B900325E508F0A3E55E
:1024440009F07B008008122467E4F0A3F00BEBC3CF
:10245400950A40F2E50A900327F079008002791387
:102464000238D0EB75F017A4F8A9F0900325E02802
:10247400FAA3E0398A82F58322122E25EA4B2274CC
:10248400F412176F7900EAA2E0501B75084E750923
:102494009278081219827C047D007A1E7B0C120744
:1024A4001F740212172E7F04021841C082C0839049
:1024B40003281224E2601C88828983A3A3E06A7043
:1024C40003A3E06B8882898370E8A3A3A3A3122EDD
:1024D4002180047A007B00D083D082020122123949
:1024E400B6E8492274EE12176F74FC121718EAFE4C
:1024F400EBFF851882851983E4F0A3F0EE24021221
:102504003173EE240512368EEE2404F50EEF122AF2
:102514009AE024FE603924FC604624FE605224FEC6
:10252400605E24FE70030225FB24FE700302265F16
:1025340024FE700302266E24FE700302267D24FC12
:10254400700302268C24FE700302269B0226D89078
:1025540003417417F0A3E41226ED1202DB0226D81D
:10256400851882851983AC82AD8312073D0226A8A3
:10257400851882851983AC82AD831207430226A88D
:10258400850C08850D097402121763AC82AD83852E
:102594000882850983122E2112066B8A0C8B0DACDE
:1025A4000CAD0DEC4D603BE4F50CF50D780C1219F7
:1025B40082750C41750D03780C121982750C4275E5
:1025C4000D03780C121982740812176312199912E8
:1025D40039DA12172EE9F50C700B122E171202F3CA
:1025E400800F750C018508828509831226DB123160
:1025F40093850C080226AB7402121763AC82AD8378
:10260400850C82850D83122BEC603C850C82850D34
:1026140083A3A31219997510417511037810121927
:1026240082751042751103781012198274081217FA
:10263400631219991239DA12172EE9F509700B127F
:102644002E171202F9800F750901850C82850D83FE
:102654001226DB123193850908804C85188285196E
:1026640083AC82AD83120749803A85188285198329
:10267400AC82AD8312074F802B851882851983ACF9
:1026840082AD83120755801C851882851983AC821C
:10269400AD8312075B800D851882851983AC82ADEA
:1026A40083120761E9F508E50860298E828F83A308
:1026B400E06414601F850E82850F83E0900341124D
:1026C40026E51239B2900342123193E508A312268B
:1026D400ED1202D50230821239B68518828519832B
:1026E40022F085188285198322F07C417D03850AB6
:1026F40082850B83122E252274EE12176F74FC123E
:1027040017188A0A8B0B8C0E8D0FEA2405F508EB3B
:102714003400F5097C157D0079007A417B03120FA2
:102724009BE5082402F50CE509123691851882858B
:102734001983858210858311781012198285088285
:10274400850983A3A3A3A3122BE3121982E508240A
:1027540005F510E5093400F5117810121982850C7D
:1027640082850D83122F38120665740612172E8A7D
:10277400108B11AE10AF11E50A2402F50AE50B1215
:102784003176EE4F70030228BA8017740212176371
:10279400122E2188828983EAF0A3EBF0900341E0B2
:1027A40004F0900341E0C3940540030228BAE4F521
:1027B40010F511781012198275102A75110378100A
:1027C40012198275102B7511037810121982740670
:1027D4001217631219997910EEFCEFFD1239DC120D
:1027E400172EE9705E850882850983A3A3A3A3A39A
:1027F400A3A3E0F890032AE0687048122BE31219AF
:10280400827C2B7D03E5082408FAE5093400FB12D9
:102814000F95740212172EE960298E828F83A3A369
:10282400A3A3122E21900341E0F510740278101234
:10283400170574422510F58274033511F583EAF007
:10284400A3EBF0740212176385821085831178104C
:102854001219827402121763121999850C82850D5C
:1028640083122E4712172E8A108B11AE10AF1190BF
:102874000341E0F510751100740278101217057405
:10288400412510F874033511F988828983A3122431
:102894007D7003022786E82403080808E93400F958
:1028A400EE4F600302278F8882898374FFF0A3F0C0
:1028B400900341E004F0900341E0600A122E1712E5
:1028C40002E77900800B85088285098312318A79B1
:1028D4000A02308274EA12176F74FE1217188C12EF
:1028E4008D13EA2405F50CEB1239C41236BA7508B7
:1028F40000750900EA2402F510EB3400F51185187F
:102904008285198385820A85830B780A1219828548
:102914000C82850D83A3A3A3A3122AB0121982E506
:102924000C2405F50AE50D123176780A1219828510
:102934000C82850D83122AB4120665740612172EB2
:102944008A0A8B0BEA450B7003022A55EA2404F524
:102954000EEB122A9A1236BA8A828B83A3A3A3E0BF
:10296400F9851082851183122E2B6003022A55E407
:10297400F514F515781412198275142A751503784F
:102984001412198275142B75150378141219827494
:10299400061217631219997913AC0AAD0B851082CC
:1029A4008511831239E212172EE9F5096003022A10
:1029B4005590032AE0F8E5087009E02402900342E8
:1029C400F08014900342E0FCE82402FAE43400FBB3
:1029D400EA6C7001EB707E850882AA82122BDA946D
:1029E40014122BD2506B850E82850F83E0C0E074E5
:1029F400432A122A91D0E0F00508850E82850F83C0
:102A0400A3E0C0E085080A7443250A122A91D0E0A5
:102A1400F0050890032A122AB01219827C2B7D0338
:102A240085080A7443250A122AA412172E90032A31
:102A3400E02508F50874FF6E700374FF6F6012EEF2
:102A440024010EEF3400FFE508C394145003022957
:102A540002E5086013122E35851082851183122E2B
:102A6400211202ED79008014E509700375090A85C5
:102A74001282851383EEF0A3EFF0A90974021217F2
:102A84002E7F0E02184185080C7443250CF58274C0
:102A9400033400F583223400F50F850E82F583227A
:102AA400FA74033400FB120F837402221236F022EC
:102AB400A3A3122ABA22123181FDEEFAEFFB22748B
:102AC400EE12176F74FE1217188C0E8D0FEA240580
:102AD400F50CEB123691750B00900341E4F0F50A06
:102AE400EA2402F508EB3400F5098044900341E040
:102AF400FA90032AE0F8122BDA9417122BD2400D25
:102B0400900341E0F87416C39890032AF0122BE363
:102B14001219827C2B7D0374422AFA7403122AA7A9
:102B240012172E90032AE0F8900341E028F0050ADA
:102B3400E50C2416F582E50D122A95E0F8E50AC3A2
:102B4400985074900341E0C39416506BE50AC33364
:102B5400F8E433F9E50C28FEE50D39FF8518828584
:102B64001983AC82AD838E828F83122BEC7008752F
:102B74000B011231868050E4F510F511781012190A
:102B84008275102A751103781012198275102B752D
:102B940011037810121982740612176312199979A5
:102BA400168508828509831239E212172EE9F50B7E
:102BB4007003022AF080BB7C417D0385088285096D
:102BC40083122E211202FFA90B7402023084E994AD
:102BD40000C365D03322EA28F8E43400F9E822E09F
:102BE400F5107511007810221230798A108B11AC0F
:102BF40010AD11EC4D2274EA12176F74FC12171801
:102C04008A0C8B0D8C128D13EA2405F50AEB123114
:102C140076750800750900E50A2402F510E50B3401
:102C240000F511740212176385820E85830F780EE6
:102C3400121982850A82850B83A3A3A3A312369655
:102C4400121982E50A2405F50EE50B3400F50F7818
:102C54000E12198285108285118312317C122E1B6B
:102C6400120665740612172E8A0E8B0FAE0EAF0F66
:102C7400E50C2402F50EE50D3400F50F803888824A
:102C8400898374FFF00508122A8A74FFF0050890FE
:102C9400032AE0F50C750D00780C1219827C2B7D4B
:102CA4000385080C7443250C122AA412172E9003D2
:102CB4002AE02508F508EE4F60278E828F83A3A3B0
:102CC400A3E0F9850E82850F83122E2BEE240412C5
:102CD400368EE96027850C82850D83122E0D123104
:102CE40093E5087003022DF3122E35850E82850FAD
:102CF40083122E211203057900022E08E4F514F53F
:102D040015781412198275142A751503781412197A
:102D14008275142B7515037814121982740812170E
:102D2400631219997911EEFCEFFD850E82850F83EC
:102D34001239E212172EE9F509709A850882AA82DF
:102D4400EA90032A7009E02404900342F08025E00D
:102D5400F8900342E0F514E82404FCE43400FDECAC
:102D640065147001ED7081122BDA9412122BD2408B
:102D740003022CEC850C82850D83E0C0E074432AA9
:102D8400122A91D0E0F00508850C82850D83A3E01A
:102D9400C0E0122A8AD0E0122E5085820C85830D61
:102DA400780C12198274041217631219998510820F
:102DB400851183122E4712172E8A0C8B0DAE0CAF81
:102DC4000D85080C7443250CF874033400F9EE4F98
:102DD4007003022C82851882851983E08882898396
:102DE400122E50A3E0C0E0122A8AD0E0022C90E513
:102DF40009700375090A850A82850B83122E0D1248
:102E04003193A9097404022A821239B68512828583
:102E14001383227C417D03850A82850B83122E2530
:102E240022E0FAA3E0FB22122E25120653E9F5094B
:102E340022900342E0F5F0E50884900341F07C41E0
:102E44007D0322122ABA120671740422F005088541
:102E540018828519832274EC12176F74FE121718E6
:102E64008A088B098C0E8D0FEA2405FEEB3400FFD3
:102E7400123063EE241812368EEA450B7003022FCB
:102E84000612304C5029122F2B8A108B11EA45114F
:102E9400606B7912AC0AAD0B850882850983122E0A
:102EA4002185108285118312176DE9F50A7058E4A3
:102EB400F50AF50B780A1219828E828F83A3A3E098
:102EC400F50A780A121982EE2403123173780A1271
:102ED40019828E828F83122F381207857406121777
:102EE4002EE9F50A7021850C82850D83E0701F851B
:102EF4000882850983122E2112030B8011750A0E94
:102F04008009750A018004E50A6003123186850C84
:102F140082850D83E0600479008002A90A7402129C
:102F2400172E7F0C021841851882851983122E25CD
:102F340012077322123181FD850882850983122EBE
:102F4400252274EE12176F74FE1217188A088B0963
:102F54008C0C8D0DEA2405FEEB3400FF750E001277
:102F64003063EA450B700302302A12304C502C12A5
:102F74002F2B8A0E8B0FEA450F604A7912AC0AADEB
:102F84000B850882850983122E21850E82850F8385
:102F940012176DE9F50E600302302D85088285094C
:102FA40083123268AA0AFB12303E70147AFF7BFF48
:102FB40012303E606C88828983E50AF0A3E50BF049
:102FC400750A008007750E0E805F050A900327E0DE
:102FD400FAE50AC39A504AE50A75F017A4FAABF069
:102FE40088828983A3A3E02AFAA3E03BFB8A828B2D
:102FF4008312317CEC4D70D2750A17750B00780A78
:10300400121982EEFCEFFD120F83740212172EEEDA
:10301400FCEFFD850882850983122E21120311809D
:1030240014750E098003750E011239AE850C828564
:103034000D83123193A90E022BCD1207678A108BD0
:1030440011A810A911E84922E5082402F508E509A8
:103054003400F5098A828B83A3A3A3E0A2E5228529
:103064001882851983AC82AD838E828F8312307966
:103074008A0A8B0B22E0FAA3E0FB12066B2274048B
:1030840012172E7F0A02184174EC12176F8C108DE0
:1030940011EA2405F50CEB123691750F00EA2402AF
:1030A400F50AEB123176850A82F583122E21123A43
:1030B400687003023168750E008071850C82850D7D
:1030C40083E06401704F8E828F83A3A31219998EBB
:1030D400828F83A3A3A3A3E0F512751300781212C1
:1030E4001982EE2405F512EF3400F5137812121943
:1030F40082122E1B120785740612172EE9F50F6033
:1031040014850C82850D83E4F01239AE8510828516
:1031140011831231937C177D007900EEFAEFFB12D4
:103124000F9B8E828F83E4F0A3F0050E900327E0BB
:10313400F8E50EC398501EE50E75F017A4F8A9F033
:10314400850882850983A3A31239CE12317CEC4D04
:1031540060030230BF85088285098374FFF0A3F001
:10316400E50F7006122E1B120317A90F022F26F566
:103174000AEF3400F50B22A3123181FD22E0FCA3F7
:10318400E0228E828F831239B6850E82850F83E802
:10319400F0A3E9F022C082C083900323E06A7003A5
:1031A400A3E06B70067A237B0380047A007B000221
:1031B40024DB74F712176F7F00EF75F003A4F8A9EE
:1031C400F0EC28F8ED39F988828983E06A7003A36A
:1031D400E06B7006E8FAE9FB800B0FEFC394024042
:1031E400D87A007B007F0102184174F612176F121F
:1031F400379F70067A007B008007A3A3A3A3122E37
:103204002102386074F212176FE9FE740E1217630C
:1032140012326874101217631236D08C828D83E0D8
:103224006402703BA31239B288828983E0F50CA34F
:10323400E0F9A80C74026870037429697021750C94
:1032440002750D00780C1219827808121982780A16
:10325400121982EEF91207A9740612172E80027948
:10326400010238D0E0F50AA3E0F50B2274E8121746
:103274006F74FB121718E9851882851983F08A1672
:103284008B178C0E8D0F741F1217631236D0742196
:1032940012176312326874231217631236BA751048
:1032A400008C828D83A3A3A3E0A2E4502A741D1290
:1032B4001763122F318A828B83E582458370030260
:1032C400337C790AAC0EAD0FAA16AB1712176DE951
:1032D400F510600302337F850E82850F83E064025C
:1032E4006003023635A31239B2850882850983A3A7
:1032F400858212858313E50E2406F50CE50F12363C
:103304009188828983E0FAA3E0F9EA2400F514E4C1
:1033140039F5157814121A6B01000028012844337A
:10332400070002281B3403288B3300294535012963
:103334006D3502291435032945350429D63535362A
:10334400EE4F703E850C82850D831236ABFAE9FB95
:103354008A828B83E0850A82850B831236E71219F1
:10336400828A828B83A3123181FDAA08AB09120FD2
:1033740083740212172E800375100EA910740502AF
:1033840039BC75100B80F4EE4F70F7850A82850BFB
:10339400837401F01236C0850882850983F07C00AD
:1033A4007D00850E82850F83A3A3A3A3E02401FAE5
:1033B400A3E03400FB12066BEA4B60418A828B83E4
:1033C400E02402F8850A82850B83E028F0EA2404CD
:1033D400F8EB3400F988828983E0851282851383AF
:1033E4001236F91236E71219828A828B8312317BE4
:1033F400E5082403FAE5093400FB023372850A82E6
:10340400850B83E02404F07C047D007900AA12ABD0
:1034140013120F9B02337FEE4F6003023386123682
:10342400C0FEA3E0FF850A82850B837404F0EE8559
:103434000882850983F0EF851282851383F0740373
:10344400121763AC82AD83EEFAEFFB12378D700373
:103454000234F18A828B83A3A31236B67401121745
:103464006385820E85830F780E12198274051217F4
:10347400631219997CFF7DFF120671740412172ED2
:103484008B0FEA450F7033850C82850D83123696B7
:10349400121982850C82850D83A31219997C027DF1
:1034A400007A147B9312040D740412172EE9700A27
:1034B400740112176374FFF0A3F08E828F83E064AB
:1034C400027034750C02750D00780C1219828E820C
:1034D4008F8312317BE5082404FAE509122AA71226
:1034E400172E850A82850B83E02402800974011259
:1034F4001763EEF0A3EFF074011217631236A7F00E
:103504007401121763A312369FA3A3A3F002337F9F
:10351400EE4F6003023386850C82850D8312317C65
:10352400AA16AB1712079D850A82850B837402F0D5
:10353400EA850882850983F0851282851383EB80EE
:10354400CBEE4F60030233861236C0F8A3E0F98550
:103554000A82850B837402F0E8850882850983F06A
:10356400E985128285138380A3850C82850D8312DD
:103574002E21120F7DEAFC8C82A882C39EE49F4018
:103584004BE86E7001EF70047C00801F8518828503
:103594001983E0FAEE2AFAEF3400FBC3EA98EB94BD
:1035A400005003E08004EECCC39CFCEC850A8285C9
:1035B4000B83F08C0A750B00780A121982850C8231
:1035C400850D83E02EFCA3E03F02336D75100702E6
:1035D400337FEE4F6003023386850C82850D8312A0
:1035E40039B2850A82850B837407F0888289831235
:1035F400369F123687E0851282851383F0E8240211
:10360400FAE93400FB8A828B8312369F1236D81271
:1036140036A7A31236E11236B0F0E82405F8E934EF
:1036240000F9888289831236B0A31236F9A30235D1
:103634000D741D121763123798700302337C12390C
:10364400B2880C890DE8450D700302337C8E108F0F
:10365400117810121982780A1219827808121982C4
:103664007406121763E0F9AC0EAD0FAA16AB1785FA
:103674000C82850D8312176D740612172EE9F5104E
:1036840002337FF088828983A322F50CEF3400F59E
:103694000D22E0F50E750F00780E22E08508828574
:1036A400098322123700221239B6E822123700A306
:1036B400A322A3A3A3A3E0FEA3E0FF22850C82859B
:1036C4000D83E0F8A3E0F5838882E022E0F508A307
:1036D400E0F50922A3A3F08A828B83A3221223F8A4
:1036E400A3A322F08A828B831236F022E0F50A75B6
:1036F4000B00780A2212368712370022E0850882EE
:10370400850983A3A32274EE12176F74FE1217188F
:103714008A0A8B0BECFAEDFB7414121763E0F510B4
:10372400A3E0F5117416121763E0FE741812176300
:10373400E0F50EA3E0F50F851882851983AC82AD00
:103744008312378D603E85188285198312379860FD
:103754002FA3A31236D0E50845096024780E121968
:10376400827810121982EEF9AC0CAD0DAA0AAB0BDB
:1037740085088285098312176D740412172E80063A
:10378400790E80027901022BCD12066B8A0C8B0D07
:10379400EA450D22122E2512379F221207318A8202
:1037A4008B83E58245832274F612176F74FE121719
:1037B40018740C1217631236AB851882851983F0BE
:1037C4007401121763E9F0E4F508F5097808121991
:1037D40082750802780812198274041217638582AC
:1037E400088583097808121982120785740612174E
:1037F4002E740212172E806474F712176FEAFEEB10
:10380400FF89087C5A7D0312079DEA5402600BA9C4
:1038140008EEFAEFFB12065F800279010231E974C7
:10382400F612176F74FF6A700374FF6B701C7B00D1
:10383400EB75F003A4F8A9F0EC28F8ED39F9123887
:10384400650BEBC39402501480E612076D8A088B53
:1038540009A808A909E84960031238657F0202181B
:10386400418882898374FF1223F6E4F02274F612ED
:10387400176F12076D8A828B83E58245836006A3E6
:10388400A3E0FA80027A007B0080D174F212176FF1
:103894008A088B09ECFEEDFF740E121763E0F50A3B
:1038A4001238D5701CEEFCEFFD7AFF7BFF1238D581
:1038B40070047911801688828983E508F0A3E509EC
:1038C400F088828983A3A3E50AF079007F060218B1
:1038D4004112076D8A0C8B0DA80CA90DE8492274BE
:1038E400EE12176FEAFEEBFF8C088D09890C741237
:1038F4001217631239B2741412176312317C7416DE
:10390400121763122E21750D00EC4D60030239A6C7
:103914007402650C60030239A188828983123181A3
:10392400F9EC2400F50EE439F50FEAF4F8EBF4F9B8
:10393400EC58F8E50F59F9E849705DE5082406F8F4
:10394400E5093400F9880A890B8882F583122AB6BE
:1039540012079D8A108B11E50E65107004E50F6542
:10396400116042780E121982850A82850B83122A0D
:10397400B61207A3740212172EE9F50D7027780EFC
:10398400121982850882850983A3A3122AB4120717
:10399400B5740212172E800D750D808008750D0DFB
:1039A4008003750D0BA90D0230878E828F83123927
:1039B400B622E0F8A3E0F92212172E7F1002184174
:1039C4003400F50D850C82F58322E028FEA3E0394E
:1039D400FF8E828F83227916850A82850B83122EAD
:1039E4002512077F74082274F212176FEAFEEBFFA8
:1039F400890B7401650B600E7402650B70637901A9
:103A0400120989E9705BEEFAEFFB123A68604775B8
:103A14000A00800B7C177D007900120F9B050A9029
:103A24000327E0F8E50AC3985021E50A75F017A4C6
:103A3400F8A9F0850882850983A3A3E028FAA3E006
:103A440039FB8A828B831224E270C9850882850936
:103A54008374FFF0A3F07C5A7D03EEFAEFFB1207A8
:103A6400970238D01207678A088B09EA450922743D
:103A7400F212176F8A088B09ECFEEDFF740E121711
:103A840063123268900C1CE0F4603D7A097B0012EA
:103A94000FADEA4B60328A828B8374B1F0A3E412D7
:103AA40036DAA31236D8A3E508F0A3E509123ACF13
:103AB400EEF0A3EF123ACFA3A3E50AF0A3E50BF0CF
:103AC400900C1CE0F9120FB90238D0F08A828B8373
:103AD400A3A3A3A3A32274F412176FE9FF7E008AA1
:103AE400088B0978081219C600040D8B3C0D3B297C
:103AF4003B3E3B533B683B7D3B993BB23BC43BF273
:103B04003B143C303C4C3C6A3C74016F70128C8218
:103B14008D83E0C394035008E0900C60F0023CA94C
:103B24007E18023CA974026F70F68C828D83124455
:103B340039900C61E8F0A3E980E274016F70E18CC4
:103B4400828D83E0C3940250D7E09007BD80CD748A
:103B5400016F70CC8C828D83E0C3940550C2E090D9
:103B640007BE80B874016F70B78C828D83E0C394F4
:103B74000250ADE09007BF80A374106F70A2750867
:103B8400108E0978081219827AC07B071247FD1239
:103B9400172E023CA974016F70868C828D83E0C35A
:103BA40094024003023B24E09007D0023B207401BE
:103BB4006F6003023B248C828D83E0900C64808DC3
:103BC40074046F6003023B249092A478081215E8F1
:103BD4008D838C82780812140A4003023B248C8261
:103BE4008D831216069007D2121612023CA9EF60BA
:103BF40003023B2412057BE9700E12114B7950121B
:103C0400132512113F023CA99008657401023B2060
:103C140074016F6003023B248C828D83E0C39402A1
:103C24004003023B24E09007D1023B2074016F6003
:103C340003023B248C828D83E0C3940A4003023B3D
:103C440024E0900C63023B2074016F6003023B2468
:103C54008C828D83E024F9C3940A4003023B24E060
:103C6400900C65023B2074016F6003023B249008B2
:103C740064E0F88C828D83E0900864F0E87026E0BC
:103C840064017021023C06C3EA9426EB94005013AD
:103C940074026F700E8C828D83124433120419E9FE
:103CA400FE80020E0EEEF9023CB3740E12172E7F44
:103CB4000402184174F012176F74CC1217188C0A8E
:103CC4008D0B7444121763E0FE7420121763AC82E8
:103CD400AD83758392758254740612162B74201268
:103CE4001763AC82AD831210EBE9F508C3940A4064
:103CF40003023E1C75F006E9A4F509742612176345
:103D0400AC82AD837A0E742025091248B57009740B
:103D140032121763E0FF80027F00900C60E06402BF
:103D2400700474018001E4F50D780D121986EEFD1E
:103D3400EFFCA908AA0AAB0B121175740112172E15
:103D44007C147D007900740C121763AA82AB831271
:103D54000F9B740C121763AC82AD837A1074242504
:103D6400091248B570377C1079FF740C121763126E
:103D740045E27029741C121763AC82AD837A047413
:103D8400252509F912131F740C121763AC82AD8335
:103D9400EFA2E0E433F9AA0AAB0B1204A38518825C
:103DA400851983AC82AD837A0C747025081248B5EA
:103DB4007055851882851983AA82AB8312112175E7
:103DC4000800E50875F003A4F8A9F08518828519A0
:103DD40083E58228F8E58312461E124433EC4D60D5
:103DE4001D88828983A3A3E0F50E750F00780E1257
:103DF4001982AA0AAB0B12078B740212172E05083C
:103E0400E508C3940440BBEFA2E1500C9007BCE06A
:103E1400F9AA0AAB0B12079174046E702A900C6015
:103E2400E0640270229007D0E060047A0180027A94
:103E3400009007BDE06004780480027800E84AF945
:103E4400AA0AAB0B1205637900743412172E7F088B
:103E540002184174F012176FEAFEEBFF8C088D090B
:103E6400750A0AE9600C14600914602E14607F025C
:103E74003EFD121133E9F50AC3940A507CE5084566
:103E8400096076750E06750F00780E121982EEFC25
:103E9400EFFD1247F912172E805F750B00750E06A1
:103EA400750F00780E121982EEFCEFFDE50B75F02C
:103EB4000EA4F8A9F074DE28FA740739FB120F95E2
:103EC400740212172EE9601B850B0AE50AC3940AD3
:103ED4005027E50845096021AA08AB09A90A12116F
:103EE4002D8016050BE50BC3940A500D80AF1211FB
:103EF40039E9F50AC3940A40D9A90A023E5274F476
:103F040012176F890875091574FF6A700374FF6BC3
:103F140070277E00AC087A027B00EEF912110FE9DB
:103F240060037509000EEEC3940A40E8E508604991
:103F34007A637B1112099B804012097D8A0A8B0BDC
:103F4400AE0AAF0BEE4F602E7C007D00EE2405FA26
:103F5400EF3400FB8E828F83123FF9500CAC087A49
:103F6400027B0012110F750900E508600CEEFAEFF0
:103F7400FB1211638003750914A909023CB374F29E
:103F840012176FECFEEDFF740E12176312442675C0
:103F9400081574FF6A700374FF6B7021750900AC17
:103FA4000AAD0BEEFAEFFBA909121115E9600375CE
:103FB40008000509E509C3940A503580E212097D19
:103FC4008A828B83E582458360237C007D00E582C1
:103FD4002405FAE5833400FB123FF95013AC0AAD13
:103FE4000BEEFAEFFB121115750800800375081427
:103FF400A908024E24A3A3A3A3E0F91210EBE9C37A
:10400400940A22C082C0839007D6EAF0A3EBF09012
:1040140007BCE0FC7D007A257B001204199007BCE4
:10402400E0F912070DD083D08202012274EC12173A
:104034006F8A088B09E9FE7414121763780C121541
:10404400E87F00EE702E78081219829092A47810FE
:104054001215E8780C79101214B9AA10AB11AC122D
:10406400AD131204B5740212172EE9FF6009790129
:10407400AA08AB091204AFEFF97F0C02184174EAE5
:1040840012176F74EC121718EAFEEBFFEE240CF50E
:1040940014EF3400F515EE240AF510EF3400F51191
:1040A400EE2405F50EEF3400F50FEE2409F50AEFC2
:1040B4003400F50BEE2403F508EF3400F5098E8285
:1040C4008F83A3A3E024FA70030243EF24FD70035B
:1040D40002431E14700302416D14601024FD70032A
:1040E4000242EF14700302435302440D124452601F
:1040F4004AE0F5838882124439880C890DE8450D1D
:104104006039851482851583E0F50E780E121986C0
:10411400EE240BF582EF3400F583E0F9850A8285FD
:104124000B831244330A0A0AAB09850C82850D837A
:1041340012176D740112172E02440D850A82850B25
:10414400831219999007D21216061204B57402123A
:10415400172EE9700302440D7901850A82850B83C9
:10416400124C491204AF02440D8E828F83A38582C0
:1041740012858313E060030242C8850E82850F8393
:10418400E0A2E040030242C87C0E7D00790085185D
:1041940082851983AA82AB83120F9BEE2408F50A49
:1041A400EF3400F50B850A82F583124455601975C6
:1041B4000C06750D00780C121982850A82850B8312
:1041C400E02410FCA3E0801A124417EA4B700302A7
:1041D400440D750C06750D00780C121982EA24053D
:1041E400FCEB3400FD7402121763AA82AB831247FE
:1041F400FD12172E850E82850F83E0A2E25004D2B1
:10420400F08002C2F0A2F0E433F8740C121763E0F9
:1042140048F08510828511831244556015851082FB
:10422400851183E02410F8A3E03400F9888289839F
:10423400800390927C780C1215E885108285118396
:10424400124455600F851082851183E0F510A3E0B8
:10425400F5118006751000751100850A82850B839F
:10426400124455600B850A82850B8312442680060E
:10427400750A00750B00780C12197E7810121982D9
:10428400780A1219828514828515831219998E82EF
:104294008F83A312442E740A121763AA82AB83126B
:1042A4001127740A12172E8508828509831244394E
:1042B400900866E8F0A3E9F07A017B009007BCE07F
:1042C400F9120FDD124452700302440D12443F7080
:1042D4000302440D851282851383E0FC7901124C9C
:1042E400438E828F8312176D02440D124452700361
:1042F40002440DE0F5838882A3A3124439890BE8B4
:10430400450B700302440D8E828F83A3E0FC790277
:10431400124C438882850B8380CB7C007D00EE2485
:1043240004FAEF3400FB850882850983E0F9121052
:10433400EBE9F8C3940A400302440DAC10AD117AC2
:104344000475F006E8A42425F912131902440D900B
:1043540007D1E0600E900C63E0F98508828509833B
:10436400024164900C60E07004790580ED124417FA
:104374008A0C8B0DA80CA90DE82404F50CE9340073
:10438400F50D8E828F83A3A3A3A3A3A3A3E0A2E02E
:104394005036E8496073850C82850D83E0FE602801
:1043A400850A82850B83E05410701D740E12176306
:1043B400AC82AD83E82405FAE93400FBEEF912106F
:1043C400EBE9700479038092AC0EAD0F850C828505
:1043D4000D83E0F9124C4312116F124452602A12F9
:1043E400443F60257C0079000242E212057BE970BB
:1043F40018900865E06401700812114B900865E498
:10440400F0795012132512113F741412172E7F0ED7
:10441400021841850882850983E0FAA3E0FB1209AA
:104424007D22E0F50AA3E0F50B22A3A3A3A3A3E056
:10443400FCA3E0FD22E0F8A3E0F922E0F583888202
:10444400A3A3E0F8A3E0F9E8FEE9FFEE4F2290070A
:10445400D6E0F8A3E0F9E8492274F412176F74F275
:10446400121718EAFE8C0B75F006E9A42420F5084F
:10447400851882851983AC82AD837A0E1248B57093
:104484004A7C061245DA7043740C121763124439DD
:10449400E8F509E50B6005EE42098004EEF45209E3
:1044A400850982AA82E86A7001E9601B740C1217FC
:1044B40063EAF0A3E4F0851882851983AC82AD83A6
:1044C4007A0EA908121319790180027900023CAE10
:1044D40074F212176F74E6121718890A8A088B0986
:1044E400ECFEEDFF740C1217631248A8600302453A
:1044F4008E7C0679FF740C1217631245E260030286
:10450400458E7470250AF50B851882851983AC8253
:10451400AD837A0C1248B560030245D385188285B1
:104524001983AA82AB83121121E508450970217C05
:104534000C79001245DC60030245D37C0C7D0079C4
:1045440000851882851983AA82AB83120F9B806130
:10455400851882851983AC82AD83AA08AB09121130
:104564001B8A0C8B0DA80CA90DE849702CEE4F602A
:1045740019851882851983AC82AD837A007B001279
:10458400111BEAF8EBF9EA4B700479008043888246
:104594008983E508F0A3E509F012465AFAEE6A7039
:1045A40001EF602BEEF04F700888828983E4F0A35A
:1045B400F0851882851983AA82AB8312112185188C
:1045C40082851983AC82AD837A0CA90B12131979F5
:1045D40001741A024E2179FF851882851983AA82F3
:1045E400AB83121001E92274F712176F7F00EF7585
:1045F400F003A4F8A9F0EC28F8ED12461EE06A7066
:1046040003A3E06B7006E8FAE9FB800B0FEFC39499
:104614000440DB7A007B0002495339F9888289839C
:104624002274F712176F7E00EE75F003A4F8A9F058
:10463400EA28F8EB12461EE0F4FCA3E0F4FD8882BD
:104644008983ECF0A3EDF012465AF4F00EEEC39415
:104654000440D5024953E82402F582E93400F58385
:10466400E02274EE12176F74F4121718EAFEEBFFCF
:104674008C0A8D0B741E121763E0F50CA3E0F50D84
:104684007420121763E0F508A3E0F50974221217E9
:1046940063E0F510A3E0F511EE4F7005790A0247C7
:1046A4008B121133E9F50EC3940A4023750F007C75
:1046B4000679FFE50F75F00EA4FAABF074D82AFA68
:1046C40074073BFB1245E67003024795850F0EE520
:1046D4000EC3940A400302478975F006E50EA4F55B
:1046E4000FEEFCEFFD7A0E74201247A6E50A450B87
:1046F400600BAC0AAD0B7A1B74211247A6E50C457E
:104704000D600BAC0CAD0D7A1B74221247A6E508A4
:104714004509600BAC08AD097A1074231247A6E56D
:10472400104511601BAC10AD117A1074241247A609
:104734007424121763AC82AD837A0474251247A6DD
:104744007C0C7D0079FF124EB27A0C7470250EF940
:1047540012131975080E7509007808121982EEFCF7
:10476400EFFDE50E75F00EA4F8A9F074D828FA74DC
:104774000739FB1247FD12172E900864E0600312FC
:10478400117B121169A90E740C12172E7F0A0218DC
:1047940041050FE50FC3940A50030246B3750E0A90
:1047A40080E3250FF91213192274F412176F74F2AF
:1047B400121718EAFEEBFFE9C3940A5004EE4F7097
:1047C400047902802D8518828519831248A8F5087A
:1047D400701E750A06750B00780A1219827402128B
:1047E4001763AC82AD83EEFAEFFB1247FD12172E6E
:1047F400A908023CAEAA08AB09120F837402227402
:10480400F412176FEAFEEBFF750800750A06750BC4
:1048140000780A121982EEFCEFFDE50875F00EA48B
:10482400F8A9F074D828FA740739FB120F957402AA
:1048340012172EE96004A908800B0508E508C39443
:104844000A40C8790A023CB374F712176F74F01265
:104854001718EAFEEBFF750800851882851983ACEA
:1048640082AD837A1075F006E508A424231248B5B6
:10487400701F7C101245DA7018EEFCEFFD8518826B
:10488400851983AA82AB83120485E97004A9088080
:104894000B0508E508C3940A40BF790A741012177F
:1048A4002E024953AC82AD837A0E75F006E9A42436
:1048B40020F912131FE92274F712176F750800E527
:1048C4000875F00EA4F8A9F074D828FE740739FF0F
:1048D400EEFCEFFD7A0E75F006E5081248B2602C86
:1048E4007C067D0079FFEEFAEFFB120F9B7C067DC0
:1048F4000079FFEE2406FAEF3400FB120F9BEE243E
:104904000CF582EF3400F583E4F0A3F00508E50824
:10491400C3940A40AA900864E0600312117B121148
:1049240069802C74F712176F7E007F007C0679FF74
:10493400EF75F00EA4FAABF074D82AFA74073BFBB7
:104944001245E670010E0FEFC3940A40DFEEF97FC3
:104954000102184174F712176F7E00EEF91211511B
:104964000EEEC3940A5003E960F180E374F3121766
:104974006F74CB121718E9FF75F006A4F5087420BC
:104984002508FE7427121763AC82AD837A0EEE12EB
:1049940048B56003024A727C0679FF7427121763D4
:1049A4001245E26003024A727C0E7D0079FF74278F
:1049B400121763AA82AB83120F9B7C1B7D0079FFC5
:1049C400740C121763AA82AB83120F9B7C0C7D00BC
:1049D40079FF851882851983AA82AB83120F9B7491
:1049E40027121763AC82AD837A0EEEF9121319E91C
:1049F400F509740C121763AC82AD837A1B7421120F
:104A04004A81FE740C121763AC82AD837A1B742244
:104A1400124A81F50A740C121763AC82AD837A10C2
:104A24007423124A81F50B740C121763AC82AD83A4
:104A34007A107424124A81F50C740C121763AC8238
:104A4400AD837A047425124A81F508851882851984
:104A540083AC82AD837A0C74702FF9121319E9F8C0
:104A6400EE450A450B450C45084842098003750983
:104A740000A909743512172E7F050218412508F97B
:104A8400121319E92274F712176FE99007BCF01298
:104A9400113F02495374F212176F74FB1217188AEC
:104AA400088B09EB54807003024B3D9007BCE0F97E
:104AB400120FC58A0A8B0BA80AA90BE8FEE9FFE8C6
:104AC40049606CEE2404F8EF3400F98E828F83E0A1
:104AD4002450603814600624E1604A804B8882893F
:104AE40083E070448E828F83A3A3A3A3A3A3A31202
:104AF40019998E828F8312442E8E828F83A3A312E0
:104B04004C491210F7740212172E801C8882898374
:104B1400E0641E701379008E828F83A3A3124C4924
:104B24001210F18003121109EEFAEFFB120FB3AA6F
:104B340008E5096480FB024C3EEAA2E04003024C13
:104B44003A900866124426740312176385820C8512
:104B5400830D780C121982750C02750D00780C12F5
:104B64001982750C0E750D93780C1219827CFF7DD9
:104B7400FF7A017B00120665740612172E024C227E
:104B8400E4F50CF50D780C12198274041217638580
:104B9400820C85830D780C121982740412176385B4
:104BA400820C85830D780C12198274091217631212
:104BB40019997902EEFCEFFDAA0AAB0B12077F7478
:104BC4000812172EE97035851882851983E0FA7466
:104BD40001121763E0F9EA2400F50CE439F50DEA53
:104BE400450D6018780C1219828E828F8312442F1F
:104BF400AA0AAB0B1210F7740212172EE4F50CF587
:104C04000D780C12198274051217631219997CFF1E
:104C14007DFFEEFAEFFB120671740412172E8A0C54
:104C24008B0DAE0CAF0DEE4F6003024B84E50864B0
:104C340001FAAB0980047A007B007405024E2185D9
:104C44000882850983E0FAA3E0FB22C082C0839036
:104C540007BCE0F98A828B83A3124C4912079102A4
:104C64004029C082C08374FF121718121145E9C38A
:104C74009402851882851983400474028002740AA0
:104C8400F0AC82AD837A0179051205937401121791
:104C94002E02402974F212176F74E8121718EAFEF4
:104CA400EBFF890A8C088D097C187D007900124E6F
:104CB400BAEEF0A3EFF09007BEE0C0E07402121762
:104CC40063D0E0F09007BFE0C0E07403121763D034
:104CD400E0F0900C65E0C0E07417121763D0E0F0C8
:104CE4007415121763E054FEF8A3E0F9900C64E025
:104CF400A2E0E433FAE84AF87415121763124E304E
:104D0400A2E15004D2F08002C2F0E854FDFAA2F00D
:104D1400E43333F8EA48F87415121763124E30A2DC
:104D2400E35004D2F08002C2F0E854F7FAA2F0E4AF
:104D340033F50C750D007403780C121705124E2907
:104D4400121763124E30A2E45004D2F08002C2F073
:104D5400E854EFFAA2F0E433F50C7404780C12175B
:104D640005124E29121763124E30A2E55004D2F0F8
:104D74008002C2F0E854DFFAA2F0E433F50C7405C3
:104D8400780C121705124E29121763124E30A2E244
:104D94005004D2F08002C2F0E854FBFAA2F0E433EB
:104DA400F50C7402780C121705124E29121763E8D9
:104DB400F0A3E9F09007BFE0601B750C10780C12AB
:104DC40019827CC07D077406121763AA82AB831212
:104DD40047FD12172E9007D0E06011E50A600974B0
:104DE40015121763E04402F078018002780074140D
:104DF400121763E048F09007BDE060047804800275
:104E040078007414121763E048F0AC08AD098518F3
:104E140082851983AA82AB831204A9741812172EEF
:104E24007F06021841EA450CF8741522E8F0A3E95C
:104E3400F0900C64E02274F312176F74E5121718E3
:104E4400EAFEEBFF8C098D0A7428121763E0F50C57
:104E540075F006E9A4F87408650A700474228002E7
:104E6400742128F50B7C1B7D007900124EB27A1B4D
:104E7400A90B1248B67032741A121763E024F9C3EE
:104E8400940A5025E50CF50B780B1219867401125F
:104E94001763AC82AD83E509A2E0E433F9EEFAEFDF
:104EA400FB1204BB740112172E741B024A79124EB2
:104EB400BAAC82AD8322851882851983AA82AB831A
:104EC400120F9B8518828519832274F712176F12AB
:104ED40007FD750800E50875F00EA4F8A9F074D86C
:104EE40028FE740739FF7C0679FFEEFAEFFB1245C2
:104EF400E67009EEFAEFFB79001208030508E508ED
:104F0400C3940A40D0024953C082C0839061907414
:104F140004F0A37448F0A3E4F09061807440F0902E
:104F240061BC7407F09061877469F09061B674167F
:104F3400F07900120A737902120A799022B4E49388
:104F4400F46006E493F9120A4F7905120D670253CF
:104F54004EC082C083E9540FF9906185E069601204
:104F6400E5C654804449F5C6E59E547F644970F80B
:104F7400E9F053C680E59E547F70FA02534E74F7ED
:104F840012176FE5A8FE53A87E120A5BC2BA539AA1
:104F9400FEC289759B00C2C2120A6175A91175B956
:104FA40005120A67D2BA439A0174805E42A8025875
:104FB400DBC082C083906181E4F0A302534B75E9A6
:104FC4000075910075BF00020122C082C083906108
:104FD40081E4F0A374C0F0A3E402534DC082C08303
:104FE40074F81217189004061257BDE849700302AA
:104FF4005097900406E05440602379088518828510
:105004001983AA82AB83120B69851882851983AA36
:1050140082AB8312081B900406E054BFF0E0548076
:105024006010790C7AC27B05120B69900406E05477
:105034007FF0E0A2E05008790012509F54FEF0E0A7
:1050440054026008790112509F54FDF0E05404604A
:105054000879001250AA54FBF0E054086008790162
:105064001250AA54F7F0E05410600879021250AAC2
:1050740054EFF0E05420600879031250AA54DFF092
:10508400A3E05401600D120A8512082D900407E074
:1050940054FEF0740812172E02534E120A731208AB
:1050A40021900406E022120A79120827900406E0EF
:1050B40022C082C083E9600514602A804F90619AFF
:1050C4007433F0A37455F09061A0743AF090059E87
:1050D400E064017009C2919004087467802D900403
:1050E400087461802690619A743FF0A3745AF0901A
:1050F40061A0747FF090059EE064017009D29190E4
:10510400040874718005900408746AF002534EC058
:1051140082C083E9600B14600D14600F1460118069
:10512400209022B880159022B980109022BA800B6A
:1051340090059EE0640160F39022BBE49390618645
:10514400F002534E74EE12176F74F4121718851888
:1051540082851983AC82AD837583927582707404E1
:1051640012162B9022B893F460030252DA90780856
:10517400E0C3940250030252BA7404121763AC825F
:10518400AD83758392758240740812162BF97AFFE9
:105194007BFF7FFF7E008982858210801874086EF1
:1051A400700302526F74096E700302526F740A6EB8
:1051B400700302526FE510C333FCE433FD74041230
:1051C4001763E5822CF582E5833DF583E0F50EA3B4
:1051D400E0F50F8E0875090074027808121705743B
:1051E400482508FC74783509FD8C828D8378081273
:1051F40015E87408780812152985080C85090D8CA2
:10520400828D8378081215E874187808121529E538
:105214000C4508F508E50DF509C3E50E9508E50FFD
:1052240095098C828D8378081215E88C828D837899
:10523400081215E8741878084014121529E50C456D
:1052440008FCAD0DE50EC39CFCE50F9D800F121507
:1052540029E50C4508C3950EFCE50D950FFDC3EC3F
:105264009AED9B5006ECFAEDFBEEFF0EEEC39413A1
:1052740050030251A174FF6A700374FF6B602D8F99
:1052840008740278081217057448125F6974783537
:1052940009F58378081215E8851882851983E58253
:1052A4002510F582E583125CF6E508F009E9C3945C
:1052B4000450030251927508017509007808121907
:1052C400827402121763AC82AD837AAE7B0812112A
:1052D400BD740212172E740C12172E7F0A02184185
:1052E400C082C083906186E0F89022BBE49368702A
:1052F400099022BAE493906186F09061AE7468F0EC
:10530400A3746AF090624574FBF0A304F053F4FDB7
:1053140043FE0290059E7401F09061A0E0643A702F
:1053240004790080027901120A7302534EC082C0CC
:1053340083900550E06401700A900555E06004799B
:105344000C800279008003F0A3F0D083D0820201A4
:1053540022C082C08375E1F1900553E0604D146072
:10536400081460511460498051120A97900549E06D
:10537400F97A4A7B05120CE9909284121606120DF2
:105384001F9092CC121606120CF5900554E0F912F7
:105394000D017901120D5B900547E024161254E3C8
:1053A40074AFF0A3740AF07900809F120A9D80BC48
:1053B400120AA380B7120AA980B2791280EB74F49E
:1053C40012176F75D90D900538E0A2E0E43313137A
:1053D400F812544F484401F5D978001254CD40FBDB
:1053E400780088087439125F6974051254D740F242
:1053F40075E195900538E0F97A397B05120CEF9048
:105404000C3E7425F0A3740A1254F212551212556C
:105414000912564A12545978081215E8909288785D
:10542400081215749092BC78081215C21254DD78D3
:10543400081215F7900547E024141254E37413F08E
:105444009004047402F07F04021841900549E0C4FA
:10545400333354C022900547E0F8A3E0F5838882F3
:10546400A3A32274F612176F12561B8AD97800125E
:1054740054CD40FB780080061255811256CDE8C306
:105484009940F512560D1254CD40FB780080081255
:105494005F6574051256CDE8C39940F375E19590A4
:1054A4000C3E7431F0A3740A1254F21254FC121616
:1054B400061254DD121612900547E024141254E328
:1054C4007412F09004040258B88808744A2508F548
:1054D400827405125829940622900547E0240EF898
:1054E400A3E01254EA223400F988828983221256F6
:1054F40033742BF0A3740A22125512125509125652
:105504004E90927C22F0A37443F0A3740A221255A5
:10551400162212551A22F0A374D5F0A3740B227428
:10552400F612176F12557612544F4402F5D97800CB
:105534001254CD40FB780080061255811256CDE8F6
:10554400C39940F575E195900C3E12558CF0A31269
:10555400558C1254FF1216061254DD1216129005C1
:1055640047E024141254E37414F090040474040205
:1055740058BA900559E0F9740729F5D922880874B6
:105584005A2508F582740522743D125599125599CD
:10559400F0A3740A22F0A3740AF0A3743D2274F6F3
:1055A40012176F12561B74064AF5D978001254CD9F
:1055B40040FB780080061255811256CDE8C399400D
:1055C400F512560D1254CD40FB78008008125F6529
:1055D40074051256CDE8C39940F375E195900C3EDD
:1055E4007437F0A3740A1256291254FC12160612C8
:1055F40054DD121612900547E024141254E3741576
:10560400F090040474030258BA9005791255797421
:10561400044AF5D9780022125576900549E0C4333E
:105624003354C0FA2212563374D5F0A3740B2212E9
:1056340056372212564474D5F0A3740B12564422E2
:1056440012551AF0A32212564E22F0900C4C74D527
:10565400F0A3740B12563774D5F0A3740B125516BD
:10566400F022C082C083125459A3A3A3A3E402531B
:105674004B74F712176F1261ABF8740439F9E8240C
:1056840005FAE93400FB8A828B83125F1A888289C7
:1056940083A3A3A3A3A3A3A3A3A3ECF0A3EDF088E4
:1056A400828983A3A3A3A3A3A3A3E024FFF8A3E075
:1056B40034FFF98A828B83E8F0A3E9F00258DB888F
:1056C4000874A22508F5827405125E41F5D90822F2
:1056D400EAFEEBFF9061D0E0F87480C398FAEE2400
:1056E40083221256EC940422125D04E0F5D90AEAEE
:1056F400C32274F612176FEAFEEBFF9061D0E070DC
:105704007575D90E75D90375D9047A008A08EE2502
:1057140008126279248C12578F40F17A008A08EEBD
:10572400250812627924841256E640F175E19579D0
:1057340008EE248C125788248412577F7C008C82B4
:10574400AA82C3E49AF895E0F9EE28F8EF39F9E86B
:10575400248BF582E9125E3DC0E0EE2A12627924C0
:10576400ABF582E9125CF6D0E0F00CECC39408408F
:10577400CD125845800279000258BBFAEF3400FB81
:10578400120B5D2212577F7904EE221256EC940814
:1057940022C082C08375D90275D90375D90575E114
:1057A40095EA2470F582EB1257BAEA2472F582EB7B
:1057B40012585702534E125D071257C122E0F8A344
:1057C400E0F92274F612176FEAFEEBFF9005A2745B
:1057D400061258331219827C017903125B5F121787
:1057E4002E75D90675D903780012581940FB75E156
:1057F40095900404E064087017EE2470F582EF12AB
:1058040057BAEE2472F582EF125CF6E8F0A3E9F0E1
:1058140079010258BB880874A22508F58274051220
:105824005829940522125D07E0F5D908E8C322F04F
:105834007508A275090578082275E1957904120D99
:1058440025EE2470F582EF125D071257C1EE247223
:10585400F582EF125D07E8F0A3E9F079012274F60E
:1058640012176FEAFEEBFF9061D0E070437901906C
:1058740005A2740BF0900404E0640770177508A285
:1058840075090578081219827C010909125B5F12F7
:10589400172E7905740129F5D975D9037800800389
:1058A4001256C3E8C39940F875E195125845800231
:1058B400790080037401F07F0202184174F7121713
:1058C4006FEAFEEBFF75D90375D90375D90DEE2484
:1058D400DE1258E012583D7F01021841F582EF12A2
:1058E4005E41F5D9227F030218417401250AF5D9D6
:1058F40075D90378002274F512176F12596F60047A
:10590400780480027800E8240BF8EAC398404175D3
:105914000A099005A27409F079081259586014759F
:1059240008A27509057808121982125B5712172EFE
:10593400750A0D1258EE80031256C3E8C3950A4047
:10594400F775E1957904120D25125AD47901800274
:1059540079008091EE24E3FCEF3400FD7AA37B050B
:10596400120B57850882850983E0221256D4F8EF7A
:10597400125F0EF583E02274F312176F8A088B0905
:10598400125B6AFAE5082483F50AEB125A396004BB
:10599400780480027800E82408F8EAC398500302E7
:1059A4005A32750C069005A2740CF0900421E09014
:1059B40005A3F07402C0E0F97C227D047AA47B057F
:1059C400120B57D0E0F97C247D04120B57850A8210
:1059D400850B83E0601C750AA2750B05780A121901
:1059E400827C067903AA08AB09125B5F12172E7535
:1059F4000C0A7401250CF5D975D90378008009883F
:105A04000A74A2250A1256C9E8C3950C40F175E13F
:105A1400957904120D25E5082470F582E5091257DD
:105A2400BAE5082472F582E5091258578002790014
:105A34007F050218413400F50B850A82F583E022C4
:105A440074F612176FEAFEEBFF125B6AFCEE248316
:105A5400F8EF125B6560047A0480027A00EA240499
:105A6400FAECC39A405E7A029005A2EAF0EE24F5BD
:105A7400F582EF125AE060197508A27509057808D5
:105A84001219827C027903EEFA125B5F12172E7AE6
:105A94000674012AF5D975D903780080031256C318
:105AA400E8C39A40F875E195EE2474125ACDEE24B9
:105AB40080125ACD125AD47904120D25EE240D12F7
:105AC4005848800279000258BBF582EF125C5022DC
:105AD400EE241DF582EF125C50A3F022125E419079
:105AE40005A3F088828983E02274F612176F125B93
:105AF4006AFEEA2483F8EB125B6560047C0480028E
:105B04007C00EC2404FCEEC39C40437C029005A280
:105B14007407F0EA24F6F582EB125AE06015750872
:105B2400A275090578081219827903125B5F1217AE
