:020000040000FA
:0600000002011D021D8A31
:03002B0002243B71
:0300330002241D87
:03005300021E008A
:03006B000223F479
:10008300021C7BE5C754F84401F5C779012200003F
:100093000080FB120086B90003020107E47921788E
:1000A30008B800028004F709D8FCE479297802B87B
:1000B30000028004F709D8FCE490028178B679073E
:1000C3008002F0A3D8FCD9FA781A90014D7A01BACC
:1000D30000028007E493A3F608DAF9900936AA82AE
:1000E300AB8390014E78F979038015E493A3AC8236
:1000F300AD838A828B83F0A3AA82AB838C828D83A8
:10010300D8E9D9E77582FB75839B740312012F75B8
:100113008291758300740012012F75D00075813FA1
:10012300751881751902759F00020096C09FF59F8F
:10013300E473D09F22D083D082C09FE493C0E07445
:100143000193C0E0740293F59F2201FF0000B40005
:100153000028002800283075A000A000A000A000FF
:1001630000080008E001F00010001000100010006B
:100173001000100050005000500010001000D00775
:100183000000000000000F000100050030750700AB
:100193001000010081FF0000FF440662064A06FFCB
:1001A30002020208025000A0000000E80302AD9220
:1001B3000100007C920287920100008B0902819268
:1001C300010000B2020287920100008C09027F92B3
:1001D300010000C8020287920100008D09028D927E
:1001E300010000CA020287920100008E0902A9924F
:1001F300080000CB020287920100008F09029F9240
:100203000100009009FF0100FF2002AD92010000F0
:100213007692028792010000F409028F9200000097
:1002230000000283920300001803740C740C740C16
:10023300740C740C740C740C740C740C740C740CBB
:10024300740C740C4A0F620F440FFFFF0202020288
:100253000202020202010D000000100102AD920130
:1002630000007992028792010000370A02A39201EB
:1002730000007807028792010000380A029D92016C
:1002830000002091028792010000390A029B92012B
:100293000000F7900287920100003A0A0299920146
:1002A3000000A4900287920100003B0A029792018A
:1002B30000006E900287920100003C0A02959201B1
:1002C300000080900287920100003D0A0293920190
:1002D300000092900287920100003E0A029192016F
:1002E300000005910287920100003F0A02B99201C2
:1002F3000000400A01E803053F10FF0001307503C9
:1003030002010600000000000000000000000000E1
:10031300000000000000000000000000000000FFDB
:10032300FF0600800CE8030201061AFF4C000215C9
:10033300E2C56DB5DFFB48D2B060D0F5A71096E0FB
:1003430000010002CDCD69626561636F6E0000003C
:100353000000000000000000000000B8130000BE11
:10036300130A4368617261637465726973746963C4
:10037300203100024368617261637465726973744A
:10038300696320320008436861726163746572694E
:100393007374696320330010436861726163746529
:1003A3007269737469632034000243686172616324
:1003B300746572697374696320350002AD9201003C
:1003C3000073920287920100004C0B02B19203006A
:1003D3000027090285920100004D0B02879201005C
:1003E300005E0B02B392010000280902859201000E
:1003F300005F0B028792010000700B02B5920200AE
:10040300002909028592010000710B028792010005
:1004130000820B02B7920000002A090283920300B4
:10042300002B09028592010000830B0287920100D1
:1004330000940B02A5920400003109028592010089
:1004430000950B1201385F90031201387690031266
:100453000138A59003120138DE900312013806918A
:10046300031201383491031201384B9103120138FE
:100473006291031201387891031201389F9103129C
:100483000138B29103120138C89103120138DB918C
:1004930003120138009203120138A09702120138A7
:1004A3009F9802120138D49802120138F59802126B
:1004B3000138059902120138269902120138329A3D
:1004C30002120138FF9A02120138729B021201389C
:1004D300F89B021201383B9C02120138729C0212F3
:1004E3000138F89C02120138CA9D02120138289E75
:1004F30002120138409E02120138BA9E02120138DC
:10050300BD9E02120138C09E02120138679F02127B
:1005130001387F9F02120138AF9F02120138CF9F2B
:1005230002120138BDA00212013873A10212013870
:100533006EDE0212013896DE02120138C4DE0212A8
:100543000138FBDE0212013863DF02120138ACDF2F
:1005530002120138F7DF0212013835E002120138C6
:1005630072E002120138A0E00212013847E10212E0
:10057300013851E1021201385EE10212013891E1C2
:100583000212013853E2021201385FE2021201380B
:1005930077E20212013881E20212013897990312BD
:1005A3000138A59903120138BD9903120138D59971
:1005B3000312013842B101120138E0B101120138CE
:1005C30058B2011201386DB301120138A7B30112F9
:1005D300013850B40112013825B50112013889B62A
:1005E30001120138E0B60112013867B70112013870
:1005F3004EB8011201389BB80112013829B9011212
:1006030001384DB90112013822BB0112013863BB15
:100613000112013885BB0112013806BC01120138F1
:10062300F0BC01120138B6BD01120138BBC302127E
:1006330001388DC40212013836C50212013879C55A
:100643000212013806C60212013892C6021201389C
:1006530073C702120138A2C7021201389EC80212E0
:100663000138E6C802120138E8C9021201382CCA5F
:100673000212013852CA021201386EFF0112013808
:10068300DEF302120138F4F3021201381AF40212F3
:10069300013842F5021201384CF502120138A5F671
:1006A30002120138A5F702120138C7CA0212013833
:1006B300FCCB021201382FCC0212013879CC021282
:1006C300013837CE02120138BD920112013820934E
:1006D3000112013865940112013875940112013831
:1006E300989401120138E39401120138889501129C
:1006F30001387E9601120138489701120138C098DB
:1007030001120138029901120138A099011201382E
:10071300ED9901120138139A01120138019C01125B
:100723000138069C01120138E79D011201383B9EF6
:10073300011201389D9E01120138C59E0112013834
:10074300699F011201382BA0011201385CA001122C
:1007530001385FA001120138A7A001120138E9A0F6
:100763000112013850A101120138DE85031201384C
:10077300F185031201380A860312013855860312E4
:100783000138308703120138BF87031201380A8802
:10079300031201386024001201386C24001201385E
:1007A300A52400120138EA2400120138A125001201
:1007B30001382726001201388C2600120138B8268A
:1007C30000120138F1260012013805290012013800
:1007D300E12A00120138CC2C00120138032E00123A
:1007E30001386330001201384F310012013895325D
:1007F30000120138A23300120138BF33001201384E
:10080300F733001201381134001201387934001221
:100813000138133900120138B43900120138053A8E
:10082300001201382C3A001201387A3A00120138CA
:10083300983A00120138EC3A00120138C53B001215
:1008430001384C3D00120138D43D00120138C4D99F
:1008530002120138CED90212013899DA0212013894
:10086300B4DA02120138DADA021201381EDB02129C
:10087300013856DB021201387FDB02120138F8DB44
:10088300021201380DDC0212013822DC0212013897
:1008930059DC021201386DDC021201389EDC0212AF
:1008A3000138D8DC0212013804DD021201385ADDA6
:1008B30002120138AEDD02120138F7DD02120138EF
:1008C30021DE0212013846DE02120138F2EF021273
:1008D3000138BCF0021201389FF10212013815F2FF
:1008E3000212013857F20212013884F3021201385E
:1008F300008002120138298002120138428002125C
:10090300013887810212013865820212013884821C
:100913000212013811830212013854830212013882
:10092300A18402120138408502120138BF870212E6
:1009330001385688021201382A89021201380C8ABA
:1009430002120138788B021201380B8C0212013823
:10095300CFFE0212013838FF021201388CFF021257
:100963000138B3FF02120138AAE70212013817E86F
:100973000212013862E80212013857E90212013803
:1009830053EA021201383DEB02120138E1AA0212C6
:10099300013823AB02120138FDAB02120138D6AC89
:1009A30002120138D1AD02120138B0AE0212013881
:1009B3001CAF02120138E3AF021201384EB002122B
:1009C3000138B5B002120138E0B00212013851B15A
:1009D30002120138E4B1021201384DB20212013899
:1009E30062B202120138AAB202120138C3B2021271
:1009F300013828B3021201382BB3021201380080E8
:100A0300031201382880031201386680031201386B
:100A13002481031201388F8103120138AB81031241
:100A23000138D38103120138038203120138128281
:100A3300031201388C8203120138B2820312013887
:100A43001AA201120138B7A3011201389DA50112A0
:100A5300013867A601120138AEA601120138F5A6C6
:100A63000112013807A70112013847A70112013803
:100A730076A701120138C2A701120138FAA70112A1
:100A8300013828A80112013879A80112013808A9F0
:100A930001120138F6AB01120138D0AD0112013851
:100AA3000CAE0112013866AF01120138ADAF01126D
:100AB300013822B00112013870B001120138A7B019
:100AC30001120138DEA102120138FBA10212013822
:100AD30095A70212013897A80212013811AA02122F
:100AE3000138BFAA021201381B52001201386452A6
:100AF30000120138915200120138C4520012013819
:100B0300D15200120138DD5200120138EF520012A7
:100B13000138C453001201382254001201385754CB
:100B230000120138F3550012013840560012013803
:100B3300645600120138D15600120138765700125C
:100B43000138325800120138B15800120138755972
:100B530000120138845900120138055A0012013875
:100B6300A45A00120138D65A00120138715B0012E0
:100B73000138CF5B00120138095C001201388A5C2E
:100B830000120138535D00120138FC5D0012013878
:100B9300835E00120138DB5E001201383C5F0012F5
:100BA3000138655F001201381B600012013865616E
:100BB30000120138A86100120138C5610012013822
:100BC300E461001201382F620012013854620012EE
:100BD30001387D6200120138EC62001201382E6385
:100BE30000120138326400120138CC64001201385B
:100BF300986500120138B16500120138CDF5011274
:100C0300013820F6011201382CF60112013801F7E0
:100C13000112013828F70112013863F70112013874
:100C2300CFF70112013803F8011201383CF8011221
:100C3300013854F801120138ADF801120138C6F831
:100C4300011201380FF90112013822F9011201389A
:100C53003CF90112013852F9011201386EFA0112FE
:100C630001387FFB01120138CCFC01120138B1FDC0
:100C730001120138F7FF01120138E7E801120138C8
:100C83001BE90112013886EC01120138D0ED011283
:100C930001389AEE0112013824F001120138FFF0F5
:100CA3000112013839F1011201385CF101120138E6
:100CB3009EF101120138A7F101120138F1F101127D
:100CC3000138FBF101120138A7F2011201387BF35D
:100CD30001120138CFF30112013831F40112013846
:100CE30084F401120138B3F401120138F2F4011251
:100CF3000138E365001201383D6E00120138436E7E
:100D030000120138FE7300120138E4770012013833
:100D1300AFF70212013825F8021201383BF802122C
:100D2300013878F802120138B0F8021201382DF9AF
:100D33000212013868F902120138E3F9021201388C
:100D43001FFA0212013828FA0212013834FA021289
:100D530001384EFA0212013873FA0212013889FA85
:100D630002120138B2FA0212013815FB02120138DD
:100D730002D50212013815D5021201382FD50212FD
:100D8300013858D5021201389BD502120138DAD541
:100D93000212013818D6021201387DD60212013828
:100DA30092D6021201389DD602120138AAD6021237
:100DB3000138C1D602120138CFD602120138DAD671
:100DC30002120138E6D602120138F9D602120138AE
:100DD30004D70212013827D702120138D0D70212E2
:100DE3000138E0D702120138FAD70212013817D8B6
:100DF3000212013833D80212013858D802120138CE
:100E030062D80212013876D80212013895D802123C
:100E13000138F6D802120138FCD80212013802D97F
:100E23000212013808D90212013814D9021201380A
:100E330047D9021201386ECE01120138F0CE0112E9
:100E4300013899CF01120138E1D001120138EFD2F4
:100E530001120138D5D3011201380AD40112013825
:100E63002CD401120138D5D401120138A5D60112B0
:100E73000138CED60112013846D70112013878D78E
:100E83000112013885D701120138D0D70112013878
:100E9300F4D70112013845DA011201384FDB011290
:100EA3000138ABDB01120138EBBF01120138FCC082
:100EB30001120138E0C101120138EAC101120138FF
:100EC3000CC20112013818C201120138BCC301124D
:100ED3000138E9C301120138FFC40112013854C5B6
:100EE30001120138A3C60112013878C70112013873
:100EF300D4C7011201383FC80112013874C8011266
:100F03000138B7C80112013881CB0112013899CBDE
:100F1300011201382ACC0112013838CC01120138F0
:100F230085CC0112013893CC01120138FFCC011298
:100F330001387ACD01120138D1CD01120138828CEA
:100F430002120138A48C02120138B58E0212013844
:100F53007491021201389E92021201385C930212BC
:100F63000138489402120138A68E03120138CB8E41
:100F730003120138418F031201383378001201380C
:100F83003C78001201384578001201381D790012AF
:100F93000138CE7A00120138FE7A00120138297B1B
:100FA30000120138597B00120138847B001201388A
:100FB300B87B00120138E47B00120138277C001251
:100FC3000138527C00120138997C00120138EE7C02
:100FD30000120138307D001201388A7D0012013879
:100FE300B57D00120138047E00120138347E0012F0
:100FF30001385F7E001201388D7E00120138B07E09
:10100300001201381F9B031201384B9B0312013856
:10101300789B03120138829B03120138929B0312BF
:1010230001384FB30212013859B3021201389AB38F
:1010330002120138E3B3021201381DB4021201385F
:1010430073B40212013894B40212013843B7021286
:1010530001384CB702120138A0B702120138C9B7E0
:1010630002120138D3B70212013841B80212013813
:10107300D1B8021201382CB9021201385AB902123E
:101083000138E2B90212013821BA0212013856BA04
:101093000212013868BA0212013887BA0212013803
:1010A30090BA0212013857BB02120138C3970312D8
:1010B3000138B58C03120138EB8C031201381F8DF4
:1010C300031201386C8E03120138507F001201386D
:1010D300667F00120138707F00120138BA7F001258
:1010E30001389C9B0312013816E30212013829E3ED
:1010F30002120138EAE30212013829E4021201382C
:1011030046E4021201387FE402120138CCE40212F1
:101113000138FEE40212013835E5021201383EE7D8
:10112300021201384C95031201386F9503120138EE
:101133009E950312013836960312013878960312EE
:101143000138FA82031201381F83031201384983DD
:1011530003120138539C031201383B3E001201383D
:10116300194000120138B8410012013863420012DD
:101173000138E342001201386843001201389143F9
:10118300001201386C4700120138E347001201389E
:10119300FA48001201383449001201387549001227
:1011A3000138BC4A00120138124B001201385B4B64
:1011B30000120138CA4B00120138364C00120138B4
:1011C300674C001201387F4C00120138984D001211
:1011D3000138A84D001201385E4F00120138754FD7
:1011E30000120138A74F001201384951001201388B
:1011F300DD51001201386E9A031201387F9A0312EF
:101203000138A99C03120138E89C03120138E67FD8
:1012130000120138BA9803120138CA980312013830
:10122300DF9803120138919903120138C196031212
:101233000138469703120138AA9703120138129214
:10124300031201383B9203120138A19203120138B1
:10125300C192031201381293031201386D930312E2
:101263000138A79303120138AA9303120138FFEB45
:10127300021201382CEC021201389EEC02120138E2
:10128300B3EC02120138D4ED0212013857EE021208
:101293000138D0EE02120138EFEE0212013812EFDC
:1012A300021201384FEF0212013867EF02120138C0
:1012B300BDEF02120138E4FF02120138F4FF0212FB
:1012C3000138F7FF02120138F87F001201387B8AD8
:1012D300031201380B8C031201386C8C0312013892
:1012E300B28C03120138B49303120138069403122B
:1012F3000138799403120138E694031201383488D3
:10130300031201385E88031201382D890312013854
:10131300098A0312013885BB0212013851BC02123B
:10132300013892BC02120138CCBC021201382ABD2A
:10133300021201387EBD02120138DCBD02120138EF
:1013430072BE021201387ABF0212013804C10212BE
:101353000138A2C10212013809C2021201381CC2AB
:101363000212013810C30212013859C302120138A4
:10137300F8DB011201382ADF01120138BBE0011248
:10138300013812E1011201382FE101120138AFE1F6
:10139300011201382BE301120138FAE3011201387B
:1013A30067E70112013851E801120138EDCF02124B
:1013B30001386CD202120138C1D202120138E6D3CD
:1013C3000212013881D40212013845FB021201389E
:1013D3008AFB02120138A7FB021201385DFC0212DC
:1013E3000138B0FC0212013880FD0212013896FE6A
:1013F30002120138289D03120138F29C03120138AE
:10140300559D031201387D9D03E066701008A3E02B
:1014130066700A08A3E066700408A3E06622C3E7C7
:10142300960809E7960809E7960809E79622C3E0B4
:101433009608A3E09608A3E09608A3E09622C008C6
:10144300C3E096F50808A3E096420808A3E0964295
:101453000808A3E09645087001D3D00822080808BD
:10146300EAC0E0EBC0E086F0E7A4FA180986F0E7EB
:10147300A42AFA180986F0E7A42AFA180986F0E7DD
:10148300A42AFA1986F0E7A4FBE5F02AFA190886DC
:10149300F0E7A42BFBE5F03AFA190886F0E7A42B52
:1014A300FBE5F03AFA18180986F0E7A4C5F02BFB20
:1014B300E43AFA1908E7C5F0C6A426F6E5F03BFBC3
:1014C300E43AFA1886F0E7A4F6E5F00826F6E43BDA
:1014D30008F6E43A08F6D0E0FBD0E0FA22E4CFC005
:1014E300E0E4CEC0E0E4CDC0E0E4CCC0E075F020A1
:1014F300C3E633F608E633F608E633F608E633F6D2
:10150300181818EC33FCED33FDEE33FEEF33FFC355
:10151300EC9709ED9709EE9709EF97191919400F01
:10152300FFEC97FC09ED97FD09EE97FE191906D517
:10153300F0BEECF709EDF709EEF709EFF719191902
:10154300D0E0FCD0E0FDD0E0FED0E0FF2260160842
:101553000808C6C313C618C613C618C613C618C6CA
:1015630013C6D5E0EA227009080808226016181885
:1015730018C6C333C608C633C608C633C608C6333F
:10158300C6D5E0EA22E627F60809E637F60809E6B3
:1015930037F60809E637F622E026F608A3E036F622
:1015A30008A3E036F608A3E036F622E026F008A307
:1015B300E036F008A3E036F008A3E036F022C3E6F5
:1015C30097F60809E697F60809E697F60809E697F5
:1015D300F622C3E096F008A3E096F008A3E096F0A5
:1015E30008A3E096F022E056F608A3E056F608A317
:1015F300E056F608A3E056F622E056F008A3E056BC
:10160300F008A3E056F008A3E056F022E0F608A3A2
:10161300E0F608A3E0F608A3E0F622E6F008A3E666
:10162300F008A3E6F008A3E6F022E0FAA3E0FBA3A8
:10163300E0FCA3E0FD22EAF0A3EBF0A3ECF0A3EDC2
:10164300F022CAC0E0E6F0A308DAFAD0E0FA22CA30
:10165300C0E0E0A3C582CCC582C583CDC583F0A31A
:10166300C582CCC582C583CDC583DAE6D0E0CA2264
:10167300C3E498F8E499F91216B48026C3E49AFAFD
:10168300E49BFBE920E7E91216B4E498F8E499F93E
:1016930022C3E498F8E499F91216B4E498F8E499AB
:1016A300F9C3E49AFAE49BFB22EB20E7CFE920E7B6
:1016B300E0B90010BB0008E88AF084F8AAF022E43D
:1016C300FBC8FA22EB70227B10C833C8C933C93375
:1016D3005007C39AC3DBF280069A50012ADBEAC89B
:1016E30033F4C8C933F4C9FA2275F008E4C833C81F
:1016F300C933C933C99AC99B5004C92AC93BD5F018
:10170300ECFBC833F4C8E4C9FA22600D08C6A2E7AB
:1017130013C618C613C6D5E0F322600C08C6C3135C
:10172300C618C613C6D5E0F422700422600D18C68D
:10173300C333C608C633C6D5E0F41822251810AF44
:1017430008F518400215198008F51840021519D23A
:10175300AF22C0D0251810AF08F518500205198024
:1017630008F51850020519D2AFD0D0222518F582FA
:1017730010AF08F518400215198008F51840021536
:1017830019D2AF851983222518F582E43519F5831B
:1017930022E4732518C582C0E0E51934FFC583C070
:1017A300E0E518C3958224F810AF08858319858274
:1017B300188008858319858218D2AFCEF0A3E5205F
:1017C300F0A37808E608F0A3DEFAEFF0A3E581249E
:1017D300FAF8E608F0A3E608F0A3E608F0A3080881
:1017E300E608F0A3E608F0A315811581D0E0FED04A
:1017F300E0F8158115811581E8C0E0EEC0E02225EF
:1018030018C582C0E0E51934FFC583C0E0E518C3FD
:10181300958224F910AF088583198582188008857D
:101823008319858218D2AFCEF0A3E520F0A3780800
:10183300E608F0A3DEFAEFF0A3E58124FBF8E6085F
:10184300F0A3E608F0A30808E608F0A3E608F0A36F
:1018530015811581D0E0FED0E0F815811581E8C02F
:10186300E0EEC0E022851983851882E0A3FEE0A3A1
:10187300F5207808E0A3F608DFFAE0A3FFE0A3C0B1
:10188300E0E0A3C0E0E0A3C0E0E0A3C0E0E0A3C0C9
:10189300E010AF0885821885831980088582188532
:1018A3008319D2AFD083D08202013585198385187D
:1018B30082E0A3FEE0A3F5207808E0A3F608DFFAB0
:1018C300E0A3FFE0A3C0E0E0A3C0E0E0A3C0E0E04A
:1018D300A3C0E010AF08858218858319800885822C
:1018E30018858319D2AFD083D08222C0D02518C5E2
:1018F30082C0E0E51934FFC583C0E0E518C39582D3
:1019030024F310AF0885831985821880088583190D
:10191300858218D2AFC8F0A3E9F0A3EAF0A3EBF0F5
:10192300A37908E709F0A3D8FAECF0A3EDF0A3EE4E
:10193300F0A3EFF0A3D0E0F0A3D0E0F0A3D0E0F069
:10194300A3E520F0A3E5F0F0A3228519838518828F
:10195300E0C0E0A3E0F9A3E0FAA3E0FBA37808E08A
:10196300F608A3DFFAE0FCA3E0FDA3E0FEA3E0FF9B
:10197300A3E0C0E0A3E0C0E0A3E0F5D0A3E0F5203E
:10198300A3E0A3F5F010AF088583198582188008BA
:10199300858319858218D2AFD082D083D0E0F8D066
:1019A300E03274048006740280027401C0E0F4041F
:1019B30012176FD0E012164522740480047402805B
:1019C30000CCC0E0EDC0E0E518C39CCCAD195001DC
:1019D3001D10AF068C188D1980068C188D19D2AF87
:1019E300121652D0E0FDD0E0FC22D083D082E9C0B1
:1019F300E0E493A3C386F0C5F095F0F908E493A35C
:101A030086F0C5F095F0700BE493A3C3994005E904
:101A1300048002A3E475F002A42582F582E5F03583
:101A230083F583D0E0F9E493A3C0E0E493C0E0221C
:101A3300D083D082ECC0E0EDC0E0E493A3FCE49358
:101A4300A3FDED4C600D121A7FEC24FFFCED34FF77
:101A5300FD80EFE493A3FCE493A3FDED4C600D1232
:101A63001ABEEC24FFFCED34FFFD80EFD0E0FDD087
:101A7300E0FCE493A3C0E0E493C0E022C0E0C3E44D
:101A83009396087401939618400FE49366700808C0
:101A9300740193661870007019A3A3C3E4939608A6
:101AA3007401939618A3A3400DD0E0D0E0D0E002D8
:101AB3001A6FA3A3A3A3A3A3D0E022C0E0C0F0881E
:101AC300F0E4936670080874019366187000A8F038
:101AD300A3A3700BD0F0D0E0D0E0D0E0021A6FA344
:061AE300A3D0F0D0E022C8
:101AEC0074F5121802EAFEEBFFEE2434F8EF340022
:101AFC00F988088909EE2435121C24F8EE243712D3
:101B0C001C24F50AEC850AF0A4FCAAF0850AF0ED79
:101B1C00A42AFDE82CF8E43DF97A257B001216B4D2
:101B2C00EA850882850983F05407F87401B800022D
:101B3C008004C333D8FCC0E0E0131313541FF8EE39
:101B4C0028F8EF3400F9E8245DF582E93400F583D8
:101B5C00D0E0F8E0586008850882850983801DEE86
:101B6C002436121C24F5F0EA84A8F0EE28F8EF34A1
:101B7C0000F9E82438F582E93400F583E0F97F04B4
:101B8C000218AE74F5121802EAFEEBFFEE243412C2
:101B9C001C24C0E0EE2435F582EF3400F583D0E050
:101BAC00F08E828F83A3A3A3A3A3E0FAA3E0FB8E02
:101BBC00828F83A3A3A3A3A3A3A3E0FCA3E0FDECC8
:101BCC00C39AF50AED9BF50BEE2480F508EF340073
:101BDC00F509850882F583E06401702BEE2481F50C
:101BEC0082EF3400F5831219C0121C2D74021217E7
:101BFC0055E960137CFD7D04EEFAEFFB120BA28518
:101C0C000882850983E4F0AC0AAD0BEEFAEFFB1207
:101C1C001AEC1223E6021B8AF582EF3400F583E0FE
:101C2C0022C082C083851882851983E0F8A3E0F96D
:101C3C00C3EA9CEB9D5012C3EC98ED994019C3EA92
:101C4C0098EB99501279018010C3EA98EB9940F502
:101C5C00C3EC98ED9950EE7900D083D08222EAC380
:101C6C009CFAEB9DFB2200008521878522C622C0B1
:101C7C00E074EF1218EE759B00906182E0A2E640D2
:101C8C0003021D3CE591A2E64003021D3C7591BF89
:101C9C009003C2E064057008120D40120D4C8003D5
:101CAC00120D46752100120DB8E99003C3F07900AE
:101CBC00120DAC120B0C7A017B009003C1E0F912EF
:101CCC001082907803E064426003021D8590055FEA
:101CDC00E014F06003021D85C2AF121CE900782AE3
:101CEC00D0E0F618D0E0F6E59F5407F97005909215
:101CFC0033800390922F780812160FE9C4C0E07855
:101D0C0029E65508F50808E65509F509740B780815
:101D1C0012171DD0E02508F8906270E0A2E740F899
:101D2C00E8C333906272F0906270E0D2E0F08049C8
:101D3C00E0A2E55024E591A2E5501E7591DF9003D9
:101D4C00C2E0640D70139003E4E004F064287002A8
:101D5C00E4F07A00E0F9120E2A906181E0A2E350DF
:101D6C0009E5E9A2E3500375E9F7A3E0A2E75009FE
:101D7C00E591A2E7500375917F7F0402194DC0E0F5
:101D8C00C0D0C082C083906183E0A2E05009E5BF5F
:101D9C00A2E0500375BFFEE0A2E15009E5BFA2E14D
:101DAC00500375BFFDE0A2E25009E5BFA2E250036B
:101DBC0075BFFBE0A2E35009E5BFA2E3500375BF7A
:101DCC00F7E0A2E45009E5BFA2E4500375BFEFE0D1
:101DDC00A2E55009E5BFA2E5500375BFDFE0A2E61E
:101DEC005009E5BFA2E6500375BFBFD083D082D0A7
:101DFC00D0D0E032C0E074F21218EEE5A7A2E450A5
:101E0C000FE5A1A2E4500953A7EF75A1EF121E54E0
:101E1C00E5A7A2E5500CE5A1A2E5500653A7DF7596
:101E2C00A1DFE5A7A2E15009E5A1A2E1500375A14C
:101E3C00FDE5A7A2E2500CE5A1A2E2500653A7FBD8
:101E4C0075A1FB7F0102194D74F81218027521015E
:101E5C009003C2E0640670077A007B00120D28A282
:101E6C00AFE433FED2AF9003C8E0640170187A205F
:101E7C007B009003C1E0F912110C7A207B009003D7
:101E8C00C1E0F9121088906182E0D2E6F090055E14
:101E9C00E0602185C62280169003C7E064017008BB
:101EAC00E5C654F84405F5C653BEFC121C74740107
:101EBC00652160E4EEA2E092AF7F010218AE000053
:101ECC008E238F2485822885832785188285198304
:101EDC00E0CEA3E0CF852882852783EBC9EAC8ED45
:101EEC00CBECCA75F010C3E833C8E933C9EA33CA7E
:101EFC00EB33CBC3EA9EF526EB9FF525B35004AB31
:101F0C0025AA26EC33CCED33CDD5F0DAAE23AF24B5
:101F1C002274E912180274FA12173FEAFEEBFF8CD6
:101F2C00088D099003C2E024F7C3940550069091E4
:101F3C00E7022044120CA48A0A8B0BEA450B7003AF
:101F4C00022041120D5E8A0C8B0D120D5EEA650C9F
:101F5C007003EB650D60ECEEFCEFFD8518828519C6
:101F6C0083AA82AB83120D64850A82850B83A3A39B
:101F7C00780C12160F909207780C1215E9851882BE
:101F8C00851983781412160F90920778141215E99C
:101F9C00780C7914121421501F780C79141215C175
:101FAC009091CF780C1214414047850C10850D117F
:101FBC00850E12850F138041851410851511851619
:101FCC00128517137810790C1215C19091CF7810D7
:101FDC00121441501C751000751100751200751308
:101FEC0001781079141215C17810790C12158880AB
:101FFC00089091E7781012160F7409781012156971
:10200C0090926B780C12160F7810790C1214E090D9
:10201C0003C2E06408600AE064066005E0640570D1
:10202C001C909203781012144150129091CB78109E
:10203C0012159B80089091EB781012160F85088270
:10204C00850983781012161E74061217557F10021C
:10205C0018AE74F7121802120D7690055CE064014C
:10206C007010906245E4F0A3F053F4F343FE0C536C
:10207C0090F3120D16E5C654804449F5C6E59E54FE
:10208C007F644970F8906185740FF090055AE0F404
:10209C007002A3E0602C75080175090090055AE0E8
:1020AC00780812172CE508F4FAA3E0600814600A0B
:1020BC0014600C800DEA52808008EA52908003EA8A
:1020CC0052A079007F020218AE74F7121802E9FED2
:1020DC00EAFF74016E700C7A807B009003C1E0F90A
:1020EC00121082902458E493F46008E493F9120AD5
:1020FC00EE800953C680E59E547F70FA120D1C9039
:10210C00055CE064017003120B2490055AE0F47036
:10211C0002A3E0602A75080175090090055AE07861
:10212C000812172CAA08A3E0600814600A14600CAB
:10213C00800DEA42808008EA42908003EA42A012B5
:10214C000CA48A088B09A808A909E8496017E5E1DD
:10215C0070FCE82414F582E93400F583E0F874FF90
:10216C0068600288E174016F700A7A019003C1E023
:10217C00F91210D60220D074F11218028A088B09B9
:10218C008C0A8D0B740F12178A780C12160F909202
:10219C000778081215E9909207780C1215E978085F
:1021AC00790C12142150157808790C1215C19091E4
:1021BC00CF7808121441401579018013780C7908F6
:1021CC001215C19091CF780C12144140EB79007F1D
:1021DC00080218AE74ED1218028A088B098C0A8D4D
:1021EC000B741312178A780C12160F90920778083A
:1021FC001215E9909207780C1215E9780C790812EF
:10220C00142140117808790C1215C1AA08AB09AC3D
:10221C000AAD0B8022751000751100751200751334
:10222C00017810790C1215C178107908121588AA4A
:10223C0010AB11AC12AD137F0C0218AE9092077854
:10224C000812160F8A828B8378081215FC7F040201
:10225C0018AE74F51218028C828D83780812160F42
:10226C008A828B8378081215D51222B2C3E098F0BB
:10227C00A3E0991222A4401E909247780812160FE0
:10228C008A828B8378081215AE8E828F83E024208D
:10229C00F0A3E0344EF080A4F08E828F83C3E094E0
:1022AC0020A3E0944E22EA2404F8EB3400F9E8FE73
:1022BC00E9FF8C828D83A3A3A3A3E0F8A3E0F98E9E
:1022CC00828F832274F5121802E9FE900514E0FA4D
:1022DC00A3E0FBEEC333F8E433F974E728F582741A
:1022EC009039F583E02AF508A3E03BF5097808124C
:1022FC0019A990924312162D121ECC740212175566
:10230C008A088B098C0A8D0B74107808121550AA48
:10231C0008AB097F040218AE74F11218028A0C8BF8
:10232C000D8C0E8D0F740F12178AE0FAA3E0FB745C
:10233C001112178AE0F508A3E0F509741312178A35
:10234C00E0FEA3E0FF78081219A9EA2401F508EBD6
:10235C003400F509E4F50AF50B780C7908121460D1
:10236C0090920B780812160F780C7908121460AA48
:10237C000CAB0DAC0EAD0F121ECC74021217558B9C
:10238C0009EA450960047A0180027A00EC2AFCED26
:10239C003400FDECF8EDF97A717B021216B4880862
:1023AC008909E4F50AF50B8E828F83780812161EC4
:1023BC00ECF8EDF97A717B021216B48A088B097469
:1023CC0005780812172C8E828F83A3A3A3A3E5088C
:1023DC00F0A3E509F07F080218AEC082C083E99033
:1023EC006000F0D083D08222C0E074F21218EEA20A
:1023FC00AFE433FED2AFE589A2E1500312125C7553
:10240C008900C2C5751A00EEA2E092AF7F010219D5
:10241C004DC0E074F21218EEA2AFE433FED2AFE579
:10242C008BA2E0500312125C758B00C2E880D5C001
:10243C00E0C0D0E8C0E0E5A8D2AFC2C7751A00A2D0
:0B244C00E792AFD0E0F8D0D0D0E03233
:10245800FFFFFFFFFFFFFFFFC082C083E99009F382
:10246800F00226E474F7121796E99002E0F07C185F
:102478007D037AFF7BFF1208249002E174FFF0A32A
:10248800F0A3E4F0A3F079051207AC9002E0E0F9BC
:102498001206D47A427B08120A040233F274F41248
:1024A80017968A088B09EB548060309002E0E0F9B7
:1024B80012106A8A0A8B0BAE0AAF0BEE4F60138EAE
:1024C800828F83E064B070031207C4EEFAEFFB1248
:1024D8001058AA08E5096480FB80047A007B000292
:1024E80026B374F212179674FC12173FEAFEEBFF3C
:1024F800741212178A1238D9EE4F700302258D74A0
:102508000212178AEEF0A3EF1228EEECF0A3ED12F8
:1025180028EEAA82AB831206CEE9F50A706AE508AE
:10252800450960648E828F831238BFEE4F60567AF9
:10253800067B001210BE8A0C8B0DA80CA90DE84969
:102548007005750A13804188828983E412259AEE02
:10255800F0A3EF1238EAE508F0A3E509F09002E6E7
:102568001226219002E6700512339C801B12338AD2
:102578008003EAFCEBFD8C828D8312262170F38C9C
:10258800828D8380E3750A02A90A74041217550222
:102598003AD9F0A3123890A32274F2121796890A36
:1025A800E975F017A4FEAFF09002E5E4F09002E3BD
:1025B800122621600A1210C49002E3E4F0A3F0EEA0
:1025C800FAEFFB1210BE8A088B09EA4509602FEE64
:1025D800FCEFFD79001210409002E3E508F0A3E556
:1025E80009F07B00800812260BE4F0A3F00BEBC384
:1025F800950A40F2E50A9002E5F079008002791325
:10260800023AD9EB75F017A4F8A9F09002E3E02894
:10261800FAA3E0398A82F5832212302EEA4B22741B
:10262800F4121796740C12178A1238B4FEE9FF7563
:102638000800750900800CE5082401F508E509344F
:1026480000F509C3E5089CE5099D503285080A850F
:10265800090B7403780A12172CEA250AF8EB350BD4
:10266800F988828983A3A3A3A3A3A3123471EE6577
:102678000A7003EF650B70BFE8FAE9FB80047A0083
:102688007B00802774F41217967900EAA2E0501BA9
:102698007508AA75099178081219A97C047D007A31
:1026A800F57B091207A674021217557F04021868F1
:1026B800C082C0839002E61226EB601C8882898360
:1026C800A3A3E06A7003A3E06B8882898370E8A300
:1026D800A3A3A312302A80047A007B00D083D0827F
:1026E800020135123BBFE8492274EE12179674FCBA
:1026F80012173FEAFEEBFF851882851983E4F0A3E1
:10270800F0EE240212337CEE2405123897EE2404EE
:10271800F50EEF122CA3E024FE603924FC60462459
:10272800FE605224FE605E24FE700302280424FE2C
:10273800700302286824FE700302287724FE7003C1
:1027480002288624FC700302289524FE70030228C0
:10275800A40228E19002FF7417F0A3E41228F612ED
:10276800044C0228E1851882851983AC82AD831256
:1027780007CA0228B1851882851983AC82AD8312F5
:1027880007D00228B1850C08850D09740212178A32
:10279800AC82AD8385088285098312302A1206F23D
:1027A8008A0C8B0DAC0CAD0DEC4D603BE4F50CF5D3
:1027B8000D780C1219A9750CFF750D02780C1219F9
:1027C800A9750C00750D03780C1219A97408121755
:1027D8008A1219C0123D3B121755E9F50C700B12FD
:1027E8003020120464800F750C01850882850983E6
:1027F8001228E412339C850C080228B474021217BC
:102808008AAC82AD83850C82850D83122DF5603CE0
:10281800850C82850D83A3A31219C07510FF75114D
:102828000278101219A97510007511037810121981
:10283800A9740812178A1219C0123D3B121755E9DC
:10284800F509700B12302012046A800F7509018592
:102858000C82850D831228E412339C850908804C6C
:10286800851882851983AC82AD831207D6803A8594
:102878001882851983AC82AD831207DC802B8518FA
:1028880082851983AC82AD831207E2801C85188289
:10289800851983AC82AD831207E8800D851882857F
:1028A8001983AC82AD831207EEE9F508E5086029C3
:1028B8008E828F83A3E06414601F850E82850F8348
:1028C800E09002FF1228EE123BBB90030012339CEB
:1028D800E508A31228F612044602328B123BBF8584
:1028E800188285198322F085188285198322F07C45
:1028F800FF7D02850A82850B8312302E2274EE1228
:10290800179674FC12173F8A0A8B0B8C0E8D0FEAF0
:102918002405F508EB3400F5097C157D0079007A6B
:10292800FF7B02121040E5082402F50CE509123875
:102938009A851882851983858210858311781012EB
:1029480019A9850882850983A3A3A3A3122DEC12D4
:1029580019A9E5082405F510E5093400F5117810E2
:102968001219A9850C82850D831231411206EC7467
:10297800061217558A108B11AE10AF11E50A240202
:10298800F50AE50B12337FEE4F7003022AC3801756
:10299800740212178A12302A88828983EAF0A3EB1C
:1029A800F09002FFE004F09002FFE0C394054003BA
:1029B800022AC3E4F510F51178101219A97510E868
:1029C80075110278101219A97510E975110278109D
:1029D8001219A9740612178A1219C07910EEFCEFA1
:1029E800FD123D3D121755E9705E85088285098301
:1029F800A3A3A3A3A3A3A3E0F89002E8E068704808
:102A0800122DEC1219A97CE97D02E5082408FAE5E3
:102A1800093400FB12103A7402121755E960298E26
:102A2800828F83A3A3A3A312302A9002FFE0F5109C
:102A38007402781012172C74002510F5827403356F
:102A480011F583EAF0A3EBF0740212178A8582105D
:102A580085831178101219A9740212178A1219C0E5
:102A6800850C82850D831230501217558A108B11F0
:102A7800AE10AF119002FFE0F510751100740278E6
:102A88001012172C74FF2510F874023511F988827A
:102A98008983A3122621700302298FE824030808DA
:102AA80008E93400F9EE4F60030229988882898387
:102AB80074FFF0A3F09002FFE004F09002FFE060E2
:102AC8000A1230201204587900800B850882850983
:102AD80083123393790A02328B74EA12179674FEC2
:102AE80012173F8C128D13EA2405F50CEB123D25C5
:102AF8001238C3750800750900EA2402F510EB3492
:102B080000F51185188285198385820A85830B78DB
:102B18000A1219A9850C82850D83A3A3A3A3122CDD
:102B2800B91219A9E50C2405F50AE50D12337F78C9
:102B38000A1219A9850C82850D83122CBD1206EC88
:102B480074061217558A0A8B0BEA450B7003022C80
:102B58005EEA2404F50EEB122CA31238C38A828B8A
:102B680083A3A3A3E0F98510828511831230346012
:102B780003022C5EE4F514F51578141219A97514DE
:102B8800E875150278141219A97514E975150278F3
:102B9800141219A9740612178A1219C07913AC0AEB
:102BA800AD0B851082851183123D43121755E9F547
:102BB800096003022C5E9002E8E0F8E5087009E07D
:102BC8002402900300F08014900300E0FCE8240243
:102BD800FAE43400FBEA6C7001EB707E850882AA87
:102BE80082122DE39414122DDB506B850E82850F13
:102BF80083E0C0E074012A122C9AD0E0F005088521
:102C08000E82850F83A3E0C0E085080A7401250AB7
:102C1800122C9AD0E0F005089002E8122CB912198B
:102C2800A97CE97D0285080A7401250A122CAD12D7
:102C380017559002E8E02508F50874FF6E700374D4
:102C4800FF6F6012EE24010EEF3400FFE508C39415
:102C5800145003022B0BE508601312303E851082D6
:102C680085118312302A12045E79008014E50970F8
:102C78000375090A851282851383EEF0A3EFF0A984
:102C88000974021217557F0E02186885080C740122
:102C9800250CF58274033400F583223400F50F8582
:102CA8000E82F58322FA74033400FB121028740292
:102CB800221238F922A3A3122CC32212338AFDEE62
:102CC800FAEFFB2274EE12179674FE12173F8C0E61
:102CD8008D0FEA2405F50CEB12389A750B0090025B
:102CE800FFE4F0F50AEA2402F508EB3400F5098060
:102CF800449002FFE0FA9002E8E0F8122DE39417FE
:102D0800122DDB400D9002FFE0F87416C398900274
:102D1800E8F0122DEC1219A97CE97D0274002AFA58
:102D28007403122CB01217559002E8E0F89002FFD5
:102D3800E028F0050AE50C2416F582E50D122C9E14
:102D4800E0F8E50AC39850749002FFE0C394165067
:102D58006BE50AC333F8E433F9E50C28FEE50D39D1
:102D6800FF851882851983AC82AD838E828F83128A
:102D78002DF57008750B0112338F8050E4F510F5AE
:102D88001178101219A97510E87511027810121926
:102D9800A97510E975110278101219A9740612178D
:102DA8008A1219C07916850882850983123D431253
:102DB8001755E9F50B7003022CF980BB7CFF7D02E7
:102DC80085088285098312302A120470A90B7402BF
:102DD80002328DE99400C365D03322EA28F8E4343E
:102DE80000F9E822E0F510751100781022123282FD
:102DF8008A108B11AC10AD11EC4D2274EA121796A3
:102E080074FC12173F8A0C8B0D8C128D13EA240563
:102E1800F50AEB12337F750800750900E50A2402EC
:102E2800F510E50B3400F511740212178A85820E2D
:102E380085830F780E1219A9850A82850B83A3A3AF
:102E4800A3A312389F1219A9E50A2405F50EE50B6C
:102E58003400F50F780E1219A98510828511831296
:102E680033851230241206EC74061217558A0E8B1D
:102E78000FAE0EAF0FE50C2402F50EE50D3400F58C
:102E88000F80388882898374FFF00508122C9374A8
:102E9800FFF005089002E8E0F50C750D00780C12BB
:102EA80019A97CE97D0285080C7401250C122CAD4A
:102EB8001217559002E8E02508F508EE4F60278EB6
:102EC800828F83A3A3A3E0F9850E82850F83123036
:102ED80034EE2404123897E96027850C82850D8327
:102EE80012301612339CE5087003022FFC12303E94
:102EF800850E82850F8312302A12047679000230FB
:102F080011E4F514F51578141219A97514E8751556
:102F18000278141219A97514E97515027814121992
:102F2800A9740812178A1219C07911EEFCEFFD85F1
:102F38000E82850F83123D43121755E9F509709AE1
:102F4800850882AA82EA9002E87009E024049003C6
:102F580000F08025E0F8900300E0F514E82404FC74
:102F6800E43400FDEC65147001ED7081122DE394DA
:102F780012122DDB4003022EF5850C82850D83E0AD
:102F8800C0E074012A122C9AD0E0F00508850C8262
:102F9800850D83A3E0C0E0122C93D0E01230598550
:102FA800820C85830D780C1219A9740412178A12E1
:102FB80019C08510828511831230501217558A0C5A
:102FC8008B0DAE0CAF0D85080C7401250CF874033D
:102FD8003400F9EE4F7003022E8B85188285198311
:102FE800E088828983123059A3E0C0E0122C93D084
:102FF800E0022E99E509700375090A850A82850B96
:103008008312301612339CA9097404022C8B123BCC
:10301800BF851282851383227CFF7D02850A828503
:103028000B8312302E22E0FAA3E0FB2212302E127C
:1030380006DAE9F50922900300E0F5F0E508849046
:1030480002FFF07CFF7D0222122CC31206F87404E2
:1030580022F005088518828519832274EC121796C8
:1030680074FE12173F8A088B098C0E8D0FEA24050F
:10307800FEEB3400FF12326CEE2418123897EA4542
:103088000B700302310F12325550291231348A1055
:103098008B11EA4511606B7912AC0AAD0B85088279
:1030A80085098312302A851082851183121794E9C5
:1030B800F50A7058E4F50AF50B780A1219A98E82F8
:1030C8008F83A3A3E0F50A780A1219A9EE24031244
:1030D800337C780A1219A98E828F83123141120823
:1030E800127406121755E9F50A7021850C82850DB0
:1030F80083E0701F85088285098312302A12047CB8
:103108008011750A0E8009750A018004E50A6003BA
:1031180012338F850C82850D83E06004790080026C
:10312800A90A74021217557F0C021868851882853F
:10313800198312302E1208002212338AFD85088264
:1031480085098312302E2274EE12179674FE121718
:103158003F8A088B098C0C8D0DEA2405FEEB3400A0
:10316800FF750E0012326CEA450B700302323312FF
:103178003255502C1231348A0E8B0FEA450F604AB3
:103188007912AC0AAD0B85088285098312302A852D
:103198000E82850F83121794E9F50E60030232360A
:1031A800850882850983123471AA0AFB1232477096
:1031B800147AFF7BFF123247606C88828983E50AA4
:1031C800F0A3E50BF0750A008007750E0E805F0509
:1031D8000A9002E5E0FAE50AC39A504AE50A75F052
:1031E80017A4FAABF088828983A3A3E02AFAA3E0A4
:1031F8003BFB8A828B83123385EC4D70D2750A179C
:10320800750B00780A1219A9EEFCEFFD121028744C
:1032180002121755EEFCEFFD8508828509831230EE
:103228002A1204828014750E098003750E01123B60
:10323800B7850C82850D8312339CA90E022DD612F8
:1032480007F48A108B11A810A911E84922E508246F
:1032580002F508E5093400F5098A828B83A3A3A344
:10326800E0A2E522851882851983AC82AD838E821F
:103278008F831232828A0A8B0B22E0FAA3E0FB12B8
:1032880006F22274041217557F0A02186874EC12A9
:1032980017968C108D11EA2405F50CEB12389A75E7
:1032A8000F00EA2402F50AEB12337F850A82F583C0
:1032B80012302A123DC97003023371750E008071F5
:1032C800850C82850D83E06401704F8E828F83A305
:1032D800A31219C08E828F83A3A3A3A3E0F512754E
:1032E800130078121219A9EE2405F512EF3400F52F
:1032F8001378121219A91230241208127406121720
:1033080055E9F50F6014850C82850D83E4F0123BB6
:10331800B785108285118312339C7C177D00790054
:10332800EEFAEFFB1210408E828F83E4F0A3F005D3
:103338000E9002E5E0F8E50EC398501EE50E75F014
:1033480017A4F8A9F0850882850983A3A3123D2F45
:10335800123385EC4D60030232C8850882850983E3
:1033680074FFF0A3F0E50F7006123024120488A948
:103378000F02312FF50AEF3400F50B22A312338A1E
:10338800FD22E0FCA3E0228E828F83123BBF850ED4
:1033980082850F83E8F0A3E9F022C082C0839002FF
:1033A800E1E06A7003A3E06B70067AE17B028004B7
:1033B8007A007B000226E474F71217967F00EF75F7
:1033C800F003A4F8A9F0EC28F8ED39F9888289838C
:1033D800E06A7003A3E06B7006E8FAE9FB800B0F64
:1033E800EFC3940240D87A007B007F01021868740A
:1033F800F61217961239A870067A007B008007A388
:10340800A3A3A312302A023A6974F2121796E9FEAE
:10341800740E12178A123471741012178A1238D95E
:103428008C828D83E06402703BA3123BBB88828947
:1034380083E0F50CA3E0F9A80C7402687003742902
:10344800697021750C02750D00780C1219A978089D
:103458001219A9780A1219A9EEF912083674061277
:10346800175580027901023AD9E0F50AA3E0F50B75
:103478002274E812179674FB12173FE985188285A3
:103488001983F08A168B178C0E8D0F741F12178AEA
:103498001238D9742112178A123471742312178AB8
:1034A8001238C37510008C828D83A3A3A3E0A2E415
:1034B800502A741D12178A12313A8A828B83E58248
:1034C80045837003023585790AAC0EAD0FAA16AB99
:1034D80017121794E9F5106003023588850E828566
:1034E8000F83E06402600302383EA3123BBB8508E9
:1034F80082850983A3858212858313E50E2406F548
:103508000CE50F12389A88828983E0FAA3E0F9EA79
:103518002400F514E439F5157814121A3301000063
:103528002801284D35070002282436032894350041
:10353800294E370129763702291D3703294E3704CA
:1035480029DF373E38EE4F703E850C82850D831299
:1035580038B4FAE9FB8A828B83E0850A82850B837B
:103568001238F01219A98A828B83A312338AFDAA12
:1035780008AB091210287402121755800375100E33
:10358800A9107405023D1D75100B80F4EE4F70F7FD
:10359800850A82850B837401F01238C985088285F3
:1035A8000983F07C007D00850E82850F83A3A3A389
:1035B800A3E02401FAA3E03400FB1206F2EA4B6010
:1035C800418A828B83E02402F8850A82850B83E096
:1035D80028F0EA2404F8EB3400F988828983E0852E
:1035E80012828513831239021238F01219A98A82BD
:1035F8008B83123384E5082403FAE5093400FB02BF
:10360800357B850A82850B83E02404F07C047D00E9
:103618007900AA12AB13121040023588EE4F6003EE
:1036280002358F1238C9FEA3E0FF850A82850B8315
:103638007404F0EE850882850983F0EF851282858F
:103648001383F0740312178AAC82AD83EEFAEFFB92
:1036580012399670030236FA8A828B83A3A3123832
:10366800BF740112178A85820E85830F780E12198E
:10367800A9740512178A1219C07CFF7DFF1206F87B
:1036880074041217558B0FEA450F7033850C828529
:103698000D8312389F1219A9850C82850D83A312F8
:1036A80019C07C027D007A897B9212052474041269
:1036B8001755E9700A740112178A74FFF0A3F08E87
:1036C800828F83E064027034750C02750D00780CEB
:1036D8001219A98E828F83123384E5082404FAE52F
:1036E80009122CB0121755850A82850B83E0240233
:1036F8008009740112178AEEF0A3EFF07401121713
:103708008A1238B0F0740112178AA31238A8A3A33A
:10371800A3F0023588EE4F600302358F850C828551
:103728000D83123385AA16AB1712082A850A8285DB
:103738000B837402F0EA850882850983F08512827A
:10374800851383EB80CBEE4F600302358F1238C9A7
:10375800F8A3E0F9850A82850B837402F0E88508EE
:1037680082850983F0E985128285138380A3850CFD
:1037780082850D8312302A121022EAFC8C82A882DC
:10378800C39EE49F404BE86E7001EF70047C00809C
:103798001F851882851983E0FAEE2AFAEF3400FBB8
:1037A800C3EA98EB94005003E08004EECCC39CFC81
:1037B800EC850A82850B83F08C0A750B00780A1257
:1037C80019A9850C82850D83E02EFCA3E03F023504
:1037D80076751007023588EE4F600302358F850C29
:1037E80082850D83123BBB850A82850B837407F0A3
:1037F800888289831238A8123890E085128285134E
:1038080083F0E82402FAE93400FB8A828B831238B9
:10381800A81238E11238B0A31238EA1238B9F0E821
:103828002405F8E93400F9888289831238B9A3128B
:103838003902A3023716741D12178A1239A17003B0
:10384800023585123BBB880C890DE8450D700302D3
:1038580035858E108F1178101219A9780A1219A9B6
:1038680078081219A9740612178AE0F9AC0EAD0F80
:10387800AA16AB17850C82850D831217947406124D
:103888001755E9F510023588F088828983A322F557
:103898000CEF3400F50D22E0F50E750F00780E22BE
:1038A800E08508828509832212390922123BBFE884
:1038B80022123909A3A322A3A3A3A3E0FEA3E0FF36
:1038C80022850C82850D83E0F8A3E0F5838882E0E9
:1038D80022E0F508A3E0F50922A3A3F08A828B83EE
:1038E800A32212259CA3A322F08A828B831238F983
:1038F80022E0F50A750B00780A221238901239096D
:1039080022E0850882850983A3A32274EE12179604
:1039180074FE12173F8A0A8B0BECFAEDFB74141233
:10392800178AE0F510A3E0F511741612178AE0FE65
:10393800741812178AE0F50EA3E0F50F8518828532
:103948001983AC82AD83123996603E851882851939
:10395800831239A1602FA3A31238D9E5084509605D
:1039680024780E1219A978101219A9EEF9AC0CAD29
:103978000DAA0AAB0B850882850983121794740473
:103988001217558006790E80027901022DD612068B
:10399800F28A0C8B0DEA450D2212302E1239A8221C
:1039A8001207BE8A828B83E58245832274F612173A
:1039B8009674FE12173F740C12178A1238B48518C1
:1039C80082851983F0740112178AE9F0E4F508F585
:1039D8000978081219A975080278081219A9740437
:1039E80012178A85820885830978081219A912088E
:1039F8001274061217557402121755806474F71260
:103A08001796EAFEEBFF89087C187D0312082AEA5C
:103A18005402600BA908EEFAEFFB1206E680027961
:103A2800010233F274F612179674FF6A700374FF7A
:103A38006B701C7B00EB75F003A4F8A9F0EC28F878
:103A4800ED39F9123A6E0BEBC39402501480E6126A
:103A580007FA8A088B09A808A909E8496003123AF5
:103A68006E7F020218688882898374FF12259AE49F
:103A7800F02274F61217961207FA8A828B83E5826F
:103A880045836006A3A3E0FA80027A007B0080D118
:103A980074F21217968A088B09ECFEEDFF740E1269
:103AA800178AE0F50A123ADE701CEEFCEFFD7AFF89
:103AB8007BFF123ADE70047911801688828983E5CB
:103AC80008F0A3E509F088828983A3A3E50AF079C1
:103AD800007F060218681207FA8A0C8B0DA80CA939
:103AE8000DE8492274EE121796EAFEEBFF8C088D5A
:103AF80009890C741212178A123BBB741412178AA4
:103B0800123385741612178A12302A750D00EC4D7F
:103B18006003023BAF7402650C6003023BAA888213
:103B2800898312338AF9EC2400F50EE439F50FEA9B
:103B3800F4F8EBF4F9EC58F8E50F59F9E849705D39
:103B4800E5082406F8E5093400F9880A890B888213
:103B5800F583122CBF12082A8A108B11E50E651006
:103B68007004E50F65116042780E1219A9850A8262
:103B7800850B83122CBF1208307402121755E9F511
:103B88000D7027780E1219A9850882850983A3A3C9
:103B9800122CBD1208487402121755800D750D803D
:103BA8008008750D0D8003750D0BA90D0232908EDE
:103BB800828F83123BBF22E0F8A3E0F92274E81257
:103BC800179674E712173F851882851983EAF0A3C0
:103BD800EBF08C168D17890E743112178AE0F512E6
:103BE800A3E0F513743312178AE0F514A3E0F51572
:103BF800743512178AE0F50F750800750900E50994
:103C080075F003A4F8A9F0851882851983123D2F51
:103C1800E0F47003A3E0F47003023D0DEE2402F516
:103C28000CEF123D25E07003023D0D85160A85173D
:103C38000B780A1219A9AC14AD15AA12AB13120706
:103C4800B274021217558A0A8B0BEA450B700302ED
:103C58003D0DE4F510F51178101219A97406121724
:103C68008A85821085831178101219A97409121790
:103C78008A85821085831178101219A98512828588
:103C88001383A3A3A3A31219C07914AC0AAD0B8E96
:103C9800828F83123D43121755E97069850A828520
:103CA8000B83A3A3A3A3123BBB740212178A12337C
:103CB8009C850C82850D83E0A2E05018A90E740241
:103CC80012178AAC82AD838E828F8312302A120734
:103CD8000AE94208850C82850D83E0A2E15026E5B9
:103CE8000FF50A780A1219ADA90E740312178AACD7
:103CF80082AD838E828F8312302A120704740112D8
:103D08001755E942080509E509C394025003023C26
:103D180006A90874191217557F100218683400F59F
:103D28000D850C82F58322E028FEA3E039FF8E8200
:103D38008F83227916850A82850B8312302E12080A
:103D48000C74082274F2121796EAFEEBFF890B74C2
:103D580001650B600E7402650B70637901120A220B
:103D6800E9705BEEFAEFFB123DC96047750A008007
:103D78000B7C177D007900121040050A9002E5E0DF
:103D8800F8E50AC3985021E50A75F017A4F8A9F0D8
:103D9800850882850983A3A3E028FAA3E039FB8A72
:103DA800828B831226EB70C985088285098374FF8C
:103DB800F0A3F07C187D03EEFAEFFB120824023A18
:103DC800D91207F48A088B09EA45092274F21217F6
:103DD800968A088B09ECFEEDFF740E12178A1234CE
:103DE800719009F3E0F4603D7A097B00121052EA01
:103DF8004B60328A828B8374B1F0A3E41238E3A358
:103E08001238E1A3E508F0A3E509123E30EEF0A36D
:103E1800EF123E30A3A3E50AF0A3E50BF09009F3F7
:103E2800E0F912105E023AD9F08A828B83A3A3A329
:103E3800A3A32274F4121796E9FF7E008A088B095F
:103E480078081219ED00040DEC3F6E3E8A3E9F3E45
:103E5800B43EC93EDE3EFA3E133F253F533F753F11
:103E6800913FAD3FCB3F74016F70128C828D83E020
:103E7800C394035008E0900ADFF002400A7E18025B
:103E8800400A74026F70F68C828D83124748900A3C
:103E9800E0E8F0A3E980E274016F70E18C828D8321
:103EA800E0C3940250D7E090078180CD74016F7011
:103EB800CC8C828D83E0C3940550C2E09007828049
:103EC800B874016F70B78C828D83E0C3940250ADD3
:103ED800E090078380A374106F70A27508108E0994
:103EE80078081219A97A847B07124B0C121755020D
:103EF800400A74016F70868C828D83E0C3940240FF
:103F080003023E85E0900794023E8174016F6003CE
:103F1800023E858C828D83E0900AE3808D74046F65
:103F28006003023E85909243780812160F8D838CA9
:103F38008278081214314003023E858C828D8312E8
:103F4800162D90079612163902400AEF6003023EBA
:103F580085120692E9700E1211C0795012136A1276
:103F680011B402400A9008297401023E8174016F5D
:103F78006003023E858C828D83E0C3940240030275
:103F88003E85E0900795023E8174016F6003023E12
:103F9800858C828D83E0C3940A4003023E85E090BD
:103FA8000AE2023E8174016F6003023E858C828DB5
:103FB80083E024F9C3940A4003023E85E0900AE4B2
:103FC800023E8174016F6003023E85900828E0F884
:103FD8008C828D83E0900828F0E87026E0640170F8
:103FE80021023F67C3EA9426EB9400501374026FD2
:103FF800700E8C828D83124742120530E9FE8002D2
:104008000E0EEEF9024014740E1217557F040218B2
:104018006874F012179674CC12173F8C0A8D0B74C3
:104028004412178AE0FE742012178AAC82AD837599
:1040380083917582B07406121652742012178AACD6
:1040480082AD83121166E9F508C3940A4003024160
:104058007D75F006E9A4F509742612178AAC82ADBD
:10406800837A0E74202509124BC470097432121712
:104078008AE0FF80027F00900ADFE0640270047427
:10408800018001E4F50D780D1219ADEEFDEFFCA9E4
:1040980008AA0AAB0B1211EA74011217557C147D99
:1040A800007900740C12178AAA82AB83121040742C
:1040B8000C12178AAC82AD837A1074242509124B2E
:1040C800C470377C1079FF740C12178A1248F1708B
:1040D80029741C12178AAC82AD837A0474252509C9
:1040E800F9121364740C12178AAC82AD83EFA2E044
:1040F800E433F9AA0AAB0B1205BA8518828519832D
:10410800AC82AD837A0C74702508124BC470558547
:104118001882851983AA82AB83121196750800E567
:104128000875F003A4F8A9F0851882851983E5823B
:1041380028F8E58312492D124742EC4D601D88820C
:104148008983A3A3E0F50E750F00780E1219A9AAAA
:104158000AAB0B12081874021217550508E508C3B4
:10416800940440BBEFA2E1500C900780E0F9AA0A42
:10417800AB0B12081E74046E702A900ADFE064020A
:104188007022900794E060047A0180027A00900718
:1041980081E06004780480027800E84AF9AA0AAB52
:1041A8000B12067A790074341217557F08021868C2
:1041B80074F0121796EAFEEBFF8C088D09750A0A4F
:1041C800E9600C14600914602E14607F02425E12CC
:1041D80011A8E9F50AC3940A507CE50845096076F8
:1041E800750E06750F00780E1219A9EEFCEFFD1278
:1041F8004B08121755805F750B00750E06750F007A
:10420800780E1219A9EEFCEFFDE50B75F00EA4F877
:10421800A9F074A228FA740739FB12103A74021232
:104228001755E9601B850B0AE50AC3940A5027E570
:104238000845096021AA08AB09A90A1211A280162B
:10424800050BE50BC3940A500D80AF1211AEE9F5CA
:104258000AC3940A40D9A90A0241B374F412179602
:10426800890875091574FF6A700374FF6B70277EDF
:1042780000AC087A027B00EEF9121184E96003753C
:1042880009000EEEC3940A40E8E50860497AD87B35
:1042980011120A348040120A168A0A8B0BAE0AAF32
:1042A8000BEE4F602E7C007D00EE2405FAEF340003
:1042B800FB8E828F8312435A500CAC087A027B0023
:1042C800121184750900E508600CEEFAEFFB121173
:1042D800D88003750914A90902401474F2121796BC
:1042E800ECFEEDFF740E12178A1247357508157427
:1042F800FF6A700374FF6B7021750900AC0AAD0B7F
:10430800EEFAEFFBA90912118AE9600375080005A6
:1043180009E509C3940A503580E2120A168A828B8D
:1043280083E582458360237C007D00E5822405FACD
:10433800E5833400FB12435A5013AC0AAD0BEEFA76
:10434800EFFB12118A7508008003750814A908028A
:104358005133A3A3A3A3E0F9121166E9C3940A2277
:10436800C082C08390079AEAF0A3EBF0900780E040
:10437800FC7D007A257B00120530900780E0F91259
:104388000794D083D08202013574EA12179674EC30
:1043980012173FEAFEEBFFEE240CF514EF3400F59C
:1043A80015EE240AF510EF3400F511EE2405F50E8C
:1043B800EF3400F50FEE2409F50AEF3400F50BEEA3
:1043C8002403F508EF3400F5098E828F83A3A3E058
:1043D80024FA70030246FE24FD700302462D147071
:1043E8000302447C14601024FD70030245FE14701F
:1043F8000302466202471C124761604AE0F583885F
:1044080082124748880C890DE8450D603985148269
:10441800851583E0F50E780E1219ADEE240BF582A2
:10442800EF3400F583E0F9850A82850B8312474251
:104438000A0A0AAB09850C82850D83121794740148
:1044480012175502471C850A82850B831219C090E2
:10445800079612162D1205CC7402121755E970032F
:1044680002471C7901850A82850B83124F58120571
:10447800C602471C8E828F83A3858212858313E030
:1044880060030245D7850E82850F83E0A2E04003D2
:104498000245D77C0E7D007900851882851983AA8C
:1044A80082AB83121040EE2408F50AEF3400F50BB6
:1044B800850A82F5831247646019750C06750D002C
:1044C800780C1219A9850A82850B83E02410FCA3B5
:1044D800E0801A124726EA4B700302471C750C0647
:1044E800750D00780C1219A9EA2405FCEB3400FDBF
:1044F800740212178AAA82AB83124B0C12175585C5
:104508000E82850F83E0A2E25004D2F08002C2F04E
:10451800A2F0E433F8740C12178AE048F085108290
:104528008511831247646015851082851183E02404
:1045380010F8A3E03400F9888289838003909247B9
:10454800780C12160F851082851183124764600F4C
:10455800851082851183E0F510A3E0F511800675BA
:104568001000751100850A82850B83124764600B61
:10457800850A82850B831247358006750A00750BFC
:1045880000780C1219A578101219A9780A1219A91D
:104598008514828515831219C08E828F83A31247D2
:1045A8003D740A12178AAA82AB8312119C740A12EC
:1045B800175585088285098312474890082AE8F02C
:1045C800A3E9F07A017B00900780E0F912108212CB
:1045D8004761700302471C12474E700302471C854F
:1045E8001282851383E0FC7901124F528E828F83E9
:1045F80012179402471C124761700302471CE0F52A
:10460800838882A3A3124748890BE8450B700302ED
:10461800471C8E828F83A3E0FC7902124F52888256
:10462800850B8380CB7C007D00EE2404FAEF3400F8
:10463800FB850882850983E0F9121166E9F8C394BD
:104648000A400302471CAC10AD117A0475F006E865
:10465800A42425F912135E02471C900795E0600E0A
:10466800900AE2E0F9850882850983024473900A7A
:10467800DFE07004790580ED1247268A0C8B0DA8BF
:104688000CA90DE82404F50CE93400F50D8E828F91
:1046980083A3A3A3A3A3A3A3E0A2E05036E84960A1
:1046A80073850C82850D83E0FE6028850A82850B60
:1046B80083E05410701D740E12178AAC82AD83E823
:1046C8002405FAE93400FBEEF9121166E970047961
:1046D800038092AC0EAD0F850C82850D83E0F91234
:1046E8004F521211E4124761602A12474E60257C2E
:1046F8000079000245F1120692E97018900829E045
:10470800640170081211C0900829E4F0795012135E
:104718006A1211B474141217557F0E0218688508AE
:1047280082850983E0FAA3E0FB120A1622E0F50A63
:10473800A3E0F50B22A3A3A3A3A3E0FCA3E0FD221F
:10474800E0F8A3E0F922E0F5838882A3A3E0F8A3C8
:10475800E0F9E8FEE9FFEE4F2290079AE0F8A3E0BF
:10476800F9E8492274F412179674F212173FEAFE18
:104778008C0B75F006E9A42420F5088518828519A4
:1047880083AC82AD837A0E124BC4704A7C06124801
:10479800E97043740C12178A124748E8F509E50BCB
:1047A8006005EE42098004EEF45209850982AA8266
:1047B800E86A7001E9601B740C12178AEAF0A3E436
:1047C800F0851882851983AC82AD837A0EA9081208
:1047D800135E79018002790002400F74F212179675
:1047E80074E612173F890A8A088B09ECFEEDFF74FC
:1047F8000C12178A124BB7600302489D7C0679FF9A
:10480800740C12178A1248F1600302489D747025CF
:104818000AF50B851882851983AC82AD837A0C1250
:104828004BC460030248E2851882851983AA82ABCB
:1048380083121196E508450970217C0C790012480D
:10484800EB60030248E27C0C7D00790085188285C4
:104858001983AA82AB83121040806185188285195A
:1048680083AC82AD83AA08AB091211908A0C8B0D18
:10487800A80CA90DE849702CEE4F6019851882859F
:104888001983AC82AD837A007B00121190EAF8EBB1
:10489800F9EA4B70047900804388828983E508F03F
:1048A800A3E509F0124969FAEE6A7001EF602BEE90
:1048B800F04F700888828983E4F0A3F08518828518
:1048C8001983AA82AB83121196851882851983AC45
:1048D80082AD837A0CA90B12135E7901741A025106
:1048E8003079FF851882851983AA82AB831210A6B6
:1048F800E92274F71217967F00EF75F003A4F8A960
:10490800F0EC28F8ED12492DE06A7003A3E06B7013
:1049180006E8FAE9FB800B0FEFC3940440DB7A004A
:104928007B00024C6239F9888289832274F7121756
:10493800967E00EE75F003A4F8A9F0EA28F8EB12C9
:10494800492DE0F4FCA3E0F4FD88828983ECF0A310
:10495800EDF0124969F4F00EEEC3940440D5024C10
:1049680062E82402F582E93400F583E02274EE124D
:10497800179674F412173FEAFEEBFF8C0A8D0B743E
:104988001E12178AE0F50CA3E0F50D742012178AA1
:10499800E0F508A3E0F509742212178AE0F510A3E0
:1049A800E0F511EE4F7005790A024A9A1211A8E94A
:1049B800F50EC3940A4023750F007C0679FFE50FB6
:1049C80075F00EA4FAABF0749C2AFA74073BFB123C
:1049D80048F57003024AA4850F0EE50EC3940A40F9
:1049E80003024A9875F006E50EA4F50FEEFCEFFDFC
:1049F8007A0E7420124AB5E50A450B600BAC0AAD75
:104A08000B7A1B7421124AB5E50C450D600BAC0CF2
:104A1800AD0D7A1B7422124AB5E5084509600BAC46
:104A280008AD097A107423124AB5E5104511601BC8
:104A3800AC10AD117A107424124AB5742412178A76
:104A4800AC82AD837A047425124AB57C0C7D00795A
:104A5800FF1251C17A0C7470250EF912135E750895
:104A68000E75090078081219A9EEFCEFFDE50E7520
:104A7800F00EA4F8A9F0749C28FA740739FB124BBD
:104A88000C121755900828E060031211F01211DE7D
:104A9800A90E740C1217557F0A021868050FE50F46
:104AA800C3940A50030249C2750E0A80E3250FF920
:104AB80012135E2274F412179674F212173FEAFE6C
:104AC800EBFFE9C3940A5004EE4F70047902802D7D
:104AD800851882851983124BB7F508701E750A066A
:104AE800750B00780A1219A9740212178AAC82ADE4
:104AF80083EEFAEFFB124B0C121755A90802400F70
:104B0800AA08AB0912102874022274F4121796EA44
:104B1800FEEBFF750800750A06750B00780A121976
:104B2800A9EEFCEFFDE50875F00EA4F8A9F0749C59
:104B380028FA740739FB12103A7402121755E96003
:104B480004A908800B0508E508C3940A40C8790A37
:104B580002401474F712179674F012173FEAFEEB2E
:104B6800FF750800851882851983AC82AD837A1099
:104B780075F006E508A42423124BC4701F7C10129C
:104B880048E97018EEFCEFFD851882851983AA8222
:104B9800AB8312059CE97004A908800B0508E50899
:104BA800C3940A40BF790A7410121755024C62ACBC
:104BB80082AD837A0E75F006E9A42420F9121364F5
:104BC800E92274F7121796750800E50875F00EA427
:104BD800F8A9F0749C28FE740739FFEEFCEFFD7A03
:104BE8000E75F006E508124BC1602C7C067D007935
:104BF800FFEEFAEFFB1210407C067D0079FFEE24F1
:104C080006FAEF3400FB121040EE240CF582EF3464
:104C180000F583E4F0A3F00508E508C3940A40AA68
:104C2800900828E060031211F01211DE802C74F74E
:104C38001217967E007F007C0679FFEF75F00EA4B0
:104C4800FAABF0749C2AFA74073BFB1248F5700122
:104C58000E0FEFC3940A40DFEEF97F010218687463
:104C6800F71217967E00EEF91211C60EEEC3940ADB
:104C78005003E960F180E374F312179674CB1217AE
:104C88003FE9FF75F006A4F50874202508FE74278F
:104C980012178AAC82AD837A0EEE124BC4600302FF
:104CA8004D817C0679FF742712178A1248F1600338
:104CB800024D817C0E7D0079FF742712178AAA8223
:104CC800AB831210407C1B7D0079FF740C12178A8D
:104CD800AA82AB831210407C0C7D0079FF85188274
:104CE800851983AA82AB83121040742712178AACE5
:104CF80082AD837A0EEEF912135EE9F509740C128F
:104D0800178AAC82AD837A1B7421124D90FE740C05
:104D180012178AAC82AD837A1B7422124D90F50A61
:104D2800740C12178AAC82AD837A107423124D90DA
:104D3800F50B740C12178AAC82AD837A10742412A6
:104D48004D90F50C740C12178AAC82AD837A0474FA
:104D580025124D90F508851882851983AC82AD839C
:104D68007A0C74702FF912135EE9F8EE450A450BB8
:104D7800450C45084842098003750900A90974359E
:104D88001217557F050218682508F912135EE922E3
:104D980074F7121796E9900780F01211B4024C626A
:104DA80074F212179674FB12173F8A088B09EB549A
:104DB800807003024E4C900780E0F912106A8A0A4C
:104DC8008B0BA80AA90BE8FEE9FFE849606CEE2402
:104DD80004F8EF3400F98E828F83E0245060381491
:104DE800600624E1604A804B88828983E070448EA3
:104DF800828F83A3A3A3A3A3A3A31219C08E828F18
:104E08008312473D8E828F83A3A3124F58121172CB
:104E18007402121755801C88828983E0641E7013FF
:104E280079008E828F83A3A3124F5812116C8003CE
:104E380012117EEEFAEFFB121058AA08E5096480F9
:104E4800FB024F4DEAA2E04003024F4990082A12A4
:104E58004735740312178A85820C85830D780C12E6
:104E680019A9750C02750D00780C1219A9750C8317
:104E7800750D92780C1219A97CFF7DFF7A017B00D1
:104E88001206EC7406121755024F31E4F50CF50DB5
:104E9800780C1219A9740412178A85820C85830D5F
:104EA800780C1219A9740412178A85820C85830D4F
:104EB800780C1219A9740912178A1219C07902EE0E
:104EC800FCEFFDAA0AAB0B12080C7408121755E97F
:104ED8007035851882851983E0FA740112178AE003
:104EE800F9EA2400F50CE439F50DEA450D60187867
:104EF8000C1219A98E828F8312473EAA0AAB0B1295
:104F080011727402121755E4F50CF50D780C12198C
:104F1800A9740512178A1219C07CFF7DFFEEFAEFFB
:104F2800FB1206F874041217558A0C8B0DAE0CAFE1
:104F38000DEE4F6003024E93E5086401FAAB098059
:104F4800047A007B00740502513085088285098344
:104F5800E0FAA3E0FB22C082C083900780E0F98AD0
:104F6800828B83A3124F5812081E02438AC082C044
:104F78008374FF12173F1211BAE9C394028518828D
:104F8800851983400474028002740AF0AC82AD83F0
:104F98007A0179051206AA740112175502438A7418
:104FA800F212179674E812173FEAFEEBFF890A8C93
:104FB800088D097C187D0079001251C9EEF0A3EF25
:104FC800F0900782E0C0E0740212178AD0E0F090F7
:104FD8000783E0C0E0740312178AD0E0F0900AE477
:104FE800E0C0E0741712178AD0E0F0741512178A1F
:104FF800E054FEF8A3E0F9900AE3E0A2E0E433FA13
:10500800E84AF8741512178A12513FA2E15004D2E7
:10501800F08002C2F0E854FDFAA2F0E43333F8EA73
:1050280048F8741512178A12513FA2E35004D2F0BF
:105038008002C2F0E854F7FAA2F0E433F50C750DDB
:10504800007403780C12172C12513812178A125157
:105058003FA2E45004D2F08002C2F0E854EFFAA272
:10506800F0E433F50C7404780C12172C1251381232
:10507800178A12513FA2E55004D2F08002C2F0E82C
:1050880054DFFAA2F0E433F50C7405780C12172CEF
:1050980012513812178A12513FA2E25004D2F080FE
:1050A80002C2F0E854FBFAA2F0E433F50C7402787B
:1050B8000C12172C12513812178AE8F0A3E9F09055
:1050C8000783E0601B750C10780C1219A97C847D8D
:1050D80007740612178AAA82AB83124B0C12175553
:1050E800900794E06011E50A6009741512178AE0C8
:1050F8004402F0780180027800741412178AE0489C
:10510800F0900781E060047804800278007414123B
:10511800178AE048F0AC08AD09851882851983AA7A
:1051280082AB831205C074181217557F06021868DF
:10513800EA450CF8741522E8F0A3E9F0900AE3E0D8
:105148002274F312179674E512173FEAFEEBFF8CF0
:10515800098D0A742812178AE0F50C75F006E9A47F
:10516800F87408650A700474228002742128F50B0B
:105178007C1B7D0079001251C17A1BA90B124BC50B
:105188007032741A12178AE024F9C3940A5025E57C
:105198000CF50B780B1219AD740112178AAC82AD9D
:1051A80083E509A2E0E433F9EEFAEFFB1205D274C5
:1051B80001121755741B024D881251C9AC82AD8378
:1051C80022851882851983AA82AB8312104085181C
:1051D800828519832274F7121796120890750800B1
:1051E800E50875F00EA4F8A9F0749C28FE74073938
:1051F800FF7C0679FFEEFAEFFB1248F57009EEFA2C
:10520800EFFB79001208960508E508C3940A40D018
:10521800024C62C082C0839061907404F0A3744809
:10522800F0A3E4F09061807440F09061BC7407F0E2
:105238009061877469F09061B67416F07900120B6A
:10524800127902120B18902458E493F46006E49340
:10525800F9120AEE7905120E0C02565DC082C0835F
:10526800E9540FF9906185E0696012E5C6548044FD
:1052780049F5C6E59E547F644970F8E9F053C68045
:10528800E59E547F70FA02565D74F7121796E5A8EA
:10529800FE53A87E120AFAC2BA539AFEC289759BB7
:1052A80000C2C2120B0075A91175B905120B06D2FE
:1052B800BA439A0174805E42A8025BEAC082C08346
:1052C800906181E4F0A302565A75E9007591007562
:1052D800BF00020135C082C083906181E4F0A374ED
:1052E800C0F0A3E402565CC082C08374F812173F72
:1052F8009003C4125ACCE84970030253A69003C421
:10530800E0544060237908851882851983AA82AB06
:1053180083120C08851882851983AA82AB83120828
:10532800B49003C4E054BFF0E054806010790C7A64
:10533800807B05120C089003C4E0547FF0E0A2E0E3
:10534800500879001253AE54FEF0E0540260087918
:10535800011253AE54FDF0E0540460087900125372
:10536800B954FBF0E05408600879011253B954F7B6
:10537800F0E05410600879021253B954EFF0E05489
:1053880020600879031253B954DFF0A3E054016098
:105398000D120B241208C69003C5E054FEF07408E1
:1053A80012175502565D120B121208BA9003C4E088
:1053B80022120B181208C09003C4E022C082C083D6
:1053C800E9600514602A804F90619A7433F0A374E1
:1053D80055F09061A0743AF090055CE064017009A2
:1053E800C2919003C67467802D9003C674618026AD
:1053F80090619A743FF0A3745AF09061A0747FF0A2
:1054080090055CE064017009D2919003C6747180C4
:10541800059003C6746AF002565DC082C083E960D5
:105428000B14600D14600F146011802090245C80B0
:105438001590245D801090245E800B90055CE064DC
:105448000160F390245FE493906186F002565D74E6
:10545800EE12179674F412173F851882851983ACDB
:1054680082AD8375839275826774041216529024F4
:105478005C93F460030255E9907808E0C394025005
:10548800030255C9740412178AAC82AD83758391DF
:1054980075828E7408121652F97AFF7BFF7FFF7EA1
:1054A800008982858210801874086E700302557E08
:1054B80074096E700302557E740A6E700302557E7D
:1054C800E510C333FCE433FD740412178AE5822C1B
:1054D800F582E5833DF583E0F50EA3E0F50F8E0830
:1054E8007509007402780812172C74482508FC7492
:1054F800783509FD8C828D83780812160F74087828
:105508000812155085080C85090D8C828D83780842
:1055180012160F74187808121550E50C4508F5088E
:10552800E50DF509C3E50E9508E50F95098C828D03
:1055380083780812160F8C828D83780812160F74E0
:105548001878084014121550E50C4508FCAD0DE517
:105558000EC39CFCE50F9D800F121550E50C450805
:10556800C3950EFCE50D950FFDC3EC9AED9B500617
:10557800ECFAEDFBEEFF0EEEC3941350030254B0A9
:1055880074FF6A700374FF6B602D8F0874027808CB
:1055980012172C744812627874783509F5837808E4
:1055A80012160F851882851983E5822510F582E584
:1055B80083126005E508F009E9C394045003025416
:1055C800A175080175090078081219A97402121743
:1055D8008AAC82AD837A177B0912123274021217D1
:1055E80055740C1217557F0A021868C082C0839040
:1055F8006186E0F890245FE49368700990245EE483
:1056080093906186F09061AE7468F0A3746AF0902C
:10561800624574FBF0A304F053F4FD43FE029005C9
:105628005C7401F09061A0E0643A70047900800233
:105638007901120B1202565DC082C08390050EE0FC
:105648006401700A900513E06004790C8002790007
:105658008003F0A3F0D083D082020135C082C083DA
:1056680075E1F1900511E0604D1460081460511463
:1056780060498051120B36900507E0F97A087B05DE
:10568800120D8E90923F12162D120DC49091FF129A
:10569800162D120D9A900512E0F9120DA679011235
:1056A8000E00900505E024161257F2744EF0A3740C
:1056B8000BF07900809F120B3C80BC120B4280B724
:1056C800120B4880B2791280EB74F412179675D9D0
:1056D8000D9004F6E0A2E0E4331313F812575E4885
:1056E8004401F5D978001257DC40FB78008808742B
:1056F800F712627874041257E640F275E195900447
:10570800F6E0F97AF77B04120D94900A1574C4F048
:10571800A3740A1258011258211258181259591212
:105728005768780812160F90923B780812159B90CC
:10573800920778081215E91257EC780812161E908D
:105748000505E024141257F27413F09003C2740292
:10575800F07F04021868900507E0C4333354C02270
:10576800900505E0F8A3E0F5838882A3A32274F6E8
:1057780012179612592A8AD978001257DC40FB78FA
:105788000080061258901259DCE8C39940F5125966
:105798001C1257DC40FB78008008126274740512F2
:1057A80059DCE8C39940F375E195900A1574D0F077
:1057B800A3740A12580112580B12162D1257EC1224
:1057C8001639900505E024141257F27412F090036C
:1057D800C2025BC7880874082508F5827405125B45
:1057E80038940622900505E0240EF8A3E01257F934
:1057F800223400F9888289832212594274CAF0A39C
:10580800740A2212582112581812595D9092472290
:10581800F0A374E2F0A3740A221258252212582920
:1058280022F0A37474F0A3740C2274F61217961263
:10583800588512575E4402F5D978001257DC40FBB0
:10584800780080061258901259DCE8C39940F57523
:10585800E195900A1512589BF0A312589B12580E06
:1058680012162D1257EC121639900505E024141261
:1058780057F27414F09003C27404025BC9900517C0
:10588800E0F9740729F5D922880874182508F582E3
:1058980074052274DC1258A81258A8F0A3740A22BE
:1058A800F0A3740AF0A374DC2274F6121796125946
:1058B8002A74064AF5D978001257DC40FB78008034
:1058C800061258901259DCE8C39940F512591C1277
:1058D80057DC40FB7800800812627474051259DCAA
:1058E800E8C39940F375E195900A1574D6F0A3744E
:1058F8000A12593812580B12162D1257EC12163973
:10590800900505E024141257F27415F09003C27440
:1059180003025BC990053712588874044AF5D97890
:105928000022125885900507E0C4333354C0FA2288
:105938001259427474F0A3740C2212594622125957
:10594800537474F0A3740C12595322125829F0A3FB
:105958002212595D22F0900A237474F0A3740C1279
:1059680059467474F0A3740C125825F022C082C0F2
:1059780083125768A3A3A3A3E402565A74F7121715
:10598800961264BAF8740339F9E82405FAE9340080
:10599800FB8A828B8312622988828983A3A3A3A3AB
:1059A800A3A3A3A3A3ECF0A3EDF088828983A3A308
:1059B800A3A3A3A3A3E024FFF8A3E034FFF98A82FA
:1059C8008B83E8F0A3E9F0025BEA88087460250895
:1059D800F5827405126150F5D90822EAFEEBFF90B2
:1059E80061D0E0F87480C398FAEE2483221259FB40
:1059F800940422126013E0F5D90AEAC32274F6125D
:105A08001796EAFEEBFF9061D0E0707575D90E75B8
:105A1800D90375D9047A008A08EE25081265882406
:105A28008C125A9E40F17A008A08EE250812658881
:105A380024841259F540F175E1957908EE248C1209
:105A48005A972484125A8E7C008C82AA82C3E49AC4
:105A5800F895E0F9EE28F8EF39F9E8248BF582E9B2
:105A680012614CC0E0EE2A12658824ABF582E91277
:105A78006005D0E0F00CECC3940840CD125B548074
:105A8800027900025BCAFAEF3400FB120BFC221207
:105A98005A8E7904EE221259FB940822C082C083E0
:105AA80075D90275D90375D90575E195EA2470F59C
:105AB80082EB125AC9EA2472F582EB125B6602562F
:105AC8005D126016125AD022E0F8A3E0F92274F6AB
:105AD800121796EAFEEBFF9005607406125B4212FD
:105AE80019A97C017903125E6E12175575D90675CE
:105AF800D9037800125B2840FB75E1959003C2E05A
:105B080064087017EE2470F582EF125AC9EE2472F9
:105B1800F582EF126005E8F0A3E9F07901025BCAAB
:105B2800880874602508F5827405125B389405228C
