:020000040000FA
:0600000002011D021E13A7
:03002B0002255655
:030033000225386B
:03005300021E8604
:03006B0002250F5C
:10008300021CC7E5C754F84401F5C77901220000F3
:100093000080FB120086B90003020107E47921788E
:1000A30008B800028004F709D8FCE479297802B87B
:1000B30000028004F709D8FCE490028178B679073E
:1000C3008002F0A3D8FCD9FA781A90014D7A01BACC
:1000D30000028007E493A3F608DAF9900936AA82AE
:1000E300AB8390014E78F979038015E493A3AC8236
:1000F300AD838A828B83F0A3AA82AB838C828D83A8
:10010300D8E9D9E77582527583A4740312012F7558
:100113008291758300740012012F75D00075813FA1
:10012300751881751902759F00020096C09FF59F8F
:10013300E473D09F22D083D082C09FE493C0E07445
:100143000193C0E0740293F59F2201FF0000B40005
:100153000028002800283075A000A000A000A000FF
:1001630000080008E001F00010001000100010006B
:100173001000100050005000500010001000D00775
:100183000000000000000F000100050030750700AB
:100193001000010081FF0000FF440662064A06FFCB
:1001A30002020208025000A0000000E80302958446
:1001B30001000077840291840100008B09028D8481
:1001C300010000B2020291840100008C09028B84B9
:1001D300010000C8020291840100008D0902898494
:1001E300010000CA020291840100008E0902878483
:1001F300080000CB020291840100008F090285846C
:100203000100009009FF0100FF2002958401000016
:100213007D84029184010000F409028384000000BC
:10022300000002BD840300001803260C260C260CD4
:10023300260C260C260C260C260C260C260C260C2B
:10024300260C260CB40ECC0EAE0EFFFF02020202E9
:100253000202020202010D00000010010295840156
:1002630000008084029184010000370A02AD8401FA
:1002730000007807029184010000380A02AB840170
:1002830000002283029184010000390A02A784013D
:10029300000007830291840100003A0A02A5840149
:1002A300000070820291840100003B0A02A38401D2
:1002B3000000A6820291840100003C0A02A184018D
:1002C300000082820291840100003D0A029F8401A2
:1002D300000094820291840100003E0A029D840181
:1002E3000000F9820291840100003F0A029B84010D
:1002F3000000400A01E803053F10FF0001307503C9
:1003030002010600000000000000000000000000E1
:10031300000000000000000000000000000000FFDB
:10032300FF0600800CE8030201061AFF4C000215C9
:10033300E2C56DB5DFFB48D2B060D0F5A71096E0FB
:1003430000010002CDCD69626561636F6E0000003C
:10035300000000000000000000000022130000283D
:10036300130A4368617261637465726973746963C4
:10037300203100024368617261637465726973744A
:10038300696320320008436861726163746572694E
:100393007374696320330010436861726163746529
:1003A3007269737469632034000243686172616324
:1003B3007465726973746963203500029584010062
:1003C300007A840291840100004C0B02B58403007F
:1003D300002709028F840100004D0B029184010064
:1003E300005E0B02B7840100002809028F8401001C
:1003F300005F0B029184010000700B02B9840200BC
:10040300002909028F84010000710B02918401000D
:1004130000820B02BB840000002A0902BD84030092
:10042300002B09028F84010000830B0291840100D9
:1004330000940B02B1840400003109028F8401008F
:1004430000950B1201388296031201389996031214
:100453000138C8960312013801970312013829970E
:10046300031201385797031201386E9703120138AC
:100473008597031201389B9703120138C297031221
:100483000138D59703120138EB9703120138FE9711
:100493000312013823980312013811A40212013800
:1004A30010A50212013845A50212013866A50212F1
:1004B300013876A50212013897A502120138A3A6C6
:1004C3000212013870A702120138E3A702120138A1
:1004D30069A802120138ACA802120138E3A802127B
:1004E300013869A9021201383BAA0212013899AAFC
:1004F30002120138B1AA021201382BAB02120138E1
:100503002EAB0212013831AB02120138D8AB021202
:100513000138F0AB0212013820AC0212013840ACB2
:10052300021201382EAD02120138E4AD0212013875
:1005330037E4021201385FE4021201388DE402123B
:100543000138C4E4021201382CE50212013875E5C2
:1005530002120138C0E502120138FEE50212013829
:100563003BE60212013869E60212013810E7021273
:1005730001381AE70212013827E7021201385AE755
:10058300021201381CE80212013828E8021201386D
:1005930040E8021201384AE802120138CFA00312E0
:1005A3000138DDA003120138F5A0031201380DA1B3
:1005B3000312013852AC01120138F0AC01120138B8
:1005C30068AD011201387DAE01120138B7AE0112D8
:1005D300013860AF0112013835B00112013899B109
:1005E30001120138F0B10112013877B2011201385A
:1005F3005EB301120138ABB30112013839B40112F1
:1006030001385DB40112013832B60112013873B6F4
:100613000112013895B60112013816B701120138DB
:1006230000B801120138C6B80112013846CE0212D1
:10063300013818CF02120138C1CF0212013804D099
:100643000212013891D0021201381DD10212013871
:10065300FED1021201382DD20212013829D302121F
:10066300013871D30212013873D402120138B7D49E
:1006730002120138DDD402120138EDA2031201384F
:100683000080031201381680031201383C800312E4
:1006930001386481031201386E8103120138C78265
:1006A30003120138C7830312013852D502120138ED
:1006B30087D602120138BAD60212013804D70212C1
:1006C3000138C2D802120138B36D00120138166E18
:1006D300001201385B6F001201386B6F0012013892
:1006E3008E6F00120138D96F001201387E7000122C
:1006F30001387471001201383E7200120138B6736A
:1007030000120138F8730012013896740012013890
:10071300E37400120138097500120138F7760012EC
:100723000138FC7600120138DD7800120138317986
:1007330000120138937900120138BB790012013895
:100743005F7A00120138217B00120138527B0012BC
:100753000138557B001201389D7B00120138DF7B85
:1007630000120138467C00120138F28D0312013861
:10077300058E031201381E8E03120138698E03128F
:100783000138448F03120138D38F031201381E90AE
:10079300031201387C250012013888250012013824
:1007A300C12500120138062600120138BD260012A9
:1007B3000138432700120138A82700120138D42733
:1007C300001201380D2800120138212A00120138C5
:1007D300FD2B00120138E82D001201381F2F0012E3
:1007E30001387F31001201386B3200120138B13306
:1007F30000120138BE3400120138DB340012013814
:100803001335001201382D350012013895350012C9
:1008130001382F3A00120138D03A00120138213B37
:1008230000120138483B00120138963B0012013890
:10083300B43B00120138083C00120138E13C0012BD
:100843000138683E00120138F03E001201388DDF96
:100853000212013897DF0212013862E002120138F6
:100863007DE002120138A3E002120138E7E0021230
:1008730001381FE10212013848E102120138C1E1D7
:1008830002120138D6E102120138EBE102120138FB
:1008930022E20212013836E20212013867E2021242
:1008A3000138A1E202120138CDE20212013823E33A
:1008B3000212013877E302120138C0E30212013851
:1008C300EAE3021201380FE40212013807FA0212B6
:1008D3000138D1FA02120138B4FB021201382AFCA2
:1008E300021201386CFC0212013899FD0212013820
:1008F300008002120138298002120138428002125C
:10090300013887810212013865820212013884821C
:100913000212013811830212013854830212013882
:10092300A18402120138408502120138BF870212E6
:1009330001385688021201382A89021201380C8ABA
:1009430002120138788B021201380B8C0212013823
:10095300E49C031201384D9D03120138A19D03123B
:100963000138C89D0312013873ED02120138E0ED1E
:10097300021201382BEE0212013820EF0212013865
:100983001CF00212013806F1021201384FAE0212B6
:10099300013891AE021201386BAF0212013844B034
:1009A300021201383FB1021201381EB2021201389D
:1009B3008AB20212013851B302120138BCB30212D7
:1009C300013823B4021201384EB402120138BFB405
:1009D3000212013852B502120138BBB502120138B6
:1009E300D0B50212013818B60212013831B602121C
:1009F300013896B60212013899B602120138F88A04
:100A030003120138208B031201385E8B0312013865
:100A13001C8C03120138878C03120138A38C031238
:100A23000138CB8C03120138FB8C031201380A8D79
:100A330003120138848D03120138AA8D0312013881
:100A430079C90112013856CB0112013851CD011277
:100A5300013824CE011201386FCE01120138BACE0B
:100A630001120138CCCE011201380CCF011201382A
:100A730041CF011201388DCF01120138BCCF0112D1
:100A83000138DFCF011201382CD001120138B5D063
:100A930001120138C2D201120138ADD4011201385A
:100AA300F0D40112013855D60112013896D601123D
:100AB300013809D70112013855D70112013880D7FF
:100AC30001120138828C02120138AD8C02120138F6
:100AD300949302120138B8950212013873970212E7
:100AE3000138D09802120138573F00120138EE3F07
:100AF300001201381B400012013861400012013816
:100B0300A04100120138374300120138B1430012EB
:100B13000138CC43001201384144001201387045BA
:100B230000120138CB4600120138CD4700120138BC
:100B33002A4900120138434900120138A049001222
:100B43000138824A00120138B54A00120138254B98
:100B5300001201389F4B00120138EE4B001201388E
:100B6300BA4C00120138BF4D001201389E4E0012DC
:100B73000138294F00120138974F001201380B50EA
:100B830000120138345000120138F35000120138BA
:100B93006D52001201388A5200120138A952001214
:100BA30001383A53001201385F530012013887535A
:100BB300001201380254001201385C54001201384B
:100BC300B055001201386D5600120138405700121B
:100BD3000138AAD701120138FAD70112013806D811
:100BE30001120138E3D80112013813D90112013877
:100BF3004BD901120138CAD90112013802DA0112A4
:100C0300013854DA0112013891DA01120138B6DCE5
:100C130001120138E2DE01120138DDE00112013870
:100C2300B8E201120138F47F00120138A1980112D1
:100C33000138EB9801120138CA9E011201384BA00A
:100C430001120138AAA601120138A5A70112013821
:100C5300E2A70112013805A80112013847A80112C1
:100C6300013850A8011201385AA80112013846A9C7
:100C7300011201383AAA011201386E5700120138E5
:100C8300E66100120138EC6100120138F8680012C5
:100C93000138D183031201386784031201387D843C
:100CA30003120138F784031201384D85031201380A
:100CB3008B8503120138E885031201386586031218
:100CC30001386E86031201387A86031201388D8645
:100CD30003120138C98603120138DF860312013873
:100CE3003E8703120138C8F102120138D5F102120E
:100CF3000138EFF1021201382EF2021201386CF2C0
:100D030002120138D1F202120138E6F2021201385E
:100D1300F1F202120138FEF20212013815F3021247
:100D2300013823F3021201382EF3021201383AF389
:100D33000212013849F30212013854F30212013846
:100D430077F30212013820F40212013830F4021250
:100D530001384AF40212013867F40212013883F4AD
:100D630002120138A8F402120138B2F40212013857
:100D7300C6F402120138E5F40212013846F50212F4
:100D830001384CF50212013852F50212013858F5B8
:100D93000212013864F50212013897F50212013884
:100DA3007EE50112013800E601120138A9E60112BD
:100DB3000138F1E701120138FFE901120138E5EAD0
:100DC300011201381AEB011201383CEB0112013810
:100DD300E5EB01120138B5ED01120138DEED011228
:100DE300013856EE0112013888EE0112013895EEF2
:100DF30001120138E0EE0112013804EF011201384B
:100E030055F1011201385FF201120138BBF20112F0
:100E13000138FBBA011201380CBC01120138F0BCD5
:100E230001120138FABC011201381CBD011201384C
:100E330028BD01120138CCBE01120138F9BE0112DE
:100E430001380FC00112013864C001120138B3C167
:100E53000112013888C201120138E4C201120138BB
:100E63004FC30112013884C301120138C7C30112F1
:100E7300013891C601120138A9C6011201383AC7D7
:100E83000112013848C70112013895C70112013810
:100E9300A3C7011201380FC8011201388AC8011211
:100EA3000138E1C801120138F3980212013815998B
:100EB30002120138269B02120138E59D0212013805
:100EC3000F9F02120138CD9F02120138B9A00212FE
:100ED3000138C99403120138EE9403120138649562
:100EE3000312013829C70212013832C7021201382E
:100EF3003BC70212013813C802120138C4C90212D7
:100F03000138F4C9021201381FCA021201384FCA4C
:100F1300021201387ACA02120138AECA021201382B
:100F2300DACA021201381DCB0212013848CB021271
:100F330001388FCB02120138E4CB0212013826CCE0
:100F43000212013880CC02120138ABCC02120138F4
:100F5300FACC021201382ACD0212013855CD021201
:100F6300013883CD02120138A6CD0212013876A3CF
:100F730003120138A2A303120138CFA303120138CD
:100F8300D9A303120138E9A303120138BDB6021233
:100F93000138C7B60212013808B70212013851B737
:100FA300021201388BB702120138E1B7021201387D
:100FB30002B802120138B1BA02120138BABA0212E7
:100FC30001380EBB0212013837BB0212013841BB94
:100FD30002120138AFBB021201383FBC02120138C2
:100FE3009ABC02120138C8BC0212013850BD021269
:100FF30001388FBD02120138C4BD02120138D6BDBB
:1010030002120138F5BD02120138FEBD0212013889
:10101300C5BE02120138FB9E03120138F3FD021212
:10102300013829FE021201385DFE02120138AAFFBF
:101033000212013857A2031201386DA203120138BC
:1010430077A203120138C1A203120138F3A30312DA
:101053000138DFE802120138F2E802120138B3E97D
:1010630002120138F2E9021201380FEA02120138C2
:1010730048EA0212013895EA02120138C7EA02125D
:101083000138FEEA0212013807ED021201386F9BA4
:1010930003120138929B03120138C19B03120138DA
:1010A300599C031201389B9C03120138107D0012D6
:1010B3000138357D001201385F7D00120138AAA482
:1010C30003120138C184011201389F8601120138CD
:1010D3003E8801120138E988011201386989011239
:1010E3000138EE8901120138178A01120138F28D95
:1010F30001120138698E01120138808F0112013803
:10110300BA8F01120138FB8F01120138429101128B
:101113000138989101120138E1910112013850927E
:1011230001120138BC9201120138ED92011201380B
:101133000593011201381E94011201382E940112F5
:101143000138E49501120138FB95011201382D96FF
:1011530001120138CF970112013863980112013847
:10116300A6A103120138B7A10312013800A5031287
:1011730001383FA503120138F2A503120138F29F8B
:101183000312013802A00312013817A00312013819
:10119300C9A003120138F99D031201387E9E031280
:1011A3000138E29E031201383598031201385E9824
:1011B30003120138C49803120138E498031201386A
:1011C300359903120138909903120138CA99031211
:1011D3000138CD990312013814F60212013841F691
:1011E30002120138B3F602120138C8F602120138AE
:1011F300E9F7021201386CF802120138E5F802121D
:10120300013804F90212013827F90212013864F98E
:10121300021201387CF902120138D2F902120138A4
:10122300E4FF02120138F4FF02120138F7FF021241
:101233000138F87F001201388F92031201381F948E
:1012430003120138809403120138C6940312013843
:10125300D79903120138299A031201389C9A031271
:101263000138099B03120138489003120138729028
:10127300031201384191031201381D920312013800
:10128300F3BE02120138BFBF0212013800C00212BE
:1012930001383AC00212013898C002120138ECC07A
:1012A300021201384AC102120138E0C102120138A8
:1012B300E8C20212013872C40212013810C50212C8
:1012C300013877C5021201388AC5021201387EC679
:1012D30002120138C7C60212013808F3011201389D
:1012E3003AF601120138CBF70112013822F8011244
:1012F30001383FF801120138BFF8011201383BFAF7
:10130300011201380AFB0112013877FE011201387C
:1013130061FF0112013878DA02120138F7DC021298
:1013230001384CDD0212013871DE021201380CDF84
:10133300021201386E8703120138B3870312013892
:10134300D08703120138868803120138D988031223
:101353000138A98903120138BF8A031201387FA516
:101363000312013849A503120138ACA50312013851
:10137300D4A503E066701008A3E066700A08A3E032
:1013830066700408A3E06622C3E7960809E7960897
:1013930009E7960809E79622C3E09608A3E09608B2
:1013A300A3E09608A3E09622C008C3E096F50808D8
:1013B300A3E096420808A3E096420808A3E09645F6
:1013C300087001D3D00822080808EAC0E0EBC0E0A7
:1013D30086F0E7A4FA180986F0E7A42AFA18098622
:1013E300F0E7A42AFA180986F0E7A42AFA1986F086
:1013F300E7A4FBE5F02AFA190886F0E7A42BFBE53E
:10140300F03AFA190886F0E7A42BFBE5F03AFA184C
:10141300180986F0E7A4C5F02BFBE43AFA1908E7AC
:10142300C5F0C6A426F6E5F03BFBE43AFA1886F0CD
:10143300E7A4F6E5F00826F6E43B08F6E43A08F6F6
:10144300D0E0FBD0E0FA22E4CFC0E0E4CEC0E0E499
:10145300CDC0E0E4CCC0E075F020C3E633F608E687
:1014630033F608E633F608E633F6181818EC33FCBF
:10147300ED33FDEE33FEEF33FFC3EC9709ED970930
:10148300EE9709EF97191919400FFFEC97FC09ED37
:1014930097FD09EE97FE191906D5F0BEECF709ED95
:1014A300F709EEF709EFF7191919D0E0FCD0E0FDC1
:1014B300D0E0FED0E0FF226016080808C6C313C6BA
:1014C30018C613C618C613C618C613C6D5E0EA2233
:1014D3007009080808226016181818C6C333C6080E
:1014E300C633C608C633C608C633C6D5E0EA22E605
:1014F30027F60809E637F60809E637F60809E63756
:10150300F622E026F608A3E036F608A3E036F6084E
:10151300A3E036F622E026F008A3E036F008A3E0C5
:1015230036F008A3E036F022C3E697F60809E697FB
:10153300F60809E697F60809E697F622C3E096F05F
:1015430008A3E096F008A3E096F008A3E096F02243
:10155300E056F608A3E056F608A3E056F608A3E023
:1015630056F622E056F008A3E056F008A3E056F042
:1015730008A3E056F022E0F608A3E0F608A3E0F69D
:1015830008A3E0F622E6F008A3E6F008A3E6F008D5
:10159300A3E6F022E0FAA3E0FBA3E0FCA3E0FD2234
:1015A300EAF0A3EBF0A3ECF0A3EDF022CAC0E0E66F
:1015B300F0A308DAFAD0E0FA22CAC0E0E0A3C582B9
:1015C300CCC582C583CDC583F0A3C582CCC582C5F6
:1015D30083CDC583DAE6D0E0CA22C3E498F8E49960
:1015E300F912161E8026C3E49AFAE49BFBE920E76E
:1015F300E912161EE498F8E499F922C3E498F8E492
:1016030099F912161EE498F8E499F9C3E49AFAE4F6
:101613009BFB22EB20E7CFE920E7E0B90010BB00FA
:1016230008E88AF084F8AAF022E4FBC8FA22EB70F7
:10163300227B10C833C8C933C9335007C39AC3DBED
:10164300F280069A50012ADBEAC833F4C8C933F49E
:10165300C9FA2275F008E4C833C8C933C933C99A33
:10166300C99B5004C92AC93BD5F0ECFBC833F4C865
:10167300E4C9FA22600D08C6A2E713C618C613C64A
:10168300D5E0F322600C08C6C313C618C613C6D52B
:10169300E0F422700422600D18C6C333C608C633B3
:1016A300C6D5E0F41822251810AF08F51840021526
:1016B300198008F51840021519D2AF22C0D0251899
:1016C30010AF08F518500205198008F518500205E7
:1016D30019D2AFD0D0222518F58210AF08F51840E3
:1016E3000215198008F51840021519D2AF85198320
:1016F300222518F582E43519F58322E4732518C5EC
:1017030082C0E0E51934FFC583C0E0E518C39582C4
:1017130024F810AF088583198582188008858319FA
:10172300858218D2AFCEF0A3E520F0A37808E608AF
:10173300F0A3DEFAEFF0A3E58124FAF8E608F0A3BC
:10174300E608F0A3E608F0A30808E608F0A3E60815
:10175300F0A315811581D0E0FED0E0F81581158145
:101763001581E8C0E0EEC0E0222518C582C0E0E59F
:101773001934FFC583C0E0E518C3958224F910AF7F
:10178300088583198582188008858319858218D274
:10179300AFCEF0A3E520F0A37808E608F0A3DEFAC5
:1017A300EFF0A3E58124FBF8E608F0A3E608F0A335
:1017B3000808E608F0A3E608F0A315811581D0E038
:1017C300FED0E0F815811581E8C0E0EEC0E0228587
:1017D3001983851882E0A3FEE0A3F5207808E0A32F
:1017E300F608DFFAE0A3FFE0A3C0E0E0A3C0E0E077
:1017F300A3C0E0E0A3C0E0E0A3C0E010AF0885828F
:10180300188583198008858218858319D2AFD08300
:10181300D082020135851983851882E0A3FEE0A3F7
:10182300F5207808E0A3F608DFFAE0A3FFE0A3C001
:10183300E0E0A3C0E0E0A3C0E0E0A3C0E010AF0895
:101843008582188583198008858218858319D2AF0C
:10185300D083D08222C0D02518C582C0E0E51934D8
:10186300FFC583C0E0E518C3958224F310AF088554
:1018730083198582188008858319858218D2AFC899
:10188300F0A3E9F0A3EAF0A3EBF0A37908E709F0EA
:10189300A3D8FAECF0A3EDF0A3EEF0A3EFF0A3D0FE
:1018A300E0F0A3D0E0F0A3D0E0F0A3E520F0A3E5BF
:1018B300F0F0A322851983851882E0C0E0A3E0F944
:1018C300A3E0FAA3E0FBA37808E0F608A3DFFAE0BD
:1018D300FCA3E0FDA3E0FEA3E0FFA3E0C0E0A3E0E0
:1018E300C0E0A3E0F5D0A3E0F520A3E0A3F5F0105A
:1018F300AF08858319858218800885831985821826
:10190300D2AFD082D083D0E0F8D0E0327404800626
:10191300740280027401C0E0F4041216D9D0E012FC
:1019230015AF227404800474028000CCC0E0EDC0C3
:10193300E0E518C39CCCAD1950011D10AF068C18FF
:101943008D1980068C188D19D2AF1215BCD0E0FD0D
:10195300D0E0FC22D083D082E9C0E0E493A3C38625
:10196300F0C5F095F0F908E493A386F0C5F095F07F
:10197300700BE493A3C3994005E9048002A3E475C3
:10198300F002A42582F582E5F03583F583D0E0F9F2
:10199300E493A3C0E0E493C0E022D083D082ECC000
:1019A300E0EDC0E0E493A3FCE493A3FDED4C600DF4
:1019B3001219E9EC24FFFCED34FFFD80EFE493A35F
:1019C300FCE493A3FDED4C600D121A28EC24FFFCFC
:1019D300ED34FFFD80EFD0E0FDD0E0FCE493A3C045
:1019E300E0E493C0E022C0E0C3E49396087401935B
:1019F3009618400FE4936670080874019366187094
:101A0300007019A3A3C3E49396087401939618A3D3
:101A1300A3400DD0E0D0E0D0E00219D9A3A3A3A343
:101A2300A3A3D0E022C0E0C0F088F0E4936670087E
:101A33000874019366187000A8F0A3A3700BD0F08C
:101A4300D0E0D0E0D0E00219D9A3A3D0F0D0E022B7
:101A540074F512176CEAFEEBFFEE2434F8EF340051
:101A6400F988088909EE2435F582EF3400F583E01E
:101A7400F8EE2437F582EF3400F583E0F50AEC85BF
:101A84000AF0A4FCAAF0850AF0EDA42AFDE82CF8DB
:101A9400E43DF97A257B0012161EEA850882850941
:101AA40083F05407F87401B800028004C333D8FCEF
:101AB400C0E0E0131313541FF8EE28F8EF3400F9D4
:101AC400E8245DF582E93400F583D0E0F8E058605D
:101AD40008EE2434F582EF801EEE2436F582EF34CE
:101AE40000F583E0F5F0EA84A8F0EE28F8EF34007E
:101AF400F9E82438F582E93400F583E0F97F04023B
:101B0400181874F512176CEAFEEBFFEE2434F58214
:101B1400EF3400F583E0C0E0EE2435F582EF3400C5
:101B2400F583D0E0F08E828F83A3A3A3A3A3A3A302
:101B3400C082C0838E828F83A3A3A3A3A3E0F8A350
:101B4400E0F9D083D082E0C398F508A3E099F509C1
:101B5400EE2480F582EF3400F583E064017069EED1
:101B64002481F582EF3400F583E0F8A3E0F98E8256
:101B74008F83A3A3A3A3A3A3A3E0FCA3E0FD8E826E
:101B84008F83A3A3A3A3A3E0FAA3E0FBC3EA9CEB84
:101B94009D5027C3EC98ED99402EC3EA98EB9950D9
:101BA400277CFD7D04EEFAEFFB120B84EE2480F516
:101BB40082EF3400F583E4F0800EC3EA98EB994099
:101BC400E0C3EC98ED9950D9EE2434F8EF3400F9E1
:101BD400E8FCE9FDEE2435F582EF3400F583E0F806
:101BE400EE2437F582EF3400F583E0F50AE5088545
:101BF4000AF0A4F508AAF0850AF0E509A42AF50973
:101C0400E82508F8E43509F97A257B0012161EEA5E
:101C14008C828D83F05407F87401B800028004C3E9
:101C240033D8FCC0E0E0131313541FF8EE28F8EF88
:101C34003400F9E8245DF582E93400F583D0E0F856
:101C4400E0586008EE2434F582EF801EEE2436F569
:101C540082EF3400F583E0F5F0EA84A8F0EE28F88A
:101C6400EF3400F9E82438F582E93400F583E0F92B
:101C7400122501021B01C082C08385188285198345
:101C8400E0F8A3E0F9C3EA9CEB9D5012C3EC98ED95
:101C9400994019C3EA98EB99501279018010C3EA6C
:101CA40098EB9940F5C3EC98ED9950EE7900D08308
:101CB400D08222EAC39CFAEB9DFB22008521878512
:101CC40022C622C0E0C0D0E8C0E0E9C0E0EAC0E03B
:101CD400EBC0E0ECC0E0EDC0E0C008C009C00AC041
:101CE4000BC082C083C0F0759B00906182E0A2E6C5
:101CF4004003021DA5E591A2E64003021DA57591CE
:101D0400BF9003C2E064057008120CBC120CC880BA
:101D140003120CC2752100120D22E99003C3F0795D
:101D240000120D16120AFA7A017B009003C1E0F941
:101D3400120FEC907803E064426003021DEE9005FC
:101D44005FE014F06003021DEEC2AF121D52007872
:101D54002AD0E0F618D0E0F6E59F5407F970059014
:101D6400843780039084337808121579E9C4C0E07D
:101D74007829E65508F50808E65509F509740B783D
:101D840008121687D0E02508F8906270E0A2E740B8
:101D9400F8E8C333906272F0906270E0D2E0F080B1
:101DA40049E0A2E55024E591A2E5501E7591DF902B
:101DB40003C2E0640D70139003E4E004F06428703F
:101DC40002E4F07A00E0F9120D94906181E0A2E35C
:101DD4005009E5E9A2E3500375E9F7A3E0A2E7504F
:101DE40009E591A2E7500375917FD0F0D083D082AA
:101DF400D00BD00AD009D008D0E0FDD0E0FCD0E070
:101E0400FBD0E0FAD0E0F9D0E0F8D0D0D0E032C096
:101E1400E0C0D0C082C083906183E0A2E05009E5B5
:101E2400BFA2E0500375BFFEE0A2E15009E5BFA2E6
:101E3400E1500375BFFDE0A2E25009E5BFA2E25004
:101E44000375BFFBE0A2E35009E5BFA2E3500375AD
:101E5400BFF7E0A2E45009E5BFA2E4500375BFEF69
:101E6400E0A2E55009E5BFA2E5500375BFDFE0A29B
:101E7400E65009E5BFA2E6500375BFBFD083D08208
:101E84008088C0E0C0D0E8C0E0E9C0E0EAC0E0EB90
:101E9400C0E0ECC0E0EDC0E0C0F0E5A7A2E6500F62
:101EA400E5A1A2E6500953A7BF75A1BF121EEBE539
:101EB400A7A2E5500CE5A1A2E5500653A7DF75A142
:101EC400DFE5A7A2E15009E5A1A2E1500375A1FD58
:101ED400E5A7A2E2500CE5A1A2E2500653A7FB75C8
:101EE400A1FBD0F0021DFC74F812176C752101904F
:101EF40003C2E064067015120C508A828B83A3A37C
:101F0400A3A3A3A3E0FAA3E0FB120CAAA2AFE433B9
:101F1400FED2AF9003C8E0640170187A207B009071
:101F240003C1E0F91210767A207B009003C1E0F936
:101F3400120FF2906182E0D2E6F090055EE060213B
:101F440085C62280169003C7E064017008E5C65474
:101F5400F84405F5C653BEFC121CC074016521602B
:101F6400E4EEA2E092AF7F01021818008E238F24C2
:101F7400858228858327851882851983E0CEA3E08E
:101F8400CF852882852783EBC9EAC8EDCBECCA75D7
:101F9400F010C3E833C8E933C9EA33CAEB33CBC31F
:101FA400EA9EF526EB9FF525B35004AB25AA26EC53
:101FB40033CCED33CDD5F0DAAE23AF242274EB125B
:101FC400176C74FA1216A98A088B098C148D159053
:101FD40003C2E024F7C3940550069083FB02212337
:101FE400120C508A0A8B0BAE0AAF0BEE4F70030231
:101FF4002120AC08AD09851882851983AA82AB8398
:10200400120CDA8E828F83A3A37808121579908438
:102014001B7808121553851882851983780C1215BC
:102024007990841B780C1215537808790C12138B51
:10203400501F7808790C12152B9083D77808121347
:10204400AB4047850810850911850A12850B13805A
:1020540041850C10850D11850E12850F13781079AA
:102064000812152B9083D778101213AB501C7510DF
:10207400007511007512007513017810790C121592
:102084002B781079081214F280089083FB781012D0
:102094001579740978101214D39083DB780812151B
:1020A400797810790812144A8E828F83A3A3A3A38C
:1020B400A3A3E0F8A3E0F97AD07B0312161E8808E4
:1020C4008909E4F50AF50B781079081214F27404FE
:1020D4001216F4E0F8A3E0F97AD07B0312161EE896
:1020E400FA8A08E4F5097810790812138B500778F6
:1020F40010790812152B9003C2E06408600AE064AA
:10210400066005E06405701C9083D378101213AB4D
:1021140050129083CF781012150580089083EF78C1
:102124001012157985148285158378101215887418
:10213400061216BF7F0E02181874F712176C120CD1
:10214400EC90055CE064017010906245E4F0A3F04B
:1021540053F4F343FE0C5390F3120C98E5C65480E9
:102164004449F5C6E59E547F644970F890618574CE
:102174000FF090055AE0F47002A3E0604E90055B06
:10218400E0600814601B14602E8040750801750916
:102194000090055AE07808121696E508F4528080FB
:1021A4002A75080175090090055AE07808121696F8
:1021B400E508F45290801475080175090090055AD9
:1021C400E07808121696E508F452A079007F02021E
:1021D400181874F712176CE9FEEAFF74016E700C9C
:1021E4007A807B009003C1E0F9120FEC902574E42F
:1021F40093F46008E493F9120AEE800953C680E56B
:102204009E547F70FA120C9E90055CE0640170038A
:10221400120B0690055AE0F47002A3E0604B90059F
:102224005BE0600814601A14602C803D7508017529
:10223400090090055AE07808121696E50842808055
:102244002875080175090090055AE0780812169659
:10225400E5084290801375080175090090055AE05D
:102264007808121696E50842A0120CEC120C508A5B
:10227400088B09A808A909E8496015E5E170FCE89C
:102284002414F582E93400F583E0F46003E0F5E119
:1022940074016F700A7A019003C1E0F912104002D0
:1022A40021D174F112176C8A088B098C0A8D0B7476
:1022B4000F1216F4780C12157990841B78081215F5
:1022C4005390841B780C1215537808790C12138BD5
:1022D40050157808790C12152B9083D778081213AF
:1022E400AB401579018013780C790812152B908373
:1022F400D7780C1213AB40EB79007F0802181874DE
:10230400ED12176C8A088B098C0A8D0B7413121644
:10231400F4780C12157990841B7808121553908464
:102324001B780C121553780C790812138B40117812
:1023340008790C12152BAA08AB09AC0AAD0B802244
:102344007510007511007512007513017810790C61
:1023540012152B781079081214F2AA10AB11AC12D2
:10236400AD137F0C02181890841B78081215798A13
:10237400828B8378081215667F0402181874F5128C
:10238400176C8C828D8378081215798A828B8378F6
:102394000812153FEA2404F8EB3400F98C828D838B
:1023A400A3A3A3A3E0FCA3E0FD88828983C3E09CEC
:1023B400F0A3E09DF088828983C3E09420A3E09495
:1023C4004E402290844B78081215798A828B837848
:1023D400081215188A828B83A3A3A3A3E02420F0F8
:1023E400A3E0344EF0808074F512176CE9FE90057A
:1023F40014E0FAA3E0FBEEC333F8E433F974E928FC
:10240400F582748239F583E02AF508A3E03BF509E7
:102414007808121913908447121597121F707402CA
:102424001216BF8A088B098C0A8D0B741078081257
:1024340014BAAA08AB097F0402181874F112176CB5
:102444008A0C8B0D8C0E8D0F740F1216F4E0FAA308
:10245400E0FB74111216F4E0F508A3E0F509741317
:102464001216F4E0FEA3E0FF7808121913EA24011F
:10247400F508EB3400F509E4F50AF50B780C790856
:102484001213CA90844F7808121579780C790812BF
:1024940013CAAA0CAB0DAC0EAD0F121F707402124E
:1024A40016BF8B09EA450960047A0180027A00ECC0
:1024B4002AFCED3400FDECF8EDF97A717B0212167A
:1024C4001E88088909E4F50AF50B8E828F83780843
:1024D400121588ECF8EDF97A717B0212161E8A083F
:1024E4008B09740578081216968E828F83A3A3A392
:1024F400A3E508F0A3E509F07F08021818C082C01C
:1025040083E9906000F0D083D08222C0E074F2129C
:102514001858A2AFE433FED2AFE589A2E15003120A
:1025240011C6758900C2C5751A00EEA2E092AF7F8C
:10253400010218B7C0E074F2121858A2AFE433FED7
:10254400D2AFE58BA2E050031211C6758B00C2E82E
:1025540080D5C0E0C0D0E8C0E0E5A8D2AFC2C7755E
:0E2564001A00A2E792AFD0E0F8D0D0D0E0325B
:10257400FFFFFFFFFFFFFFFFC082C083E99009F365
:10258400F002280074F7121700E99002E0F07C18BA
:102594007D037AFF7BFF1208249002E174FFF0A30D
:1025A400F0A3E4F0A3F079051207AC9002E0E0F99F
:1025B4001206D47A427B08120A0402350E74F4120D
:1025C40017008A088B09EB548060309002E0E0F930
:1025D400120FD48A0A8B0BAE0AAF0BEE4F60138E28
:1025E400828F83E064B070031207C4EEFAEFFB122B
:1025F4000FC2AA08E5096480FB80047A007B00020C
:1026040027CF74F212170074FC1216A9EAFEEBFF2E
:1026140074121216F41239F5EE4F70030226A974DF
:10262400021216F4EEF0A3EF122A0AECF0A3ED1254
:102634002A0AAA82AB831206CEE9F50A706AE50873
:10264400450960648E828F831239DBEE4F60567ABF
:10265400067B001210288A0C8B0DA80CA90DE849E2
:102664007005750A13804188828983E41226B6EEC8
:10267400F0A3EF123A06E508F0A3E509F09002E6AC
:1026840012273D9002E670051234B8801B1234A65E
:102694008003EAFCEBFD8C828D8312273D70F38C62
:1026A400828D8380E3750A02A90A74041216BF029C
:1026B4003BF5F0A31239ACA32274F2121700890A75
:1026C400E975F017A4FEAFF09002E5E4F09002E3A0
:1026D40012273D600A12102E9002E3E4F0A3F0EEFC
:1026E400FAEFFB1210288A088B09EA4509602FEEDD
:1026F400FCEFFD7900120FAA9002E3E508F0A3E5D0
:1027040009F07B008008122727E4F0A3F00BEBC349
:10271400950A40F2E50A9002E5F079008002791307
:10272400023BF5EB75F017A4F8A9F09002E3E0285A
:10273400FAA3E0398A82F5832212314AEA4B2274E1
:10274400F4121700740C1216F41239D0FEE9FF7556
:102754000800750900800CE5082401F508E5093432
:1027640000F509C3E5089CE5099D503285080A85F2
:10277400090B7403780A121696EA250AF8EB350B4E
:10278400F988828983A3A3A3A3A3A312358DEE653D
:102794000A7003EF650B70BFE8FAE9FB80047A0066
:1027A4007B00802774F41217007900EAA2E0501B22
:1027B4007508AE75098378081219137C047D007AB4
:1027C400F57B091207A674021216BF7F040217D202
:1027D400C082C0839002E6122807601C8882898325
:1027E400A3A3E06A7003A3E06B8882898370E8A3E3
:1027F400A3A3A312314680047A007B00D083D08245
:10280400020135123CDBE8492274EE12170074FC15
:102814001216A9EAFEEBFF851882851983E4F0A35A
:10282400F0EE2402123498EE24051239B3EE240497
:10283400F50EEF122DBFE024FE603924FC6046241F
:10284400FE605224FE605E24FE700302292024FEF2
:10285400700302298424FE700302299324FE70036A
:102864000229A224FC70030229B124FE7003022968
:10287400C00229FD9002FF7417F0A3E4122A121279
:10288400044C0229FD851882851983AC82AD83121C
:1028940007CA0229CD851882851983AC82AD8312BB
:1028A40007D00229CD850C08850D0974021216F48F
:1028B400AC82AD838508828509831231461206F203
:1028C4008A0C8B0DAC0CAD0DEC4D603BE4F50CF5B6
:1028D4000D780C121913750CFF750D02780C121972
:1028E40013750C00750D03780C1219137408121665
:1028F400F412192A123E571216BFE9F50C700B1286
:10290400313C120464800F750C01850882850983AB
:10291400122A001234B8850C080229D07402121647
:10292400F4AC82AD83850C82850D83122F11603C3B
:10293400850C82850D83A3A312192A7510FF7511C6
:1029440002781012191375100075110378101219FA
:102954001374081216F412192A123E571216BFE9FC
:10296400F509700B12313C12046A800F7509018558
:102974000C82850D83122A001234B8850908804C14
:10298400851882851983AC82AD831207D6803A8577
:102994001882851983AC82AD831207DC802B8518DD
:1029A40082851983AC82AD831207E2801C8518826C
:1029B400851983AC82AD831207E8800D8518828562
:1029C4001983AC82AD831207EEE9F508E5086029A6
:1029D4008E828F83A3E06414601F850E82850F832B
:1029E400E09002FF122A0A123CD79003001234B876
:1029F400E508A3122A121204460233A7123CDB850F
:102A0400188285198322F085188285198322F07C27
:102A1400FF7D02850A82850B8312314A2274EE12ED
:102A2400170074FC1216A98A0A8B0B8C0E8D0FEA00
:102A34002405F508EB3400F5097C157D0079007A4E
:102A4400FF7B02120FAAE5082402F50CE5091239EE
:102A5400B6851882851983858210858311781012B2
:102A64001913850882850983A3A3A3A3122F08122F
:102A74001913E5082405F510E5093400F51178105B
:102A8400121913850C82850D8312325D1206EC74C3
:102A9400061216BF8A108B11AE10AF11E50A24027C
:102AA400F50AE50B12349BEE4F7003022BDF8017FF
:102AB40074021216F412314688828983EAF0A3EB79
:102AC400F09002FFE004F09002FFE0C3940540039D
:102AD400022BDFE4F510F51178101219137510E8C4
:102AE40075110278101219137510E9751102781016
:102AF40012191374061216F412192A7910EEFCEF47
:102B0400FD123E591216BFE9705E8508828509835D
:102B1400A3A3A3A3A3A3A3E0F89002E8E0687048EA
:102B2400122F081219137CE97D02E5082408FAE53E
:102B3400093400FB120FA474021216BFE960298E37
:102B4400828F83A3A3A3A31231469002FFE0F51062
:102B54007402781012169674002510F582740335E9
:102B640011F583EAF0A3EBF074021216F4858210D7
:102B7400858311781012191374021216F412192A8B
:102B8400850C82850D8312316C1216BF8A108B114D
:102B9400AE10AF119002FFE0F510751100740278C9
:102BA4001012169674FF2510F874023511F98882F4
:102BB4008983A312273D7003022AABE82403080883
:102BC40008E93400F9EE4F6003022AB4888289834D
:102BD40074FFF0A3F09002FFE004F09002FFE060C5
:102BE4000A12313C1204587900800B850882850949
:102BF400831234AF790A0233A774EA12170074FE01
:102C04001216A98C128D13EA2405F50CEB123E4121
:102C14001239DF750800750900EA2402F510EB3457
:102C240000F51185188285198385820A85830B78BE
:102C34000A121913850C82850D83A3A3A3A3122D55
:102C4400D5121913E50C2405F50AE50D12349B7809
:102C54000A121913850C82850D83122DD91206ECE4
:102C640074061216BF8A0A8B0BEA450B7003022DF9
:102C74007AEA2404F50EEB122DBF1239DF8A828B17
:102C840083A3A3A3E0F985108285118312315060D8
:102C940003022D7AE4F514F515781412191375143A
:102CA400E875150278141219137514E9751502786C
:102CB4001412191374061216F412192A7913AC0A91
:102CC400AD0B851082851183123E5F1216BFE9F5A4
:102CD400096003022D7A9002E8E0F8E5087009E043
:102CE4002402900300F08014900300E0FCE8240226
:102CF400FAE43400FBEA6C7001EB707E850882AA6A
:102D040082122EFF9414122EF7506B850E82850FBB
:102D140083E0C0E074012A122DB6D0E0F0050885E6
:102D24000E82850F83A3E0C0E085080A7401250A9A
:102D3400122DB6D0E0F005089002E8122DD5121934
:102D4400137CE97D0285080A7401250A122DC91233
:102D540016BF9002E8E02508F50874FF6E7003744E
:102D6400FF6F6012EE24010EEF3400FFE508C394F8
:102D7400145003022C27E508601312315A8510827F
:102D840085118312314612045E79008014E50970BE
:102D94000375090A851282851383EEF0A3EFF0A967
:102DA4000974021216BF7F0E0217D285080C740133
:102DB400250CF58274033400F583223400F50F8565
:102DC4000E82F58322FA74033400FB120F9274020C
:102DD40022123A1522A3A3122DDF221234A6FDEEED
:102DE400FAEFFB2274EE12170074FE1216A98C0E71
:102DF4008D0FEA2405F50CEB1239B6750B00900221
:102E0400FFE4F0F50AEA2402F508EB3400F5098042
:102E1400449002FFE0FA9002E8E0F8122EFF9417C3
:102E2400122EF7400D9002FFE0F87416C39890023A
:102E3400E8F0122F081219137CE97D0274002AFAB3
:102E44007403122DCC1216BF9002E8E0F89002FF32
:102E5400E028F0050AE50C2416F582E50D122DBADA
:102E6400E0F8E50AC39850749002FFE0C39416504A
:102E74006BE50AC333F8E433F9E50C28FEE50D39B4
:102E8400FF851882851983AC82AD838E828F83126D
:102E94002F117008750B011234AB8050E4F510F556
:102EA4001178101219137510E8751102781012199F
:102EB400137510E97511027810121913740612169D
:102EC400F412192A7916850882850983123E5F1245
:102ED40016BFE9F50B7003022E1580BB7CFF7D0243
:102EE400850882850983123146120470A90B740285
:102EF4000233A9E99400C365D03322EA28F8E43404
:102F040000F9E822E0F51075110078102212339EC2
:102F14008A108B11AC10AD11EC4D2274EA1217001B
:102F240074FC1216A98A0C8B0D8C128D13EA2405DD
:102F3400F50AEB12349B750800750900E50A2402B2
:102F4400F510E50B3400F51174021216F485820EA7
:102F540085830F780E121913850A82850B83A3A328
:102F6400A3A31239BB121913E50A2405F50EE50BC8
:102F74003400F50F780E121913851082851183120F
:102F840034A11231401206EC74061216BF8A0E8B5D
:102F94000FAE0EAF0FE50C2402F50EE50D3400F56F
:102FA4000F80388882898374FFF00508122DAF746E
:102FB400FFF005089002E8E0F50C750D00780C129E
:102FC40019137CE97D0285080C7401250C122DC9A6
:102FD4001216BF9002E8E02508F508EE4F60278E30
:102FE400828F83A3A3A3E0F9850E82850F83123118
:102FF40050EE24041239B3E96027850C82850D83D1
:103004001231321234B8E508700302311812315A01
:10301400850E82850F8312314612047679000231BF
:103024002DE4F514F51578141219137514E87515B3
:103034000278141219137514E9751502781412190B
:103044001374081216F412192A7911EEFCEFFD8597
:103054000E82850F83123E5F1216BFE9F509709A3E
:10306400850882AA82EA9002E87009E024049003A9
:1030740000F08025E0F8900300E0F514E82404FC57
:10308400E43400FDEC65147001ED7081122EFF94A0
:1030940012122EF74003023011850C82850D83E055
:1030A400C0E074012A122DB6D0E0F00508850C8228
:1030B400850D83A3E0C0E0122DAFD0E012317585F9
:1030C400820C85830D780C12191374041216F412F1
:1030D400192A85108285118312316C1216BF8A0C4D
:1030E4008B0DAE0CAF0D85080C7401250CF8740320
:1030F4003400F9EE4F7003022FA7851882851983D7
:10310400E088828983123175A3E0C0E0122DAFD02C
:10311400E0022FB5E509700375090A850A82850B5B
:10312400831231321234B8A9097404022DA7123C57
:10313400DB851282851383227CFF7D02850A8285CA
:103144000B8312314A22E0FAA3E0FB2212314A1225
:1031540006DAE9F50922900300E0F5F0E508849029
:1031640002FFF07CFF7D0222122DDF1206F87404A8
:1031740022F005088518828519832274EC12170041
:1031840074FE1216A98A088B098C0E8D0FEA240589
:10319400FEEB3400FF123388EE24181239B3EA45EB
:1031A4000B700302322B12337150291232508A10E1
:1031B4008B11EA4511606B7912AC0AAD0B8508825C
:1031C4008509831231468510828511831216FEE922
:1031D400F50A7058E4F50AF50B780A1219138E8271
:1031E4008F83A3A3E0F50A780A121913EE240312BD
:1031F4003498780A1219138E828F8312325D120862
:103204001274061216BFE9F50A7021850C82850D29
:1032140083E0701F85088285098312314612047C7D
:103224008011750A0E8009750A018004E50A60039D
:103234001234AB850C82850D83E060047900800232
:10324400A90A74021216BF7F0C0217D28518828550
:10325400198312314A120800221234A6FD8508820D
:1032640085098312314A2274EE12170074FE121675
:10327400A98A088B098C0C8D0DEA2405FEEB340019
:10328400FF750E00123388EA450B700302334F12A8
:103294003371502C1232508A0E8B0FEA450F604A5C
:1032A4007912AC0AAD0B85088285098312314685F3
:1032B4000E82850F831216FEE9F50E600302335267
:1032C40085088285098312358DAA0AFB123363703F
:1032D400147AFF7BFF123363606C88828983E50A6A
:1032E400F0A3E50BF0750A008007750E0E805F05EC
:1032F4000A9002E5E0FAE50AC39A504AE50A75F035
:1033040017A4FAABF088828983A3A3E02AFAA3E086
:103314003BFB8A828B831234A1EC4D70D2750A1761
:10332400750B00780A121913EEFCEFFD120F92745C
:10333400021216BFEEFCEFFD850882850983123167
:10334400461204828014750E098003750E01123C26
:10335400D3850C82850D831234B8A90E022EF21285
:1033640007F48A108B11A810A911E84922E5082452
:1033740002F508E5093400F5098A828B83A3A3A327
:10338400E0A2E522851882851983AC82AD838E8202
:103394008F8312339E8A0A8B0B22E0FAA3E0FB127E
:1033A40006F22274041216BF7F0A0217D274EC12BA
:1033B40017008C108D11EA2405F50CEB1239B67543
:1033C4000F00EA2402F50AEB12349B850A82F58386
:1033D400123146123EE5700302348D750E00807181
:1033E400850C82850D83E06401704F8E828F83A3E8
:1033F400A312192A8E828F83A3A3A3A3E0F51275C7
:1034040013007812121913EE2405F512EF3400F5A7
:10341400137812121913123140120812740612167C
:10342400BFE9F50F6014850C82850D83E4F0123C2E
:10343400D38510828511831234B87C177D007900FE
:10344400EEFAEFFB120FAA8E828F83E4F0A3F0054D
:103454000E9002E5E0F8E50EC398501EE50E75F0F7
:1034640017A4F8A9F0850882850983A3A3123E4B0B
:103474001234A1EC4D60030233E48508828509838C
:1034840074FFF0A3F0E50F7006123140120488A90E
:103494000F02324BF50AEF3400F50B22A31234A6C7
:1034A400FD22E0FCA3E0228E828F83123CDB850E9A
:1034B40082850F83E8F0A3E9F022C082C0839002E2
:1034C400E1E06A7003A3E06B70067AE17B0280049A
:1034D4007A007B0002280074F71217007F00EF7552
:1034E400F003A4F8A9F0EC28F8ED39F9888289836F
:1034F400E06A7003A3E06B7006E8FAE9FB800B0F47
:10350400EFC3940240D87A007B007F010217D27483
:10351400F6121700123AC470067A007B008007A3E3
:10352400A3A3A3123146023B8574F2121700E9FEED
:10353400740E1216F412358D74101216F41239F535
:103544008C828D83E06402703BA3123CD78882890D
:1035540083E0F50CA3E0F9A80C74026870037429E5
:10356400697021750C02750D00780C121913780816
:10357400121913780A121913EEF912083674061286
:1035840016BF80027901023BF5E0F50AA3E0F50BD2
:103594002274E812170074FB1216A9E985188285B3
:1035A4001983F08A168B178C0E8D0F741F1216F464
:1035B4001239F574211216F412358D74231216F48F
:1035C4001239DF7510008C828D83A3A3A3E0A2E4DB
:1035D400502A741D1216F41232568A828B83E582A5
:1035E400458370030236A1790AAC0EAD0FAA16AB5F
:1035F400171216FEE9F51060030236A4850E8285C3
:103604000F83E06402600302395AA3123CD7850891
:1036140082850983A3858212858313E50E2406F52A
:103624000CE50F1239B688828983E0FAA3E0F9EA3F
:103634002400F514E439F515781412199D010000DD
:1036440028012869360700022840370328B03600CD
:10365400296A38012992380229393803296A380439
:1036640029FB385A39EE4F703E850C82850D831242
:1036740039D0FAE9FB8A828B83E0850A82850B8341
:10368400123A0C1219138A828B83A31234A6FDAA50
:1036940008AB09120F9274021216BF800375100E44
:1036A400A9107405023E3975100B80F4EE4F70F7C3
:1036B400850A82850B837401F01239E585088285B9
:1036C4000983F07C007D00850E82850F83A3A3A36C
:1036D400A3E02401FAA3E03400FB1206F2EA4B60F3
:1036E400418A828B83E02402F8850A82850B83E079
:1036F40028F0EA2404F8EB3400F988828983E08511
:103704001282851383123A1E123A0C1219138A82FA
:103714008B831234A0E5082403FAE5093400FB0284
:103724003697850A82850B83E02404F07C047D00AF
:103734007900AA12AB13120FAA0236A4EE4F60034B
:103744000236AB1239E5FEA3E0FF850A82850B83BE
:103754007404F0EE850882850983F0EF8512828572
:103764001383F074031216F4AC82AD83EEFAEFFB0C
:10377400123AB270030238168A828B83A3A31239D9
:10378400DB74011216F485820E85830F780E1219EC
:103794001374051216F412192A7CFF7DFF1206F821
:1037A40074041216BF8B0FEA450F7033850C8285A3
:1037B4000D831239BB121913850C82850D83A31254
:1037C400192A7C027D007A937B84120524740412E6
:1037D40016BFE9700A74011216F474FFF0A3F08E98
:1037E400828F83E064027034750C02750D00780CCE
:1037F4001219138E828F831234A0E5082404FAE58B
:1038040009122DCC1216BF850A82850B83E024028F
:10381400800974011216F4EEF0A3EFF0740112168D
:10382400F41239CCF074011216F4A31239C4A3A310
:10383400A3F00236A4EE4F60030236AB850C8285FA
:103844000D831234A1AA16AB1712082A850A8285A1
:103854000B837402F0EA850882850983F08512825D
:10386400851383EB80CBEE4F60030236AB1239E550
:10387400F8A3E0F9850A82850B837402F0E88508D1
:1038840082850983F0E985128285138380A3850CE0
:1038940082850D83123146120F8CEAFC8C82A88239
:1038A400C39EE49F404BE86E7001EF70047C00807F
:1038B4001F851882851983E0FAEE2AFAEF3400FB9B
:1038C400C3EA98EB94005003E08004EECCC39CFC64
:1038D400EC850A82850B83F08C0A750B00780A123A
:1038E4001913850C82850D83E02EFCA3E03F02367C
:1038F400927510070236A4EE4F60030236AB850CB6
:1039040082850D83123CD7850A82850B837407F068
:10391400888289831239C41239ACE08512828513F6
:1039240083F0E82402FAE93400FB8A828B8312399B
:10393400C41239FD1239CCA3123A061239D5F0E873
:103944002405F8E93400F9888289831239D5A31251
:103954003A1EA3023832741D1216F4123ABD7003D3
:103964000236A1123CD7880C890DE8450D7003027C
:1039740036A18E108F117810121913780A121913A8
:10398400780812191374061216F4E0F9AC0EAD0F90
:10399400AA16AB17850C82850D831216FE740612C7
:1039A40016BFE9F5100236A4F088828983A322F5B4
:1039B4000CEF3400F50D22E0F50E750F00780E22A1
:1039C400E085088285098322123A2522123CDBE82D
:1039D40022123A25A3A322A3A3A3A3E0FEA3E0FFFC
:1039E40022850C82850D83E0F8A3E0F5838882E0CC
:1039F40022E0F508A3E0F50922A3A3F08A828B83D1
:103A0400A3221226B8A3A322F08A828B83123A152A
:103A140022E0F50A750B00780A221239AC123A2515
:103A240022E0850882850983A3A32274EE1217007D
:103A340074FE1216A98A0A8B0BECFAEDFB741412AD
:103A440016F4E0F510A3E0F51174161216F4E0FE76
:103A540074181216F4E0F50EA3E0F50F85188285AC
:103A64001983AC82AD83123AB2603E8518828519FF
:103A740083123ABD602FA3A31239F5E50845096006
:103A840024780E1219137810121913EEF9AC0CAD38
:103A94000DAA0AAB0B8508828509831216FE7404ED
:103AA4001216BF8006790E80027901022EF21206E8
:103AB400F28A0C8B0DEA450D2212314A123AC422C5
:103AC4001207BE8A828B83E58245832274F612171D
:103AD4000074FE1216A9740C1216F41239D085184B
:103AE40082851983F074011216F4E9F0E4F508F5FF
:103AF4000978081219137508027808121913740446
:103B04001216F4858208858309780812191312089D
:103B14001274061216BF74021216BF806474F71270
:103B24001700EAFEEBFF89087C187D0312082AEAD5
:103B34005402600BA908EEFAEFFB1206E680027944
:103B44000102350E74F612170074FF6A700374FFD5
:103B54006B701C7B00EB75F003A4F8A9F0EC28F85B
:103B6400ED39F9123B8A0BEBC39402501480E61230
:103B740007FA8A088B09A808A909E8496003123BD7
:103B84008A7F020217D28882898374FF1226B6E4E0
:103B9400F02274F61217001207FA8A828B83E582E8
:103BA40045836006A3A3E0FA80027A007B0080D1FB
:103BB40074F21217008A088B09ECFEEDFF740E12E2
:103BC40016F4E0F50A123BFA701CEEFCEFFD7AFFE6
:103BD4007BFF123BFA70047911801688828983E591
:103BE40008F0A3E509F088828983A3A3E50AF079A4
:103BF400007F060217D21207FA8A0C8B0DA80CA9B3
:103C04000DE8492274EE121700EAFEEBFF8C088DD2
:103C140009890C74121216F4123CD774141216F497
:103C24001234A174161216F4123146750D00EC4DBF
:103C34006003023CCB7402650C6003023CC68882BC
:103C440089831234A6F9EC2400F50EE439F50FEA61
:103C5400F4F8EBF4F9EC58F8E50F59F9E849705D1C
:103C6400E5082406F8E5093400F9880A890B8882F6
:103C7400F583122DDB12082A8A108B11E50E6510CC
:103C84007004E50F65116042780E121913850A82DB
:103C9400850B83122DDB12083074021216BFE9F56E
:103CA4000D7027780E121913850882850983A3A342
:103CB400122DD912084874021216BF800D750D809A
:103CC4008008750D0D8003750D0BA90D0233AC8EA4
:103CD400828F83123CDB22E0F8A3E0F92274E8121D
:103CE400170074E71216A9851882851983EAF0A3D0
:103CF400EBF08C168D17890E74311216F4E0F51260
:103D0400A3E0F51374331216F4E0F514A3E0F515EB
:103D140074351216F4E0F50F750800750900E5090D
:103D240075F003A4F8A9F0851882851983123E4B17
:103D3400E0F47003A3E0F47003023E29EE2402F5DC
:103D44000CEF123E41E07003023E2985160A8517E6
:103D54000B780A121913AC14AD15AA12AB1312077F
:103D6400B274021216BF8A0A8B0BEA450B70030267
:103D74003E29E4F510F51178101219137406121681
:103D8400F4858210858311781012191374091216A0
:103D9400F485821085831178101219138512828597
:103DA4001383A3A3A3A312192A7914AC0AAD0B8E0F
:103DB400828F83123E5F1216BFE97069850A82857D
:103DC4000B83A3A3A3A3123CD774021216F41234D8
:103DD400B8850C82850D83E0A2E05018A90E740208
:103DE4001216F4AC82AD838E828F83123146120791
:103DF4000AE94208850C82850D83E0A2E15026E59C
:103E04000FF50A780A121917A90E74031216F4ACE6
:103E140082AD838E828F831231461207047401129D
:103E240016BFE942080509E509C394025003023D9F
:103E340022A90874191216BF7F100217D23400F594
:103E44000D850C82F58322E028FEA3E039FF8E82E3
:103E54008F83227916850A82850B8312314A1208D0
:103E64000C74082274F2121700EAFEEBFF890B743B
:103E740001650B600E7402650B70637901120A22EE
:103E8400E9705BEEFAEFFB123EE56047750A0080CD
:103E94000B7C177D007900120FAA050A9002E5E059
:103EA400F8E50AC3985021E50A75F017A4F8A9F0BB
:103EB400850882850983A3A3E028FAA3E039FB8A55
:103EC400828B8312280770C985088285098374FF51
:103ED400F0A3F07C187D03EEFAEFFB120824023BFA
:103EE400F51207F48A088B09EA45092274F21217BD
:103EF400008A088B09ECFEEDFF740E1216F41235DD
:103F04008D9009F3E0F4603D7A097B00120FBCEA5E
:103F14004B60328A828B8374B1F0A3E41239FFA31D
:103F24001239FDA3E508F0A3E509123F4CEEF0A316
:103F3400EF123F4CA3A3E50AF0A3E50BF09009F3BD
:103F4400E0F9120FC8023BF5F08A828B83A3A3A386
:103F5400A3A322C082C0839061907404F0A3744828
:103F6400F0A37402F09061807440F09061BC74031B
:103F7400F09061877419F0906265741BF090619CF5
:103F8400740DF090619A7433F0A37455F09061A0AD
:103F9400743AF090055CE064017009C2919003C624
:103FA400746780059003C67461F090257AE4939059
:103FB4006186F0902574E493F46027E493540FF839
:103FC400906185E0686012E5C654804449F5C6E511
:103FD4009E547F644970F8E8F053C680E59E547F90
:103FE40070FA7905120D76024199C082C083E954B2
:103FF4000FF9906185E0696012E5C654804449F583
:10400400C6E59E547F644970F8E9F053C680E59E86
:10401400547F70FA024199C082C083E5A8F853A87E
:104024007E906181E4F0A3F0A3F0C2BA539AFEC279
:1040340089759B00C2C275E90075910075BF007552
:10404400A91175B905906181F0A374C0F0A3E4F0DF
:10405400D2BA439A0174805842A8024199C082C0DE
:104064008374F81216A99003C4E0F8A3E0F9E849B0
:10407400700302418F9003C4E054406023790885A3
:104084001882851983AA82AB83120BDE8518828578
:104094001983AA82AB831208B49003C4E054BFF01E
:1040A400E054806010790C7A807B05120BDE90035B
:1040B400C4E0547FF0E0A2E0503190619A7433F090
:1040C400A37455F09061A0743AF090055CE064012B
:1040D4007009C2919003C6746780059003C6746129
:1040E400F01208BA9003C4E054FEF0E054026031C8
:1040F40090619A743FF0A3745AF09061A0747FF0B9
:1041040090055CE064017009D2919003C6747180DB
:10411400059003C6746AF01208BA9003C4E054FD13
:10412400F0E054046013902578E493906186F012D3
:1041340008C09003C4E054FBF0E0540860139025D9
:1041440079E493906186F01208C09003C4E054F7B8
:10415400F0E05410601390257AE493906186F01295
:1041640008C09003C4E054EFF0E05420600A120841
:10417400C09003C4E054DFF0A3E05401600D120BBF
:10418400061208C69003C5E054FEF074081216BF68
:104194008003F0A3F0D083D08202013574EC1217AF
:1041A4000074F41216A9851882851983AC82AD8334
:1041B40075838475820774041215BC90257893F472
:1041C400600302432D907808E0C394025003024335
:1041D4000D74041216F4AC82AD83758383758279F1
:1041E40074081215BC85188285198385821285830B
:1041F4001374041216F4AC82AD83750EFF750FFFB1
:104204007FFF7E00750C48750D78801574086E70FC
:10421400030242A074096E70030242A0740A6E6025
:104224007B850C82850D8378081215798C828D83A9
:10423400A909E50AC9F88810741878081214BAE5AF
:10424400104508F8C3E098A3E099850C82850D8396
:10425400780812157940188C828D837418780812A6
:1042640014BAE5104508F8E0C398F8A3E0801C747C
:104274001878081214BAE5104508FAE9FB8C828D07
:1042840083E0F8A3E0F9EAC398F8EB99F9C3E89559
:104294000EE9950F5006880E890FEEFF0EE50C24EB
:1042A40004F50CE50D3400F50DEEC3941350030230
:1042B400421074FF650E700474FF650F60238F084D
:1042C4007402780812169674482508F582747835B5
:1042D40009F5837808121579851282851383E50818
:1042E400F0EC24020C0CED3400FD8512828513835E
:1042F400A3858212858313740C1216F4E5826C7004
:1043040003E5836D60030241FE75080175090078B9
:104314000812191374021216F4AC82AD837A5E7B10
:104324000912119C74021216BF740C1216BF7F0C72
:104334000217D2C082C0839061AE7468F0A3746A1D
:10434400F090624574FBF0A304F053F4FD43FE02C5
:1043540090055C7401F09061A0E0643A90619A70F9
:10436400237433F0A37455F09061A0743AF074018F
:1043740064017009C2919003C6746780289003C6D3
:1043840074618021743FF0A3745AF09061A0747F2B
:10439400F0740164017009D2919003C674718005B0
:1043A4009003C6746A0241987F040217D2C082C087
:1043B4008390050EE06401700A900513E0600479AF
:1043C4000C80027900024199C082C08375E1F190AA
:1043D4000511E06055146008146059146051805947
:1043E400120B18900507E0F97A087B05120CF89077
:1043F4008443121597120D2E908413121597120DE3
:1044040004900512E0F9120D107901120D6A90055D
:1044140005E02416F8A3E03400F988828983743017
:10442400F0A3740BF07900024199120B1E80B412B0
:104434000B2480AF120B2A80AA791280EA74F4123A
:10444400170075D90D9004F6E0A2E0E4331313F8D5
:10445400900507E0C4333354C0484401F5D97805C6
:10446400790588828983A3A3A3E0F5D98882898307
:10447400A3A882A983E8640B7003E9640570E37858
:10448400F6790488828983A3E0F5D988828983A395
:10449400A882A983E864FC7003E9640470E575E10B
:1044A400959004F6E0F97AF77B04120CFE900A1555
:1044B40074C4F0A3740AF0A37426F0A3740CF0A3DC
:1044C4007426F0A3740CF0A37426F0A3740CF0A368
:1044D40074CAF0A3740AF0A37426F0A3740CF0A3B6
:1044E40074E2F0A3740AF0900A237426F0A3740C07
:1044F400F0A37426F0A3740CF0A37426F0A3740C38
:10450400F0A37426F0A3740CF0A37426F0A3740C27
:10451400F0A37426F0A3740CF0900505E0F8A3E072
:10452400F5838882A3A3780812157990843F7808CC
:1045340012150590841B7808121553900505E02484
:104544000EF8A3E03400F98882898378081215886C
:10455400900505E02414F8A3E03400F988828983E7
:104564007413F09003C27402F00243ACC082C0839F
:10457400900517E02407F5D9900507E0C4333354B8
:10458400C0F5D97805790588828983A3A3A3E0F5CA
:10459400D988828983A3A882A983E8640B7003E97C
:1045A400640570E3900517E0601F78057905FAE863
:1045B4002413F582E93400F583E0F5D988828983F0
:1045C400A3A882A9831AEA70E6900537E02407F5C8
:1045D400D9900507E0C4333354C04404F5D97805B1
:1045E400790588828983A3A3A3E0F5D98882898386
:1045F400A3A882A983E8640B7003E9640570E390BF
:104604000537E0601F78057905FAE82433F582E977
:104614003400F583E0F5D988828983A3A882A9832D
:104624001AEA70E675E195900A1574D0F0A3740A3D
:10463400F0A37426F0A3740CF0A37426F0A3740CF6
:10464400F0A37426F0A3740CF0A374CAF0A3740A44
:10465400F0A37426F0A3740CF0A374E2F0A3740A1C
:10466400F0900A237426F0A3740CF0A37426F0A32C
:10467400740CF0A37426F0A3740CF0A37426F0A3B6
:10468400740CF0A37426F0A3740CF0A37426F0A3A6
:10469400740CF090844B121597900505E0240EF8E5
:1046A400A3E03400F9888289831215A3900505E0FC
:1046B4002414F8A3E03400F9888289837412F090FA
:1046C40003C27401024198C082C083900517E0249C
:1046D40007F5D9900507E0C4333354C04402F5D933
:1046E4007805790588828983A3A3A3E0F5D9888214
:1046F4008983A3A882A983E8640B7003E964057025
:10470400E3900517E0601F78057905FAE82413F5AE
:1047140082E93400F583E0F5D988828983A3A882ED
:10472400A9831AEA70E675E195900A1574DCF0A382
:10473400740AF0A374DCF0A3740AF0A374DCF0A38D
:10474400740AF0A374DCF0A3740AF0A374DCF0A37D
:10475400740AF0A374DCF0A3740AF0A374E2F0A367
:10476400740AF0900A237426F0A3740CF0A3742640
:10477400F0A3740CF0A37426F0A3740CF0A37426B5
:10478400F0A3740CF0A37426F0A3740CF0A37426A5
:10479400F0A3740CF090844B121597900505E02457
:1047A4000EF8A3E03400F9888289831215A39005DA
:1047B40005E02414F8A3E03400F988828983741492
:1047C400F09003C27404024198C082C0839005171C
:1047D400E02407F5D9900507E0C4333354C04406F8
:1047E400F5D97805790588828983A3A3A3E0F5D94F
:1047F40088828983A3A882A983E8640B7003E9648F
:104804000570E3900517E0601F78057905FAE82440
:1048140013F582E93400F583E0F5D988828983A30E
:10482400A882A9831AEA70E6900537E02407F5D92F
:10483400900507E0C4333354C04404F5D9780579AE
:104844000588828983A3A3A3E0F5D988828983A3F9
:10485400A882A983E8640B7003E9640570E39005FA
:1048640037E0601F78057905FAE82433F582E934E6
:1048740000F583E0F5D988828983A3A882A9831AE5
:10488400EA70E675E195900A1574D6F0A3740AF0FF
:10489400A37426F0A3740CF0A37426F0A3740CF094
:1048A400A37426F0A3740CF0A37426F0A3740CF084
:1048B400A37426F0A3740CF0A374E2F0A3740AF0BA
:1048C400900A237426F0A3740CF0A37426F0A37446
:1048D4000CF0A37426F0A3740CF0A37426F0A37454
:1048E4000CF0A37426F0A3740CF0A37426F0A37444
:1048F4000CF090844B121597900505E0240EF8A354
:10490400E03400F9888289831215A3900505E02418
:1049140014F8A3E03400F9888289837415F09003B5
:10492400C27403024198C082C083900505E0F8A3D5
:10493400E0F5838882A3A3A3A3A3A3E4024196740E
:10494400F71217009003F0E0F875F004A4C8AAF079
:104954002AF974F228F8740339F9E82405FAE934D9
:1049640000FB8A828B83E0FCA3E0FD88828983A319
:10497400A3A3A3A3A3A3A3A3ECF0A3EDF08882892C
:1049840083A3A3A3A3A3A3A3E024FFF8A3E034FF7A
:10499400F98A828B83E8F0A3E9024BE874F71217D3
:1049A40000EAFEEBFF9061D0E06003024A7D75D916
:1049B4000E75D90375D904EE248CF582EF3400F515
:1049C40083E5822408F8E5833400F9E0F5D9A3E807
:1049D40065827003E9658370F2EE2484F582EF3416
:1049E40000F583E5822404F8E5833400F9E0F5D981
:1049F400A3E865827003E9658370F275E19579082F
:104A0400EE248CFAEF3400FB120BD27904EE2484EA
:104A1400FAEF3400FB120BD27C00EEF8EFF9ECFA5B
:104A2400C3E49AFA95E0FBEE2AFAEF3BFBEA248B07
:104A3400F582EB3400F583E0C0E0E824ABF582E9CD
:104A44003400F583D0E0F00C88828983A3A882A97E
:104A540083ECC3940840C7EE2470F582EF3400F56C
:104A640083E0F8A3E0F9EE2472F582EF3400F583D5
:104A7400E8F0A3E9F0790180027900024BE9C082F1
:104A8400C08375D90275D90375D90575E195EA24F2
:104A940070F582EB3400F583E0F8A3E0F9EA2472C0
:104AA400F582EB3400F583E8F0A3E9F079010241E3
:104AB4009974F6121700EAFEEBFF9005607406F095
:104AC40075086075090578081219137C01790312B9
:104AD4000C1A74021216BF75D90675D90375826053
:104AE400758305E0F5D9A3E58264657004E5836404
:104AF4000570F075E1959003C2E06408701EEE2421
:104B040070F582EF3400F583E0F8A3E0F9EE247247
:104B1400F582EF3400F583E8F0A3E9F07901024C63
:104B2400B574F6121700EAFEEBFF9061D0E07066F0
:104B34007801900560740BF09003C2E0640770196B
:104B440075086075090578081219137C0179031238
:104B54000C1A74021216BF7805740128F5D975D998
:104B640003758260758305E8FAE0F5D9A31AEA7043
:104B7400F875E195EE2470F582EF3400F583E0F8E2
:104B8400A3E0F9EE2472F582EF3400F583E8F0A394
:104B9400E9F0790180027900024CB574F71217002C
:104BA400EAFEEBFF75D90375D90375D90DEE24DE42
:104BB400F582EF3400F583E0F5D975E195790412B7
:104BC4000D34EE2470F582EF3400F583E0F8A3E0B1
:104BD400F9EE2472F582EF3400F583E8F0A3E9F0EE
:104BE40079018001F07F010217D274F6121700EAEE
:104BF400FEEBFF9061D0E0F87480C398FAEE248352
:104C0400F582EF3400F583E06004780480027800D4
:104C1400E8240BF8EAC3985003024CB37D099005CD
:104C240060EDF0EE24E3F8EF3400F97A617B057C63
:104C34000888828983E08A828B83F088828983A3AF
:104C4400A882A9838A828B83A3AA82AB831CEC707B
:104C5400E0EE2483F582EF3400F583E0601D7508EF
:104C64006075090578081219137C097903EEFAEFC7
:104C7400FB120C1A74021216BF7D0D74012DF5D9A6
:104C840075D9037582607583058D08E0F5D9A31580
:104C940008E50870F675E1957904120D34EE241DCB
:104CA400F582EF3400F583E4F0A3F0790180027912
:104CB400007F020217D274F6121700EAFEEBFF908F
:104CC40061D0E0F87480C398FAEE2483F582EF345F
:104CD40000F583E06004780480027800E82408F892
:104CE400EAC3985003024DBA7D06900560740CF037
:104CF4009003DFE0900561F07AE07B037862790548
:104D04007C028A828B83E088828983F08A828B8307
:104D1400A3AA82AB8388828983A3A882A9831CEC7B
:104D240070E07AE27B037C028A828B83E08882894A
:104D340083F08A828B83A3AA82AB8388828983A32C
:104D4400A882A9831CEC70E0EE2483F582EF340082
:104D5400F583E0601D75086075090578081219135C
:104D64007C067903EEFAEFFB120C1A74021216BFDA
:104D74007D0A74012DF5D975D90375826075830593
:104D84008D08E0F5D9A31508E50870F675E1957965
:104D940004120D34EE2470F582EF3400F583E0F84C
:104DA400A3E0F9EE2472F582EF3400F583E8F0A372
:104DB400E9F0790180027900024CB574F61217000B
:104DC400EAFEEBFF9061D0E0F87480C398FAEE2419
:104DD40083F582EF3400F583E06004780480027880
:104DE40000E82404F8EAC3985003024E997802902C
:104DF4000560E8F0EE24F5F582EF3400F583E090E9
:104E04000561F0EE2483F582EF3400F583E0601B46
:104E140075086075090578081219137C027903EE88
:104E2400FA120C1A74021216BF7806740128F5D906
:104E340075D9037582607583058808E0F5D9A315D3
:104E440008E50870F675E195EE2474F582EF3400F8
:104E5400F583E4F0EE2480F582EF3400F583E4F08A
:104E6400EE241DF582EF3400F583E4F0A3F0790419
:104E7400120D34EE240DF582EF3400F583E0F8A32F
:104E8400E0F9EE2472F582EF3400F583E8F0A3E94B
:104E9400F0790180027900024CB574F61217009083
:104EA40061D0E0F87480C398FCEA2483F582EB3483
:104EB40000F583E06004780480027800E82404F8B4
:104EC400ECC398405B79029005607407F0EA24F61D
:104ED400F582EB3400F583E0900561F0EA2483F574
:104EE40082EB3400F583E060187508607509057875
:104EF400081219137C0209120C1A74021216BF79D3
:104F040006740129F5D975D903758260758305E99D
:104F1400F8E0F5D9A318E870F875E19579018002F5
:104F24007900024CB574F5121700E9FCA2AFE43322
:104F3400F50AC2AF7D0080010DEA246FF582EB34DF
:104F440000F583E0F8EDC398501A8D08EA2508F8B7
:104F5400EB3400F9E8246BF582E93400F583E06C66
:104F640070D68024EA246FF8EB3400F9E0FEEA2ED0
:104F7400FAEB3400FBEA246BF582EB3400F583ECA6
:104F8400F088828983E004F0E50AA2E092AF7F030F
:104F94000217D274F6121700A2AFE433FDC2AFEACF
:104FA400246FF582EB3400F583E014F07C00603666
:104FB4008C08EA2508F8EB3400F9E8246CF582E95A
:104FC4003400F583E0C0E0E8246BF582E93400F5B1
:104FD40083D0E0F00CEA246FF582EB3400F583E033
:104FE400F8ECC39840CAEA246EF582EB3400F583EA
:104FF40074FFF0EA246AF582EB3400F583E4F0ED03
:10500400A2E092AF024CB5C082C083E5A8F8C2AF5B
:10501400EA246BF582EB3400F583E9F0EA246AF5BF
:1050240082EB3400F583E4F0E8A2E792AF02419901
:1050340074F3121700EAFEEBFFECFAEDFB8A828BA5
:1050440083A3A3A3A3E0541FF0EE2436F582EF3428
:1050540000F583E4F0F50AEEFCEFFD8A828B83E031
:10506400C0E0EC245DF582ED3400F583D0E0F0750A
:105074000B00E50A33333354F8F50C8A828B83E052
:10508400F508750900E50B7808121677E508A2E023
:10509400502FEE2436F8EF3400F988828983E0F546
:1050A40008EE2508F508EF3400F509E5082438F57D
:1050B40082E5093400F583E50CF088828983E004F5
:1050C400F0050B050CE50BC3940840AF050A8A8272
:1050D4008B83A3AA82AB838C828D83A3AC82AD83A2
:1050E400E50AC39405500302505F7F050217D2748A
:1050F400F71217009003EEE0640170077A007B005A
:1051040002526A7E009003F4E070F17401F0A3E4AB
:10511400F0A3F090045404F0900457E4F0A3F0904A
:10512400045A04F09003F7E4F0A3F0A3F0A3F09082
:10513400040104F0900427E4F09083EF1215979093
:10514400040A1215A390040EE4F0A3F0A3F0900453
:1051540072F0900466F090045B7480F0A3E4F09025
:105164000461F0900459F09004DDF0A3F0A3F0A3DF
:10517400F0A3F0A3F0A3F0A3F09004E6F09004757C
:10518400F09004C5F0A3F09083EF1215979004C734
:105194001215A39083EF1215979004CB1215A390C8
:1051A40004D1E4F09004D3F09004CFF09004E9F03B
:1051B400A3F0A3F0A3F0A3F0A3F0A3F0A3F078EE80
:1051C4007903E8246FF582E93400F58374FFF00E67
:1051D40088828983A3A882A983EEC3940440E37AD6
:1051E400EE7B0378FD790488828983E0C0E0EA24B9
:1051F40061F582EB3400F583D0E0F088828983A3E3
:10520400A882A9838A828B83A3AA82AB83E86402DF
:105214007003E9640570D07AEE7B0378D57903884E
:10522400828983A3E0C0E0EA24E7F582EB3400F549
:1052340083D0E0F088828983A3A882A9838A828BA1
:1052440083A3AA82AB83E864DD7003E9640370CFAF
:105254009003EEE004F0640170089003F6E090031C
:10526400F0F07AF27B03024BE9C082C0839003F52D
:10527400E4F09003F4F09003EEF0A3F0A374FFF0D5
:1052840075E1F1024199C082C083780079009003EE
:10529400F5E0600478F2790388828983A3A3A3A349
:1052A400E0F902419974F6121700EAFEEBFF8E82D0
:1052B4008F83A3A3A3E0600F8E828F83A3A3A3E4B1
:1052C400F09003EFE014F09003EEE014F070069019
:1052D40003F074FFF08E828F83A3A3E4F0900502A1
:1052E400E0700D9003EFE0640170057900120D1673
:1052F400EE2465F582EF3400F583E0F8A3E0F9E8E5
:10530400496029EE2465F8EF3400F9880889098892
:1053140082F583E0FCA3E0FD9003F0E0FA7B001249
:1053240008EA850882850983E4F0A3F0EEFAEFFB2E
:10533400120C4A024CB574F7121700EAFEEBFF8E0A
:10534400828F83A3A3A3A3E0FA7B0012092CEEFAB5
:10535400EFFB120B9C120C32024BE9C082C0837823
:10536400D5790388828983A3E4F088828983A3A8FA
:1053740082A983E864DD7003E9640370E69003D6D0
:105384000246C674F6121700EAFEEBFFEC2403F89B
:10539400ED3400F988088909EC2407F8ED3400F9A4
:1053A400E8FCE9FD8C828D83E0F8A3E0F9850882AE
:1053B400850983E0FAA3E0FB12161EEE240DF582A4
:1053C400EF3400F583E8F0A3E9F08C828D83E0F8F4
:1053D400A3E0F9850882850983E0FAA3E0FB1216AD
:1053E4001E8B09EA45096013EE240DF582EF3400A3
:1053F400F583E02401F0A3E03400F0024CB574F628
:10540400121700EAFEEBFFEE242EF582EF3400F5CE
:1054140083E0FCA3E0FD780079FAECFAEDFB1216C8
:105424001EEE2470F582EF3400F583E8F0A3E9F072
:10543400780079FAECFAEDFB12161E8B09EA45099D
:105444006013EE2470F582EF3400F583E02401F05C
:10545400A3E03400F0024CB574F0121700EAFEEB3E
:10546400FF74101216F47808121579120CD48A0CF1
:105474008B0D8C0E8D0F90843B780C121505908447
:105484001B780C121553780C12190F8E828F83E03F
:10549400F8A3E0F5838882A3A31215971222A674B9
:1054A400041216BFE960030255A98E828F83E0249B
:1054B40002F8A3E03400F9E8FAE9FB8A828B8378E6
:1054C4000812151890841B78081215798A828B8328
:1054D4007808121566EE240BF582EF3400F583C0CC
:1054E40082C0838E828F83A3A3A3A3A3E02401F8A5
:1054F400A3E03400F9D083D082E0687003A3E069AC
:10550400700579010255AB8E828F83A3A3A3A3A355
:10551400A3A3E02401F0A3E03400F0EE2474F582A8
:10552400EF3400F583E064017036EE2475F582EF04
:105534003400F583E0F8A3E0F98E828F83A3A3A35C
:10554400A3A3A3A3E0687003A3E0697013EE24751A
:10555400F582EF3400F583E02401F0A3E03400F099
:10556400EE2480F582EF3400F583E064017036EEBA
:105574002481F582EF3400F583E0F8A3E0F98E820C
:105584008F83A3A3A3A3A3A3A3E0687003A3E069E9
:105594007013EE2481F582EF3400F583E02401F0EA
:1055A400A3E03400F079007F080217D274F71217D1
:1055B400009003F0E0F875F004A4C8AAF02AF97486
:1055C400F228FE740339FF8028EE2465F8EF3400D6
:1055D400F988828983E0FCA3E0FD88828983E4F072
:1055E400A3F08E828F83A3A3A3A3E0FA7B00120807
:1055F400EAEE2465F582EF3400F583E0F8A3E0F9E0
:10560400E849604FEE2464F582EF3400F583E0F559
:10561400087808121917EE2463F582EF3400F58335
:10562400E0F9EE2465F582EF3400F583E0FCA3E0B5
:10563400FDEEFAEFFB120BC674011216BFE9608986
:10564400EE2465F582EF3400F583E0F8A3E0F9E891
:105654004970137C007D008E828F83A3A3A3A3E0F3
:10566400FA7B001208EA024BE974F2121700EAFE10
:10567400EBFF890A740E1216F4E0FAEE2462F58246
:10568400EF3400F583E0640160030257399061D080
:10569400E0F87480C398F50CEE2483F582EF3400AF
:1056A400F583E060047804800278008908E928F82A
:1056B400E43400F9E824020808E93400F9E50C9818
:1056C400E499A2D265D0334068EA7005750B028074
:1056D40003750B01E0603975090078081219137A13
:1056E400607B05120BFC74021216BF750860750905
:1056F400057808121913AC0AA90BEEFAEFFB120C89
:105704001A74021216BF7404250AF50A7C607D051A
:105714007401250AF5D9850BD9E50A600D8C828DB3
:1057240083F8E0F5D9A318E870F875E1957900805D
:10573400067907800279FF7F060217D2C082C083F0
:10574400E960208C828D83E08A828B83F08C828D49
:1057540083A3AC82AD838A828B83A3AA82AB831991
:10576400E970E0ECFAEDFB02419974EA121700903B
:105774007803E06442705E90055FE014F07056C2F6
:10578400AF12578800782AD0E0F618D0E0F6E59FEB
:105794005407F97005908437800390843378081295
:1057A4001579E9C4C0E07829E65508F50808E655F6
:1057B40009F509740B7808121687D0E02508F890CB
:1057C4006270E0A2E740F8E8C333906272F090623E
:1057D40070E0D2E0F09003F0E0F47003025B91E03B
:1057E400F875F004A4C8AAF02AF974F228FE740328
:1057F40039FFEE2402F582EF3401F583E0F8A3E0EB
:10580400F9E849601EEE2402F582EF3401F583E0E5
:10581400FAA3E0FBEE2401F582EF3401F583E0F90D
:10582400120FEC8E828F83A3A3A3A3A3A3A3E0F8F8
:10583400A3E0F98E828F83A3A3A3A3A3E8F0A3E933
:10584400F0906054E09003C9F0906055E09003CA72
:10585400F0906056E09003CBF0906057E09003CC5A
:10586400F0906058E09003CDF0906059E09003CE42
:10587400F090605AE09003CFF090605BE09003D02A
:10588400F090605CE0FC9003D1F090605DE0FB90F0
:1058940003D2F090605EE0FD9003D3F090605FE08F
:1058A400FA9003D4F09003CFE08C082508F8E43490
:1058B40000F98D08E82508F8E93400F98B08E82593
:1058C40008F8E93400F98A08E82508FAE93400FB05
:1058D400EE24F7F582EF3400F583E02AF0A3E03BF1
:1058E400F08C08EE24F9F582EF3400F583E0250806
:1058F400F0A3E03400F0EE24FBF582EF3400F583EE
:10590400E02401F0A3E03400F0EE24FFF582EF344C
:1059140000F583E0F8A3E0F9E8496042906000E014
:10592400C333FCE433FDE82CF582E93DF583E02A3A
:10593400F0A3E03BF0906000E0FA9003D1E0FCEAD1
:10594400C333FAE433FBE82AF8E93BF9E8244AF5DF
:1059540082E93400F583E02CF0A3E03400F09003F6
:10596400CFE070119003D2E0700BA3E07007A3E0C6
:105974007003025A718E828F83A3A3A3A3A3E0F8BA
:10598400A3E0F9EE240DF582EF3400F583E028F866
:10599400A3E039F9EE240BF582EF3400F583E8F047
:1059A400A3E9F0EE240FF582EF3400F583E4F0EE82
:1059B400241CF582EF3400F583E06401701EEE24AC
:1059C40020F582EF3400F583E0F8A3E0F9EE241D1E
:1059D400F582EF3400F583E8F0A3E9F09003CAE020
:1059E4006052EE241CF582EF3400F5837401F0EE6E
:1059F400246AF582EF3400F583E07038EE2474F500
:105A040082EF3400F583E0702BEE2480F582EF34CE
:105A140000F583E0701EEE2420F582EF3400F58358
:105A2400E0F8A3E0F9EE241DF582EF3400F583E8F5
:105A3400F0A3E9F0906062E07003025B248E828F31
:105A440083E0F8A3E0F9E82406FCE93400FDE82447
:105A540002FAE93400FB120CCE8E828F83E024120A
:105A6400F8A3E03400F988828983025B2E9003D185
:105A7400E0603AEE240FF582EF3400F583E4F0EEB3
:105A8400241CF582EF3400F583E064017040EE24B9
:105A940020F582EF3400F583E0F8A3E0F9EE241D4D
:105AA400F582EF3400F583E8F0A3E98020EE24FDCD
:105AB400F582EF3400F583E02401F0A3E03400F034
:105AC400EE241DF582EF3400F583E4F0A3F0EE2418
:105AD4000BF582EF3400F583E0F8A3E0F98E828FB2
:105AE40083A3A3A3A3A3E0687003A3E069600302F4
:105AF40059E0EE240FF582EF3400F583E060128E56
:105B0400828F83A3A3A3A3A3E064057002A3E06030
:105B14000B7908EEFAEFFB120BA28071793E80F349
:105B2400EE241DF582EF3400F583E4F0A3F09060D9
:105B340060E0C0E0EE2469F582EF3400F583D0E044
