:020000040000FA
:0600000002010A021DE3EB
:03002B000222644A
:0300330002224660
:03003B0002227D21
:030043000221FA9D
:03004B000222E7A7
:03005300021E5634
:03006B000222204E
:10008300021C97E5C754F84401F5C7790122000023
:100093000080FB120086B900030200F4E4792178A2
:1000A30008B800028004F709D8FCE479297802B87B
:1000B30000028004F709D8FCE4900281784E7909A4
:1000C3008002F0A3D8FCD9FA900ACEAA82AB83901F
:1000D300013A780579048015E493A3AC82AD838A51
:1000E300828B83F0A3AA82AB838C828D83D8E9D9D8
:1000F300E775821E7583A2740312011C75829175C4
:100103008300740012011C75D00075813F7518813E
:10011300751902759F00020096C09FF59FE473D086
:100123009F22D083D082C09FE493C0E0740193C028
:10013300E0740293F59F22FF0000B400002800281A
:1001430000283075A000A000A000A000000800084F
:10015300E001F0001000100010001000100010006B
:1001630050005000500010001000D00700000000A5
:1001730000000F00010005003075070010000100AA
:1001830081FF0000FF3C065A064206FF02020208F6
:10019300025000A0000000E803027B840100006C11
:1001A30084029984010000230B027D84010000B2C4
:1001B30002029984010000240B026F84010000C82D
:1001C30002029984010000250B027184010000CA18
:1001D30002029984010000260B027384080000CBFD
:1001E30002029984010000270B0275840100002894
:1001F3000BFF0100FF20027B84010000668402994B
:10020300840100008C0B0277840000000000027F51
:10021300840300001803180C180C180C180C180C85
:10022300180C180C180C180C180C180C180C180CAB
:10023300940EAC0E8E0EFFFF0202020202020202B5
:1002430002010D0000001001027B8401000069849B
:10025300029984010000CF0B029384010000780708
:10026300029984010000D00B028D840100003583C4
:10027300029984010000D10B028B840100002783C3
:10028300029984010000D20B02898401000082825A
:10029300029984010000D30B02878401000070825D
:1002A300029984010000D40B02858401000094822A
:1002B300029984010000D50B028384010000A68209
:1002C300029984010000D60B02A98401000019835E
:1002D300029984010000D70B028184010000D80B2E
:1002E30001E803053F10FF0001307503020106001A
:1002F30000000000000000000000000000000000FB
:100303000000000000000000000000FFFF06008066
:100313000CE803010001000100140953696D706CBE
:1003230065424C455065726970686572616C05126F
:1003330050002003020A000201060302F0FF47688F
:100343006F7374797553657269616C4170700000E5
:10035300000000F0120000F6120A43686172616344
:100363007465726973746963203100024368617252
:10037300616374657269737469632032000843684A
:100383006172616374657269737469632033001009
:10039300436861726163746572697374696320345D
:1003A300000243686172616374657269737469639F
:1003B300203500027B8401000063840299840100DC
:1003C30000F00C02A184030000AC0A028F84010038
:1003D30000F10C029984010000020D02A3840100C4
:1003E30000C00A028F84010000030D0299840100FA
:1003F30000140D02A584020000C10A028F840100CB
:1004030000150D029984010000260D02A784000047
:1004130000C20A027F84030000C30A028F84010022
:1004230000270D029984010000380D029584040011
:1004330000C90A028F84010000390D120125A1941D
:1004430003120125B89403120125E7940312012531
:100453002095031201254895031201257695031271
:1004630001258D9503120125A49503120125BA9543
:1004730003120125E19503120125F49503120125C9
:100483000A96031201251D960312012542960312B3
:10049300012511A40212012510A50212012545A56B
:1004A3000212012566A50212012576A50212012575
:1004B30097A502120125A3A60212012570A7021215
:1004C3000125E3A70212012569A802120125ACA8A0
:1004D30002120125E3A80212012569A902120125CE
:1004E3003BAA0212012599AA02120125B1AA0212FE
:1004F30001252BAB021201252EAB0212012531ABD4
:1005030002120125D8AB02120125F0AB021201251C
:1005130020AC0212012540AC021201252EAD0212BD
:100523000125E4AD021201259DE402120125C5E473
:1005330002120125F3E4021201252AE50212012524
:1005430092E502120125DBE50212012526E60212DD
:10055300012564E602120125A1E602120125CFE678
:100563000212012576E70212012580E70212012516
:100573008DE702120125C0E70212012582E802126B
:1005830001258EE802120125A6E802120125B0E832
:10059300021201250E7F001201251C7F0012012586
:1005A300347F001201254C7F00120125BBA70112E5
:1005B300012559A801120125D1A801120125E6A997
:1005C3000112012520AA01120125C9AA0112012540
:1005D3009EAB0112012502AD0112012559AD011295
:1005E3000125E0AD01120125C7AE0112012514AFAB
:1005F30001120125A2AF01120125C6AF0112012587
:100603009BB101120125DCB101120125FEB10112DA
:1006130001257FB20112012569B3011201252FB40F
:100623000112012541CE0212012513CF0212012529
:10063300BCCF02120125FFCF021201258CD002127A
:10064300012518D102120125F9D10212012528D260
:100653000212012524D3021201256CD302120125B3
:100663006ED402120125B2D402120125D8D402128B
:100673000125F99F03120125A5F902120125BBF9F2
:1006830002120125E1F90212012509FB02120125DB
:1006930013FB021201256CFC021201256CFD0212F0
:1006A3000125CDDA0212012502DC0212012535DC17
:1006B300021201257FDC021201253DDE0212012513
:1006C3005E9801120125C19801120125069A0112B3
:1006D3000125169A01120125399A01120125849ADE
:1006E30001120125299B011201251F9C01120125DD
:1006F300E99C01120125619E01120125A39E0112AD
:100703000125419F011201258E9F01120125B49FEE
:1007130001120125A2A101120125A7A101120125A0
:1007230088A301120125DCA3011201253EA40112B5
:10073300012566A4011201250AA501120125CCA5F4
:1007430001120125FDA50112012500A601120125B3
:1007530048A6011201258AA601120125F1A601125C
:10076300012576FD0212012589FD02120125A2FD54
:1007730002120125EDFD02120125C8FE0212012518
:1007830057FF02120125A2FF0212012524230012A2
:100793000125302300120125692300120125AE2310
:1007A30000120125652400120125EB240012012506
:1007B3005025001201257C2500120125B5250012C4
:1007C3000125C92700120125A52900120125902B17
:1007D30000120125C72C00120125272F0012012525
:1007E300133000120125593100120125663200121F
:1007F3000125833200120125BB3200120125D532B7
:10080300001201253D3300120125D73700120125BF
:10081300783800120125C93800120125F03800127A
:1008230001253E39001201255C3900120125B0393A
:1008330000120125893A00120125103C00120125FE
:10084300983C00120125F3DF02120125FDDF02129D
:100853000125C8E002120125E3E00212012509E1A6
:10086300021201254DE10212012585E10212012543
:10087300AEE10212012527E2021201253CE2021237
:10088300012551E20212012588E2021201259CE2B0
:1008930002120125CDE20212012507E3021201250E
:1008A30033E30212012589E302120125DDE302127B
:1008B300012526E40212012550E40212012575E404
:1008C30002120125B9F50212012583F60212012550
:1008D30066F702120125DCF7021201251EF8021247
:1008E30001254BF9021201250080021201252980FE
:1008F300021201254280021201258781021201257D
:1009030065820212012584820212012511830212DB
:100913000125548302120125A18402120125408579
:1009230002120125BF8702120125568802120125F2
:100933002A89021201250C8A02120125788B0212E0
:1009430001250B8C02120125DB9A03120125449B1E
:1009530003120125989B03120125BF9B0312012556
:1009630060FB01120125CDFB0112012518FC0112C8
:1009730001250DFD0112012509FE01120125F3FEDA
:10098300011201254FAE0212012591AE021201257B
:100993006BAF0212012544B0021201253FB10212CE
:1009A30001251EB2021201258AB20212012551B39A
:1009B30002120125BCB30212012523B40212012540
:1009C3004EB402120125BFB40212012552B5021220
:1009D3000125BBB502120125D0B50212012518B6B7
:1009E3000212012531B60212012596B60212012523
:1009F30099B602120125DC8603120125048703122E
:100A030001254287031201250088031201256B8803
:100A130003120125878803120125AF8803120125DC
:100A2300DF8803120125EE8803120125688903126A
:100A330001258E8903120125E2C401120125BFC6D7
:100A430001120125BAC8011201258DC90112012520
:100A5300D8C90112012523CA0112012535CA011281
:100A6300012575CA01120125AACA01120125F6CA78
:100A73000112012525CB0112012548CB01120125C5
:100A830095CB011201251ECC011201252BCE01129B
:100A9300012516D00112012559D001120125BED11D
:100AA30001120125FFD10112012572D20112012584
:100AB300BED201120125E9D201120125828C021254
:100AC3000125AD8C02120125949302120125B895DC
:100AD30002120125739702120125D09802120125F3
:100AE300FF3C00120125963D00120125DC3D00125A
:100AF30001251B3F00120125B240001201252C41A4
:100B030000120125474100120125BC4100120125B5
:100B1300EB4200120125464400120125484500120C
:100B23000125A54600120125BE46001201251B47DB
:100B330000120125FD47001201253048001201254E
:100B4300A048001201251A49001201256949001223
:100B53000125354A001201253A4B00120125194C93
:100B630000120125A44C00120125124D001201258B
:100B7300864D00120125AF4D001201256E4E001265
:100B83000125E84F001201250550001201252450CC
:100B930000120125B55000120125DA50001201257B
:100BA3000251001201257D5100120125D751001277
:100BB30001252B5300120125E85300120125BB54D4
:100BC3000012012513D30112012563D3011201255C
:100BD3006FD3011201254CD4011201257CD40112DB
:100BE3000125B4D40112012533D5011201256BD59A
:100BF30001120125BDD501120125FAD501120125E6
:100C03001FD8011201254BDA0112012546DC01121E
:100C1300012521DE01120125F87F00120125AD8493
:100C230001120125F78401120125D68A011201253B
:100C3300578C01120125B69201120125B1930112BD
:100C43000125EE93011201251194011201255394FC
:100C5300011201255C9401120125669401120125FC
:100C6300529501120125469601120125E9540012FD
:100C73000125615F00120125675F0012012573667C
:100C830000120125C68303120125C4840312012522
:100C93001A8503120125588503120125B585031210
:100CA30001253286031201253B860312012547865F
:100CB300031201255A860312012596860312012584
:100CC300AC860312012545E90212012552E90212FD
:100CD30001256CE902120125ABE902120125E9E9BC
:100CE300021201254EEA0212012563EA02120125CE
:100CF3006EEA021201257BEA0212012592EA021230
:100D03000125A0EA02120125ABEA02120125B7EA86
:100D130002120125C6EA02120125D1EA02120125B7
:100D2300F4EA021201259DEB02120125ADEB02123A
:100D33000125C7EB02120125E4EB0212012500ECA9
:100D43000212012525EC021201252FEC02120125C6
:100D530043EC0212012562EC02120125C3EC0212DC
:100D63000125C9EC02120125CFEC02120125D5ECB5
:100D730002120125E1EC0212012514ED02120125F4
:100D8300E7E00112012569E10112012512E20112D6
:100D930001255AE30112012568E5011201254EE6FA
:100DA3000112012583E601120125A5E601120125A1
:100DB3004EE7011201251EE90112012547E901123F
:100DC3000125BFE901120125F1E901120125FEE91F
:100DD3000112012549EA011201256DEA01120125DB
:100DE300BEEC01120125C8ED0112012524EE01120A
:100DF300012564B60112012575B70112012559B801
:100E03000112012563B80112012585B801120125DC
:100E130091B80112012535BA0112012562BA0112F6
:100E2300012578BB01120125CDBB011201251CBD93
:100E330001120125F1BD011201254DBE011201254B
:100E4300B8BE01120125EDBE0112012530BF01120A
:100E53000125FAC10112012512C201120125A3C203
:100E630001120125B1C201120125FEC201120125A1
:100E73000CC30112012578C301120125F3C301122A
:100E830001254AC401120125F3980212012515997F
:100E930002120125269B02120125E59D021201255E
:100EA3000F9F02120125CD9F02120125B9A0021244
:100EB3000125E892031201250D9303120125839363
:100EC3000312012524C7021201252DC70212012591
:100ED30036C7021201250EC802120125BFC902122C
:100EE3000125EFC9021201251ACA021201254ACAB5
:100EF3000212012575CA02120125A9CA021201258F
:100F0300D5CA0212012518CB0212012543CB0212C6
:100F130001258ACB02120125DFCB0212012521CC48
:100F2300021201257BCC02120125A6CC0212012557
:100F3300F5CC0212012525CD0212012550CD021256
:100F430001257ECD02120125A1CD0212012582A029
:100F530003120125AEA003120125DBA00312012514
:100F6300E5A003120125F5A003120125F3BE021229
:100F73000125FDBE021201253EBF0212012587BFD6
:100F830002120125C1BF0212012517C00212012559
:100F930038C002120125E7C202120125F0C2021273
:100FA300012544C3021201256DC30212012577C333
:100FB30002120125E5C30212012575C4021201259F
:100FC300D0C402120125FEC40212012586C50212F5
:100FD3000125C5C502120125FAC5021201250CC659
:100FE300021201252BC60212012534C60212012565
:100FF300F6C602120125F29C03120125F790031293
:1010030001252D9103120125619103120125AE9251
:1010130003120125FFA00312012515A103120125C7
:101023001FA10312012569A10312012591ED0212EB
:101033000125A4ED0212012568EE02120125A7EE97
:1010430002120125C4EE02120125FDEE0212012552
:101053004AEF021201257CEF02120125B3EF0212BF
:101063000125669903120125899903120125B8996F
:1010730003120125509A03120125929A03120125A6
:10108300D68903120125FB8903120125258A031240
:101093000125C8A1031201252E6B001201250C6D39
:1010A30000120125AB6E00120125566F00120125B7
:1010B300D66F001201255B700012012584700012A7
:1010C30001255F7400120125D67400120125ED7508
:1010D30000120125277600120125687600120125EA
:1010E300AF77001201250578001201254E78001212
:1010F3000125BD78001201252979001201255A79AD
:10110300001201257279001201258B7A0012012544
:101113009B7A00120125517C00120125687C001284
:1011230001259A7C001201253C7E00120125D07E08
:1011330000120125B09E03120125C19E0312012551
:10114300B5FF01120125F4FF01120125E57F00120D
:101153000125619F03120125719F03120125899FB8
:1011630003120125EF9F03120125F09B03120125B2
:10117300759C03120125D99C03120125EC970312D8
:101183000125159803120125809803120125D19892
:10119300031201252C9903120125C6F10212012520
:1011A300F3F10212012565F2021201257AF202120D
:1011B30001259BF3021201251EF40212012597F467
:1011C30002120125B6F402120125D9F402120125F7
:1011D30016F5021201252EF50212012584F50212DD
:1011E3000125EDA203120125018F031201259B8F17
:1011F300031201252C9003120125DC900312012513
:10120300EA9003120125F490031201255496031268
:101213000125A69603120125199703120125869726
:1012230003120125BA8C03120125E48C0312012554
:10123300B38D031201258F8E03120125BDB6021251
:10124300012589B702120125CAB70212012504B884
:101253000212012562B802120125B6B80212012555
:1012630014B902120125AAB902120125B2BA021257
:1012730001253CBC02120125DABC0212012541BD45
:101283000212012554BD0212012548BE0212012596
:1012930091BE0212012571EE01120125A3F1011283
:1012A300012534F3011201258BF301120125A8F363
:1012B3000112012528F401120125A4F501120125CB
:1012C30073F601120125E0F901120125CAFA011290
:1012D3000125E99D03120125349E031201255D9E1C
:1012E300031201254DD502120125E3D70212012570
:1012F3008CD802120125A7D9021201254BDA02125A
:101303000125008003120125458003120125628017
:10131300031201251D810312012579810312012581
:101323005282031201258D8303120125CCFF021281
:10133300012571A203120125A7A203120125CFA241
:1013430003E066701008A3E066700A08A3E0667005
:101353000408A3E06622C3E7960809E7960809E7AD
:10136300960809E79622C3E09608A3E09608A3E04F
:101373009608A3E09622C008C3E096F50808A3E008
:1013830096420808A3E096420808A3E09645087031
:1013930001D3D00822080808EAC0E0EBC0E086F0D9
:1013A300E7A4FA180986F0E7A42AFA180986F0E7F1
:1013B300A42AFA180986F0E7A42AFA1986F0E7A402
:1013C300FBE5F02AFA190886F0E7A42BFBE5F03ACF
:1013D300FA190886F0E7A42BFBE5F03AFA18180986
:1013E30086F0E7A4C5F02BFBE43AFA1908E7C5F049
:1013F300C6A426F6E5F03BFBE43AFA1886F0E7A428
:10140300F6E5F00826F6E43B08F6E43A08F6D0E001
:10141300FBD0E0FA22E4CFC0E0E4CEC0E0E4CDC0EC
:10142300E0E4CCC0E075F020C3E633F608E633F61B
:1014330008E633F608E633F6181818EC33FCED33F8
:10144300FDEE33FEEF33FFC3EC9709ED9709EE97FB
:1014530009EF97191919400FFFEC97FC09ED97FD58
:1014630009EE97FE191906D5F0BEECF709EDF70959
:10147300EEF709EFF7191919D0E0FCD0E0FDD0E041
:10148300FED0E0FF226016080808C6C313C618C6BC
:1014930013C618C613C618C613C6D5E0EA227009C8
:1014A300080808226016181818C6C333C608C633BE
:1014B300C608C633C608C633C6D5E0EA22E627F611
:1014C3000809E637F60809E637F60809E637F6228B
:1014D300E026F608A3E036F608A3E036F608A3E014
:1014E30036F622E026F008A3E036F008A3E036F053
:1014F30008A3E036F022C3E697F60809E697F60854
:1015030009E697F60809E697F622C3E096F008A3E2
:10151300E096F008A3E096F008A3E096F022E056E8
:10152300F608A3E056F608A3E056F608A3E056F63D
:1015330022E056F008A3E056F008A3E056F008A313
:10154300E056F022E0F608A3E0F608A3E0F608A3CD
:10155300E0F622E6F008A3E6F008A3E6F008A3E627
:10156300F022E0FAA3E0FBA3E0FCA3E0FD22EAF013
:10157300A3EBF0A3ECF0A3EDF022CAC0E0E6F0A3E6
:1015830008DAFAD0E0FA22CAC0E0E0A3C582CCC5EB
:1015930082C583CDC583F0A3C582CCC582C583CD67
:1015A300C583DAE6D0E0CA22C3E498F8E499F912D5
:1015B30015EC8026C3E49AFAE49BFBE920E7E912E1
:1015C30015ECE498F8E499F922C3E498F8E499F95E
:1015D3001215ECE498F8E499F9C3E49AFAE49BFB56
:1015E30022EB20E7CFE920E7E0B90010BB0008E8D1
:1015F3008AF084F8AAF022E4FBC8FA22EB70227B7B
:1016030010C833C8C933C9335007C39AC3DBF28048
:10161300069A50012ADBEAC833F4C8C933F4C9FA7D
:101623002275F008E4C833C8C933C933C99AC99BC2
:101633005004C92AC93BD5F0ECFBC833F4C8E4C94C
:10164300FA22600D08C6A2E713C618C613C6D5E072
:10165300F322600C08C6C313C618C613C6D5E0F43C
:1016630022700422600D18C6C333C608C633C6D51C
:10167300E0F41822251810AF08F518400215198058
:1016830008F51840021519D2AF22C0D0251810AFA3
:1016930008F518500205198008F51850020519D2EB
:1016A300AFD0D0222518F58210AF08F518400215E7
:1016B300198008F51840021519D2AF851983222520
:1016C30018F582E43519F58322E4732518C582C021
:1016D300E0E51934FFC583C0E0E518C3958224F81B
:1016E30010AF088583198582188008858319858240
:1016F30018D2AFCEF0A3E520F0A37808E608F0A354
:10170300DEFAEFF0A3E58124FAF8E608F0A3E60891
:10171300F0A3E608F0A30808E608F0A3E608F0A3A0
:1017230015811581D0E0FED0E0F815811581158172
:10173300E8C0E0EEC0E0222518C582C0E0E5193418
:10174300FFC583C0E0E518C3958224F910AF08856F
:1017530083198582188008858319858218D2AFCEB4
:10176300F0A3E520F0A37808E608F0A3DEFAEFF093
:10177300A3E58124FBF8E608F0A3E608F0A3080834
:10178300E608F0A3E608F0A315811581D0E0FED0AA
:10179300E0F815811581E8C0E0EEC0E022851983E9
:1017A300851882E0A3FEE0A3F5207808E0A3F608FD
:1017B300DFFAE0A3FFE0A3C0E0E0A3C0E0E0A3C042
:1017C300E0E0A3C0E0E0A3C0E010AF088582188585
:1017D30083198008858218858319D2AFD083D0827C
:1017E300020122851983851882E0A3FEE0A3F52078
:1017F3007808E0A3F608DFFAE0A3FFE0A3C0E0E087
:10180300A3C0E0E0A3C0E0E0A3C0E010AF0885827E
:10181300188583198008858218858319D2AFD083F0
:10182300D08222C0D02518C582C0E0E51934FFC597
:1018330083C0E0E518C3958224F310AF08858319AC
:101843008582188008858319858218D2AFC8F0A3D2
:10185300E9F0A3EAF0A3EBF0A37908E709F0A3D832
:10186300FAECF0A3EDF0A3EEF0A3EFF0A3D0E0F0D9
:10187300A3D0E0F0A3D0E0F0A3E520F0A3E5F0F0DF
:10188300A322851983851882E0C0E0A3E0F9A3E0D1
:10189300FAA3E0FBA37808E0F608A3DFFAE0FCA3D1
:1018A300E0FDA3E0FEA3E0FFA3E0C0E0A3E0C0E00F
:1018B300A3E0F5D0A3E0F520A3E0A3F5F010AF0873
:1018C3008583198582188008858319858218D2AF8C
:1018D300D082D083D0E0F8D0E03274048006740262
:1018E30080027401C0E0F4041216A7D0E012157D43
:1018F300227404800474028000CCC0E0EDC0E0E5F3
:1019030018C39CCCAD1950011D10AF068C188D194E
:1019130080068C188D19D2AF12158AD0E0FDD0E065
:10192300FC22D083D082E9C0E0E493A3C386F0C550
:10193300F095F0F908E493A386F0C5F095F0700BE9
:10194300E493A3C3994005E9048002A3E475F0027C
:10195300A42582F582E5F03583F583D0E0F9E4939D
:10196300A3C0E0E493C0E022D083D082ECC0E0EDDA
:10197300C0E0E493A3FCE493A3FDED4C600D1219C6
:10198300B7EC24FFFCED34FFFD80EFE493A3FCE40C
:1019930093A3FDED4C600D1219F6EC24FFFCED341E
:1019A300FFFD80EFD0E0FDD0E0FCE493A3C0E0E4D2
:1019B30093C0E022C0E0C3E49396087401939618A1
:1019C300400FE49366700808740193661870007002
:1019D30019A3A3C3E49396087401939618A3A34091
:1019E3000DD0E0D0E0D0E00219A7A3A3A3A3A3A343
:1019F300D0E022C0E0C0F088F0E493667008087479
:101A0300019366187000A8F0A3A3700BD0F0D0E088
:0E1A1300D0E0D0E00219A7A3A3D0F0D0E022CB
:101A240074F512173AEAFEEBFFEE2434F8EF3400B3
:101A3400F988088909EE2435F582EF3400F583E04E
:101A4400F8EE2437F582EF3400F583E0F50AEC85EF
:101A54000AF0A4FCAAF0850AF0EDA42AFDE82CF80B
:101A6400E43DF97A257B001215ECEA8508828509A4
:101A740083F05407F87401B800028004C333D8FC1F
:101A8400C0E0E0131313541FF8EE28F8EF3400F904
:101A9400E8245DF582E93400F583D0E0F8E058608D
:101AA40008EE2434F582EF801EEE2436F582EF34FE
:101AB40000F583E0F5F0EA84A8F0EE28F8EF3400AE
:101AC400F9E82438F582E93400F583E0F97F04026B
:101AD40017E674F512173AEAFEEBFFEE2434F582AA
:101AE400EF3400F583E0C0E0EE2435F582EF3400F6
:101AF400F583D0E0F08E828F83A3A3A3A3A3A3A333
:101B0400C082C0838E828F83A3A3A3A3A3E0F8A380
:101B1400E0F9D083D082E0C398F508A3E099F509F1
:101B2400EE2480F582EF3400F583E064017069EE01
:101B34002481F582EF3400F583E0F8A3E0F98E8286
:101B44008F83A3A3A3A3A3A3A3E0FCA3E0FD8E829E
:101B54008F83A3A3A3A3A3E0FAA3E0FBC3EA9CEBB4
:101B64009D5027C3EC98ED99402EC3EA98EB995009
:101B7400277CFD7D04EEFAEFFB120B76EE2480F554
:101B840082EF3400F583E4F0800EC3EA98EB9940C9
:101B9400E0C3EC98ED9950D9EE2434F8EF3400F911
:101BA400E8FCE9FDEE2435F582EF3400F583E0F836
:101BB400EE2437F582EF3400F583E0F50AE5088575
:101BC4000AF0A4F508AAF0850AF0E509A42AF509A3
:101BD400E82508F8E43509F97A257B001215ECEAC2
:101BE4008C828D83F05407F87401B800028004C31A
:101BF40033D8FCC0E0E0131313541FF8EE28F8EFB9
:101C04003400F9E8245DF582E93400F583D0E0F886
:101C1400E0586008EE2434F582EF801EEE2436F599
:101C240082EF3400F583E0F5F0EA84A8F0EE28F8BA
:101C3400EF3400F9E82438F582E93400F583E0F95B
:101C44001221EC021AD1C082C083851882851983BF
:101C5400E0F8A3E0F9C3EA9CEB9D5012C3EC98EDC5
:101C6400994019C3EA98EB99501279018010C3EA9C
:101C740098EB9940F5C3EC98ED9950EE7900D08338
:101C8400D08222EAC39CFAEB9DFB22008521878542
:101C940022C622C0E0C0D0E8C0E0E9C0E0EAC0E06B
:101CA400EBC0E0ECC0E0EDC0E0C008C009C00AC071
:101CB4000BC082C083C0F0759B00906182E0A2E6F5
:101CC4004003021D75E591A2E64003021D7575915E
:101CD400BF9003C2E064057008120CA2120CAE801F
:101CE40003120CA8752100120D02E99003C3F079C8
:101CF40000120CF6120AEC7A017B009003C1E0F9A1
:101D0400120FCC907803E064426003021DBE90057C
:101D14005FE014F06003021DBEC2AF121D22007802
:101D24002AD0E0F618D0E0F6E59F5407F970059044
:101D3400843B80039084377808121547E9C4C0E0D7
:101D44007829E65508F50808E65509F509740B786D
:101D540008121655D0E02508F8906270E0A2E7401A
:101D6400F8E8C333906272F0906270E0D2E0F080E1
:101D740049E0A2E55024E591A2E5501E7591DF905B
:101D840003C2E0640D70139003E4E004F06428706F
:101D940002E4F07A00E0F9120D74906181E0A2E3AC
:101DA4005009E5E9A2E3500375E9F7A3E0A2E7507F
:101DB40009E591A2E7500375917FD0F0D083D082DA
:101DC400D00BD00AD009D008D0E0FDD0E0FCD0E0A0
:101DD400FBD0E0FAD0E0F9D0E0F8D0D0D0E032C0C7
:101DE400E0C0D0C082C083906183E0A2E05009E5E6
:101DF400BFA2E0500375BFFEE0A2E15009E5BFA217
:101E0400E1500375BFFDE0A2E25009E5BFA2E25034
:101E14000375BFFBE0A2E35009E5BFA2E3500375DD
:101E2400BFF7E0A2E45009E5BFA2E4500375BFEF99
:101E3400E0A2E55009E5BFA2E5500375BFDFE0A2CB
:101E4400E65009E5BFA2E6500375BFBFD083D08238
:101E54008088C0E0C0D0E8C0E0E9C0E0EAC0E0EBC0
:101E6400C0E0ECC0E0EDC0E0C0F0E5A7A2E6500F92
:101E7400E5A1A2E6500953A7BF75A1BF121EBBE599
:101E8400A7A2E5500CE5A1A2E5500653A7DF75A172
:101E9400DFE5A7A2E15009E5A1A2E1500375A1FD88
:101EA400E5A7A2E2500CE5A1A2E2500653A7FB75F8
:101EB400A1FBD0F0021DCC74F812173A75210190E1
:101EC40003C2E064067015120C428A828B83A3A3BA
:101ED400A3A3A3A3E0FAA3E0FB120C90A2AFE43304
:101EE400FED2AF9003C8E0640170187A207B0090A2
:101EF40003C1E0F91210507A207B009003C1E0F98D
:101F0400120FD2906182E0D2E6F090055EE060218B
:101F140085C62280169003C7E064017008E5C654A4
:101F2400F84405F5C653BEFC121C9074016521608B
:101F3400E4EEA2E092AF7F010217E6008E238F2425
:101F4400858228858327851882851983E0CEA3E0BE
:101F5400CF852882852783EBC9EAC8EDCBECCA7507
:101F6400F010C3E833C8E933C9EA33CAEB33CBC34F
:101F7400EA9EF526EB9FF525B35004AB25AA26EC83
:101F840033CCED33CDD5F0DAAE23AF242274F11285
:101F9400173A8A088B098C0A8D0B740F1216C278B3
:101FA4000C12154790840F780812152190840F782D
:101FB4000C1215217808790C1213595015780879E8
:101FC4000C1214F99083DF78081213794015790103
:101FD4008013780C79081214F99083DF780C1213AB
:101FE4007940EB79007F080217E674ED12173A8AFC
:101FF400088B098C0A8D0B74131216C2780C1215F7
:102004004790840F780812152190840F780C1215CC
:1020140021780C790812135940117808790C12149C
:10202400F9AA08AB09AC0AAD0B8022751000751132
:10203400007512007513017810790C1214F97810D8
:1020440079081214C0AA10AB11AC12AD137F0C02A4
:1020540017E690840F78081215478A828B837808D4
:102064001215347F040217E674F512173A8C828D28
:102074008378081215478A828B83780812150DEA33
:102084002404F8EB3400F98C828D83A3A3A3A3E08A
:10209400FCA3E0FD88828983C3E09CF0A3E09DF06B
:1020A40088828983C3E09420A3E0944E40229084E4
:1020B4004F78081215478A828B8378081214E68AAF
:1020C400828B83A3A3A3A3E02420F0A3E0344EF0E7
:1020D400808074F512173AE9FE900514E0FAA3E043
:1020E400FBEEC333F8E433F974FA28F582748239C9
:1020F400F583E02AF508A3E03BF50978081218E116
:1021040090844B121565121F40740212168D8A08B2
:102114008B098C0A8D0B74107808121488AA08ABEA
:10212400097F040217E674F112173A8A0C8B0D8C9E
:102134000E8D0F740F1216C2E0FAA3E0FB74111295
:1021440016C2E0F508A3E0F50974131216C2E0FE06
:10215400A3E0FF78081218E1EA2401F508EB340043
:10216400F509E4F50AF50B780C79081213989083B5
:10217400DB7808121547780C7908121398AA0CAB6F
:102184000DAC0EAD0F121F40740212168D8B09EAAE
:10219400450960047A0180027A00EC2AFCED3400DF
:1021A400FDECF8EDF97A717B021215EC88088909C7
:1021B400E4F50AF50B8E828F837808121556ECF835
:1021C400EDF97A717B021215EC8A088B0974057893
:1021D400081216648E828F83A3A3A3A3E508F0A339
:1021E400E509F07F080217E6C082C083E990600029
:1021F400F0D083D08222C0E074F2121826A2AFE499
:1022040033FED2AFC2C0E5D1A2E4500653D1EF12DF
:102214001206EEA2E092AF7F01021885C0E074F2CC
:10222400121826A2AFE433FED2AFE589A2E150032F
:10223400121194758900C2C5EEA2E092AF7F01022B
:102244001885C0E074F2121826A2AFE433FED2AFB0
:10225400E58BA2E05003121194758B00C2E880D87C
:10226400C0E0C0D0E8C0E0E5A8D2AFC2C7A2E79200
:10227400AFD0E0F8D0D0D0E032C0E0C0D0E8C0E0C9
:10228400E9C0E0C008C009C082C083A2AFE433F94A
:10229400D2AF9009E0E0F8A3E0687008539AFBA37A
:1022A40074018026C2E99009E0E0F508740125086C
:1022B400F074602508F58274093400F583E0F5C1F3
:1022C4009009E0E0C394804002E4F0E9A2E092AF18
:1022D400D083D082D009D008D0E0F9D0E0F8D0D0B3
:1022E400D0E032C0E074F2121826E5AFFEA2E0504E
:1022F4001E900CAE1218F8900CACE0FCA3E0FD901C
:102304000CAAE0FAA3E0FB1212DE740212168DEEA0
:10231400F4F5AF7F01021885FFFFFFFFFFFFFFFF0A
:10232400C082C083E9900B8BF00225A874F71216C3
:10233400CEE99002E0F07C187D037AFF7BFF12085F
:102344001C9002E174FFF0A3F0A3E4F0A3F079057C
:102354001207A49002E0E0F91206CC7A3A7B081244
:1023640009FC0232B674F41216CE8A088B09EB54B7
:102374008060309002E0E0F9120FB48A0A8B0BAE51
:102384000AAF0BEE4F60138E828F83E064B070034C
:102394001207BCEEFAEFFB120FA2AA08E50964804B
:1023A400FB80047A007B0002257774F21216CE7447
:1023B400FC121677EAFEEBFF74121216C212379D56
:1023C400EE4F700302245174021216C2EEF0A3EF12
:1023D4001227B2ECF0A3ED1227B2AA82AB83120645
:1023E400C6E9F50A706AE508450960648E828F8340
:1023F400123783EE4F60567A067B001210088A0C5F
:102404008B0DA80CA90DE8497005750A1380418845
:10241400828983E412245EEEF0A3EF1237AEE5085E
:10242400F0A3E509F09002E61224E59002E67005B7
:10243400123260801B12324E8003EAFCEBFD8C8268
:102444008D831224E570F38C828D8380E3750A02F8
:10245400A90A740412168D02399DF0A3123754A3ED
:102464002274F21216CE890AE975F017A4FEAFF0B1
:102474009002E5E4F09002E31224E5600A12100EE3
:102484009002E3E4F0A3F0EEFAEFFB1210088A08DE
:102494008B09EA4509602FEEFCEFFD7900120F8AE3
:1024A4009002E3E508F0A3E509F07B00800812241C
:1024B400CFE4F0A3F00BEBC3950A40F2E50A9002D7
:1024C400E5F079008002791302399DEB75F017A4C9
:1024D400F8A9F09002E3E028FAA3E0398A82F583B0
:1024E40022122EF2EA4B2274F41216CE740C121637
:1024F400C2123778FEE9FF750800750900800CE503
:10250400082401F508E5093400F509C3E5089CE54C
:10251400099D503285080A85090B7403780A12163E
:1025240064EA250AF8EB350BF988828983A3A3A30F
:10253400A3A3A3123335EE650A7003EF650B70BFD6
:10254400E8FAE9FB80047A007B00802774F4121611
:10255400CE7900EAA2E0501B7508C4750983780897
:102564001218E17C047D007A8D7B0B12079E7402A5
:1025740012168D7F040217A0C082C0839002E61257
:1025840025AF601C88828983A3A3E06A7003A3E05B
:102594006B8882898370E8A3A3A3A3122EEE800420
:1025A4007A007B00D083D082020122123A83E84968
:1025B4002274EE1216CE74FC121677EAFEEBFF8537
:1025C4001882851983E4F0A3F0EE2402123240EE5F
:1025D400240512375BEE2404F50EEF122B67E0247A
:1025E400FE603924FC604624FE605224FE605E24B2
:1025F400FE70030226C824FE700302272C24FE70FA
:102604000302273B24FE700302274A24FC700302C2
:10261400275924FE70030227680227A59002FF743D
:1026240017F0A3E41227BA1204440227A5851882DE
:10263400851983AC82AD831207C20227758518827F
:10264400851983AC82AD831207C8022775850C08EF
:10265400850D0974021216C2AC82AD838508828589
:102664000983122EEE1206EA8A0C8B0DAC0CAD0D0A
:10267400EC4D603BE4F50CF50D780C1218E1750C8B
:10268400FF750D02780C1218E1750C00750D0378B6
:102694000C1218E174081216C21218F8123BFF1239
:1026A400168DE9F50C700B122EE412045C800F7584
:1026B4000C018508828509831227A8123260850CD3
:1026C4000802277874021216C2AC82AD83850C828C
:1026D400850D83122CB9603C850C82850D83A3A3E0
:1026E4001218F87510FF75110278101218E17510A0
:1026F4000075110378101218E174081216C212182A
:10270400F8123BFF12168DE9F509700B122EE41234
:102714000462800F750901850C82850D831227A838
:10272400123260850908804C851882851983AC8231
:10273400AD831207CE803A851882851983AC82ADA9
:10274400831207D4802B851882851983AC82AD83CC
:102754001207DA801C851882851983AC82AD831236
:1027640007E0800D851882851983AC82AD8312073A
:10277400E6E9F508E50860298E828F83A3E06414F6
:10278400601F850E82850F83E09002FF1227B2122C
:102794003A7F900300123260E508A31227BA1204AC
:1027A4003E02314F123A8385188285198322F085BF
:1027B400188285198322F07CFF7D02850A82850BAD
:1027C40083122EF22274EE1216CE74FC1216778A3D
:1027D4000A8B0B8C0E8D0FEA2405F508EB3400F5FB
:1027E400097C157D0079007AFF7B02120F8AE508C7
:1027F4002402F50CE50912375E8518828519838554
:10280400821085831178101218E185088285098366
:10281400A3A3A3A3122CB01218E1E5082405F51014
:10282400E5093400F51178101218E1850C82850D44
:10283400831230051206E4740612168D8A108B1169
:10284400AE10AF11E50A2402F50AE50B123243EE8D
:102854004F7003022987801774021216C2122EEEDB
:1028640088828983EAF0A3EBF09002FFE004F09001
:1028740002FFE0C394054003022987E4F510F51133
:1028840078101218E17510E875110278101218E129
:102894007510E975110278101218E174061216C247
:1028A4001218F87910EEFCEFFD123C0112168DE9B6
:1028B400705E850882850983A3A3A3A3A3A3A3E0D1
:1028C400F89002E8E0687048122CB01218E17CE934
:1028D4007D02E5082408FAE5093400FB120F84742C
:1028E4000212168DE960298E828F83A3A3A3A312FB
:1028F4002EEE9002FFE0F510740278101216647444
:10290400002510F58274033511F583EAF0A3EBF08A
:1029140074021216C285821085831178101218E190
:1029240074021216C21218F8850C82850D83122FB8
:102934001412168D8A108B11AE10AF119002FFE0A5
:10294400F5107511007402781012166474FF2510C6
:10295400F874023511F988828983A31224E570037F
:10296400022853E82403080808E93400F9EE4F600C
:102974000302285C8882898374FFF0A3F09002FF2D
:10298400E004F09002FFE0600A122EE41204507991
:1029940000800B850882850983123257790A023137
:1029A4004F74EA1216CE74FE1216778C128D13EA47
:1029B4002405F50CEB123BE91237877508007509FD
:1029C40000EA2402F510EB3400F51185188285190C
:1029D4008385820A85830B780A1218E1850C828527
:1029E4000D83A3A3A3A3122B7D1218E1E50C2405E8
:1029F400F50AE50D123243780A1218E1850C828536
:102A04000D83122B811206E4740612168D8A0A8B2A
:102A14000BEA450B7003022B22EA2404F50EEB1299
:102A24002B671237878A828B83A3A3A3E0F98510CF
:102A340082851183122EF86003022B22E4F514F52B
:102A44001578141218E17514E87515027814121823
:102A5400E17514E975150278141218E1740612165A
:102A6400C21218F87913AC0AAD0B85108285118354
:102A7400123C0712168DE9F5096003022B2290021D
:102A8400E8E0F8E5087009E02402900300F08014FF
:102A9400900300E0FCE82402FAE43400FBEA6C70E2
:102AA40001EB707E850882AA82122CA79414122C42
:102AB4009F506B850E82850F83E0C0E074012A125B
:102AC4002B5ED0E0F00508850E82850F83A3E0C05D
:102AD400E085080A7401250A122B5ED0E0F005088F
:102AE4009002E8122B7D1218E17CE97D0285080A28
:102AF4007401250A122B7112168D9002E8E0250844
:102B0400F50874FF6E700374FF6F6012EE24010EFB
:102B1400EF3400FFE508C3941450030229CFE508FD
:102B24006013122F02851082851183122EEE120477
:102B34005679008014E509700375090A85128285A7
:102B44001383EEF0A3EFF0A909740212168D7F0E21
:102B54000217A085080C7401250CF5827403340057
:102B6400F583223400F50F850E82F58322FA74036F
:102B74003400FB120F727402221237BD22A3A31277
:102B84002B872212324EFDEEFAEFFB2274EE121660
:102B9400CE74FE1216778C0E8D0FEA2405F50CEB1D
:102BA40012375E750B009002FFE4F0F50AEA240286
:102BB400F508EB3400F50980449002FFE0FA900236
:102BC400E8E0F8122CA79417122C9F400D9002FFF6
:102BD400E0F87416C3989002E8F0122CB01218E1D1
:102BE4007CE97D0274002AFA7403122B7412168D88
:102BF4009002E8E0F89002FFE028F0050AE50C24D2
:102C040016F582E50D122B62E0F8E50AC3985074BC
:102C14009002FFE0C39416506BE50AC333F8E43323
:102C2400F9E50C28FEE50D39FF851882851983AC7A
:102C340082AD838E828F83122CB97008750B0112BA
:102C440032538050E4F510F51178101218E1751024
:102C5400E875110278101218E17510E975110278FF
:102C6400101218E174061216C21218F879168508A3
:102C740082850983123C0712168DE9F50B70030255
:102C84002BBD80BB7CFF7D02850882850983122EC3
:102C9400EE120468A90B7402023151E99400C36571
:102CA400D03322EA28F8E43400F9E822E0F510757C
:102CB40011007810221231468A108B11AC10AD111C
:102CC400EC4D2274EA1216CE74FC1216778A0C8B21
:102CD4000D8C128D13EA2405F50AEB1232437508A4
:102CE40000750900E50A2402F510E50B3400F5111E
:102CF40074021216C285820E85830F780E1218E1B3
:102D0400850A82850B83A3A3A3A31237631218E158
:102D1400E50A2405F50EE50B3400F50F780E1218BC
:102D2400E1851082851183123249122EE81206E4DD
:102D3400740612168D8A0E8B0FAE0EAF0FE50C249F
:102D440002F50EE50D3400F50F803888828983740E
:102D5400FFF00508122B5774FFF005089002E8E015
:102D6400F50C750D00780C1218E17CE97D028508DC
:102D74000C7401250C122B7112168D9002E8E025BB
:102D840008F508EE4F60278E828F83A3A3A3E0F992
:102D9400850E82850F83122EF8EE240412375BE928
:102DA4006027850C82850D83122EDA123260E508C5
:102DB4007003022EC0122F02850E82850F83122EFD
:102DC400EE12046E7900022ED5E4F514F51578148C
:102DD4001218E17514E875150278141218E17514C7
:102DE400E975150278141218E174081216C2121843
:102DF400F87911EEFCEFFD850E82850F83123C07F6
:102E040012168DE9F509709A850882AA82EA900261
:102E1400E87009E02404900300F08025E0F89003B2
:102E240000E0F514E82404FCE43400FDEC651470BF
:102E340001ED7081122CA79412122C9F4003022DD5
:102E4400B9850C82850D83E0C0E074012A122B5EE3
:102E5400D0E0F00508850C82850D83A3E0C0E01264
:102E64002B57D0E0122F1D85820C85830D780C1210
:102E740018E174041216C21218F8851082851183A1
:102E8400122F1412168D8A0C8B0DAE0CAF0D850803
:102E94000C7401250CF874033400F9EE4F7003022E
:102EA4002D4F851882851983E088828983122F1D0E
:102EB400A3E0C0E0122B57D0E0022D5DE5097003BA
:102EC40075090A850A82850B83122EDA123260A9EB
:102ED400097404022B4F123A8385128285138322CC
:102EE4007CFF7D02850A82850B83122EF222E0FA92
:102EF400A3E0FB22122EF21206D2E9F50922900376
:102F040000E0F5F0E508849002FFF07CFF7D0222EA
:102F1400122B871206F0740422F0050885188285A6
:102F240019832274EC1216CE74FE1216778A088B5B
:102F3400098C0E8D0FEA2405FEEB3400FF123130AC
:102F4400EE241812375BEA450B7003022FD31231BB
:102F5400195029122FF88A108B11EA4511606B79E8
:102F640012AC0AAD0B850882850983122EEE8510FA
:102F7400828511831216CCE9F50A7058E4F50AF536
:102F84000B780A1218E18E828F83A3A3E0F50A78E6
:102F94000A1218E1EE2403123240780A1218E18E64
:102FA400828F8312300512080A740612168DE9F511
:102FB4000A7021850C82850D83E0701F8508828547
:102FC4000983122EEE1204748011750A0E8009759D
:102FD4000A018004E50A6003123253850C82850DD0
:102FE40083E0600479008002A90A740212168D7FBE
:102FF4000C0217A0851882851983122EF21207F885
:103004002212324EFD850882850983122EF2227423
:10301400EE1216CE74FE1216778A088B098C0C8D6C
:103024000DEA2405FEEB3400FF750E00123130EA80
:10303400450B70030230F7123119502C122FF88A05
:103044000E8B0FEA450F604A7912AC0AAD0B850866
:1030540082850983122EEE850E82850F831216CC8B
:10306400E9F50E60030230FA85088285098312337C
:1030740035AA0AFB12310B70147AFF7BFF12310B55
:10308400606C88828983E50AF0A3E50BF0750A0079
:103094008007750E0E805F050A9002E5E0FAE50AE6
:1030A400C39A504AE50A75F017A4FAABF0888289EE
:1030B40083A3A3E02AFAA3E03BFB8A828B83123228
:1030C40049EC4D70D2750A17750B00780A1218E195
:1030D400EEFCEFFD120F72740212168DEEFCEFFD82
:1030E400850882850983122EEE12047A8014750EE7
:1030F400098003750E01123A7B850C82850D8312BB
:103104003260A90E022C9A1207EC8A108B11A810B7
:10311400A911E84922E5082402F508E5093400F577
:10312400098A828B83A3A3A3E0A2E5228518828562
:103134001983AC82AD838E828F831231468A0A8BC7
:103144000B22E0FAA3E0FB1206EA22740412168DA5
:103154007F0A0217A074EC1216CE8C108D11EA248B
:1031640005F50CEB12375E750F00EA2402F50AEB45
:10317400123243850A82F583122EEE123C8D7003BF
:10318400023235750E008071850C82850D83E064F2
:1031940001704F8E828F83A3A31218F88E828F83BF
:1031A400A3A3A3A3E0F51275130078121218E1EE9D
:1031B4002405F512EF3400F51378121218E1122EDB
:1031C400E812080A740612168DE9F50F6014850CCE
:1031D40082850D83E4F0123A7B8510828511831277
:1031E40032607C177D007900EEFAEFFB120F8A8EB5
:1031F400828F83E4F0A3F0050E9002E5E0F8E50E7B
:10320400C398501EE50E75F017A4F8A9F08508823E
:10321400850983A3A3123BF3123249EC4D600302E8
:10322400318C85088285098374FFF0A3F0E50F7063
:1032340006122EE8120480A90F022FF3F50AEF34C8
:1032440000F50B22A312324EFD22E0FCA3E0228EF5
:10325400828F83123A83850E82850F83E8F0A3E977
:10326400F022C082C0839002E1E06A7003A3E06BA5
:1032740070067AE17B0280047A007B000225A87440
:10328400F71216CE7F00EF75F003A4F8A9F0EC282E
:10329400F8ED39F988828983E06A7003A3E06B70E2
:1032A40006E8FAE9FB800B0FEFC3940240D87A00DA
:1032B4007B007F010217A074F61216CE12386C70D0
:1032C400067A007B008007A3A3A3A3122EEE023983
:1032D4002D74F21216CEE9FE740E1216C212333594
:1032E40074101216C212379D8C828D83E0640270B2
:1032F4003BA3123A7F88828983E0F50CA3E0F9A806
:103304000C74026870037429697021750C02750DC0
:1033140000780C1218E178081218E1780A1218E102
:10332400EEF912082E740612168D80027901023904
:103334009DE0F50AA3E0F50B2274E81216CE74FBA7
:10334400121677E9851882851983F08A168B178CF3
:103354000E8D0F741F1216C212379D74211216C2DD
:1033640012333574231216C21237877510008C82FB
:103374008D83A3A3A3E0A2E4502A741D1216C212E3
:103384002FFE8A828B83E582458370030234497958
:103394000AAC0EAD0FAA16AB171216CCE9F51060E5
:1033A4000302344C850E82850F83E06402600302BD
:1033B4003702A3123A7F850882850983A385821286
:1033C400858313E50E2406F50CE50F12375E88821B
:1033D4008983E0FAA3E0F9EA2400F514E439F51549
:1033E400781412196B010000280128113407000217
:1033F40028E834032858340029123601293A3602C1
:1034040029E135032912360429A3360237EE4F7019
:103414003E850C82850D83123778FAE9FB8A828B0C
:1034240083E0850A82850B831237B41218E18A82FD
:103434008B83A312324EFDAA08AB09120F727402D9
:1034440012168D800375100EA9107405023BE175E8
:10345400100B80F4EE4F70F7850A82850B8374019C
:10346400F012378D850882850983F07C007D008504
:103474000E82850F83A3A3A3A3E02401FAA3E0345F
:1034840000FB1206EAEA4B60418A828B83E0240245
:10349400F8850A82850B83E028F0EA2404F8EB34EB
:1034A40000F988828983E08512828513831237C6E6
:1034B4001237B41218E18A828B83123248E5082449
:1034C40003FAE5093400FB02343F850A82850B8345
:1034D400E02404F07C047D007900AA12AB13120FDF
:1034E4008A02344CEE4F600302345312378DFEA32C
:1034F400E0FF850A82850B837404F0EE85088285DB
:103504000983F0EF851282851383F074031216C2C7
:10351400AC82AD83EEFAEFFB12385A70030235BE6B
:103524008A828B83A3A312378374011216C2858205
:103534000E85830F780E1218E174051216C2121844
:10354400F87CFF7DFF1206F0740412168D8B0FEACF
:10355400450F7033850C82850D831237631218E191
:10356400850C82850D83A31218F87C027D007A797C
:103574007B8412051C740412168DE9700A740112FE
:1035840016C274FFF0A3F08E828F83E0640270345D
:10359400750C02750D00780C1218E18E828F83125F
:1035A4003248E5082404FAE509122B7412168D85B5
:1035B4000A82850B83E02402800974011216C2EE8C
:1035C400F0A3EFF074011216C2123774F0740112F2
:1035D40016C2A312376CA3A3A3F002344CEE4F60BF
:1035E40003023453850C82850D83123249AA16AB2B
:1035F40017120822850A82850B837402F0EA850873
:1036040082850983F0851282851383EB80CBEE4F8C
:10361400600302345312378DF8A3E0F9850A8285DA
:103624000B837402F0E8850882850983F0E985122A
:103634008285138380A3850C82850D83122EEE125E
:103644000F6CEAFC8C82A882C39EE49F404BE86E18
:103654007001EF70047C00801F851882851983E057
:10366400FAEE2AFAEF3400FBC3EA98EB9400500315
:10367400E08004EECCC39CFCEC850A82850B83F0CD
:103684008C0A750B00780A1218E1850C82850D836B
:10369400E02EFCA3E03F02343A75100702344CEEEE
:1036A4004F6003023453850C82850D83123A7F8563
:1036B4000A82850B837407F08882898312376C121F
:1036C4003754E0851282851383F0E82402FAE93442
:1036D40000FB8A828B8312376C1237A5123774A3CE
:1036E4001237AE12377DF0E82405F8E93400F98882
:1036F40082898312377DA31237C6A30235DA741D7B
:103704001216C21238657003023449123A7F880CCB
:10371400890DE8450D70030234498E108F1178101D
:103724001218E1780A1218E178081218E1740612E6
:1037340016C2E0F9AC0EAD0FAA16AB17850C828544
:103744000D831216CC740612168DE9F51002344C52
:10375400F088828983A322F50CEF3400F50D22E072
:10376400F50E750F00780E22E08508828509832204
:103774001237CD22123A83E8221237CDA3A322A313
:10378400A3A3A3E0FEA3E0FF22850C82850D83E0C2
:10379400F8A3E0F5838882E022E0F508A3E0F509C8
:1037A40022A3A3F08A828B83A322122460A3A322E0
:1037B400F08A828B831237BD22E0F50A750B0078FC
:1037C4000A221237541237CD22E0850882850983F4
:1037D400A3A32274EE1216CE74FE1216778A0A8BF5
:1037E4000BECFAEDFB74141216C2E0F510A3E0F52D
:1037F4001174161216C2E0FE74181216C2E0F50E09
:10380400A3E0F50F851882851983AC82AD83123845
:103814005A603E851882851983123865602FA3A3E8
:1038240012379DE50845096024780E1218E17810D6
:103834001218E1EEF9AC0CAD0DAA0AAB0B850882A7
:103844008509831216CC740412168D8006790E80B5
:10385400027901022C9A1206EA8A0C8B0DEA450DB4
:1038640022122EF212386C221207B68A828B83E55A
:103874008245832274F61216CE74FE121677740CE7
:103884001216C2123778851882851983F0740112D2
:1038940016C2E9F0E4F508F50978081218E175088C
:1038A4000278081218E174041216C285820885830E
:1038B4000978081218E112080A740612168D7402A7
:1038C40012168D806474F71216CEEAFEEBFF890897
:1038D4007C187D03120822EA5402600BA908EEFA50
:1038E400EFFB1206DE800279010232B674F612167C
:1038F400CE74FF6A700374FF6B701C7B00EB75F071
:1039040003A4F8A9F0EC28F8ED39F91239320BEBDD
:10391400C39402501480E61207F28A088B09A8089F
:10392400A909E84960031239327F020217A088828C
:10393400898374FF12245EE4F02274F61216CE1208
:1039440007F28A828B83E58245836006A3A3E0FAAB
:1039540080027A007B0080D174F21216CE8A088B22
:1039640009ECFEEDFF740E1216C2E0F50A1239A23C
:10397400701CEEFCEFFD7AFF7BFF1239A270047914
:1039840011801688828983E508F0A3E509F088820E
:103994008983A3A3E50AF079007F060217A0120722
:1039A400F28A0C8B0DA80CA90DE8492274EE1216AC
:1039B400CEEAFEEBFF8C088D09890C74121216C234
:1039C400123A7F74141216C212324974161216C2B5
:1039D400122EEE750D00EC4D6003023A737402650D
:1039E4000C6003023A6E8882898312324EF9EC2409
:1039F40000F50EE439F50FEAF4F8EBF4F9EC58F8B5
:103A0400E50F59F9E849705DE5082406F8E509343D
:103A140000F9880A890B8882F583122B8312082205
:103A24008A108B11E50E65107004E50F6511604274
:103A3400780E1218E1850A82850B83122B831208F3
:103A440028740212168DE9F50D7027780E1218E10C
:103A5400850882850983A3A3122B8112084074026E
:103A640012168D800D750D808008750D0D800375FF
:103A74000D0BA90D0231548E828F83123A8322E0FA
:103A8400F8A3E0F92274E81216CE74E712167785CB
:103A94001882851983EAF0A3EBF08C168D17890E32
:103AA40074311216C2E0F512A3E0F5137433121642
:103AB400C2E0F514A3E0F51574351216C2E0F50F53
:103AC400750800750900E50975F003A4F8A9F085E7
:103AD4001882851983123BF3E0F47003A3E0F470B9
:103AE40003023BD1EE2402F50CEF123BE9E0700334
:103AF400023BD185160A85170B780A1218E1AC141B
:103B0400AD15AA12AB131207AA740212168D8A0AF3
:103B14008B0BEA450B7003023BD1E4F510F51178E9
:103B2400101218E174061216C2858210858311786A
:103B3400101218E174091216C28582108583117857
:103B4400101218E1851282851383A3A3A3A312186C
:103B5400F87914AC0AAD0B8E828F83123C071216CF
:103B64008DE97069850A82850B83A3A3A3A3123A06
:103B74007F74021216C2123260850C82850D83E0B6
:103B8400A2E05018A90E74021216C2AC82AD838E44
:103B9400828F83122EEE120702E94208850C828579
:103BA4000D83E0A2E15026E50FF50A780A1218E524
:103BB400A90E74031216C2AC82AD838E828F831257
:103BC4002EEE1206FC740112168DE942080509E571
:103BD40009C394025003023ACAA908741912168D33
:103BE4007F100217A03400F50D850C82F58322E0C6
:103BF40028FEA3E039FF8E828F83227916850A82FC
:103C0400850B83122EF212080474082274F2121621
:103C1400CEEAFEEBFF890B7401650B600E7402653E
:103C24000B70637901120A1AE9705BEEFAEFFB126A
:103C34003C8D6047750A00800B7C177D007900126B
:103C44000F8A050A9002E5E0F8E50AC3985021E5D9
:103C54000A75F017A4F8A9F0850882850983A3A33F
:103C6400E028FAA3E039FB8A828B831225AF70C95E
:103C740085088285098374FFF0A3F07C187D03EE28
:103C8400FAEFFB12081C02399D1207EC8A088B0913
:103C9400EA45092274F21216CE8A088B09ECFEED6D
:103CA400FF740E1216C2123335900B8BE0F4603D94
:103CB4007A097B00120F9CEA4B60328A828B8374F0
:103CC400B1F0A3E41237A7A31237A5A3E508F0A324
:103CD400E509123CF4EEF0A3EF123CF4A3A3E50AC9
:103CE400F0A3E50BF0900B8BE0F9120FA802399DBD
:103CF400F08A828B83A3A3A3A3A322C082C0839050
:103D040061907404F0A37448F0A37402F09061808D
:103D14007440F09061BC7403F09061877419F09062
:103D24006265741BF090619C740DF090619A743319
:103D3400F0A37455F09061A0743AF090055CE064CF
:103D4400017009C2919003C6746780059003C6741C
:103D540061F0902322E493906186F090231CE49315
:103D6400F46027E493540FF8906185E0686012E5ED
:103D7400C654804449F5C6E59E547F644970F8E80A
:103D8400F053C680E59E547F70FA7905120D5602F1
:103D94003F14C082C083E5A8F853A87E906181E4F3
:103DA400F0A3F0A3F0C2BA539AFEC289759B00C275
:103DB400C275E90075910075BF0075A91175B90543
:103DC400906181F0A374C0F0A3E4F0D2BA439A01E5
:103DD40074805842A8023F14C082C08374F812163B
:103DE400779003C4E0F8A3E0F9E8497003023F0ABE
:103DF4009003C4E0544060237908851882851983B0
:103E0400AA82AB83120BD0851882851983AA82AB50
:103E1400831208AC9003C4E054BFF0E054806010F7
:103E2400790C7A807B05120BD09003C4E0547FF0A8
:103E3400E0A2E0503190619A7433F0A37455F0908D
:103E440061A0743AF090055CE064017009C291903D
:103E540003C6746780059003C67461F01208B290BB
:103E640003C4E054FEF0E05402603190619A743F60
:103E7400F0A3745AF09061A0747FF090055CE06444
:103E8400017009D2919003C6747180059003C674C1
:103E94006AF01208B29003C4E054FDF0E0540460E8
:103EA40013902320E493906186F01208B89003C421
:103EB400E054FBF0E054086013902321E4939061F4
:103EC40086F01208B89003C4E054F7F0E054106090
:103ED40013902322E493906186F01208B89003C4EF
:103EE400E054EFF0E05420600A1208B89003C4E0F4
:103EF40054DFF0A3E05401600D120AF81208BE90DA
:103F040003C5E054FEF0740812168D8003F0A3F08C
:103F1400D083D08202012274EC1216CE74F41216ED
:103F240077851882851983AC82AD83758384758205
:103F340057740412158A90232093F460030240A856
:103F4400907808E0C3940250030240887404121667
:103F5400C2AC82AD837583837582A1740812158AFD
:103F64008518828519838582128583137404121639
:103F7400C2AC82AD83750EFF750FFF7FFF7E0075A7
:103F84000C48750D78801574086E700302401B741C
:103F9400096E700302401B740A6E607B850C828577
:103FA4000D8378081215478C828D83A909E50AC907
:103FB400F8881074187808121488E5104508F8C3B6
:103FC400E098A3E099850C82850D83780812154743
:103FD40040188C828D8374187808121488E5104573
:103FE40008F8E0C398F8A3E0801C74187808121449
:103FF40088E5104508FAE9FB8C828D83E0F8A3E09C
:10400400F9EAC398F8EB99F9C3E8950EE9950F50CE
:1040140006880E890FEEFF0EE50C2404F50CE50D61
:104024003400F50DEEC394135003023F8B74FF6507
:104034000E700474FF650F60238F087402780812F1
:10404400166474482508F58274783509F583780870
:10405400121547851282851383E508F0EC24020CBF
:104064000CED3400FD851282851383A385821285AD
:104074008313740C1216C2E5826C7003E5836D60C1
:1040840003023F7975080175090078081218E17474
:10409400021216C2AC82AD837AC87B081211707406
:1040A4000212168D740C12168D7F0C0217A0C0829A
:1040B400C0839061AE7468F0A3746AF09062457432
:1040C400FBF0A304F053F4FD43FE0290055C74017D
:1040D400F09061A0E0643A90619A70237433F0A385
:1040E4007455F09061A0743AF0740164017009C2CF
:1040F400919003C6746780289003C674618021740C
:104104003FF0A3745AF09061A0747FF074016401CD
:104114007009D2919003C6747180059003C6746AC5
:10412400023F137F040217A0C082C08390050EE0F3
:104134006401700A900513E06004790C8002790030
:10414400023F14C082C08375E1F1900511E060550F
:104154001460081460591460518059120B0A9005B8
:1041640007E0F97A087B05120CD89084471215658C
:10417400120D0E908407121565120CE4900512E0DE
:10418400F9120CF07901120D4A900505E02416F895
:10419400A3E03400F9888289837422F0A3740BF0BD
:1041A4007900023F14120B1080B4120B1680AF1268
:1041B4000B1C80AA791280EA74F41216CE75D90DFC
:1041C4009004F6E0A2E0E4331313F8900507E0C48A
:1041D400333354C0484401F5D97805790588828978
:1041E40083A3A3A3E0F5D988828983A3A882A983A2
:1041F400E8640B7003E9640570E378F67904888257
:104204008983A3E0F5D988828983A3A882A983E856
:1042140064FC7003E9640470E575E1959004F6E0CC
:10422400F97AF77B04120CDE900BAD74BCF0A37426
:104234000AF0A37418F0A3740CF0A37418F0A37418
:104244000CF0A37418F0A3740CF0A374C2F0A3745C
:104254000AF0A37418F0A3740CF0A374DAF0A37436
:104264000AF0900BBB7418F0A3740CF0A37418F04C
:10427400A3740CF0A37418F0A3740CF0A37418F0D6
:10428400A3740CF0A37418F0A3740CF0A37418F0C6
:10429400A3740CF0900505E0F8A3E0F5838882A3ED
:1042A400A3780812154790844378081214D3908495
:1042B4000F7808121521900505E0240EF8A3E034C8
:1042C40000F9888289837808121556900505E02440
:1042D40014F8A3E03400F9888289837413F09003FE
:1042E400C27402F0024127C082C083900517E02403
:1042F40007F5D9900507E0C4333354C0F5D97805E0
:10430400790588828983A3A3A3E0F5D98882898368
:10431400A3A882A983E8640B7003E9640570E390A1
:104324000517E0601F78057905FAE82413F582E99A
:104334003400F583E0F5D988828983A3A882A98310
:104344001AEA70E6900537E02407F5D9900507E0EE
:10435400C4333354C04404F5D97805790588828977
:1043640083A3A3A3E0F5D988828983A3A882A98320
:10437400E8640B7003E9640570E3900537E0601F9F
:1043840078057905FAE82433F582E93400F583E009
:10439400F5D988828983A3A882A9831AEA70E6756D
:1043A400E195900BAD74C8F0A3740AF0A37418F0EF
:1043B400A3740CF0A37418F0A3740CF0A37418F095
:1043C400A3740CF0A374C2F0A3740AF0A37418F0DD
:1043D400A3740CF0A374DAF0A3740AF0900BBB740A
:1043E40018F0A3740CF0A37418F0A3740CF0A37465
:1043F40018F0A3740CF0A37418F0A3740CF0A37455
:1044040018F0A3740CF0A37418F0A3740CF0908447
:104414004F121565900505E0240EF8A3E03400F969
:1044240088828983121571900505E02414F8A3E0AD
:104434003400F9888289837412F09003C2740102F3
:104444003F13C082C083900517E02407F5D9900577
:1044540007E0C4333354C04402F5D978057905889C
:10446400828983A3A3A3E0F5D988828983A3A88240
:10447400A983E8640B7003E9640570E3900517E011
:10448400601F78057905FAE82413F582E93400F50C
:1044940083E0F5D988828983A3A882A9831AEA7064
:1044A400E675E195900BAD74D4F0A3740AF0A3748F
:1044B400D4F0A3740AF0A374D4F0A3740AF0A37420
:1044C400D4F0A3740AF0A374D4F0A3740AF0A37410
:1044D400D4F0A3740AF0A374DAF0A3740AF0900B76
:1044E400BB7418F0A3740CF0A37418F0A3740CF04C
:1044F400A37418F0A3740CF0A37418F0A3740CF054
:10450400A37418F0A3740CF0A37418F0A3740CF043
:1045140090844F121565900505E0240EF8A3E0344D
:1045240000F988828983121571900505E02414F836
:10453400A3E03400F9888289837414F09003C27470
:1045440004023F13C082C083900517E02407F5D905
:10455400900507E0C4333354C04406F5D97805798F
:104564000588828983A3A3A3E0F5D988828983A3DC
:10457400A882A983E8640B7003E9640570E39005DD
:1045840017E0601F78057905FAE82413F582E93409
:1045940000F583E0F5D988828983A3A882A9831AC8
:1045A400EA70E6900537E02407F5D9900507E0C4E2
:1045B400333354C04404F5D9780579058882898356
:1045C400A3A3A3E0F5D988828983A3A882A983E859
:1045D400640B7003E9640570E3900537E0601F78AD
:1045E400057905FAE82433F582E93400F583E0F52A
:1045F400D988828983A3A882A9831AEA70E675E11F
:1046040095900BAD74CEF0A3740AF0A37418F0A3C4
:10461400740CF0A37418F0A3740CF0A37418F0A332
:10462400740CF0A37418F0A3740CF0A37418F0A322
:10463400740CF0A374DAF0A3740AF0900BBB741832
:10464400F0A3740CF0A37418F0A3740CF0A3741802
:10465400F0A3740CF0A37418F0A3740CF0A37418F2
:10466400F0A3740CF0A37418F0A3740CF090844FAE
:10467400121565900505E0240EF8A3E03400F988CE
:10468400828983121571900505E02414F8A3E0349F
:1046940000F9888289837415F09003C27403023F81
:1046A40013C082C083900505E0F8A3E0F5838882F7
:1046B400A3A3A3A3A3A3E4023F1174F71216CE90FD
:1046C40003F0E0F875F004A4C8AAF02AF974F228FB
:1046D400F8740339F9E82405FAE93400FB8A828B7B
:1046E40083E0FCA3E0FD88828983A3A3A3A3A3A3FF
:1046F400A3A3A3ECF0A3EDF088828983A3A3A3A3CF
:10470400A3A3A3E024FFF8A3E034FFF98A828B83F8
:10471400E8F0A3E902496374F71216CEEAFEEBFF50
:104724009061D0E060030247F875D90E75D903751E
:10473400D904EE248CF582EF3400F583E582240855
:10474400F8E5833400F9E0F5D9A3E865827003E95C
:10475400658370F2EE2484F582EF3400F583E582FC
:104764002404F8E5833400F9E0F5D9A3E865827000
:1047740003E9658370F275E1957908EE248CFAEF0C
:104784003400FB120BC47904EE2484FAEF3400FBEA
:10479400120BC47C00EEF8EFF9ECFAC3E49AFA9534
:1047A400E0FBEE2AFAEF3BFBEA248BF582EB3400C4
:1047B400F583E0C0E0E824ABF582E93400F583D06A
:1047C400E0F00C88828983A3A882A983ECC39408AF
:1047D40040C7EE2470F582EF3400F583E0F8A3E0DF
:1047E400F9EE2472F582EF3400F583E8F0A3E9F0E2
:1047F400790180027900024964C082C08375D902BC
:1048040075D90375D90575E195EA2470F582EB3401
:1048140000F583E0F8A3E0F9EA2472F582EB3400B2
:10482400F583E8F0A3E9F07901023F1474F6121657
:10483400CEEAFEEBFF9005607406F075086075091A
:104844000578081218E17C017903120C0C74021229
:10485400168D75D90675D903758260758305E0F5E3
:10486400D9A3E58264657004E583640570F075E19D
:10487400959003C2E06408701EEE2470F582EF3454
:1048840000F583E0F8A3E0F9EE2472F582EF34003A
:10489400F583E8F0A3E9F07901024A3074F61216C0
:1048A400CEEAFEEBFF9061D0E0706678019005607F
:1048B400740BF09003C2E064077019750860750901
:1048C4000578081218E17C017903120C0C740212A9
:1048D400168D7805740128F5D975D903758260752C
:1048E4008305E8FAE0F5D9A31AEA70F875E195EEC4
:1048F4002470F582EF3400F583E0F8A3E0F9EE24A8
:1049040072F582EF3400F583E8F0A3E9F0790180D1
:10491400027900024A3074F71216CEEAFEEBFF75F4
:10492400D90375D90375D90DEE24DEF582EF340071
:10493400F583E0F5D975E1957904120D14EE247030
:10494400F582EF3400F583E0F8A3E0F9EE2472F584
:1049540082EF3400F583E8F0A3E9F079018001F0F7
:104964007F010217A074F61216CEEAFEEBFF9061E7
:10497400D0E0F87480C398FAEE2483F582EF340013
:10498400F583E06004780480027800E8240BF8EAF8
:10499400C3985003024A2E7D09900560EDF0EE2481
:1049A400E3F8EF3400F97A617B057C088882898317
:1049B400E08A828B83F088828983A3A882A9838A70
:1049C400828B83A3AA82AB831CEC70E0EE2483F574
:1049D40082EF3400F583E0601D7508607509057881
:1049E400081218E17C097903EEFAEFFB120C0C743F
:1049F4000212168D7D0D74012DF5D975D9037582BA
:104A0400607583058D08E0F5D9A31508E50870F6EF
:104A140075E1957904120D14EE241DF582EF34002E
:104A2400F583E4F0A3F07901800279007F02021794
:104A3400A074F61216CEEAFEEBFF9061D0E0F87493
:104A440080C398FAEE2483F582EF3400F583E060A6
:104A540004780480027800E82408F8EAC398500334
:104A6400024B357D06900560740CF09003DFE090F6
:104A74000561F07AE07B03786279057C028A828B97
:104A840083E088828983F08A828B83A3AA82AB83A2
:104A940088828983A3A882A9831CEC70E07AE27BD4
:104AA400037C028A828B83E088828983F08A828BEA
:104AB40083A3AA82AB8388828983A3A882A9831C47
:104AC400EC70E0EE2483F582EF3400F583E0601DA2
:104AD40075086075090578081218E17C067903EEFB
:104AE400FAEFFB120C0C740212168D7D0A74012D60
:104AF400F5D975D9037582607583058D08E0F5D9FC
:104B0400A31508E50870F675E1957904120D14EE05
:104B14002470F582EF3400F583E0F8A3E0F9EE2485
:104B240072F582EF3400F583E8F0A3E9F0790180AF
:104B3400027900024A3074F61216CEEAFEEBFF90B8
:104B440061D0E0F87480C398FAEE2483F582EF34E0
:104B540000F583E06004780480027800E82404F817
:104B6400EAC3985003024C147802900560E8F0EE12
:104B740024F5F582EF3400F583E0900561F0EE242E
:104B840083F582EF3400F583E0601B7508607509D6
:104B94000578081218E17C027903EEFA120C0C7401
:104BA4000212168D7806740128F5D975D903758219
:104BB400607583058808E0F5D9A31508E50870F643
:104BC40075E195EE2474F582EF3400F583E4F0EE9C
:104BD4002480F582EF3400F583E4F0EE241DF582A1
:104BE400EF3400F583E4F0A3F07904120D14EE24FD
:104BF4000DF582EF3400F583E0F8A3E0F9EE2472BA
:104C0400F582EF3400F583E8F0A3E9F0790180023E
:104C14007900024A3074F61216CE9061D0E0F8742E
:104C240080C398FCEA2483F582EB3400F583E060CA
:104C340004780480027800E82404F8ECC398405B0C
:104C440079029005607407F0EA24F6F582EB3400EB
:104C5400F583E0900561F0EA2483F582EB3400F5F6
:104C640083E0601875086075090578081218E17CFE
:104C74000209120C0C740212168D7906740129F5BE
:104C8400D975D903758260758305E9F8E0F5D9A370
:104C940018E870F875E195790180027900024A30CC
:104CA40074F51216CEE9FCA2AFE433F50AC2AF7D67
:104CB4000080010DEA246FF582EB3400F583E0F8FF
:104CC400EDC398501A8D08EA2508F8EB3400F9E88A
:104CD400246BF582E93400F583E06C70D68024EA15
:104CE400246FF8EB3400F9E0FEEA2EFAEB3400FB13
:104CF400EA246BF582EB3400F583ECF08882898337
:104D0400E004F0E50AA2E092AF7F030217A074F674
:104D14001216CEA2AFE433FDC2AFEA246FF582EBE4
:104D24003400F583E014F07C0060368C08EA250832
:104D3400F8EB3400F9E8246CF582E93400F583E0FB
:104D4400C0E0E8246BF582E93400F583D0E0F00C90
:104D5400EA246FF582EB3400F583E0F8ECC3984065
:104D6400CAEA246EF582EB3400F58374FFF0EA247A
:104D74006AF582EB3400F583E4F0EDA2E092AF0231
:104D84004A30C082C083E5A8F8C2AFEA246BF5823A
:104D9400EB3400F583E9F0EA246AF582EB3400F59C
:104DA40083E4F0E8A2E792AF023F1474F31216CE44
:104DB400EAFEEBFFECFAEDFB8A828B83A3A3A3A3A9
:104DC400E0541FF0EE2436F582EF3400F583E4F06E
:104DD400F50AEEFCEFFD8A828B83E0C0E0EC245DF3
:104DE400F582ED3400F583D0E0F0750B00E50A336D
:104DF400333354F8F50C8A828B83E0F50875090087
:104E0400E50B7808121645E508A2E0502FEE24368B
:104E1400F8EF3400F988828983E0F508EE2508F577
:104E240008EF3400F509E5082438F582E509340073
:104E3400F583E50CF088828983E004F0050B050C0A
:104E4400E50BC3940840AF050A8A828B83A3AA8228
:104E5400AB838C828D83A3AC82AD83E50AC39405B6
:104E64005003024DDA7F050217A074F71216CE9094
:104E740003EEE0640170077A007B00024FE57E00D8
:104E84009003F4E070F17401F0A3E4F0A3F0900453
:104E94005404F0900457E4F0A3F090045A04F09002
:104EA40003F7E4F0A3F0A3F0A3F090040104F0905E
:104EB4000427E4F09083F712156590040A12157123
:104EC40090040EE4F0A3F0A3F0900472F090046652
:104ED400F090045B7480F0A3E4F0900461F090041B
:104EE40059F09004DDF0A3F0A3F0A3F0A3F0A3F035
:104EF400A3F0A3F09004E6F0900475F09004C5F0DC
:104F0400A3F09083F71215659004C712157190836E
:104F1400F71215659004CB1215719004D1E4F0904A
:104F240004D3F09004CFF09004E9F0A3F0A3F0A32D
:104F3400F0A3F0A3F0A3F0A3F078EE7903E8246FD4
:104F4400F582E93400F58374FFF00E88828983A327
:104F5400A882A983EEC3940440E37AEE7B0378FD30
:104F6400790488828983E0C0E0EA2461F582EB3425
:104F740000F583D0E0F088828983A3A882A9838A7C
:104F8400828B83A3AA82AB83E864027003E964057D
:104F940070D07AEE7B0378D5790388828983A3E085
:104FA400C0E0EA24E7F582EB3400F583D0E0F08832
:104FB400828983A3A882A9838A828B83A3AA82ABD2
:104FC40083E864DD7003E9640370CF9003EEE004CA
:104FD400F0640170089003F6E09003F0F07AF27B3D
:104FE40003024964C082C0839003F5E4F09003F4A3
:104FF400F09003EEF0A3F0A374FFF075E1F1023F2B
:1050040014C082C083780079009003F5E0600478CE
:10501400F2790388828983A3A3A3A3E0F9023F144E
:1050240074F61216CEEAFEEBFF8E828F83A3A3A33F
:10503400E0600F8E828F83A3A3A3E4F09003EFE0DC
:1050440014F09003EEE014F070069003F074FFF097
:105054008E828F83A3A3E4F0900502E0700D900389
:10506400EFE0640170057900120CF6EE2465F58218
:10507400EF3400F583E0F8A3E0F9E8496029EE2471
:1050840065F8EF3400F9880889098882F583E0FC23
:10509400A3E0FD9003F0E0FA7B001208E2850882A9
:1050A400850983E4F0A3F0EEFAEFFB120C3C024A0C
:1050B4003074F71216CEEAFEEBFF8E828F83A3A321
:1050C400A3A3E0FA7B00120924EEFAEFFB120B8E85
:1050D400120C24024964C082C08378D57903888283
:1050E4008983A3E4F088828983A3A882A983E864DE
:1050F400DD7003E9640370E69003D602444174F65C
:105104001216CEEAFEEBFFEC2403F8ED3400F98826
:10511400088909EC2407F8ED3400F9E8FCE9FD8C72
:10512400828D83E0F8A3E0F9850882850983E0FA9B
:10513400A3E0FB1215ECEE240DF582EF3400F583A9
:10514400E8F0A3E9F08C828D83E0F8A3E0F9850808
:1051540082850983E0FAA3E0FB1215EC8B09EA458A
:10516400096013EE240DF582EF3400F583E0240189
:10517400F0A3E03400F0024A3074F61216CEEAFED0
:10518400EBFFEE242EF582EF3400F583E0FCA3E080
:10519400FD780079FAECFAEDFB1215ECEE2470F5CB
:1051A40082EF3400F583E8F0A3E9F0780079FAECB3
:1051B400FAEDFB1215EC8B09EA45096013EE247035
:1051C400F582EF3400F583E02401F0A3E03400F02D
:1051D400024A3074F01216CEEAFEEBFF7410121677
:1051E400C27808121547120CBA8A0C8B0D8C0E8DDE
:1051F4000F90843F780C1214D390840F780C1215FE
:1052040021780C1218DD8E828F83E0F8A3E0F583F9
:105214008882A3A3121565121F91740412168DE9D6
:1052240060030253248E828F83E02402F8A3E034C7
:1052340000F9E8FAE9FB8A828B8378081214E69075
:10524400840F78081215478A828B837808121534E4
:10525400EE240BF582EF3400F583C082C0838E8286
:105264008F83A3A3A3A3A3E02401F8A3E03400F94C
:10527400D083D082E0687003A3E0697005790102ED
:1052840053268E828F83A3A3A3A3A3A3A3E0240105
:10529400F0A3E03400F0EE2474F582EF3400F583DB
:1052A400E064017036EE2475F582EF3400F583E096
:1052B400F8A3E0F98E828F83A3A3A3A3A3A3A3E0FF
:1052C400687003A3E0697013EE2475F582EF34006F
:1052D400F583E02401F0A3E03400F0EE2480F582AD
:1052E400EF3400F583E064017036EE2481F582EF3B
:1052F4003400F583E0F8A3E0F98E828F83A3A3A39F
:10530400A3A3A3A3E0687003A3E0697013EE248150
:10531400F582EF3400F583E02401F0A3E03400F0DB
:1053240079007F080217A074F71216CE9003F0E0FC
:10533400F875F004A4C8AAF02AF974F228FE7403DC
:1053440039FF8028EE2465F8EF3400F988828983D8
:10535400E0FCA3E0FD88828983E4F0A3F08E828FD1
:1053640083A3A3A3A3E0FA7B001208E2EE2465F56D
:1053740082EF3400F583E0F8A3E0F9E849604FEEEA
:105384002464F582EF3400F583E0F50878081218F8
:10539400E5EE2463F582EF3400F583E0F9EE24654D
:1053A400F582EF3400F583E0FCA3E0FDEEFAEFFBB9
:1053B400120BB8740112168DE96089EE2465F5822A
:1053C400EF3400F583E0F8A3E0F9E84970137C00BA
:1053D4007D008E828F83A3A3A3A3E0FA7B0012082F
:1053E400E202496474F21216CEEAFEEBFF890A74F3
:1053F4000E1216C2E0FAEE2462F582EF3400F58351
:10540400E0640160030254B49061D0E0F87480C396
:1054140098F50CEE2483F582EF3400F583E0600404
:105424007804800278008908E928F8E43400F9E86F
:1054340024020808E93400F9E50C98E499A2D2653D
:10544400D0334068EA7005750B028003750B01E0E8
:10545400603975090078081218E17A607B05120B2F
:10546400EE740212168D7508607509057808121815
:10547400E1AC0AA90BEEFAEFFB120C0C7402121643
:105484008D7404250AF50A7C607D057401250AF5EE
:10549400D9850BD9E50A600D8C828D83F8E0F5D9A6
:1054A400A318E870F875E195790080067907800201
:1054B40079FF7F060217A0C082C083E960208C8236
:1054C4008D83E08A828B83F08C828D83A3AC82AD42
:1054D400838A828B83A3AA82AB8319E970E0ECFAF6
:1054E400EDFB023F1474EA1216CE907803E0644296
:1054F400705E90055FE014F07056C2AF1255030061
:10550400782AD0E0F618D0E0F6E59F5407F9700544
:1055140090843B80039084377808121547E9C4C00F
:10552400E07829E65508F50808E65509F509740BED
:105534007808121655D0E02508F8906270E0A2E7CA
:1055440040F8E8C333906272F0906270E0D2E0F009
:105554009003F0E0F4700302590CE0F875F004A431
:10556400C8AAF02AF974F228FE740339FFEE240263
:10557400F582EF3401F583E0F8A3E0F9E849601E11
:10558400EE2402F582EF3401F583E0FAA3E0FBEEAA
:105594002401F582EF3401F583E0F9120FCC8E82F9
:1055A4008F83A3A3A3A3A3A3A3E0F8A3E0F98E820C
:1055B4008F83A3A3A3A3A3E8F0A3E9F0906054E02E
:1055C4009003C9F0906055E09003CAF0906056E0F3
:1055D4009003CBF0906057E09003CCF0906058E0DB
:1055E4009003CDF0906059E09003CEF090605AE0C3
:1055F4009003CFF090605BE09003D0F090605CE0AB
:10560400FC9003D1F090605DE0FB9003D2F09060D9
:105614005EE0FD9003D3F090605FE0FA9003D4F075
:105624009003CFE08C082508F8E43400F98D08E8ED
:105634002508F8E93400F98B08E82508F8E934006E
:10564400F98A08E82508FAE93400FBEE24F7F58224
:10565400EF3400F583E02AF0A3E03BF08C08EE245D
:10566400F9F582EF3400F583E02508F0A3E0340077
:10567400F0EE24FBF582EF3400F583E02401F0A37F
:10568400E03400F0EE24FFF582EF3400F583E0F817
:10569400A3E0F9E8496042906000E0C333FCE433DE
:1056A400FDE82CF582E93DF583E02AF0A3E03BF028
:1056B400906000E0FA9003D1E0FCEAC333FAE433EB
:1056C400FBE82AF8E93BF9E8244AF582E93400F5D5
:1056D40083E02CF0A3E03400F09003CFE07011904D
:1056E40003D2E0700BA3E07007A3E070030257EC51
:1056F4008E828F83A3A3A3A3A3E0F8A3E0F9EE24EF
:105704000DF582EF3400F583E028F8A3E039F9EED3
:10571400240BF582EF3400F583E8F0A3E9F0EE24DE
:105724000FF582EF3400F583E4F0EE241CF582EFEC
:105734003400F583E06401701EEE2420F582EF341A
:1057440000F583E0F8A3E0F9EE241DF582EF3400C0
:10575400F583E8F0A3E9F09003CAE06052EE241C5C
:10576400F582EF3400F5837401F0EE246AF582EFDC
:105774003400F583E07038EE2474F582EF3400F5DC
:1057840083E0702BEE2480F582EF3400F583E07023
:105794001EEE2420F582EF3400F583E0F8A3E0F94F
:1057A400EE241DF582EF3400F583E8F0A3E9F090D0
:1057B4006062E0700302589F8E828F83E0F8A3E05A
:1057C400F9E82406FCE93400FDE82402FAE934008F
:1057D400FB120CB48E828F83E02412F8A3E0340011
:1057E400F9888289830258A99003D1E0603AEE24B3
:1057F4000FF582EF3400F583E4F0EE241CF582EF1C
:105804003400F583E064017040EE2420F582EF3427
:1058140000F583E0F8A3E0F9EE241DF582EF3400EF
:10582400F583E8F0A3E98020EE24FDF582EF34004F
:10583400F583E02401F0A3E03400F0EE241DF582AA
:10584400EF3400F583E4F0A3F0EE240BF582EF349B
:1058540000F583E0F8A3E0F98E828F83A3A3A3A3CA
:10586400A3E0687003A3E069600302575BEE240FB2
:10587400F582EF3400F583E060128E828F83A3A358
:10588400A3A3A3E064057002A3E0600B7908EEFA19
:10589400EFFB120B948071793E80F3EE241DF582A8
:1058A400EF3400F583E4F0A3F0906060E0C0E0EE34
:1058B4002469F582EF3400F583D0E0F09003CFE063
:1058C400F8EE2467F582EF3400F583E028025A0CE1
:1058D40090055DE064017035120D62EE2467F58277
:1058E400EF3400F583E070069060607480F0EEFAA7
:1058F400EFFB120C7EE96401600E120BB2120C78FD
:10590400E964016003120C247F0E0217A0EE2483C5
:10591400F582EF3400F583E06004780480027800B7
:10592400E50CC398F91208D68A0A8B0BEA450B607A
:10593400A7EE2483F582EF3400F583E070048A082F
:105944008B09E50C6012850882850983F512E5D977
:10595400F0A31512E51270F6EE2483F582EF3400FD
:10596400F583E0603774FC250CF50C78081218E117
:10597400AC0CA90DEEFAEFFB120C12740212168D88
:10598400E970197403650D7003025A4CE50A24FB8F
:10599400FAE50B34FFFB12100E025A4C7403650D2A
:1059A4007003025A51850C0E750F00780E1218E11F
:1059B400AC08AD09AA0AAB0B120BEE740212168DD9
:1059C400EE2469F582EF3400F583E064807004749A
:1059D4007F8001E0F50878081218E5E50DF50878F0
:1059E400081218E5A90CAC0AAD0B9003F0E0FA7BA1
:1059F400001208DC740212168D120D6EEE2467F587
:105A040082EF3400F583E014F0E070030258EC7583
:105A14000860750905750A00750B00E5D914F50CC5
:105A2400E5D95403F50D60207403650D7003025924
:105A340046E50C70030258D4EE2468F582EF340076
:105A4400F583E060030258D4793D025892850882B8
:105A5400850983E0F8A3858208858309603B147077
:105A640003025C49147003025F3D147003025CA7D7
:105A740024FD7003025DC71470030259FD14700302
:105A8400025E1D24FE7003025DD6147003025E18CC
:105A9400147003025EB2025EC1EE2477F510EF3497
:105AA40000F511E0851082851183F085088285094F
:105AB40083A3858208858309EE2478F50EEF3400EC
:105AC400F50F7902AC08AD09AA0EFB120BBE8A08C9
:105AD4008B09EE247AF50CEF3400F50D7902AC084D
:105AE400AD09AA0CFB120BBE8A088B097902AC081B
:105AF400AD09EE247CFAEF3400FB120BBE8A088B4E
:105B040009EE247EF50AEF3400F50B7902AC08ADFA
:105B140009AA0AFB120BBE8A088B0985108285111B
