:020000040000FA
:0600000002010A021D4688
:03002B0002218E21
:0300330002217037
:03004B000221A7E8
:03005300021DBCCF
:03006B0002214A25
:10008300021C37E5C754F84401F5C7790122000083
:100093000080FB120086B900030200F4E4792178A2
:1000A30008B800028004F709D8FCE479297802B87B
:1000B30000028004F709D8FCE490028178C679072E
:1000C3008002F0A3D8FCD9FA900946AA82AB8390A8
:1000D300013A780579048015E493A3AC82AD838A51
:1000E300828B83F0A3AA82AB838C828D83D8E9D9D8
:1000F300E77582D2758397740312011C758291751B
:100103008300740012011C75D00075813F7518813E
:10011300751902759F00020096C09FF59FE473D086
:100123009F22D083D082C09FE493C0E0740193C028
:10013300E0740293F59F22FF0000B400002800281A
:1001430000283075A000A000A000A000000800084F
:10015300E001F0001000100010001000100010006B
:1001630050005000500010001000D00700000000A5
:1001730000000F00010005003075070010000100AA
:1001830081FF0000FF3C065A064206FF02020208F6
:10019300025000A0000000E8030299920100005FF2
:1001A30092028B920100009B09026B92010000B244
:1001B30002028B920100009C09026D92010000C8AB
:1001C30002028B920100009D09026F92010000CA96
:1001D30002028B920100009E09027192080000CB7B
:1001E30002028B920100009F09027392010000A09A
:1001F30009FF0100FF200299920100006292028B25
:1002030092010000040A02759200000000000295AA
:100213009203000018036C0C6C0C6C0C6C0C6C0CD3
:100223006C0C6C0C6C0C6C0C6C0C6C0C6C0C6C0C0B
:100233003C0F540F360FFFFF0202020202020202BA
:1002430002010D0000001001029992010000659265
:10025300028B92010000470A028F92010000780787
:10026300028B92010000480A02899201000040912A
:10027300028B92010000490A028792010000259136
:10028300028B920100004A0A028592010000A490A9
:10029300028B920100004B0A0283920100009290AC
:1002A300028B920100004C0A0281920100006E90C1
:1002B300028B920100004D0A02A59201000080907A
:1002C300028B920100004E0A027F920100001791F7
:1002D300028B920100004F0A027D92010000500A36
:1002E30001E803053F10FF0001307503020106001A
:1002F30000000000000000000000000000000000FB
:100303000000000000000000000000FFFF06008066
:100313000CE803010001000100140953696D706CBE
:1003230065424C455065726970686572616C05126F
:1003330050002003020A000201060302F0FF47688F
:100343006F7374797553657269616C4170700000E5
:10035300000000741300007A130A4368617261633A
:100363007465726973746963203100024368617252
:10037300616374657269737469632032000843684A
:100383006172616374657269737469632033001009
:10039300436861726163746572697374696320345D
:1003A300000243686172616374657269737469639F
:1003B3002035000299920100006892028B9201009D
:1003C30000680B029D920300002409027B92010046
:1003D30000690B028B920100007A0B029F920100CD
:1003E300003809027B920100007B0B028B92010013
:1003F300008C0B02A1920200003909027B920100DA
:10040300008D0B028B920100009E0B02A392000051
:10041300003A090295920300003B09027B92010016
:10042300009F0B028B92010000B00B02919204001B
:10043300004109027B92010000B10B1201252B8BB5
:1004430003120125428B03120125718B031201252F
:10045300AA8B03120125D28B03120125008C0312F0
:100463000125178C031201252E8C03120125448CC0
:10047300031201256B8C031201257E8C03120125C7
:10048300948C03120125A78C03120125CC8C031233
:100493000125B77500120125B67600120125EB760A
:1004A300001201250C77001201251C77001201258B
:1004B3003D770012012549780012012516790012B3
:1004C30001258979001201250F7A00120125527A3C
:1004D30000120125897A001201250F7B00120125E4
:1004E300E17B001201253F7C00120125577C00129D
:1004F3000125D17C00120125D47C00120125D77C73
:10050300001201257E7D00120125967D0012012532
:10051300C67D00120125E67D00120125D47E00125E
:1005230001258A7F00120125B3DB02120125DBDBE3
:100533000212012509DC0212012540DC0212012509
:10054300A8DC02120125F1DC021201253CDD0212B6
:1005530001257ADD02120125B7DD02120125E5DD51
:10056300021201258CDE0212012596DE02120125FC
:10057300A3DE02120125D6DE0212012598DF021244
:100583000125A4DF02120125BCDF02120125C6DF0B
:10059300021201255E93031201256C9303120125B8
:1005A3008493031201259C93031201252EB101129A
:1005B3000125CCB10112012544B20112012559B321
:1005C3000112012593B3011201253CB40112012547
:1005D30011B50112012575B601120125CCB6011220
:1005E300012553B7011201253AB80112012587B835
:1005F3000112012515B90112012539B9011201258D
:100603000EBB011201254FBB0112012571BB011263
:100613000125F2BB01120125DCBC01120125A2BD9B
:100623000112012595C00212012567C1021201259D
:1006330010C20212012553C202120125E0C20212A6
:1006430001256CC3021201254DC4021201257CC48D
:100653000212012578C502120125C0C50212012527
:10066300C2C60212012506C7021201252CC70212B7
:100673000125AD9503120125C4F002120125DAF01C
:100683000212012500F10212012528F202120125AE
:1006930032F2021201258BF3021201258BF40212AE
:1006A300012521CD0212012556CE0212012589CE44
:1006B30002120125D3CE0212012591D00212012587
:1006C300A992011201250C930112012551940112E3
:1006D3000125619401120125849401120125CF940F
:1006E300011201257495011201256A960112012553
:1006F300349701120125AC9801120125EE980112DD
:1007030001258C9901120125D99901120125FF991F
:1007130001120125ED9B01120125F29B0112012516
:10072300D39D01120125279E01120125899E0112E5
:100733000125B19E01120125559F0112012517A024
:100743000112012548A0011201254BA00112012528
:1007530093A001120125D5A0011201253CA101128C
:100763000125E48203120125F78203120125108378
:10077300031201255B83031201253684031201252D
:10078300C58403120125108503120125E4210012FB
:100793000125F021001201252922001201256E22D4
:1007A30000120125252300120125AB230012012588
:1007B3001024001201253C24001201257524001287
:1007C3000125892600120125652800120125502ADA
:1007D30000120125872B00120125E72D00120125A8
:1007E300D32E0012012519300012012526310012E3
:1007F30001254331001201257B310012012595317A
:1008030000120125FD310012012597360012012542
:10081300383700120125893700120125B03700123D
:100823000125FE37001201251C38001201257038FE
:1008330000120125493900120125D03A0012012581
:10084300583B0012012509D70212012513D70212C2
:100853000125DED702120125F9D7021201251FD87F
:100863000212012563D8021201259BD80212012529
:10087300C4D8021201253DD90212012552D9021210
:10088300012567D9021201259ED902120125B2D989
:1008930002120125E3D9021201251DDA02120125F4
:1008A30049DA021201259FDA02120125F3DA021254
:1008B30001253CDB0212012566DB021201258BDBDD
:1008C30002120125D8EC02120125A2ED0212012524
:1008D30085EE02120125FBEE021201253DEF021205
:1008E30001256AF0021201250080021201252980E8
:1008F300021201254280021201258781021201257D
:1009030065820212012584820212012511830212DB
:100913000125548302120125A18402120125408579
:1009230002120125BF8702120125568802120125F2
:100933002A89021201250C8A02120125788B0212E0
:1009430001250B8C02120125A3FE021201250CFFC7
:100953000212012560FF0212012587FF0212012501
:100963005BE002120125C8E00212012513E1021225
:10097300012508E20212012504E302120125EEE338
:1009830002120125A3A002120125E5A002120125EE
:10099300BFA10212012598A20212012593A30212FC
:1009A300012572A402120125DEA402120125A5A5C8
:1009B3000212012510A60212012577A602120125B3
:1009C300A2A60212012513A702120125A6A702124D
:1009D30001250FA80212012524A8021201256CA8E3
:1009E3000212012585A802120125EAA80212012597
:1009F300EDA802120125A9FB02120125D1FB021267
:100A030001250FFC02120125CDFC0212012538FD40
:100A13000212012554FD021201257CFD021201255B
:100A2300ACFD02120125BBFD0212012535FE0212A7
:100A330001255BFE0212012506A201120125A3A3D3
:100A43000112012589A50112012553A601120125D1
:100A53009AA601120125E1A601120125F3A60112AE
:100A6300012533A70112012562A701120125AEA7B3
:100A730001120125E6A70112012514A8011201257F
:100A830065A801120125F4A801120125E2AB0112A8
:100A93000125BCAD01120125F8AD0112012552AFAC
:100AA3000112012599AF011201250EB00112012592
:100AB3005CB00112012593B001120125A097021227
:100AC3000125BD9702120125579D02120125599E4A
:100AD30002120125D39F0212012581A002120125D2
:100AE3009F4F00120125E84F0012012515500012F7
:100AF300012548500012012555500012012561506F
:100B030000120125735000120125485100120125DE
:100B1300A65100120125DB51001201257753001263
:100B23000125C45300120125E85300120125555431
:100B330000120125FA5400120125B65500120125B1
:100B4300355600120125F9560012012508570012E7
:100B530001258957001201252858001201255A58EA
:100B630000120125F55800120125535900120125E1
:100B73008D59001201250E5A00120125D75A001271
:100B83000125805B00120125075C001201255F5CD3
:100B930000120125C05C00120125E95C0012012549
:100BA3009F5D00120125E95E001201252C5F0012F2
:100BB3000125495F00120125685F00120125B35F1B
:100BC30000120125D85F00120125016000120125E2
:100BD300706000120125B26000120125B661001297
:100BE30001255062001201251C63001201253563A3
:100BF30000120125B9F5011201250CF60112012598
:100C030018F601120125EDF60112012514F7011260
:100C130001254FF701120125BBF701120125EFF75B
:100C23000112012528F80112012540F801120125BE
:100C330099F801120125B2F801120125FBF80112FE
:100C430001250EF90112012528F9011201253EF9AA
:100C5300011201255AFA011201256BFB011201252C
:100C6300B8FC011201259DFD01120125F57F00123B
:100C73000125D3E80112012507E90112012572ECD0
:100C830001120125BCED0112012586EE0112012599
:100C930010F001120125EBF00112012525F10112DB
:100CA300012548F1011201258AF10112012593F171
:100CB30001120125DDF101120125E7F101120125E0
:100CC30093F20112012567F301120125BBF301120F
:100CD30001251DF40112012570F4011201259FF471
:100CE30001120125DEF401120125676300120125BB
:100CF300C16B00120125C76B00120125827100121E
:100D030001256875001201255BF802120125D1F84F
:100D130002120125E7F80212012524F90212012526
:100D23005CF902120125D9F90212012514FA021203
:100D330001258FFA02120125CBFA02120125D4FAFA
:100D430002120125E0FA02120125FAFA0212012524
:100D53001FFB0212012535FB0212012579FB02124A
:100D6300012547D2021201255AD20212012574D25B
:100D7300021201259DD202120125E0D202120125A1
:100D83001FD3021201255DD302120125C2D3021221
:100D93000125D7D302120125E2D302120125EFD395
:100DA3000212012506D40212012514D402120125D0
:100DB3001FD4021201252BD4021201253ED40212A4
:100DC300012549D4021201256CD40212012515D53F
:100DD3000212012525D5021201253FD50212012554
:100DE3005CD50212012578D5021201259DD5021288
:100DF3000125A7D502120125BBD502120125DAD59B
:100E0300021201253BD60212012541D60212012509
:100E130047D6021201254DD60212012559D60212D8
:100E230001258CD6021201255ACE01120125DCCEF2
:100E33000112012585CF01120125CDD00112012513
:100E4300DBD201120125C1D301120125F6D3011210
:100E5300012518D401120125C1D40112012591D60F
:100E630001120125BAD60112012532D7011201253B
:100E730064D70112012571D701120125BCD70112D4
:100E83000125E0D70112012531DA011201253BDBEF
:100E93000112012597DB01120125D7BF011201259C
:100EA300E8C001120125CCC101120125D6C10112EE
:100EB3000125F8C10112012504C201120125A8C3AD
:100EC30001120125D5C301120125EBC4011201252D
:100ED30040C5011201258FC60112012564C7011205
:100EE3000125C0C7011201252BC80112012560C8C5
:100EF30001120125A3C8011201256DCB01120125A1
:100F030085CB0112012516CC0112012524CC011237
:100F1300012571CC011201257FCC01120125EBCCF7
:100F23000112012566CD01120125BDCD0112012556
:100F3300828C02120125A48C02120125B58E0212A5
:100F430001257491021201259E92021201255C93E0
:100F53000212012548940212012572890312012508
:100F63009789031201250D8A0312012578B902120C
:100F7300012581B9021201258AB90212012562BA3B
:100F83000212012513BC0212012543BC02120125E2
:100F93006EBC021201259EBC02120125C9BC0212BD
:100FA3000125FDBC0212012529BD021201256CBDDC
:100FB3000212012597BD02120125DEBD0212012591
:100FC30033BE0212012575BE02120125CFBE0212E5
:100FD3000125FABE0212012549BF0212012579BF7C
:100FE30002120125A4BF02120125D2BF021201255C
:100FF300F5BF0212012536960312012562960312EC
:1010030001258F9603120125999603120125A996AE
:101013000312012547B10212012551B10212012524
:1010230092B102120125DBB10212012515B202129F
:1010330001256BB2021201258CB2021201253BB5C8
:101043000212012544B50212012598B502120125A9
:10105300C1B502120125CBB50212012539B6021220
:101063000125C9B60212012524B70212012552B780
:1010730002120125DAB70212012519B8021201255D
:101083004EB80212012560B8021201257FB8021280
:10109300012588B8021201254AB902120125679277
:1010A30003120125818703120125B7870312012546
:1010B300EB8703120125388903120125B396031226
:1010C3000125C99603120125D396031201251D9705
:1010D30003120125B0E402120125C3E40212012523
:1010E30087E502120125C6E502120125E3E5021296
:1010F30001251CE60212012569E6021201259BE681
:1011030002120125D2E602120125F08F03120125F6
:10111300139003120125429003120125DA90031262
:1011230001251C910312012500800312012525804E
:10113300031201254F80031201257C970312012519
:10114300BF3B001201259D3D001201253C3F0012CB
:101153000125E73F00120125674000120125EC40FD
:1011630000120125154100120125F044001201254A
:101173006745001201257E4600120125B84600127C
:101183000125F94600120125404800120125964821
:1011930000120125DF48001201254E4900120125E6
:1011A300BA4900120125EB4900120125034A001236
:1011B30001251C4B001201252C4B00120125E24C8A
:1011C30000120125F94C001201252B4D00120125B7
:1011D300CD4E00120125614F00120125FC9403122C
:1011E30001250D9503120125259803120125649805
:1011F30003120125E8FF011201255AFF01120125FF
:101203006AFF011201257FFF01120125E5FF01128B
:101213000125659103120125EA91031201254E92DE
:1012230003120125768E031201259F8E03120125D9
:101233000A8F031201255B8F03120125B68F031258
:101243000125E5E80212012512E90212012584E9CC
:101253000212012599E902120125BAEA02120125B7
:101263003DEB02120125B6EB02120125D5EB02126A
:101273000125F8EB0212012535EC021201254DEC94
:1012830002120125A3EC02120125EEFF0212012531
:10129300DE8C03120125308D03120125A38D031269
:1012A3000125108E031201253A8503120125648559
:1012B300031201253386031201250F87031201252B
:1012C30011A902120125DDA9021201251EAA02128B
:1012D300012558AA02120125B6AA021201250AAB5A
:1012E3000212012568AB02120125FEAB0212012591
:1012F30006AD0212012590AE021201252EAF021295
:10130300012595AF02120125A8AF021201259CB059
:1013130002120125E5B002120125E4DB01120125C9
:1013230016DF01120125A7E001120125FEE00112DB
:1013330001251BE1011201259BE10112012517E3A0
:1013430001120125E6E30112012553E701120125EC
:101353003DE80112012535940312012580940312FF
:101363000125A99403120125A1C70212012537CA39
:1013730002120125E0CA02120125FBCB021201254C
:101383009FCC0212012595F402120125DAF4021210
:101393000125F7F402120125B2F5021201250EF61A
:1013A30002120125E7F60212012522F80212012595
:1013B3006E9803120125B8FF021201259B980312B0
:1013C3000125C39803E066701008A3E066700A085D
:1013D300A3E066700408A3E06622C3E7960809E762
:1013E300960809E7960809E79622C3E09608A3E062
:1013F3009608A3E09608A3E09622C008C3E096F5FA
:101403000808A3E096420808A3E096420808A3E070
:101413009645087001D3D00822080808EAC0E0EB1B
:10142300C0E086F0E7A4FA180986F0E7A42AFA18C0
:101433000986F0E7A42AFA180986F0E7A42AFA191C
:1014430086F0E7A4FBE5F02AFA190886F0E7A42B57
:10145300FBE5F03AFA190886F0E7A42BFBE5F03A2E
:10146300FA18180986F0E7A4C5F02BFBE43AFA1939
:1014730008E7C5F0C6A426F6E5F03BFBE43AFA1804
:1014830086F0E7A4F6E5F00826F6E43B08F6E43A2E
:1014930008F6D0E0FBD0E0FA22E4CFC0E0E4CEC00F
:1014A300E0E4CDC0E0E4CCC0E075F020C3E633F661
:1014B30008E633F608E633F608E633F6181818ECB0
:1014C30033FCED33FDEE33FEEF33FFC3EC9709ED51
:1014D3009709EE9709EF97191919400FFFEC97FC3D
:1014E30009ED97FD09EE97FE191906D5F0BEECF745
:1014F30009EDF709EEF709EFF7191919D0E0FCD058
:10150300E0FDD0E0FED0E0FF226016080808C6C365
:1015130013C618C613C618C613C618C613C6D5E015
:10152300EA227009080808226016181818C6C3337F
:10153300C608C633C608C633C608C633C6D5E0EAEE
:1015430022E627F60809E637F60809E637F608091A
:10155300E637F622E026F608A3E036F608A3E036DF
:10156300F608A3E036F622E026F008A3E036F008FA
:10157300A3E036F008A3E036F022C3E697F60809A5
:10158300E697F60809E697F60809E697F622C3E018
:1015930096F008A3E096F008A3E096F008A3E0967F
:1015A300F022E056F608A3E056F608A3E056F60844
:1015B300A3E056F622E056F008A3E056F008A3E0B5
:1015C30056F008A3E056F022E0F608A3E0F608A3DD
:1015D300E0F608A3E0F622E6F008A3E6F008A3E6A7
:1015E300F008A3E6F022E0FAA3E0FBA3E0FCA3E00B
:1015F300FD22EAF0A3EBF0A3ECF0A3EDF022CAC0C6
:10160300E0E6F0A308DAFAD0E0FA22CAC0E0E0A3E9
:10161300C582CCC582C583CDC583F0A3C582CCC5A5
:1016230082C583CDC583DAE6D0E0CA22C3E498F845
:10163300E499F91216708026C3E49AFAE49BFBE955
:1016430020E7E9121670E498F8E499F922C3E498C4
:10165300F8E499F9121670E498F8E499F9C3E49A56
:10166300FAE49BFB22EB20E7CFE920E7E0B9001087
:10167300BB0008E88AF084F8AAF022E4FBC8FA2247
:10168300EB70227B10C833C8C933C9335007C39AE0
:10169300C3DBF280069A50012ADBEAC833F4C8C9D7
:1016A30033F4C9FA2275F008E4C833C8C933C9331F
:1016B300C99AC99B5004C92AC93BD5F0ECFBC8336E
:1016C300F4C8E4C9FA22600D08C6A2E713C618C617
:1016D30013C6D5E0F322600C08C6C313C618C6139D
:1016E300C6D5E0F422700422600D18C6C333C608C1
:1016F300C633C6D5E0F41822251810AF08F51840F4
:101703000215198008F51840021519D2AF22C0D06E
:10171300251810AF08F518500205198008F5185060
:10172300020519D2AFD0D0222518F58210AF08F5E3
:1017330018400215198008F51840021519D2AF8513
:101743001983222518F582E43519F58322E47325DC
:1017530018C582C0E0E51934FFC583C0E0E518C3AE
:10176300958224F810AF088583198582188008852F
:101773008319858218D2AFCEF0A3E520F0A37808B1
:10178300E608F0A3DEFAEFF0A3E58124FAF8E60811
:10179300F0A3E608F0A3E608F0A30808E608F0A320
:1017A300E608F0A315811581D0E0FED0E0F815819D
:1017B30015811581E8C0E0EEC0E0222518C582C07E
:1017C300E0E51934FFC583C0E0E518C3958224F929
:1017D30010AF08858319858218800885831985824F
:1017E30018D2AFCEF0A3E520F0A37808E608F0A363
:1017F300DEFAEFF0A3E58124FBF8E608F0A3E608A0
:10180300F0A30808E608F0A3E608F0A31581158104
:10181300D0E0FED0E0F815811581E8C0E0EEC0E02D
:1018230022851983851882E0A3FEE0A3F5207808BA
:10183300E0A3F608DFFAE0A3FFE0A3C0E0E0A3C063
:10184300E0E0A3C0E0E0A3C0E0E0A3C0E010AF0885
:101853008582188583198008858218858319D2AFFC
:10186300D083D082020122851983851882E0A3FEEA
:10187300E0A3F5207808E0A3F608DFFAE0A3FFE091
:10188300A3C0E0E0A3C0E0E0A3C0E0E0A3C0E01099
:10189300AF08858218858319800885821885831986
:1018A300D2AFD083D08222C0D02518C582C0E0E554
:1018B3001934FFC583C0E0E518C3958224F310AF44
:1018C300088583198582188008858319858218D233
:1018D300AFC8F0A3E9F0A3EAF0A3EBF0A37908E71C
:1018E30009F0A3D8FAECF0A3EDF0A3EEF0A3EFF028
:1018F300A3D0E0F0A3D0E0F0A3D0E0F0A3E520F084
:10190300A3E5F0F0A322851983851882E0C0E0A344
:10191300E0F9A3E0FAA3E0FBA37808E0F608A3DF6D
:10192300FAE0FCA3E0FDA3E0FEA3E0FFA3E0C0E038
:10193300A3E0C0E0A3E0F5D0A3E0F520A3E0A3F586
:10194300F010AF088583198582188008858319856F
:101953008218D2AFD082D083D0E0F8D0E0327404C2
:101963008006740280027401C0E0F40412172BD0C5
:10197300E0121601227404800474028000CCC0E0DB
:10198300EDC0E0E518C39CCCAD1950011D10AF06A6
:101993008C188D1980068C188D19D2AF12160ED0A3
:1019A300E0FDD0E0FC22D083D082E9C0E0E493A341
:1019B300C386F0C5F095F0F908E493A386F0C5F06B
:1019C30095F0700BE493A3C3994005E9048002A347
:1019D300E475F002A42582F582E5F03583F583D022
:1019E300E0F9E493A3C0E0E493C0E022D083D08283
:1019F300ECC0E0EDC0E0E493A3FCE493A3FDED4C65
:101A0300600D121A3BEC24FFFCED34FFFD80EFE484
:101A130093A3FCE493A3FDED4C600D121A7AEC241E
:101A2300FFFCED34FFFD80EFD0E0FDD0E0FCE4935C
:101A3300A3C0E0E493C0E022C0E0C3E4939608743B
:101A430001939618400FE493667008087401936637
:101A53001870007019A3A3C3E493960874019396B6
:101A630018A3A3400DD0E0D0E0D0E0021A2BA3A32B
:101A7300A3A3A3A3D0E022C0E0C0F088F0E4936660
:101A830070080874019366187000A8F0A3A3700B84
:101A9300D0F0D0E0D0E0D0E0021A2BA3A3D0F0D056
:021AA300E0223F
:101AA80074F51217BEEAFEEBFFEE2434F8EF3400AB
:101AB800F988088909EE2435121BE0F8EE2437125C
:101AC8001BE0F50AEC850AF0A4FCAAF0850AF0ED03
:101AD800A42AFDE82CF8E43DF97A257B001216705B
:101AE800EA850882850983F05407F87401B8000272
:101AF8008004C333D8FCC0E0E0131313541FF8EE7E
:101B080028F8EF3400F9E8245DF582E93400F5831C
:101B1800D0E0F8E0586008850882850983801DEECA
:101B28002436121BE0F5F0EA84A8F0EE28F8EF342A
:101B380000F9E82438F582E93400F583E0F97F04F8
:101B480002186A74F51217BEEAFEEBFFEE2434128F
:101B58001BE0C0E0EE2435F582EF3400F583D0E0D9
:101B6800F08E828F83A3A3A3A3A3E0FAA3E0FB8E46
:101B7800828F83A3A3A3A3A3A3A3E0FCA3E0FDEC0C
:101B8800C39AF50AED9BF50BEE2480F508EF3400B7
:101B9800F509850882F583E06401702BEE2481F550
:101BA80082EF3400F58312197C121BE974021217B4
:101BB80011E960137CFD7D04EEFAEFFB120B9A85A8
:101BC8000882850983E4F0AC0AAD0BEEFAEFFB124C
:101BD8001AA812213C021B46F582EF3400F583E077
:101BE80022C082C083851882851983E0F8A3E0F9B2
:101BF800C3EA9CEB9D5012C3EC98ED994019C3EAD7
:101C080098EB99501279018010C3EA98EB9940F546
:101C1800C3EC98ED9950EE7900D083D08222EAC3C4
:101C28009CFAEB9DFB2200008521878522C622C0F5
:101C3800E074EF1218AA759B00906182E0A2E6405A
:101C480003021CF8E591A2E64003021CF87591BF57
:101C58009003C2E064057008120D38120D44800329
:101C6800120D3E752100120DAAE99003C3F0790008
:101C7800120D9E120B047A017B009003C1E0F91249
:101C88001074907803E064426003021D4190055F80
:101C9800E014F06003021D41C2AF121CA500782AAF
:101CA800D0E0F618D0E0F6E59F5407F97005909259
:101CB8003B800390923778081215CBE9C4C0E078CE
:101CC80029E65508F50808E65509F509740B78085A
:101CD8001216D9D0E02508F8906270E0A2E740F823
:101CE800E8C333906272F0906270E0D2E0F080490D
:101CF800E0A2E55024E591A2E5501E7591DF90031E
:101D0800C2E0640D70139003E4E004F064287002EC
:101D1800E4F07A00E0F9120E1C906181E0A2E35031
:101D280009E5E9A2E3500375E9F7A3E0A2E7500942
:101D3800E591A2E7500375917F7F04021909C0E07D
:101D4800C0D0C082C083906183E0A2E05009E5BFA3
:101D5800A2E0500375BFFEE0A2E15009E5BFA2E191
:101D6800500375BFFDE0A2E25009E5BFA2E25003AF
:101D780075BFFBE0A2E35009E5BFA2E3500375BFBE
:101D8800F7E0A2E45009E5BFA2E4500375BFEFE015
:101D9800A2E55009E5BFA2E5500375BFDFE0A2E662
:101DA8005009E5BFA2E6500375BFBFD083D082D0EB
:101DB800D0D0E032C0E074F21218AAE5A7A2E4502D
:101DC8000FE5A1A2E4500953A7EF75A1EF121E1069
:101DD800E5A7A2E5500CE5A1A2E5500653A7DF75DB
:101DE800A1DFE5A7A2E15009E5A1A2E1500375A191
:101DF800FDE5A7A2E2500CE5A1A2E2500653A7FB1D
:101E080075A1FB7F0102190974F81217BE7521012B
:101E18009003C2E0640670077A007B00120D20A2CE
:101E2800AFE433FED2AF9003C8E0640170187A20A3
:101E38007B009003C1E0F91210F87A207B00900330
:101E4800C1E0F912107A906182E0D2E6F090055E66
:101E5800E0602185C62280169003C7E064017008FF
:101E6800E5C654F84405F5C653BEFC121C3074018F
:101E7800652160E4EEA2E092AF7F0102186A0000DB
:101E88008E238F2485822885832785188285198348
:101E9800E0CEA3E0CF852882852783EBC9EAC8ED89
:101EA800CBECCA75F010C3E833C8E933C9EA33CAC2
:101EB800EB33CBC3EA9EF526EB9FF525B35004AB75
:101EC80025AA26EC33CCED33CDD5F0DAAE23AF24FA
:101ED8002274F11217BE8A088B098C0A8D0B740FB5
:101EE800121746780C1215CB90920F78081215A588
:101EF80090920F780C1215A57808790C1213DD5002
:101F0800157808790C12157D9091DB78081213FD6D
:101F1800401579018013780C790812157D9091DBB2
:101F2800780C1213FD40EB79007F0802186A74EDF3
:101F38001217BE8A088B098C0A8D0B741312174668
:101F4800780C1215CB90920F78081215A590920F65
:101F5800780C1215A5780C79081213DD4011780851
:101F6800790C12157DAA08AB09AC0AAD0B80227555
:101F780010007511007512007513017810790C1294
:101F8800157D78107908121544AA10AB11AC12AD62
:101F9800137F0C02186A90920F78081215CB8A8268
:101FA8008B8378081215B87F0402186A74F5121723
:101FB800BE8C828D8378081215CB8A828B83780831
:101FC800121591122008C3E098F0A3E099121FFAA5
:101FD800401E90924F78081215CB8A828B8378081E
:101FE80012156A8E828F83E02420F0A3E0344EF02D
:101FF80080A4F08E828F83C3E09420A3E0944E22C5
:10200800EA2404F8EB3400F9E8FEE9FF8C828D83BA
:10201800A3A3A3A3E0F8A3E0F98E828F832274F52B
:102028001217BEE9FE900514E0FAA3E0FBEEC333F5
:10203800F8E433F974E828F582749039F583E02AD6
:10204800F508A3E03BF509780812196590924B1240
:1020580015E9121E8874021217118A088B098C0A56
:102068008D0B7410780812150CAA08AB097F0402AE
:10207800186A74F11217BE8A0C8B0D8C0E8D0F74B2
:102088000F121746E0FAA3E0FB7411121746E0F5A9
:1020980008A3E0F5097413121746E0FEA3E0FF78E1
:1020A80008121965EA2401F508EB3400F509E4F58E
:1020B8000AF50B780C790812141C9091D77808123D
:1020C80015CB780C790812141CAA0CAB0DAC0EAD0C
:1020D8000F121E8874021217118B09EA4509600451
:1020E8007A0180027A00EC2AFCED3400FDECF8ED70
:1020F800F97A717B0212167088088909E4F50AF5E5
:102108000B8E828F8378081215DAECF8EDF97A7164
:102118007B021216708A088B09740578081216E873
:102128008E828F83A3A3A3A3E508F0A3E509F07F1C
:102138000802186AC082C083E9906000F0D083D09A
:102148008222C0E074F21218AAA2AFE433FED2AF22
:10215800E589A2E1500312123C758900C2C5EEA2BE
:10216800E092AF7F01021909C0E074F21218AAA226
:10217800AFE433FED2AFE58BA2E0500312123C75F8
:102188008B00C2E880D8C0E0C0D0E8C0E0E5A8D2A3
:10219800AFC2C7A2E792AFD0E0F8D0D0D0E032C04B
:1021A800E074F21218AAE5AFFEA2E0501E900B26CA
:1021B80012197C900B24E0FCA3E0FD900B22E0FABE
:1021C800A3E0FB1213627402121711EEF4F5AF7F4D
:1021D80001021909FFFFFFFFFFFFFFFFC082C08355
:1021E800E9900A03F002246874F7121752E9900282
:1021F800E0F07C187D037AFF7BFF12081C9002E157
:1022080074FFF0A3F0A3E4F0A3F079051207A490FB
:1022180002E0E0F91206CC7A3A7B081209FC023196
:102228007674F41217528A088B09EB548060309048
:1022380002E0E0F912105C8A0A8B0BAE0AAF0BEED3
:102248004F60138E828F83E064B070031207BCEE78
:10225800FAEFFB12104AAA08E5096480FB80047AA9
:10226800007B0002243774F212175274FC1216FB1A
:10227800EAFEEBFF741212174612365DEE4F70033A
:102288000223117402121746EEF0A3EF122672EC25
:10229800F0A3ED122672AA82AB831206C6E9F50AEC
:1022A800706AE508450960648E828F83123643EEB2
:1022B8004F60567A067B001210B08A0C8B0DA80C62
:1022C800A90DE8497005750A13804188828983E45D
:1022D80012231EEEF0A3EF12366EE508F0A3E5090F
:1022E800F09002E61223A59002E6700512312080D4
:1022F8001B12310E8003EAFCEBFD8C828D831223C6
:10230800A570F38C828D8380E3750A02A90A740490
:1023180012171102385DF0A3123614A32274F212B8
:102328001752890AE975F017A4FEAFF09002E5E4A8
:10233800F09002E31223A5600A1210B69002E3E4BB
:10234800F0A3F0EEFAEFFB1210B08A088B09EA4509
:1023580009602FEEFCEFFD79001210329002E3E5E0
:1023680008F0A3E509F07B00800812238FE4F0A3AE
:10237800F00BEBC3950A40F2E50A9002E5F079000C
:102388008002791302385DEB75F017A4F8A9F09074
:1023980002E3E028FAA3E0398A82F58322122DB2FB
:1023A800EA4B2274F4121752740C1217461236387C
:1023B800FEE9FF750800750900800CE5082401F5A1
:1023C80008E5093400F509C3E5089CE5099D503284
:1023D80085080A85090B7403780A1216E8EA250AA3
:1023E800F8EB350BF988828983A3A3A3A3A3A312CF
:1023F80031F5EE650A7003EF650B70BFE8FAE9FB8B
:1024080080047A007B00802774F41217527900EA5E
:10241800A2E0501B7508B475099178081219657CFB
:10242800047D007A057B0A12079E74021217117F39
:1024380004021824C082C0839002E612246F601C34
:1024480088828983A3A3E06A7003A3E06B888289EA
:102458008370E8A3A3A3A3122DAE80047A007B00A7
:10246800D083D082020122123943E8492274EE1245
:10247800175274FC1216FBEAFEEBFF8518828519C9
:1024880083E4F0A3F0EE2402123100EE24051236A4
:102498001BEE2404F50EEF122A27E024FE603924EF
:1024A800FC604624FE605224FE605E24FE70030237
:1024B800258824FE70030225EC24FE70030225FB08
:1024C80024FE700302260A24FC700302261924FE47
:1024D80070030226280226659002FF7417F0A3E411
:1024E80012267A120444022665851882851983AC5F
:1024F80082AD831207C2022635851882851983ACFE
:1025080082AD831207C8022635850C08850D09742B
:1025180002121746AC82AD83850882850983122D85
:10252800AE1206EA8A0C8B0DAC0CAD0DEC4D603B7F
:10253800E4F50CF50D780C121965750CFF750D0294
:10254800780C121965750C00750D03780C12196555
:10255800740812174612197C123ABF121711E9F5BE
:102568000C700B122DA412045C800F750C018508E9
:1025780082850983122668123120850C08022638C4
:102588007402121746AC82AD83850C82850D8312C6
:102598002B79603C850C82850D83A3A312197C7569
:1025A80010FF751102781012196575100075110366
:1025B8007810121965740812174612197C123ABF5E
:1025C800121711E9F509700B122DA4120462800F7D
:1025D800750901850C82850D8312266812312085C4
:1025E8000908804C851882851983AC82AD8312074F
:1025F800CE803A851882851983AC82AD831207D4C0
:10260800802B851882851983AC82AD831207DA8006
:102618001C851882851983AC82AD831207E0800D72
:10262800851882851983AC82AD831207E6E9F5081F
:10263800E50860298E828F83A3E06414601F850EED
:1026480082850F83E09002FF12267212393F9003B1
:1026580000123120E508A312267A12043E02300F38
:1026680012394385188285198322F08518828519C5
:102678008322F07CFF7D02850A82850B83122DB2AE
:102688002274EE12175274FC1216FB8A0A8B0B8CFA
:102698000E8D0FEA2405F508EB3400F5097C157D4D
:1026A8000079007AFF7B02121032E5082402F50C4B
:1026B800E50912361E85188285198385821085835F
:1026C800117810121965850882850983A3A3A3A32D
:1026D800122B70121965E5082405F510E509340078
:1026E800F5117810121965850C82850D83122EC597
:1026F8001206E474061217118A108B11AE10AF116E
:10270800E50A2402F50AE50B123103EE4F700302C5
:10271800284780177402121746122DAE88828983C3
:10272800EAF0A3EBF09002FFE004F09002FFE0C3B0
:1027380094054003022847E4F510F51178101219A2
:10274800657510E875110278101219657510E9752C
:1027580011027810121965740612174612197C793D
:1027680010EEFCEFFD123AC1121711E9705E8508F0
:1027780082850983A3A3A3A3A3A3A3E0F89002E8F7
:10278800E0687048122B701219657CE97D02E50833
:102798002408FAE5093400FB12102C7402121711F0
:1027A800E960298E828F83A3A3A3A3122DAE900282
:1027B800FFE0F510740278101216E874002510F581
:1027C8008274033511F583EAF0A3EBF07402121753
:1027D80046858210858311781012196574021217C4
:1027E8004612197C850C82850D83122DD41217117F
:1027F8008A108B11AE10AF119002FFE0F510751121
:1028080000740278101216E874FF2510F874023567
:1028180011F988828983A31223A57003022713E87C
:102828002403080808E93400F9EE4F600302271C66
:102838008882898374FFF0A3F09002FFE004F0908F
:1028480002FFE0600A122DA41204507900800B8563
:102858000882850983123117790A02300F74EA1247
:10286800175274FE1216FB8C128D13EA2405F50C10
:10287800EB123AA9123647750800750900EA2402D6
:10288800F510EB3400F51185188285198385820AC5
:1028980085830B780A121965850C82850D83A3A39D
:1028A800A3A3122A3D121965E50C2405F50AE50DC6
:1028B800123103780A121965850C82850D83122A54
:1028C800411206E474061217118A0A8B0BEA450BAB
:1028D80070030229E2EA2404F50EEB122A271236C5
:1028E800478A828B83A3A3A3E0F98510828511838D
:1028F800122DB860030229E2E4F514F515781412D4
:1029080019657514E875150278141219657514E9B6
:102918007515027814121965740612174612197C77
:102928007913AC0AAD0B851082851183123AC71250
:102938001711E9F50960030229E29002E8E0F8E5D9
:10294800087009E02402900300F08014900300E06E
:10295800FCE82402FAE43400FBEA6C7001EB707EB8
:10296800850882AA82122B679414122B5F506B85FC
:102978000E82850F83E0C0E074012A122A1ED0E07F
:10298800F00508850E82850F83A3E0C0E085080A5C
:102998007401250A122A1ED0E0F005089002E812F8
:1029A8002A3D1219657CE97D0285080A7401250A09
:1029B800122A311217119002E8E02508F50874FF71
:1029C8006E700374FF6F6012EE24010EEF3400FF87
:1029D800E508C39414500302288FE5086013122DEC
:1029E800C2851082851183122DAE1204567900809B
:1029F80014E509700375090A851282851383EEF0C0
:102A0800A3EFF0A90974021217117F0E021824858A
:102A1800080C7401250CF58274033400F583223404
:102A280000F50F850E82F58322FA74033400FB1239
:102A3800101A74022212367D22A3A3122A472212E8
:102A4800310EFDEEFAEFFB2274EE12175274FE12ED
:102A580016FB8C0E8D0FEA2405F50CEB12361E754D
:102A68000B009002FFE4F0F50AEA2402F508EB34C3
:102A780000F50980449002FFE0FA9002E8E0F812BD
:102A88002B679417122B5F400D9002FFE0F8741625
:102A9800C3989002E8F0122B701219657CE97D0248
:102AA80074002AFA7403122A341217119002E8E00B
:102AB800F89002FFE028F0050AE50C2416F582E5F7
:102AC8000D122A22E0F8E50AC39850749002FFE03C
:102AD800C39416506BE50AC333F8E433F9E50C28C0
:102AE800FEE50D39FF851882851983AC82AD838E8A
:102AF800828F83122B797008750B01123113805065
:102B0800E4F510F51178101219657510E8751102C1
:102B180078101219657510E9751102781012196587
:102B2800740612174612197C79168508828509835E
:102B3800123AC7121711E9F50B7003022A7D80BB00
:102B48007CFF7D02850882850983122DAE120468F8
:102B5800A90B7402023011E99400C365D03322EA4C
:102B680028F8E43400F9E822E0F51075110078102F
:102B7800221230068A108B11AC10AD11EC4D227464
:102B8800EA12175274FC1216FB8A0C8B0D8C128DEC
:102B980013EA2405F50AEB123103750800750900DC
:102BA800E50A2402F510E50B3400F511740212173A
:102BB8004685820E85830F780E121965850A8285EF
:102BC8000B83A3A3A3A3123623121965E50A2405D0
:102BD800F50EE50B3400F50F780E12196585108295
:102BE800851183123109122DA81206E474061217F2
:102BF800118A0E8B0FAE0EAF0FE50C2402F50EE511
:102C08000D3400F50F80388882898374FFF0050839
:102C1800122A1774FFF005089002E8E0F50C750D0C
:102C280000780C1219657CE97D0285080C74012571
:102C38000C122A311217119002E8E02508F508EE67
:102C48004F60278E828F83A3A3A3E0F9850E828528
:102C58000F83122DB8EE240412361BE96027850C69
:102C680082850D83122D9A123120E5087003022DFA
:102C780080122DC2850E82850F83122DAE12046E2E
:102C88007900022D95E4F514F51578141219657577
:102C980014E875150278141219657514E97515028A
:102CA8007814121965740812174612197C7911EEF6
:102CB800FCEFFD850E82850F83123AC7121711E9C2
:102CC800F509709A850882AA82EA9002E87009E0FC
:102CD8002404900300F08025E0F8900300E0F51448
:102CE800E82404FCE43400FDEC65147001ED708107
:102CF800122B679412122B5F4003022C79850C82E9
:102D0800850D83E0C0E074012A122A1ED0E0F00588
:102D180008850C82850D83A3E0C0E0122A17D0E055
:102D2800122DDD85820C85830D780C1219657404CB
:102D380012174612197C851082851183122DD41220
:102D480017118A0C8B0DAE0CAF0D85080C7401257C
:102D58000CF874033400F9EE4F7003022C0F851839
:102D680082851983E088828983122DDDA3E0C0E083
:102D7800122A17D0E0022C1DE509700375090A858F
:102D88000A82850B83122D9A123120A90974040234
:102D98002A0F123943851282851383227CFF7D0214
:102DA800850A82850B83122DB222E0FAA3E0FB226A
:102DB800122DB21206D2E9F50922900300E0F5F0CF
:102DC800E508849002FFF07CFF7D0222122A471258
:102DD80006F0740422F00508851882851983227488
:102DE800EC12175274FE1216FB8A088B098C0E8D92
:102DF8000FEA2405FEEB3400FF122FF0EE24181220
:102E0800361BEA450B7003022E93122FD950291254
:102E18002EB88A108B11EA4511606B7912AC0AAD95
:102E28000B850882850983122DAE85108285118352
:102E3800121750E9F50A7058E4F50AF50B780A12EA
:102E480019658E828F83A3A3E0F50A780A121965A3
:102E5800EE2403123100780A1219658E828F8312CC
:102E68002EC512080A7406121711E9F50A70218591
:102E78000C82850D83E0701F850882850983122DD9
:102E8800AE1204748011750A0E8009750A01800457
:102E9800E50A6003123113850C82850D83E0600416
:102EA80079008002A90A74021217117F0C021824F3
:102EB800851882851983122DB21207F82212310E55
:102EC800FD850882850983122DB22274EE121752ED
:102ED80074FE1216FB8A088B098C0C8D0DEA2405EA
:102EE800FEEB3400FF750E00122FF0EA450B70035D
:102EF800022FB7122FD9502C122EB88A0E8B0FEA38
:102F0800450F604A7912AC0AAD0B850882850983A2
:102F1800122DAE850E82850F83121750E9F50E60CB
:102F280003022FBA8508828509831231F5AA0AFBA4
:102F3800122FCB70147AFF7BFF122FCB606C888224
:102F48008983E50AF0A3E50BF0750A008007750E82
:102F58000E805F050A9002E5E0FAE50AC39A504A36
:102F6800E50A75F017A4FAABF088828983A3A3E079
:102F78002AFAA3E03BFB8A828B83123109EC4D705D
:102F8800D2750A17750B00780A121965EEFCEFFD69
:102F980012101A7402121711EEFCEFFD85088285D3
:102FA8000983122DAE12047A8014750E09800375F8
:102FB8000E0112393B850C82850D83123120A90E32
:102FC800022B5A1207EC8A108B11A810A911E84994
:102FD80022E5082402F508E5093400F5098A828B00
:102FE80083A3A3A3E0A2E522851882851983AC8276
:102FF800AD838E828F831230068A0A8B0B22E0FA09
:10300800A3E0FB1206EA2274041217117F0A0218C1
:103018002474EC1217528C108D11EA2405F50CEB70
:1030280012361E750F00EA2402F50AEB12310385E9
:103038000A82F583122DAE123B4D70030230F575EE
:103048000E008071850C82850D83E06401704F8EBF
:10305800828F83A3A312197C8E828F83A3A3A3A339
:10306800E0F5127513007812121965EE2405F512B1
:10307800EF3400F5137812121965122DA812080AF8
:103088007406121711E9F50F6014850C82850D83FB
:10309800E4F012393B8510828511831231207C17A8
:1030A8007D007900EEFAEFFB1210328E828F83E4F6
:1030B800F0A3F0050E9002E5E0F8E50EC398501E67
:1030C800E50E75F017A4F8A9F0850882850983A391
:1030D800A3123AB3123109EC4D600302304C850853
:1030E8008285098374FFF0A3F0E50F7006122DA8FE
:1030F800120480A90F022EB3F50AEF3400F50B2253
:10310800A312310EFD22E0FCA3E0228E828F8312EF
:103118003943850E82850F83E8F0A3E9F022C08247
:10312800C0839002E1E06A7003A3E06B70067AE165
:103138007B0280047A007B0002246874F71217521D
:103148007F00EF75F003A4F8A9F0EC28F8ED39F941
:1031580088828983E06A7003A3E06B7006E8FAE965
:10316800FB800B0FEFC3940240D87A007B007F01ED
:1031780002182474F612175212372C70067A007B44
:10318800008007A3A3A3A3122DAE0237ED74F21299
:103198001752E9FE740E1217461231F57410121701
:1031A8004612365D8C828D83E06402703BA312392F
:1031B8003F88828983E0F50CA3E0F9A80C740268C3
:1031C80070037429697021750C02750D00780C1252
:1031D80019657808121965780A121965EEF9120846
:1031E8002E74061217118002790102385DE0F50A83
:1031F800A3E0F50B2274E812175274FB1216FBE9D0
:10320800851882851983F08A168B178C0E8D0F749A
:103218001F12174612365D74211217461231F574C3
:10322800231217461236477510008C828D83A3A38C
:10323800A3E0A2E4502A741D121746122EBE8A82F9
:103248008B83E58245837003023309790AAC0EAD9E
:103258000FAA16AB17121750E9F510600302330CCA
:10326800850E82850F83E0640260030235C2A312D3
:10327800393F850882850983A3858212858313E5F2
:103288000E2406F50CE50F12361E88828983E0FAB3
:10329800A3E0F9EA2400F514E439F51578141219B5
:1032A800EF010000280128D13207000228A83303C3
:1032B8002818330029D2340129FA340229A1340309
:1032C80029D23404296335C235EE4F703E850C820D
:1032D800850D83123638FAE9FB8A828B83E0850AEA
:1032E80082850B831236741219658A828B83A31226
:1032F800310EFDAA08AB0912101A740212171180B8
:103308000375100EA9107405023AA175100B80F40C
:10331800EE4F70F7850A82850B837401F012364DE3
:10332800850882850983F07C007D00850E82850FE3
:1033380083A3A3A3A3E02401FAA3E03400FB1206AD
:10334800EAEA4B60418A828B83E02402F8850A828C
:10335800850B83E028F0EA2404F8EB3400F988822E
:103368008983E08512828513831236861236741299
:1033780019658A828B83123108E5082403FAE50966
:103388003400FB0232FF850A82850B83E02404F0B7
:103398007C047D007900AA12AB1312103202330CA0
:1033A800EE4F600302331312364DFEA3E0FF850A89
:1033B80082850B837404F0EE850882850983F0EF1B
:1033C800851282851383F07403121746AC82AD838D
:1033D800EEFAEFFB12371A700302347E8A828B836F
:1033E800A3A3123643740112174685820E85830FF4
:1033F800780E121965740512174612197C7CFF7D28
:10340800FF1206F074041217118B0FEA450F703380
:10341800850C82850D83123623121965850C8285E9
:103428000D83A312197C7C027D007A8D7B92120594
:103438001C7404121711E9700A740112174674FFFC
:10344800F0A3F08E828F83E064027034750C0275ED
:103458000D00780C1219658E828F83123108E508E9
:103468002404FAE509122A34121711850A82850BF9
:1034780083E0240280097401121746EEF0A3EFF0EE
:103488007401121746123634F07401121746A3124B
:10349800362CA3A3A3F002330CEE4F6003023313C0
:1034A800850C82850D83123109AA16AB17120822E2
:1034B800850A82850B837402F0EA85088285098370
:1034C800F0851282851383EB80CBEE4F60030233C5
:1034D8001312364DF8A3E0F9850A82850B8374022E
:1034E800F0E8850882850983F0E9851282851383CF
:1034F80080A3850C82850D83122DAE121014EAFC70
:103508008C82A882C39EE49F404BE86E7001EF70E6
:10351800047C00801F851882851983E0FAEE2AFA58
:10352800EF3400FBC3EA98EB94005003E08004EE0C
:10353800CCC39CFCEC850A82850B83F08C0A750B46
:1035480000780A121965850C82850D83E02EFCA38C
:10355800E03F0232FA75100702330CEE4F600302A7
:103568003313850C82850D8312393F850A82850BBA
:10357800837407F08882898312362C123614E0850A
:103588001282851383F0E82402FAE93400FB8A8268
:103598008B8312362C123665123634A312366E120D
:1035A800363DF0E82405F8E93400F9888289831269
:1035B800363DA3123686A302349A741D121746129A
:1035C8003725700302330912393F880C890DE84505
:1035D8000D70030233098E108F1178101219657857
:1035E8000A12196578081219657406121746E0F967
:1035F800AC0EAD0FAA16AB17850C82850D8312177A
:10360800507406121711E9F51002330CF0888289FC
:1036180083A322F50CEF3400F50D22E0F50E750FAB
:1036280000780E22E08508828509832212368D22D1
:10363800123943E82212368DA3A322A3A3A3A3E041
:10364800FEA3E0FF22850C82850D83E0F8A3E0F558
:10365800838882E022E0F508A3E0F50922A3A3F01D
:103668008A828B83A322122320A3A322F08A828B2F
:103678008312367D22E0F50A750B00780A2212368D
:103688001412368D22E0850882850983A3A322744B
:10369800EE12175274FE1216FB8A0A8B0BECFAED27
:1036A800FB7414121746E0F510A3E0F51174161216
:1036B8001746E0FE7418121746E0F50EA3E0F50F62
:1036C800851882851983AC82AD8312371A603E85CE
:1036D8001882851983123725602FA3A312365DE55A
:1036E8000845096024780E1219657810121965EEDC
:1036F800F9AC0CAD0DAA0AAB0B85088285098312BB
:10370800175074041217118006790E80027901028D
:103718002B5A1206EA8A0C8B0DEA450D22122DB29D
:1037280012372C221207B68A828B83E582458322C0
:1037380074F612175274FE1216FB740C1217461206
:103748003638851882851983F07401121746E9F016
:10375800E4F508F509780812196575080278081261
:10376800196574041217468582088583097808123A
:10377800196512080A7406121711740212171180BB
:103788006474F7121752EAFEEBFF89087C187D0370
:10379800120822EA5402600BA908EEFAEFFB12069F
:1037A800DE8002790102317674F612175274FF6ACC
:1037B800700374FF6B701C7B00EB75F003A4F8A911
:1037C800F0EC28F8ED39F91237F20BEBC3940250FC
:1037D8001480E61207F28A088B09A808A909E849A3
:1037E80060031237F27F020218248882898374FFEB
:1037F80012231EE4F02274F61217521207F28A827C
:103808008B83E58245836006A3A3E0FA80027A00F1
:103818007B0080D174F21217528A088B09ECFEEDF6
:10382800FF740E121746E0F50A123862701CEEFC9F
:10383800EFFD7AFF7BFF12386270047911801688D9
:10384800828983E508F0A3E509F088828983A3A328
:10385800E50AF079007F060218241207F28A0C8B19
:103868000DA80CA90DE8492274EE121752EAFEEBD6
:10387800FF8C088D09890C741212174612393F748F
:10388800141217461231097416121746122DAE7506
:103898000D00EC4D60030239337402650C600302BD
:1038A800392E8882898312310EF9EC2400F50EE452
:1038B80039F50FEAF4F8EBF4F9EC58F8E50F59F993
:1038C800E849705DE5082406F8E5093400F9880A36
:1038D800890B8882F583122A431208228A108B11D9
:1038E800E50E65107004E50F65116042780E121937
:1038F80065850A82850B83122A43120828740212EE
:103908001711E9F50D7027780E121965850882855B
:103918000983A3A3122A41120840740212171180C6
:103928000D750D808008750D0D8003750D0BA90DA3
:103938000230148E828F8312394322E0F8A3E0F913
:103948002274E812175274E71216FB85188285193B
:1039580083EAF0A3EBF08C168D17890E74311217D9
:1039680046E0F512A3E0F5137433121746E0F51498
:10397800A3E0F5157435121746E0F50F75080075C4
:103988000900E50975F003A4F8A9F08518828519DE
:1039980083123AB3E0F47003A3E0F47003023A919F
:1039A800EE2402F50CEF123AA9E07003023A918571
:1039B800160A85170B780A121965AC14AD15AA12E8
:1039C800AB131207AA74021217118A0A8B0BEA4565
:1039D8000B7003023A91E4F510F51178101219658D
:1039E800740612174685821085831178101219659E
:1039F800740912174685821085831178101219658B
:103A0800851282851383A3A3A3A312197C7914AC0E
:103A18000AAD0B8E828F83123AC7121711E97069AB
:103A2800850A82850B83A3A3A3A312393F740212CC
:103A38001746123120850C82850D83E0A2E05018CC
:103A4800A90E7402121746AC82AD838E828F831240
:103A58002DAE120702E94208850C82850D83E0A28B
:103A6800E15026E50FF50A780A121969A90E7403C0
:103A7800121746AC82AD838E828F83122DAE12064A
:103A8800FC7401121711E942080509E509C39402FB
:103A9800500302398AA90874191217117F100218E5
:103AA800243400F50D850C82F58322E028FEA3E07E
:103AB80039FF8E828F83227916850A82850B8312BD
:103AC8002DB212080474082274F2121752EAFEEB9F
:103AD800FF890B7401650B600E7402650B706379C6
:103AE80001120A1AE9705BEEFAEFFB123B4D6047D0
:103AF800750A00800B7C177D007900121032050AC8
:103B08009002E5E0F8E50AC3985021E50A75F01738
:103B1800A4F8A9F0850882850983A3A3E028FAA35D
:103B2800E039FB8A828B8312246F70C985088285ED
:103B3800098374FFF0A3F07C187D03EEFAEFFB1203
:103B4800081C02385D1207EC8A088B09EA4509222D
:103B580074F21217528A088B09ECFEEDFF740E12EC
:103B680017461231F5900A03E0F4603D7A097B00AC
:103B7800121044EA4B60328A828B8374B1F0A3E45A
:103B8800123667A3123665A3E508F0A3E509123BD0
:103B9800B4EEF0A3EF123BB4A3A3E50AF0A3E50B40
:103BA800F0900A03E0F912105002385DF08A828B17
:103BB80083A3A3A3A3A32274F4121752E9FF7E00E0
:103BC8008A088B0978081219A900040D703DF23B88
:103BD8000E3C233C383C4D3C623C7E3C973CA93C27
:103BE800D73CF93C153D313D4F3D74016F70128C47
:103BF800828D83E0C394035008E0900AEFF0023D01
:103C08008E7E18023D8E74026F70F68C828D831240
:103C180044CC900AF0E8F0A3E980E274016F70E107
:103C28008C828D83E0C3940250D7E090078180CDC9
:103C380074016F70CC8C828D83E0C3940550C2E010
:103C480090078280B874016F70B78C828D83E0C34F
:103C5800940250ADE090078380A374106F70A27532
:103C680008108E0978081219657A847B0712489023
:103C7800121711023D8E74016F70868C828D83E05D
:103C8800C394024003023C09E0900794023C057487
:103C9800016F6003023C098C828D83E0900AF380F7
:103CA8008D74046F6003023C0990924B78081215DA
:103CB800CB8D838C8278081213ED4003023C098C6B
:103CC800828D831215E99007961215F5023D8EEF45
:103CD8006003023C0912068AE9700E1211A6795097
:103CE80012131412119A023D8E9008297401023C95
:103CF8000574016F6003023C098C828D83E0C394D4
:103D0800024003023C09E0900795023C0574016FEC
:103D18006003023C098C828D83E0C3940A4003024D
:103D28003C09E0900AF2023C0574016F6003023C12
:103D3800098C828D83E024F9C3940A4003023C096C
:103D4800E0900AF4023C0574016F6003023C09909C
:103D58000828E0F88C828D83E0900828F0E8702627
:103D6800E064017021023CEBC3EA9426EB94005016
:103D78001374026F700E8C828D831244C61205284C
:103D8800E9FE80020E0EEEF9023D98740E1217112C
:103D98007F0402182474F012175274CC1216FB8C8C
:103DA8000A8D0B7444121746E0FE7420121746ACB5
:103DB80082AD837583917582C0740612160E7420C5
:103DC800121746AC82AD8312114CE9F508C3940A68
:103DD8004003023F0175F006E9A4F509742612179D
:103DE80046AC82AD837A0E742025091249487009C1
:103DF8007432121746E0FF80027F00900AEFE064F9
:103E080002700474018001E4F50D780D121969EE51
:103E1800FDEFFCA908AA0AAB0B1211D07401121706
:103E2800117C147D007900740C121746AA82AB83AA
:103E3800121032740C121746AC82AD837A107424B7
:103E4800250912494870377C1079FF740C121746FF
:103E58001246757029741C121746AC82AD837A0419
:103E680074252509F912130E740C121746AC82AD8D
:103E780083EFA2E0E433F9AA0AAB0B1205B2851866
:103E880082851983AC82AD837A0C74702508124937
:103E9800487055851882851983AA82AB8312117CD4
:103EA800750800E50875F003A4F8A9F0851882855F
:103EB8001983E58228F8E5831246B11244C6EC4D11
:103EC800601D88828983A3A3E0F50E750F00780E24
:103ED800121965AA0AAB0B12081074021217110501
:103EE80008E508C3940440BBEFA2E1500C9007809A
:103EF800E0F9AA0AAB0B12081674046E702A900A2D
:103F0800EFE064027022900794E060047A01800276
:103F18007A00900781E06004780480027800E84A1B
:103F2800F9AA0AAB0B120672790074341217117FC2
:103F38000802182474F0121752EAFEEBFF8C088D61
:103F480009750A0AE9600C14600914602E14607F70
:103F5800023FE212118EE9F50AC3940A507CE50883
:103F680045096076750E06750F00780E121965EE14
:103F7800FCEFFD12488C121711805F750B00750E4F
:103F880006750F00780E121965EEFCEFFDE50B754E
:103F9800F00EA4F8A9F074A228FA740739FB1210DD
:103FA8002C7402121711E9601B850B0AE50AC394E9
:103FB8000A5027E50845096021AA08AB09A90A1291
:103FC80011888016050BE50BC3940A500D80AF12BB
:103FD8001194E9F50AC3940A40D9A90A023F377433
:103FE800F4121752890875091574FF6A700374FF73
:103FF8006B70277E00AC087A027B00EEF912116A1A
:10400800E960037509000EEEC3940A40E8E508600C
:10401800497ABE7B11120A2C8040120A0E8A0A8B3A
:104028000BAE0AAF0BEE4F602E7C007D00EE240530
:10403800FAEF3400FB8E828F831240DE500CAC08FE
:104048007A027B0012116A750900E508600CEEFA25
:10405800EFFB1211BE8003750914A909023D98747B
:10406800F2121752ECFEEDFF740E1217461244B905
:1040780075081574FF6A700374FF6B702175090069
:10408800AC0AAD0BEEFAEFFBA909121170E9600357
:104098007508000509E509C3940A503580E2120A3B
:1040A8000E8A828B83E582458360237C007D00E550
:1040B800822405FAE5833400FB1240DE5013AC0A73
:1040C800AD0BEEFAEFFB121170750800800375084E
:1040D80014A908024EB7A3A3A3A3E0F912114CE94F
:1040E800C3940A22C082C08390079AEAF0A3EBF037
:1040F800900780E0FC7D007A257B00120528900758
:1041080080E0F912078CD083D08202012274EA126F
:10411800175274EC1216FBEAFEEBFFEE240CF514B2
:10412800EF3400F515EE240AF510EF3400F511EE22
:104138002405F50EEF3400F50FEE2409F50AEF34E7
:1041480000F50BEE2403F508EF3400F5098E828F95
:1041580083A3A3E024FA700302448224FD700302BF
:1041680043B114700302420014601024FD7003026E
:1041780043821470030243E60244A01244E5604AF5
:10418800E0F58388821244CC880C890DE8450D60DF
:1041980039851482851583E0F50E780E121969EEBB
:1041A800240BF582EF3400F583E0F9850A82850B4C
:1041B800831244C60A0A0AAB09850C82850D83124C
:1041C800175074011217110244A0850A82850B83C7
:1041D80012197C9007961215E91205C47402121779
:1041E80011E970030244A07901850A82850B8312C4
:1041F8004CDC1205BE0244A08E828F83A3858212F6
:10420800858313E0600302435B850E82850F83E09C
:10421800A2E0400302435B7C0E7D00790085188292
:10422800851983AA82AB83121032EE2408F50AEFAF
:104238003400F50B850A82F5831244E86019750C81
:1042480006750D00780C121965850A82850B83E0C6
:104258002410FCA3E0801A1244AAEA4B700302441B
:10426800A0750C06750D00780C121965EA2405FC7A
:10427800EB3400FD7402121746AA82AB83124890F1
:10428800121711850E82850F83E0A2E25004D2F046
:104298008002C2F0A2F0E433F8740C121746E0482A
:1042A800F08510828511831244E860158510828597
:1042B8001183E02410F8A3E03400F9888289838010
:1042C8000390924F780C1215CB85108285118312BA
:1042D80044E8600F851082851183E0F510A3E0F5AE
:1042E800118006751000751100850A82850B8312EE
:1042F80044E8600B850A82850B831244B9800675F1
:104308000A00750B00780C1219617810121965787B
:104318000A12196585148285158312197C8E828F7D
:1043280083A31244C1740A121746AA82AB831211DE
:1043380082740A1217118508828509831244CC9069
:10434800082AE8F0A3E9F07A017B00900780E0F9F9
:104358001210741244E570030244A01244D2700390
:104368000244A0851282851383E0FC7901124CD6A1
:104378008E828F831217500244A01244E570030204
:1043880044A0E0F5838882A3A31244CC890BE845B6
:104398000B70030244A08E828F83A3E0FC79021283
:1043A8004CD68882850B8380CB7C007D00EE24046C
:1043B800FAEF3400FB850882850983E0F912114C75
:1043C800E9F8C3940A40030244A0AC10AD117A0482
:1043D80075F006E8A42425F91213080244A09007F2
:1043E80095E0600E900AF2E0F9850882850983025B
:1043F80041F7900AEFE07004790580ED1244AA8A2B
:104408000C8B0DA80CA90DE82404F50CE93400F573
:104418000D8E828F83A3A3A3A3A3A3A3E0A2E0503E
:1044280036E8496073850C82850D83E0FE60288537
:104438000A82850B83E05410701D740E121746AC67
:1044480082AD83E82405FAE93400FBEEF912114C39
:10445800E9700479038092AC0EAD0F850C82850D4E
:1044680083E0F9124CD61211CA1244E5602A1244AC
:10447800D260257C00790002437512068AE970181B
:10448800900829E0640170081211A6900829E4F048
:10449800795012131412119A74141217117F0E0204
:1044A8001824850882850983E0FAA3E0FB120A0E26
:1044B80022E0F50AA3E0F50B22A3A3A3A3A3E0FC43
:1044C800A3E0FD22E0F8A3E0F922E0F5838882A3C7
:1044D800A3E0F8A3E0F9E8FEE9FFEE4F2290079A7F
:1044E800E0F8A3E0F9E8492274F412175274F212C2
:1044F80016FBEAFE8C0B75F006E9A42420F5088566
:104508001882851983AC82AD837A0E124948704AA5
:104518007C0612466D7043740C1217461244CCE8A0
:10452800F509E50B6005EE42098004EEF4520985B1
:104538000982AA82E86A7001E9601B740C121746A6
:10454800EAF0A3E4F0851882851983AC82AD837AFA
:104558000EA908121308790180027900023D9374AC
:10456800F212175274E61216FB890A8A088B09ECB4
:10457800FEEDFF740C12174612493B6003024621F8
:104588007C0679FF740C12174612467560030246C2
:10459800217470250AF50B851882851983AC82ADC4
:1045A800837A0C1249486003024666851882851989
:1045B80083AA82AB8312117CE508450970217C0C23
:1045C800790012466F60030246667C0C7D00790014
:1045D800851882851983AA82AB831210328061857F
:1045E8001882851983AC82AD83AA08AB09121176AB
:1045F8008A0C8B0DA80CA90DE849702CEE4F601998
:10460800851882851983AC82AD837A007B001211EC
:1046180076EAF8EBF9EA4B700479008043888289DE
:1046280083E508F0A3E509F01246EDFAEE6A700199
:10463800EF602BEEF04F700888828983E4F0A3F0D6
:10464800851882851983AA82AB8312117C8518820A
:10465800851983AC82AD837A0CA90B1213087901F2
:10466800741A024EB479FF851882851983AA82AB21
:1046780083121098E92274F71217527F00EF75F031
:1046880003A4F8A9F0EC28F8ED1246B1E06A70032B
:10469800A3E06B7006E8FAE9FB800B0FEFC3940404
:1046A80040DB7A007B000249E639F9888289832257
:1046B80074F71217527E00EE75F003A4F8A9F0EA19
:1046C80028F8EB1246B1E0F4FCA3E0F4FD888289F7
:1046D80083ECF0A3EDF01246EDF4F00EEEC3940473
:1046E80040D50249E6E82402F582E93400F583E082
:1046F8002274EE12175274F41216FBEAFEEBFF8CCA
:104708000A8D0B741E121746E0F50CA3E0F50D7424
:1047180020121746E0F508A3E0F50974221217469F
:10472800E0F510A3E0F511EE4F7005790A02481E76
:1047380012118EE9F50EC3940A4023750F007C060A
:1047480079FFE50F75F00EA4FAABF0749C2AFA74A1
:10475800073BFB1246797003024828850F0EE50EC9
:10476800C3940A400302481C75F006E50EA4F50F31
:10477800EEFCEFFD7A0E7420124839E50A450B600D
:104788000BAC0AAD0B7A1B7421124839E50C450DA8
:10479800600BAC0CAD0D7A1B7422124839E5084544
:1047A80009600BAC08AD097A107423124839E5107A
:1047B8004511601BAC10AD117A107424124839747D
:1047C80024121746AC82AD837A0474251248397CCA
:1047D8000C7D0079FF124F457A0C7470250EF91282
:1047E800130875080E7509007808121965EEFCEFB4
:1047F800FDE50E75F00EA4F8A9F0749C28FA74076C
:1048080039FB124890121711900828E06003121122
:10481800D61211C4A90E740C1217117F0A0218249B
:10482800050FE50FC3940A5003024746750E0A8028
:10483800E3250FF91213082274F412175274F212B6
:1048480016FBEAFEEBFFE9C3940A5004EE4F70042E
:104858007902802D85188285198312493BF50870E5
:104868001E750A06750B00780A121965740212176C
:1048780046AC82AD83EEFAEFFB124890121711A9ED
:1048880008023D93AA08AB0912101A74022274F4A4
:10489800121752EAFEEBFF750800750A06750B0041
:1048A800780A121965EEFCEFFDE50875F00EA4F81C
:1048B800A9F0749C28FA740739FB12102C740212A0
:1048C8001711E96004A908800B0508E508C3940AD4
:1048D80040C8790A023D9874F712175274F01216FC
:1048E800FBEAFEEBFF750800851882851983AC8208
:1048F800AD837A1075F006E508A4242312494870A0
:104908001F7C1012466D7018EEFCEFFD851882852D
:104918001983AA82AB83120594E97004A908800B55
:104928000508E508C3940A40BF790A7410121711E4
:104938000249E6AC82AD837A0E75F006E9A424201C
:10494800F912130EE92274F7121752750800E508D8
:1049580075F00EA4F8A9F0749C28FE740739FFEED0
:10496800FCEFFD7A0E75F006E508124945602C7CCF
:10497800067D0079FFEEFAEFFB1210327C067D000F
:1049880079FFEE2406FAEF3400FB121032EE240C05
:10499800F582EF3400F583E4F0A3F00508E508C3D9
:1049A800940A40AA900828E060031211D61211C494
:1049B800802C74F71217527E007F007C0679FFEF77
:1049C80075F00EA4FAABF0749C2AFA74073BFB123C
:1049D800467970010E0FEFC3940A40DFEEF97F01AC
:1049E80002182474F71217527E00EEF91211AC0E59
:1049F800EEC3940A5003E960F180E374F31217528E
:104A080074CB1216FBE9FF75F006A4F5087420258F
:104A180008FE7427121746AC82AD837A0EEE12494F
:104A2800486003024B057C0679FF7427121746126B
:104A380046756003024B057C0E7D0079FF742712D2
:104A48001746AA82AB831210327C1B7D0079FF7453
:104A58000C121746AA82AB831210327C0C7D0079A7
:104A6800FF851882851983AA82AB831210327427B6
:104A7800121746AC82AD837A0EEEF9121308E9F5E7
:104A880009740C121746AC82AD837A1B7421124B41
:104A980014FE740C121746AC82AD837A1B74221272
:104AA8004B14F50A740C121746AC82AD837A107455
:104AB80023124B14F50B740C121746AC82AD837A93
:104AC800107424124B14F50C740C121746AC82ADFA
:104AD800837A047425124B14F50885188285198386
:104AE800AC82AD837A0C74702FF9121308E9F8EED2
:104AF800450A450B450C45084842098003750900DD
:104B0800A90974351217117F050218242508F9120E
:104B18001308E92274F7121752E9900780F012116E
:104B28009A0249E674F212175274FB1216FB8A08AD
:104B38008B09EB54807003024BD0900780E0F91288
:104B4800105C8A0A8B0BA80AA90BE8FEE9FFE84962
:104B5800606CEE2404F8EF3400F98E828F83E02431
:104B680050603814600624E1604A804B888289834B
:104B7800E070448E828F83A3A3A3A3A3A3A31219D7
:104B88007C8E828F831244C18E828F83A3A3124CA2
:104B9800DC1211587402121711801C88828983E074
:104BA800641E701379008E828F83A3A3124CDC12CB
:104BB80011528003121164EEFAEFFB12104AAA0890
:104BC800E5096480FB024CD1EAA2E04003024CCD27
:104BD80090082A1244B9740312174685820C8583FB
:104BE8000D780C121965750C02750D00780C1219E8
:104BF80065750C95750D92780C1219657CFF7DFF13
:104C08007A017B001206E47406121711024CB5E40F
:104C1800F50CF50D780C1219657404121746858287
:104C28000C85830D780C1219657404121746858259
:104C38000C85830D780C1219657409121746121920
:104C48007C7902EEFCEFFDAA0AAB0B12080474088B
:104C5800121711E97035851882851983E0FA7401F5
:104C6800121746E0F9EA2400F50CE439F50DEA4597
:104C78000D6018780C1219658E828F831244C2AAAF
:104C88000AAB0B1211587402121711E4F50CF50D4A
:104C9800780C121965740512174612197C7CFF7D71
:104CA800FFEEFAEFFB1206F074041217118A0C8B50
:104CB8000DAE0CAF0DEE4F6003024C17E508640112
:104CC800FAAB0980047A007B007405024EB48508AB
:104CD80082850983E0FAA3E0FB22C082C0839007A3
:104CE80080E0F98A828B83A3124CDC1208160241F9
:104CF8000EC082C08374FF1216FB1211A0E9C39480
:104D080002851882851983400474028002740AF0AF
:104D1800AC82AD837A0179051206A27401121711CB
:104D280002410E74F212175274E81216FBEAFEEBF7
:104D3800FF890A8C088D097C187D007900124F4D77
:104D4800EEF0A3EFF0900782E0C0E074021217467D
:104D5800D0E0F0900783E0C0E07403121746D0E07B
:104D6800F0900AF4E0C0E07417121746D0E0F0742F
:104D780015121746E054FEF8A3E0F9900AF3E0A2F2
:104D8800E0E433FAE84AF87415121746124EC3A243
:104D9800E15004D2F08002C2F0E854FDFAA2F0E437
:104DA8003333F8EA48F87415121746124EC3A2E3D3
:104DB8005004D2F08002C2F0E854F7FAA2F0E433CB
:104DC800F50C750D007403780C1216E8124EBC121F
:104DD8001746124EC3A2E45004D2F08002C2F0E893
:104DE80054EFFAA2F0E433F50C7404780C1216E8C8
:104DF800124EBC121746124EC3A2E55004D2F080E0
:104E080002C2F0E854DFFAA2F0E433F50C74057836
:104E18000C1216E8124EBC121746124EC3A2E250EC
:104E280004D2F08002C2F0E854FBFAA2F0E433F5B1
:104E38000C7402780C1216E8124EBC121746E8F0F1
:104E4800A3E9F0900783E0601B750C10780C121929
:104E5800657C847D077406121746AA82AB831248C4
:104E680090121711900794E06011E50A6009741513
:104E7800121746E04402F078018002780074141298
:104E88001746E048F0900781E060047804800278D3
:104E9800007414121746E048F0AC08AD0985188272
:104EA800851983AA82AB831205B874181217117F6B
:104EB80006021824EA450CF8741522E8F0A3E9F074
:104EC800900AF3E02274F312175274E51216FBEA03
:104ED800FEEBFF8C098D0A7428121746E0F50C7555
:104EE800F006E9A4F87408650A7004742280027454
:104EF8002128F50B7C1B7D007900124F457A1BA9F0
:104F08000B1249497032741A121746E024F9C394F7
:104F18000A5025E50CF50B780B1219697401121764
:104F280046AC82AD83E509A2E0E433F9EEFAEFFB83
:104F38001205CA7401121711741B024B0C124F4D43
:104F4800AC82AD8322851882851983AA82AB83122D
:104F580010328518828519832274F71217521208A5
:104F680088750800E50875F00EA4F8A9F0749C2867
:104F7800FE740739FF7C0679FFEEFAEFFB124679DB
:104F88007009EEFAEFFB790012088E0508E508C3F0
:104F9800940A40D00249E6C082C0839061907404AC
:104FA800F0A37448F0A3E4F09061807440F090613D
:104FB800BC7407F09061877469F09061B67416F05C
:104FC8007900120B0A7902120B109021DCE493F499
:104FD8006006E493F9120AE67905120DFE0253E120
:104FE800C082C083E9540FF9906185E0696012E5D9
:104FF800C654804449F5C6E59E547F644970F8E973
:10500800F053C680E59E547F70FA0253E174F7129C
:105018001752E5A8FE53A87E120AF2C2BA539AFEA6
:10502800C289759B00C2C2120AF875A91175B90523
:10503800120AFED2BA439A0174805E42A802596EDF
:10504800C082C083906181E4F0A30253DE75E90059
:1050580075910075BF00020122C082C083906181F2
:10506800E4F0A374C0F0A3E40253E0C082C08374E8
:10507800F81216FB9003C4125850E8497003025105
:105088002A9003C4E0544060237908851882851962
:1050980083AA82AB83120C00851882851983AA82A1
:1050A800AB831208AC9003C4E054BFF0E0548060B6
:1050B80010790C7A807B05120C009003C4E0547FB1
:1050C800F0E0A2E05008790012513254FEF0E054AA
:1050D800026008790112513254FDF0E0540460086E
:1050E800790012513D54FBF0E05408600879011230
:1050F800513D54F7F0E054106008790212513D54C4
:10510800EFF0E054206008790312513D54DFF0A31A
:10511800E05401600D120B1C1208BE9003C5E05448
:10512800FEF074081217110253E1120B0A1208B2AA
:105138009003C4E022120B101208B89003C4E022B6
:10514800C082C083E9600514602A804F90619A7418
:1051580033F0A37455F09061A0743AF090055CE0C8
:1051680064017009C2919003C67467802D9003C6CC
:105178007461802690619A743FF0A3745AF090612C
:10518800A0747FF090055CE064017009D2919003EF
:10519800C6747180059003C6746AF00253E1C08238
:1051A800C083E9600B14600D14600F146011802037
:1051B8009021E080159021E180109021E2800B90F1
:1051C800055CE0640160F39021E3E493906186F06C
:1051D8000253E174EE12175274F41216FB8518820A
:1051E800851983AC82AD837583927582237404120A
:1051F800160E9021E093F4600302536D907808E056
:10520800C39402500302534D7404121746AC82AD86
:105218008375839175829F740812160EF97AFF7B45
:10522800FF7FFF7E008982858210801874086E7067
:105238000302530274096E7003025302740A6E70FB
:1052480003025302E510C333FCE433FD7404121760
:1052580046E5822CF582E5833DF583E0F50EA3E073
:10526800F50F8E08750900740278081216E874485C
:105278002508FC74783509FD8C828D837808121511
:10528800CB7408780812150C85080C85090D8C82DA
:105298008D8378081215CB7418780812150CE50C54
:1052A8004508F508E50DF509C3E50E9508E50F95E0
:1052B800098C828D8378081215CB8C828D837808AF
:1052C8001215CB74187808401412150CE50C450813
:1052D800FCAD0DE50EC39CFCE50F9D800F12150C6F
:1052E800E50C4508C3950EFCE50D950FFDC3EC9A3A
:1052F800ED9B5006ECFAEDFBEEFF0EEEC394135057
:105308000302523474FF6A700374FF6B602D8F08B8
:10531800740278081216E87448125FFC747835092C
:10532800F58378081215CB851882851983E58225BF
:1053380010F582E583125D89E508F009E9C3940454
:10534800500302522575080175090078081219657D
:105358007402121746AC82AD837A787B0812121851
:105368007402121711740C1217117F0A021824C044
:1053780082C083906186E0F89021E3E49368700925
:105388009021E2E493906186F09061AE7468F0A396
:10539800746AF090624574FBF0A304F053F4FD4383
:1053A800FE0290055C7401F09061A0E0643A70041C
:1053B800790080027901120B0A0253E1C082C0838E
:1053C80090050EE06401700A900513E06004790C02
:1053D800800279008003F0A3F0D083D082020122FA
:1053E800C082C08375E1F1900511E0604D1460083A
:1053F8001460511460498051120B2E900507E0F992
:105408007A087B05120D809092471215E9120DB6A5
:105418009092071215E9120D8C900512E0F9120D01
:10542800987901120DF2900505E02416125576744C
:1054380046F0A3740BF07900809F120B3480BC12E5
:105448000B3A80B7120B4080B2791280EB74F412D9
:10545800175275D90D9004F6E0A2E0E4331313F85F
:105468001254E2484401F5D9780012556040FB789F
:1054780000880874F7125FFC740412556A40F275CC
:10548800E1959004F6E0F97AF77B04120D86900A0C
:105498002574BCF0A3740A1255851255A512559CA3
:1054A8001256DD1254EC78081215CB909243780806
:1054B80012155790920F78081215A5125570780892
:1054C8001215DA900505E024141255767413F0903D
:1054D80003C27402F07F04021824900507E0C43365
:1054E8003354C022900505E0F8A3E0F5838882A331
:1054F800A32274F61217521256AE8AD978001255A2
:105508006040FB78008006125614125760E8C39971
:1055180040F51256A012556040FB78008008125FD3
:10552800F87405125760E8C39940F375E195900A3D
:105538002574C8F0A3740A12558512558F1215E9FF
:105548001255701215F5900505E02414125576745D
:1055580012F09003C202594B880874082508F58296
:1055680074051258BC940622900505E0240EF8A391
:10557800E012557D223400F988828983221256C6AA
:1055880074C2F0A3740A221255A512559C1256E152
:1055980090924F22F0A374DAF0A3740A221255A94C
:1055A800221255AD22F0A3746CF0A3740C2274F689
:1055B8001217521256091254E24402F5D978001211
:1055C800556040FB78008006125614125760E8C3F5
:1055D8009940F575E195900A2512561FF0A31256C9
:1055E8001F1255921215E91255701215F5900505FE
:1055F800E024141255767414F09003C2740402590E
:105608004D900517E0F9740729F5D9228808741810
:105618002508F58274052274D412562C12562CF0E3
:10562800A3740A22F0A3740AF0A374D42274F612A5
:1056380017521256AE74064AF5D9780012556040D2
:10564800FB78008006125614125760E8C39940F59B
:105658001256A012556040FB78008008125FF8745B
:1056680005125760E8C39940F375E195900A2574CF
:10567800CEF0A3740A1256BC12558F1215E91255B2
:10568800701215F5900505E024141255767415F07E
:105698009003C2740302594D90053712560C7404D6
:1056A8004AF5D9780022125609900507E0C4333329
:1056B80054C0FA221256C6746CF0A3740C22125607
:1056C800CA221256D7746CF0A3740C1256D7221241
:1056D80055ADF0A3221256E122F0900A33746CF013
:1056E800A3740C1256CA746CF0A3740C1255A9F06A
:1056F80022C082C0831254ECA3A3A3A3E40253DE06
:1057080074F712175212623EF8740339F9E8240547
:10571800FAE93400FB8A828B83125FAD8882898321
:10572800A3A3A3A3A3A3A3A3A3ECF0A3EDF0888250
:105738008983A3A3A3A3A3A3A3E024FFF8A3E0342E
:10574800FFF98A828B83E8F0A3E9F002596E880892
:1057580074602508F5827405125ED4F5D90822EA2A
:10576800FEEBFF9061D0E0F87480C398FAEE2483D2
:105778002212577F940422125D97E0F5D90AEAC3F2
:105788002274F6121752EAFEEBFF9061D0E07075B2
:1057980075D90E75D90375D9047A008A08EE2508DB
:1057A80012630C248C12582240F17A008A08EE25E4
:1057B8000812630C248412577940F175E195790831
:1057C800EE248C12581B24841258127C008C82AA56
:1057D80082C3E49AF895E0F9EE28F8EF39F9E8245D
:1057E8008BF582E9125ED0C0E0EE2A12630C24AB7E
:1057F800F582E9125D89D0E0F00CECC3940840CD45
:105808001258D88002790002594EFAEF3400FB1280
:105818000BF4221258127904EE2212577F940822B0
:10582800C082C08375D90275D90375D90575E1950C
:10583800EA2470F582EB12584DEA2472F582EB12D5
:1058480058EA0253E1125D9A12585422E0F8A3E094
:10585800F92274F6121752EAFEEBFF9005607406FF
:105868001258C61219657C017903125BF2121711DE
:1058780075D90675D90378001258AC40FB75E195C7
:105888009003C2E064087017EE2470F582EF125896
:105898004DEE2472F582EF125D89E8F0A3E9F07904
:1058A8000102594E880874602508F582740512585B
:1058B800BC940522125D9AE0F5D908E8C322F07578
:1058C800086075090578082275E1957904120DBC00
:1058D800EE2470F582EF125D9A125854EE2472F598
:1058E80082EF125D9AE8F0A3E9F079012274F612CA
:1058F8001752EAFEEBFF9061D0E070437901900502
:1059080060740BF09003C2E0640770177508607547
:10591800090578081219657C010909125BF212174A
:10592800117905740129F5D975D903780080031216
:105938005756E8C39940F875E1951258D88002790E
:105948000080037401F07F0202182474F7121752C2
:10595800EAFEEBFF75D90375D90375D90DEE24DE80
:105968001259731258D07F01021824F582EF125E83
:10597800D4F5D9227F030218247401250AF5D975B4
:10598800D90378002274F5121752125A026004786B
:105998000480027800E8240BF8EAC3984041750AAD
:1059A800099005607409F079081259EB60147508BC
:1059B800607509057808121965125BEA12171175E6
:1059C8000A0D1259818003125756E8C3950A40F709
:1059D80075E1957904120DBC125B67790180027933
:1059E800008091EE24E3FCEF3400FD7A617B051220
:1059F8000BEE850882850983E022125767F8EF12BB
:105A08005FA1F583E02274F31217528A088B0912FA
:105A18005BFDFAE5082483F50AEB125ACC6004789A
:105A28000480027800E82408F8EAC3985003025A70
:105A3800C5750C06900560740CF09003DFE09005C6
:105A480061F07402C0E0F97CE07D037A627B0512A4
:105A58000BEED0E0F97CE27D03120BEE850A82851D
:105A68000B83E0601C750A60750B05780A121965CE
:105A78007C067903AA08AB09125BF2121711750CA0
:105A88000A7401250CF5D975D90378008009880AAC
:105A98007460250A12575CE8C3950C40F175E195CE
:105AA8007904120DBCE5082470F582E50912584DF9
:105AB800E5082472F582E5091258EA800279007F28
:105AC800050218243400F50B850A82F583E0227458
:105AD800F6121752EAFEEBFF125BFDFCEE2483F888
:105AE800EF125BF860047A0480027A00EA2404FA70
:105AF800ECC39A405E7A02900560EAF0EE24F5F570
:105B080082EF125B736019750860750905780812D1
:105B180019657C027903EEFA125BF21217117A0604
:105B280074012AF5D975D90378008003125756E80D
