:020000040000FA
:0600000002011D02223B7B
:03002B00021E6151
:03003300021E2F7B
:030053000222AED8
:03005B00021D8AF9
:03006B00021DD69D
:03007B00021D1C47
:100083000220EFE5C754F84401F5C77901220000C7
:100093000080FB120086B90003020107E47921788E
:1000A30008B800028004F709D8FCE479297802B87B
:1000B30000028004F709D8FCE49003C178D97909D8
:1000C3008002F0A3D8FCD9FA781A90014D7A01BACC
:1000D30000028007E493A3F608DAF9900C99AA8248
:1000E300AB8390014E78A679058015E493A3AC8287
:1000F300AD838A828B83F0A3AA82AB838C828D83A8
:10010300D8E9D9E775826D7583EC740312012F75F5
:100113008291758300740012012F75D00075813FA1
:100123007518C1751903759F00020096C09FF59F4E
:10013300E473D09F22D083D082C09FE493C0E07445
:100143000193C0E0740293F59F22011F0000000F8A
:1001530000000040000000AFFFFFFFA30000000409
:10016300000000000100000300000080000000A662
:1001730000000034100000050000000C0000001611
:100183000000000800000000000000360000000D21
:100193000100000A000000EC000000910C0000E0E8
:1001A300E6FFFF71F3FFFF20190000BD02000056B8
:1001B300FFFFFF00020000260400003AFEFFFFA934
:1001C300050000480600008F0C0000470600009061
:1001D3000C0000B7F9FFFF020000003F00000068B9
:1001E300000000100000002900000000100000FFC4
:1001F300FF110199010F1264040102E6830100005B
:10020300938302E083010000440D02D683010000C2
:10021300450D02DE83030000B60402CC8301000017
:10022300460D020202020202020202010D00000058
:10023300100102E6830100009F8302E083010000B6
:10024300700D02BA83010000BC0402E083010000C8
:10025300710D02BC830100005D8202E08301000096
:10026300720D02BE83010000418202E0830100009F
:10027300730D02C083010000ED8102E083010000E1
:10028300740D02C283010000DB8102E083010000E0
:10029300750D02C483010000FF8102E083010000A9
:1002A300760D02C683010000C98102E083010000CC
:1002B300770D02C8830100004F8202E08301000032
:1002C300780D02EE83010000790D01E803053F106C
:1002D3001B001C001D001E101F00200021041B809A
:1002E3001B001D021E301FE02000210429195A089B
:1002F3001B821B00140F1806150416190F0F00009C
:100303000000000008900190010002202801014034
:100313000006010E094849442041647652656D6F19
:1003230074650201050319C003050212180F18486A
:1003330049442041647652656D6F74650000C003C3
:1003430060EA000001830989098F0901D1090000CE
:10035300E60202192A040601120101120201120324
:10036300010E0002120E120A000302E683010000CE
:10037300998302E283010000DA0602E083010000B0
:100383009F0E02B2830100008C8302E08301000010
:10039300A30E02A883020000DC0602E08301000032
:1003A300A40E02A483030000A50E02E08301000053
:1003B300A00E02B083010000008002CE8301000082
:1003C300A10E02E083010000A60E02A68301000035
:1003D300DD0602DE83030000DE0602CC830100009B
:1003E300A70E02E083010000A90E02A6830100000C
:1003F300E40602DE83030000E50602CC830100006D
:10040300AA0E02E083010000AC0E02A683010000E5
:10041300EB0602DE83030000EC0602CC830100003E
:10042300AD0E02E083010000AF0E02A683030000BD
:10043300F20602CC83010000B00E02E0830100004B
:10044300B20E02B683010000F30602DE830300004E
:10045300F40602E083010000B30E02B4830300003C
:10046300FA0602E083010000B40E02F083010000EB
:10047300FB0602DE83030000FC0602E083010000AA
:10048300B50E02A683030000020702CC830100001D
:10049300B60EFF00013075030201060000000000E4
:1004A3000000000000000000000000000000000049
:1004B30000000000000000FFFF0600800CE80304BA
:1004C3001002E683010000908302E0830100000D27
:1004D3001002AC83020000B40702E0830100000EA7
:1004E3001002AE83000000B80702DE83030000B9E8
:1004F30007FF0000B4000028002800283075A00082
:10050300A000A000A00000080008E001F000100017
:100513001000100010001000100050005000500098
:1005230010001000D0070000000000000F000100C1
:100533000500307507001000010081FF0000FFBFB8
:100543000CDD0CC50CFF02020208025000A00000E3
:1005530000E80302E6830100009C8302E0830100BC
:1005630000941002DC83010000F00702E083010025
:1005730000951002DA83010000060802E0830100FF
:1005830000961002D883010000080802E0830100EE
:1005930000971002D483080000090802E0830100D9
:1005A30000981002D2830100009910FF0100FF2080
:1005B30002E683010000968302E083010000FD1040
:1005C30002D083000000000002DE8303000056080F
:1005D30095129512951295129512951295129512E0
:1005E3009512951295129512951223153B151D150B
:1005F30012013877CF01120138C2D0011201380E2F
:10060300D20112013804D30112013860D40112015E
:1006130038C8D40112013819D60112013870D90132
:10062300120138EBCF0212013891D0021201383295
:10063300D1021201386DD1021201384DD2021201DA
:1006430038ECD20212013884D502120138309403F7
:100653001201383A94031201387C9403120138C30F
:1006630094031201381A950312013872950312018B
:10067300389395031201389D9503120138F09503C1
:100683001201381E96031201382896031201383CD2
:100693009703120138749803120138B398031201B7
:1006A30038F898031201380A99031201382999037B
:1006B300120138329903120138EB9903120138936E
:1006C300E10312013874D303120138AAD3031201D0
:1006D300381AD40312013867D503120138ECE90341
:1006E30012013802EA031201380CEA0312013856E8
:1006F300EA031201386CA4031201387FA403120128
:10070300387BA503120138B4A50312013801A603EF
:1007130012013862A603120138C8A603120138F881
:10072300A80312013809EC03120138A4E7031201EC
:1007330038CDE70312013801E803120138159A0393
:10074300120138459A03120138589A031201388767
:100753009A03120138129B03120138079C031201FA
:1007630038689C03120138F99D03120138929E03E5
:10077300120138109F03120138AEC603120138D399
:10078300C603120138A27F00120138755900120105
:1007930038705B00120138795C00120138B55E00D5
:1007A3001201382A60001201388D6100120138B637
:1007B3006100120138086200120138486600120114
:1007C300384C68001201386B6A00120138566B000E
:1007D300120138866C00120138966C00120138231E
:1007E3006D00120138BE6D00120138D76D00120181
:1007F300389F6F00120138E5E40312013804E50362
:1008030012013822E50312013883E5031201389AF5
:10081300E50312013832E90312013843E9031201F7
:1008230038E1E903120138C5EC0312013804ED0382
:100833001201380BEB0312013822EB031201386C5F
:10084300EB03120138EDFF02120138E1E503120157
:1008530038F3E5031201380DE60312013819E603F4
:1008630012013825E603120138CAE603120138E7FC
:10087300E30312013868E403120138CCE4031201E4
:100883003876E803120138DFE80312013813E9036D
:100893001201382ED10312013861D103120138B984
:1008A300D1031201382CD20312013849D2031201A9
:1008B30038CAD20312013823D30312013837D303C2
:1008C30012013819E00312013838E003120138D855
:1008D300E00312013867E1031201387DE1031201DD
:1008E30038A4D703120138D0D70312013846D803EE
:1008F300120138C9D80312013828D9031201386EFE
:10090300D90312013871D90312013871ED031201B1
:100913003881ED0312013884ED03120138298E0367
:10092300120138488E031201387A8E03120138F30C
:100933008E031201380E8F031201383F8F03120109
:10094300383090031201386590031201388C9303F9
:10095300120138DA9303120138F87F00120138A12B
:10096300D5031201380BF9021201384EFB021201B2
:1009730038D6FB02120138DDFD02120138EDFD020B
:100983001201383CFF021201389AFF021201389D0E
:10099300FF02120138B6FF02120138BBFF02120137
:1009A3003890A902120138F1A90212013825AB02CD
:1009B30012013840AB0212013852AB021201384A1D
:1009C300AC02120138EDAE02120138D6B1021201A7
:1009D3003816B302120138F1B3021201385AB402C5
:1009E300120138BBB402120138FCB402120138FF01
:1009F300B40212013836B602120138B6C903120125
:100A030038B2CB031201381ACC0312013893DE0338
:100A1300120138EADE0312013868DF03120138DA03
:100A2300CE0312013804CF03120138DCCF031201C5
:100A330038B8D003120138E9AD0112013842B201CE
:100A43001201386AB601120138B6B7011201388AA9
:100A5300BA01120138A1BA0112013817BD011201FE
:100A630038F6BD011201381ABF01120138ACC301B7
:100A730012013856C501120138ADC501120138CF34
:100A8300C5011201384FC601120138FAC80112011B
:100A93003806CA01120138DACD01120138E2DC034B
:100AA30012013812DD031201382ADD031201387FE7
:100AB300DD0312013884DD031201385CDE03120109
:100AC300382FDB0312013846DB0312013875DB03D1
:100AD300120138AEDB03120138D6DB0312013804EE
:100AE300DC031201381BDC0312013832DC03120170
:100AF3003848DC031201386FDC0312013882DC034F
:100B030012013898DC03120138ABDC03120138D030
:100B1300DC031201385FE6021201385EE7021201BC
:100B23003893E702120138B4E702120138C4E7022E
:100B3300120138E5E702120138F1E802120138BE6A
:100B4300E90212013831EA02120138B7EA0212014E
:100B530038FAEA0212013831EB02120138B7EB021C
:100B630012013889EC02120138E7EC02120138FF56
:100B7300EC0212013879ED021201387CED02120108
:100B8300387FED0212013826EE021201383EEE02E2
:100B93001201386EEE021201388EEE021201387C19
:100BA300EF0212013832F0021201380BAE031201C8
:100BB3003833AE0312013861AE0312013898AE0325
:100BC30012013800AF0312013849AF031201389400
:100BD300AF03120138D2AF031201380FB003120171
:100BE300383DB003120138E4B003120138EEB0030C
:100BF300120138FBB0031201382EB103120138F091
:100C0300B103120138FCB10312013814B20312010B
:100C1300381EB203120138CDE603120138DBE603B6
:100C2300120138F3E6031201380BE703120138F916
:100C330070001201389771001201380F720012010F
:100C4300382473001201385E7300120138077400F0
:100C5300120138DC74001201384076001201389713
:100C630076001201381E7700120138057800120150
:100C730038527800120138E0780012013804790004
:100C8300120138D97A001201381A7B001201383C5C
:100C93007B00120138BD7B00120138A77C001201D2
:100CA300386D7D001201381D8703120138EF870369
:100CB300120138988803120138DB8803120138685F
:100CC3008903120138F48903120138D58A0312010A
:100CD30038048B03120138008C03120138488C034B
:100CE3001201384A8D031201388E8D03120138B474
:100CF3008D0312013882EA0312013840BF03120147
:100D03003856BF031201387CBF03120138A4C00355
:100D1300120138AEC00312013807C20312013807AB
:100D2300C303120138469F031201387BA00312014B
:100D330038AEA003120138F8A003120138B6A2039B
:100D430012013827DF011201388ADF01120138CF7F
:100D5300E001120138DFE00112013802E101120162
:100D6300384DE101120138F2E101120138E8E201E4
:100D7300120138B2E3011201382AE5011201386C7D
:100D8300E5011201380AE60112013857E6011201A2
:100D9300387DE6011201386BE80112013870E80171
:100DA30012013851EA01120138A5EA01120138078C
:100DB300EB011201382FEB01120138D3EB011201C1
:100DC3003895EC01120138C6EC01120138C9EC0167
:100DD30012013811ED0112013853ED01120138BA35
:100DE300ED0112013884CC0312013897CC031201B0
:100DF30038B0CC03120138FBCC03120138D6CD0333
:100E030012013865CE03120138B0CE031201384007
:100E130029001201384C29001201388529001201DA
:100E230038CA2900120138812A00120138072B0021
:100E3300120138332B001201386C2B001201388059
:100E43002D001201385C2F001201384731001201C6
:100E5300387E3200120138DE3400120138CA350000
:100E63001201381037001201381D38001201383AC8
:100E730038001201387238001201388C3800120120
:100E830038F438001201388E3D001201382F3E002D
:100E9300120138803E00120138A73E00120138F5D6
:100EA3003E00120138133F00120138673F00120160
:100EB300386F4000120138F7400012013861A9036E
:100EC3001201386BA90312013836AA0312013851F3
:100ED300AA0312013877AA03120138BBAA0312012D
:100EE30038F3AA031201381CAB0312013895AB0384
:100EF300120138AAAB03120138BFAB03120138F653
:100F0300AB031201380AAC031201383BAC031201E4
:100F13003875AC03120138A1AC03120138E6AC03F7
:100F23001201384BAD0312013894AD03120138BEE0
:100F3300AD03120138E3AD0312013854BB031201B0
:100F4300381EBC0312013801BD0312013877BD03FB
:100F5300120138B9BD03120138E6BE03120138F895
:100F6300B60212013821B7021201383AB702120150
:100F7300387FB8021201385DB9021201387CB90218
:100F830012013809BA021201384CBA021201389917
:100F9300BB0212013838BC02120138B7BE0212017B
:100FA300384EBF0212013822C00212013804C102B6
:100FB30012013870C20212013803C302120138D27F
:100FC300E2031201383BE3031201388FE3031201FA
:100FD30038B6E303120138B3B20312013820B30366
:100FE3001201386BB30312013860B4031201385C89
:100FF300B50312013846B6031201389DF0021201FF
:1010030038DFF002120138B9F10212013892F2020C
:101013001201388DF3021201386CF402120138D830
:10102300F4021201389FF5021201380AF602120186
:101033003871F6021201389CF6021201380DF702DC
:10104300120138A0F70212013809F8021201381E02
:10105300F80212013866F8021201387FF802120111
:1010630038E4F802120138E7F80212013802FD01F0
:101073001201382AFD0112013868FD0112013826D8
:10108300FE0112013891FE01120138ADFE01120179
:1010930038D5FE0112013805FF0112013814FF0192
:1010A3001201388EFF01120138B4FF01120138001A
:1010B3008002120138DD8102120138D88302120145
:1010C30038AB8402120138F68402120138418502DA
:1010D300120138538502120138938502120138C870
:1010E3008502120138148602120138438602120166
:1010F30038668602120138B386021201383C870231
:10110300120138498902120138348B0212013877EF
:101113008B02120138DC8C021201381D8D02120180
:1011230038908D02120138DC8D02120138078E02CD
:101133001201387AC302120138A5C3021201388C96
:10114300CA02120138B0CC021201386BCE0212016E
:1011530038C8CF021201385E4100120138F5410050
:10116300120138224200120138684200120138A7E6
:1011730043001201383E4500120138B84500120100
:1011830038D345001201384846001201387747002A
:10119300120138D24800120138D449001201383103
:1011A3004B001201384A4B00120138A74B001201C1
:1011B30038894C00120138BC4C001201382C4D0008
:1011C300120138A64D00120138F54D00120138C145
:1011D3004E00120138C64F00120138A5500012010B
:1011E300383051001201389E51001201381252005A
:1011F3001201383B5200120138FA520012013874BE
:101203005400120138915400120138B054001201F5
:10121300384155001201386655001201388E5500C9
:10122300120138095600120138635600120138B70B
:10123300570012013874580012013847590012013F
:1012430038328E02120138828E021201388E8E02DB
:101253001201386B8F021201389B8F02120138D3AF
:101263008F021201385290021201388A9002120141
:1012730038DC90021201381991021201383E9302B0
:101283001201386A9502120138659702120138403B
:101293009902120138B98201120138389A011201F8
:1012A30038829A0112013861A001120138E2A101CA
:1012B30012013841A8011201383CA9011201387901
:1012C300A9011201389CA901120138DEA9011201FA
:1012D30038E7A901120138F1A901120138DDAA0189
:1012E300120138D1AB01120138F383011201386BBB
:1012F3008E01120138718E011201387D95011201A0
:101303003811C303120138A7C303120138BDC30345
:1013130012013837C4031201388DC403120138CBCC
:10132300C40312013828C503120138A5C5031201ED
:1013330038AEC503120138BAC503120138CDC5034F
:1013430012013809C6031201381FC6031201387E81
:10135300C60312013808B70312013815B703120187
:10136300382FB7031201386EB703120138ACB70335
:1013730012013811B80312013826B80312013831AB
:10138300B8031201383EB80312013855B8031201ED
:101393003863B8031201386EB8031201387AB80300
:1013A30012013889B80312013894B803120138B70F
:1013B300B80312013860B90312013870B90312017E
:1013C300388AB903120138A7B903120138C3B90324
:1013D300120138E8B903120138F2B90312013806D1
:1013E300BA0312013825BA0312013886BA0312016F
:1013F300388CBA0312013892BA0312013898BA032F
:10140300120138A4BA03120138D7BA0312013806FD
:101413009C02120138889C02120138319D0212018C
:1014230038799E0212013887A0021201386DA10299
:10143300120138A2A102120138C4A1021201386DAF
:10144300A2021201383DA40212013866A40212015D
:1014530038DEA40212013810A5021201381DA502BC
:1014630012013868A5021201388CA502120138DD79
:10147300A702120138E7A80212013843A902120198
:101483003884EE0112013895EF0112013879F00129
:1014930012013883F001120138A5F001120138B1AD
:1014A300F00112013855F20112013882F2011201E2
:1014B3003898F301120138EDF3011201383CF501BC
:1014C30012013811F6011201386DF601120138D8F4
:1014D300F6011201380DF70112013850F70112011C
:1014E300381AFA0112013832FA01120138C3FA012B
:1014F300120138D1FA011201381EFB011201382CF6
:10150300FB0112013898FB0112013813FC0112018F
:10151300386AFC0112013841DB0212013863DB0235
:1015230012013874DD0212013833E0021201385D12
:10153300E1021201381BE20212013807E302120131
:101543003876D9031201389BD90312013811DA0313
:101553001201380080031201380980031201381286
:101563008003120138EA80031201389B82031201BF
:1015730038CB8203120138F6820312013826830323
:10158300120138518303120138858303120138B1E4
:101593008303120138F483031201381F84031201F9
:1015A30038668403120138BB8403120138FD8403B7
:1015B300120138578503120138828503120138D18D
:1015C30085031201380186031201382C86031201A8
:1015D300385A86031201387D86031201388CEB03D7
:1015E300120138B8EB03120138E5EB03120138EFAF
:1015F300EB03120138FFEB031201380DED03120167
:1016030038C0FF0212013853ED03E066701008A3DF
:10161300E066700A08A3E066700408A3E06622C3CC
:10162300E09608A3E09608A3E09608A3E096A2D26A
:1016330065D03322C008C3E096F50808A3E09642BC
:101643000808A3E096420808A3E0964208A2D265E0
:10165300D033E5087001D3D00822C3E7960809E721
:10166300960809E7960809E79622C3E09608A3E0DF
:101673009608A3E09608A3E09622C008C3E096F577
:101683000808A3E096420808A3E096420808A3E0EE
:101693009645087001D3D00822080808EAC0E0EB99
:1016A300C0E086F0E7A4FA180986F0E7A42AFA183E
:1016B3000986F0E7A42AFA180986F0E7A42AFA199A
:1016C30086F0E7A4FBE5F02AFA190886F0E7A42BD5
:1016D300FBE5F03AFA190886F0E7A42BFBE5F03AAC
:1016E300FA18180986F0E7A4C5F02BFBE43AFA19B7
:1016F30008E7C5F0C6A426F6E5F03BFBE43AFA1882
:1017030086F0E7A4F6E5F00826F6E43B08F6E43AAB
:1017130008F6D0E0FBD0E0FA22E4CFC0E0E4CEC08C
:10172300E0E4CDC0E0E4CCC0E075F020C3E633F6DE
:1017330008E633F608E633F608E633F6181818EC2D
:1017430033FCED33FDEE33FEEF33FFC3EC9709EDCE
:101753009709EE9709EF97191919400FFFEC97FCBA
:1017630009ED97FD09EE97FE191906D5F0BEECF7C2
:1017730009EDF709EEF709EFF7191919D0E0FCD0D5
:10178300E0FDD0E0FED0E0FF221217F41818181283
:10179300171C1217E3191919221217E3191919083B
:1017A3000808E618181820E7E012171C1217F41897
:1017B300181822090909E719191920E7DC0808088C
:1017C300E618181820E70302171C1217F418181844
:1017D30012171C1217F41818181217E319191922E3
:1017E300E4C397F709E497F709E497F709E497F750
:1017F30022E4C396F608E496F608E496F608E4961F
:10180300F6226017080808C6A2E713C618C613C64F
:1018130018C613C618C613C6D5E0E9226016080811
:1018230008C6C313C618C613C618C613C618C613EC
:10183300C6D5E0EA227009080808226016181818AD
:10184300C6C333C608C633C608C633C608C633C6BE
:10185300D5E0EA22E627F60809E637F60809E6376F
:10186300F60809E637F622E026F608A3E036F6087E
:10187300A3E036F608A3E036F622E026F008A3E05C
:1018830036F008A3E036F008A3E036F022C3E6976B
:10189300F60809E697F60809E697F60809E697F6C3
:1018A30022C3E0C696F608A3E0C696F608A3E0C6F0
:1018B30096F608A3E0C696F622C3E096F008A3E0E6
:1018C30096F008A3E096F008A3E096F022E056F61F
:1018D30008A3E056F608A3E056F608A3E056F6225E
:1018E300E056F008A3E056F008A3E056F008A3E0A2
:1018F30056F022E0F608A3E0F608A3E0F608A3E01A
:10190300F622E6F008A3E6F008A3E6F008A3E6F063
:1019130022E0FAA3E0FBA3E0FCA3E0FD22EAF0A3AC
:10192300EBF0A3ECF0A3EDF022CAC0E0E6F0A308CD
:10193300DAFAD0E0FA22CAC0E0E0A3C582CCC582BD
:10194300C583CDC583F0A3C582CCC582C583CDC570
:1019530083DAE6D0E0CA22C3E498F8E499F91219CD
:101963009B8026C3E49AFAE49BFBE920E7E912197A
:101973009BE498F8E499F922C3E498F8E499F912FE
:10198300199BE498F8E499F9C3E49AFAE49BFB22DF
:10199300EB20E7CFE920E7E0B90010BB0008E88AB5
:1019A300F084F8AAF022E4FBC8FA22EB70227B1041
:1019B300C833C8C933C9335007C39AC3DBF280069F
:1019C3009A50012ADBEAC833F4C8C933F4C9FA22AE
:1019D30075F008E4C833C8C933C933C99AC99B50E1
:1019E30004C92AC93BD5F0ECFBC833F4C8E4C9FAEF
:1019F30022600D08C6A2E713C618C613C6D5E0F3C6
:101A030022600C08C6C313C618C613C6D5E0F42259
:101A1300700422600D18C6C333C608C633C6D5E0AA
:101A2300F41822251810AF08F5184002151980087C
:101A3300F51840021519D2AF22C0D0251810AF08EF
:101A4300F518500205198008F51850020519D2AF90
:101A5300D0D0222518F58210AF08F51840021519C9
:101A63008008F51840021519D2AF8519832225186D
:101A7300F582E43519F58322E4732518C582C0E0A5
:101A8300E51934FFC583C0E0E518C3958224F81037
:101A9300AF08858319858218800885831985821884
:101AA300D2AFCEF0A3E520F0A37808E608F0A3DEDA
:101AB300FAEFF0A3E58124FAF8E608F0A3E608F0CC
:101AC300A3E608F0A30808E608F0A3E608F0A315C8
:101AD300811581D0E0FED0E0F8158115811581E8EC
:101AE300C0E0EEC0E0222518C582C0E0E51934FF4E
:101AF300C583C0E0E518C3958224F910AF08858338
:101B0300198582188008858319858218D2AFCEF093
:101B1300A3E520F0A37808E608F0A3DEFAEFF0A32C
:101B2300E58124FBF8E608F0A3E608F0A30808E63D
:101B330008F0A3E608F0A315811581D0E0FED0E0FC
:101B4300F815811581E8C0E0EEC0E0228519838590
:101B53001882E0A3FEE0A3F5207808E0A3F608DFEF
:101B6300FAE0A3FFE0A3C0E0E0A3C0E0E0A3C0E08D
:101B7300E0A3C0E0E0A3C0E010AF0885821885832E
:101B8300198008858218858319D2AFD083D0820249
:101B93000135851983851882E0A3FEE0A3F520783B
:101BA30008E0A3F608DFFAE0A3FFE0A3C0E0E0A3A8
:101BB300C0E0E0A3C0E0E0A3C0E010AF0885821856
:101BC3008583198008858218858319D2AFD083D085
:101BD300822274048006740280027401C0E0F4045B
:101BE300121A56D0E012192C227404800474028055
:101BF30000CCC0E0EDC0E0E518C39CCCAD195001AA
:101C03001D10AF068C188D1980068C188D19D2AF54
:101C1300121939D0E0FDD0E0FC22D083D082E9C094
:101C2300E0E493A3C386F0C5F095F0F908E493A329
:101C330086F0C5F095F0700BE493A3C3994005E9D2
:101C4300048002A3E475F002A42582F582E5F03551
:101C530083F583D0E0F9E493A3C0E0E493C0E022EA
:101C6300D083D082ECC0E0EDC0E0E493A3FCE49326
:101C7300A3FDED4C600D121CAFEC24FFFCED34FF13
:101C8300FD80EFE493A3FCE493A3FDED4C600D1200
:101C93001CEEEC24FFFCED34FFFD80EFD0E0FDD023
:101CA300E0FCE493A3C0E0E493C0E022C0E0C3E41B
:101CB3009396087401939618400FE493667008088E
:101CC300740193661870007019A3A3C3E493960874
:101CD3007401939618A3A3400DD0E0D0E0D0E002A6
:101CE3001C9FA3A3A3A3A3A3D0E022C0E0C0F088BA
:101CF300F0E4936670080874019366187000A8F006
:101D0300A3A3700BD0F0D0E0D0E0D0E0021C9FA3DF
:061D1300A3D0F0D0E02295
:101D1C00C0E0C0D0E8C0E0E9C0E0EAC0E0EBC0E061
:101D2C00ECC0E0EDC0E0EEC0E0C082C083C0F0A229
:101D3C00AFE433FED2AFE58AA2E25018E58DA2E201
:101D4C005012538DFB539AEF7A007B0190059DE066
:101D5C00F9120695758A00C2EBEEA2E092AFD0F0B4
:101D6C00D083D082D0E0FED0E0FDD0E0FCD0E0FB10
:101D7C00D0E0FAD0E0F9D0E0F8D0D0D0E032C0E03A
:101D8C00C0D0E8C0E0E9C0E0EAC0E0EBC0E0ECC0E5
:101D9C00E0EDC0E0EEC0E0C082C083C0F0E5A8FE7C
:101DAC00D2AF120881EEA2E792AFD0F0D083D082EE
:101DBC00D0E0FED0E0FDD0E0FCD0E0FBD0E0FAD0EB
:101DCC00E0F9D0E0F8D0D0D0E032C0E0C0D0E8C02C
:101DDC00E0E9C0E0EAC0E0EBC0E0ECC0E0EDC0E060
:101DEC00EEC0E0C082C083C0F0A2AFE433FED2AF3D
:101DFC00E589A2E150031208F9758900C2C5EEA26B
:101E0C00E092AFD0F0D083D082D0E0FED0E0FDD015
:101E1C00E0FCD0E0FBD0E0FAD0E0F9D0E0F8D0D094
:101E2C00D0E032C0E0C0D0E8C0E0E9C0E0EAC0E0F9
:101E3C00EBC0E0ECC0E0EDC0E0C082C083C0F0E5D8
:101E4C008BA2E050031208F9758B00C2E8D0F0D0D9
:101E5C0083D08280B7C0E0C0D0E8C0E0E5A8D2AFA4
:101E6C00C2C7751A00A2E792AFD0E0F8D0D0D0E08C
:101E7C003274F5121AE9EAFEEBFFEE2434F8EF3473
:101E8C0000F988088909EE2435F582EF3400F583D2
:101E9C00E0F8EE2437F582EF3400F583E0F50AEC38
:101EAC00850AF0A4FCAAF0850AF0EDA42AFDE82C22
:101EBC00F8E43DF97A257B0012199BEA85088285A6
:101ECC000983F05407F87401B800028004C333D8B6
:101EDC00FCC0E0E0131313541FF8EE28F8EF3400A5
:101EEC00F9E8245DF582E93400F583D0E0F8E05898
:101EFC006008EE2434F582EF801EEE2436F582EF76
:101F0C003400F583E0F5F0EA84A8F0EE28F8EF341D
:101F1C0000F9E82438F582E93400F583E0F97F0410
:101F2C00021B9574F5121AE9EAFEEBFFEE2434F568
:101F3C0082EF3400F583E0C0E0EE2435F582EF3417
:101F4C0000F583D0E0F08E828F83A3A3A3A3A3A379
:101F5C00A3C082C0838E828F83A3A3A3A3A3E0F824
:101F6C00A3E0F9D083D082E0C398F508A3E099F5FB
:101F7C0009EE2480F582EF3400F583E0640170698A
:101F8C00EE2481F582EF3400F583E0F8A3E0F98EBE
:101F9C00828F83A3A3A3A3A3A3A3E0FCA3E0FD8E42
:101FAC00828F83A3A3A3A3A3E0FAA3E0FBC3EA9CC1
:101FBC00EB9D5027C3EC98ED99402EC3EA98EB9912
:101FCC0050277C3B7D0AEEFAEFFB1211F3EE2480D6
:101FDC00F582EF3400F583E4F0800EC3EA98EB99B8
:101FEC0040E0C3EC98ED9950D9EE2434F8EF34006E
:101FFC00F9E8FCE9FDEE2435F582EF3400F583E0D9
:10200C00F8EE2437F582EF3400F583E0F50AE508A5
:10201C00850AF0A4F508AAF0850AF0E509A42AF5CA
:10202C0009E82508F8E43509F97A257B0012199B93
:10203C00EA8C828D83F05407F87401B80002800496
:10204C00C333D8FCC0E0E0131313541FF8EE28F888
:10205C00EF3400F9E8245DF582E93400F583D0E033
:10206C00F8E0586008EE2434F582EF801EEE24363A
:10207C00F582EF3400F583E0F5F0EA84A8F0EE2861
:10208C00F8EF3400F9E82438F582E93400F583E000
:10209C00F9122929021F2AC082C08385188285194A
:1020AC0083E0F8A3E0F9C3EA9CEB9D5012C3EC98D3
:1020BC00ED994019C3EA98EB99501279018010C33D
:1020CC00EA98EB9940F5C3EC98ED9950EE7900D075
:1020DC0083D08222EAC39CFAEB9DFB228521878563
:1020EC0022C622C0E0C0D0E8C0E0E9C0E0EAC0E00F
:1020FC00EBC0E0ECC0E0EDC0E0C008C009C00AC015
:10210C000BC082C083C0F0759B00906182E0A2E698
:10211C0040030221CDE591A2E640030221CD759149
:10212C00BF900900E06405700812132B121337805E
:10213C0003121331752100121391E9900901F07902
:10214C00001213851211697A017B009008FFE0F9E7
:10215C00120695907803E064426003022216900AFE
:10216C009DE014F06003022216C2AF12217A0078AF
:10217C002AD0E0F618D0E0F6E59F5407F9700590E8
:10218C008334800390830478081218F6E9C4C0E005
:10219C007829E65508F50808E65509F509740B7811
:1021AC0008121A04D0E02508F8906270E0A2E7400B
:1021BC00F8E8C333906272F0906270E0D2E0F08085
:1021CC0049E0A2E55024E591A2E5501E7591DF90FF
:1021DC000900E0640D7013900922E004F06428708B
:1021EC0002E4F07A00E0F9121403906181E0A2E3BA
:1021FC005009E5E9A2E3500375E9F7A3E0A2E75023
:10220C0009E591A2E7500375917FD0F0D083D0827D
:10221C00D00BD00AD009D008D0E0FDD0E0FCD0E043
:10222C00FBD0E0FAD0E0F9D0E0F8D0D0D0E032C06A
:10223C00E0C0D0C082C083906183E0A2E05009E589
:10224C00BFA2E0500375BFFEE0A2E15009E5BFA2BA
:10225C00E1500375BFFDE0A2E25009E5BFA2E250D8
:10226C000375BFFBE0A2E35009E5BFA2E350037581
:10227C00BFF7E0A2E45009E5BFA2E4500375BFEF3D
:10228C00E0A2E55009E5BFA2E5500375BFDFE0A26F
:10229C00E65009E5BFA2E6500375BFBFD083D082DC
:1022AC008088C0E0C0D0E8C0E0E9C0E0EAC0E0EB64
:1022BC00C0E0ECC0E0EDC0E0C0F0E5A7A2E6500F36
:1022CC00E5A1A2E6500953A7BF75A1BF122313E5E0
:1022DC00A7A2E5500CE5A1A2E5500653A7DF75A116
:1022EC00DFE5A7A2E15009E5A1A2E1500375A1FD2C
:1022FC00E5A7A2E2500CE5A1A2E2500653A7FB759C
:10230C00A1FBD0F002222474F8121AE97521019075
:10231C000900E0640670151212BF8A828B83A3A396
:10232C00A3A3A3A3E0FAA3E0FB121319A2AFE43317
:10233C00FED2AF900906E0640170187A207B009001
:10234C0008FFE0F912070D7A207B009008FFE0F9F6
:10235C0012069B906182E0D2E6F0900A9CE060212C
:10236C0085C6228016900905E064017008E5C65404
:10237C00F84405F5C653BEFC1220E87401652160D3
:10238C00E4EEA2E092AF7F01021B95008E238F2416
:10239C00858228858327851882851983E0CEA3E062
:1023AC00CF852882852783EBC9EAC8EDCBECCA75AB
:1023BC00F010C3E833C8E933C9EA33CAEB33CBC3F3
:1023CC00EA9EF526EB9FF525B35004AB25AA26EC27
:1023DC0033CCED33CDD5F0DAAE23AF242274EB122F
:1023EC001AE974FA121A268A088B098C148D159026
:1023FC000900E024F7C39405500690838002254B16
:10240C001212BF8A0A8B0BAE0AAF0BEE4F7003028F
:10241C002548AC08AD09851882851983AA82AB833F
:10242C001213498E828F83A3A378081218F6908317
:10243C001878081218D0851882851983780C121810
:10244C00F6908318780C1218D07808790C12165D57
:10245C00501F7808790C121890908328780812165F
:10246C007D4047850810850911850A12850B13805C
:10247C0041850C10850D11850E12850F137810797E
:10248C0008121890908328781012167D501C751025
:10249C00007511007512007513017810790C121863
:1024AC009078107908121857800890838078101251
:1024BC0018F67409781012183890832478081218BA
:1024CC00F67810790812171C8E828F83A3A3A3A30E
:1024DC00A3A3E0F8A3E0F97AD07B0312199B880838
:1024EC008909E4F50AF50B78107908121857740469
:1024FC00121A71E0F8A3E0F97AD07B0312199BE869
:10250C00FA8A08E4F5097810790812165D500778F4
:10251C00107908121890900900E06408600AE064D1
:10252C00066005E06405701C908350781012167DCF
:10253C005012908358781012186A8008900CD57835
:10254C00101218F6851482851583781012190574EB
:10255C0006121A3C7F0E021B9574F7121AE912131D
:10256C005B900A9AE064017010906245E4F0A3F06D
:10257C0053F4F343FE0C5390F3121307E5C6548047
:10258C004449F5C6E59E547F644970F890618574A2
:10259C000FF0900A98E0F47002A3E0604E900A9954
:1025AC00E0600814601B14602E80407508017509EA
:1025BC0000900A98E07808121A13E508F45280800B
:1025CC002A750801750900900A98E07808121A1308
:1025DC00E508F452908014750801750900900A986A
:1025EC00E07808121A13E508F452A079007F020271
:1025FC001B9574F7121AE9E9FEEAFF74016E700C70
:10260C007A807B009008FFE0F9120695902938E457
:10261C0093F46008E493F912115D800953C680E5C8
:10262C009E547F70FA12130D900A9AE064017003A5
:10263C00121175900A98E0F47002A3E0604B900AB6
:10264C0099E0600814601A14602C803D75080175BF
:10265C000900900A98E07808121A13E50842808065
:10266C0028750801750900900A98E07808121A1369
:10267C00E50842908013750801750900900A98E0EE
:10268C007808121A13E50842A012135B1212BF8AC3
:10269C00088B09A808A909E8496015E5E170FCE870
:1026AC002414F582E93400F583E0F46003E0F5E1ED
:1026BC0074016F700A7A019008FFE0F91206E902C2
:1026CC0025F974F1121AE98A088B098C0A8D0B749E
:1026DC000F121A71780C1218F690831878081218C9
:1026EC00D0908318780C1218D07808790C12165DDB
:1026FC0050157808790C12189090832878081216C7
:10270C007D401579018013780C790812189090830C
:10271C0028780C12167D40EB79007F08021B95740B
:10272C00ED121AE98A088B098C0A8D0B7413121A94
:10273C0071780C1218F690831878081218D09083C0
:10274C0018780C1218D0780C790812165D40117894
:10275C0008790C121890AA08AB09AC0AAD0B8022B0
:10276C007510007511007512007513017810790C35
:10277C0012189078107908121857AA10AB11AC12D5
:10278C00AD137F0C021B9590831878081218F68AEB
:10279C00828B8378081218E37F04021B9574F51260
:1027AC001AE98C828D8378081218F68A828B8378CA
:1027BC00081218BCEA2404F8EB3400F98C828D83DF
:1027CC00A3A3A3A3E0FCA3E0FD88828983C3E09CC0
:1027DC00F0A3E09DF088828983C3E09420A3E09469
:1027EC004E402290835C78081218F68A828B83788C
:1027FC000812187D8A828B83A3A3A3A3E02420F064
:10280C00A3E0344EF0808074F5121AE9E9FE900AC8
:10281C0052E0FAA3E0FBEEC333F8E433F974112869
:10282C00F582748239F583E02AF508A3E03BF509BB
:10283C007808121BD990836412191412239874020D
:10284C00121A3C8A088B098C0A8D0B7410780812AA
:10285C00181FAA08AB097F04021B9574F1121AE920
:10286C008A0C8B0D8C0E8D0F740F121A71E0FAA35B
:10287C00E0FB7411121A71E0F508A3E0F50974136A
:10288C00121A71E0FEA3E0FF7808121BD9EA2401AA
:10289C00F508EB3400F509E4F50AF50B780C79082A
:1028AC0012169C90836878081218F6780C79081226
:1028BC00169CAA0CAB0DAC0EAD0F12239874021221
:1028CC001A3C8B09EA450960047A0180027A00EC13
:1028DC002AFCED3400FDECF8EDF97A717B0212194B
:1028EC009B88088909E4F50AF50B8E828F8378089A
:1028FC00121905ECF8EDF97A717B0212199B8A0812
:10290C008B0974057808121A138E828F83A3A3A3E4
:10291C00A3E508F0A3E509F07F08021B95C082C06F
:0B292C0083E9906000F0D083D082228D
:10293800FFFFFFFFFFFFFFFFC082C083E99010FC8D
:10294800F0022B5F74F7121A7DE990081EF07C568E
:102958007D087AFF7BFF120E9990081F74FFF0A381
:10296800F0A3E4F0A3F07905120E2790081EE0F911
:10297800120D4F7AB17B0E12107302386D74F41277
:102988001A7D8A088B09EB5480603090081EE0F9A4
:1029980012068F8A0A8B0BAE0AAF0BEE4F60138EAE
:1029A800828F83E064B07003120E39EEFAEFFB12E7
:1029B800067DAA08E5096480FB80047A007B000292
:1029C8002B2E74F2121A7D74FC121A26EAFEEBFF03
:1029D8007412121A71123D54EE4F7003022A6D746C
:1029E80002121A71EEF0A3EF122D69ECF0A3ED12AA
:1029F8002D69AA82AB83120D49E9F50A706AE508C8
:102A0800450960648E828F83123D3AEE4F60567A94
:102A1800067B001206D18A0C8B0DA80CA90DE8497B
:102A28007005750A13804188828983E4122A7AEE38
:102A3800F0A3EF123D65E508F0A3E509F09008243E
:102A4800122B019008247005123817801B123805C4
:102A58008003EAFCEBFD8C828D83122B0170F38CD2
:102A6800828D8380E3750A02A90A7404121A3C0253
:102A78003F54F0A3123D0BA32274F2121A7D890A67
:102A8800E975F017A4FEAFF0900823E4F090082150
:102A9800122B01600A1206D7900821E4F0A3F0EE89
:102AA800FAEFFB1206D18A088B09EA4509602FEE76
:102AB800FCEFFD790012066B900821E508F0A3E50C
:102AC80009F07B008008122AEBE4F0A3F00BEBC3BB
:102AD800950A40F2E50A900823F0790080027913FC
:102AE800023F54EB75F017A4F8A9F0900821E028EC
:102AF800FAA3E0398A82F583221234A9EA4B2274B8
:102B0800F4121A7D7900EAA2E0501B7508D67509FF
:102B1800827808121BD97C047D007AFE7B10120E85
:102B2800217402121A3C7F04021B4FC082C083909A
:102B38000824122B66601C88828983A3A3E06A702C
:102B480003A3E06B8882898370E8A3A3A3A312344C
:102B5800A580047A007B00D083D082020135124020
:102B68003AE8492274EE121A7D74FC121A26EAFE1B
:102B7800EBFF851882851983E4F0A3F0EE24021296
:102B880037F7EE2405123D12EE2404F50EEF12314C
:102B98001EE024FE603924FC604624FE605224FEB8
:102BA800605E24FE7003022C7F24FE7003022CE377
:102BB80024FE7003022CF224FE7003022D0124FC73
:102BC8007003022D1024FE7003022D1F022D5C904D
:102BD800083D7417F0A3E4122D71120AC7022D5C88
:102BE800851882851983AC82AD83120E3F022D2C85
:102BF800851882851983AC82AD83120E45022D2C6F
:102C0800850C08850D097402121A71AC82AD838592
:102C180008828509831234A5120D6D8A0C8B0DACC0
:102C28000CAD0DEC4D603BE4F50CF50D780C121B6A
:102C3800D9750C3D750D08780C121BD9750C3E75AD
:102C48000D08780C121BD97408121A71121BF01295
:102C5800405E121A3CE9F50C700B12349B120ADF25
:102C6800800F750C01850882850983122D5F123843
:102C780017850C08022D2F7402121A71AC82AD83CD
:102C8800850C82850D83123270603C850C82850D1F
:102C980083A3A3121BF075103D7511087810121B41
:102CA800D975103E7511087810121BD97408121ABC
:102CB80071121BF012405E121A3CE9F509700B12F2
:102CC800349B120AE5800F750901850C82850D83F6
:102CD800122D5F123817850908804C8518828519CE
:102CE80083AC82AD83120E4B803A85188285198396
:102CF800AC82AD83120E51802B851882851983AC66
:102D080082AD83120E57801C851882851983AC8288
:102D1800AD83120E5D800D851882851983AC82AD56
:102D280083120E63E9F508E50860298E828F83A374
:102D3800E06414601F850E82850F83E090083D12C1
:102D48002D6912403690083E123817E508A3122D57
:102D580071120AC102370612403A85188285198312
:102D680022F085188285198322F07C3D7D08850A2A
:102D780082850B831234A92274EE121A7D74FC1218
:102D88001A268A0A8B0B8C0E8D0FEA2405F508EBA0
:102D98003400F5097C157D0079007A3D7B08120620
:102DA8006BE5082402F50CE509123D1585188285A6
:102DB80019838582108583117810121BD9850882A2
:102DC800850983A3A3A3A3123267121BD9E508249C
:102DD80005F510E5093400F5117810121BD9850C9A
:102DE80082850D831235BC120D677406121A3C8A4F
:102DF800108B11AE10AF11E50A2402F50AE50B128B
:102E080037FAEE4F7003022F3E80177402121A71C0
:102E18001234A588828983EAF0A3EBF090083DE09C
:102E280004F090083DE0C394054003022F3EE4F50A
:102E380010F5117810121BD9751026751108781025
:102E4800121BD97510277511087810121BD9740632
:102E5800121A71121BF07910EEFCEFFD124060128D
:102E68001A3CE9705E850882850983A3A3A3A3A3FE
:102E7800A3A3E0F8900826E0687048123267121B96
:102E8800D97C277D08E5082408FAE5093400FB12F7
:102E980006657402121A3CE960298E828F83A3A307
:102EA800A3A31234A590083DE0F51074027810121F
:102EB8001A13743E2510F58274083511F583EAF06B
:102EC800A3EBF07402121A718582108583117810B1
:102ED800121BD97402121A71121BF0850C82850D0F
:102EE800831234CB121A3C8A108B11AE10AF11909A
:102EF800083DE0F51075110074027810121A137469
:102F08003D2510F874083511F988828983A3122B9E
:102F1800017003022E0AE82403080808E93400F9BE
:102F2800EE4F6003022E138882898374FFF0A3F0AA
:102F380090083DE004F090083DE0600A12349B12CE
:102F48000AD37900800B85088285098312380E79A7
:102F58000A02370674EA121A7D74FE121A268C12B7
:102F68008D13EA2405F50CEB124048123D3E750816
:102F780000750900EA2402F510EB3400F5118518F4
:102F88008285198385820A85830B780A121BD98565
:102F98000C82850D83A3A3A3A3123134121BD9E598
:102FA8000C2405F50AE50D1237FA780A121BD985A3
:102FB8000C82850D83123138120D677406121A3C83
:102FC8008A0A8B0BEA450B70030230D9EA2404F510
:102FD8000EEB12311E123D3E8A828B83A3A3A3E01F
:102FE800F98510828511831234AF60030230D9E469
:102FF800F514F5157814121BD9751426751508786B
:1030080014121BD97514277515087814121BD97456
:1030180006121A71121BF07913AC0AAD0B851082D7
:10302800851183124066121A3CE9F50960030230E3
:10303800D9900826E0F8E5087009E0240290083ED7
:10304800F0801490083EE0FCE82402FAE43400FB27
:10305800EA6C7001EB707E850882AA8212325E9457
:1030680014123256506B850E82850F83E0C0E074CF
:103078003F2A123115D0E0F00508850E82850F83AE
:10308800A3E0C0E085080A743F250A123115D0E094
:10309800F00508900826123134121BD97C277D08C8
:1030A80085080A743F250A123128121A3C9008260E
:1030B800E02508F50874FF6E700374FF6F6012EE68
:1030C80024010EEF3400FFE508C394145003022FC7
:1030D80086E50860131234B985108285118312348D
:1030E800A5120AD979008014E509700375090A85C3
:1030F8001282851383EEF0A3EFF0A9097402121A65
:103108003C7F0E021B4F85080C743F250CF582741A
:10311800083400F583223400F50F850E82F58322EA
:10312800FA74083400FB120653740222123D74220A
:10313800A3A312313E22123805FDEEFAEFFB2274EA
:10314800EE121A7D74FE121A268C0E8D0FEA2405D3
:10315800F50CEB123D15750B0090083DE4F0F50AEF
:10316800EA2402F508EB3400F509804490083DE0B4
:10317800FA900826E0F812325E9417123256400D83
:1031880090083DE0F87416C398900826F01232674C
:10319800121BD97C277D08743E2AFA740812312B39
:1031A800121A3C900826E0F890083DE028F0050A3D
:1031B800E50C2416F582E50D123119E0F8E50AC38D
:1031C80098507490083DE0C39416506BE50AC333D9
:1031D800F8E433F9E50C28FEE50D39FF85188285FA
:1031E8001983AC82AD838E828F831232707008751A
:1031F8000B0112380A8050E4F510F5117810121BF3
:10320800D97510267511087810121BD975102775F5
:1032180011087810121BD97406121A71121BF07952
:1032280016850882850983124066121A3CE9F50B57
:10323800700302317480BB7C3D7D08850882850956
:10324800831234A5120AEBA90B7402023708E99419
:1032580000C365D03322EA28F8E43400F9E822E014
:10326800F5107511007810221236FD8A108B11ACFA
:1032780010AD11EC4D2274EA121A7D74FC121A2654
:103288008A0C8B0D8C128D13EA2405F50AEB123784
:10329800FA750800750900E50A2402F510E50B34F3
:1032A80000F5117402121A7185820E85830F780E4B
:1032B800121BD9850A82850B83A3A3A3A3123D1AE7
:1032C800121BD9E50A2405F50EE50B3400F50F7835
:1032D8000E121BD985108285118312380012349F73
:1032E800120D677406121A3C8A0E8B0FAE0EAF0FC2
:1032F800E50C2402F50EE50D3400F50F80388882C0
:10330800898374FFF0050812310E74FFF0050890E8
:103318000826E0F50C750D00780C121BD97C277D6A
:103328000885080C743F250C123128121A3C9008A5
:1033380026E02508F508EE4F60278E828F83A3A329
:10334800A3E0F9850E82850F831234AFEE240412B0
:103358003D12E96027850C82850D8312349112385D
:1033680017E50870030234771234B9850E82850F89
:10337800831234A5120AF1790002348CE4F514F5AD
:10338800157814121BD97514267515087814121B94
:10339800D97514277515087814121BD97408121AD0
:1033A80071121BF07911EEFCEFFD850E82850F83FB
:1033B800124066121A3CE9F509709A850882AA82B9
:1033C800EA9008267009E0240490083EF08025E081
:1033D800F890083EE0F514E82404FCE43400FDEC21
:1033E80065147001ED708112325E941212325640EB
:1033F80003023370850C82850D83E0C0E0743F2A98
:10340800123115D0E0F00508850C82850D83A3E004
:10341800C0E012310ED0E01234D485820C85830DC1
:10342800780C121BD97404121A71121BF0851082C1
:103438008511831234CB121A3C8A0C8B0DAE0CAF5B
:103448000D85080C743F250CF874083400F9EE4F0C
:103458007003023306851882851983E08882898380
:103468001234D4A3E0C0E012310ED0E0023314E5E8
:1034780009700375090A850A82850B831234911233
:103488003817A909740402310612403A8512828558
:103498001383227C3D7D08850A82850B831234A91B
:1034A80022E0FAA3E0FB221234A9120D55E9F5092E
:1034B8002290083EE0F5F0E5088490083DF07C3D58
:1034C8007D082212313E120D73740422F00508851E
:1034D80018828519832274EC121A7D74FE121A263A
:1034E8008A088B098C0E8D0FEA2405FEEB3400FF49
:1034F8001236E7EE2418123D12EA450B7003023526
:103508008A1236D050291235AF8A108B11EA45112C
:10351800606B7912AC0AAD0B850882850983123479
:10352800A5851082851183121A7BE9F50A7058E483
:10353800F50AF50B780A121BD98E828F83A3A3E0B4
:10354800F50A780A121BD9EE24031237F7780A1203
:103558001BD98E828F831235BC120E877406121AFD
:103568003CE9F50A7021850C82850D83E0701F8582
:1035780008828509831234A5120AF78011750A0E8C
:103588008009750A018004E50A600312380A850C6F
:1035980082850D83E0600479008002A90A74021212
:1035A8001A3C7F0C021B4F8518828519831234A997
:1035B800120E7522123805FD85088285098312349A
:1035C800A92274EE121A7D74FE121A268A088B0933
:1035D8008C0C8D0DEA2405FEEB3400FF750E0012ED
:1035E80036E7EA450B70030236AE1236D0502C127D
:1035F80035AF8A0E8B0FEA450F604A7912AC0AADD7
:103608000B8508828509831234A5850E82850F8370
:10361800121A7BE9F50E60030236B1850882850926
:10362800831238ECAA0AFB1236C270147AFF7BFFA9
:103638001236C2606C88828983E50AF0A3E50BF034
:10364800750A008007750E0E805F050A900823E052
:10365800FAE50AC39A504AE50A75F017A4FAABF0DE
:1036680088828983A3A3E02AFAA3E03BFB8A828BA2
:1036780083123800EC4D70D2750A17750B00780A62
:10368800121BD9EEFCEFFD1206537402121A3CEE1F
:10369800FCEFFD8508828509831234A5120AFD8096
:1036A80014750E098003750E01124032850C82854F
:1036B8000D83123817A90E023251120E698A108B27
:1036C80011A810A911E84922E5082402F508E5091E
:1036D8003400F5098A828B83A3A3A3E0A2E522859F
:1036E8001882851983AC82AD838E828F831236FD52
:1036F8008A0A8B0B22E0FAA3E0FB120D6D227404F8
:10370800121A3C7F0A021B4F74EC121A7D8C108D22
:1037180011EA2405F50CEB123D15750F00EA240299
:10372800F50AEB1237FA850A82F5831234A512409E
:10373800EC70030237EC750E008071850C82850DE4
:1037480083E06401704F8E828F83A3A3121BF08ED7
:10375800828F83A3A3A3A3E0F51275130078121236
:103768001BD9EE2405F512EF3400F5137812121B5D
:10377800D912349F120E877406121A3CE9F50F60AD
:1037880014850C82850D83E4F01240328510828501
:1037980011831238177C177D007900EEFAEFFB12BF
:1037A800066B8E828F83E4F0A3F0050E900823E069
:1037B800F8E50EC398501EE50E75F017A4F8A9F0A9
:1037C800850882850983A3A3124052123800EC4D64
:1037D800600302374385088285098374FFF0A3F0EC
:1037E800E50F700612349F120B03A90F0235AAF5D4
:1037F8000AEF3400F50B22A3123805FD22E0FCA3E2
:10380800E0228E828F8312403A850E82850F83E8EC
:10381800F0A3E9F022C082C08390081FE06A700319
:10382800A3E06B70067A1F7B0880047A007B000295
:103838002B5F74F7121A7D7F00EF75F003A4F8A9C7
:10384800F0EC28F8ED39F988828983E06A7003A3DF
:10385800E06B7006E8FAE9FB800B0FEFC3940240B7
:10386800D87A007B007F01021B4F74F6121A7D1272
:103878003E2370067A007B008007A3A3A3A312341B
:10388800A5023EE474F2121A7DE9FE740E121A7152
:103898001238EC7410121A71123D548C828D83E028
:1038A8006402703BA312403688828983E0F50CA33A
:1038B800E0F9A80C74026870037429697021750C0A
:1038C80002750D00780C121BD97808121BD9780ADA
:1038D800121BD9EEF9120EAB7406121A3C8002794B
:1038E80001023F54E0F50AA3E0F50B2274E8121A2E
:1038F8007D74FB121A26E9851882851983F08A16C9
:103908008B178C0E8D0F741F121A71123D5474216F
:10391800121A711238EC7423121A71123D3E751086
:10392800008C828D83A3A3A3E0A2E4502A741D1205
:103938001A711235B58A828B83E58245837003023A
:103948003A00790AAC0EAD0FAA16AB17121A7BE92A
:10395800F5106003023A03850E82850F83E0640246
:103968006003023CB9A3124036850882850983A307
:10397800858212858313E50E2406F50CE50F123DAA
:103988001588828983E0FAA3E0F9EA2400F514E4B3
:1039980039F5157814121C63010000280128C8396C
:1039A800070002289F3A03280F3A0029C93B01293A
:1039B800F13B0229983B0329C93B04295A3CB93CED
:1039C800EE4F703E850C82850D83123D2FFAE9FB80
:1039D8008A828B83E0850A82850B83123D6B121BDA
:1039E800D98A828B83A3123805FDAA08AB0912066F
:1039F800537402121A3C800375100EA91074050244
:103A0800404075100B80F4EE4F70F7850A82850BE5
:103A1800837401F0123D44850882850983F07C0097
:103A28007D00850E82850F83A3A3A3A3E02401FA5A
:103A3800A3E03400FB120D6DEA4B60418A828B8350
:103A4800E02402F8850A82850B83E028F0EA240442
:103A5800F8EB3400F988828983E085128285138324
:103A6800123D7D123D6B121BD98A828B831237FF60
:103A7800E5082403FAE5093400FB0239F6850A82D1
:103A8800850B83E02404F07C047D007900AA12AB46
:103A98001312066B023A03EE4F6003023A0A123D14
:103AA80044FEA3E0FF850A82850B837404F0EE854B
:103AB8000882850983F0EF851282851383F07403E9
:103AC800121A71AC82AD83EEFAEFFB123E1170034D
:103AD800023B758A828B83A3A3123D3A7401121AA2
:103AE8007185820E85830F780E121BD97405121A00
:103AF80071121BF07CFF7DFF120D737404121A3CC7
:103B08008B0FEA450F7033850C82850D83123D1AA1
:103B1800121BD9850C82850D83A3121BF07C027DB4
:103B2800007AE47B83120B9F7404121A3CE9700A32
:103B38007401121A7174FFF0A3F08E828F83E0640F
:103B4800027034750C02750D00780C121BD98E8228
:103B58008F831237FFE5082404FAE50912312B1286
:103B68001A3C850A82850B83E024028009740112BD
:103B78001A71EEF0A3EFF07401121A71123D2BF0D6
:103B88007401121A71A3123D23A3A3A3F0023A03EE
:103B9800EE4F6003023A0A850C82850D83123800C5
:103BA800AA16AB17120E9F850A82850B837402F042
:103BB800EA850882850983F0851282851383EB8064
:103BC800CBEE4F6003023A0A123D44F8A3E0F985B0
:103BD8000A82850B837402F0E8850882850983F0E0
:103BE800E985128285138380A3850C82850D831253
:103BF80034A512064DEAFC8C82A882C39EE49F403D
:103C08004BE86E7001EF70047C00801F8518828578
:103C18001983E0FAEE2AFAEF3400FBC3EA98EB9432
:103C2800005003E08004EECCC39CFCEC850A82853E
:103C38000B83F08C0A750B00780A121BD9850C824D
:103C4800850D83E02EFCA3E03F0239F175100702D1
:103C58003A03EE4F6003023A0A850C82850D8312FF
:103C68004036850A82850B837407F088828983121F
:103C78003D23123D0BE0851282851383F0E8240270
:103C8800FAE93400FB8A828B83123D23123D5C12D1
:103C98003D2BA3123D65123D34F0E82405F8E934C4
:103CA80000F988828983123D34A3123D7DA3023B2B
:103CB80091741D121A71123E1C7003023A001240D0
:103CC80036880C890DE8450D7003023A008E108F76
:103CD800117810121BD9780A121BD97808121BD92F
:103CE8007406121A71E0F9AC0EAD0FAA16AB17855F
:103CF8000C82850D83121A7B7406121A3CE9F510A2
:103D0800023A03F088828983A322F50CEF3400F588
:103D18000D22E0F50E750F00780E22E085088285E9
:103D2800098322123D842212403AE822123D84A3DC
:103D3800A322A3A3A3A3E0FEA3E0FF22850C828510
:103D48000D83E0F8A3E0F5838882E022E0F508A37C
:103D5800E0F50922A3A3F08A828B83A322122A7C8E
:103D6800A3A322F08A828B83123D7422E0F50A75A0
:103D78000B00780A22123D0B123D8422E08508824E
:103D8800850983A3A32274EE121A7D74FE121A26E3
:103D98008A0A8B0BECFAEDFB7414121A71E0F51019
:103DA800A3E0F5117416121A71E0FE7418121A7154
:103DB800E0F50EA3E0F50F851882851983AC82AD76
:103DC80083123E11603E851882851983123E1C605D
:103DD8002FA3A3123D54E50845096024780E121B51
:103DE800D97810121BD9EEF9AC0CAD0DAA0AAB0BA1
:103DF800850882850983121A7B7404121A3C80068E
:103E0800790E80027901023251120D6D8A0C8B0DE8
:103E1800EA450D221234A9123E2322120E338A8259
:103E28008B83E58245832274F6121A7D74FE121A7A
:103E380026740C121A71123D2F851882851983F089
:103E48007401121A71E9F0E4F508F5097808121BF3
:103E5800D97508027808121BD97404121A71858260
:103E6800088583097808121BD9120E877406121A5E
:103E78003C7402121A3C806474F7121A7DEAFEEB55
:103E8800FF89087C567D08120E9FEA5402600BA930
:103E980008EEFAEFFB120D618002790102386D74A9
:103EA800F6121A7D74FF6A700374FF6B701C7B0036
:103EB800EB75F003A4F8A9F0EC28F8ED39F9123EF7
:103EC800E90BEBC39402501480E6120E6F8A088B3C
:103ED80009A808A909E8496003123EE97F02021B04
:103EE8004F8882898374FF122A7AE4F02274F612CA
:103EF8001A7D120E6F8A828B83E58245836006A342
:103F0800A3E0FA80027A007B0080D174F2121A7D55
:103F18008A088B09ECFEEDFF740E121A71E0F50A9F
:103F2800123F59701CEEFCEFFD7AFF7BFF123F59E0
:103F380070047911801688828983E508F0A3E50961
:103F4800F088828983A3A3E50AF079007F06021B23
:103F58004F120E6F8A0C8B0DA80CA90DE84922741C
:103F6800EE121A7DEAFEEBFF8C088D09890C74129B
:103F7800121A711240367414121A7112380074161B
:103F8800121A711234A5750D00EC4D600302402A17
:103F98007402650C60030240258882898312380503
:103FA800F9EC2400F50EE439F50FEAF4F8EBF4F92E
:103FB800EC58F8E50F59F9E849705DE5082406F86A
:103FC800E5093400F9880A890B8882F58312313AA9
:103FD800120E9F8A108B11E50E65107004E50F65AF
:103FE800116042780E121BD9850A82850B83123123
:103FF8003A120EA57402121A3CE9F50D7027780ED4
:10400800121BD9850882850983A3A3123138120EA1
:10401800B77402121A3C800D750D808008750D0D5D
:104028008003750D0BA90D02370B8E828F8312400A
:104038003A22E0F8A3E0F922121A3C7F10021B4F43
:104048003400F50D850C82F58322E028FEA3E039C3
:10405800FF8E828F83227916850A82850B8312341C
:10406800A9120E8174082274F2121A7DEAFEEBFF7F
:10407800890B7401650B600E7402650B706379011E
:10408800121091E9705BEEFAEFFB1240EC60477595
:104098000A00800B7C177D00790012066B050A90D8
:1040A8000823E0F8E50AC3985021E50A75F017A43B
:1040B800F8A9F0850882850983A3A3E028FAA3E07C
:1040C80039FB8A828B83122B6670C9850882850921
:1040D8008374FFF0A3F07C567D08EEFAEFFB120E16
:1040E80099023F54120E698A088B09EA450922741D
:1040F800F2121A7D8A088B09ECFEEDFF740E121A73
:10410800711238EC9010FCE0F4603D7A097B0012E3
:104118000677EA4B60328A828B8374B1F0A3E4128B
:104128003D5EA3123D5CA3E508F0A3E509124153E7
:10413800EEF0A3EF124153A3A3E50AF0A3E50BF0B9
:104148009010FCE0F9120683023F54F08A828B83B8
:10415800A3A3A3A3A322C082C0839061907404F098
:10416800A37448F0A37402F09061807440F09061E9
:10417800BC7403F09061877419F0906265741BF049
:1041880090619C740DF090619A7433F0A37455F0AB
:104198009061A0743AF0900A9AE064017009C291A3
:1041A800900904746780059009047461F090293EB1
:1041B800E493906186F0902938E493F46027E493BF
:1041C800540FF8906185E0686012E5C65480444950
:1041D800F5C6E59E547F644970F8E8F053C680E55B
:1041E8009E547F70FA79051213E50243A0C082C07D
:1041F80083E9540FF9906185E0696012E5C654803F
:104208004449F5C6E59E547F644970F8E9F053C601
:1042180080E59E547F70FA0243A0C082C083E5A85F
:10422800F853A87E906181E4F0A3F0A3F0C2BA53DA
:104238009AFEC289759B00C2C275E9007591007526
:10424800BF0075A91175B905906181F0A374C0F01C
:10425800A3E4F0D2BA439A0174805842A80243A05A
:10426800C082C08374F8121A26900902E0F8A3E00D
:10427800F9E8497003024396900902E0544060232C
:104288007908851882851983AA82AB8312124D8515
:104298001882851983AA82AB83120F23900902E042
:1042A80054BFF0E054806010790C7ABE7B0A121279
:1042B8004D900902E0547FF0E0A2E0503190619AFD
:1042C8007433F0A37455F09061A0743AF0900A9A90
:1042D800E064017009C2919009047467800590092F
:1042E800047461F0120F29900902E054FEF0E054C2
:1042F80002603190619A743FF0A3745AF09061A003
:10430800747FF0900A9AE064017009D291900904D0
:1043180074718005900904746AF0120F29900902DB
:10432800E054FDF0E05404601390293CE49390615C
:1043380086F0120F2F900902E054FBF0E054086059
:104348001390293DE493906186F0120F2F90090293
:10435800E054F7F0E05410601390293EE493906124
:1043680086F0120F2F900902E054EFF0E05420601D
:104378000A120F2F900902E054DFF0A3E054016005
:104388000D121175120F35900903E054FEF07408F0
:10439800121A3C8003F0A3F0D083D0820201357456
:1043A800EC121A7D74F4121A26851882851983ACCA
:1043B80082AD837583837582147404121939902928
:1043C8003C93F46003024534907808E0C3940250AB
:1043D800030245147404121A71AC82AD837583828A
:1043E8007582C274081219398518828519838582E5
:1043F800128583137404121A71AC82AD83750EFF93
:10440800750FFF7FFF7E00750C48750D7880157459
:10441800086E70030244A774096E70030244A774FF
:104428000A6E607B850C82850D8378081218F68CDD
:10443800828D83A909E50AC9F888107418780812CA
:10444800181FE5104508F8C3E098A3E099850C8289
:10445800850D8378081218F640188C828D8374189D
:10446800780812181FE5104508F8E0C398F8A3E08B
:10447800801C7418780812181FE5104508FAE9FB23
:104488008C828D83E0F8A3E0F9EAC398F8EB99F9F8
:10449800C3E8950EE9950F5006880E890FEEFF0EBA
:1044A800E50C2404F50CE50D3400F50DEEC394136A
:1044B800500302441774FF650E700474FF650F60A3
:1044C800238F0874027808121A1374482508F58295
:1044D80074783509F58378081218F68512828513E1
:1044E80083E508F0EC24020C0CED3400FD85128203
:1044F800851383A3858212858313740C121A71E5C0
:10450800826C7003E5836D600302440575080175CC
:1045180009007808121BD97402121A71AC82AD8393
:104528007A4F7B0A1208757402121A3C740C121A1C
:104538003C7F0C021B4FC082C0839061AE7468F050
:10454800A3746AF090624574FBF0A304F053F4FD81
:1045580043FE02900A9A7401F09061A0E0643A90D8
:10456800619A70237433F0A37455F09061A0743A83
:10457800F0740164017009C291900904746780287D
:1045880090090474618021743FF0A3745AF090611B
:10459800A0747FF0740164017009D29190090474C9
:1045A800718005900904746A02439F7F04021B4FBF
:1045B800C082C083900A4CE06401700A900A51E0FE
:1045C8006004790C800279000243A0C082C0837520
:1045D800E1F1900A4FE060551460081460591460C6
:1045E800518059121187900A45E0F97A467B0A12E0
:1045F800136790830C12191412139D90834C12198F
:1046080014121373900A50E0F912137F79011213F0
:10461800D9900A43E02416F8A3E03400F988828987
:1046280083749FF0A37411F079000243A012118DD6
:1046380080B412119380AF12119980AA791280EA7E
:1046480074F4121A7D75D90D900A34E0A2E0E433AF
:104658001313F8900A45E0C4333354C0484401F5B5
:10466800D97843790A88828983A3A3A3E0F5D988F6
:10467800828983A3A882A983E864497003E9640A4C
:1046880070E37834790A88828983A3E0F5D988822F
:104698008983A3A882A983E8643A7003E9640A704D
:1046A800E575E195900A34E0F97A357B0A12136DC5
:1046B80090111E7433F0A37411F0A37495F0A374D1
:1046C80012F0A37495F0A37412F0A37495F0A37478
:1046D80012F0A37439F0A37411F0A37495F0A374C5
:1046E80012F0A37451F0A37411F090112C7495F08A
:1046F800A37412F0A37495F0A37412F0A37495F048
:10470800A37412F0A37495F0A37412F0A37495F037
:10471800A37412F0A37495F0A37412F0900A43E006
:10472800F8A3E0F5838882A3A378081218F690838B
:1047380008780812186A90831878081218D0900A16
:1047480043E0240EF8A3E03400F9888289837808CE
:10475800121905900A43E02414F8A3E03400F988FC
:104768008289837413F09009007402F00245B3C083
:1047780082C083900A55E02407F5D9900A45E0C421
:10478800333354C0F5D97843790A88828983A3A33F
:10479800A3E0F5D988828983A3A882A983E864491C
:1047A8007003E9640A70E3900A55E0601F78437962
:1047B8000AFAE82413F582E93400F583E0F5D9888C
:1047C800828983A3A882A9831AEA70E6900A75E011
:1047D8002407F5D9900A45E0C4333354C04404F59E
:1047E800D97843790A88828983A3A3A3E0F5D98875
:1047F800828983A3A882A983E864497003E9640ACB
:1048080070E3900A75E0601F7843790AFAE8243368
:10481800F582E93400F583E0F5D988828983A3A875
:1048280082A9831AEA70E675E19590111E743FF02B
:10483800A37411F0A37495F0A37412F0A37495F007
:10484800A37412F0A37495F0A37412F0A37439F052
:10485800A37411F0A37495F0A37412F0A37451F02B
:10486800A37411F090112C7495F0A37412F0A37432
:1048780095F0A37412F0A37495F0A37412F0A374C6
:1048880095F0A37412F0A37495F0A37412F0A374B6
:1048980095F0A37412F090835C121914900A43E007
:1048A800240EF8A3E03400F9888289831219209035
:1048B8000A43E02414F8A3E03400F9888289837459
:1048C80012F0900900740102439FC082C083900ACD
:1048D80055E02407F5D9900A45E0C4333354C04461
:1048E80002F5D97843790A88828983A3A3A3E0F5DE
:1048F800D988828983A3A882A983E864497003E9D7
:10490800640A70E3900A55E0601F7843790AFAE870
:104918002413F582E93400F583E0F5D98882898388
:10492800A3A882A9831AEA70E675E19590111E740E
:104938004BF0A37411F0A3744BF0A37411F0A3749B
:104948004BF0A37411F0A3744BF0A37411F0A3748B
:104958004BF0A37411F0A3744BF0A37411F0A3747B
:1049680051F0A37411F090112C7495F0A37412F007
:10497800A37495F0A37412F0A37495F0A37412F0C5
:10498800A37495F0A37412F0A37495F0A37412F0B5
:10499800A37495F0A37412F090835C121914900A12
:1049A80043E0240EF8A3E03400F9888289831219C1
:1049B80020900A43E02414F8A3E03400F98882899F
:1049C800837414F0900900740402439FC082C0836A
:1049D800900A55E02407F5D9900A45E0C4333354CA
:1049E800C04406F5D97843790A88828983A3A3A3AA
:1049F800E0F5D988828983A3A882A983E8644970ED
:104A080003E9640A70E3900A55E0601F7843790A65
:104A1800FAE82413F582E93400F583E0F5D98882B1
:104A28008983A3A882A9831AEA70E6900A75E0240C
:104A380007F5D9900A45E0C4333354C04404F5D986
:104A48007843790A88828983A3A3A3E0F5D9888269
:104A58008983A3A882A983E864497003E9640A707A
:104A6800E3900A75E0601F7843790AFAE82433F581
:104A780082E93400F583E0F5D988828983A3A88286
:104A8800A9831AEA70E675E19590111E7445F0A3A2
:104A98007411F0A37495F0A37412F0A37495F0A3A5
:104AA8007412F0A37495F0A37412F0A37495F0A394
:104AB8007412F0A37495F0A37412F0A37451F0A3C8
:104AC8007411F090112C7495F0A37412F0A37495DE
:104AD800F0A37412F0A37495F0A37412F0A3749564
:104AE800F0A37412F0A37495F0A37412F0A3749554
:104AF800F0A37412F090835C121914900A43E02416
:104B08000EF8A3E03400F988828983121920900AEC
:104B180043E02414F8A3E03400F9888289837415EB
:104B2800F0900900740302439FC082C083900A4337
:104B3800E0F8A3E0F5838882A3A3A3A3A3A3E402D8
:104B4800439D74F7121A7D90092EE0F875F004A4BD
:104B5800C8AAF02AF9743028F8740939F9E8240544
:104B6800FAE93400FB8A828B83E0FCA3E0FD8882AB
:104B78008983A3A3A3A3A3A3A3A3A3ECF0A3EDF00A
:104B880088828983A3A3A3A3A3A3A3E024FFF8A3F4
:104B9800E034FFF98A828B83E8F0A3E9024DEF74D1
:104BA800F7121A7DEAFEEBFF9061D0E06003024C39
:104BB8008475D90E75D90375D904EE248CF582EF66
:104BC8003400F583E5822408F8E5833400F9E0F53C
:104BD800D9A3E865827003E9658370F2EE2484F551
:104BE80082EF3400F583E5822404F8E5833400F984
:104BF800E0F5D9A3E865827003E9658370F275E191
:104C0800957908EE248CFAEF3400FB1212417904EE
:104C1800EE2484FAEF3400FB1212417C00EEF8EF28
:104C2800F9ECFAC3E49AFA95E0FBEE2AFAEF3BFBBB
:104C3800EA248BF582EB3400F583E0C0E0E824AB8E
:104C4800F582E93400F583D0E0F00C88828983A3EB
:104C5800A882A983ECC3940840C7EE2470F582EFBC
:104C68003400F583E0F8A3E0F9EE2472F582EF341E
:104C780000F583E8F0A3E9F0790180027900024D9C
:104C8800F0C082C08375D90275D90375D90575E15D
:104C980095EA2470F582EB3400F583E0F8A3E0F997
:104CA800EA2472F582EB3400F583E8F0A3E9F079A1
:104CB800010243A074F6121A7DEAFEEBFF900A9EE9
:104CC8007406F075089E75090A7808121BD97C01CC
:104CD80079031212897402121A3C75D90675D90320
:104CE80075829E75830AE0F5D9A3E58264A37004F2
:104CF800E583640A70F075E195900900E064087036
:104D08001EEE2470F582EF3400F583E0F8A3E0F995
:104D1800EE2472F582EF3400F583E8F0A3E9F07928
:104D280001024EBC74F6121A7DEAFEEBFF9061D0C8
:104D3800E070667801900A9E740BF0900900E064B8
:104D480007701975089E75090A7808121BD97C0125
:104D580079031212897402121A3C7805740128F535
:104D6800D975D90375829E75830AE8FAE0F5D9A347
:104D78001AEA70F875E195EE2470F582EF3400F5C3
:104D880083E0F8A3E0F9EE2472F582EF3400F583AE
:104D9800E8F0A3E9F0790180027900024EBC74F7CB
:104DA800121A7DEAFEEBFF75D90375D90375D90D83
:104DB800EE24DEF582EF3400F583E0F5D975E19550
:104DC80079041213A3EE2470F582EF3400F583E022
:104DD800F8A3E0F9EE2472F582EF3400F583E8F0E9
:104DE800A3E9F079018001F07F01021B4F74F612EC
:104DF8001A7DEAFEEBFF9061D0E0F87480C398FA60
:104E0800EE2483F582EF3400F583E06004780480B3
:104E1800027800E8240BF8EAC3985003024EBA7DE2
:104E280009900A9EEDF0EE24E3F8EF3400F97A9F3A
:104E38007B0A7C0888828983E08A828B83F0888257
:104E48008983A3A882A9838A828B83A3AA82AB833E
:104E58001CEC70E0EE2483F582EF3400F583E0600B
:104E68001D75089E75090A7808121BD97C097903F3
:104E7800EEFAEFFB1212897402121A3C7D0D7401CE
:104E88002DF5D975D90375829E75830A8D08E0F5CD
:104E9800D9A31508E50870F675E19579041213A3EE
:104EA800EE241DF582EF3400F583E4F0A3F07901D8
:104EB800800279007F02021B4F74F6121A7DEAFE07
:104EC800EBFF9061D0E0F87480C398FAEE2483F584
:104ED80082EF3400F583E06004780480027800E80B
:104EE8002408F8EAC3985003024FC17D06900A9E31
:104EF800740CF090091DE0900A9FF07A1E7B0978E7
:104F0800A0790A7C028A828B83E088828983F08A6E
:104F1800828B83A3AA82AB8388828983A3A882A970
:104F2800831CEC70E07A207B097C028A828B83E008
:104F380088828983F08A828B83A3AA82AB83888242
:104F48008983A3A882A9831CEC70E0EE2483F582F0
:104F5800EF3400F583E0601D75089E75090A78082E
:104F6800121BD97C067903EEFAEFFB121289740240
:104F7800121A3C7D0A74012DF5D975D90375829EE4
:104F880075830A8D08E0F5D9A31508E50870F6754C
:104F9800E19579041213A3EE2470F582EF3400F53D
:104FA80083E0F8A3E0F9EE2472F582EF3400F5838C
:104FB800E8F0A3E9F0790180027900024EBC74F6AA
:104FC800121A7DEAFEEBFF9061D0E0F87480C39876
:104FD800FAEE2483F582EF3400F583E06004780468
:104FE80080027800E82404F8EAC39850030250A02D
:104FF8007802900A9EE8F0EE24F5F582EF3400F589
:1050080083E0900A9FF0EE2483F582EF3400F58365
:10501800E0601B75089E75090A7808121BD97C0286
:105028007903EEFA1212897402121A3C7806740196
:1050380028F5D975D90375829E75830A8808E0F525
:10504800D9A31508E50870F675E195EE2474F58284
:10505800EF3400F583E4F0EE2480F582EF3400F5B8
:1050680083E4F0EE241DF582EF3400F583E4F0A329
:10507800F079041213A3EE240DF582EF3400F583C2
:10508800E0F8A3E0F9EE2472F582EF3400F583E846
:10509800F0A3E9F0790180027900024EBC74F6129F
:1050A8001A7D9061D0E0F87480C398FCEA2483F5F7
:1050B80082EB3400F583E06004780480027800E82D
:1050C8002404F8ECC398405B7902900A9E7407F0B8
:1050D800EA24F6F582EB3400F583E0900A9FF0EAC3
:1050E8002483F582EB3400F583E0601875089E751B
:1050F800090A7808121BD97C020912128974021253
:105108001A3C7906740129F5D975D90375829E75FB
:10511800830AE9F8E0F5D9A318E870F875E19579FC
:105128000180027900024EBC74F5121A7DE9FCA2D6
:10513800AFE433F50AC2AF7D0080010DEA246FF5B4
:1051480082EB3400F583E0F8EDC398501A8D08EA35
:105158002508F8EB3400F9E8246BF582E93400F50A
:1051680083E06C70D68024EA246FF8EB3400F9E011
:10517800FEEA2EFAEB3400FBEA246BF582EB3400EE
:10518800F583ECF088828983E004F0E50AA2E092D6
:10519800AF7F03021B4F74F6121A7DA2AFE433FDF2
:1051A800C2AFEA246FF582EB3400F583E014F07C9B
:1051B8000060368C08EA2508F8EB3400F9E8246C1E
:1051C800F582E93400F583E0C0E0E8246BF582E974
:1051D8003400F583D0E0F00CEA246FF582EB34005C
:1051E800F583E0F8ECC39840CAEA246EF582EB3404
:1051F80000F58374FFF0EA246AF582EB3400F58346
:10520800E4F0EDA2E092AF024EBCC082C083E5A8F4
:10521800F8C2AFEA246BF582EB3400F583E9F0EAD3
:10522800246AF582EB3400F583E4F0E8A2E792AF54
:105238000243A074F3121A7DEAFEEBFFECFAEDFBD1
:105248008A828B83A3A3A3A3E0541FF0EE2436F530
:1052580082EF3400F583E4F0F50AEEFCEFFD8A8274
:105268008B83E0C0E0EC245DF582ED3400F583D05B
:10527800E0F0750B00E50A33333354F8F50C8A82F5
:105288008B83E0F508750900E50B78081219F4E539
:1052980008A2E0502FEE2436F8EF3400F98882890E
:1052A80083E0F508EE2508F508EF3400F509E50870
:1052B8002438F582E5093400F583E50CF088828905
:1052C80083E004F0050B050CE50BC3940840AF051B
:1052D8000A8A828B83A3AA82AB838C828D83A3AC38
:1052E80082AD83E50AC3940550030252667F050226
:1052F8001B4F74F7121A7D90092CE0640170077A2D
:10530800007B000254717E00900932E070F1740154
:10531800F0A3E4F0A3F090099204F0900995E4F06A
:10532800A3F090099804F0900935E4F0A3F0A3F0F5
:10533800A3F090093F04F0900965E4F0900CD512B1
:10534800191490094812192090094CE4F0A3F0A30D
:10535800F09009B0F09009A4F09009997480F0A336
:10536800E4F090099FF0900997F0900A1BF0A3F0E1
:10537800A3F0A3F0A3F0A3F0A3F0A3F0900A24F005
:105388009009B3F0900A03F0A3F0900CD512191409
:10539800900A05121920900CD5121914900A0912B6
:1053A8001920900A0FE4F0900A11F0900A0DF0907D
:1053B8000A27F0A3F0A3F0A3F0A3F0A3F0A3F0A3AF
:1053C800F0782C7909E8246FF582E93400F58374C4
:1053D800FFF00E88828983A3A882A983EEC3940470
:1053E80040E37A2C7B09783B790A88828983E0C07C
:1053F800E0EA2461F582EB3400F583D0E0F088829E
:105408008983A3A882A9838A828B83A3AA82AB8378
:10541800E864407003E9640A70D07A2C7B09781339
:10542800790988828983A3E0C0E0EA24E7F582EB62
:105438003400F583D0E0F088828983A3A882A98309
:105448008A828B83A3AA82AB83E8641B7003E96416
:105458000970CF90092CE004F064017008900934B9
:10546800E090092EF07A307B09024DF0C082C083AB
:10547800900933E4F0900932F090092CF0A3F0A3DE
:1054880074FFF075E1F10243A0C082C0837800790F
:1054980000900933E060047830790988828983A311
:1054A800A3A3A3E0F90243A074F6121A7DEAFEEB67
:1054B800FF8E828F83A3A3A3E0600F8E828F83A3C6
:1054C800A3A3E4F090092DE014F090092CE014F067
:1054D800700690092E74FFF08E828F83A3A3E4F0E8
:1054E800900A40E0700D90092DE064017005790084
:1054F800121385EE2465F582EF3400F583E0F8A3F6
:10550800E0F9E8496029EE2465F8EF3400F98808E5
:1055180089098882F583E0FCA3E0FD90092EE0FA72
:105528007B00120F59850882850983E4F0A3F0EE09
:10553800FAEFFB1212B9024EBC74F7121A7DEAFE9A
:10554800EBFF8E828F83A3A3A3A3E0FA7B00120F45
:105558009BEEFAEFFB12120B1212A1024DF0C08261
:10556800C0837813790988828983A3E4F0888289C3
:1055780083A3A882A983E8641B7003E9640970E621
:105588009009140248CD74F6121A7DEAFEEBFFEC7E
:105598002403F8ED3400F988088909EC2407F8EDAC
:1055A8003400F9E8FCE9FD8C828D83E0F8A3E0F98A
:1055B800850882850983E0FAA3E0FB12199BEE2493
:1055C8000DF582EF3400F583E8F0A3E9F08C828DC5
:1055D80083E0F8A3E0F9850882850983E0FAA3E06F
:1055E800FB12199B8B09EA45096013EE240DF5821D
:1055F800EF3400F583E02401F0A3E03400F0024E1C
:10560800BC74F6121A7DEAFEEBFFEE242EF582EF4B
:105618003400F583E0FCA3E0FD780079FAECFAEDBC
:10562800FB12199BEE2470F582EF3400F583E8F045
:10563800A3E9F0780079FAECFAEDFB12199B8B09D3
:10564800EA45096013EE2470F582EF3400F583E033
:105658002401F0A3E03400F0024EBC74F0121A7D6D
:10566800EAFEEBFF7410121A7178081218F612137A
:10567800438A0C8B0D8C0E8D0F900D25780C12180B
:105688006A908318780C1218D0780C121BD58E8269
:105698008F83E0F8A3E0F5838882A3A3121914127C
:1056A80026CE7404121A3CE960030257B08E828F2A
:1056B80083E02402F8A3E03400F9E8FAE9FB8A82DF
:1056C8008B83780812187D90831878081218F68A48
:1056D800828B8378081218E3EE240BF582EF3400EE
:1056E800F583C082C0838E828F83A3A3A3A3A3E084
:1056F8002401F8A3E03400F9D083D082E068700375
:10570800A3E069700579010257B28E828F83A3A343
:10571800A3A3A3A3A3E02401F0A3E03400F0EE24A4
:1057280074F582EF3400F583E064017036EE247579
:10573800F582EF3400F583E0F8A3E0F98E828F83D9
:10574800A3A3A3A3A3A3A3E0687003A3E0697013B2
:10575800EE2475F582EF3400F583E02401F0A3E030
:105768003400F0EE2480F582EF3400F583E0640124
:105778007036EE2481F582EF3400F583E0F8A3E07B
:10578800F98E828F83A3A3A3A3A3A3A3E0687003C6
:10579800A3E0697013EE2481F582EF3400F583E00D
:1057A8002401F0A3E03400F079007F08021B4F7455
:1057B800F7121A7D90092EE0F875F004A4C8AAF033
:1057C8002AF9743028FE740939FF8028EE2465F818
:1057D800EF3400F988828983E0FCA3E0FD888289A0
:1057E80083E4F0A3F08E828F83A3A3A3A3E0FA7BC4
:1057F80000120F59EE2465F582EF3400F583E0F8C6
:10580800A3E0F9E849604FEE2464F582EF3400F52F
:1058180083E0F5087808121BDDEE2463F582EF3487
:1058280000F583E0F9EE2465F582EF3400F583E0B6
:10583800FCA3E0FDEEFAEFFB1212357401121A3CDC
:10584800E96089EE2465F582EF3400F583E0F8A37A
:10585800E0F9E84970137C007D008E828F83A3A352
:10586800A3A3E0FA7B00120F59024DF074F2121A4A
:105878007DEAFEEBFF890A740E121A71E0FAEE2433
:1058880062F582EF3400F583E06401600302594059
:105898009061D0E0F87480C398F50CEE2483F5820B
:1058A800EF3400F583E0600478048002780089080A
:1058B800E928F8E43400F9E824020808E93400F992
:1058C800E50C98E499A2D265D0334068EA70057572
:1058D8000B028003750B01E0603975090078081226
:1058E8001BD97A9E7B0A12126B7402121A3C750835
:1058F8009E75090A7808121BD9AC0AA90BEEFAEFB3
:10590800FB1212897402121A3C7404250AF50A7CE7
:105918009E7D0A7401250AF5D9850BD9E50A600D23
:105928008C828D83F8E0F5D9A318E870F875E195B5
:10593800790080067907800279FF7F06021B4FC035
:1059480082C083E960208C828D83E08A828B83F019
:105958008C828D83A3AC82AD838A828B83A3AA8237
:10596800AB8319E970E0ECFAEDFB0243A074F01286
:105978001A7D890A7F008A088B097808121C1D0085
:10598800040D4A5BA859C559DD59F359095A1F5ADC
:105998003E5A5B5A6E5A9D5ACF5AEC5A095B285B9D
:1059A8007401650A70128C828D83E0C394035008D9
:1059B800E0900E18F0025B6B7F18025B6B74026557
:1059C8000A70F58C828D83E0F8A3E0F9900E19E84F
:1059D800F0A3E980DF7401650A70DD8C828D83E0B5
:1059E800C3940250D3E09004C580C97401650A705D
:1059F800C78C828D83E0C3940550BDE09004C680B7
:105A0800B37401650A70B18C828D83E0C39402502F
:105A1800A7E09004C7809D7410650A709B750810F4
:105A28008F097808121BD97AC87B041206537402AE
:105A3800121A3C025B6B7401650A60030259C08C40
:105A4800828D83E0C3940240030259C0E09004D8D9
:105A58000259BC7401650A60030259C08C828D83A7
:105A6800E0900E1C80837404650A60030259C0909C
:105A78008364780C1218F68D838C82780C12166D5C
:105A880040030259C08C828D831219149004DA12D3
:105A98001920025B6BE960030259C0120D0DE97011
:105AA8001E7E00EEF91207CDE9F80EEEC3940A50F7
:105AB80003E860EF7950120A611207C7025B6B9026
:105AC800056D74010259BC7401650A60030259C06E
:105AD8008C828D83E0C3940240030259C0E0900495
:105AE800D90259BC7401650A60030259C08C828DC1
:105AF80083E0C3940A40030259C0E0900E1B025988
:105B0800BC7401650A60030259C08C828D83E0244D
:105B1800F9C3940A40030259C0E0900E1D0259BC13
