:020000040000FA
:0600000002010A021D8648
:03002B000221F4BB
:030033000221D6D1
:03003B0002220D91
:0300430002218A0D
:03005300021DFC8F
:03006B000221B0BF
:10008300021C77E5C754F84401F5C7790122000043
:100093000080FB120086B900030200F4E4792178A2
:1000A30008B800028004F709D8FCE479297802B87B
:1000B30000028004F709D8FCE4900281786879098A
:1000C3008002F0A3D8FCD9FA900AE8AA82AB839005
:1000D300013A78FF79038015E493A3AC82AD838A58
:1000E300828B83F0A3AA82AB838C828D83D8E9D9D8
:1000F300E77582F175839B740312011C75829175F8
:100103008300740012011C75D00075813F7518813E
:10011300751902759F00020096C09FF59FE473D086
:100123009F22D083D082C09FE493C0E0740193C028
:10013300E0740293F59F22FF0000B400002800281A
:1001430000283075A000A000A000A000000800084F
:10015300E001F0001000100010001000100010006B
:1001630050005000500010001000D00700000000A5
:1001730000000F00010005003075070010000100AA
:1001830081FF0000FF360654063C06FF0202020808
:10019300025000A0000000E80302AD9201000073CA
:1001A30092029F920100003D0B027F92010000B278
:1001B30002029F920100003E0B028192010000C8DF
:1001C30002029F920100003F0B028392010000CACA
:1001D30002029F92010000400B028592080000CBAF
:1001E30002029F92010000410B028792010000422C
:1001F3000BFF0100FF2002AD920100007692029FE7
:1002030092010000A60B028992000000000002A9DF
:100213009203000018035A0C5A0C5A0C5A0C5A0C2D
:100223005A0C5A0C5A0C5A0C5A0C5A0C5A0C5A0C9B
:100233002A0F420F240FFFFF0202020202020202F0
:1002430002010D000000100102AD9201000079923D
:10025300029F92010000E90B02A3920100009207A2
:10026300029F92010000EA0B029D92010000469159
:10027300029F92010000EB0B029B920100002A9166
:10028300029F92010000EC0B029992010000B790CB
:10029300029F92010000ED0B0297920100008190F2
:1002A300029F92010000EE0B02B9920100009390AD
:1002B300029F92010000EF0B029592010000A590AE
:1002C300029F92010000F00B02939201000038910B
:1002D300029F92010000F10B029192010000F20BC8
:1002E30001E803053F10FF0001307503020106001A
:1002F30000000000000000000000000000000000FB
:100303000000000000000000000000FFFF06008066
:100313000CE803140953696D706C65424C455065D4
:10032300726970686572616C051214001400020A28
:10033300000201060302F0FF47686F737479755377
:10034300657269616C4170700000000000B61300B3
:1003530000BC130A436861726163746572697374E4
:100363006963203100024368617261637465726975
:100373007374696320320008436861726163746552
:100383007269737469632033001043686172616337
:10039300746572697374696320340002436861721F
:1003A3006163746572697374696320350002AD9289
:1003B3000100007C92029F92010000040D02B192A1
:1003C300030000C60A028F92010000050D029F92EE
:1003D300010000160D02B392010000DA0A028F92A7
:1003E300010000170D029F92010000280D02B59233
:1003F300020000DB0A028F92010000290D029F9286
:100403000100003A0D02B792000000DC0A02A99233
:10041300030000DD0A028F920100003B0D029F9250
:100423000100004C0D02A592040000E30A028F9222
:100433000100004D0D120125258E031201253C8E6E
:10044300031201256B8E03120125A48E03120125CD
:10045300CC8E03120125FA8E03120125118F03128C
:100463000125288F031201253E8F03120125658F75
:1004730003120125788F031201258E8F03120125A4
:10048300A18F03120125C68F03120125A3F50112C3
:100493000125A2F601120125D7F601120125F8F66E
:1004A3000112012508F70112012529F7011201257F
:1004B30035F80112012502F90112012575F901121E
:1004C3000125FBF9011201253EFA0112012575FAF6
:1004D30001120125FBFA01120125CDFB01120125B1
:1004E3002BFC0112012543FC01120125BDFC011265
:1004F3000125C0FC01120125C3FC011201256AFD7F
:100503000112012582FD01120125B2FD011201250F
:10051300D2FD01120125C0FE0112012576FF011251
:1005230001258DD602120125B5D602120125E3D687
:10053300021201251AD70212012582D702120125C0
:10054300CBD70212012516D80212012554D8021264
:10055300012591D802120125BFD80212012566D9BF
:100563000212012570D9021201257DD9021201253B
:10057300B0D90212012572DA021201257EDA0212C3
:10058300012596DA02120125A0DA02120125AC97A1
:1005930003120125BA9703120125D29703120125ED
:1005A300EA970312012518B101120125B6B1011210
:1005B30001252EB20112012543B3011201257DB39A
:1005C3000112012526B401120125FBB401120125F4
:1005D3005FB601120125B6B6011201253DB701121E
:1005E300012524B80112012571B801120125FFB8B4
:1005F3000112012523B901120125F8BA01120125BF
:1006030039BB011201255BBB01120125DCBB0112C1
:100613000125C6BC011201258CBD0112012595C01F
:100623000212012567C10212012510C2021201251F
:1006330053C202120125E0C2021201256CC3021249
:1006430001254DC4021201257CC40212012578C57F
:1006530002120125C0C502120125C2C602120125DC
:1006630006C7021201252CC702120125CC990312D9
:10067300012515F0021201252BF00212012551F07C
:100683000212012579F10212012583F102120125DB
:10069300DCF202120125DCF302120125A1C70212CA
:1006A3000125D6C80212012509C90212012553C921
:1006B3000212012511CB02120125BD92011201255F
:1006C30020930112012565940112012575940112ED
:1006D3000125989401120125E394011201258895BF
:1006E300011201257E960112012548970112012569
:1006F300C09801120125029901120125A099011246
:100703000125ED9901120125139A01120125019C7E
:1007130001120125069C01120125E79D0112012505
:100723003B9E011201259D9E01120125C59E0112CA
:100733000125699F011201252BA0011201255CA04F
:10074300011201255FA001120125A7A001120125B5
:10075300E9A00112012550A101120125DE85031232
:100763000125F185031201250A8603120125558609
:1007730003120125308703120125BF8703120125C8
:100783000A88031201258022001201258C220012FF
:100793000125C522001201250A2300120125C123C8
:1007A30000120125472400120125AC240012012563
:1007B300D824001201251125001201252527001236
:1007C3000125012900120125EC2A00120125232C01
:1007D30000120125832E001201256F2F001201251F
:1007E300B53000120125C23100120125DF3100129C
:1007F30001251732001201253132001201259932E9
:1008030000120125333700120125D43700120125C8
:100813002538001201254C38001201259A380012A0
:100823000125B838001201250C3900120125E539DC
:10083300001201256C3B00120125F43B0012012537
:1008430035DB021201253FDB021201250ADC02120D
:10085300012525DC021201254BDC021201258FDC68
:1008630002120125C7DC02120125F0DC0212012568
:1008730069DD021201257EDD0212012593DD0212DC
:100883000125CADD02120125DEDD021201250FDE7C
:100893000212012549DE0212012575DE021201252D
:1008A300ECDE0212012535DF021201255FDF0212A1
:1008B300012584DF0212012529EC02120125F3EC44
:1008C30002120125D6ED021201254CEE021201257A
:1008D3008EEE02120125BBEF0212012500800212E7
:1008E30001252980021201254280021201258781F8
:1008F300021201256582021201258482021201255A
:10090300118302120125548302120125A1840212CC
:100913000125408502120125BF8702120125568851
:10092300021201252A89021201250C8A02120125CD
:10093300788B021201250B8C02120125C5FE0212CF
:1009430001252EFF0212012582FF02120125A9FFB4
:1009530002120125ACDF0212012519E00212012562
:1009630064E00212012559E10212012555E2021247
:1009730001253FE302120125A3A002120125E5A0F0
:1009830002120125BFA10212012598A2021201251C
:1009930093A30212012572A402120125DEA40212FE
:1009A3000125A5A50212012510A60212012577A68D
:1009B30002120125A2A60212012513A70212012584
:1009C300A6A7021201250FA80212012524A80212CC
:1009D30001256CA80212012585A802120125EAA8A7
:1009E30002120125EDA80212012500800312012540
:1009F3002880031201256680031201252481031236
:100A030001258F8103120125AB8103120125D381B7
:100A13000312012503820312012512820312012509
:100A23008C8203120125B282031201251AA201123C
:100A33000125B7A3011201259DA50112012567A672
:100A430001120125AEA601120125F5A60112012509
:100A530007A70112012547A70112012576A7011255
:100A63000125C2A701120125FAA70112012528A811
:100A73000112012579A80112012508A901120125F6
:100A8300F6AB01120125D0AD011201250CAE011206
:100A9300012566AF01120125ADAF0112012522B078
:100AA3000112012570B001120125A0970212012540
:100AB300BD9702120125579D02120125599E02126C
:100AC3000125D39F0212012581A0021201253B506B
:100AD30000120125845000120125B1500012012596
:100AE300E45000120125F15000120125FD500012BF
:100AF30001250F5100120125E45100120125425234
:100B0300001201257752001201251354001201250A
:100B1300605400120125845400120125F15400127F
:100B23000125965500120125525600120125D15672
:100B330000120125955700120125A4570012012523
:100B4300255800120125C45800120125F658001239
:100B53000125915900120125EF5900120125295A47
:100B630000120125AA5A00120125735B0012012508
:100B73001C5C00120125A35C00120125FB5C001222
:100B830001255C5D00120125855D001201253B5E98
:100B930000120125855F00120125C85F001201259F
:100BA300E55F001201250460001201254F60001269
:100BB30001257460001201259D60001201250C615E
:100BC300001201254E610012012552620012012517
:100BD300EC6200120125B86300120125D1630012F3
:100BE3000125537600120125A67600120125B2765F
:100BF30000120125877700120125AE770012012527
:100C0300E977001201255578001201258978001231
:100C13000125C27800120125DA7800120125337903
:100C2300001201254C790012012595790012012546
:100C3300A87900120125C27900120125D879001282
:100C43000125F47A00120125057C00120125527D4D
:100C530000120125377E00120125F47F00120125C1
:100C6300BDE801120125F1E8011201255CEC011236
:100C73000125A6ED0112012570EE01120125FAEFFF
:100C830001120125D5F0011201250FF101120125F1
:100C930032F10112012574F1011201257DF10112D6
:100CA3000125C7F101120125D1F1011201257DF2C0
:100CB3000112012551F301120125A5F301120125AA
:100CC30007F4011201255AF40112012589F40112D6
:100CD3000125C8F4011201250364001201255D6C8E
:100CE30000120125636C001201251E7200120125FA
:100CF30004760012012577FB02120125EDFB021297
:100D0300012503FC0212012540FC0212012578FC97
:100D130002120125F5FC0212012530FD0212012504
:100D2300ABFD02120125E7FD02120125F0FD0212BF
:100D33000125FCFD0212012516FE021201253BFED0
:100D43000212012551FE0212012595FE0212012510
:100D5300CBD102120125DED102120125F8D10212F4
:100D6300012521D20212012564D202120125A3D248
:100D730002120125E1D20212012546D302120125F6
:100D83005BD30212012566D30212012573D302122B
:100D930001258AD30212012598D302120125A3D378
:100DA30002120125AFD302120125C2D3021201257B
:100DB300CDD302120125F0D30212012599D40212D8
:100DC3000125A9D402120125C3D402120125E0D4BE
:100DD30002120125FCD40212012521D5021201259C
:100DE3002BD5021201253FD5021201255ED5021231
:100DF3000125BFD502120125C5D502120125CBD588
:100E030002120125D1D502120125DDD502120125D9
:100E130010D60212012544CE01120125C6CE0112BD
:100E230001256FCF01120125B7D001120125C5D2CB
:100E330001120125ABD301120125E0D301120125D3
:100E430002D401120125ABD4011201257BD6011274
:100E53000125A4D6011201251CD7011201254ED765
:100E6300011201255BD701120125A6D70112012525
:100E7300CAD7011201251BDA0112012525DB011254
:100E8300012581DB01120125C1BF01120125D2C059
:100E930001120125B6C101120125C0C101120125AC
:100EA300E2C101120125EEC10112012592C3011213
:100EB3000125BFC301120125D5C4011201252AC58D
:100EC3000112012579C6011201254EC70112012520
:100ED300AAC70112012515C8011201254AC801122A
:100EE30001258DC80112012557CB011201256FCBB6
:100EF3000112012500CC011201250ECC011201259E
:100F03005BCC0112012569CC01120125D5CC01125C
:100F1300012550CD01120125A7CD01120125828C97
:100F230002120125A48C02120125B58E021201259D
:100F33007491021201259E92021201255C93021202
:100F430001254894021201256C8C03120125918C12
:100F530003120125078D0312012578B90212012519
:100F630081B9021201258AB90212012562BA02125D
:100F7300012513BC0212012543BC021201256EBCDC
:100F8300021201259EBC02120125C9BC02120125D1
:100F9300FDBC0212012529BD021201256CBD0212FE
:100FA300012597BD02120125DEBD0212012533BEC4
:100FB3000212012575BE02120125CFBE02120125C0
:100FC300FABE0212012549BF0212012579BF02129E
:100FD3000125A4BF02120125D2BF02120125F5BFCC
:100FE30002120125559A03120125819A0312012544
:100FF300AE9A03120125B89A03120125C89A031267
:10100300012547B10212012551B10212012592B106
:1010130002120125DBB10212012515B202120125CC
:101023006BB2021201258CB2021201253BB50212EA
:10103300012544B50212012598B502120125C1B557
:1010430002120125CBB50212012539B60212012580
:10105300C9B60212012524B70212012552B70212A2
:101063000125DAB70212012519B8021201254EB87B
:101073000212012560B8021201257FB80212012570
:1010830088B8021201254AB902120125B596031246
:1010930001257B8A03120125B18A03120125E58A02
:1010A30003120125328C03120125D29A0312012562
:1010B300E89A03120125F29A031201253C9B0312BD
:1010C300012501E40212012514E402120125D8E4EA
:1010D3000212012517E50212012534E5021201254A
:1010E3006DE502120125BAE502120125ECE50212B3
:1010F300012523E602120125EA92031201250D932D
:10110300031201253C9303120125D49303120125F5
:101113001694031201255F9403120125739403129D
:101123000125E994031201255A95031201256695B9
:1011330003120125FA82031201251F8303120125DD
:101143004983031201259B9B031201255B3C00127B
:101153000125393E00120125D83F001201258340A5
:1011630000120125034100120125884100120125C7
:10117300B141001201258C450012012503460012DE
:1011830001251A47001201255447001201259547EE
:1011930000120125DC480012012532490012012505
:1011A3007B4900120125EA4900120125564A001223
:1011B3000125874A001201259F4A00120125B84BD9
:1011C30000120125C84B001201257E4D0012012596
:1011D300954D00120125C74D00120125694F0012DC
:1011E3000125FD4F001201258398031201259498D0
:1011F30003120125449C03120125839C031201253C
:10120300DAFF0212012534990312012544990312CE
:1012130001255C9903120125C29903120125B39597
:10122300031201253896031201259C96031201250A
:10123300709103120125999103120125049203125F
:101243000125559203120125B0920312012536E8B8
:101253000212012563E802120125D5E802120125D5
:10126300EAE8021201250BEA021201258EEA0212B4
:10127300012507EB0212012526EB0212012549EB9A
:101283000212012586EB021201259EEB02120125B3
:10129300F4EB02120125EDFF02120125E6F302121F
:1012A300012576F402120125FFF4021201259BF5B4
:1012B300021201252CF602120125DCF60212012589
:1012C300EAF60212012568F7021201257BF70212E2
:1012D300012591F7021201259BF702120125AEF7B2
:1012E30002120125D88F031201252A90031201252A
:1012F3009D90031201250A910312012534880312DC
:1013030001255E88031201252D8903120125098A0F
:101313000312012511A902120125DDA902120125DB
:101323001EAA0212012558AA02120125B6AA021208
:1013330001250AAB0212012568AB02120125FEAB9F
:101343000212012506AD0212012590AE02120125FB
:101353002EAF0212012595AF02120125A8AF02128A
:1013630001259CB002120125E5B002120125CEDB56
:101373000112012500DF0112012591E0011201256F
:10138300E8E00112012505E10112012585E10112C1
:10139300012501E301120125D0E3011201253DE7F7
:1013A3000112012527E801120125C7CC02120125EC
:1013B3003BCF02120125A5CF02120125BBD0021299
:1013C30001254AD102120125B1F702120125F6F7D0
:1013D3000212012513F802120125CEF8021201258B
:1013E3002AF90212012503FA021201253EFB021219
:1013F3000125C39C031201258D9C03120125F09C3A
:1014030003120125E1FF01E066701008A3E0667096
:101413000A08A3E066700408A3E06622C3E79608FF
:1014230009E7960809E7960809E79622C3E09608B4
:10143300A3E09608A3E09608A3E09622C008C3E0C1
:1014430096F50808A3E096420808A3E09642080828
:10145300A3E09645087001D3D00822080808EAC023
:10146300E0EBC0E086F0E7A4FA180986F0E7A42AC7
:10147300FA180986F0E7A42AFA180986F0E7A42ADD
:10148300FA1986F0E7A4FBE5F02AFA190886F0E7D3
:10149300A42BFBE5F03AFA190886F0E7A42BFBE549
:1014A300F03AFA18180986F0E7A4C5F02BFBE43AE2
:1014B300FA1908E7C5F0C6A426F6E5F03BFBE43AC3
:1014C300FA1886F0E7A4F6E5F00826F6E43B08F6FA
:1014D300E43A08F6D0E0FBD0E0FA22E4CFC0E0E43F
:1014E300CEC0E0E4CDC0E0E4CCC0E075F020C3E6BC
:1014F30033F608E633F608E633F608E633F618184B
:1015030018EC33FCED33FDEE33FEEF33FFC3EC9702
:1015130009ED9709EE9709EF97191919400FFFEC99
:1015230097FC09ED97FD09EE97FE191906D5F0BE54
:10153300ECF709EDF709EEF709EFF7191919D0E000
:10154300FCD0E0FDD0E0FED0E0FF226016080808E2
:10155300C6C313C618C613C618C613C618C613C601
:10156300D5E0EA227009080808226016181818C680
:10157300C333C608C633C608C633C608C633C6D582
:10158300E0EA22E627F60809E637F60809E637F621
:101593000809E637F622E026F608A3E036F608A3A4
:1015A300E036F608A3E036F622E026F008A3E0369C
:1015B300F008A3E036F008A3E036F022C3E697F67E
:1015C3000809E697F60809E697F60809E697F6226A
:1015D300C3E096F008A3E096F008A3E096F008A312
:1015E300E096F022E056F608A3E056F608A3E0568C
:1015F300F608A3E056F622E056F008A3E056F008FA
:10160300A3E056F008A3E056F022E0F608A3E0F6C4
:1016130008A3E0F608A3E0F622E6F008A3E6F00844
:10162300A3E6F008A3E6F022E0FAA3E0FBA3E0FCC4
:10163300A3E0FD22EAF0A3EBF0A3ECF0A3EDF0228C
:10164300CAC0E0E6F0A308DAFAD0E0FA22CAC0E0A2
:10165300E0A3C582CCC582C583CDC583F0A3C58273
:10166300CCC582C583CDC583DAE6D0E0CA22C3E404
:1016730098F8E499F91216B28026C3E49AFAE49B27
:10168300FBE920E7E91216B2E498F8E499F922C3DA
:10169300E498F8E499F91216B2E498F8E499F9C3D6
:1016A300E49AFAE49BFB22EB20E7CFE920E7E0B9D9
:1016B3000010BB0008E88AF084F8AAF022E4FBC813
:1016C300FA22EB70227B10C833C8C933C9335007E1
:1016D300C39AC3DBF280069A50012ADBEAC833F4CB
:1016E300C8C933F4C9FA2275F008E4C833C8C9334A
:1016F300C933C99AC99B5004C92AC93BD5F0ECFB2D
:10170300C833F4C8E4C9FA22600D08C6A2E713C6B9
:1017130018C613C6D5E0F322600C08C6C313C61857
:10172300C613C6D5E0F422700422600D18C6C33375
:10173300C608C633C6D5E0F41822251810AF08F53D
:1017430018400215198008F51840021519D2AF2266
:10175300C0D0251810AF08F518500205198008F5F8
:101763001850020519D2AFD0D0222518F58210AF38
:1017730008F518400215198008F51840021519D20A
:10178300AF851983222518F582E43519F58322E400
:10179300732518C582C0E0E51934FFC583C0E0E5B1
:1017A30018C3958224F810AF0885831985821880A1
:1017B30008858319858218D2AFCEF0A3E520F0A364
:1017C3007808E608F0A3DEFAEFF0A3E58124FAF83F
:1017D300E608F0A3E608F0A3E608F0A30808E60885
:1017E300F0A3E608F0A315811581D0E0FED0E0F860
:1017F300158115811581E8C0E0EEC0E0222518C5EA
:1018030082C0E0E51934FFC583C0E0E518C39582C3
:1018130024F910AF088583198582188008858319F8
:10182300858218D2AFCEF0A3E520F0A37808E608AE
:10183300F0A3DEFAEFF0A3E58124FBF8E608F0A3BA
:10184300E608F0A30808E608F0A3E608F0A315816C
:101853001581D0E0FED0E0F815811581E8C0E0EEF7
:10186300C0E022851983851882E0A3FEE0A3F5205A
:101873007808E0A3F608DFFAE0A3FFE0A3C0E0E006
:10188300A3C0E0E0A3C0E0E0A3C0E0E0A3C0E01099
:10189300AF08858218858319800885821885831986
:1018A300D2AFD083D082020122851983851882E0CA
:1018B300A3FEE0A3F5207808E0A3F608DFFAE0A38F
:1018C300FFE0A3C0E0E0A3C0E0E0A3C0E0E0A3C06A
:1018D300E010AF08858218858319800885821885F2
:1018E3008319D2AFD083D08222C0D02518C582C03D
:1018F300E0E51934FFC583C0E0E518C3958224F3FE
:1019030010AF08858319858218800885831985821D
:1019130018D2AFC8F0A3E9F0A3EAF0A3EBF0A379E0
:1019230008E709F0A3D8FAECF0A3EDF0A3EEF0A3D7
:10193300EFF0A3D0E0F0A3D0E0F0A3D0E0F0A3E574
:1019430020F0A3E5F0F0A322851983851882E0C077
:10195300E0A3E0F9A3E0FAA3E0FBA37808E0F6082C
:10196300A3DFFAE0FCA3E0FDA3E0FEA3E0FFA3E016
:10197300C0E0A3E0C0E0A3E0F5D0A3E0F520A3E03E
:10198300A3F5F010AF088583198582188008858335
:1019930019858218D2AFD082D083D0E0F8D0E0325C
:1019A30074048006740280027401C0E0F404121708
:1019B3006DD0E0121643227404800474028000CCBC
:1019C300C0E0EDC0E0E518C39CCCAD1950011D107B
:1019D300AF068C188D1980068C188D19D2AF12168C
:1019E30050D0E0FDD0E0FC22D083D082E9C0E0E417
:1019F30093A3C386F0C5F095F0F908E493A386F0AA
:101A0300C5F095F0700BE493A3C3994005E90480F6
:101A130002A3E475F002A42582F582E5F03583F58F
:101A230083D0E0F9E493A3C0E0E493C0E022D08341
:101A3300D082ECC0E0EDC0E0E493A3FCE493A3FD0B
:101A4300ED4C600D121A7DEC24FFFCED34FFFD809C
:101A5300EFE493A3FCE493A3FDED4C600D121ABCD9
:101A6300EC24FFFCED34FFFD80EFD0E0FDD0E0FC83
:101A7300E493A3C0E0E493C0E022C0E0C3E4939600
:101A8300087401939618400FE49366700808740174
:101A930093661870007019A3A3C3E49396087401A6
:101AA300939618A3A3400DD0E0D0E0D0E0021A6DC6
:101AB300A3A3A3A3A3A3D0E022C0E0C0F088F0E4D3
:101AC300936670080874019366187000A8F0A3A3C6
:101AD300700BD0F0D0E0D0E0D0E0021A6DA3A3D019
:041AE300F0D0E0223D
:101AE80074F5121800EAFEEBFFEE2434F8EF340028
:101AF800F988088909EE2435121C20F8EE243712DB
:101B08001C20F50AEC850AF0A4FCAAF0850AF0ED81
:101B1800A42AFDE82CF8E43DF97A257B001216B2D8
:101B2800EA850882850983F05407F87401B8000231
:101B38008004C333D8FCC0E0E0131313541FF8EE3D
:101B480028F8EF3400F9E8245DF582E93400F583DC
:101B5800D0E0F8E0586008850882850983801DEE8A
:101B68002436121C20F5F0EA84A8F0EE28F8EF34A9
:101B780000F9E82438F582E93400F583E0F97F04B8
:101B88000218AC74F5121800EAFEEBFFEE243412CA
:101B98001C20C0E0EE2435F582EF3400F583D0E058
:101BA800F08E828F83A3A3A3A3A3E0FAA3E0FB8E06
:101BB800828F83A3A3A3A3A3A3A3E0FCA3E0FDECCC
:101BC800C39AF50AED9BF50BEE2480F508EF340077
:101BD800F509850882F583E06401702BEE2481F510
:101BE80082EF3400F5831219BE121C2974021217F1
:101BF80053E960137CFD7D04EEFAEFFB120B888538
:101C08000882850983E4F0AC0AAD0BEEFAEFFB120B
:101C18001AE812217C021B86F582EF3400F583E076
:101C280022C082C083851882851983E0F8A3E0F971
:101C3800C3EA9CEB9D5012C3EC98ED994019C3EA96
:101C480098EB99501279018010C3EA98EB9940F506
:101C5800C3EC98ED9950EE7900D083D08222EAC384
:101C68009CFAEB9DFB2200008521878522C622C0B5
:101C7800E074EF1218EC759B00906182E0A2E640D8
:101C880003021D38E591A2E64003021D387591BF95
:101C98009003C2E064057008120D26120D3280030D
:101CA800120D2C752100120D98E99003C3F07900EC
:101CB800120D8C120AF27A017B009003C1E0F9122E
:101CC8001062907803E064426003021D8190055F12
:101CD800E014F06003021D81C2AF121CE500782AEF
:101CE800D0E0F618D0E0F6E59F5407F97005909219
:101CF8004F800390924B780812160DE9C4C0E07823
:101D080029E65508F50808E65509F509740B780819
:101D180012171BD0E02508F8906270E0A2E740F89F
:101D2800E8C333906272F0906270E0D2E0F08049CC
:101D3800E0A2E55024E591A2E5501E7591DF9003DD
:101D4800C2E0640D70139003E4E004F064287002AC
:101D5800E4F07A00E0F9120E0A906181E0A2E35003
:101D680009E5E9A2E3500375E9F7A3E0A2E7500902
:101D7800E591A2E7500375917F7F0402194BC0E0FB
:101D8800C0D0C082C083906183E0A2E05009E5BF63
:101D9800A2E0500375BFFEE0A2E15009E5BFA2E151
:101DA800500375BFFDE0A2E25009E5BFA2E250036F
:101DB80075BFFBE0A2E35009E5BFA2E3500375BF7E
:101DC800F7E0A2E45009E5BFA2E4500375BFEFE0D5
:101DD800A2E55009E5BFA2E5500375BFDFE0A2E622
:101DE8005009E5BFA2E6500375BFBFD083D082D0AB
:101DF800D0D0E032C0E074F21218ECE5A7A2E450AB
:101E08000FE5A1A2E4500953A7EF75A1EF121E50E8
:101E1800E5A7A2E5500CE5A1A2E5500653A7DF759A
:101E2800A1DFE5A7A2E15009E5A1A2E1500375A150
:101E3800FDE5A7A2E2500CE5A1A2E2500653A7FBDC
:101E480075A1FB7F0102194B74F812180075210166
:101E58009003C2E0640670077A007B00120D0EA2A0
:101E6800AFE433FED2AF9003C8E0640170187A2063
:101E78007B009003C1E0F91210E67A207B00900302
:101E8800C1E0F9121068906182E0D2E6F090055E38
:101E9800E0602185C62280169003C7E064017008BF
:101EA800E5C654F84405F5C653BEFC121C7074010F
:101EB800652160E4EEA2E092AF7F010218AC000059
:101EC8008E238F2485822885832785188285198308
:101ED800E0CEA3E0CF852882852783EBC9EAC8ED49
:101EE800CBECCA75F010C3E833C8E933C9EA33CA82
:101EF800EB33CBC3EA9EF526EB9FF525B35004AB35
:101F080025AA26EC33CCED33CDD5F0DAAE23AF24B9
:101F18002274F11218008A088B098C0A8D0B740F31
:101F2800121788780C12160D90922378081215E76C
:101F3800909223780C1215E77808790C12141F5028
:101F4800157808790C1215BF9091EF780812143F94
:101F5800401579018013780C79081215BF9091EF1C
:101F6800780C12143F40EB79007F080218AC74ED2E
:101F78001218008A088B098C0A8D0B7413121788A3
:101F8800780C12160D90922378081215E790922378
:101F9800780C1215E7780C790812141F401178088C
:101FA800790C1215BFAA08AB09AC0AAD0B802275D3
:101FB80010007511007512007513017810790C1254
:101FC80015BF78107908121586AA10AB11AC12AD9E
:101FD800137F0C0218AC909223780812160D8A828F
:101FE8008B8378081215FA7F040218AC74F512185E
:101FF800008C828D83780812160D8A828B8378086C
:102008001215D3122048C3E098F0A3E09912203AA1
:10201800401E909263780812160D8A828B83780886
:102028001215AC8E828F83E02420F0A3E0344EF0AA
:1020380080A4F08E828F83C3E09420A3E0944E2284
:10204800EA2404F8EB3400F9E8FEE9FF8C828D837A
:10205800A3A3A3A3E0F8A3E0F98E828F832274F5EB
:10206800121800E9FE900514E0FAA3E0FBEEC33372
:10207800F8E433F974FB28F582749039F583E02A83
:10208800F508A3E03BF50978081219A790925F12AA
:10209800162B121EC874021217538A088B098C0A51
:1020A8008D0B7410780812154EAA08AB097F04022C
:1020B80018AC74F11218008A0C8B0D8C0E8D0F74ED
:1020C8000F121788E0FAA3E0FB7411121788E0F5E5
:1020D80008A3E0F5097413121788E0FEA3E0FF785F
:1020E800081219A7EA2401F508EB3400F509E4F50C
:1020F8000AF50B780C790812145E9091EB780812A7
:10210800160D780C790812145EAA0CAB0DAC0EAD46
:102118000F121EC874021217538B09EA450960048E
:102128007A0180027A00EC2AFCED3400FDECF8ED2F
:10213800F97A717B021216B288088909E4F50AF562
:102148000B8E828F83780812161CECF8EDF97A71E1
:102158007B021216B28A088B097405780812172AAE
:102168008E828F83A3A3A3A3E508F0A3E509F07FDC
:10217800080218ACC082C083E9906000F0D083D018
:102188008222C0E074F21218ECA2AFE433FED2AFA0
:10219800C2C0E5D1A2E4500653D1EF1212DEEEA27E
:1021A800E092AF7F0102194BC0E074F21218ECA262
:1021B800AFE433FED2AFE589A2E1500312124875AD
:1021C8008900C2C5EEA2E092AF7F0102194BC0E0C0
:1021D80074F21218ECA2AFE433FED2AFE58BA2E0A2
:1021E8005003121248758B00C2E880D8C0E0C0D0F6
:1021F800E8C0E0E5A8D2AFC2C7A2E792AFD0E0F846
:10220800D0D0D0E032C0E0C0D0E8C0E0E9C0E0C043
:1022180008C009C082C083A2AFE433F9D2AF9009E5
:10222800FAE0F8A3E0687008539AFBA374018026CB
:10223800C2E99009FAE0F50874012508F0747A25D6
:1022480008F58274093400F583E0F5C19009FAE0D5
:10225800C394804002E4F0E9A2E092AFD083D08238
:0F226800D009D008D0E0F9D0E0F8D0D0D0E032E3
:10227800FFFFFFFFFFFFFFFFC082C083E9900BA5B0
:10228800F002250474F7121794E99002E0F07C1824
:102298007D037AFF7BFF1208169002E174FFF0A31A
:1022A800F0A3E4F0A3F0790512079E9002E0E0F9AC
:1022B8001206C67A347B081209F002321274F4123C
:1022C80017948A088B09EB548060309002E0E0F99B
:1022D80012104A8A0A8B0BAE0AAF0BEE4F60138EB0
:1022E800828F83E064B070031207B6EEFAEFFB1238
:1022F8001038AA08E5096480FB80047A007B000294
:1023080024D374F212179474FC12173DEAFEEBFF03
:1023180074121217881236F9EE4F70030223AD7447
:1023280002121788EEF0A3EF12270EECF0A3ED12BD
:10233800270EAA82AB831206C0E9F50A706AE5087F
:10234800450960648E828F831236DFEE4F60567ABD
:10235800067B0012109E8A0C8B0DA80CA90DE8496B
:102368007005750A13804188828983E41223BAEEC6
:10237800F0A3EF12370AE508F0A3E509F09002E6AA
:102388001224419002E670051231BC801B1231AA5A
:102398008003EAFCEBFD8C828D8312244170F38C60
:1023A800828D8380E3750A02A90A74041217530206
:1023B80038F9F0A31236B0A32274F2121794890ADE
:1023C800E975F017A4FEAFF09002E5E4F09002E39F
:1023D800122441600A1210A49002E3E4F0A3F0EE84
:1023E800FAEFFB12109E8A088B09EA4509602FEE66
:1023F800FCEFFD79001210209002E3E508F0A3E558
:1024080009F07B00800812242BE4F0A3F00BEBC347
:10241800950A40F2E50A9002E5F079008002791306
:102428000238F9EB75F017A4F8A9F09002E3E02858
:10243800FAA3E0398A82F58322122E4EEA4B2274DF
:10244800F4121794740C1217881236D4FEE9FF752B
:102458000800750900800CE5082401F508E5093431
:1024680000F509C3E5089CE5099D503285080A85F1
:10247800090B7403780A12172AEA250AF8EB350BB8
:10248800F988828983A3A3A3A3A3A3123291EE653B
:102498000A7003EF650B70BFE8FAE9FB80047A0065
:1024A8007B00802774F41217947900EAA2E0501B8D
:1024B8007508C275099178081219A77C047D007AFD
:1024C800A77B0B12079874021217537F0402186631
:1024D800C082C0839002E612250B601C8882898323
:1024E800A3A3E06A7003A3E06B8882898370E8A3E2
:1024F800A3A3A3122E4A80047A007B00D083D08243
:102508000201221239DFE8492274EE12179474FC92
:1025180012173DEAFEEBFF851882851983E4F0A3C4
:10252800F0EE240212319CEE24051236B7EE240494
:10253800F50EEF122AC3E024FE603924FC6046241D
:10254800FE605224FE605E24FE700302262424FEF0
:10255800700302268824FE700302269724FE700367
:102568000226A624FC70030226B524FE7003022668
:10257800C40227019002FF7417F0A3E41227161271
:10258800043E022701851882851983AC82AD831227
:1025980007BC0226D1851882851983AC82AD8312C7
:1025A80007C20226D1850C08850D09740212178806
:1025B800AC82AD83850882850983122E4A1206E40F
:1025C8008A0C8B0DAC0CAD0DEC4D603BE4F50CF5B5
:1025D8000D780C1219A7750CFF750D02780C1219DD
:1025E800A7750C00750D03780C1219A7740812173B
:1025F800881219BE123B5B121753E9F50C700B12C7
:102608002E40120456800F750C01850882850983B7
:102618001227041231BC850C080226D47402121742
:1026280088AC82AD83850C82850D83122C15603CA5
:10263800850C82850D83A3A31219BE7510FF751131
:102648000278101219A77510007511037810121965
:10265800A774081217881219BE123B5B121753E9A8
:10266800F509700B122E4012045C800F7509018564
:102678000C82850D831227041231BC850908804C11
:10268800851882851983AC82AD831207C8803A8584
:102698001882851983AC82AD831207CE802B8518EA
:1026A80082851983AC82AD831207D4801C85188279
:1026B800851983AC82AD831207DA800D851882856F
:1026C8001983AC82AD831207E0E9F508E5086029B3
:1026D8008E828F83A3E06414601F850E82850F832A
:1026E800E09002FF12270E1239DB9003001231BC72
:1026F800E508A31227161204380230AB1239DF8519
:10270800188285198322F085188285198322F07C26
:10271800FF7D02850A82850B83122E4E2274EE12EB
:10272800179474FC12173D8A0A8B0B8C0E8D0FEAD6
:102738002405F508EB3400F5097C157D0079007A4D
:10274800FF7B02121020E5082402F50CE509123679
:10275800BA851882851983858210858311781012AD
:1027680019A7850882850983A3A3A3A3122C0C1299
:1027780019A7E5082405F510E5093400F5117810C6
:102788001219A7850C82850D83122F611206DE743B
:10279800061217538A108B11AE10AF11E50A2402E6
:1027A800F50AE50B12319FEE4F70030228E38017FC
:1027B8007402121788122E4A88828983EAF0A3EBE2
:1027C800F09002FFE004F09002FFE0C3940540039C
:1027D8000228E3E4F510F51178101219A77510E82E
:1027E80075110278101219A77510E9751102781081
:1027F8001219A774061217881219BE7910EEFCEF89
:10280800FD123B5D121753E9705E850882850983C6
:10281800A3A3A3A3A3A3A3E0F89002E8E0687048E9
:10282800122C0C1219A77CE97D02E5082408FAE5A8
:10283800093400FB12101A7402121753E960298E2A
:10284800828F83A3A3A3A3122E4A9002FFE0F51060
:102858007402781012172A74002510F58274033553
:1028680011F583EAF0A3EBF0740212178885821041
:1028780085831178101219A774021217881219BECD
:10288800850C82850D83122E701217538A108B11B6
:10289800AE10AF119002FFE0F510751100740278C8
:1028A8001012172A74FF2510F874023511F988825E
:1028B8008983A312244170030227AFE82403080880
:1028C80008E93400F9EE4F60030227B8888289834B
:1028D80074FFF0A3F09002FFE004F09002FFE060C4
:1028E8000A122E4012044A7900800B850882850955
:1028F800831231B3790A0230AB74EA12179474FE6A
:1029080012173D8C128D13EA2405F50CEB123B458A
:102918001236E3750800750900EA2402F510EB3455
:1029280000F51185188285198385820A85830B78BD
:102938000A1219A7850C82850D83A3A3A3A3122AC3
:10294800D91219A7E50C2405F50AE50D12319F786F
:102958000A1219A7850C82850D83122ADD1206DE5C
:1029680074061217538A0A8B0BEA450B7003022A66
:102978007EEA2404F50EEB122AC31236E38A828B10
:1029880083A3A3A3E0F9851082851183122E5460D6
:1029980003022A7EE4F514F51578141219A77514A4
:1029A800E875150278141219A77514E975150278D7
:1029B800141219A774061217881219BE7913AC0AD3
:1029C800AD0B851082851183123B63121753E9F50D
:1029D800096003022A7E9002E8E0F8E5087009E041
:1029E8002402900300F08014900300E0FCE8240225
:1029F800FAE43400FBEA6C7001EB707E850882AA69
:102A080082122C039414122BFB506B850E82850FB7
:102A180083E0C0E074012A122ABAD0E0F0050885E4
:102A28000E82850F83A3E0C0E085080A7401250A99
:102A3800122ABAD0E0F005089002E8122AD9121931
:102A4800A77CE97D0285080A7401250A122ACD129D
:102A580017539002E8E02508F50874FF6E700374B8
:102A6800FF6F6012EE24010EEF3400FFE508C394F7
:102A780014500302292BE5086013122E5E8510827C
:102A8800851183122E4A12045079008014E50970CA
:102A98000375090A851282851383EEF0A3EFF0A966
:102AA8000974021217537F0E02186685080C740108
:102AB800250CF58274033400F583223400F50F8564
:102AC8000E82F58322FA74033400FB121008740294
:102AD8002212371922A3A3122AE3221231AAFDEEE9
:102AE800FAEFFB2274EE12179474FE12173D8C0E47
:102AF8008D0FEA2405F50CEB1236BA750B0090021F
:102B0800FFE4F0F50AEA2402F508EB3400F5098041
:102B1800449002FFE0FA9002E8E0F8122C039417C0
:102B2800122BFB400D9002FFE0F87416C398900238
:102B3800E8F0122C0C1219A77CE97D0274002AFA1D
:102B48007403122AD01217539002E8E0F89002FF9B
:102B5800E028F0050AE50C2416F582E50D122ABED8
:102B6800E0F8E50AC39850749002FFE0C394165049
:102B78006BE50AC333F8E433F9E50C28FEE50D39B3
:102B8800FF851882851983AC82AD838E828F83126C
:102B98002C157008750B011231AF8050E4F510F553
:102BA8001178101219A77510E8751102781012190A
:102BB800A77510E975110278101219A77406121773
:102BC800881219BE7916850882850983123B63121B
:102BD8001753E9F50B7003022B1980BB7CFF7D02AC
:102BE800850882850983122E4A120462A90B740291
:102BF8000230ADE99400C365D03322EA28F8E43402
:102C080000F9E822E0F5107511007810221230A2C0
:102C18008A108B11AC10AD11EC4D2274EA12179486
:102C280074FC12173D8A0C8B0D8C128D13EA240547
:102C3800F50AEB12319F750800750900E50A2402B0
:102C4800F510E50B3400F511740212178885820E11
:102C580085830F780E1219A7850A82850B83A3A393
:102C6800A3A31236BF1219A7E50A2405F50EE50B32
:102C78003400F50F780E1219A7851082851183127A
:102C880031A5122E441206DE74061217538A0E8BD3
:102C98000FAE0EAF0FE50C2402F50EE50D3400F56E
:102CA8000F80388882898374FFF00508122AB3746C
:102CB800FFF005089002E8E0F50C750D00780C129D
:102CC80019A77CE97D0285080C7401250C122ACD10
:102CD8001217539002E8E02508F508EE4F60278E9A
:102CE800828F83A3A3A3E0F9850E82850F83122E1A
:102CF80054EE24041236B7E96027850C82850D83CB
:102D0800122E361231BCE5087003022E1C122E5EFC
:102D1800850E82850F83122E4A1204687900022ECE
:102D280031E4F514F51578141219A77514E875151A
:102D38000278141219A77514E97515027814121976
:102D4800A774081217881219BE7911EEFCEFFD85D9
:102D58000E82850F83123B63121753E9F509709AA7
:102D6800850882AA82EA9002E87009E024049003A8
:102D780000F08025E0F8900300E0F514E82404FC56
:102D8800E43400FDEC65147001ED7081122C03949D
:102D980012122BFB4003022D15850C82850D83E052
:102DA800C0E074012A122ABAD0E0F00508850C8226
:102DB800850D83A3E0C0E0122AB3D0E0122E7985F6
:102DC800820C85830D780C1219A7740412178812C7
:102DD80019BE851082851183122E701217538A0C22
:102DE8008B0DAE0CAF0D85080C7401250CF874031F
:102DF8003400F9EE4F7003022CAB851882851983D5
:102E0800E088828983122E79A3E0C0E0122AB3D029
:102E1800E0022CB9E509700375090A850A82850B59
:102E280083122E361231BCA9097404022AAB123956
:102E3800DF851282851383227CFF7D02850A8285C5
:102E48000B83122E4E22E0FAA3E0FB22122E4E1222
:102E580006CCE9F50922900300E0F5F0E508849036
:102E680002FFF07CFF7D0222122AE31206EA7404B4
:102E780022F005088518828519832274EC121794AC
:102E880074FE12173D8A088B098C0E8D0FEA2405F3
:102E9800FEEB3400FF12308CEE24181236B7EA45E8
:102EA8000B7003022F2F1230755029122F548A10DD
:102EB8008B11EA4511606B7912AC0AAD0B8508825B
:102EC800850983122E4A851082851183121792E98B
:102ED800F50A7058E4F50AF50B780A1219A78E82DC
:102EE8008F83A3A3E0F50A780A1219A7EE24031228
:102EF800319C780A1219A78E828F83122F611208CB
:102F0800047406121753E9F50A7021850C82850DA1
:102F180083E0701F850882850983122E4A12046E89
:102F28008011750A0E8009750A018004E50A60039C
:102F38001231AF850C82850D83E060047900800230
:102F4800A90A74021217537F0C0218668518828525
:102F58001983122E4E1207F2221231AAFD85088219
:102F6800850983122E4E2274EE12179474FE1217DE
:102F78003D8A088B098C0C8D0DEA2405FEEB340084
:102F8800FF750E0012308CEA450B700302305312A5
:102F98003075502C122F548A0E8B0FEA450F604A59
:102FA8007912AC0AAD0B850882850983122E4A85F1
:102FB8000E82850F83121792E9F50E6003023056D0
:102FC800850882850983123291AA0AFB123067703C
:102FD800147AFF7BFF123067606C88828983E50A68
:102FE800F0A3E50BF0750A008007750E0E805F05EB
:102FF8000A9002E5E0FAE50AC39A504AE50A75F034
:1030080017A4FAABF088828983A3A3E02AFAA3E085
:103018003BFB8A828B831231A5EC4D70D2750A175F
:10302800750B00780A1219A7EEFCEFFD1210087450
:1030380002121753EEFCEFFD850882850983122ED4
:103048004A1204748014750E098003750E01123932
:10305800D7850C82850D831231BCA90E022BF6127E
:1030680007E68A108B11A810A911E84922E508245F
:1030780002F508E5093400F5098A828B83A3A3A326
:10308800E0A2E522851882851983AC82AD838E8201
:103098008F831230A28A0A8B0B22E0FAA3E0FB127C
:1030A80006E42274041217537F0A02186674EC129D
:1030B80017948C108D11EA2405F50CEB1236BA75AD
:1030C8000F00EA2402F50AEB12319F850A82F58384
:1030D800122E4A123BE97003023191750E0080717D
:1030E800850C82850D83E06401704F8E828F83A3E7
:1030F800A31219BE8E828F83A3A3A3A3E0F5127532
:10310800130078121219A7EE2405F512EF3400F512
:103118001378121219A7122E4412080474061217F3
:1031280053E9F50F6014850C82850D83E4F012399C
:10313800D78510828511831231BC7C177D007900F8
:10314800EEFAEFFB1210208E828F83E4F0A3F005D5
:103158000E9002E5E0F8E50EC398501EE50E75F0F6
:1031680017A4F8A9F0850882850983A3A3123B4F09
:103178001231A5EC4D60030230E885088285098389
:1031880074FFF0A3F0E50F7006122E4412047AA91A
:103198000F022F4FF50AEF3400F50B22A31231AAC4
:1031A800FD22E0FCA3E0228E828F831239DF850E98
:1031B80082850F83E8F0A3E9F022C082C0839002E1
:1031C800E1E06A7003A3E06B70067AE17B02800499
:1031D8007A007B0002250474F71217947F00EF75BC
:1031E800F003A4F8A9F0EC28F8ED39F9888289836E
:1031F800E06A7003A3E06B7006E8FAE9FB800B0F46
:10320800EFC3940240D87A007B007F0102186674ED
:10321800F61217941237C870067A007B008007A34D
:10322800A3A3A3122E4A02388974F2121794E9FE56
:10323800740E12178812329174101217881236F908
:103248008C828D83E06402703BA31239DB8882890B
:1032580083E0F50CA3E0F9A80C74026870037429E4
:10326800697021750C02750D00780C1219A7780881
:103278001219A7780A1219A7EEF91208287406126B
:103288001753800279010238F9E0F50AA3E0F50B3B
:103298002274E812179474FB12173DE98518828589
:1032A8001983F08A168B178C0E8D0F741F121788CE
:1032B8001236F97421121788123291742312178862
:1032C8001236E37510008C828D83A3A3A3E0A2E4D9
:1032D800502A741D121788122F5A8A828B83E5820E
:1032E800458370030233A5790AAC0EAD0FAA16AB5D
:1032F80017121792E9F51060030233A8850E82852C
:103308000F83E06402600302365EA31239DB85088E
:1033180082850983A3858212858313E50E2406F529
:103328000CE50F1236BA88828983E0FAA3E0F9EA3D
:103338002400F514E439F5157814121A3101000047
:103348002801286D330700022844340328B43300C9
:10335800296E350129963502293D3503296E350434
:1033680029FF355E36EE4F703E850C82850D83123F
:1033780036D4FAE9FB8A828B83E0850A82850B833F
:103388001237101219A78A828B83A31231AAFDAAB9
:1033980008AB091210087402121753800375100E37
:1033A800A9107405023B3D75100B80F4EE4F70F7C1
:1033B800850A82850B837401F01236E985088285B7
:1033C8000983F07C007D00850E82850F83A3A3A36B
:1033D800A3E02401FAA3E03400FB1206E4EA4B6000
:1033E800418A828B83E02402F8850A82850B83E078
:1033F80028F0EA2404F8EB3400F988828983E08510
:1034080012828513831237221237101219A78A8263
:103418008B831231A4E5082403FAE5093400FB0282
:10342800339B850A82850B83E02404F07C047D00AD
:103438007900AA12AB131210200233A8EE4F6003D2
:103448000233AF1236E9FEA3E0FF850A82850B83BB
:103458007404F0EE850882850983F0EF8512828571
:103468001383F07403121788AC82AD83EEFAEFFB76
:103478001237B6700302351A8A828B83A3A31236D9
:10348800DF740112178885820E85830F780E121952
:10349800A774051217881219BE7CFF7DFF1206EA71
:1034A80074041217538B0FEA450F7033850C82850D
:1034B8000D831236BF1219A7850C82850D83A312BE
:1034C80019BE7C027D007AA17B9212051674041243
:1034D8001753E9700A740112178874FFF0A3F08E6D
:1034E800828F83E064027034750C02750D00780CCD
:1034F8001219A78E828F831231A4E5082404FAE5F5
:1035080009122AD0121753850A82850B83E02402F8
:1035180080097401121788EEF0A3EFF074011217F6
:10352800881236D0F07401121788A31236C8A3A3E4
:10353800A3F00233A8EE4F60030233AF850C8285F7
:103548000D831231A5AA16AB1712081C850A8285AD
:103558000B837402F0EA850882850983F08512825C
:10356800851383EB80CBEE4F60030233AF1236E94D
:10357800F8A3E0F9850A82850B837402F0E88508D0
:1035880082850983F0E985128285138380A3850CDF
:1035980082850D83122E4A121002EAFC8C82A882C0
:1035A800C39EE49F404BE86E7001EF70047C00807E
:1035B8001F851882851983E0FAEE2AFAEF3400FB9A
:1035C800C3EA98EB94005003E08004EECCC39CFC63
:1035D800EC850A82850B83F08C0A750B00780A1239
:1035E80019A7850C82850D83E02EFCA3E03F0233EA
:1035F800967510070233A8EE4F60030233AF850CAF
:1036080082850D831239DB850A82850B837407F066
:10361800888289831236C81236B0E08512828513F3
:1036280083F0E82402FAE93400FB8A828B8312369D
:10363800C81237011236D0A312370A1236D9F0E869
:103648002405F8E93400F9888289831236D9A3124F
:103658003722A3023536741D1217881237C170033A
:103668000233A51239DB880C890DE8450D70030279
:1036780033A58E108F1178101219A7780A1219A77E
:1036880078081219A77406121788E0F9AC0EAD0F66
:10369800AA16AB17850C82850D8312179274061231
:1036A8001753E9F5100233A8F088828983A322F51D
:1036B8000CEF3400F50D22E0F50E750F00780E22A0
:1036C800E085088285098322123729221239DFE82A
:1036D80022123729A3A322A3A3A3A3E0FEA3E0FFFA
:1036E80022850C82850D83E0F8A3E0F5838882E0CB
:1036F80022E0F508A3E0F50922A3A3F08A828B83D0
:10370800A3221223BCA3A322F08A828B8312371927
:1037180022E0F50A750B00780A221236B012372912
:1037280022E0850882850983A3A32274EE121794E8
:1037380074FE12173D8A0A8B0BECFAEDFB74141217
:103748001788E0F510A3E0F5117416121788E0FE4B
:103758007418121788E0F50EA3E0F50F8518828516
:103768001983AC82AD831237B6603E8518828519FD
:10377800831237C1602FA3A31236F9E50845096003
:1037880024780E1219A778101219A7EEF9AC0CAD0F
:103798000DAA0AAB0B850882850983121792740457
:1037A8001217538006790E80027901022BF6120651
:1037B800E48A0C8B0DEA450D22122E4E1237C822D0
:1037C8001207B08A828B83E58245832274F612172A
:1037D8009474FE12173D740C1217881236D485188B
:1037E80082851983F07401121788E9F0E4F508F569
:1037F8000978081219A775080278081219A774041D
:1038080012178885820885830978081219A7120873
:103818000474061217537402121753806474F71253
:103828001794EAFEEBFF89087C187D0312081CEA4E
:103838005402600BA908EEFAEFFB1206D880027951
:103848000102321274F612179474FF6A700374FF3F
:103858006B701C7B00EB75F003A4F8A9F0EC28F85A
:10386800ED39F912388E0BEBC39402501480E6122E
:1038780007EC8A088B09A808A909E84960031238E7
:103888008E7F020218668882898374FF1223BAE445
:10389800F02274F61217941207EC8A828B83E58261
:1038A80045836006A3A3E0FA80027A007B0080D1FA
:1038B80074F21217948A088B09ECFEEDFF740E124D
:1038C8001788E0F50A1238FE701CEEFCEFFD7AFF4F
:1038D8007BFF1238FE70047911801688828983E58F
:1038E80008F0A3E509F088828983A3A3E50AF079A3
:1038F800007F060218661207EC8A0C8B0DA80CA92B
:103908000DE8492274EE121794EAFEEBFF8C088D3D
:1039180009890C74121217881239DB74141217886B
:103928001231A57416121788122E4A750D00EC4D27
:1039380060030239CF7402650C60030239CA8882B9
:1039480089831231AAF9EC2400F50EE439F50FEA5F
:10395800F4F8EBF4F9EC58F8E50F59F9E849705D1B
:10396800E5082406F8E5093400F9880A890B8882F5
:10397800F583122ADF12081C8A108B11E50E6510D8
:103988007004E50F65116042780E1219A7850A8246
:10399800850B83122ADF1208227402121753E9F5E5
:1039A8000D7027780E1219A7850882850983A3A3AD
:1039B800122ADD12083A7402121753800D750D8011
:1039C8008008750D0D8003750D0BA90D0230B08EA2
:1039D800828F831239DF22E0F8A3E0F92274E8121B
:1039E800179474E712173D851882851983EAF0A3A6
:1039F800EBF08C168D17890E7431121788E0F512CA
:103A0800A3E0F5137433121788E0F514A3E0F51555
:103A18007435121788E0F50F750800750900E50977
:103A280075F003A4F8A9F0851882851983123B4F15
:103A3800E0F47003A3E0F47003023B2DEE2402F5DA
:103A48000CEF123B45E07003023B2D85160A8517E3
:103A58000B780A1219A7AC14AD15AA12AB131207EA
:103A6800A474021217538A0A8B0BEA450B700302DF
:103A78003B2DE4F510F51178101219A774061217EA
:103A88008885821085831178101219A77409121776
:103A98008885821085831178101219A7851282856E
:103AA8001383A3A3A3A31219BE7914AC0AAD0B8E7A
:103AB800828F83123B63121753E97069850A8285E6
:103AC8000B83A3A3A3A31239DB7402121788123144
:103AD800BC850C82850D83E0A2E05018A90E740203
:103AE800121788AC82AD838E828F83122E4A1206FB
:103AF800FCE94208850C82850D83E0A2E15026E5A9
:103B08000FF50A780A1219ABA90E7403121788ACBC
:103B180082AD838E828F83122E4A1206F6740112AA
:103B28001753E942080509E509C394025003023A0C
:103B380026A90874191217537F100218663400F565
:103B48000D850C82F58322E028FEA3E039FF8E82E2
:103B58008F83227916850A82850B83122E4E1207CF
:103B6800FE74082274F2121794EAFEEBFF890B74B4
:103B780001650B600E7402650B70637901120A0E01
:103B8800E9705BEEFAEFFB123BE96047750A0080CB
:103B98000B7C177D007900121020050A9002E5E0E1
:103BA800F8E50AC3985021E50A75F017A4F8A9F0BA
:103BB800850882850983A3A3E028FAA3E039FB8A54
:103BC800828B8312250B70C985088285098374FF4F
:103BD800F0A3F07C187D03EEFAEFFB12081602380A
:103BE800F91207E68A088B09EA45092274F21217C6
:103BF800948A088B09ECFEEDFF740E1217881232B6
:103C080091900BA5E0F4603D7A097B00121032EA2E
:103C18004B60328A828B8374B1F0A3E4123703A31A
:103C2800123701A3E508F0A3E509123C50EEF0A312
:103C3800EF123C50A3A3E50AF0A3E50BF0900BA507
:103C4800E0F912103E0238F9F08A828B83A3A3A30D
:103C5800A3A32274F4121794E9FF7E008A088B0943
:103C680078081219EB00040D0C3E8E3CAA3CBF3CB0
:103C7800D43CE93CFE3C1A3D333D453D733D953D02
:103C8800B13DCD3DEB3D74016F70128C828D83E0A8
:103C9800C394035008E0900C91F0023E2A7E18026B
:103CA8003E2A74026F70F68C828D83124568900CE0
:103CB80092E8F0A3E980E274016F70E18C828D8351
:103CC800E0C3940250D7E090079B80CD74016F70D9
:103CD800CC8C828D83E0C3940550C2E090079C8011
:103CE800B874016F70B78C828D83E0C3940250ADB5
:103CF800E090079D80A374106F70A27508108E095C
:103D080078081219A77A9E7B0712492C12175302BA
:103D18003E2A74016F70868C828D83E0C3940240C2
:103D280003023CA5E09007AE023CA174016F60035A
:103D3800023CA58C828D83E0900C95808D74046F75
:103D48006003023CA590925F780812160D8D838C53
:103D580082780812142F4003023CA58C828D8312AE
:103D6800162B9007B0121637023E2AEF6003023C6A
:103D7800A5120684E9700E1211B279501213681256
:103D880011A6023E2A9008437401023CA174016FF7
:103D98006003023CA58C828D83E0C3940240030239
:103DA8003CA5E09007AF023CA174016F6003023CA0
:103DB800A58C828D83E0C3940A4003023CA5E09061
:103DC8000C94023CA174016F6003023CA58C828DA7
:103DD80083E024F9C3940A4003023CA5E0900C96C2
:103DE800023CA174016F6003023CA5900842E0F810
:103DF8008C828D83E0900842F0E87026E0640170C0
:103E080021023D87C3EA9426EB9400501374026F95
:103E1800700E8C828D83124562120522E9FE8002A3
:103E28000E0EEEF9023E34740E1217537F04021878
:103E38006674F012179474CC12173D8C0A8D0B74AB
:103E480044121788E0FE7420121788AC82AD83757F
:103E580083917582C874061216507420121788ACA4
:103E680082AD83121158E9F508C3940A4003023F52
:103E78009D75F006E9A4F5097426121788AC82AD81
:103E8800837A0E742025091249E4700974321217D6
:103E980088E0FF80027F00900C91E0640270047457
:103EA800018001E4F50D780D1219ABEEFDEFFCA9C8
:103EB80008AA0AAB0B1211DC74011217537C147D8B
:103EC800007900740C121788AA82AB831210207430
:103ED8000C121788AC82AD837A1074242509124914
:103EE800E470377C1079FF740C1217881247117030
:103EF80029741C121788AC82AD837A0474252509AD
:103F0800F9121362740C121788AC82AD83EFA2E029
:103F1800E433F9AA0AAB0B1205AC8518828519831C
:103F2800AC82AD837A0C747025081249E47055850B
:103F38001882851983AA82AB83121188750800E557
:103F48000875F003A4F8A9F0851882851983E5821D
:103F580028F8E58312474D124562EC4D601D8882B2
:103F68008983A3A3E0F50E750F00780E1219A7AA8E
:103F78000AAB0B12080A74021217530508E508C3A6
:103F8800940440BBEFA2E1500C90079AE0F9AA0A0A
:103F9800AB0B12081074046E702A900C91E0640246
:103FA80070229007AEE060047A0180027A009007E0
:103FB8009BE06004780480027800E84AF9AA0AAB1A
:103FC8000B12066C790074341217537F08021866B6
:103FD80074F0121794EAFEEBFF8C088D09750A0A33
:103FE800E9600C14600914602E14607F02407E1290
:103FF800119AE9F50AC3940A507CE50845096076E8
:10400800750E06750F00780E1219A7EEFCEFFD125B
:104018004928121753805F750B00750E06750F003F
:10402800780E1219A7EEFCEFFDE50B75F00EA4F85B
:10403800A9F074BC28FA740739FB12101A7402121A
:104048001753E9601B850B0AE50AC3940A5027E554
:104058000845096021AA08AB09A90A12119480161B
:10406800050BE50BC3940A500D80AF1211A0E9F5BA
:104078000AC3940A40D9A90A023FD374F4121794C8
:10408800890875091574FF6A700374FF6B70277EC1
:1040980000AC087A027B00EEF9121176E96003752C
:1040A80009000EEEC3940A40E8E50860497ACA7B25
:1040B80011120A208040120A028A0A8B0BAE0AAF3C
:1040C8000BEE4F602E7C007D00EE2405FAEF3400E5
:1040D800FB8E828F8312417A500CAC087A027B00E7
:1040E800121176750900E508600CEEFAEFFB121163
:1040F800CA8003750914A909023E3474F212179490
:10410800ECFEEDFF740E12178812455575081574EC
:10411800FF6A700374FF6B7021750900AC0AAD0B60
:10412800EEFAEFFBA90912117CE960037508000596
:1041380009E509C3940A503580E2120A028A828B83
:1041480083E582458360237C007D00E5822405FAAF
:10415800E5833400FB12417A5013AC0AAD0BEEFA3A
:10416800EFFB12117C7508008003750814A908027A
:104178004F53A3A3A3A3E0F9121158E9C3940A2249
:10418800C082C0839007B4EAF0A3EBF090079AE0EE
:10419800FC7D007A257B0012052290079AE0F9122F
:1041A8000786D083D08202012274EA12179474EC35
:1041B80012173DEAFEEBFFEE240CF514EF3400F580
:1041C80015EE240AF510EF3400F511EE2405F50E6E
:1041D800EF3400F50FEE2409F50AEF3400F50BEE85
:1041E8002403F508EF3400F5098E828F83A3A3E03A
:1041F80024FA700302451E24FD700302444D147016
:104208000302429C14601024FD700302441E1470C3
:104218000302448202453C124581604AE0F58388E6
:1042280082124568880C890DE8450D60398514822D
:10423800851583E0F50E780E1219ABEE240BF58286
:10424800EF3400F583E0F9850A82850B8312456215
:104258000A0A0AAB09850C82850D8312179274012C
:1042680012175302453C850A82850B831219BE90AA
:1042780007B012162B1205BE7402121753E9700309
:1042880002453C7901850A82850B83124D78120517
:10429800B802453C8E828F83A3858212858313E002
:1042A80060030243F7850E82850F83E0A2E0400396
:1042B8000243F77C0E7D007900851882851983AA50
:1042C80082AB83121020EE2408F50AEF3400F50BB8
:1042D800850A82F5831245846019750C06750D00F0
:1042E800780C1219A7850A82850B83E02410FCA399
:1042F800E0801A124546EA4B700302453C750C06ED
:10430800750D00780C1219A7EA2405FCEB3400FDA2
:104318007402121788AA82AB8312492C121753858C
:104328000E82850F83E0A2E25004D2F08002C2F030
:10433800A2F0E433F8740C121788E048F085108274
:104348008511831245846015851082851183E024C8
:1043580010F8A3E03400F98882898380039092637F
:10436800780C12160D851082851183124584600F12
:10437800851082851183E0F510A3E0F5118006759C
:104388001000751100850A82850B83124584600B25
:10439800850A82850B831245558006750A00750BC0
:1043A80000780C1219A378101219A7780A1219A705
:1043B8008514828515831219BE8E828F83A31245B8
:1043C8005D740A121788AA82AB8312118E740A12BE
:1043D8001753850882850983124568900844E8F0D8
:1043E800A3E9F07A017B0090079AE0F912106212B3
:1043F8004581700302453C12456E700302453C85B9
:104408001282851383E0FC7901124D728E828F83AC
:1044180012179202453C124581700302453CE0F5B3
:10442800838882A3A3124568890BE8450B700302B1
:10443800453C8E828F83A3E0FC7902124D728882FC
:10444800850B8380CB7C007D00EE2404FAEF3400DA
:10445800FB850882850983E0F9121158E9F8C394AD
:104468000A400302453CAC10AD117A0475F006E829
:10447800A42425F912135C02453C9007AFE0600EB6
:10448800900C94E0F9850882850983024293900C88
:1044980091E07004790580ED1245468A0C8B0DA8D1
:1044A8000CA90DE82404F50CE93400F50D8E828F73
:1044B80083A3A3A3A3A3A3A3E0A2E05036E8496083
:1044C80073850C82850D83E0FE6028850A82850B42
:1044D80083E05410701D740E121788AC82AD83E807
:1044E8002405FAE93400FBEEF9121158E970047951
:1044F800038092AC0EAD0F850C82850D83E0F91216
:104508004D721211D6124581602A12456E60257CC3
:10451800007900024411120684E97018900843E0FB
:10452800640170081211B2900843E4F07950121334
:10453800681211A674141217537F0E0218668508A4
:1045480082850983E0FAA3E0FB120A0222E0F50A59
:10455800A3E0F50B22A3A3A3A3A3E0FCA3E0FD2201
:10456800E0F8A3E0F922E0F5838882A3A3E0F8A3AA
:10457800E0F9E8FEE9FFEE4F229007B4E0F8A3E087
:10458800F9E8492274F412179474F212173DEAFEFE
:104598008C0B75F006E9A42420F508851882851986
:1045A80083AC82AD837A0E1249E4704A7C061247C6
:1045B800097043740C121788124568E8F509E50B71
:1045C8006005EE42098004EEF45209850982AA8248
:1045D800E86A7001E9601B740C121788EAF0A3E41A
:1045E800F0851882851983AC82AD837A0EA90812EA
:1045F800135C790180027900023E2F74F21217943D
:1046080074E612173D890A8A088B09ECFEEDFF74DF
:104618000C1217881249D760030246BD7C0679FF41
:10462800740C12178812471160030246BD74702576
:104638000AF50B851882851983AC82AD837A0C1232
:1046480049E46003024702851882851983AA82AB70
:1046580083121188E508450970217C0C79001247FE
:104668000B60030247027C0C7D0079008518828567
:104678001983AA82AB83121020806185188285195C
:1046880083AC82AD83AA08AB091211828A0C8B0D08
:10469800A80CA90DE849702CEE4F60198518828581
:1046A8001983AC82AD837A007B00121182EAF8EBA1
:1046B800F9EA4B70047900804388828983E508F021
:1046C800A3E509F0124789FAEE6A7001EF602BEE54
:1046D800F04F700888828983E4F0A3F085188285FA
:1046E8001983AA82AB83121188851882851983AC35
:1046F80082AD837A0CA90B12135C7901741A024FEC
:104708005079FF851882851983AA82AB8312108697
:10471800E92274F71217947F00EF75F003A4F8A943
:10472800F0EC28F8ED12474DE06A7003A3E06B70D7
:1047380006E8FAE9FB800B0FEFC3940440DB7A002C
:104748007B00024A8239F9888289832274F712171A
:10475800947E00EE75F003A4F8A9F0EA28F8EB12AD
:10476800474DE0F4FCA3E0F4FD88828983ECF0A3D4
:10477800EDF0124789F4F00EEEC3940440D5024AD6
:1047880082E82402F582E93400F583E02274EE120F
:10479800179474F412173DEAFEEBFF8C0A8D0B7424
:1047A8001E121788E0F50CA3E0F50D742012178887
:1047B800E0F508A3E0F5097422121788E0F510A3C4
:1047C800E0F511EE4F7005790A0248BA12119AE91C
:1047D800F50EC3940A4023750F007C0679FFE50F98
:1047E80075F00EA4FAABF074B62AFA74073BFB1204
:1047F800471570030248C4850F0EE50EC3940A409E
:10480800030248B875F006E50EA4F50FEEFCEFFDBF
:104818007A0E74201248D5E50A450B600BAC0AAD38
:104828000B7A1B74211248D5E50C450D600BAC0CB6
:10483800AD0D7A1B74221248D5E5084509600BAC0A
:1048480008AD097A1074231248D5E5104511601B8C
:10485800AC10AD117A1074241248D574241217883C
:10486800AC82AD837A0474251248D57C0C7D00791E
:10487800FF124FE17A0C7470250EF912135C75085B
:104888000E75090078081219A7EEFCEFFDE50E7504
:10489800F00EA4F8A9F074B628FA740739FB124987
:1048A8002C121753900842E060031211E21211D043
:1048B800A90E740C1217537F0A021866050FE50F2C
:1048C800C3940A50030247E2750E0A80E3250FF9E4
:1048D80012135C2274F412179474F212173DEAFE54
:1048E800EBFFE9C3940A5004EE4F70047902802D5F
:1048F8008518828519831249D7F508701E750A062E
:10490800750B00780A1219A77402121788AC82ADC9
:1049180083EEFAEFFB12492C121753A908023E2F17
:10492800AA08AB0912100874022274F4121794EA48
:10493800FEEBFF750800750A06750B00780A121958
:10494800A7EEFCEFFDE50875F00EA4F8A9F074B623
:1049580028FA740739FB12101A7402121753E96007
:1049680004A908800B0508E508C3940A40C8790A19
:10497800023E3474F712179474F012173DEAFEEBF6
:10498800FF750800851882851983AC82AD837A107B
:1049980075F006E508A424231249E4701F7C101260
:1049A80047097018EEFCEFFD851882851983AA82E5
:1049B800AB8312058EE97004A908800B0508E50889
:1049C800C3940A40BF790A7410121753024A82AC82
:1049D80082AD837A0E75F006E9A42420F9121362D9
:1049E800E92274F7121794750800E50875F00EA40B
:1049F800F8A9F074B628FE740739FFEEFCEFFD7ACB
:104A08000E75F006E5081249E1602C7C067D0079F8
:104A1800FFEEFAEFFB1210207C067D0079FFEE24F2
:104A280006FAEF3400FB121020EE240CF582EF3466
:104A380000F583E4F0A3F00508E508C3940A40AA4A
:104A4800900842E060031211E21211D0802C74F732
:104A58001217947E007F007C0679FFEF75F00EA494
:104A6800FAABF074B62AFA74073BFB1247157001CB
:104A78000E0FEFC3940A40DFEEF97F010218667447
:104A8800F71217947E00EEF91211B80EEEC3940ACD
:104A98005003E960F180E374F312179474CB121792
:104AA8003DE9FF75F006A4F50874202508FE742773
:104AB800121788AC82AD837A0EEE1249E4600302C5
:104AC8004BA17C0679FF74271217881247116003DF
:104AD800024BA17C0E7D0079FF7427121788AA82E9
:104AE800AB831210207C1B7D0079FF740C12178891
:104AF800AA82AB831210207C0C7D0079FF85188276
:104B0800851983AA82AB831210207427121788ACE8
:104B180082AD837A0EEEF912135CE9F509740C1272
:104B28001788AC82AD837A1B7421124BB0FE740CCB
:104B3800121788AC82AD837A1B7422124BB0F50A27
:104B4800740C121788AC82AD837A107423124BB0A0
:104B5800F50B740C121788AC82AD837A107424128A
:104B68004BB0F50C740C121788AC82AD837A0474C0
:104B780025124BB0F508851882851983AC82AD8360
:104B88007A0C74702FF912135CE9F8EE450A450B9C
:104B9800450C45084842098003750900A909743580
:104BA8001217537F050218662508F912135CE922CB
:104BB80074F7121794E990079AF01211A6024A8224
:104BC80074F212179474FB12173D8A088B09EB5480
:104BD800807003024C6C90079AE0F912104A8A0A16
:104BE8008B0BA80AA90BE8FEE9FFE849606CEE24E4
:104BF80004F8EF3400F98E828F83E0245060381473
:104C0800600624E1604A804B88828983E070448E84
:104C1800828F83A3A3A3A3A3A3A31219BE8E828FFB
:104C28008312455D8E828F83A3A3124D781211647F
:104C38007402121753801C88828983E0641E7013E3
:104C480079008E828F83A3A3124D7812115E8003A0
:104C5800121170EEFAEFFB121038AA08E509648009
:104C6800FB024D6DEAA2E04003024D699008441230
:104C78004555740312178885820C85830D780C12AC
:104C880019A7750C02750D00780C1219A7750CA9D7
:104C9800750D92780C1219A77CFF7DFF7A017B00B5
:104CA8001206DE7406121753024D51E4F50CF50D89
:104CB800780C1219A7740412178885820C85830D45
:104CC800780C1219A7740412178885820C85830D35
:104CD800780C1219A774091217881219BE7902EEF6
:104CE800FCEFFDAA0AAB0B1207FE7408121753E972
:104CF8007035851882851983E0FA7401121788E0E7
:104D0800F9EA2400F50CE439F50DEA450D60187848
:104D18000C1219A78E828F8312455EAA0AAB0B125A
:104D280011647402121753E4F50CF50D780C12197E
:104D3800A774051217881219BE7CFF7DFFEEFAEFE3
:104D4800FB1206EA74041217538A0C8B0DAE0CAFD3
:104D58000DEE4F6003024CB3E5086401FAAB09801D
:104D6800047A007B007405024F5085088285098308
:104D7800E0FAA3E0FB22C082C08390079AE0F98A98
:104D8800828B83A3124D781208100241AAC082C0F8
:104D98008374FF12173D1211ACE9C394028518827F
:104DA800851983400474028002740AF0AC82AD83D2
:104DB8007A01790512069C74011217530241AA74EC
:104DC800F212179474E812173DEAFEEBFF890A8C79
:104DD800088D097C187D007900124FE9EEF0A3EFE9
:104DE800F090079CE0C0E07402121788D0E0F090C1
:104DF800079DE0C0E07403121788D0E0F0900C968D
:104E0800E0C0E07417121788D0E0F0741512178804
:104E1800E054FEF8A3E0F9900C95E0A2E0E433FA40
:104E2800E84AF87415121788124F5FA2E15004D2AD
:104E3800F08002C2F0E854FDFAA2F0E43333F8EA55
:104E480048F87415121788124F5FA2E35004D2F085
:104E58008002C2F0E854F7FAA2F0E433F50C750DBD
:104E6800007403780C12172A124F58121788124F21
:104E78005FA2E45004D2F08002C2F0E854EFFAA234
:104E8800F0E433F50C7404780C12172A124F5812F8
:104E98001788124F5FA2E55004D2F08002C2F0E8F2
:104EA80054DFFAA2F0E433F50C7405780C12172AD3
:104EB800124F58121788124F5FA2E25004D2F080A6
:104EC80002C2F0E854FBFAA2F0E433F50C7402785D
:104ED8000C12172A124F58121788E8F0A3E9F0901D
:104EE800079DE0601B750C10780C1219A77C9E7D3D
:104EF800077406121788AA82AB8312492C1217531B
:104F08009007AEE06011E50A60097415121788E091
:104F18004402F07801800278007414121788E0487F
:104F2800F090079BE0600478048002780074141203
:104F38001788E048F0AC08AD09851882851983AA5E
:104F480082AB831205B274181217537F06021866D3
:104F5800EA450CF8741522E8F0A3E9F0900C95E006
:104F68002274F312179474E512173DEAFEEBFF8CD6
:104F7800098D0A7428121788E0F50C75F006E9A463
:104F8800F87408650A700474228002742128F50BED
:104F98007C1B7D007900124FE17A1BA90B1249E5B1
:104FA8007032741A121788E024F9C3940A5025E560
:104FB8000CF50B780B1219AB7401121788AC82AD83
:104FC80083E509A2E0E433F9EEFAEFFB1205C474B5
:104FD80001121753741B024BA8124FE9AC82AD8320
:104FE80022851882851983AA82AB8312102085181E
:104FF800828519832274F7121794120882750800A3
:10500800E50875F00EA4F8A9F074B628FE740739FF
:10501800FF7C0679FFEEFAEFFB1247157009EEFAEE
:10502800EFFB79001208880508E508C3940A40D008
:10503800024A82C082C0839061907404F0A37448CD
:10504800F0A3E4F09061807440F09061BC7407F0C4
:105058009061877469F09061B67416F07900120A4D
:10506800F87902120AFE902278E493F46006E49339
:10507800F9120AD47905120DEC02547DC082C0835E
:10508800E9540FF9906185E0696012E5C6548044DF
:1050980049F5C6E59E547F644970F8E9F053C68027
:1050A800E59E547F70FA02547D74F7121794E5A8B0
:1050B800FE53A87E120AE0C2BA539AFEC289759BB3
:1050C80000C2C2120AE675A91175B905120AECD216
:1050D800BA439A0174805E42A8025A0AC082C08309
:1050E800906181E4F0A302547A75E9007591007526
:1050F800BF00020122C082C083906181E4F0A374E2
:10510800C0F0A3E402547CC082C08374F812173D37
:105118009003C41258ECE84970030251C69003C4C6
:10512800E0544060237908851882851983AA82ABE8
:1051380083120BEE851882851983AA82AB83120825
:10514800A09003C4E054BFF0E054806010790C7A5A
:10515800807B05120BEE9003C4E0547FF0E0A2E0E0
:10516800500879001251CE54FEF0E05402600879DC
:10517800011251CE54FDF0E0540460087900125138
:10518800D954FBF0E05408600879011251D954F75A
:10519800F0E05410600879021251D954EFF0E0544D
:1051A80020600879031251D954DFF0A3E05401605C
:1051B8000D120B0A1208B29003C5E054FEF07408F1
:1051C80012175302547D120AF81208A69003C4E07D
:1051D80022120AFE1208AC9003C4E022C082C083E7
:1051E800E9600514602A804F90619A7433F0A374C3
:1051F80055F09061A0743AF090055CE06401700984
:10520800C2919003C67467802D9003C6746180268E
:1052180090619A743FF0A3745AF09061A0747FF083
:1052280090055CE064017009D2919003C6747180A6
:10523800059003C6746AF002547DC082C083E96099
:105248000B14600D14600F146011802090227C8074
:105258001590227D801090227E800B90055CE06482
:105268000160F390227FE493906186F002547D748C
:10527800EE12179474F412173D851882851983ACC1
:1052880082AD83758392758237740412165090220A
:105298007C93F46003025409907808E0C3940250A8
:1052A800030253E97404121788AC82AD83758391A5
:1052B8007582BA7408121650F97AFF7BFF7FFF7E59
:1052C800008982858210801874086E700302539ECC
:1052D80074096E700302539E740A6E700302539E23
:1052E800E510C333FCE433FD7404121788E5822CFF
:1052F800F582E5833DF583E0F50EA3E0F50F8E0812
:105308007509007402780812172A74482508FC7475
:10531800783509FD8C828D83780812160D7408780B
:105328000812154E85080C85090D8C828D83780826
:1053380012160D7418780812154EE50C4508F50874
:10534800E50DF509C3E50E9508E50F95098C828DE5
:1053580083780812160D8C828D83780812160D74C6
:10536800187808401412154EE50C4508FCAD0DE5FB
:105378000EC39CFCE50F9D800F12154EE50C4508E9
:10538800C3950EFCE50D950FFDC3EC9AED9B5006F9
:10539800ECFAEDFBEEFF0EEEC3941350030252D06D
:1053A80074FF6A700374FF6B602D8F0874027808AD
:1053B80012172A744812609874783509F5837808AA
:1053C80012160D851882851983E5822510F582E568
:1053D80083125E25E508F009E9C3940450030252DC
:1053E800C175080175090078081219A77402121707
:1053F80088AC82AD837A9F7B08121224740212173C
:1054080053740C1217537F0A021866C082C0839027
:105418006186E0F890227FE49368700990227EE428
:1054280093906186F09061AE7468F0A3746AF0900E
:10543800624574FBF0A304F053F4FD43FE029005AB
:105448005C7401F09061A0E0643A70047900800215
:105458007901120AF802547DC082C08390050EE0DB
:105468006401700A900513E06004790C80027900E9
:105478008003F0A3F0D083D082020122C082C083CF
:1054880075E1F1900511E0604D1460081460511445
:1054980060498051120B1C900507E0F97A087B05DA
:1054A800120D6E90925B12162B120DA490921B1285
:1054B800162B120D7A900512E0F9120D8679011259
:1054C8000DE0900505E024161256127434F0A3740A
:1054D8000BF07900809F120B2280BC120B2880B73A
:1054E800120B2E80B2791280EB74F412179475D9CE
:1054F8000D9004F6E0A2E0E4331313F812557E4849
:105508004401F5D978001255FC40FB7800880874EE
:10551800F7126098740412560640F275E1959004EB
:10552800F6E0F97AF77B04120D74900BC774AAF0B1
:10553800A3740A125621125641125638125779127C
:105548005588780812160D90925778081215999078
:10555800922378081215E712560C780812161C9038
:105568000505E024141256127413F09003C2740255
:10557800F07F04021866900507E0C4333354C02254
:10558800900505E0F8A3E0F5838882A3A32274F6CA
:1055980012179412574A8AD978001255FC40FB78A2
:1055A8000080061256B01257FCE8C39940F512570E
:1055B8003C1255FC40FB7800800812609474051278
:1055C80057FCE8C39940F375E195900BC774B6F0A2
:1055D800A3740A12562112562B12162B12560C12AD
:1055E8001637900505E024141256127412F0900331
:1055F800C20259E7880874082508F582740512590B
:1056080058940622900505E0240EF8A3E0125619D6
:10561800223400F9888289832212576274B0F0A379
:10562800740A2212564112563812577D90926322FC
:10563800F0A374C8F0A3740A2212564522125649E0
:1056480022F0A3745AF0A3740C2274F61217941261
:1056580056A512557E4402F5D978001255FC40FB38
:10566800780080061256B01257FCE8C39940F575C9
:10567800E195900BC71256BBF0A31256BB12562EDB
:1056880012162B12560C121637900505E024141228
:1056980056127414F09003C274040259E990051765
:1056A800E0F9740729F5D922880874182508F582C5
:1056B80074052274C21256C81256C8F0A3740A227E
:1056C800F0A3740AF0A374C22274F6121794125746
:1056D8004A74064AF5D978001255FC40FB780080D8
:1056E800061256B01257FCE8C39940F512573C12FF
:1056F80055FC40FB7800800812609474051257FC32
:10570800E8C39940F375E195900BC774BCF0A37496
:105718000A12575812562B12162B12560C121637FD
:10572800900505E024141256127415F09003C27403
:10573800030259E99005371256A874044AF5D97836
:1057480000221256A5900507E0C4333354C0FA224C
:10575800125762745AF0A3740C2212576622125719
:1057680073745AF0A3740C12577322125649F0A39B
:105778002212577D22F0900BD5745AF0A3740C12A4
:105788005766745AF0A3740C125645F022C082C0B2
:1057980083125588A3A3A3A3E402547A74F71217BB
:1057A800941262DAF8740339F9E82405FAE9340046
:1057B800FB8A828B8312604988828983A3A3A3A36F
:1057C800A3A3A3A3A3ECF0A3EDF088828983A3A3EA
:1057D800A3A3A3A3A3E024FFF8A3E034FFF98A82DC
:1057E8008B83E8F0A3E9F0025A0A88087460250858
:1057F800F5827405125F70F5D90822EAFEEBFF9076
:1058080061D0E0F87480C398FAEE24832212581B02
:10581800940422125E33E0F5D90AEAC32274F61220
:105828001794EAFEEBFF9061D0E0707575D90E759C
:10583800D90375D9047A008A08EE25081263A824CA
:105848008C1258BE40F17A008A08EE25081263A827
:10585800248412581540F175E1957908EE248C12CC
:1058680058B724841258AE7C008C82AA82C3E49A6A
:10587800F895E0F9EE28F8EF39F9E8248BF582E994
:10588800125F6CC0E0EE2A1263A824ABF582E9121D
:105898005E25D0E0F00CECC3940840CD125974801A
:1058A8000279000259EAFAEF3400FB120BE22212E5
:1058B80058AE7904EE2212581B940822C082C08385
:1058C80075D90275D90375D90575E195EA2470F57E
:1058D80082EB1258E9EA2472F582EB1259860254D7
:1058E8007D125E361258F022E0F8A3E0F92274F631
:1058F800121794EAFEEBFF900560740612596212C3
:1059080019A77C017903125C8E12175375D9067595
:10591800D903780012594840FB75E1959003C2E01D
:1059280064087017EE2470F582EF1258E9EE2472BD
:10593800F582EF125E25E8F0A3E9F079010259EA51
:10594800880874602508F582740512595894052250
:10595800125E36E0F5D908E8C322F07508607509CB
:105968000578082275E1957904120DAAEE2470F5E0
:1059780082EF125E361258F0EE2472F582EF125E54
:1059880036E8F0A3E9F079012274F6121794EAFEDA
:10599800EBFF9061D0E070437901900560740BF0E3
:1059A8009003C2E0640770177508607509057808E8
:1059B8001219A77C010909125C8E12175379057414
:1059C8000129F5D975D903780080031257F2E8C385
:1059D8009940F875E1951259748002790080037432
:1059E80001F07F0202186674F7121794EAFEEBFFC3
:1059F80075D90375D90375D90DEE24DE125A0F1225
:105A0800596C7F01021866F582EF125F70F5D92292
:105A18007F030218667401250AF5D975D903780041
:105A28002274F5121794125A9E6004780480027842
:105A380000E8240BF8EAC3984041750A099005600C
:105A48007409F07908125A87601475086075090599
:105A580078081219A7125C86121753750A0D125A84
:105A68001D80031257F2E8C3950A40F775E195794E
:105A780004120DAA125C037901800279008091EE6C
:105A880024E3FCEF3400FD7A617B05120BDC85080A
:105A980082850983E022125803F8EF12603DF583EE
:105AA800E02274F31217948A088B09125C99FAE5BC
:105AB800082483F50AEB125B686004780480027896
:105AC80000E82408F8EAC3985003025B61750C06E5
:105AD800900560740CF09003DFE0900561F07402AB
:105AE800C0E0F97CE07D037A627B05120BDCD0E034
:105AF800F97CE27D03120BDC850A82850B83E0606A
:105B08001C750A60750B05780A1219A77C067903BB
:105B1800AA08AB09125C8E121753750C0A7401257A
