:020000040000FA
:0600000002011D021DA615
:03002B0002245755
:030033000224396B
:03005300021E1C6E
:03006B000224105C
:10008300021C97E5C754F84401F5C7790122000023
:100093000080FB120086B90003020107E47921788E
:1000A30008B800028004F709D8FCE479297802B87B
:1000B30000028004F709D8FCE490028178CA79072A
:1000C3008002F0A3D8FCD9FA781A90014D7A01BACC
:1000D30000028007E493A3F608DAF990094AAA829A
:1000E300AB8390014E780379048015E493A3AC822B
:1000F300AD838A828B83F0A3AA82AB838C828D83A8
:10010300D8E9D9E77582BF75839E740312012F75F1
:100113008291758300740012012F75D00075813FA1
:10012300751881751902759F00020096C09FF59F8F
:10013300E473D09F22D083D082C09FE493C0E07445
:100143000193C0E0740293F59F2201FF0000B40005
:100153000028002800283075A000A000A000A000FF
:1001630000080008E001F00010001000100010006B
:100173001000100050005000500010001000D00775
:100183000000000000000F000100050030750700AB
:100193001000010081FF0000FF4E066C065406FFAD
:1001A30002020208025000A0000000E80302DC92F1
:1001B300010000C89202D6920100009F0902D0926A
:1001C300010000B20202D692010000A00902CE9201
:1001D300010000C80202D692010000A10902FA92AE
:1001E300010000CA0202D692010000A20902DA92BB
:1001F300080000CB0202D692010000A30902E0929C
:10020300010000A409FF0100FF2002DC92010000AD
:10021300BF9202D692010000080A02EA920000008F
:10022300000002D29203000018037E0C7E0C7E0CA9
:100233007E0C7E0C7E0C7E0C7E0C7E0C7E0C7E0C6B
:100243007E0C7E0C540F6C0F4E0FFFFF0202020256
:100253000202020202010D000000100102DC920101
:100263000000C59202D6920100004B0A02F69201E9
:100273000000780702D6920100004C0A02F49201B2
:1002830000005C9102D6920100004D0A02F2920135
:100293000000419102D6920100004E0A02F0920141
:1002A30000006C9002D6920100004F0A02EE920108
:1002B30000007E9002D692010000500A02EC9201E7
:1002C30000005A9002D692010000510A02E6920100
:1002D3000000909002D692010000520A02E49201BB
:1002E3000000339102D692010000530A02E2920108
:1002F3000000540A01E803053F10FF0001307503B5
:1003030002010600000000000000000000000000E1
:10031300000000000000000000000000000000FFDB
:10032300FF0600800CE803140953696D706C654285
:100333004C455065726970686572616C05125000B6
:100343002003020A000201060302F0FF53696D70E5
:100353006C6520424C452050657269706865726116
:100363006CC8130000DA13E013CE130A43686172FA
:100373006163746572697374696320310002436851
:100383006172616374657269737469632032000812
:10039300436861726163746572697374696320335E
:1003A3000010436861726163746572697374696391
:1003B3002034000243686172616374657269737407
:1003C300696320350002DC92010000CB9202D692D1
:1003D3000100006A0B0200930300003B0902D49260
:1003E3000100006B0B02D6920100007C0B0202930A
:1003F3000100003C0902D4920100007D0B02D69259
:100403000100008E0B0204930200003D0902D49206
:100413000100008F0B02D692010000A00B0206938D
:100423000000003E0902D2920300003F0902D49269
:10043300010000A10B02D692010000B20B02089347
:10044300040000450902D492010000B30B120138E5
:10045300EF9003120138069103120138359103120C
:1004630001386E9103120138969103120138C49139
:1004730003120138DB9103120138F29103120138A0
:100483000892031201382F92031201384292031289
:1004930001385892031201386B920312013890927B
:1004A30003120138A097021201389F9802120138F3
:1004B300D49802120138F5980212013805990212F4
:1004C3000138269902120138329A02120138FF9A32
:1004D30002120138729B02120138F89B0212013892
:1004E3003B9C02120138729C02120138F89C0212E2
:1004F3000138CA9D02120138289E02120138409E1B
:1005030002120138BA9E02120138BD9E021201384E
:10051300C09E02120138679F021201387F9F0212A8
:100523000138AF9F02120138CF9F02120138BDA0DC
:100533000212013873A102120138E7DF02120138F7
:100543000FE0021201383DE00212013874E002129A
:100553000138DCE00212013825E10212013870E1B2
:1005630002120138AEE102120138EBE10212013846
:1005730019E202120138C0E202120138CAE2021281
:100583000138D7E2021201380AE302120138CCE340
:1005930002120138D8E302120138F0E302120138E3
:1005A300FAE3021201383C9B031201384A9B0312FF
:1005B3000138629B031201387A9B0312013891B10F
:1005C300011201382FB201120138A7B2011201380A
:1005D300BCB301120138F6B3011201389FB4011202
:1005E300013874B501120138D8B6011201382FB79A
:1005F30001120138B6B7011201389DB80112013852
:10060300EAB80112013878B9011201389CB9011214
:10061300013871BB01120138B2BB01120138D4BBDE
:100623000112013855BC011201383FBD01120138D6
:1006330005BE01120138BBC3021201388DC4021278
:10064300013836C50212013879C50212013806C6CF
:100653000212013892C60212013873C7021201381E
:10066300A2C7021201389EC802120138E6C802125C
:100673000138E8C9021201382CCA0212013852CAE1
:10068300021201385A9D0312013857F5021201383C
:100693006DF50212013893F502120138BBF602120E
:1006A3000138C5F6021201381EF8021201381EF98C
:1006B3000212013855D1021201388AD202120138CE
:1006C300BDD20212013807D302120138C5D4021277
:1006D30001380C93011201386F9301120138B4945D
:1006E30001120138C49401120138E7940112013850
:1006F300329501120138D79501120138CD960112B6
:1007030001389797011201380F9901120138519955
:1007130001120138EF99011201383C9A0112013894
:10072300629A01120138509C01120138559C011242
:100733000138369E011201388A9E01120138EC9E5F
:1007430001120138149F01120138B89F01120138B8
:100753007AA001120138ABA001120138AEA0011238
:100763000138F6A00112013838A1011201389FA106
:10077300011201386E860312013881860312013893
:100783009A8603120138E58603120138C0870312E3
:1007930001384F88031201389A88031201387C24E8
:1007A30000120138882400120138C12400120138D4
:1007B300062500120138BD25001201384326001218
:1007C3000138A82600120138D426001201380D275B
:1007D30000120138212900120138FD2A00120138C4
:1007E300E82C001201381F2E001201387F3000124E
:1007F30001386B3100120138B13200120138BE33B7
:1008030000120138DB3300120138133400120138AF
:100813002D34001201389534001201382F3900129B
:100823000138D03900120138213A00120138483A10
:1008330000120138963A00120138B43A0012013816
:10084300083B00120138E13B00120138683D0012F9
:100853000138F03D001201383DDB0212013847DB5D
:100863000212013812DC021201382DDC02120138A7
:1008730053DC0212013897DC02120138CFDC02127A
:100883000138F8DC0212013871DD0212013886DD0D
:10089300021201389BDD02120138D2DD0212013847
:1008A300E6DD0212013817DE0212013851DE0212B0
:1008B30001387DDE02120138D3DE0212013827DF50
:1008C3000212013870DF021201389ADF0212013876
:1008D300BFDF021201386BF10212013835F2021246
:1008E300013818F3021201388EF302120138D0F3E3
:1008F30002120138FDF4021201380080021201389D
:1009030029800212013842800212013887810212C3
:100913000138658202120138848202120138118380
:1009230002120138548302120138A18402120138E1
:10093300408502120138BF8702120138568802121D
:1009430001382A89021201380C8A02120138788B85
:10095300021201380B8C021201385197031201382D
:10096300BA97031201380E9803120138359803120F
:10097300013823E90212013890E902120138DBE958
:1009830002120138D0EA02120138CCEB021201380C
:10099300B6EC02120138E1AA0212013823AB0212AB
:1009A3000138FDAB02120138D6AC02120138D1ADC9
:1009B30002120138B0AE021201381CAF0212013824
:1009C300E3AF021201384EB002120138B5B0021281
:1009D3000138E0B00212013851B102120138E4B11A
:1009E300021201384DB20212013862B2021201380A
:1009F300AAB202120138C3B20212013828B302129A
:100A030001382BB302120138BEFC02120138E6FC96
:100A13000212013824FD02120138E2FD02120138EC
:100A23004DFE0212013869FE0212013891FE0212D4
:100A33000138C1FE02120138D0FE021201384AFF0A
:100A43000212013870FF0212013869A20112013843
:100A530006A401120138ECA501120138B6A6011251
:100A63000138FDA60112013844A70112013856A727
:100A73000112013896A701120138C5A701120138E6
:100A830011A80112013849A80112013877A80112EF
:100A93000138C8A80112013857A90112013845AC21
:100AA300011201381FAE011201385BAE0112013889
:100AB300B5AF01120138FCAF0112013871B0011258
:100AC3000138BFB001120138F6B001120138DEA1BE
:100AD30002120138FBA10212013895A70212013854
:100AE30097A80212013811AA02120138BFAA0212F2
:100AF3000138895200120138D25200120138FF52D4
:100B0300001201383253001201383F5300120138EA
:100B13004B53001201385D53001201383254001256
:100B23000138905400120138C5540012013861563F
:100B330000120138AE5600120138D25600120138A5
:100B43003F5700120138E45700120138A058001231
:100B530001381F5900120138E35900120138F259C4
:100B630000120138735A00120138125B0012013867
:100B7300445B00120138DF5B001201383D5C001258
:100B83000138775C00120138F85C00120138C15D4E
:100B9300001201386A5E00120138F15E001201385A
:100BA300495F00120138AA5F00120138D35F0012B7
:100BB3000138896000120138D361001201381662CE
:100BC30000120138336200120138526200120138F8
:100BD3009D6200120138C26200120138EB620012FA
:100BE30001385A63001201389C6300120138A06473
:100BF300001201383A650012013806660012013806
:100C03001F66001201381CF6011201386FF601123B
:100C130001387BF60112013850F70112013877F7DA
:100C230001120138B2F7011201381EF8011201381E
:100C330052F8011201388BF801120138A3F801129E
:100C43000138FCF80112013815F9011201385EF977
:100C53000112013871F9011201388BF901120138BF
:100C6300A1F901120138BDFA01120138CEFB0112BC
:100C730001381BFD0112013800FE01120138F47F17
:100C83000012013836E9011201386AE9011201380C
:100C9300D5EC011201381FEE01120138E9EE011201
:100CA300013873F0011201384EF10112013888F155
:100CB30001120138ABF101120138EDF101120138D3
:100CC300F6F10112013840F2011201384AF2011221
:100CD3000138F6F201120138CAF3011201381EF489
:100CE3000112013880F401120138D3F401120138E2
:100CF30002F50112013841F5011201385166001263
:100D03000138AB6E00120138B16E001201386C74F9
:100D13000012013852780012013828F90212013802
:100D23009EF902120138B4F902120138F1F90212E4
:100D3300013829FA02120138A6FA02120138E1FA3F
:100D4300021201385CFB0212013898FB02120138CF
:100D5300A1FB02120138ADFB02120138C7FB0212DC
:100D63000138ECFB0212013802FC021201382BFCA1
:100D7300021201388EFC021201387BD602120138AE
:100D83008ED602120138A8D602120138D1D6021229
:100D9300013814D70212013853D70212013891D700
:100DA30002120138F6D7021201380BD802120138A9
:100DB30016D80212013823D8021201383AD8021287
:100DC300013848D80212013853D8021201385FD8CB
:100DD3000212013872D8021201387DD8021201388A
:100DE300A0D80212013849D90212013859D9021286
:100DF300013873D90212013890D902120138ACD9E3
:100E030002120138D1D902120138DBD9021201389A
:100E1300EFD9021201380EDA021201386FDA021228
:100E2300013875DA021201387BDA0212013881DAED
:100E3300021201388DDA02120138C0DA02120138C7
:100E4300BDCE011201383FCF01120138E8CF0112A4
:100E5300013830D1011201383ED30112013824D4B4
:100E63000112013859D4011201387BD4011201381F
:100E730024D501120138F4D6011201381DD701120D
:100E8300013895D701120138C7D701120138D4D7D9
:100E9300011201381FD80112013843D80112013859
:100EA30094DA011201389EDB01120138FADB0112D8
:100EB30001383AC0011201384BC1011201382FC267
:100EC3000112013839C2011201385BC20112013823
:100ED30067C2011201380BC40112013838C4011270
:100EE30001384EC501120138A3C501120138F2C6FB
:100EF30001120138C7C70112013823C80112013892
:100F03008EC801120138C3C80112013806C9011283
:100F13000138D0CB01120138E8CB0112013879CC6A
:100F23000112013887CC01120138D4CC01120138E7
:100F3300E2CC011201384ECD01120138C9CD0112A4
:100F4300013820CE01120138828C02120138A48CA0
:100F530002120138B58E021201387491021201385F
:100F63009E92021201385C930212013848940212D5
:100F73000138368F031201385B8F03120138D18F8A
:100F830003120138A17800120138AA78001201383F
:100F9300B378001201388B79001201383C7B0012C0
:100FA30001386C7B00120138977B00120138C77B34
:100FB30000120138F27B00120138267C001201383E
:100FC300527C00120138957C00120138C07C00125B
:100FD3000138077D001201385C7D001201389E7DC7
:100FE30000120138F87D00120138237E0012013807
:100FF300727E00120138A27E00120138CD7E0012EB
:101003000138FB7E001201381E7F00120138E39D78
:10101300031201380F9E031201383C9E031201385C
:10102300469E03120138569E031201384FB3021233
:10103300013859B3021201389AB302120138E3B3EB
:10104300021201381DB40212013873B402120138BE
:1010530094B40212013843B7021201384CB702129A
:101063000138A0B702120138C9B702120138D3B749
:101073000212013841B802120138D1B80212013804
:101083002CB9021201385AB902120138E2B902121C
:10109300013821BA0212013856BA0212013868BA6D
:1010A3000212013887BA0212013890BA02120138CB
:1010B30057BB02120138689903120138458D031298
:1010C30001387B8D03120138AF8D03120138FC8E7A
:1010D30003120138C49C03120138DA9C031201384D
:1010E300E49C031201382E9D03120138609E031203
:1010F30001388FE402120138A2E40212013863E5D9
:1011030002120138A2E502120138BFE502120138CA
:10111300F8E50212013845E60212013877E60212B9
:101123000138AEE602120138B7E802120138DC9545
:1011330003120138FF95031201382E96031201386A
:10114300C696031201380897031201388A830312E3
:101153000138AF8303120138D98303120138179F73
:1011630003120138573E001201383540001201388E
:10117300D441001201387F4200120138FF420012AD
:101183000138844300120138AD4300120138FF4394
:1011930000120138DA4700120138514800120138B1
:1011A300684900120138A24900120138E3490012CC
:1011B30001382A4B00120138804B00120138C94B09
:1011C30000120138384C00120138A44C00120138C7
:1011D300D54C00120138ED4C00120138064E0012B6
:1011E3000138164E00120138CC4F00120138E34F7C
:1011F30000120138155000120138B751001201389E
:101203004B5200120138139C03120138249C031221
:1012130001386D9F03120138AC9F03120138B69F4A
:10122300031201385F9A031201386F9A03120138CF
:10123300849A03120138369B03120138669803120D
:101243000138EB98031201384F9903120138A29227
:1012530003120138CB920312013831930312013880
:10126300519303120138A29303120138FD93031221
:1012730001383794031201383A940312013878ED98
:1012830002120138A5ED0212013817EE02120138DD
:101293002CEE021201384DEF02120138D0EF021288
:1012A300013849F00212013868F0021201388BF05C
:1012B30002120138C8F002120138E0F002120138BC
:1012C30036F102120138EAFF01120138FAFF011266
:1012D3000138FDFF01120138F87F001201380B8B32
:1012E300031201389B8C03120138FC8C0312013862
:1012F300428D031201384494031201389694031269
:101303000138099503120138769503120138C48810
:1013130003120138EE8803120138BD890312013824
:10132300998A0312013885BB0212013851BC02129B
:10133300013892BC02120138CCBC021201382ABD1A
:10134300021201387EBD02120138DCBD02120138DF
:1013530072BE021201387ABF0212013804C10212AE
:101363000138A2C10212013809C2021201381CC29B
:101373000212013810C30212013859C30212013894
:1013830047DC0112013879DF011201380AE1011249
:10139300013861E1011201387EE101120138FEE1F9
:1013A300011201387AE30112013849E401120138CC
:1013B300B6E701120138A0E801120138C7CA0212C8
:1013C30001383BCD0212013820CE0212013845CF3D
:1013D30002120138B7CF0212013838D00212013895
:1013E300D6D002120138008003120138458003125F
:1013F30001386280031201381881031201386B81AE
:10140300031201383B82031201385183031201385E
:10141300BDFF01120138BE7F00120138B8FF02126E
:101423000138E0FF02E066701008A3E066700A0866
:10143300A3E066700408A3E06622C3E7960809E701
:10144300960809E7960809E79622C3E09608A3E001
:101453009608A3E09608A3E09622C008C3E096F599
:101463000808A3E096420808A3E096420808A3E010
:101473009645087001D3D00822080808EAC0E0EBBB
:10148300C0E086F0E7A4FA180986F0E7A42AFA1860
:101493000986F0E7A42AFA180986F0E7A42AFA19BC
:1014A30086F0E7A4FBE5F02AFA190886F0E7A42BF7
:1014B300FBE5F03AFA190886F0E7A42BFBE5F03ACE
:1014C300FA18180986F0E7A4C5F02BFBE43AFA19D9
:1014D30008E7C5F0C6A426F6E5F03BFBE43AFA18A4
:1014E30086F0E7A4F6E5F00826F6E43B08F6E43ACE
:1014F30008F6D0E0FBD0E0FA22E4CFC0E0E4CEC0AF
:10150300E0E4CDC0E0E4CCC0E075F020C3E633F600
:1015130008E633F608E633F608E633F6181818EC4F
:1015230033FCED33FDEE33FEEF33FFC3EC9709EDF0
:101533009709EE9709EF97191919400FFFEC97FCDC
:1015430009ED97FD09EE97FE191906D5F0BEECF7E4
:1015530009EDF709EEF709EFF7191919D0E0FCD0F7
:10156300E0FDD0E0FED0E0FF226016080808C6C305
:1015730013C618C613C618C613C618C613C6D5E0B5
:10158300EA227009080808226016181818C6C3331F
:10159300C608C633C608C633C608C633C6D5E0EA8E
:1015A30022E627F60809E637F60809E637F60809BA
:1015B300E637F622E026F608A3E036F608A3E0367F
:1015C300F608A3E036F622E026F008A3E036F0089A
:1015D300A3E036F008A3E036F022C3E697F6080945
:1015E300E697F60809E697F60809E697F622C3E0B8
:1015F30096F008A3E096F008A3E096F008A3E0961F
:10160300F022E056F608A3E056F608A3E056F608E3
:10161300A3E056F622E056F008A3E056F008A3E054
:1016230056F008A3E056F022E0F608A3E0F608A37C
:10163300E0F608A3E0F622E6F008A3E6F008A3E646
:10164300F008A3E6F022E0FAA3E0FBA3E0FCA3E0AA
:10165300FD22EAF0A3EBF0A3ECF0A3EDF022CAC065
:10166300E0E6F0A308DAFAD0E0FA22CAC0E0E0A389
:10167300C582CCC582C583CDC583F0A3C582CCC545
:1016830082C583CDC583DAE6D0E0CA22C3E498F8E5
:10169300E499F91216D08026C3E49AFAE49BFBE995
:1016A30020E7E91216D0E498F8E499F922C3E49804
:1016B300F8E499F91216D0E498F8E499F9C3E49A96
:1016C300FAE49BFB22EB20E7CFE920E7E0B9001027
:1016D300BB0008E88AF084F8AAF022E4FBC8FA22E7
:1016E300EB70227B10C833C8C933C9335007C39A80
:1016F300C3DBF280069A50012ADBEAC833F4C8C977
:1017030033F4C9FA2275F008E4C833C8C933C933BE
:10171300C99AC99B5004C92AC93BD5F0ECFBC8330D
:10172300F4C8E4C9FA22600D08C6A2E713C618C6B6
:1017330013C6D5E0F322600C08C6C313C618C6133C
:10174300C6D5E0F422700422600D18C6C333C60860
:10175300C633C6D5E0F41822251810AF08F5184093
:101763000215198008F51840021519D2AF22C0D00E
:10177300251810AF08F518500205198008F5185000
:10178300020519D2AFD0D0222518F58210AF08F583
:1017930018400215198008F51840021519D2AF85B3
:1017A3001983222518F582E43519F58322E473257C
:1017B30018C582C0E0E51934FFC583C0E0E518C34E
:1017C300958224F810AF08858319858218800885CF
:1017D3008319858218D2AFCEF0A3E520F0A3780851
:1017E300E608F0A3DEFAEFF0A3E58124FAF8E608B1
:1017F300F0A3E608F0A3E608F0A30808E608F0A3C0
:10180300E608F0A315811581D0E0FED0E0F815813C
:1018130015811581E8C0E0EEC0E0222518C582C01D
:10182300E0E51934FFC583C0E0E518C3958224F9C8
:1018330010AF0885831985821880088583198582EE
:1018430018D2AFCEF0A3E520F0A37808E608F0A302
:10185300DEFAEFF0A3E58124FBF8E608F0A3E6083F
:10186300F0A30808E608F0A3E608F0A315811581A4
:10187300D0E0FED0E0F815811581E8C0E0EEC0E0CD
:1018830022851983851882E0A3FEE0A3F52078085A
:10189300E0A3F608DFFAE0A3FFE0A3C0E0E0A3C003
:1018A300E0E0A3C0E0E0A3C0E0E0A3C0E010AF0825
:1018B3008582188583198008858218858319D2AF9C
:1018C300D083D082020135851983851882E0A3FE77
:1018D300E0A3F5207808E0A3F608DFFAE0A3FFE031
:1018E300A3C0E0E0A3C0E0E0A3C0E0E0A3C0E01039
:1018F300AF08858218858319800885821885831926
:10190300D2AFD083D08222C0D02518C582C0E0E5F3
:101913001934FFC583C0E0E518C3958224F310AFE3
:10192300088583198582188008858319858218D2D2
:10193300AFC8F0A3E9F0A3EAF0A3EBF0A37908E7BB
:1019430009F0A3D8FAECF0A3EDF0A3EEF0A3EFF0C7
:10195300A3D0E0F0A3D0E0F0A3D0E0F0A3E520F023
:10196300A3E5F0F0A322851983851882E0C0E0A3E4
:10197300E0F9A3E0FAA3E0FBA37808E0F608A3DF0D
:10198300FAE0FCA3E0FDA3E0FEA3E0FFA3E0C0E0D8
:10199300A3E0C0E0A3E0F5D0A3E0F520A3E0A3F526
:1019A300F010AF088583198582188008858319850F
:1019B3008218D2AFD082D083D0E0F8D0E032740462
:1019C3008006740280027401C0E0F40412178BD005
:1019D300E0121661227404800474028000CCC0E01B
:1019E300EDC0E0E518C39CCCAD1950011D10AF0646
:1019F3008C188D1980068C188D19D2AF12166ED0E3
:101A0300E0FDD0E0FC22D083D082E9C0E0E493A3E0
:101A1300C386F0C5F095F0F908E493A386F0C5F00A
:101A230095F0700BE493A3C3994005E9048002A3E6
:101A3300E475F002A42582F582E5F03583F583D0C1
:101A4300E0F9E493A3C0E0E493C0E022D083D08222
:101A5300ECC0E0EDC0E0E493A3FCE493A3FDED4C04
:101A6300600D121A9BEC24FFFCED34FFFD80EFE4C4
:101A730093A3FCE493A3FDED4C600D121ADAEC245E
:101A8300FFFCED34FFFD80EFD0E0FDD0E0FCE493FC
:101A9300A3C0E0E493C0E022C0E0C3E493960874DB
:101AA30001939618400FE4936670080874019366D7
:101AB3001870007019A3A3C3E49396087401939656
:101AC30018A3A3400DD0E0D0E0D0E0021A8BA3A36B
:101AD300A3A3A3A3D0E022C0E0C0F088F0E4936600
:101AE30070080874019366187000A8F0A3A3700B24
:101AF300D0F0D0E0D0E0D0E0021A8BA3A3D0F0D096
:021B0300E022DE
:101B080074F512181EEAFEEBFFEE2434F8EF3400E9
:101B1800F988088909EE2435121C40F8EE2437129A
:101B28001C40F50AEC850AF0A4FCAAF0850AF0ED41
:101B3800A42AFDE82CF8E43DF97A257B001216D09A
:101B4800EA850882850983F05407F87401B8000211
:101B58008004C333D8FCC0E0E0131313541FF8EE1D
:101B680028F8EF3400F9E8245DF582E93400F583BC
:101B7800D0E0F8E0586008850882850983801DEE6A
:101B88002436121C40F5F0EA84A8F0EE28F8EF3469
:101B980000F9E82438F582E93400F583E0F97F0498
:101BA8000218CA74F512181EEAFEEBFFEE2434126E
:101BB8001C40C0E0EE2435F582EF3400F583D0E018
:101BC800F08E828F83A3A3A3A3A3E0FAA3E0FB8EE6
:101BD800828F83A3A3A3A3A3A3A3E0FCA3E0FDECAC
:101BE800C39AF50AED9BF50BEE2480F508EF340057
:101BF800F509850882F583E06401702BEE2481F5F0
:101C080082EF3400F5831219DC121C497402121792
:101C180071E960137CFD7D04EEFAEFFB120BAC85D5
:101C28000882850983E4F0AC0AAD0BEEFAEFFB12EB
:101C38001B08122402021BA6F582EF3400F583E08C
:101C480022C082C083851882851983E0F8A3E0F951
:101C5800C3EA9CEB9D5012C3EC98ED994019C3EA76
:101C680098EB99501279018010C3EA98EB9940F5E6
:101C7800C3EC98ED9950EE7900D083D08222EAC364
:101C88009CFAEB9DFB2200008521878522C622C095
:101C9800E074EF12190A759B00906182E0A2E64099
:101CA80003021D58E591A2E64003021D587591BF35
:101CB8009003C2E064057008120D4A120D568003A5
:101CC800120D50752100120DC2E99003C3F079007E
:101CD800120DB6120B167A017B009003C1E0F912BF
:101CE800108C907803E064426003021DA190055FA8
:101CF800E014F06003021DA1C2AF121D0500782A8E
:101D0800D0E0F618D0E0F6E59F5407F970059092F8
:101D180087800390928B780812162BE9C4C0E0786C
:101D280029E65508F50808E65509F509740B7808F9
:101D3800121739D0E02508F8906270E0A2E740F861
:101D4800E8C333906272F0906270E0D2E0F08049AC
:101D5800E0A2E55024E591A2E5501E7591DF9003BD
:101D6800C2E0640D70139003E4E004F0642870028C
:101D7800E4F07A00E0F9120E34906181E0A2E350B9
:101D880009E5E9A2E3500375E9F7A3E0A2E75009E2
:101D9800E591A2E7500375917F7F04021969C0E0BD
:101DA800C0D0C082C083906183E0A2E05009E5BF43
:101DB800A2E0500375BFFEE0A2E15009E5BFA2E131
:101DC800500375BFFDE0A2E25009E5BFA2E250034F
:101DD80075BFFBE0A2E35009E5BFA2E3500375BF5E
:101DE800F7E0A2E45009E5BFA2E4500375BFEFE0B5
:101DF800A2E55009E5BFA2E5500375BFDFE0A2E602
:101E08005009E5BFA2E6500375BFBFD083D082D08A
:101E1800D0D0E032C0E074F212190AE5A7A2E4506B
:101E28000FE5A1A2E4500953A7EF75A1EF121E70A8
:101E3800E5A7A2E5500CE5A1A2E5500653A7DF757A
:101E4800A1DFE5A7A2E15009E5A1A2E1500375A130
:101E5800FDE5A7A2E2500CE5A1A2E2500653A7FBBC
:101E680075A1FB7F0102196974F812181E7521010A
:101E78009003C2E0640670077A007B00120D32A25C
:101E8800AFE433FED2AF9003C8E0640170187A2043
:101E98007B009003C1E0F91211167A207B009003B1
:101EA800C1E0F9121092906182E0D2E6F090055EEE
:101EB800E0602185C62280169003C7E0640170089F
:101EC800E5C654F84405F5C653BEFC121C907401CF
:101ED800652160E4EEA2E092AF7F010218CA00001B
:101EE8008E238F24858228858327851882851983E8
:101EF800E0CEA3E0CF852882852783EBC9EAC8ED29
:101F0800CBECCA75F010C3E833C8E933C9EA33CA61
:101F1800EB33CBC3EA9EF526EB9FF525B35004AB14
:101F280025AA26EC33CCED33CDD5F0DAAE23AF2499
:101F38002274E912181E74FA12175BEAFEEBFF8C82
:101F4800088D099003C2E024F7C3940550069092C7
:101F58002F022060120CAE8A0A8B0BEA450B700325
:101F680002205D120D688A0C8B0D120D68EA650C53
:101F78007003EB650D60ECEEFCEFFD8518828519AA
:101F880083AA82AB83120D6E850A82850B83A3A375
:101F9800780C12162B90925F780C12160585188211
:101FA800851983781412162B90925F7814121605EF
:101FB800780C791412143D501F780C79141215DD21
:101FC80090924B780C12145D4047850C10850D11CA
:101FD800850E12850F1380418514108515118516FD
:101FE800128517137810790C1215DD90924B781022
:101FF80012145D501C7510007511007512007513D0
:1020080001781079141215DD7810790C1215A48056
:102018000890922F781012162B74097810121585D3
:102028009092BB780C12162B7810790C1214FC9035
:1020380003C2E06408600AE064066005E0640570B5
:102048001C909263781012145D5012909247781089
:102058001215B78008909223781012162B850882E3
:10206800850983781012163A74061217717F1002C8
:1020780018CA74F712181E120D8090055CE06401EE
:102088007010906245E4F0A3F053F4F343FE0C5350
:1020980090F3120D20E5C654804449F5C6E59E54D8
:1020A8007F644970F8906185740FF090055AE0F4E8
:1020B8007002A3E0602C75080175090090055AE0CC
:1020C8007808121748E508F4FAA3E0600814600AD3
:1020D80014600C800DEA52808008EA52908003EA6E
:1020E80052A079007F020218CA74F712181EE9FE7E
:1020F800EAFF74016E700C7A807B009003C1E0F9EE
:1021080012108C902474E493F46008E493F9120A92
:10211800F8800953C680E59E547F70FA120D269008
:10212800055CE064017003120B2E90055AE0F47010
:1021380002A3E0602A75080175090090055AE07845
:1021480008121748AA08A3E0600814600A14600C73
:10215800800DEA42808008EA42908003EA42A01299
:102168000CAE8A088B09A808A909E8496017E5E1B7
:1021780070FCE82414F582E93400F583E0F874FF74
:1021880068600288E174016F700A7A019003C1E007
:10219800F91210E00220EC74F112181E8A088B095B
:1021A8008C0A8D0B740F1217A6780C12162B9092AE
:1021B8005F780812160590925F780C121605780859
:1021C800790C12143D50157808790C1215DD90928F
:1021D8004B780812145D401579018013780C790842
:1021E8001215DD90924B780C12145D40EB79007F4C
:1021F800080218CA74ED12181E8A088B098C0A8DF9
:102208000B74131217A6780C12162B90925F78088D
:1022180012160590925F780C121605780C79081240
:10222800143D40117808790C1215DDAA08AB09ACE9
:102238000AAD0B8022751000751100751200751318
:10224800017810790C1215DD781079081215A4AAF6
:1022580010AB11AC12AD137F0C0218CA90925F78C4
:102268000812162B8A828B8378081216187F0402AC
:1022780018CA74F512181E8C828D83780812162BD2
:102288008A828B8378081215F11222CEC3E098F067
:10229800A3E0991222C0401E90927F780812162B54
:1022A8008A828B8378081215CA8E828F83E0242055
:1022B800F0A3E0344EF080A4F08E828F83C3E094C4
:1022C80020A3E0944E22EA2404F8EB3400F9E8FE57
:1022D800E9FF8C828D83A3A3A3A3E0F8A3E0F98E82
:1022E800828F832274F512181EE9FE900514E0FA15
:1022F800A3E0FBEEC333F8E433F974C428F5827421
:102308009039F583E02AF508A3E03BF5097808122F
:1023180019C590927B121649121EE87402121771A1
:102328008A088B098C0A8D0B7410780812156CAA10
:1023380008AB097F040218CA74F112181E8A0C8BA4
:102348000D8C0E8D0F740F1217A6E0FAA3E0FB7424
:10235800111217A6E0F508A3E0F50974131217A6E1
:10236800E0FEA3E0FF78081219C5EA2401F508EB9E
:102378003400F509E4F50AF50B780C790812147C99
:1023880090923F780812162B780C790812147CAAC0
:102398000CAB0DAC0EAD0F121EE874021217718B48
:1023A80009EA450960047A0180027A00EC2AFCED0A
:1023B8003400FDECF8EDF97A717B021216D088082A
:1023C8008909E4F50AF50B8E828F83780812163A8C
:1023D800ECF8EDF97A717B021216D08A088B097431
:1023E8000578081217488E828F83A3A3A3A3E50854
:1023F800F0A3E509F07F080218CAC082C083E990FB
:102408006000F0D083D08222C0E074F212190AA2D0
:10241800AFE433FED2AFE589A2E1500312126C7526
:102428008900C2C5751A00EEA2E092AF7F010219B9
:1024380069C0E074F212190AA2AFE433FED2AFE524
:102448008BA2E0500312126C758B00C2E880D5C0D5
:10245800E0C0D0E8C0E0E5A8D2AFC2C7751A00A2B4
:0B246800E792AFD0E0F8D0D0D0E03217
:10247400FFFFFFFFFFFFFFFFC082C083E9900A0751
:10248400F002270074F71217B2E99002E0F07C180A
:102494007D037AFF7BFF12082E9002E174FFF0A304
:1024A400F0A3E4F0A3F079051207B69002E0E0F996
:1024B4001206DE7A4C7B08120A0E02340E74F412F1
:1024C40017B28A088B09EB548060309002E0E0F97F
:1024D4001210748A0A8B0BAE0AAF0BEE4F60138E88
:1024E400828F83E064B070031207CEEEFAEFFB1222
:1024F4001062AA08E5096480FB80047A007B00026C
:1025040026CF74F21217B274FC12175BEAFEEBFFCB
:1025140074121217A61238F5EE4F70030225A9742F
:10252400021217A6EEF0A3EF12290AECF0A3ED12A3
:10253400290AAA82AB831206D8E9F50A706AE5086B
:10254400450960648E828F831238DBEE4F60567AC1
:10255400067B001210C88A0C8B0DA80CA90DE84943
:102564007005750A13804188828983E41225B6EECA
:10257400F0A3EF123906E508F0A3E509F09002E6AE
:1025840012263D9002E670051233B8801B1233A662
:102594008003EAFCEBFD8C828D8312263D70F38C64
:1025A400828D8380E3750A02A90A740412177102EA
:1025B4003AF5F0A31238ACA32274F21217B2890AC6
:1025C400E975F017A4FEAFF09002E5E4F09002E3A1
:1025D40012263D600A1210CE9002E3E4F0A3F0EE5E
:1025E400FAEFFB1210C88A088B09EA4509602FEE3E
:1025F400FCEFFD790012104A9002E3E508F0A3E530
:1026040009F07B008008122627E4F0A3F00BEBC34B
:10261400950A40F2E50A9002E5F079008002791308
:10262400023AF5EB75F017A4F8A9F09002E3E0285C
:10263400FAA3E0398A82F5832212304AEA4B2274E3
:10264400F41217B2740C1217A61238D0FEE9FF75F3
:102654000800750900800CE5082401F508E5093433
:1026640000F509C3E5089CE5099D503285080A85F3
:10267400090B7403780A121748EA250AF8EB350B9C
:10268400F988828983A3A3A3A3A3A312348DEE653F
:102694000A7003EF650B70BFE8FAE9FB80047A0067
:1026A4007B00802774F41217B27900EAA2E0501B71
:1026B4007508EA75099178081219C57C047D007AB9
:1026C400097B0A1207B074021217717F040218847E
:1026D400C082C0839002E6122707601C8882898327
:1026E400A3A3E06A7003A3E06B8882898370E8A3E4
:1026F400A3A3A312304680047A007B00D083D08247
:10270400020135123BDBE8492274EE1217B274FC65
:1027140012175BEAFEEBFF851882851983E4F0A3A8
:10272400F0EE2402123398EE24051238B3EE24049A
:10273400F50EEF122CBFE024FE603924FC60462421
:10274400FE605224FE605E24FE700302282024FEF4
:10275400700302288424FE700302289324FE70036D
:102764000228A224FC70030228B124FE700302286C
:10277400C00228FD9002FF7417F0A3E4122912127C
:1027840004560228FD851882851983AC82AD831214
:1027940007D40228CD851882851983AC82AD8312B3
:1027A40007DA0228CD850C08850D0974021217A6D4
:1027B400AC82AD838508828509831230461206FCFB
:1027C4008A0C8B0DAC0CAD0DEC4D603BE4F50CF5B7
:1027D4000D780C1219C5750CFF750D02780C1219C1
:1027E400C5750C00750D03780C1219C57408121701
:1027F400A61219DC123D57121771E9F50C700B1271
:10280400303C12046E800F750C01850882850983A3
:102814001229001233B8850C080228D0740212174A
:10282400A6AC82AD83850C82850D83122E11603C8B
:10283400850C82850D83A3A31219DC7510FF751115
:102844000278101219C57510007511037810121949
:10285400C574081217A61219DC123D57121771E934
:10286400F509700B12303C120474800F7509018550
:102874000C82850D831229001233B8850908804C17
:10288400851882851983AC82AD831207E0803A856E
:102894001882851983AC82AD831207E6802B8518D4
:1028A40082851983AC82AD831207EC801C85188263
:1028B400851983AC82AD831207F2800D8518828559
:1028C4001983AC82AD831207F8E9F508E50860299D
:1028D4008E828F83A3E06414601F850E82850F832C
:1028E400E09002FF12290A123BD79003001233B87A
:1028F400E508A31229121204500232A7123BDB8509
:10290400188285198322F085188285198322F07C28
:10291400FF7D02850A82850B8312304A2274EE12EF
:1029240017B274FC12175B8A0A8B0B8C0E8D0FEA9C
:102934002405F508EB3400F5097C157D0079007A4F
:10294400FF7B0212104AE5082402F50CE50912384F
:10295400B6851882851983858210858311781012B3
:1029640019C5850882850983A3A3A3A3122E08127F
:1029740019C5E5082405F510E5093400F5117810AA
:102984001219C5850C82850D8312315D1206F67409
:10299400061217718A108B11AE10AF11E50A2402CA
:1029A400F50AE50B12339BEE4F7003022ADF801702
:1029B40074021217A612304688828983EAF0A3EBC8
:1029C400F09002FFE004F09002FFE0C3940540039E
:1029D400022ADFE4F510F51178101219C57510E814
:1029E40075110278101219C57510E9751102781065
:1029F4001219C574061217A61219DC7910EEFCEF31
:102A0400FD123D59121771E9705E850882850983AC
:102A1400A3A3A3A3A3A3A3E0F89002E8E0687048EB
:102A2400122E081219C57CE97D02E5082408FAE58E
:102A3400093400FB1210447402121771E960298EE4
:102A4400828F83A3A3A3A31230469002FFE0F51064
:102A54007402781012174874002510F58274033537
:102A640011F583EAF0A3EBF074021217A685821025
:102A740085831178101219C574021217A61219DC75
:102A8400850C82850D8312306C1217718A108B119C
:102A9400AE10AF119002FFE0F510751100740278CA
:102AA4001012174874FF2510F874023511F9888242
:102AB4008983A312263D70030229ABE82403080886
:102AC40008E93400F9EE4F60030229B4888289834F
:102AD40074FFF0A3F09002FFE004F09002FFE060C6
:102AE4000A12303C1204627900800B850882850941
:102AF400831233AF790A0232A774EA1217B274FE52
:102B040012175B8C128D13EA2405F50CEB123D4170
:102B14001238DF750800750900EA2402F510EB3459
:102B240000F51185188285198385820A85830B78BF
:102B34000A1219C5850C82850D83A3A3A3A3122CA5
:102B4400D51219C5E50C2405F50AE50D12339B7859
:102B54000A1219C5850C82850D83122CD91206F62A
:102B640074061217718A0A8B0BEA450B7003022C48
:102B74007AEA2404F50EEB122CBF1238DF8A828B1A
:102B840083A3A3A3E0F985108285118312305060DA
:102B940003022C7AE4F514F51578141219C575148A
:102BA400E875150278141219C57514E975150278BB
:102BB400141219C574061217A61219DC7913AC0A7B
:102BC400AD0B851082851183123D5F121771E9F5F3
:102BD400096003022C7A9002E8E0F8E5087009E045
:102BE4002402900300F08014900300E0FCE8240227
:102BF400FAE43400FBEA6C7001EB707E850882AA6B
:102C040082122DFF9414122DF7506B850E82850FBE
:102C140083E0C0E074012A122CB6D0E0F0050885E8
:102C24000E82850F83A3E0C0E085080A7401250A9B
:102C3400122CB6D0E0F005089002E8122CD5121937
:102C4400C57CE97D0285080A7401250A122CC91283
:102C540017719002E8E02508F50874FF6E7003749C
:102C6400FF6F6012EE24010EEF3400FFE508C394F9
:102C7400145003022B27E508601312305A85108282
:102C840085118312304612046879008014E50970B6
:102C94000375090A851282851383EEF0A3EFF0A968
:102CA4000974021217717F0E02188485080C7401CE
:102CB400250CF58274033400F583223400F50F8566
:102CC4000E82F58322FA74033400FB12103274026C
:102CD4002212391522A3A3122CDF221233A6FDEEF1
:102CE400FAEFFB2274EE1217B274FE12175B8C0E0D
:102CF4008D0FEA2405F50CEB1238B6750B00900223
:102D0400FFE4F0F50AEA2402F508EB3400F5098043
:102D1400449002FFE0FA9002E8E0F8122DFF9417C5
:102D2400122DF7400D9002FFE0F87416C39890023C
:102D3400E8F0122E081219C57CE97D0274002AFA03
:102D44007403122CCC1217719002E8E0F89002FF81
:102D5400E028F0050AE50C2416F582E50D122CBADC
:102D6400E0F8E50AC39850749002FFE0C39416504B
:102D74006BE50AC333F8E433F9E50C28FEE50D39B5
:102D8400FF851882851983AC82AD838E828F83126E
:102D94002E117008750B011233AB8050E4F510F559
:102DA4001178101219C57510E875110278101219EE
:102DB400C57510E975110278101219C57406121739
:102DC400A61219DC7916850882850983123D5F12E3
:102DD4001771E9F50B7003022D1580BB7CFF7D0292
:102DE40085088285098312304612047AA90B74027D
:102DF4000232A9E99400C365D03322EA28F8E43406
:102E040000F9E822E0F51075110078102212329EC4
:102E14008A108B11AC10AD11EC4D2274EA1217B26A
:102E240074FC12175B8A0C8B0D8C128D13EA24052B
:102E3400F50AEB12339B750800750900E50A2402B4
:102E4400F510E50B3400F51174021217A685820EF5
:102E540085830F780E1219C5850A82850B83A3A377
:102E6400A3A31238BB1219C5E50A2405F50EE50B18
:102E74003400F50F780E1219C5851082851183125E
:102E840033A11230401206F674061217718A0E8BA3
:102E94000FAE0EAF0FE50C2402F50EE50D3400F570
:102EA4000F80388882898374FFF00508122CAF7470
:102EB400FFF005089002E8E0F50C750D00780C129F
:102EC40019C57CE97D0285080C7401250C122CC9F6
:102ED4001217719002E8E02508F508EE4F60278E7E
:102EE400828F83A3A3A3E0F9850E82850F8312301A
:102EF40050EE24041238B3E96027850C82850D83D3
:102F04001230321233B8E508700302301812305A06
:102F1400850E82850F8312304612048079000230B8
:102F24002DE4F514F51578141219C57514E8751502
:102F34000278141219C57514E9751502781412195A
:102F4400C574081217A61219DC7911EEFCEFFD8581
:102F54000E82850F83123D5F121771E9F509709A8D
:102F6400850882AA82EA9002E87009E024049003AA
:102F740000F08025E0F8900300E0F514E82404FC58
:102F8400E43400FDEC65147001ED7081122DFF94A2
:102F940012122DF74003022F11850C82850D83E058
:102FA400C0E074012A122CB6D0E0F00508850C822A
:102FB400850D83A3E0C0E0122CAFD0E012307585FC
:102FC400820C85830D780C1219C574041217A6128D
:102FD40019DC85108285118312306C1217718A0CEA
:102FE4008B0DAE0CAF0D85080C7401250CF8740321
:102FF4003400F9EE4F7003022EA7851882851983D9
:10300400E088828983123075A3E0C0E0122CAFD02F
:10301400E0022EB5E509700375090A850A82850B5D
:10302400831230321233B8A9097404022CA7123B5C
:10303400DB851282851383227CFF7D02850A8285CB
:103044000B8312304A22E0FAA3E0FB2212304A1228
:1030540006E4E9F50922900300E0F5F0E508849020
:1030640002FFF07CFF7D0222122CDF12070274049F
:1030740022F005088518828519832274EC1217B290
:1030840074FE12175B8A088B098C0E8D0FEA2405D7
:10309400FEEB3400FF123288EE24181238B3EA45EE
:1030A4000B700302312B12327150291231508A10E5
:1030B4008B11EA4511606B7912AC0AAD0B8508825D
:1030C4008509831230468510828511831217B0E971
:1030D400F50A7058E4F50AF50B780A1219C58E82C0
:1030E4008F83A3A3E0F50A780A1219C5EE2403120C
:1030F4003398780A1219C58E828F8312315D1208B3
:103104001C7406121771E9F50A7021850C82850D6D
:1031140083E0701F85088285098312304612048675
:103124008011750A0E8009750A018004E50A60039E
:103134001233AB850C82850D83E060047900800234
:10314400A90A74021217717F0C02188485188285EB
:10315400198312304A12080A221233A6FD85088206
:1031640085098312304A2274EE1217B274FE1217C4
:103174005B8A088B098C0C8D0DEA2405FEEB340068
:10318400FF750E00123288EA450B700302324F12AB
:103194003271502C1231508A0E8B0FEA450F604A5F
:1031A4007912AC0AAD0B85088285098312304685F5
:1031B4000E82850F831217B0E9F50E6003023252B6
:1031C40085088285098312348DAA0AFB1232637042
:1031D400147AFF7BFF123263606C88828983E50A6C
:1031E400F0A3E50BF0750A008007750E0E805F05ED
:1031F4000A9002E5E0FAE50AC39A504AE50A75F036
:1032040017A4FAABF088828983A3A3E02AFAA3E087
:103214003BFB8A828B831233A1EC4D70D2750A1763
:10322400750B00780A1219C5EEFCEFFD121032740A
:1032340002121771EEFCEFFD8508828509831230B6
:103244004612048C8014750E098003750E01123B1E
:10325400D3850C82850D831233B8A90E022DF21288
:1032640007FE8A108B11A810A911E84922E5082449
:1032740002F508E5093400F5098A828B83A3A3A328
:10328400E0A2E522851882851983AC82AD838E8203
:103294008F8312329E8A0A8B0B22E0FAA3E0FB1280
:1032A40006FC2274041217717F0A02188474EC124B
:1032B40017B28C108D11EA2405F50CEB1238B67593
:1032C4000F00EA2402F50AEB12339B850A82F58388
:1032D400123046123DE5700302338D750E00807185
:1032E400850C82850D83E06401704F8E828F83A3E9
:1032F400A31219DC8E828F83A3A3A3A3E0F5127516
:10330400130078121219C5EE2405F512EF3400F5F6
:103314001378121219C512304012081C74061217C1
:1033240071E9F50F6014850C82850D83E4F0123B7E
:10333400D38510828511831233B87C177D00790000
:10334400EEFAEFFB12104A8E828F83E4F0A3F005AD
:103354000E9002E5E0F8E50EC398501EE50E75F0F8
:1033640017A4F8A9F0850882850983A3A3123D4B0D
:103374001233A1EC4D60030232E48508828509838F
:1033840074FFF0A3F0E50F7006123040120492A906
:103394000F02314BF50AEF3400F50B22A31233A6CA
:1033A400FD22E0FCA3E0228E828F83123BDB850E9C
:1033B40082850F83E8F0A3E9F022C082C0839002E3
:1033C400E1E06A7003A3E06B70067AE17B0280049B
:1033D4007A007B0002270074F71217B27F00EF75A2
:1033E400F003A4F8A9F0EC28F8ED39F98882898370
:1033F400E06A7003A3E06B7006E8FAE9FB800B0F48
:10340400EFC3940240D87A007B007F0102188474D1
:10341400F61217B21239C470067A007B008007A333
:10342400A3A3A3123046023A8574F21217B2E9FE3E
:10343400740E1217A612348D74101217A61238F5D2
:103444008C828D83E06402703BA3123BD78882890F
:1034540083E0F50CA3E0F9A80C74026870037429E6
:10346400697021750C02750D00780C1219C5780865
:103474001219C5780A1219C5EEF912084074061219
:10348400177180027901023AF5E0F50AA3E0F50B21
:103494002274E81217B274FB12175BE9851882854F
:1034A4001983F08A168B178C0E8D0F741F1217A6B2
:1034B4001238F574211217A612348D74231217A62C
:1034C4001238DF7510008C828D83A3A3A3E0A2E4DD
:1034D400502A741D1217A61231568A828B83E582F4
:1034E400458370030235A1790AAC0EAD0FAA16AB61
:1034F400171217B0E9F51060030235A4850E828512
:103504000F83E06402600302385AA3123BD7850894
:1035140082850983A3858212858313E50E2406F52B
:103524000CE50F1238B688828983E0FAA3E0F9EA41
:103534002400F514E439F5157814121A4F0100002B
:1035440028012869350700022840360328B03500D1
:10355400296A37012992370229393703296A37043E
:1035640029FB375A38EE4F703E850C82850D831245
:1035740038D0FAE9FB8A828B83E0850A82850B8343
:1035840012390C1219C58A828B83A31233A6FDAAA1
:1035940008AB091210327402121771800375100EF1
:1035A400A9107405023D3975100B80F4EE4F70F7C5
:1035B400850A82850B837401F01238E585088285BB
:1035C4000983F07C007D00850E82850F83A3A3A36D
:1035D400A3E02401FAA3E03400FB1206FCEA4B60EA
:1035E400418A828B83E02402F8850A82850B83E07A
:1035F40028F0EA2404F8EB3400F988828983E08512
:10360400128285138312391E12390C1219C58A824B
:103614008B831233A0E5082403FAE5093400FB0286
:103624003597850A82850B83E02404F07C047D00B1
:103634007900AA12AB1312104A0235A4EE4F6003AC
:103644000235AB1238E5FEA3E0FF850A82850B83C1
:103654007404F0EE850882850983F0EF8512828573
:103664001383F074031217A6AC82AD83EEFAEFFB5A
:103674001239B270030237168A828B83A3A31238DD
:10368400DB74011217A685820E85830F780E12193A
:10369400C574051217A61219DC7CFF7DFF12070200
:1036A40074041217718B0FEA450F7033850C8285F1
:1036B4000D831238BB1219C5850C82850D83A312A4
:1036C40019DC7C027D007AD87B9212052E740412D8
:1036D4001771E9700A74011217A674FFF0A3F08E33
:1036E400828F83E064027034750C02750D00780CCF
:1036F4001219C58E828F831233A0E5082404FAE5DB
:1037040009122CCC121771850A82850B83E02402DE
:10371400800974011217A6EEF0A3EFF074011217DA
:10372400A61238CCF074011217A6A31238C4A3A3AE
:10373400A3F00235A4EE4F60030235AB850C8285FD
:103744000D831233A1AA16AB17120834850A828599
:103754000B837402F0EA850882850983F08512825E
:10376400851383EB80CBEE4F60030235AB1238E553
:10377400F8A3E0F9850A82850B837402F0E88508D2
:1037840082850983F0E985128285138380A3850CE1
:1037940082850D8312304612102CEAFC8C82A8829A
:1037A400C39EE49F404BE86E7001EF70047C008080
:1037B4001F851882851983E0FAEE2AFAEF3400FB9C
:1037C400C3EA98EB94005003E08004EECCC39CFC65
:1037D400EC850A82850B83F08C0A750B00780A123B
:1037E40019C5850C82850D83E02EFCA3E03F0235CC
:1037F400927510070235A4EE4F60030235AB850CB9
:1038040082850D83123BD7850A82850B837407F06A
:10381400888289831238C41238ACE08512828513F9
:1038240083F0E82402FAE93400FB8A828B8312389D
:10383400C41238FD1238CCA31239061238D5F0E878
:103844002405F8E93400F9888289831238D5A31253
:10385400391EA3023732741D1217A61239BD700324
:103864000235A1123BD7880C890DE8450D7003027F
:1038740035A18E108F1178101219C5780A1219C546
:1038840078081219C574061217A6E0F9AC0EAD0F2C
:10389400AA16AB17850C82850D831217B074061215
:1038A4001771E9F5100235A4F088828983A322F503
:1038B4000CEF3400F50D22E0F50E750F00780E22A2
:1038C400E08508828509832212392522123BDBE830
:1038D40022123925A3A322A3A3A3A3E0FEA3E0FFFE
:1038E40022850C82850D83E0F8A3E0F5838882E0CD
:1038F40022E0F508A3E0F50922A3A3F08A828B83D2
:10390400A3221225B8A3A322F08A828B831239152D
:1039140022E0F50A750B00780A221238AC12392518
:1039240022E0850882850983A3A32274EE1217B2CC
:1039340074FE12175B8A0A8B0BECFAEDFB741412FB
:1039440017A6E0F510A3E0F51174161217A6E0FE11
:1039540074181217A6E0F50EA3E0F50F85188285FA
:103964001983AC82AD831239B2603E851882851901
:10397400831239BD602FA3A31238F5E50845096009
:1039840024780E1219C578101219C5EEF9AC0CADD5
:103994000DAA0AAB0B8508828509831217B074043B
:1039A4001217718006790E80027901022DF2120637
:1039B400FC8A0C8B0DEA450D2212304A1239C422BE
:1039C4001207C88A828B83E58245832274F6121714
:1039D400B274FE12175B740C1217A61238D0851835
:1039E40082851983F074011217A6E9F0E4F508F54D
:1039F4000978081219C575080278081219C57404E3
:103A04001217A685820885830978081219C5120839
:103A14001C74061217717402121771806474F71201
:103A240017B2EAFEEBFF89087C187D03120834EA1A
:103A34005402600BA908EEFAEFFB1206F08002793B
:103A44000102340E74F61217B274FF6A700374FF25
:103A54006B701C7B00EB75F003A4F8A9F0EC28F85C
:103A6400ED39F9123A8A0BEBC39402501480E61232
:103A740008048A088B09A808A909E8496003123ACE
:103A84008A7F020218848882898374FF1225B6E42F
:103A9400F02274F61217B21208048A828B83E5822C
:103AA40045836006A3A3E0FA80027A007B0080D1FC
:103AB40074F21217B28A088B09ECFEEDFF740E1231
:103AC40017A6E0F50A123AFA701CEEFCEFFD7AFF35
:103AD4007BFF123AFA70047911801688828983E593
:103AE40008F0A3E509F088828983A3A3E50AF079A5
:103AF400007F060218841208048A0C8B0DA80CA9F6
:103B04000DE8492274EE1217B2EAFEEBFF8C088D21
:103B140009890C74121217A6123BD774141217A633
:103B24001233A174161217A6123046750D00EC4D0F
:103B34006003023BCB7402650C6003023BC68882BF
:103B440089831233A6F9EC2400F50EE439F50FEA63
:103B5400F4F8EBF4F9EC58F8E50F59F9E849705D1D
:103B6400E5082406F8E5093400F9880A890B8882F7
:103B7400F583122CDB1208348A108B11E50E6510C4
:103B84007004E50F65116042780E1219C5850A822A
:103B9400850B83122CDB12083A7402121771E9F5B3
:103BA4000D7027780E1219C5850882850983A3A391
:103BB400122CD91208527402121771800D750D80DF
:103BC4008008750D0D8003750D0BA90D0232AC8EA6
:103BD400828F83123BDB22E0F8A3E0F92274E8121F
:103BE40017B274E712175B851882851983EAF0A36C
:103BF400EBF08C168D17890E74311217A6E0F512AE
:103C0400A3E0F51374331217A6E0F514A3E0F51539
:103C140074351217A6E0F50F750800750900E5095B
:103C240075F003A4F8A9F0851882851983123D4B19
:103C3400E0F47003A3E0F47003023D29EE2402F5DE
:103C44000CEF123D41E07003023D2985160A8517E9
:103C54000B780A1219C5AC14AD15AA12AB131207CE
:103C6400BC74021217718A0A8B0BEA450B700302AB
:103C74003D29E4F510F51178101219C574061217D0
:103C8400A685821085831178101219C5740912173C
:103C9400A685821085831178101219C58512828534
:103CA4001383A3A3A3A31219DC7914AC0AAD0B8E5E
:103CB400828F83123D5F121771E97069850A8285CC
:103CC4000B83A3A3A3A3123BD774021217A6123328
:103CD400B8850C82850D83E0A2E05018A90E740209
:103CE4001217A6AC82AD838E828F831230461207E0
:103CF40014E94208850C82850D83E0A2E15026E593
:103D04000FF50A780A1219C9A90E74031217A6AC82
:103D140082AD838E828F8312304612070E74011295
:103D24001771E942080509E509C394025003023CEE
:103D340022A90874191217717F100218843400F52F
:103D44000D850C82F58322E028FEA3E039FF8E82E4
:103D54008F83227916850A82850B8312304A1208D2
:103D64001674082274F21217B2EAFEEBFF890B7480
:103D740001650B600E7402650B70637901120A2CE5
:103D8400E9705BEEFAEFFB123DE56047750A0080CF
:103D94000B7C177D00790012104A050A9002E5E0B9
:103DA400F8E50AC3985021E50A75F017A4F8A9F0BC
:103DB400850882850983A3A3E028FAA3E039FB8A56
:103DC400828B8312270770C985088285098374FF53
:103DD400F0A3F07C187D03EEFAEFFB12082E023AF2
:103DE400F51207FE8A088B09EA45092274F21217B4
:103DF400B28A088B09ECFEEDFF740E1217A612347A
:103E04008D900A07E0F4603D7A097B0012105CEAA9
:103E14004B60328A828B8374B1F0A3E41238FFA31F
:103E24001238FDA3E508F0A3E509123E4CEEF0A319
:103E3400EF123E4CA3A3E50AF0A3E50BF0900A07AA
:103E4400E0F9121068023AF5F08A828B83A3A3A3E7
:103E5400A3A32274F41217B2E9FF7E008A088B0927
:103E64007808121A0900040D08408A3EA63EBB3E9B
:103E7400D03EE53EFA3E163F2F3F413F6F3F913F14
:103E8400AD3FC93FE73F74016F70128C828D83E0B0
:103E9400C394035008E0900AF3F00240267E18020F
:103EA400402674026F70F68C828D831247B6900A96
:103EB400F4E8F0A3E980E274016F70E18C828D83F1
:103EC400E0C3940250D7E090078180CD74016F70F5
:103ED400CC8C828D83E0C3940550C2E0900782802D
:103EE400B874016F70B78C828D83E0C3940250ADB7
:103EF400E090078380A374106F70A27508108E0978
:103F040078081219C57A847B07124B7A121771024A
:103F1400402674016F70868C828D83E0C3940240C6
:103F240003023EA1E0900794023E9D74016F60037A
:103F3400023EA18C828D83E0900AF7808D74046F19
:103F44006003023EA190927B780812162B8D838C1D
:103F540082780812144D4003023EA18C828D831294
:103F64001649900796121655024026EF6003023E4A
:103F7400A112069CE9700E1211D0795012137A1214
:103F840011C40240269008297401023E9D74016FF9
:103F94006003023EA18C828D83E0C394024003023D
:103FA4003EA1E0900795023E9D74016F6003023EBE
:103FB400A18C828D83E0C3940A4003023EA1E09069
:103FC4000AF6023E9D74016F6003023EA18C828D4D
:103FD40083E024F9C3940A4003023EA1E0900AF866
:103FE400023E9D74016F6003023EA1900828E0F830
:103FF4008C828D83E0900828F0E87026E0640170DC
:1040040021023F83C3EA9426EB9400501374026F99
:10401400700E8C828D831247B012053AE9FE80023D
:104024000E0EEEF9024030740E1217717F0402185E
:104034008474F01217B274CC12175B8C0A8D0B7453
:10404400441217A6E0FE74201217A6AC82AD837545
:1040540083917582FC740612166E74201217A6AC36
:1040640082AD83121170E9F508C3940A400302413A
:104074009975F006E9A4F50974261217A6AC82AD69
:10408400837A0E74202509124C3270097432121787
:10409400A6E0FF80027F00900AF3E06402700474DB
:1040A400018001E4F50D780D1219C9EEFDEFFCA9AC
:1040B40008AA0AAB0B1211FA74011217717C147D51
:1040C400007900740C1217A6AA82AB8312104A74EA
:1040D4000C1217A6AC82AD837A1074242509124CF5
:1040E4003270377C1079FF740C1217A612495F7076
:1040F40029741C1217A6AC82AD837A047425250991
:10410400F9121374740C1217A6AC82AD83EFA2E0FB
:10411400E433F9AA0AAB0B1205C485188285198306
:10412400AC82AD837A0C74702508124C32705585BC
:104134001882851983AA82AB831211A6750800E53B
:104144000875F003A4F8A9F0851882851983E5821F
:1041540028F8E58312499B1247B0EC4D601D888214
:104164008983A3A3E0F50E750F00780E1219C5AA72
:104174000AAB0B12082274021217710508E508C372
:10418400940440BBEFA2E1500C900780E0F9AA0A26
:10419400AB0B12082874046E702A900AF3E06402D0
:1041A4007022900794E060047A0180027A009007FC
:1041B40081E06004780480027800E84AF9AA0AAB36
:1041C4000B120684790074341217717F0802188464
:1041D40074F01217B2EAFEEBFF8C088D09750A0A17
:1041E400E9600C14600914602E14607F02427A1294
:1041F40011B8E9F50AC3940A507CE50845096076CC
:10420400750E06750F00780E1219C5EEFCEFFD123F
:104214004B76121771805F750B00750E06750F00D3
:10422400780E1219C5EEFCEFFDE50B75F00EA4F83F
:10423400A9F074A228FA740739FB1210447402120C
:104244001771E9601B850B0AE50AC3940A5027E538
:104254000845096021AA08AB09A90A1211B28016FF
:10426400050BE50BC3940A500D80AF1211BEE9F59E
:104274000AC3940A40D9A90A0241CF74F41217B2AE
:10428400890875091574FF6A700374FF6B70277EC3
:1042940000AC087A027B00EEF9121194E960037510
:1042A40009000EEEC3940A40E8E50860497AE87B09
:1042B40011120A3E8040120A208A0A8B0BAE0AAF02
:1042C4000BEE4F602E7C007D00EE2405FAEF3400E7
:1042D400FB8E828F83124376500CAC087A027B00EB
:1042E400121194750900E508600CEEFAEFFB121147
:1042F400E88003750914A90902403074F21217B258
:10430400ECFEEDFF740E1217A61247A37508157480
:10431400FF6A700374FF6B7021750900AC0AAD0B62
:10432400EEFAEFFBA90912119AE96003750800057A
:1043340009E509C3940A503580E2120A208A828B67
:1043440083E582458360237C007D00E5822405FAB1
:10435400E5833400FB1243765013AC0AAD0BEEFA3E
:10436400EFFB12119A7508008003750814A908025E
:1043740051A1A3A3A3A3E0F9121170E9C3940A22E3
:10438400C082C08390079AEAF0A3EBF0900780E024
:10439400FC7D007A257B0012053A900780E0F91233
:1043A400079ED083D08202013574EC1217B28A08BA
:1043B4008B09E9FE74141217A6780C12162B7F00D1
:1043C400EE702E78081219C590927B781012162B75
:1043D400780C79101214FCAA10AB11AC12AD1312A4
:1043E40005D67402121771E9FF60097901AA08ABB6
:1043F400091205D0EFF97F0C02188474EA1217B27F
:1044040074EC12175BEAFEEBFFEE240CF514EF34A8
:1044140000F515EE240AF510EF3400F511EE24052D
:10442400F50EEF3400F50FEE2409F50AEF3400F52C
:104434000BEE2403F508EF3400F5098E828F83A375
:10444400A3E024FA700302476C24FD700302469B28
:104454001470030244EA14601024FD700302466CD5
:104464001470030246D002478A1247CF604AE0F52F
:104474008388821247B6880C890DE8450D6039851A
:104484001482851583E0F50E780E1219C9EE240BFB
:10449400F582EF3400F583E0F9850A82850B8312F7
:1044A40047B00A0A0AAB09850C82850D831217B03E
:1044B400740112177102478A850A82850B831219C7
:1044C400DC9007961216491205D67402121771E988
:1044D400700302478A7901850A82850B83124FC6CD
:1044E4001205D002478A8E828F83A3858212858328
:1044F40013E06003024645850E82850F83E0A2E047
:1045040040030246457C0E7D00790085188285199A
:1045140083AA82AB8312104AEE2408F50AEF340012
:10452400F50B850A82F5831247D26019750C06755E
:104534000D00780C1219C5850A82850B83E02410BE
:10454400FCA3E0801A124794EA4B700302478A7571
:104554000C06750D00780C1219C5EA2405FCEB3421
:1045640000FD74021217A6AA82AB83124B7A1217AB
:1045740071850E82850F83E0A2E25004D2F080029E
:10458400C2F0A2F0E433F8740C1217A6E048F085E8
:1045940010828511831247D260158510828511839C
:1045A400E02410F8A3E03400F98882898380039022
:1045B400927F780C12162B8510828511831247D2B4
:1045C400600F851082851183E0F510A3E0F511805A
:1045D40006751000751100850A82850B831247D277
:1045E400600B850A82850B831247A38006750A0037
:1045F400750B00780C1219C178101219C5780A12BB
:1046040019C58514828515831219DC8E828F83A3C4
:104614001247AB740A1217A6AA82AB831211AC74A8
:104624000A1217718508828509831247B690082AF1
:10463400E8F0A3E9F07A017B00900780E0F912101A
:104644008C1247CF700302478A1247BC700302479B
:104654008A851282851383E0FC7901124FC08E8211
:104664008F831217B002478A1247CF700302478A1A
:10467400E0F5838882A3A31247B6890BE8450B7043
:104684000302478A8E828F83A3E0FC7902124FC013
:104694008882850B8380CB7C007D00EE2404FAEFB6
:1046A4003400FB850882850983E0F9121170E9F86A
:1046B400C3940A400302478AAC10AD117A0475F022
:1046C40006E8A42425F912136E02478A900795E0A0
:1046D400600E900AF6E0F98508828509830244E1B8
:1046E400900AF3E07004790580ED1247948A0C8BEC
:1046F4000DA80CA90DE82404F50CE93400F50D8E81
:10470400828F83A3A3A3A3A3A3A3E0A2E05036E8CC
:10471400496073850C82850D83E0FE6028850A82DA
:10472400850B83E05410701D740E1217A6AC82AD75
:1047340083E82405FAE93400FBEEF9121170E970FC
:104744000479038092AC0EAD0F850C82850D83E055
:10475400F9124FC01211F41247CF602A1247BC60FD
:10476400257C00790002465F12069CE970189008C7
:1047740029E0640170081211D0900829E4F07950FE
:1047840012137A1211C474141217717F0E02188452
:10479400850882850983E0FAA3E0FB120A2022E05F
:1047A400F50AA3E0F50B22A3A3A3A3A3E0FCA3E0D3
:1047B400FD22E0F8A3E0F922E0F5838882A3A3E0D8
:1047C400F8A3E0F9E8FEE9FFEE4F2290079AE0F83B
:1047D400A3E0F9E8492274F41217B274F212175BD9
:1047E400EAFE8C0B75F006E9A42420F508851882EE
:1047F400851983AC82AD837A0E124C32704A7C06E2
:104804001249577043740C1217A61247B6E8F509FB
:10481400E50B6005EE42098004EEF4520985098235
:10482400AA82E86A7001E9601B740C1217A6EAF008
:10483400A3E4F0851882851983AC82AD837A0EA92E
:104844000812136E79018002790002402B74F2126F
:1048540017B274E612175B890A8A088B09ECFEED1D
:10486400FF740C1217A6124C25600302490B7C0638
:1048740079FF740C1217A612495F600302490B7486
:1048840070250AF50B851882851983AC82AD837A6D
:104894000C124C326003024950851882851983AA90
:1048A40082AB831211A6E508450970217C0C7900BE
:1048B40012495960030249507C0C7D007900851827
:1048C40082851983AA82AB8312104A80618518827B
:1048D400851983AC82AD83AA08AB091211A08A0C96
:1048E4008B0DA80CA90DE849702CEE4F60198518A2
:1048F40082851983AC82AD837A007B001211A0EA11
:10490400F8EBF9EA4B70047900804388828983E5E7
:1049140008F0A3E509F01249D7FAEE6A7001EF60D6
:104924002BEEF04F700888828983E4F0A3F0851899
:1049340082851983AA82AB831211A68518828519F0
:1049440083AC82AD837A0CA90B12136E7901741AAD
:1049540002519E79FF851882851983AA82AB83123E
:1049640010B0E92274F71217B27F00EF75F003A4B8
:10497400F8A9F0EC28F8ED12499BE06A7003A3E073
:104984006B7006E8FAE9FB800B0FEFC3940440DB7D
:104994007A007B00024CD039F9888289832274F72B
:1049A4001217B27E00EE75F003A4F8A9F0EA28F815
:1049B400EB12499BE0F4FCA3E0F4FD88828983ECCC
:1049C400F0A3EDF01249D7F4F00EEEC3940440D5F1
:1049D400024CD0E82402F582E93400F583E0227425
:1049E400EE1217B274F412175BEAFEEBFF8C0A8D19
:1049F4000B741E1217A6E0F50CA3E0F50D7420123B
:104A040017A6E0F508A3E0F50974221217A6E0F54D
:104A140010A3E0F511EE4F7005790A024B0812114C
:104A2400B8E9F50EC3940A4023750F007C0679FF9C
:104A3400E50F75F00EA4FAABF0749C2AFA74073BE8
:104A4400FB1249637003024B12850F0EE50EC394EB
:104A54000A4003024B0675F006E50EA4F50FEEFCC2
:104A6400EFFD7A0E7420124B23E50A450B600BAC64
:104A74000AAD0B7A1B7421124B23E50C450D600B18
:104A8400AC0CAD0D7A1B7422124B23E5084509606A
:104A94000BAC08AD097A107423124B23E5104511B1
:104AA400601BAC10AD117A107424124B23742412C1
:104AB40017A6AC82AD837A047425124B237C0C7D3B
:104AC4000079FF12522F7A0C7470250EF912136EAE
:104AD40075080E75090078081219C5EEFCEFFDE59E
:104AE4000E75F00EA4F8A9F0749C28FA740739FB2B
:104AF400124B7A121771900828E060031212001208
:104B040011EEA90E740C1217717F0A021884050F96
:104B1400E50FC3940A5003024A30750E0A80E32558
:104B24000FF912136E2274F41217B274F212175B97
:104B3400EAFEEBFFE9C3940A5004EE4F70047902D5
:104B4400802D851882851983124C25F508701E75F1
:104B54000A06750B00780A1219C574021217A6AC5E
:104B640082AD83EEFAEFFB124B7A121771A9080299
:104B7400402BAA08AB0912103274022274F41217E3
:104B8400B2EAFEEBFF750800750A06750B00780A99
:104B94001219C5EEFCEFFDE50875F00EA4F8A9F0B6
:104BA400749C28FA740739FB1210447402121771AA
:104BB400E96004A908800B0508E508C3940A40C805
:104BC400790A02403074F71217B274F012175BEAD4
:104BD400FEEBFF750800851882851983AC82AD83CE
:104BE4007A1075F006E508A42423124C32701F7C59
:104BF400101249577018EEFCEFFD85188285198351
:104C0400AA82AB831205A6E97004A908800B0508E3
:104C1400E508C3940A40BF790A7410121771024C54
:104C2400D0AC82AD837A0E75F006E9A42420F91283
:104C34001374E92274F71217B2750800E50875F0C9
:104C44000EA4F8A9F0749C28FE740739FFEEFCEF5B
:104C5400FD7A0E75F006E508124C2F602C7C067D5B
:104C64000079FFEEFAEFFB12104A7C067D0079FF13
:104C7400EE2406FAEF3400FB12104AEE240CF582FF
:104C8400EF3400F583E4F0A3F00508E508C3940AC3
:104C940040AA900828E060031212001211EE802C42
:104CA40074F71217B27E007F007C0679FFEF75F06F
:104CB4000EA4FAABF0749C2AFA74073BFB12496306
:104CC40070010E0FEFC3940A40DFEEF97F01021862
:104CD4008474F71217B27E00EEF91211D60EEEC3E9
:104CE400940A5003E960F180E374F31217B274CBB1
:104CF40012175BE9FF75F006A4F50874202508FE79
:104D040074271217A6AC82AD837A0EEE124C326071
:104D140003024DEF7C0679FF74271217A612495F30
:104D24006003024DEF7C0E7D0079FF74271217A6F5
:104D3400AA82AB8312104A7C1B7D0079FF740C128B
:104D440017A6AA82AB8312104A7C0C7D0079FF85DA
:104D54001882851983AA82AB8312104A742712170A
:104D6400A6AC82AD837A0EEEF912136EE9F50974DE
:104D74000C1217A6AC82AD837A1B7421124DFEFE71
:104D8400740C1217A6AC82AD837A1B7422124DFEEA
:104D9400F50A740C1217A6AC82AD837A1074231230
:104DA4004DFEF50B740C1217A6AC82AD837A107409
:104DB40024124DFEF50C740C1217A6AC82AD837A46
:104DC400047425124DFEF508851882851983AC827A
:104DD400AD837A0C74702FF912136EE9F8EE450A5C
:104DE400450B450C45084842098003750900A9098B
:104DF40074351217717F050218842508F912136E91
:104E0400E92274F71217B2E9900780F01211C40274
:104E14004CD074F21217B274FB12175B8A088B0918
:104E2400EB54807003024EBA900780E0F9121074BC
:104E34008A0A8B0BA80AA90BE8FEE9FFE849606C13
:104E4400EE2404F8EF3400F98E828F83E02450605E
:104E54003814600624E1604A804B88828983E070BC
:104E6400448E828F83A3A3A3A3A3A3A31219DC8ECE
:104E7400828F831247AB8E828F83A3A3124FC612F5
:104E8400117C7402121771801C88828983E0641E6D
:104E9400701379008E828F83A3A3124FC6121176EA
:104EA400800312118EEEFAEFFB121062AA08E509D4
:104EB4006480FB024FBBEAA2E04003024FB79008B4
:104EC4002A1247A374031217A685820C85830D78D2
:104ED4000C1219C5750C02750D00780C1219C575E4
:104EE4000CD2750D92780C1219C57CFF7DFF7A01E6
:104EF4007B001206F67406121771024F9FE4F50C3C
:104F0400F50D780C1219C574041217A685820C8548
:104F1400830D780C1219C574041217A685820C85AA
:104F2400830D780C1219C574091217A61219DC79AD
:104F340002EEFCEFFDAA0AAB0B1208167408121756
:104F440071E97035851882851983E0FA74011217A6
:104F5400A6E0F9EA2400F50CE439F50DEA450D6004
:104F640018780C1219C58E828F831247ACAA0AAB2B
:104F74000B12117C7402121771E4F50CF50D780C08
:104F84001219C574051217A61219DC7CFF7DFFEEF9
:104F9400FAEFFB12070274041217718A0C8B0DAE20
:104FA4000CAF0DEE4F6003024F01E5086401FAAB4C
:104FB4000980047A007B00740502519E850882856D
:104FC4000983E0FAA3E0FB22C082C083900780E05B
:104FD400F98A828B83A3124FC61208280243A6C003
:104FE40082C08374FF12175B1211CAE9C39402854D
:104FF4001882851983400474028002740AF0AC821A
:10500400AD837A0179051206B47401121771024353
:10501400A674F21217B274E812175BEAFEEBFF896A
:105024000A8C088D097C187D007900125237EEF045
:10503400A3EFF0900782E0C0E074021217A6D0E05C
:10504400F0900783E0C0E074031217A6D0E0F0905C
:105054000AF8E0C0E074171217A6D0E0F074151235
:1050640017A6E054FEF8A3E0F9900AF7E0A2E0E402
:1050740033FAE84AF874151217A61251ADA2E1509A
:1050840004D2F08002C2F0E854FDFAA2F0E4333313
:10509400F8EA48F874151217A61251ADA2E35004A9
:1050A400D2F08002C2F0E854F7FAA2F0E433F50C2F
:1050B400750D007403780C1217481251A61217A626
:1050C4001251ADA2E45004D2F08002C2F0E854EFD1
:1050D400FAA2F0E433F50C7404780C121748125158
:1050E400A61217A61251ADA2E55004D2F08002C256
:1050F400F0E854DFFAA2F0E433F50C7405780C12EE
:1051040017481251A61217A61251ADA2E25004D2AA
:10511400F08002C2F0E854FBFAA2F0E433F50C7418
:1051240002780C1217481251A61217A6E8F0A3E948
:10513400F0900783E0601B750C10780C1219C57C85
:10514400847D0774061217A6AA82AB83124B7A12C7
:105154001771900794E06011E50A6009741512173D
:10516400A6E04402F078018002780074141217A6B5
:10517400E048F0900781E0600478048002780074CD
:10518400141217A6E048F0AC08AD098518828519F9
:1051940083AA82AB831205CA74181217717F0602A0
:1051A4001884EA450CF8741522E8F0A3E9F0900A93
:1051B400F7E02274F31217B274E512175BEAFEEB00
:1051C400FF8C098D0A74281217A6E0F50C75F006F9
:1051D400E9A4F87408650A70047422800274212812
:1051E400F50B7C1B7D00790012522F7A1BA90B1240
:1051F4004C337032741A1217A6E024F9C3940A507F
:1052040025E50CF50B780B1219C974011217A6AC1D
:1052140082AD83E509A2E0E433F9EEFAEFFB12056F
:10522400DC7401121771741B024DF6125237AC82F2
:10523400AD8322851882851983AA82AB8312104A12
:105244008518828519832274F71217B212089A7589
:105254000800E50875F00EA4F8A9F0749C28FE7403
:105264000739FF7C0679FFEEFAEFFB1249637009F8
:10527400EEFAEFFB79001208A00508E508C3940ACA
:1052840040D0024CD0C082C0839061907404F0A3DB
:105294007448F0A3E4F09061807440F09061BC74B1
:1052A40007F09061877469F09061B67416F0790024
:1052B400120B1C7902120B22902474E493F46006FE
:1052C400E493F9120AF87905120E160256CBC0823D
:1052D400C083E9540FF9906185E0696012E5C65412
:1052E400804449F5C6E59E547F644970F8E9F0535B
:1052F400C680E59E547F70FA0256CB74F71217B23B
:10530400E5A8FE53A87E120B04C2BA539AFEC289C2
:10531400759B00C2C2120B0A75A91175B905120B4F
:1053240010D2BA439A0174805E42A8025C58C082CB
:10533400C083906181E4F0A30256C875E9007591B9
:105344000075BF00020135C082C083906181E4F022
:10535400A374C0F0A3E40256CAC082C08374F812D6
:10536400175B9003C4125B3AE8497003025414902B
:1053740003C4E0544060237908851882851983AA00
:1053840082AB83120C12851882851983AA82AB839F
:105394001208BE9003C4E054BFF0E054806010795A
:1053A4000C7A807B05120C129003C4E0547FF0E069
:1053B400A2E05008790012541C54FEF0E05402603C
:1053C40008790112541C54FDF0E05404600879007B
:1053D40012542754FBF0E054086008790112542752
:1053E40054F7F0E054106008790212542754EFF097
:1053F400E054206008790312542754DFF0A3E054EA
:1054040001600D120B2E1208D09003C5E054FEF07B
:1054140074081217710256CB120B1C1208C49003A5
:10542400C4E022120B221208CA9003C4E022C082F4
:10543400C083E9600514602A804F90619A7433F048
:10544400A37455F09061A0743AF090055CE0640197
:105454007009C2919003C67467802D9003C674616D
:10546400802690619A743FF0A3745AF09061A074FE
:105474007FF090055CE064017009D2919003C674DA
:105484007180059003C6746AF00256CBC082C08353
:10549400E9600B14600D14600F14601180209024D7
:1054A400788015902479801090247A800B90055C84
:1054B400E0640160F390247BE493906186F00256EB
:1054C400CB74EE1217B274F412175B851882851927
:1054D40083AC82AD8375839275821B740412166E3D
:1054E40090247893F46003025657907808E0C394AC
:1054F40002500302563774041217A6AC82AD8375AA
:1055040083917582DA740812166EF97AFF7BFF7F35
:10551400FF7E008982858210801874086E700302F1
:1055240055EC74096E70030255EC740A6E70030234
:1055340055ECE510C333FCE433FD74041217A6E5FF
:10554400822CF582E5833DF583E0F50EA3E0F50FAB
:105554008E087509007402780812174874482508E3
:10556400FC74783509FD8C828D83780812162B74AF
:1055740008780812156C85080C85090D8C828D83BA
:10558400780812162B7418780812156CE50C450867
:10559400F508E50DF509C3E50E9508E50F95098CA9
:1055A400828D83780812162B8C828D8378081216CC
:1055B4002B74187808401412156CE50C4508FCADE2
:1055C4000DE50EC39CFCE50F9D800F12156CE50CD8
:1055D4004508C3950EFCE50D950FFDC3EC9AED9BB4
:1055E4005006ECFAEDFBEEFF0EEEC39413500302EB
:1055F400551E74FF6A700374FF6B602D8F0874026C
:10560400780812174874481262E674783509F583ED
:10561400780812162B851882851983E5822510F5E2
:1056240082E583126073E508F009E9C3940450032A
:1056340002550F75080175090078081219C574021E
:105644001217A6AC82AD837A1E7B09121242740231
:10565400121771740C1217717F0A021884C082C069
:1056640083906186E0F890247BE493687009902429
:105674007AE493906186F09061AE7468F0A3746AE2
:10568400F090624574FBF0A304F053F4FD43FE0272
:1056940090055C7401F09061A0E0643A70047900B4
:1056A40080027901120B1C0256CBC082C083900584
:1056B4000EE06401700A900513E06004790C800226
:1056C40079008003F0A3F0D083D082020135C08238
:1056D400C08375E1F1900511E0604D146008146019
:1056E400511460498051120B40900507E0F97A0883
:1056F4007B05120D9890922B121649120DCE9092A2
:1057040067121649120DA4900512E0F9120DB07932
:1057140001120E0A900505E024161258607458F020
:10572400A3740BF07900809F120B4680BC120B4CC3
:1057340080B7120B5280B2791280EB74F41217B254
:1057440075D90D9004F6E0A2E0E4331313F8125770
:10575400CC484401F5D9780012584A40FB780088B7
:105764000874F71262E6740412585440F275E19515
:105774009004F6E0F97AF77B04120D9E900A2974DE
:10578400CEF0A3740A12586F12588F125886125909
:10579400C71257D6780812162B909237780812152C
:1057A400B790925F780812160512585A78081216A4
:1057B4003A900505E024141258607413F09003C263
:1057C4007402F07F04021884900507E0C433335454
:1057D400C022900505E0F8A3E0F5838882A3A32204
:1057E40074F61217B21259988AD9780012584A409E
:1057F400FB780080061258FE125A4AE8C39940F515
:1058040012598A12584A40FB780080081262E274E6
:1058140005125A4AE8C39940F375E195900A297430
:10582400DAF0A3740A12586F1258791216491258F2
:105834005A121655900505E024141258607412F09B
:105844009003C2025C35880874082508F582740543
:10585400125BA6940622900505E0240EF8A3E0123C
:105864005867223400F988828983221259B074D48B
:10587400F0A3740A2212588F1258861259CB9092B0
:105884007F22F0A374ECF0A3740A2212589322121C
:10589400589722F0A3747EF0A3740C2274F61217A6
:1058A400B21258F31257CC4402F5D9780012584A70
:1058B40040FB780080061258FE125A4AE8C3994009
:1058C400F575E195900A29125909F0A312590912A4
:1058D400587C12164912585A121655900505E024A0
:1058E400141258607414F09003C27404025C37906C
:1058F4000517E0F9740729F5D922880874182508D2
:10590400F58274052274E6125916125916F0A3741E
:105914000A22F0A3740AF0A374E62274F61217B2F2
:1059240012599874064AF5D9780012584A40FB78FF
:105934000080061258FE125A4AE8C39940F51259DB
:105944008A12584A40FB780080081262E2740512F9
:105954005A4AE8C39940F375E195900A2974E0F036
:10596400A3740A1259A612587912164912585A12D7
:105974001655900505E024141258607415F0900330
:10598400C27403025C379005371258F674044AF562
:10599400D97800221258F3900507E0C4333354C079
:1059A400FA221259B0747EF0A3740C221259B42254
:1059B4001259C1747EF0A3740C1259C12212589763
:1059C400F0A3221259CB22F0900A37747EF0A3740C
:1059D4000C1259B4747EF0A3740C125893F022C0C4
:1059E40082C0831257D6A3A3A3A3E40256C874F7B4
:1059F4001217B2126528F8740339F9E82405FAE994
:105A04003400FB8A828B8312629788828983A3A3E2
:105A1400A3A3A3A3A3A3A3ECF0A3EDF0888289839B
:105A2400A3A3A3A3A3A3A3E024FFF8A3E034FFF953
:105A34008A828B83E8F0A3E9F0025C5888087460DA
:105A44002508F58274051261BEF5D90822EAFEEB39
:105A5400FF9061D0E0F87480C398FAEE2483221298
:105A64005A69940422126081E0F5D90AEAC32274C7
:105A7400F61217B2EAFEEBFF9061D0E0707575D9AB
:105A84000E75D90375D9047A008A08EE25081265C3
:105A9400F6248C125B0C40F17A008A08EE25081279
:105AA40065F62484125A6340F175E1957908EE2471
:105AB4008C125B052484125AFC7C008C82AA82C35B
:105AC400E49AF895E0F9EE28F8EF39F9E8248BF533
:105AD40082E91261BAC0E0EE2A1265F624ABF582BF
:105AE400E9126073D0E0F00CECC3940840CD125B73
:105AF400C280027900025C38FAEF3400FB120C0613
:105B040022125AFC7904EE22125A69940822C082A5
:105B1400C08375D90275D90375D90575E195EA2451
:105B240070F582EB125B37EA2472F582EB125BD4D8
