:020000040000FA
:0600000002011D021E2F8B
:03002B0002257239
:030033000225544F
:03005300021EA2E8
:03006B0002252B40
:10008300021CE3E5C754F84401F5C77901220000D7
:100093000080FB120086B90003020107E47921788E
:1000A30008B800028004F709D8FCE479297802B87B
:1000B30000028004F709D8FCE490028178CA79072A
:1000C3008002F0A3D8FCD9FA781A90014D7A01BACC
:1000D30000028007E493A3F608DAF990094AAA829A
:1000E300AB8390014E780379048015E493A3AC822B
:1000F300AD838A828B83F0A3AA82AB838C828D83A8
:10010300D8E9D9E77582987583FF740212012F75B8
:100113008291758300740012012F75D00075813FA1
:10012300751881751902759F00020096C09FF59F8F
:10013300E473D09F22D083D082C09FE493C0E07445
:100143000193C0E0740293F59F2201FF0000B40005
:100153000028002800283075A000A000A000A000FF
:1001630000080008E001F00010001000100010006B
:100173001000100050005000500010001000D00775
:100183000000000000000F000100050030750700AB
:100193001000010081FF0000FF4E066C065406FFAD
:1001A30002020208025000A0000000E80302D88403
:1001B300010000C28402D4840100009F0902CE849E
:1001C300010000B20202D484010000A00902FA84F3
:1001D300010000C80202D484010000A10902DE84E8
:1001E300010000CA0202D484010000A20902E084D3
:1001F300080000CB0202D484010000A30902EA84B0
:10020300010000A409FF0100FF2002D884010000BF
:10021300C88402D484010000080A02E884000000B4
:10022300000002D0840300001803300C300C300CA3
:10023300300C300C300C300C300C300C300C300CDB
:10024300300C300CBE0ED60EB80EFFFF02020202B7
:100253000202020202010D000000100102D8840113
:100263000000C58402D4840100004B0A02F6840115
:100273000000780702D4840100004C0A02F48401D0
:1002830000006B8302D4840100004D0A02F2840152
:100293000000358302D4840100004E0A02F0840179
:1002A3000000928202D4840100004F0A02EE84010E
:1002B3000000808202D484010000500A02EC840111
:1002C30000006E8202D484010000510A02E6840118
:1002D30000005C8202D484010000520A02E484011B
:1002E3000000438302D484010000530A02E2840124
:1002F3000000540A01E803053F10FF0001307503B5
:1003030002010600000000000000000000000000E1
:10031300000000000000000000000000000000FFDB
:10032300FF0600800CE803140953696D706C654285
:100333004C455065726970686572616C05125000B6
:100343002003020A000201060302F0FF53696D70E5
:100353006C6520424C452050657269706865726116
:100363006C3213000044134A1338130A4368617252
:100373006163746572697374696320310002436851
:100383006172616374657269737469632032000812
:10039300436861726163746572697374696320335E
:1003A3000010436861726163746572697374696391
:1003B3002034000243686172616374657269737407
:1003C300696320350002D884010000CB8402D48401
:1003D3000100006A0B0200850300003B0902D2847E
:1003E3000100006B0B02D4840100007C0B02028528
:1003F3000100003C0902D2840100007D0B02D48479
:100403000100008E0B0204850200003D0902D28424
:100413000100008F0B02D484010000A00B020685AB
:100423000000003E0902D0840300003F0902D28489
:10043300010000A10B02D484010000B20B02088565
:10044300040000450902D284010000B30B120138F5
:10045300A69A03120138BD9A03120138EC9A0312CB
:100463000138259B031201384D9B031201387B9BF6
:1004730003120138929B03120138A99B031201381E
:10048300BF9B03120138E69B03120138F99B031249
:1004930001380F9C03120138229C03120138479C38
:1004A30003120138E2A502120138E1A60212013853
:1004B30016A70212013837A70212013847A7021202
:1004C300013868A70212013874A80212013841A941
:1004D30002120138B4A9021201383AAA02120138F1
:1004E3007DAA02120138B4AA021201383AAB0212F1
:1004F30001380CAC021201386AAC0212013882AC2A
:1005030002120138FCAC02120138FFAC02120138AE
:1005130002AD02120138A9AD02120138C1AD0212B7
:100523000138F1AD0212013811AE02120138FFAEEB
:1005330002120138B5AF0212013881E70212013805
:10054300A9E702120138D7E7021201380EE80212B6
:10055300013876E802120138BFE8021201380AE9CD
:100563000212013848E90212013885E90212013802
:10057300B3E9021201385AEA0212013864EA02129C
:10058300013871EA02120138A4EA0212013866EB5B
:100593000212013872EB021201388AEB021201389F
:1005A30094EB02120138DEA303120138ECA3031209
:1005B300013804A4031201381CA403120138EFAC60
:1005C300011201388DAD0112013805AE0112013857
:1005D3001AAF0112013854AF01120138FDAF0112F5
:1005E3000138D2B00112013836B2011201388DB28E
:1005F3000112013814B301120138FBB3011201389F
:1006030048B401120138D6B401120138FAB4011208
:100613000138CFB60112013810B70112013832B7D1
:1006230001120138B3B7011201389DB80112013824
:1006330063B90112013817D002120138E9D002124E
:10064300013892D102120138D5D10212013862D297
:1006530002120138EED202120138CFD3021201384E
:10066300FED302120138FAD40212013842D5021223
:10067300013844D60212013888D602120138AED6A8
:1006830002120138FCA503120138EC83031201386E
:10069300028403120138288403120138508503129F
:1006A30001385A8503120138B38603120138B38720
:1006B30003120138B1DD02120138E6DE02120138FD
:1006C30019DF0212013863DF0212013821E102123D
:1006D3000138CF6D00120138326E00120138776F86
:1006E30000120138876F00120138AA6F0012013817
:1006F300F56F001201389A700012013890710012E0
:1007030001385A7200120138D2730012013814747E
:1007130000120138B27400120138FF74001201385C
:10072300257500120138137700120138187700126B
:100733000138F978001201384D7900120138AF7988
:1007430000120138D779001201387B7A0012013880
:100753003D7B001201386E7B00120138717B001261
:100763000138B97B00120138FB7B00120138627C2F
:10077300001201382C7D001201383F7D0012013830
:10078300587D00120138A37D001201387E7E0012CD
:1007930001380D7F00120138587F00120138982567
:1007A30000120138A42500120138DD25001201389A
:1007B300222600120138D926001201385F270012C1
:1007C3000138C42700120138F02700120138292804
:1007D300001201383D2A00120138192C0012013889
:1007E300042E001201383B2F001201389B310012F6
:1007F3000138873200120138CD3300120138DA3460
:1008030000120138F734001201382F350012013875
:10081300493500120138B135001201384B3A001244
:100823000138EC3A001201383D3B00120138643BB9
:1008330000120138B23B00120138D03B00120138DC
:10084300243C00120138FD3C00120138843E0012A2
:1008530001380C3F00120138D7E202120138E1E2FD
:1008630002120138ACE302120138C7E30212013865
:10087300EDE30212013831E40212013869E4021295
:10088300013892E4021201380BE50212013820E527
:100893000212013835E5021201386CE50212013803
:1008A30080E502120138B1E502120138EBE50212CC
:1008B300013817E6021201386DE602120138C1E66B
:1008C300021201380AE70212013834E70212013832
:1008D30059E702120138008003120138CA8003125B
:1008E3000138AD8103120138238203120138658276
:1008F30003120138928303120138EF8C021201387C
:10090300188D02120138318D02120138768E0212CF
:100913000138548F02120138738F0212013800908C
:1009230002120138439002120138909102120138E9
:100933002F9202120138AE94021201384595021229
:100943000138199602120138FB9602120138679892
:1009530002120138FA9802120138C3FE011201385B
:100963002CFF0112013880FF01120138A7FF011289
:100973000138BDF0021201382AF10212013875F173
:10098300021201386AF20212013866F302120138C8
:1009930050F40212013820B00212013862B0021280
:1009A30001383CB10212013815B20212013810B3FA
:1009B30002120138EFB3021201385BB4021201389C
:1009C30022B5021201388DB502120138F4B50212B4
:1009D30001381FB60212013890B60212013823B74C
:1009E300021201388CB702120138A1B70212013882
:1009F300E9B70212013802B80212013867B80212CD
:100A030001386AB802120138E48E031201380C8FE0
:100A1300031201384A8F0312013808900312013878
:100A23007390031201388F9003120138B7900312A9
:100A33000138E79003120138F690031201387091E0
:100A43000312013896910312013816CA01120138B4
:100A5300F3CB01120138EECD01120138C1CE0112E0
:100A630001380CCF0112013857CF0112013869CF79
:100A730001120138A9CF01120138DECF011201386A
:100A83002AD00112013859D0011201387CD0011249
:100A93000138C9D00112013852D1011201385FD394
:100AA300011201384AD5011201388DD501120138DE
:100AB300F2D60112013833D701120138A6D7011239
:100AC3000138F2D7011201381DD80112013871998A
:100AD300021201389C990212013883A002120138D4
:100AE300A7A20212013862A402120138BFA50212A2
:100AF3000138733F001201380A40001201383740B1
:100B0300001201387D4000120138BC410012013847
:100B1300534300120138CD4300120138E843001259
:100B230001385D44001201388C4500120138E74654
:100B330000120138E9470012013846490012013812
:100B43005F4900120138BC49001201389E4A001265
:100B53000138D14A00120138414B00120138BB4B16
:100B6300001201380A4C00120138D64C0012013829
:100B7300DB4D00120138BA4E00120138454F001206
:100B83000138B34F0012013827500012013850507A
:100B9300001201380F510012013889520012013836
:100BA300A65200120138C5520012013856530012E2
:100BB30001387B5300120138A353001201381E542D
:100BC30000120138785400120138CC550012013854
:100BD3008956001201385C570012013847D80112B8
:100BE300013897D801120138A3D80112013880D9EE
:100BF30001120138B0D901120138E8D901120138C4
:100C030067DA011201389FDA01120138F1DA0112B1
:100C130001382EDB0112013853DD011201387FDF69
:100C2300011201387AE10112013855E3011201384A
:100C3300F0FF021201383E9901120138889901121E
:100C43000138679F01120138E8A00112013847A754
:100C53000112013842A8011201387FA8011201389C
:100C6300A2A801120138E4A801120138EDA801126B
:100C73000138F7A801120138E3A901120138D7AAF4
:100C8300011201388A57001201380262001201383A
:100C9300086200120138146900120138BD8703127B
:100CA3000138538803120138698803120138E38835
:100CB3000312013839890312013877890312013885
:100CC300D48903120138518A031201385A8A031254
:100CD3000138668A03120138798A03120138B58A0A
:100CE30003120138CB8A031201382A8B031201380D
:100CF30012F5021201381FF50212013839F50212FA
:100D0300013878F502120138B6F5021201381BF6E4
:100D13000212013830F6021201383BF60212013892
:100D230048F6021201385FF6021201386DF602121C
:100D3300013878F60212013884F60212013893F66C
:100D4300021201389EF602120138C1F6021201386E
:100D53006AF7021201387AF70212013894F7021285
:100D63000138B1F702120138CDF702120138F2F758
:100D730002120138FCF70212013810F8021201388E
:100D83002FF80212013890F80212013896F8021275
:100D930001389CF802120138A2F802120138AEF8A9
:100DA30002120138E1F8021201381BE60112013880
:100DB3009DE60112013846E7011201388EE801125F
:100DC30001389CEA0112013882EB01120138B7EBBA
:100DD30001120138D9EB0112013882EC01120138FA
:100DE30052EE011201387BEE01120138F3EE0112CB
:100DF300013825EF0112013832EF011201387DEF7E
:100E030001120138A1EF01120138F2F10112013888
:100E1300FCF20112013858F30112013898BB011298
:100E23000138A9BC011201388DBD0112013897BDEB
:100E330001120138B9BD01120138C5BD01120138D3
:100E430069BF0112013896BF01120138ACC001120B
:100E5300013801C10112013850C20112013825C302
:100E63000112013881C301120138ECC301120138A8
:100E730021C40112013864C4011201382EC70112C2
:100E8300013846C701120138D7C701120138E5C737
:100E93000112013832C80112013840C80112013869
:100EA300ACC80112013827C9011201387EC90112E9
:100EB3000138A5F301120138C7F301120138D8F53F
:100EC3000112013897F801120138C1F901120138F2
:100ED3007FFA011201386BFB01120138ED980312FE
:100EE3000138129903120138889903120138FAC89C
:100EF3000212013803C9021201380CC90212013867
:100F0300E4C90212013895CB02120138C5CB021293
:100F13000138F0CB0212013820CC021201384BCC3D
:100F2300021201387FCC02120138ABCC0212013815
:100F3300EECC0212013819CD0212013860CD021233
:100F43000138B5CD02120138F7CD0212013851CE66
:100F5300021201387CCE02120138CBCE02120138C4
:100F6300FBCE0212013826CF0212013854CF0212EF
:100F7300013877CF0212013885A603120138B1A6D2
:100F830003120138DEA603120138E8A60312013862
:100F9300F8A6031201388EB80212013898B802126B
:100FA3000138D9B80212013822B9021201385CB9EA
:100FB30002120138B2B902120138D3B90212013850
:100FC30082BC021201388BBC02120138DFBC021250
:100FD300013808BD0212013812BD0212013880BD6A
:100FE3000212013810BE021201386BBE0212013820
:100FF30099BE0212013821BF0212013860BF0212EA
:10100300013895BF02120138A7BF02120138C6BFCB
:1010130002120138CFBF0212013896C00212013802
:101023000AA203120138FC96031201383297031205
:101033000138669703120138B3980312013866A585
:10104300031201387CA50312013886A50312013867
:10105300D0A503120138827F0012013829EC021255
:1010630001383CEC02120138FDEC021201383CED70
:101073000212013859ED0212013892ED02120138C1
:10108300DFED0212013811EE0212013848EE0212AE
:10109300013851F002120138939F03120138B69FB1
:1010A30003120138E59F031201387DA003120138B2
:1010B300BFA003120138DE91031201380392031219
:1010C30001382D920312013802A7031201380C854F
:1010D30001120138EA8601120138898801120138A8
:1010E300348901120138B48901120138398A011295
:1010F3000138628A01120138B48A011201388F8ED5
:1011030001120138068F011201381D9001120138B6
:10111300579001120138989001120138DF910112A2
:1011230001383592011201387E9201120138ED9295
:10113300011201385993011201388A9301120138BF
:10114300A29301120138BB9401120138CB9401120E
:101153000138819601120138989601120138CA9616
:10116300011201386C9801120138009901120138FB
:10117300B5A403120138C6A40312013858A70312F9
:10118300013897A70312013822A80312013801A3DB
:101193000312013811A30312013826A303120138E5
:1011A300D8A30312013808A1031201388DA1031239
:1011B3000138F1A103120138599C03120138829CB2
:1011C30003120138E89C03120138089D0312013809
:1011D300599D03120138B49D03120138EE9D031289
:1011E3000138F19D031201385EF9021201388BF9BF
:1011F30002120138FDF90212013812FA0212013803
:1012030033FB02120138B6FB021201382FFC021223
:1012130001384EFC0212013871FC02120138AEFC97
:1012230002120138C6FC021201381CFD02120138F9
:10123300E17F00120138F17F00120138F47F0012C0
:101243000138F87F00120138C29403120138529614
:1012530003120138B39603120138F99603120138C9
:10126300FB9D031201384D9E03120138C09E0312E9
:1012730001382D9F0312013851FD021201387BFD05
:10128300021201384AFE0212013826FF0212013807
:10129300C4C00212013890C102120138D1C1021236
:1012A30001380BC20212013869C202120138BDC2F1
:1012B300021201381BC302120138B1C302120138F2
:1012C300B9C40212013843C602120138E1C6021240
:1012D300013848C7021201385BC7021201384FC8F0
:1012E3000212013898C80212013800800212013834
:1012F300328302120138C384021201381A850212A2
:101303000138378502120138B78502120138338755
:10131300021201380288021201386F8B021201385F
:10132300598C0212013823D70212013897D90212BD
:1013330001387CDA02120138A1DB0212013813DC16
:101343000212013894DC0212013832DD0212013834
:101353005A8B031201389F8B03120138BC8B031283
:101363000138728C03120138C58C03120138958D34
:1013730003120138AB8E03120138D7A703120138C9
:10138300A1A703120138D8FF0112013804A803E012
:1013930066701008A3E066700A08A3E0667004088C
:1013A300A3E06622C3E7960809E7960809E79608CB
:1013B30009E79622C3E09608A3E09608A3E09608FF
:1013C300A3E09622C008C3E096F50808A3E096427E
:1013D3000808A3E096420808A3E09645087001D3E5
:1013E300D00822080808EAC0E0EBC0E086F0E7A4D2
:1013F300FA180986F0E7A42AFA180986F0E7A42A5E
:10140300FA180986F0E7A42AFA1986F0E7A4FBE59F
:10141300F02AFA190886F0E7A42BFBE5F03AFA194B
:101423000886F0E7A42BFBE5F03AFA18180986F0D2
:10143300E7A4C5F02BFBE43AFA1908E7C5F0C6A404
:1014430026F6E5F03BFBE43AFA1886F0E7A4F6E566
:10145300F00826F6E43B08F6E43A08F6D0E0FBD0C1
:10146300E0FA22E4CFC0E0E4CEC0E0E4CDC0E0E4A3
:10147300CCC0E075F020C3E633F608E633F608E6A1
:1014830033F608E633F6181818EC33FCED33FDEEAB
:1014930033FEEF33FFC3EC9709ED9709EE9709EF9E
:1014A30097191919400FFFEC97FC09ED97FD09EE09
:1014B30097FE191906D5F0BEECF709EDF709EEF71B
:1014C30009EFF7191919D0E0FCD0E0FDD0E0FED008
:1014D300E0FF226016080808C6C313C618C613C661
:1014E30018C613C618C613C6D5E0EA227009080841
:1014F30008226016181818C6C333C608C633C608B0
:10150300C633C608C633C6D5E0EA22E627F608097D
:10151300E637F60809E637F60809E637F622E02645
:10152300F608A3E036F608A3E036F608A3E036F69D
:1015330022E026F008A3E036F008A3E036F008A383
:10154300E036F022C3E697F60809E697F60809E6BF
:1015530097F60809E697F622C3E096F008A3E0960B
:10156300F008A3E096F008A3E096F022E056F60810
:10157300A3E056F608A3E056F608A3E056F622E0E9
:1015830056F008A3E056F008A3E056F008A3E0568F
:10159300F022E0F608A3E0F608A3E0F608A3E0F6DD
:1015A30022E6F008A3E6F008A3E6F008A3E6F0229B
:1015B300E0FAA3E0FBA3E0FCA3E0FD22EAF0A3EB47
:1015C300F0A3ECF0A3EDF022CAC0E0E6F0A308DA42
:1015D300FAD0E0FA22CAC0E0E0A3C582CCC582C536
:1015E30083CDC583F0A3C582CCC582C583CDC58316
:1015F300DAE6D0E0CA22C3E498F8E499F912163A7D
:101603008026C3E49AFAE49BFBE920E7E912163A41
:10161300E498F8E499F922C3E498F8E499F91216E6
:101623003AE498F8E499F9C3E49AFAE49BFB22EBD1
:1016330020E7CFE920E7E0B90010BB0008E88AF013
:1016430084F8AAF022E4FBC8FA22EB70227B10C8CC
:1016530033C8C933C9335007C39AC3DBF280069A30
:1016630050012ADBEAC833F4C8C933F4C9FA227536
:10167300F008E4C833C8C933C933C99AC99B5004B5
:10168300C92AC93BD5F0ECFBC833F4C8E4C9FA2234
:10169300600D08C6A2E713C618C613C6D5E0F32229
:1016A300600C08C6C313C618C613C6D5E0F422706F
:1016B3000422600D18C6C333C608C633C6D5E0F48A
:1016C3001822251810AF08F518400215198008F5DF
:1016D3001840021519D2AF22C0D0251810AF08F553
:1016E30018500205198008F51850020519D2AFD019
:1016F300D0222518F58210AF08F51840021519807D
:1017030008F51840021519D2AF851983222518F55B
:1017130082E43519F58322E4732518C582C0E0E518
:101723001934FFC583C0E0E518C3958224F810AFD0
:10173300088583198582188008858319858218D2C4
:10174300AFCEF0A3E520F0A37808E608F0A3DEFA15
:10175300EFF0A3E58124FAF8E608F0A3E608F0A386
:10176300E608F0A30808E608F0A3E608F0A315814D
:101773001581D0E0FED0E0F8158115811581E8C010
:10178300E0EEC0E0222518C582C0E0E51934FFC5AC
:1017930083C0E0E518C3958224F910AF0885831947
:1017A3008582188008858319858218D2AFCEF0A36D
:1017B300E520F0A37808E608F0A3DEFAEFF0A3E54E
:1017C3008124FBF8E608F0A3E608F0A30808E6087E
:1017D300F0A3E608F0A315811581D0E0FED0E0F870
:1017E30015811581E8C0E0EEC0E0228519838518D4
:1017F30082E0A3FEE0A3F5207808E0A3F608DFFA71
:10180300E0A3FFE0A3C0E0E0A3C0E0E0A3C0E0E00A
:10181300A3C0E0E0A3C0E010AF0885821885831958
:101823008008858218858319D2AFD083D0820201C4
:1018330035851983851882E0A3FEE0A3F520780897
:10184300E0A3F608DFFAE0A3FFE0A3C0E0E0A3C053
:10185300E0E0A3C0E0E0A3C0E010AF0885821885F4
:1018630083198008858218858319D2AFD083D082EB
:1018730022C0D02518C582C0E0E51934FFC583C056
:10188300E0E518C3958224F310AF08858319858298
:10189300188008858319858218D2AFC8F0A3E9F0B0
:1018A300A3EAF0A3EBF0A37908E709F0A3D8FAECD5
:1018B300F0A3EDF0A3EEF0A3EFF0A3D0E0F0A3D0FC
:1018C300E0F0A3D0E0F0A3E520F0A3E5F0F0A3223D
:1018D300851983851882E0C0E0A3E0F9A3E0FAA3A9
:1018E300E0FBA37808E0F608A3DFFAE0FCA3E0FD41
:1018F300A3E0FEA3E0FFA3E0C0E0A3E0C0E0A3E019
:10190300F5D0A3E0F520A3E0A3F5F010AF0885839D
:10191300198582188008858319858218D2AFD082F1
:10192300D083D0E0F8D0E0327404800674028002E1
:101933007401C0E0F4041216F5D0E01215CB227442
:1019430004800474028000CCC0E0EDC0E0E518C35D
:101953009CCCAD1950011D10AF068C188D19800653
:101963008C188D19D2AF1215D8D0E0FDD0E0FC222F
:10197300D083D082E9C0E0E493A3C386F0C5F09599
:10198300F0F908E493A386F0C5F095F0700BE493A7
:10199300A3C3994005E9048002A3E475F002A425DA
:1019A30082F582E5F03583F583D0E0F9E493A3C0B3
:1019B300E0E493C0E022D083D082ECC0E0EDC0E04D
:1019C300E493A3FCE493A3FDED4C600D121A05EC24
:1019D30024FFFCED34FFFD80EFE493A3FCE493A329
:1019E300FDED4C600D121A44EC24FFFCED34FFFDB9
:1019F30080EFD0E0FDD0E0FCE493A3C0E0E493C02B
:101A0300E022C0E0C3E49396087401939618400F54
:101A1300E49366700808740193661870007019A344
:101A2300A3C3E49396087401939618A3A3400DD01F
:101A3300E0D0E0D0E00219F5A3A3A3A3A3A3D0E0D1
:101A430022C0E0C0F088F0E4936670080874019344
:101A530066187000A8F0A3A3700BD0F0D0E0D0E01C
:0C1A6300D0E00219F5A3A3D0F0D0E022DF
:101A700074F5121788EAFEEBFFEE2434F8EF340019
:101A8000F988088909EE2435F582EF3400F583E002
:101A9000F8EE2437F582EF3400F583E0F50AEC85A3
:101AA0000AF0A4FCAAF0850AF0EDA42AFDE82CF8BF
:101AB000E43DF97A257B0012163AEA850882850909
:101AC00083F05407F87401B800028004C333D8FCD3
:101AD000C0E0E0131313541FF8EE28F8EF3400F9B8
:101AE000E8245DF582E93400F583D0E0F8E0586041
:101AF00008EE2434F582EF801EEE2436F582EF34B2
:101B000000F583E0F5F0EA84A8F0EE28F8EF340061
:101B1000F9E82438F582E93400F583E0F97F04021E
:101B2000183474F5121788EAFEEBFFEE2434F582C0
:101B3000EF3400F583E0C0E0EE2435F582EF3400A9
:101B4000F583D0E0F08E828F83A3A3A3A3A3A3A3E6
:101B5000C082C0838E828F83A3A3A3A3A3E0F8A334
:101B6000E0F9D083D082E0C398F508A3E099F509A5
:101B7000EE2480F582EF3400F583E064017069EEB5
:101B80002481F582EF3400F583E0F8A3E0F98E823A
:101B90008F83A3A3A3A3A3A3A3E0FCA3E0FD8E8252
:101BA0008F83A3A3A3A3A3E0FAA3E0FBC3EA9CEB68
:101BB0009D5027C3EC98ED99402EC3EA98EB9950BD
:101BC000277CFD7D04EEFAEFFB120B8EEE2480F5F0
:101BD00082EF3400F583E4F0800EC3EA98EB99407D
:101BE000E0C3EC98ED9950D9EE2434F8EF3400F9C5
:101BF000E8FCE9FDEE2435F582EF3400F583E0F8EA
:101C0000EE2437F582EF3400F583E0F50AE5088528
:101C10000AF0A4F508AAF0850AF0E509A42AF50956
:101C2000E82508F8E43509F97A257B0012163AEA26
:101C30008C828D83F05407F87401B800028004C3CD
:101C400033D8FCC0E0E0131313541FF8EE28F8EF6C
:101C50003400F9E8245DF582E93400F583D0E0F83A
:101C6000E0586008EE2434F582EF801EEE2436F54D
:101C700082EF3400F583E0F5F0EA84A8F0EE28F86E
:101C8000EF3400F9E82438F582E93400F583E0F90F
:101C900012251D021B1DC082C083851882851983F1
:101CA000E0F8A3E0F9C3EA9CEB9D5012C3EC98ED79
:101CB000994019C3EA98EB99501279018010C3EA50
:101CC00098EB9940F5C3EC98ED9950EE7900D083EC
:101CD000D08222EAC39CFAEB9DFB220085218785F6
:101CE00022C622C0E0C0D0E8C0E0E9C0E0EAC0E01F
:101CF000EBC0E0ECC0E0EDC0E0C008C009C00AC025
:101D00000BC082C083C0F0759B00906182E0A2E6A8
:101D10004003021DC1E591A2E64003021DC1759179
:101D2000BF9003C2E064057008120CC6120CD2808A
:101D300003120CCC752100120D2CE99003C3F0792D
:101D400000120D20120B047A017B009003C1E0F910
:101D5000120FF6907803E064426003021E0A9005B9
:101D60005FE014F06003021E0AC2AF121D6E00781D
:101D70002AD0E0F618D0E0F6E59F5407F9700590F8
:101D8000847780039084737808121595E9C4C0E0C5
:101D90007829E65508F50808E65509F509740B7821
:101DA000081216A3D0E02508F8906270E0A2E74080
:101DB000F8E8C333906272F0906270E0D2E0F08095
:101DC00049E0A2E55024E591A2E5501E7591DF900F
:101DD00003C2E0640D70139003E4E004F064287023
:101DE00002E4F07A00E0F9120D9E906181E0A2E336
:101DF0005009E5E9A2E3500375E9F7A3E0A2E75033
:101E000009E591A2E7500375917FD0F0D083D0828D
:101E1000D00BD00AD009D008D0E0FDD0E0FCD0E053
:101E2000FBD0E0FAD0E0F9D0E0F8D0D0D0E032C07A
:101E3000E0C0D0C082C083906183E0A2E05009E599
:101E4000BFA2E0500375BFFEE0A2E15009E5BFA2CA
:101E5000E1500375BFFDE0A2E25009E5BFA2E250E8
:101E60000375BFFBE0A2E35009E5BFA2E350037591
:101E7000BFF7E0A2E45009E5BFA2E4500375BFEF4D
:101E8000E0A2E55009E5BFA2E5500375BFDFE0A27F
:101E9000E65009E5BFA2E6500375BFBFD083D082EC
:101EA0008088C0E0C0D0E8C0E0E9C0E0EAC0E0EB74
:101EB000C0E0ECC0E0EDC0E0C0F0E5A7A2E6500F46
:101EC000E5A1A2E6500953A7BF75A1BF121F07E500
:101ED000A7A2E5500CE5A1A2E5500653A7DF75A126
:101EE000DFE5A7A2E15009E5A1A2E1500375A1FD3C
:101EF000E5A7A2E2500CE5A1A2E2500653A7FB75AC
:101F0000A1FBD0F0021E1874F812178875210190F9
:101F100003C2E064067015120C5A8A828B83A3A355
:101F2000A3A3A3A3E0FAA3E0FB120CB4A2AFE43393
:101F3000FED2AF9003C8E0640170187A207B009055
:101F400003C1E0F91210807A207B009003C1E0F910
:101F5000120FFC906182E0D2E6F090055EE0602115
:101F600085C62280169003C7E064017008E5C65458
:101F7000F84405F5C653BEFC121CDC7401652160F3
:101F8000E4EEA2E092AF7F01021834008E238F248A
:101F9000858228858327851882851983E0CEA3E072
:101FA000CF852882852783EBC9EAC8EDCBECCA75BB
:101FB000F010C3E833C8E933C9EA33CAEB33CBC303
:101FC000EA9EF526EB9FF525B35004AB25AA26EC37
:101FD00033CCED33CDD5F0DAAE23AF242274EB123F
:101FE000178874FA1216C58A088B098C148D1590FF
:101FF00003C2E024F7C3940550069084AF02213F4A
:10200000120C5A8A0A8B0BAE0AAF0BEE4F7003020A
:10201000213CAC08AD09851882851983AA82AB835F
:10202000120CE48E828F83A3A378081215959084F6
:102030002F780812156F851882851983780C121570
:102040009590842F780C12156F7808790C1213A7CD
:10205000501F7808790C12154790844F7808121396
:10206000C74047850810850911850A12850B138022
:1020700041850C10850D11850E12850F137810798E
:102080000812154790844F78101213C7501C751012
:10209000007511007512007513017810790C121576
:1020A000477810790812150E80089084AF781012C6
:1020B0001595740978101214EF9084B378081215EE
:1020C00095781079081214668E828F83A3A3A3A338
:1020D000A3A3E0F8A3E0F97AD07B0312163A8808AC
:1020E0008909E4F50AF50B7810790812150E7404C5
:1020F000121710E0F8A3E0F97AD07B0312163AE841
:10210000FA8A08E4F509781079081213A7500778BD
:102110001079081215479003C2E06408600AE06471
:10212000066005E06405701C90844B78101213C79C
:1021300050129084477810121521800890842378DB
:102140001012159585148285158378101215A474C4
:10215000061216DB7F0E02183474F7121788120C61
:10216000F690055CE064017010906245E4F0A3F025
:1021700053F4F343FE0C5390F3120CA2E5C65480C3
:102180004449F5C6E59E547F644970F890618574B2
:102190000FF090055AE0F47002A3E0604E90055BEA
:1021A000E0600814601B14602E80407508017509FA
:1021B0000090055AE078081216B2E508F4528080C3
:1021C0002A75080175090090055AE078081216B2C0
:1021D000E508F45290801475080175090090055ABD
:1021E000E078081216B2E508F452A079007F0202E6
:1021F000183474F7121788E9FEEAFF74016E700C48
:102200007A807B009003C1E0F9120FF6902590E4EC
:1022100093F46008E493F9120AF8800953C680E544
:102220009E547F70FA120CA890055CE06401700364
:10223000120B1090055AE0F47002A3E0604B900579
:102240005BE0600814601A14602C803D750801750D
:10225000090090055AE078081216B2E5084280801D
:102260002875080175090090055AE078081216B221
:10227000E5084290801375080175090090055AE041
:1022800078081216B2E50842A0120CF6120C5A8A0F
:10229000088B09A808A909E8496015E5E170FCE880
:1022A0002414F582E93400F583E0F46003E0F5E1FD
:1022B00074016F700A7A019003C1E0F912104A02AA
:1022C00021ED74F11217888A088B098C0A8D0B7422
:1022D0000F121710780C12159590842F780812158C
:1022E0006F90842F780C12156F7808790C1213A751
:1022F00050157808790C12154790844F78081213FE
:10230000C7401579018013780C790812154790841D
:102310004F780C1213C740EB79007F080218347411
:10232000ED1217888A088B098C0A8D0B741312170B
:1023300010780C12159590842F780812156F9084E0
:102340002F780C12156F780C79081213A7401178AA
:1023500008790C121547AA08AB09AC0AAD0B80220C
:102360007510007511007512007513017810790C45
:102370001215477810790812150EAA10AB11AC127D
:10238000AD137F0C02183490842F78081215958AAB
:10239000828B8378081215827F0402183474F51238
:1023A00017888C828D8378081215958A828B8378A2
:1023B0000812155BEA2404F8EB3400F98C828D8353
:1023C000A3A3A3A3E0FCA3E0FD88828983C3E09CD0
:1023D000F0A3E09DF088828983C3E09420A3E09479
:1023E0004E402290847F78081215958A828B8378DC
:1023F000081215348A828B83A3A3A3A3E02420F0C0
:10240000A3E0344EF0808074F5121788E9FE900541
:1024100014E0FAA3E0FBEEC333F8E433F974F628D2
:10242000F582748239F583E02AF508A3E03BF509CB
:10243000780812192F90847B1215B3121F8C740226
:102440001216DB8A088B098C0A8D0B74107808121F
:1024500014D6AA08AB097F0402183474F112178845
:102460008A0C8B0D8C0E8D0F740F121710E0FAA3CF
:10247000E0FB7411121710E0F508A3E0F5097413DE
:10248000121710E0FEA3E0FF780812192FEA2401CA
:10249000F508EB3400F509E4F50AF50B780C79083A
:1024A0001213E690843F7808121595780C7908127B
:1024B00013E6AA0CAB0DAC0EAD0F121F8C740212FA
:1024C00016DB8B09EA450960047A0180027A00EC88
:1024D0002AFCED3400FDECF8EDF97A717B0212165E
:1024E0003A88088909E4F50AF50B8E828F8378080B
:1024F0001215A4ECF8EDF97A717B0212163A8A08EB
:102500008B09740578081216B28E828F83A3A3A359
:10251000A3E508F0A3E509F07F08021834C082C0E3
:1025200083E9906000F0D083D08222C0E074F21280
:102530001874A2AFE433FED2AFE589A2E1500312D2
:1025400011D6758900C2C5751A00EEA2E092AF7F60
:10255000010218D3C0E074F2121874A2AFE433FE83
:10256000D2AFE58BA2E050031211D6758B00C2E802
:1025700080D5C0E0C0D0E8C0E0E5A8D2AFC2C77542
:0E2580001A00A2E792AFD0E0F8D0D0D0E0323F
:10259000FFFFFFFFFFFFFFFFC082C083E9900A0734
:1025A000F002281C74F712171CE99002E0F07C1866
:1025B0007D037AFF7BFF12082E9002E174FFF0A3E7
:1025C000F0A3E4F0A3F079051207B69002E0E0F979
:1025D0001206DE7A4C7B08120A0E02352A74F412B7
:1025E000171C8A088B09EB548060309002E0E0F9F8
:1025F000120FDE8A0A8B0BAE0AAF0BEE4F60138E02
:10260000828F83E064B070031207CEEEFAEFFB1204
:102610000FCCAA08E5096480FB80047A007B0002E5
:1026200027EB74F212171C74FC1216C5EAFEEBFFBE
:102630007412121710123A11EE4F70030226C5746D
:1026400002121710EEF0A3EF122A26ECF0A3ED12FF
:102650002A26AA82AB831206D8E9F50A706AE50831
:10266000450960648E828F831239F7EE4F60567A87
:10267000067B001210328A0C8B0DA80CA90DE849BC
:102680007005750A13804188828983E41226D2EE90
:10269000F0A3EF123A22E508F0A3E509F09002E674
:1026A0001227599002E670051234D4801B1234C2EE
:1026B0008003EAFCEBFD8C828D8312275970F38C2A
:1026C000828D8380E3750A02A90A74041216DB0264
:1026D0003C11F0A31239C8A32274F212171C890A04
:1026E000E975F017A4FEAFF09002E5E4F09002E384
:1026F000122759600A1210389002E3E4F0A3F0EEBA
:10270000FAEFFB1210328A088B09EA4509602FEEB6
:10271000FCEFFD7900120FB49002E3E508F0A3E5A9
:1027200009F07B008008122743E4F0A3F00BEBC311
:10273000950A40F2E50A9002E5F0790080027913EB
:10274000023C11EB75F017A4F8A9F09002E3E02821
:10275000FAA3E0398A82F58322123166EA4B2274A9
:10276000F412171C740C1217101239ECFEE9FF75E5
:102770000800750900800CE5082401F508E5093416
:1027800000F509C3E5089CE5099D503285080A85D6
:10279000090B7403780A1216B2EA250AF8EB350B16
:1027A000F988828983A3A3A3A3A3A31235A9EE6505
:1027B0000A7003EF650B70BFE8FAE9FB80047A004A
:1027C0007B00802774F412171C7900EAA2E0501BEA
:1027D0007508EA750983780812192F7C047D007A40
:1027E000097B0A1207B074021216DB7F040217EE8F
:1027F000C082C0839002E6122823601C88828983ED
:10280000A3A3E06A7003A3E06B8882898370E8A3C6
:10281000A3A3A312316280047A007B00D083D0820C
:10282000020135123CF7E8492274EE12171C74FCC1
:102830001216C5EAFEEBFF851882851983E4F0A322
:10284000F0EE24021234B4EE24051239CFEE240443
:10285000F50EEF122DDBE024FE603924FC604624E7
:10286000FE605224FE605E24FE700302293C24FEBA
:1028700070030229A024FE70030229AF24FE700316
:102880000229BE24FC70030229CD24FE7003022914
:10289000DC022A199002FF7417F0A3E4122A2E1208
:1028A0000456022A19851882851983AC82AD8312D9
:1028B00007D40229E9851882851983AC82AD831279
:1028C00007DA0229E9850C08850D09740212171030
:1028D000AC82AD838508828509831231621206FCC1
:1028E0008A0C8B0DAC0CAD0DEC4D603BE4F50CF59A
:1028F0000D780C12192F750CFF750D02780C12193A
:102900002F750C00750D03780C12192F740812170F
:1029100010121946123E731216DBE9F50C700B12F9
:10292000315812046E800F750C0185088285098369
:10293000122A1C1234D4850C080229EC74021217D6
:1029400010AC82AD83850C82850D83122F2D603CE7
:10295000850C82850D83A3A31219467510FF75118E
:1029600002781012192F75100075110378101219C2
:102970002F7408121710121946123E731216DBE953
:10298000F509700B123158120474800F7509018516
:102990000C82850D83122A1C1234D4850908804CC0
:1029A000851882851983AC82AD831207E0803A8551
:1029B0001882851983AC82AD831207E6802B8518B7
:1029C00082851983AC82AD831207EC801C85188246
:1029D000851983AC82AD831207F2800D851882853C
:1029E0001983AC82AD831207F8E9F508E508602980
:1029F0008E828F83A3E06414601F850E82850F830F
:102A0000E09002FF122A26123CF39003001234D405
:102A1000E508A3122A2E1204500233C3123CF78594
:102A2000188285198322F085188285198322F07C0B
:102A3000FF7D02850A82850B831231662274EE12B5
:102A4000171C74FC1216C58A0A8B0B8C0E8D0FEAAC
:102A50002405F508EB3400F5097C157D0079007A32
:102A6000FF7B02120FB4E5082402F50CE5091239C8
:102A7000D28518828519838582108583117810127A
:102A8000192F850882850983A3A3A3A3122F2412DB
:102A9000192FE5082405F510E5093400F511781023
:102AA00012192F850C82850D831232791206F67465
:102AB000061216DB8A108B11AE10AF11E50A240244
:102AC000F50AE50B1234B7EE4F7003022BFB8017AB
:102AD000740212171012316288828983EAF0A3EB24
:102AE000F09002FFE004F09002FFE0C39405400381
:102AF000022BFBE4F510F511781012192F7510E870
:102B0000751102781012192F7510E97511027810DD
:102B100012192F74061217101219467910EEFCEFD5
:102B2000FD123E751216DBE9705E85088285098309
:102B3000A3A3A3A3A3A3A3E0F89002E8E0687048CE
:102B4000122F2412192F7CE97D02E5082408FAE5EA
:102B5000093400FB120FAE74021216DBE960298EF5
:102B6000828F83A3A3A3A31231629002FFE0F5102A
:102B7000740278101216B274002510F582740335B1
:102B800011F583EAF0A3EBF074021217108582109E
:102B9000858311781012192F74021217101219461A
:102BA000850C82850D831231881216DB8A108B11F9
:102BB000AE10AF119002FFE0F510751100740278AD
:102BC000101216B274FF2510F874023511F98882BC
:102BD0008983A31227597003022AC7E8240308082F
:102BE00008E93400F9EE4F6003022AD08882898315
:102BF00074FFF0A3F09002FFE004F09002FFE060A9
:102C00000A1231581204627900800B850882850906
:102C1000831234CB790A0233C374EA12171C74FE90
:102C20001216C58C128D13EA2405F50CEB123E5DCD
:102C30001239FB750800750900EA2402F510EB341F
:102C400000F51185188285198385820A85830B78A2
:102C50000A12192F850C82850D83A3A3A3A3122D1D
:102C6000F112192FE50C2405F50AE50D1234B77899
:102C70000A12192F850C82850D83122DF51206F686
:102C800074061216DB8A0A8B0BEA450B7003022DC1
:102C900096EA2404F50EEB122DDB1239FB8A828BA7
:102CA00083A3A3A3E0F985108285118312316C60A0
:102CB00003022D96E4F514F515781412192F7514E6
:102CC000E8751502781412192F7514E97515027834
:102CD0001412192F74061217101219467913AC0A20
:102CE000AD0B851082851183123E7B1216DBE9F550
:102CF000096003022D969002E8E0F8E5087009E00B
:102D00002402900300F08014900300E0FCE8240209
:102D1000FAE43400FBEA6C7001EB707E850882AA4D
:102D200082122F1B9414122F13506B850E82850F65
:102D300083E0C0E074012A122DD2D0E0F0050885AE
:102D40000E82850F83A3E0C0E085080A7401250A7E
:102D5000122DD2D0E0F005089002E8122DF11219E0
:102D60002F7CE97D0285080A7401250A122DE512DF
:102D700016DB9002E8E02508F50874FF6E70037416
:102D8000FF6F6012EE24010EEF3400FFE508C394DC
:102D9000145003022C43E50860131231768510822B
:102DA00085118312316212046879008014E509707C
:102DB0000375090A851282851383EEF0A3EFF0A94B
:102DC0000974021216DB7F0E0217EE85080C7401DF
:102DD000250CF58274033400F583223400F50F8549
:102DE0000E82F58322FA74033400FB120F9C7402E6
:102DF00022123A3122A3A3122DFB221234C2FDEE7D
:102E0000FAEFFB2274EE12171C74FE1216C58C0E1C
:102E10008D0FEA2405F50CEB1239D2750B009002E8
:102E2000FFE4F0F50AEA2402F508EB3400F5098026
:102E3000449002FFE0FA9002E8E0F8122F1B94178A
:102E4000122F13400D9002FFE0F87416C398900201
:102E5000E8F0122F2412192F7CE97D0274002AFA5F
:102E60007403122DE81216DB9002E8E0F89002FFDE
:102E7000E028F0050AE50C2416F582E50D122DD6A2
:102E8000E0F8E50AC39850749002FFE0C39416502E
:102E90006BE50AC333F8E433F9E50C28FEE50D3998
:102EA000FF851882851983AC82AD838E828F831251
:102EB0002F2D7008750B011234C78050E4F510F502
:102EC00011781012192F7510E87511027810121967
:102ED0002F7510E9751102781012192F7406121748
:102EE000101219467916850882850983123E7B12D5
:102EF00016DBE9F50B7003022E3180BB7CFF7D02EF
:102F000085088285098312316212047AA90B740242
:102F10000233C5E99400C365D03322EA28F8E434CB
:102F200000F9E822E0F5107511007810221233BA8A
:102F30008A108B11AC10AD11EC4D2274EA12171CE3
:102F400074FC1216C58A0C8B0D8C128D13EA2405A5
:102F5000F50AEB1234B7750800750900E50A24027A
:102F6000F510E50B3400F511740212171085820E6E
:102F700085830F780E12192F850A82850B83A3A3F0
:102F8000A3A31239D712192FE50A2405F50EE50B74
:102F90003400F50F780E12192F85108285118312D7
:102FA00034BD12315C1206F674061216DB8A0E8BE3
:102FB0000FAE0EAF0FE50C2402F50EE50D3400F553
:102FC0000F80388882898374FFF00508122DCB7436
:102FD000FFF005089002E8E0F50C750D00780C1282
:102FE000192F7CE97D0285080C7401250C122DE552
:102FF0001216DB9002E8E02508F508EE4F60278EF8
:10300000828F83A3A3A3E0F9850E82850F831231FB
:103010006CEE24041239CFE96027850C82850D837C
:1030200012314E1234D4E508700302313412317675
:10303000850E82850F83123162120480790002317D
:1030400049E4F514F515781412192F7514E875155F
:1030500002781412192F7514E975150278141219D3
:103060002F74081217101219467911EEFCEFFD8526
:103070000E82850F83123E7B1216DBE9F509709AEA
:10308000850882AA82EA9002E87009E0240490038D
:1030900000F08025E0F8900300E0F514E82404FC3B
:1030A000E43400FDEC65147001ED7081122F1B9467
:1030B00012122F13400302302D850C82850D83E000
:1030C000C0E074012A122DD2D0E0F00508850C82F0
:1030D000850D83A3E0C0E0122DCBD0E012319185A5
:1030E000820C85830D780C12192F7404121710129C
:1030F00019468510828511831231881216DB8A0CDD
:103100008B0DAE0CAF0D85080C7401250CF8740303
:103110003400F9EE4F7003022FC38518828519839E
:10312000E088828983123191A3E0C0E0122DCBD0D8
:10313000E0022FD1E509700375090A850A82850B23
:103140008312314E1234D4A9097404022DC3123CE7
:10315000F7851282851383227CFF7D02850A828592
:103160000B8312316622E0FAA3E0FB2212316612D1
:1031700006E4E9F50922900300E0F5F0E508849003
:1031800002FFF07CFF7D0222122DFB120702740465
:1031900022F005088518828519832274EC12171C09
:1031A00074FE1216C58A088B098C0E8D0FEA240551
:1031B000FEEB3400FF1233A4EE24181239CFEA4597
:1031C0000B700302324712338D502912326C8A1071
:1031D0008B11EA4511606B7912AC0AAD0B85088240
:1031E00085098312316285108285118312171AE9CD
:1031F000F50A7058E4F50AF50B780A12192F8E8239
:103200008F83A3A3E0F50A780A12192FEE24031284
:1032100034B4780A12192F8E828F831232791208F1
:103220001C74061216DBE9F50A7021850C82850DE7
:1032300083E0701F8508828509831231621204863B
:103240008011750A0E8009750A018004E50A600381
:103250001234C7850C82850D83E0600479008002FA
:10326000A90A74021216DB7F0C0217EE85188285FC
:10327000198312316612080A221234C2FD850882AF
:103280008509831231662274EE12171C74FE121621
:10329000C58A088B098C0C8D0DEA2405FEEB3400E1
:1032A000FF750E001233A4EA450B700302336B1254
:1032B000338D502C12326C8A0E8B0FEA450F604A08
:1032C0007912AC0AAD0B85088285098312316285BB
:1032D0000E82850F8312171AE9F50E600302336E12
:1032E0008508828509831235A9AA0AFB12337F70EB
:1032F000147AFF7BFF12337F606C88828983E50A32
:10330000F0A3E50BF0750A008007750E0E805F05CF
:103310000A9002E5E0FAE50AC39A504AE50A75F018
:1033200017A4FAABF088828983A3A3E02AFAA3E06A
:103330003BFB8A828B831234BDEC4D70D2750A1729
:10334000750B00780A12192FEEFCEFFD120F9C741A
:10335000021216DBEEFCEFFD85088285098312312F
:103360006212048C8014750E098003750E01123CE4
:10337000EF850C82850D831234D4A90E022F0E1214
:1033800007FE8A108B11A810A911E84922E508242C
:1033900002F508E5093400F5098A828B83A3A3A30B
:1033A000E0A2E522851882851983AC82AD838E82E6
:1033B0008F831233BA8A0A8B0B22E0FAA3E0FB1246
:1033C00006FC2274041216DB7F0A0217EE74EC125C
:1033D000171C8C108D11EA2405F50CEB1239D275EF
:1033E0000F00EA2402F50AEB1234B7850A82F5834E
:1033F000123162123F0170030234A9750E00807110
:10340000850C82850D83E06401704F8E828F83A3CB
:10341000A31219468E828F83A3A3A3A3E0F512758E
:103420001300781212192FEE2405F512EF3400F56F
:1034300013781212192F12315C12081C740612161E
:10344000DBE9F50F6014850C82850D83E4F0123CF6
:10345000EF8510828511831234D47C177D007900AA
:10346000EEFAEFFB120FB48E828F83E4F0A3F00527
:103470000E9002E5E0F8E50EC398501EE50E75F0DB
:1034800017A4F8A9F0850882850983A3A3123E67D3
:103490001234BDEC4D600302340085088285098337
:1034A00074FFF0A3F0E50F700612315C120492A9CC
:1034B0000F023267F50AEF3400F50B22A31234C273
:1034C000FD22E0FCA3E0228E828F83123CF7850E62
:1034D00082850F83E8F0A3E9F022C082C0839002C6
:1034E000E1E06A7003A3E06B70067AE17B0280047E
:1034F0007A007B0002281C74F712171C7F00EF75FE
:10350000F003A4F8A9F0EC28F8ED39F98882898352
:10351000E06A7003A3E06B7006E8FAE9FB800B0F2A
:10352000EFC3940240D87A007B007F010217EE744B
:10353000F612171C123AE070067A007B008007A38F
:10354000A3A3A3123162023BA174F212171CE9FE7D
:10355000740E1217101235A97410121710123A11A6
:103560008C828D83E06402703BA3123CF3888289D5
:1035700083E0F50CA3E0F9A80C74026870037429C9
:10358000697021750C02750D00780C12192F7808DE
:1035900012192F780A12192FEEF912084074061228
:1035A00016DB80027901023C11E0F50AA3E0F50B7D
:1035B0002274E812171C74FB1216C5E9851882855F
:1035C0001983F08A168B178C0E8D0F741F1217102B
:1035D000123A1174211217101235A9742312171000
:1035E0001239FB7510008C828D83A3A3A3E0A2E4A3
:1035F000502A741D1217101232728A828B83E58250
:10360000458370030236BD790AAC0EAD0FAA16AB26
:103610001712171AE9F51060030236C0850E82856D
:103620000F83E064026003023976A3123CF385083D
:1036300082850983A3858212858313E50E2406F50E
:103640000CE50F1239D288828983E0FAA3E0F9EA07
:103650002400F514E439F51578141219B9010000A5
:103660002801288536070002285C370328CC36005D
:103670002986380129AE38022955380329863804AD
:103680002917397639EE4F703E850C82850D8312ED
:1036900039ECFAE9FB8A828B83E0850A82850B8309
:1036A000123A2812192F8A828B83A31234C2FDAAE0
:1036B00008AB09120F9C74021216DB800375100E02
:1036C000A9107405023E5575100B80F4EE4F70F78B
:1036D000850A82850B837401F0123A018508828580
:1036E0000983F07C007D00850E82850F83A3A3A350
:1036F000A3E02401FAA3E03400FB1206FCEA4B60CD
:10370000418A828B83E02402F8850A82850B83E05C
:1037100028F0EA2404F8EB3400F988828983E085F4
:103720001282851383123A3A123A2812192F8A828A
:103730008B831234BCE5082403FAE5093400FB024C
:1037400036B3850A82850B83E02404F07C047D0077
:103750007900AA12AB13120FB40236C0EE4F600309
:103760000236C7123A01FEA3E0FF850A82850B8369
:103770007404F0EE850882850983F0EF8512828556
:103780001383F07403121710AC82AD83EEFAEFFBD3
:10379000123ACE70030238328A828B83A3A3123985
:1037A000F7740112171085820E85830F780E121997
:1037B0002F74051217101219467CFF7DFF120702A5
:1037C00074041216DB8B0FEA450F7033850C82856B
:1037D0000D831239D712192F850C82850D83A31200
:1037E00019467C027D007AD67B8412052E74041261
:1037F00016DBE9700A740112171074FFF0A3F08E43
:10380000828F83E064027034750C02750D00780CB1
:1038100012192F8E828F831234BCE5082404FAE536
:1038200009122DE81216DB850A82850B83E024023B
:1038300080097401121710EEF0A3EFF07401121753
:10384000101239E8F07401121710A31239E0A3A383
:10385000A3F00236C0EE4F60030236C7850C8285A6
:103860000D831234BDAA16AB17120834850A82855F
:103870000B837402F0EA850882850983F085128241
:10388000851383EB80CBEE4F60030236C7123A01FB
:10389000F8A3E0F9850A82850B837402F0E88508B5
:1038A00082850983F0E985128285138380A3850CC4
:1038B00082850D83123162120F96EAFC8C82A882F7
:1038C000C39EE49F404BE86E7001EF70047C008063
:1038D0001F851882851983E0FAEE2AFAEF3400FB7F
:1038E000C3EA98EB94005003E08004EECCC39CFC48
:1038F000EC850A82850B83F08C0A750B00780A121E
:10390000192F850C82850D83E02EFCA3E03F023643
:10391000AE7510070236C0EE4F60030236C7850C45
:1039200082850D83123CF3850A82850B837407F030
:10393000888289831239E01239C8E08512828513A2
:1039400083F0E82402FAE93400FB8A828B8312397F
:10395000E0123A191239E8A3123A221239F1F0E8CA
:103960002405F8E93400F9888289831239F1A31219
:103970003A3AA302384E741D121710123AD9700346
:103980000236BD123CF3880C890DE8450D70030228
:1039900036BD8E108F11781012192F780A12192F38
:1039A000780812192F7406121710E0F9AC0EAD0F3B
:1039B000AA16AB17850C82850D8312171A7406128E
:1039C00016DBE9F5100236C0F088828983A322F560
:1039D0000CEF3400F50D22E0F50E750F00780E2285
:1039E000E085088285098322123A4122123CF7E8D9
:1039F00022123A41A3A322A3A3A3A3E0FEA3E0FFC4
:103A000022850C82850D83E0F8A3E0F5838882E0AF
:103A100022E0F508A3E0F50922A3A3F08A828B83B4
:103A2000A3221226D4A3A322F08A828B83123A31D6
:103A300022E0F50A750B00780A221239C8123A41C1
:103A400022E0850882850983A3A32274EE12171C45
:103A500074FE1216C58A0A8B0BECFAEDFB74141275
:103A60001710E0F510A3E0F5117416121710E0FE20
:103A70007418121710E0F50EA3E0F50F8518828573
:103A80001983AC82AD83123ACE603E8518828519C7
:103A900083123AD9602FA3A3123A11E508450960B1
:103AA00024780E12192F781012192FEEF9AC0CADE4
:103AB0000DAA0AAB0B85088285098312171A7404B4
:103AC0001216DB8006790E80027901022F0E120693
:103AD000FC8A0C8B0DEA450D22123166123AE02267
:103AE0001207C88A828B83E58245832274F61217F7
:103AF0001C74FE1216C5740C1217101239EC8518BE
:103B000082851983F07401121710E9F0E4F508F5C5
:103B100009780812192F750802780812192F7404F1
:103B2000121710858208858309780812192F120848
:103B30001C74061216DB74021216DB806474F71212
:103B4000171CEAFEEBFF89087C187D03120834EA93
:103B50005402600BA908EEFAEFFB1206F08002791E
:103B60000102352A74F612171C74FF6A700374FF81
:103B70006B701C7B00EB75F003A4F8A9F0EC28F83F
:103B8000ED39F9123BA60BEBC39402501480E612F8
:103B900008048A088B09A808A909E8496003123BB0
:103BA000A67F020217EE8882898374FF1226D2E470
:103BB000F02274F612171C1208048A828B83E582A5
:103BC00045836006A3A3E0FA80027A007B0080D1DF
:103BD00074F212171C8A088B09ECFEEDFF740E12AA
:103BE0001710E0F50A123C16701CEEFCEFFD7AFF90
:103BF0007BFF123C1670047911801688828983E558
:103C000008F0A3E509F088828983A3A3E50AF07987
:103C1000007F060217EE1208048A0C8B0DA80CA96F
:103C20000DE8492274EE12171CEAFEEBFF8C088D9A
:103C300009890C7412121710123CF3741412171025
:103C40001234BD7416121710123162750D00EC4D4E
:103C50006003023CE77402650C6003023CE2888268
:103C600089831234C2F9EC2400F50EE439F50FEA29
:103C7000F4F8EBF4F9EC58F8E50F59F9E849705D00
:103C8000E5082406F8E5093400F9880A890B8882DA
:103C9000F583122DF71208348A108B11E50E65108A
:103CA0007004E50F65116042780E12192F850A82A3
:103CB000850B83122DF712083A74021216DBE9F510
:103CC0000D7027780E12192F850882850983A3A30A
:103CD000122DF512085274021216DB800D750D803C
:103CE0008008750D0D8003750D0BA90D0233C88E6C
:103CF000828F83123CF722E0F8A3E0F92274E812E5
:103D0000171C74E71216C5851882851983EAF0A37B
:103D1000EBF08C168D17890E7431121710E0F51226
:103D2000A3E0F5137433121710E0F514A3E0F515B2
:103D30007435121710E0F50F750800750900E509D4
:103D400075F003A4F8A9F0851882851983123E67DF
:103D5000E0F47003A3E0F47003023E45EE2402F5A4
:103D60000CEF123E5DE07003023E4585160A851792
:103D70000B780A12192FAC14AD15AA12AB13120747
:103D8000BC74021216DB8A0A8B0BEA450B70030225
:103D90003E45E4F510F511781012192F740612172C
:103DA00010858210858311781012192F740912174B
:103DB00010858210858311781012192F8512828543
:103DC0001383A3A3A3A31219467914AC0AAD0B8ED7
:103DD000828F83123E7B1216DBE97069850A828529
:103DE0000B83A3A3A3A3123CF37402121710123483
:103DF000D4850C82850D83E0A2E05018A90E7402D0
:103E0000121710AC82AD838E828F8312316212073B
:103E100014E94208850C82850D83E0A2E15026E575
:103E20000FF50A780A121933A90E7403121710AC91
:103E300082AD838E828F8312316212070E7401125B
:103E400016DBE942080509E509C394025003023D67
:103E50003EA90874191216DB7F100217EE3400F524
:103E60000D850C82F58322E028FEA3E039FF8E82C7
:103E70008F83227916850A82850B83123166120898
:103E80001674082274F212171CEAFEEBFF890B74F9
:103E900001650B600E7402650B70637901120A2CC8
:103EA000E9705BEEFAEFFB123F016047750A008094
:103EB0000B7C177D007900120FB4050A9002E5E033
:103EC000F8E50AC3985021E50A75F017A4F8A9F09F
:103ED000850882850983A3A3E028FAA3E039FB8A39
:103EE000828B8312282370C985088285098374FF19
:103EF000F0A3F07C187D03EEFAEFFB12082E023CD3
:103F0000111207FE8A088B09EA45092274F212177A
:103F10001C8A088B09ECFEEDFF740E121710123587
:103F2000A9900A07E0F4603D7A097B00120FC6EA07
:103F30004B60328A828B8374B1F0A3E4123A1BA3E4
:103F4000123A19A3E508F0A3E509123F68EEF0A3C1
:103F5000EF123F68A3A3E50AF0A3E50BF0900A0770
:103F6000E0F9120FD2023C11F08A828B83A3A3A343
:103F7000A3A322C082C0839061907404F0A374480C
:103F8000F0A37402F09061807440F09061BC7403FF
:103F9000F09061877419F0906265741BF090619CD9
:103FA000740DF090619A7433F0A37455F09061A091
:103FB000743AF090055CE064017009C2919003C608
:103FC000746780059003C67461F0902596E4939021
:103FD0006186F0902590E493F46027E493540FF801
:103FE000906185E0686012E5C654804449F5C6E5F5
:103FF0009E547F644970F8E8F053C680E59E547F74
:1040000070FA7905120D800241B5C082C083E9546F
:104010000FF9906185E0696012E5C654804449F566
:10402000C6E59E547F644970F8E9F053C680E59E6A
:10403000547F70FA0241B5C082C083E5A8F853A846
:104040007E906181E4F0A3F0A3F0C2BA539AFEC25D
:1040500089759B00C2C275E90075910075BF007536
:10406000A91175B905906181F0A374C0F0A3E4F0C3
:10407000D2BA439A0174805842A80241B5C082C0A6
:104080008374F81216C59003C4E0F8A3E0F9E84978
:1040900070030241AB9003C4E0544060237908856B
:1040A0001882851983AA82AB83120BE88518828552
:1040B0001983AA82AB831208BE9003C4E054BFF0F8
:1040C000E054806010790C7A807B05120BE8900335
:1040D000C4E0547FF0E0A2E0503190619A7433F074
:1040E000A37455F09061A0743AF090055CE064010F
:1040F0007009C2919003C6746780059003C674610D
:10410000F01208C49003C4E054FEF0E054026031A1
:1041100090619A743FF0A3745AF09061A0747FF09C
:1041200090055CE064017009D2919003C6747180BF
:10413000059003C6746AF01208C49003C4E054FDED
:10414000F0E054046013902594E493906186F0129B
:1041500008CA9003C4E054FBF0E0540860139025B3
:1041600095E493906186F01208CA9003C4E054F776
:10417000F0E054106013902596E493906186F0125D
:1041800008CA9003C4E054EFF0E05420600A12081B
:10419000CA9003C4E054DFF0A3E05401600D120B99
:1041A000101208D09003C5E054FEF074081216DB1C
:1041B0008003F0A3F0D083D08202013574EC121793
:1041C0001C74F41216C5851882851983AC82AD83E0
:1041D00075838475824374041215D890259493F4E2
:1041E0006003024349907808E0C3940250030243FD
:1041F000297404121710AC82AD837583837582E233
:1042000074081215D88518828519838582128583D2
:10421000137404121710AC82AD83750EFF750FFF77
:104220007FFF7E00750C48750D78801574086E70E0
:10423000030242BC74096E70030242BC740A6E60D1
:104240007B850C82850D8378081215958C828D8371
:10425000A909E50AC9F88810741878081214D6E577
:10426000104508F8C3E098A3E099850C82850D837A
:10427000780812159540188C828D8374187808126E
:1042800014D6E5104508F8E0C398F8A3E0801C7444
:104290001878081214D6E5104508FAE9FB8C828DCF
:1042A00083E0F8A3E0F9EAC398F8EB99F9C3E8953D
:1042B0000EE9950F5006880E890FEEFF0EE50C24CF
:1042C00004F50CE50D3400F50DEEC3941350030214
:1042D000422C74FF650E700474FF650F60238F0815
:1042E000740278081216B274482508F5827478357D
:1042F00009F5837808121595851282851383E508E0
:10430000F0EC24020C0CED3400FD85128285138341
:10431000A3858212858313740C121710E5826C70CA
:1043200003E5836D600302421A7508017509007880
:104330000812192F7402121710AC82AD837A657BB4
:10434000091211AC74021216DB740C1216DB7F0C0E
:104350000217EEC082C0839061AE7468F0A3746AE5
:10436000F090624574FBF0A304F053F4FD43FE02A9
:1043700090055C7401F09061A0E0643A90619A70DD
:10438000237433F0A37455F09061A0743AF0740173
:1043900064017009C2919003C6746780289003C6B7
:1043A00074618021743FF0A3745AF09061A0747F0F
:1043B000F0740164017009D2919003C67471800594
:1043C0009003C6746A0241B47F040217EEC082C033
:1043D0008390050EE06401700A900513E060047993
:1043E0000C800279000241B5C082C08375E1F19072
:1043F0000511E0605514600814605914605180592B
:10440000120B22900507E0F97A087B05120D029045
:1044100084BB1215B3120D3890845F1215B3120DC0
:104420000E900512E0F9120D1A7901120D74900523
:1044300005E02416F8A3E03400F988828983743AF1
:10444000F0A3740BF079000241B5120B2880B4126E
:104450000B2E80AF120B3480AA791280EA74F4120A
:10446000171C75D90D9004F6E0A2E0E4331313F89D
:10447000900507E0C4333354C0484401F5D97805AA
:10448000790588828983A3A3A3E0F5D988828983EB
:10449000A3A882A983E8640B7003E9640570E3783C
:1044A000F6790488828983A3E0F5D988828983A379
:1044B000A882A983E864FC7003E9640470E575E1EF
:1044C000959004F6E0F97AF77B04120D08900A291A
:1044D00074CEF0A3740AF0A37430F0A3740CF0A3AC
:1044E0007430F0A3740CF0A37430F0A3740CF0A338
:1044F00074D4F0A3740AF0A37430F0A3740CF0A386
:1045000074ECF0A3740AF0900A377430F0A3740CC2
:10451000F0A37430F0A3740CF0A37430F0A3740C07
:10452000F0A37430F0A3740CF0A37430F0A3740CF7
:10453000F0A37430F0A3740CF0900505E0F8A3E04C
:10454000F5838882A3A3780812159590848778084C
:1045500012152190842F780812156F900505E0241C
:104560000EF8A3E03400F98882898378081215A434
:10457000900505E02414F8A3E03400F988828983CB
:104580007413F09003C27402F00243C8C082C08367
:10459000900517E02407F5D9900507E0C43333549C
:1045A000C0F5D97805790588828983A3A3A3E0F5AE
:1045B000D988828983A3A882A983E8640B7003E960
:1045C000640570E3900517E0601F78057905FAE847
:1045D0002413F582E93400F583E0F5D988828983D4
:1045E000A3A882A9831AEA70E6900537E02407F5AC
:1045F000D9900507E0C4333354C04404F5D9780595
:10460000790588828983A3A3A3E0F5D98882898369
:10461000A3A882A983E8640B7003E9640570E390A2
:104620000537E0601F78057905FAE82433F582E95B
:104630003400F583E0F5D988828983A3A882A98311
:104640001AEA70E675E195900A2974DAF0A3740A03
:10465000F0A37430F0A3740CF0A37430F0A3740CC6
:10466000F0A37430F0A3740CF0A374D4F0A3740A14
:10467000F0A37430F0A3740CF0A374ECF0A3740AEC
:10468000F0900A377430F0A3740CF0A37430F0A3E8
:10469000740CF0A37430F0A3740CF0A37430F0A386
:1046A000740CF0A37430F0A3740CF0A37430F0A376
:1046B000740CF090847F1215B3900505E0240EF879
:1046C000A3E03400F9888289831215BF900505E0C4
:1046D0002414F8A3E03400F9888289837412F090DE
:1046E00003C274010241B4C082C083900517E02464
:1046F00007F5D9900507E0C4333354C04402F5D917
:104700007805790588828983A3A3A3E0F5D98882F7
:104710008983A3A882A983E8640B7003E964057008
:10472000E3900517E0601F78057905FAE82413F592
:1047300082E93400F583E0F5D988828983A3A882D1
:10474000A9831AEA70E675E195900A2974E6F0A348
:10475000740AF0A374E6F0A3740AF0A374E6F0A35D
:10476000740AF0A374E6F0A3740AF0A374E6F0A34D
:10477000740AF0A374E6F0A3740AF0A374ECF0A337
:10478000740AF0900A377430F0A3740CF0A37430FC
:10479000F0A3740CF0A37430F0A3740CF0A3743085
:1047A000F0A3740CF0A37430F0A3740CF0A3743075
:1047B000F0A3740CF090847F1215B3900505E024EB
:1047C0000EF8A3E03400F9888289831215BF9005A2
:1047D00005E02414F8A3E03400F988828983741476
:1047E000F09003C274040241B4C082C083900517E4
:1047F000E02407F5D9900507E0C4333354C04406DC
:10480000F5D97805790588828983A3A3A3E0F5D932
:1048100088828983A3A882A983E8640B7003E96472
:104820000570E3900517E0601F78057905FAE82424
:1048300013F582E93400F583E0F5D988828983A3F2
:10484000A882A9831AEA70E6900537E02407F5D913
:10485000900507E0C4333354C04404F5D978057992
:104860000588828983A3A3A3E0F5D988828983A3DD
:10487000A882A983E8640B7003E9640570E39005DE
:1048800037E0601F78057905FAE82433F582E934CA
:1048900000F583E0F5D988828983A3A882A9831AC9
:1048A000EA70E675E195900A2974E0F0A3740AF0C5
:1048B000A37430F0A3740CF0A37430F0A3740CF064
:1048C000A37430F0A3740CF0A37430F0A3740CF054
:1048D000A37430F0A3740CF0A374ECF0A3740AF08A
:1048E000900A377430F0A3740CF0A37430F0A37402
:1048F0000CF0A37430F0A3740CF0A37430F0A37424
:104900000CF0A37430F0A3740CF0A37430F0A37413
:104910000CF090847F1215B3900505E0240EF8A3E7
:10492000E03400F9888289831215BF900505E024E0
:1049300014F8A3E03400F9888289837415F0900399
:10494000C274030241B4C082C083900505E0F8A39D
:10495000E0F5838882A3A3A3A3A3A3E40241B274D6
:10496000F712171C9003F0E0F875F004A4C8AAF041
:104970002AF974F228F8740339F9E82405FAE934BD
:1049800000FB8A828B83E0FCA3E0FD88828983A3FD
:10499000A3A3A3A3A3A3A3A3ECF0A3EDF088828910
:1049A00083A3A3A3A3A3A3A3E024FFF8A3E034FF5E
:1049B000F98A828B83E8F0A3E9024C0474F712179A
:1049C0001CEAFEEBFF9061D0E06003024A9975D9C2
:1049D0000E75D90375D904EE248CF582EF3400F5F9
:1049E00083E5822408F8E5833400F9E0F5D9A3E8EB
:1049F00065827003E9658370F2EE2484F582EF34FA
:104A000000F583E5822404F8E5833400F9E0F5D964
:104A1000A3E865827003E9658370F275E195790812
:104A2000EE248CFAEF3400FB120BDC7904EE2484C4
:104A3000FAEF3400FB120BDC7C00EEF8EFF9ECFA35
:104A4000C3E49AFA95E0FBEE2AFAEF3BFBEA248BEB
:104A5000F582EB3400F583E0C0E0E824ABF582E9B1
:104A60003400F583D0E0F00C88828983A3A882A962
:104A700083ECC3940840C7EE2470F582EF3400F550
:104A800083E0F8A3E0F9EE2472F582EF3400F583B9
:104A9000E8F0A3E9F0790180027900024C05C082B8
:104AA000C08375D90275D90375D90575E195EA24D6
:104AB00070F582EB3400F583E0F8A3E0F9EA2472A4
:104AC000F582EB3400F583E8F0A3E9F079010241C7
:104AD000B574F612171CEAFEEBFF9005607406F041
:104AE000750860750905780812192F7C0179031281
:104AF0000C2474021216DB75D90675D90375826011
:104B0000758305E0F5D9A3E58264657004E58364E7
:104B10000570F075E1959003C2E06408701EEE2404
:104B200070F582EF3400F583E0F8A3E0F9EE24722B
:104B3000F582EF3400F583E8F0A3E9F07901024C47
:104B4000D174F612171CEAFEEBFF9061D0E070669C
:104B50007801900560740BF09003C2E0640770194F
:104B6000750860750905780812192F7C0179031200
:104B70000C2474021216DB7805740128F5D975D956
:104B800003758260758305E8FAE0F5D9A31AEA7027
:104B9000F875E195EE2470F582EF3400F583E0F8C6
:104BA000A3E0F9EE2472F582EF3400F583E8F0A378
:104BB000E9F0790180027900024CD174F712171CD8
:104BC000EAFEEBFF75D90375D90375D90DEE24DE26
:104BD000F582EF3400F583E0F5D975E1957904129B
:104BE0000D3EEE2470F582EF3400F583E0F8A3E08B
:104BF000F9EE2472F582EF3400F583E8F0A3E9F0D2
:104C000079018001F07F010217EE74F612171CEA99
:104C1000FEEBFF9061D0E0F87480C398FAEE248335
:104C2000F582EF3400F583E06004780480027800B8
:104C3000E8240BF8EAC3985003024CCF7D09900595
:104C400060EDF0EE24E3F8EF3400F97A617B057C47
:104C50000888828983E08A828B83F088828983A393
:104C6000A882A9838A828B83A3AA82AB831CEC705F
:104C7000E0EE2483F582EF3400F583E0601D7508D3
:104C800060750905780812192F7C097903EEFAEF8F
:104C9000FB120C2474021216DB7D0D74012DF5D964
:104CA00075D9037582607583058D08E0F5D9A31564
:104CB00008E50870F675E1957904120D3EEE241DA5
:104CC000F582EF3400F583E4F0A3F07901800279F6
:104CD000007F020217EE74F612171CEAFEEBFF903B
:104CE00061D0E0F87480C398FAEE2483F582EF3443
:104CF00000F583E06004780480027800E82408F876
:104D0000EAC3985003024DD67D06900560740CF0FE
:104D10009003DFE0900561F07AE07B03786279052B
:104D20007C028A828B83E088828983F08A828B83EB
:104D3000A3AA82AB8388828983A3A882A9831CEC5F
:104D400070E07AE27B037C028A828B83E08882892E
:104D500083F08A828B83A3AA82AB8388828983A310
:104D6000A882A9831CEC70E0EE2483F582EF340066
:104D7000F583E0601D750860750905780812192F24
:104D80007C067903EEFAEFFB120C2474021216DB98
:104D90007D0A74012DF5D975D90375826075830577
:104DA0008D08E0F5D9A31508E50870F675E1957949
:104DB00004120D3EEE2470F582EF3400F583E0F826
:104DC000A3E0F9EE2472F582EF3400F583E8F0A356
:104DD000E9F0790180027900024CD174F612171CB7
:104DE000EAFEEBFF9061D0E0F87480C398FAEE24FD
:104DF00083F582EF3400F583E06004780480027864
:104E000000E82404F8EAC3985003024EB5780290F3
:104E10000560E8F0EE24F5F582EF3400F583E090CC
:104E20000561F0EE2483F582EF3400F583E0601B2A
:104E3000750860750905780812192F7C027903EE50
:104E4000FA120C2474021216DB7806740128F5D9C4
:104E500075D9037582607583058808E0F5D9A315B7
:104E600008E50870F675E195EE2474F582EF3400DC
:104E7000F583E4F0EE2480F582EF3400F583E4F06E
:104E8000EE241DF582EF3400F583E4F0A3F07904FD
:104E9000120D3EEE240DF582EF3400F583E0F8A309
:104EA000E0F9EE2472F582EF3400F583E8F0A3E92F
:104EB000F0790180027900024CD174F612171C902F
:104EC00061D0E0F87480C398FCEA2483F582EB3467
:104ED00000F583E06004780480027800E82404F898
:104EE000ECC398405B79029005607407F0EA24F601
:104EF000F582EB3400F583E0900561F0EA2483F558
:104F000082EB3400F583E060187508607509057858
:104F10000812192F7C0209120C2474021216DB7974
:104F200006740129F5D975D903758260758305E981
:104F3000F8E0F5D9A318E870F875E19579018002D9
:104F40007900024CD174F512171CE9FCA2AFE433CE
:104F5000F50AC2AF7D0080010DEA246FF582EB34C3
:104F600000F583E0F8EDC398501A8D08EA2508F89B
:104F7000EB3400F9E8246BF582E93400F583E06C4A
:104F800070D68024EA246FF8EB3400F9E0FEEA2EB4
:104F9000FAEB3400FBEA246BF582EB3400F583EC8A
:104FA000F088828983E004F0E50AA2E092AF7F03F3
:104FB0000217EE74F612171CA2AFE433FDC2AFEA7B
:104FC000246FF582EB3400F583E014F07C0060364A
:104FD0008C08EA2508F8EB3400F9E8246CF582E93E
:104FE0003400F583E0C0E0E8246BF582E93400F595
:104FF00083D0E0F00CEA246FF582EB3400F583E017
:10500000F8ECC39840CAEA246EF582EB3400F583CD
:1050100074FFF0EA246AF582EB3400F583E4F0EDE6
:10502000A2E092AF024CD1C082C083E5A8F8C2AF23
:10503000EA246BF582EB3400F583E9F0EA246AF5A3
:1050400082EB3400F583E4F0E8A2E792AF0241B5C9
:1050500074F312171CEAFEEBFFECFAEDFB8A828B6D
:1050600083A3A3A3A3E0541FF0EE2436F582EF340C
:1050700000F583E4F0F50AEEFCEFFD8A828B83E015
:10508000C0E0EC245DF582ED3400F583D0E0F075EE
:105090000B00E50A33333354F8F50C8A828B83E036
:1050A000F508750900E50B7808121693E508A2E0EB
:1050B000502FEE2436F8EF3400F988828983E0F52A
:1050C00008EE2508F508EF3400F509E5082438F561
:1050D00082E5093400F583E50CF088828983E004D9
:1050E000F0050B050CE50BC3940840AF050A8A8256
:1050F0008B83A3AA82AB838C828D83A3AC82AD8386
:10510000E50AC39405500302507B7F050217EE7435
:10511000F712171C9003EEE0640170077A007B0021
:105120000252867E009003F4E070F17401F0A3E473
:10513000F0A3F090045404F0900457E4F0A3F0902E
:10514000045A04F09003F7E4F0A3F0A3F0A3F09066
:10515000040104F0900427E4F09084231215B39026
:10516000040A1215BF90040EE4F0A3F0A3F090041B
:1051700072F0900466F090045B7480F0A3E4F09009
:105180000461F0900459F09004DDF0A3F0A3F0A3C3
:10519000F0A3F0A3F0A3F0A3F09004E6F090047560
:1051A000F09004C5F0A3F09084231215B39004C7C7
:1051B0001215BF9084231215B39004CB1215BF9023
:1051C00004D1E4F09004D3F09004CFF09004E9F01F
:1051D000A3F0A3F0A3F0A3F0A3F0A3F0A3F078EE64
:1051E0007903E8246FF582E93400F58374FFF00E4B
:1051F00088828983A3A882A983EEC3940440E37ABA
:10520000EE7B0378FD790488828983E0C0E0EA249C
:1052100061F582EB3400F583D0E0F088828983A3C6
:10522000A882A9838A828B83A3AA82AB83E86402C3
:105230007003E9640570D07AEE7B0378D579038832
:10524000828983A3E0C0E0EA24E7F582EB3400F52D
:1052500083D0E0F088828983A3A882A9838A828B85
:1052600083A3AA82AB83E864DD7003E9640370CF93
:105270009003EEE004F0640170089003F6E0900300
:10528000F0F07AF27B03024C05C082C0839003F5F4
:10529000E4F09003F4F09003EEF0A3F0A374FFF0B9
:1052A00075E1F10241B5C082C083780079009003B6
:1052B000F5E0600478F2790388828983A3A3A3A32D
:1052C000E0F90241B574F612171CEAFEEBFF8E827C
:1052D0008F83A3A3A3E0600F8E828F83A3A3A3E495
:1052E000F09003EFE014F09003EEE014F0700690FD
:1052F00003F074FFF08E828F83A3A3E4F090050285
:10530000E0700D9003EFE0640170057900120D204C
:10531000EE2465F582EF3400F583E0F8A3E0F9E8C8
:10532000496029EE2465F8EF3400F9880889098876
:1053300082F583E0FCA3E0FD9003F0E0FA7B00122D
:1053400008F4850882850983E4F0A3F0EEFAEFFB08
:10535000120C54024CD174F712171CEAFEEBFF8EAC
:10536000828F83A3A3A3A3E0FA7B00120936EEFA8F
:10537000EFFB120BA6120C3C024C05C082C08378D6
:10538000D5790388828983A3E4F088828983A3A8DE
:1053900082A983E864DD7003E9640370E69003D6B4
:1053A0000246E274F612171CEAFEEBFFEC2403F847
:1053B000ED3400F988088909EC2407F8ED3400F988
:1053C000E8FCE9FD8C828D83E0F8A3E0F985088292
:1053D000850983E0FAA3E0FB12163AEE240DF5826C
:1053E000EF3400F583E8F0A3E9F08C828D83E0F8D8
:1053F000A3E0F9850882850983E0FAA3E0FB121691
:105400003A8B09EA45096013EE240DF582EF34006A
:10541000F583E02401F0A3E03400F0024CD174F6EF
:1054200012171CEAFEEBFFEE242EF582EF3400F596
:1054300083E0FCA3E0FD780079FAECFAEDFB1216AC
:105440003AEE2470F582EF3400F583E8F0A3E9F03A
:10545000780079FAECFAEDFB12163A8B09EA450965
:105460006013EE2470F582EF3400F583E02401F040
:10547000A3E03400F0024CD174F012171CEAFEEBEA
:10548000FF74101217107808121595120CDE8A0C92
:105490008B0D8C0E8D0F908483780C1215219084C7
:1054A0002F780C12156F780C12192B8E828F83E0D7
:1054B000F8A3E0F5838882A3A31215B31222C27465
:1054C000041216DBE960030255C58E828F83E02447
:1054D00002F8A3E03400F9E8FAE9FB8A828B8378CA
:1054E0000812153490842F78081215958A828B83C0
:1054F0007808121582EE240BF582EF3400F583C094
:1055000082C0838E828F83A3A3A3A3A3E02401F888
:10551000A3E03400F9D083D082E0687003A3E0698F
:10552000700579010255C78E828F83A3A3A3A3A31D
:10553000A3A3E02401F0A3E03400F0EE2474F5828C
:10554000EF3400F583E064017036EE2475F582EFE8
:105550003400F583E0F8A3E0F98E828F83A3A3A340
:10556000A3A3A3A3E0687003A3E0697013EE2475FE
:10557000F582EF3400F583E02401F0A3E03400F07D
:10558000EE2480F582EF3400F583E064017036EE9E
:105590002481F582EF3400F583E0F8A3E0F98E82F0
:1055A0008F83A3A3A3A3A3A3A3E0687003A3E069CD
:1055B0007013EE2481F582EF3400F583E02401F0CE
:1055C000A3E03400F079007F080217EE74F7121799
:1055D0001C9003F0E0F875F004A4C8AAF02AF9744E
:1055E000F228FE740339FF8028EE2465F8EF3400BA
:1055F000F988828983E0FCA3E0FD88828983E4F056
:10560000A3F08E828F83A3A3A3A3E0FA7B001208EA
:10561000F4EE2465F582EF3400F583E0F8A3E0F9B9
:10562000E849604FEE2464F582EF3400F583E0F53D
:10563000087808121933EE2463F582EF3400F583FD
:10564000E0F9EE2465F582EF3400F583E0FCA3E099
:10565000FDEEFAEFFB120BD074011216DBE9608944
:10566000EE2465F582EF3400F583E0F8A3E0F9E875
:105670004970137C007D008E828F83A3A3A3A3E0D7
:10568000FA7B001208F4024C0574F212171CEAFEB1
:10569000EBFF890A740E121710E0FAEE2462F5820D
:1056A000EF3400F583E0640160030257559061D048
:1056B000E0F87480C398F50CEE2483F582EF340093
:1056C000F583E060047804800278008908E928F80E
:1056D000E43400F9E824020808E93400F9E50C98FC
:1056E000E499A2D265D0334068EA7005750B028058
:1056F00003750B01E06039750900780812192F7ADB
:10570000607B05120C0674021216DB7508607509C1
:1057100005780812192FAC0AA90BEEFAEFFB120C50
:105720002474021216DB7404250AF50A7C607D05D8
:105730007401250AF5D9850BD9E50A600D8C828D97
:1057400083F8E0F5D9A318E870F875E19579008041
:10575000067907800279FF7F060217EEC082C083B8
:10576000E960208C828D83E08A828B83F08C828D2D
:1057700083A3AC82AD838A828B83A3AA82AB831975
:10578000E970E0ECFAEDFB0241B574EA12171C90E7
:105790007803E06442705E90055FE014F07056C2DA
:1057A000AF1257A400782AD0E0F618D0E0F6E59FB3
:1057B0005407F970059084778003908473780812F9
:1057C0001595E9C4C0E07829E65508F50808E655BE
:1057D00009F509740B78081216A3D0E02508F89093
:1057E0006270E0A2E740F8E8C333906272F0906222
:1057F00070E0D2E0F09003F0E0F47003025BADE003
:10580000F875F004A4C8AAF02AF974F228FE74030B
:1058100039FFEE2402F582EF3401F583E0F8A3E0CE
:10582000F9E849601EEE2402F582EF3401F583E0C9
:10583000FAA3E0FBEE2401F582EF3401F583E0F9F1
:10584000120FF68E828F83A3A3A3A3A3A3A3E0F8D2
:10585000A3E0F98E828F83A3A3A3A3A3E8F0A3E917
:10586000F0906054E09003C9F0906055E09003CA56
:10587000F0906056E09003CBF0906057E09003CC3E
:10588000F0906058E09003CDF0906059E09003CE26
:10589000F090605AE09003CFF090605BE09003D00E
:1058A000F090605CE0FC9003D1F090605DE0FB90D4
:1058B00003D2F090605EE0FD9003D3F090605FE073
:1058C000FA9003D4F09003CFE08C082508F8E43474
:1058D00000F98D08E82508F8E93400F98B08E82577
:1058E00008F8E93400F98A08E82508FAE93400FBE9
:1058F000EE24F7F582EF3400F583E02AF0A3E03BD5
:10590000F08C08EE24F9F582EF3400F583E02508E9
:10591000F0A3E03400F0EE24FBF582EF3400F583D1
:10592000E02401F0A3E03400F0EE24FFF582EF3430
:1059300000F583E0F8A3E0F9E8496042906000E0F8
:10594000C333FCE433FDE82CF582E93DF583E02A1E
:10595000F0A3E03BF0906000E0FA9003D1E0FCEAB5
:10596000C333FAE433FBE82AF8E93BF9E8244AF5C3
:1059700082E93400F583E02CF0A3E03400F09003DA
:10598000CFE070119003D2E0700BA3E07007A3E0AA
:105990007003025A8D8E828F83A3A3A3A3A3E0F882
:1059A000A3E0F9EE240DF582EF3400F583E028F84A
:1059B000A3E039F9EE240BF582EF3400F583E8F02B
:1059C000A3E9F0EE240FF582EF3400F583E4F0EE66
:1059D000241CF582EF3400F583E06401701EEE2490
:1059E00020F582EF3400F583E0F8A3E0F9EE241D02
:1059F000F582EF3400F583E8F0A3E9F09003CAE004
:105A00006052EE241CF582EF3400F5837401F0EE51
:105A1000246AF582EF3400F583E07038EE2474F5E3
:105A200082EF3400F583E0702BEE2480F582EF34B2
:105A300000F583E0701EEE2420F582EF3400F5833C
:105A4000E0F8A3E0F9EE241DF582EF3400F583E8D9
:105A5000F0A3E9F0906062E07003025B408E828FF9
:105A600083E0F8A3E0F9E82406FCE93400FDE8242B
:105A700002FAE93400FB120CD88E828F83E02412E4
:105A8000F8A3E03400F988828983025B4A9003D14D
:105A9000E0603AEE240FF582EF3400F583E4F0EE97
:105AA000241CF582EF3400F583E064017040EE249D
:105AB00020F582EF3400F583E0F8A3E0F9EE241D31
:105AC000F582EF3400F583E8F0A3E98020EE24FDB1
:105AD000F582EF3400F583E02401F0A3E03400F018
:105AE000EE241DF582EF3400F583E4F0A3F0EE24FC
:105AF0000BF582EF3400F583E0F8A3E0F98E828F96
:105B000083A3A3A3A3A3E0687003A3E069600302D7
:105B100059FCEE240FF582EF3400F583E060128E1D
:105B2000828F83A3A3A3A3A3E064057002A3E06014
:105B30000B7908EEFAEFFB120BAC8071793E80F323
