:020000040000FA
:0600000002011D021FBEFB
:03002B00021D06AD
:0300530002203454
:03006B00021CD4A0
:10008300021EAFE5C754F84401F5C7790122000009
:100093000080FB120086B90003020107E47921788E
:1000A30008B800028004F709D8FCE479297802B87B
:1000B30000028004F709D8FCE490028178FE7907F6
:1000C3008002F0A3D8FCD9FA781A90014D7A01BACC
:1000D30000028007E493A3F608DAF990097EAA8266
:1000E300AB8390014E78C479048015E493A3AC826A
:1000F300AD838A828B83F0A3AA82AB838C828D83A8
:10010300D8E9D9E775821C7583A7740312012F758B
:100113008291758300740012012F75D00075813FA1
:10012300751881751902759F00020096C09FF59F8F
:10013300E473D09F22D083D082C09FE493C0E07445
:100143000193C0E0740293F59F2201FFFF0A41630C
:1001530063656C20456E61626C65000002140041AA
:100163006363656C2052616E676500001010104177
:100173006363656C20582D436F6F7264696E61749D
:10018300650000416363656C20592D436F6F726492
:10019300696E6174650000416363656C205A2D4389
:1001A3006F6F7264696E61746500000253900100A1
:1001B300002290024F900100008009027F9003000B
:1001C30000A0020275900100008109024F90010016
:1001D300008F09027D9001000090090275900100D3
:1001E300009209024F900100009F09027B900000DA
:1001F30000A102024B90030000A4020275900100CB
:1002030000A209024F90010000A0090279900000AA
:1002130000A202024B90030000AA020275900100A3
:1002230000B609024F90010000A109027790000077
:1002330000A302024B90030000B00202759001007C
:1002430000CA09110199010F1264040102539001BC
:1002530000001C90024F900100007B0A0271900184
:1002630000007C0A024B90030000BE020239900199
:1002730000007D0A020202020202020202010D00D4
:10028300000010010253900100001F90024F9001E3
:100293000000A70A026B90010000C502024F900103
:1002A3000000A80A026990010000138F024F900119
:1002B3000000A90A026790010000F78E024F900127
:1002C3000000AA0A026590010000918E024F90017E
:1002D3000000AB0A0263900100007F8E024F900181
:1002E3000000AC0A026190010000A38E024F90014E
:1002F3000000AD0A025F90010000B58E024F90012D
:100303000000AE0A025D90010000058F024F9001CC
:100313000000AF0A025B90010000B00A01E8030588
:100323003F100B094B6579666F6264656D6F02015F
:10033300050702031802180418544920424C4520AB
:100343004B6579666F6200000000000000004708FB
:1003530000004D085308FF00013075030201060039
:10036300000000000000000000000000000000008A
:100373000000000000000000000000FFFF060080F6
:100383000CE8030A04120253900100002590024F67
:1003930090010000B60B025990030000940402532D
:1003A300900100002890024F90010000B70B025902
:1003B3009002000095040253900100002B90024F1D
:1003C30090010000B80B024D900100009604024B0F
:1003D300900300009704104B657920507265737386
:1003E300205374617465000253900100003490023D
:1003F3004F90010000090C0237900000009D040299
:100403004B900300009E040275900100000A0CFF4C
:100413000000B4000028002800283075A000A000C8
:10042300A000A00000080008E001F0001000100088
:100433001000100010001000500050005000100079
:100443001000D0070000000000000F0001000500AD
:10045300307507001000010081FF0000FF6B0B895E
:100463000B710BFF02020208025000A0000000E81B
:10047300030253900100003190024F900100009756
:100483000C024790010000D504024F900100009830
:100493000C024590010000EB04024F90010000990B
:1004A3000C024190010000ED04024F900100009AFC
:1004B3000C023F90080000EE04024F900100009BE5
:1004C3000C023D900100009C0CFF0100FF20025331
:1004D300900100002E90024F90010000000D023B9E
:1004E300900000000000024B900300003B05A711A1
:1004F300A711A711A711A711A711A711A711A71139
:10050300A711A711A711A7117D1495147714120130
:1005130038037A001201380D7A001201384E7A003E
:10052300120138977A00120138D17A001201382764
:100533007B00120138487B00120138517B00120105
:1005430038A57B00120138CE7B00120138D87B001E
:10055300120138467C00120138D67C001201383172
:100563007D001201385F7D00120138E77D00120122
:1005730038267E001201385B7E001201386D7E0042
:100583001201388C7E00120138957E001201385C0E
:100593007F00120138FBA0031201388A7F00120189
:1005A30038629303120138989303120138CC9303F2
:1005B30012013819950312013866FF011201387CC4
:1005C300FF0112013886FF01120138D0FF01120129
:1005D3003844E40212013857E40212013818E502E4
:1005E30012013857E50212013874E502120138ADE1
:1005F300E502120138FAE5021201382CE602120173
:100603003863E6021201386CE802120138D8E802B6
:10061300120138F2A10312013815A2031201384462
:10062300A2031201385CA2031201389EA203120135
:100633003810F9021201386BF90212013888F902F5
:1006430012013897FA02120138E2FA02120138A6AF
:10065300FB021201388CFC02120138BF860312011F
:1006630038F686031201380D8703120138B9870360
:10067300120138528803120138DA8803120138262E
:100683009C03120138AF9C03120138BF9C03120173
:1006930038D79C03120138F79C031201388E9D034F
:1006A3001201389C9D031201389DA403120138BE28
:1006B300A4031201384FA503120138A789031201BD
:1006C30038CC8903120138F6890312013874A70361
:1006D3001201380B4000120138E941001201388839
:1006E3004300120138334400120138B344001201AD
:1006F300383845001201386145001201383C490081
:10070300120138B34900120138CA4A0012013804F1
:100713004B00120138454B001201388C4C0012017A
:1007230038E24C001201382B4D001201389A4D006B
:10073300120138064E00120138374E001201384FAD
:100743004E00120138684F00120138784F00120131
:10075300382E5100120138455100120138775100EB
:10076300120138195300120138AD53001201385ADF
:10077300A5031201386BA5031201380BA60312015E
:1007830038E97F00120138E8A703120138E7A20312
:10079300120138F7A2031201380CA303120138C067
:1007A300A303120138F99F031201387EA00312013B
:1007B30038E2A003120138B59D03120138D79D0317
:1007C300120138389E031201384A9E031201389AE7
:1007D3009E03120138D89E03120138DB9E031201D7
:1007E300383AED021201384EED02120138C8ED021B
:1007F300120138ACEE0212013883F002120138E81C
:10080300F0021201383FF102120138F87F001201A1
:1008130038289103120138B892031201381993034F
:100823001201385F9303120138E8BA02120138E368
:10083300BC0212013860BE0212013835BF02120138
:1008430038BBBF02120138DEBF021201380DC102EC
:1008530012013854C102120138A2C1021201388EAA
:100863009A03120138E09A03120138539B031201D1
:1008730038C09B03120138E18E031201380B8F033A
:10088300120138DA8F03120138B69003120138B21D
:10089300B2021201387EB302120138BFB302120151
:1008A30038F9B30212013857B402120138ABB4025B
:1008B30012013809B5021201389FB502120138A797
:1008C300B60212013831B802120138CFB802120150
:1008D3003836B90212013849B9021201383DBA0259
:1008E30012013886BA0212013853DB01120138852E
:1008F300DE0112013816E0011201386DE001120128
:10090300388AE0011201380AE10112013886E20156
:1009130012013855E301120138C2E601120138AC65
:10092300E70112013896830312013814840312017C
:1009330038318403120138B98403120138E4840383
:100943001201387685031201388686031201385363
:100953009503120138989503120138EC950312019F
:1009630038719603120138E99603120138DB9803B4
:10097300120138F298031201382199031201385AEF
:100983009903120138829903120138B099031201B5
:1009930038C79903120138DE9903120138F4990319
:1009A3001201381B9A031201382E9A03120138449C
:1009B3009A03120138579A031201387C9A031201E1
:1009C3003828F50112013827F6011201385CF601C7
:1009D3001201387DF6011201388DF601120138AE8D
:1009E300F601120138BAF70112013887F801120132
:1009F30038FAF80112013880F901120138C3F901FC
:100A0300120138FAF90112013880FA011201385241
:100A1300FB01120138B0FB01120138C8FB011201BE
:100A23003842FC0112013845FC0112013848FC012F
:100A3300120138EFFC0112013807FD0112013837AA
:100A4300FD0112013857FD0112013845FE01120163
:100A530038FBFE011201389CDF02120138C4DF02A9
:100A6300120138F2DF0212013829E0021201389133
:100A7300E002120138DAE00212013825E102120124
:100A83003863E102120138A0E102120138CEE1021B
:100A930012013875E2021201387FE2021201388C2A
:100AA300E202120138BFE20212013881E3021201AD
:100AB300388DE302120138A5E302120138AFE302D5
:100AC300120138C6A303120138D4A303120138EC70
:100AD300A30312013804A4031201389DB0011201CB
:100AE300383BB101120138B3B101120138C8B20168
:100AF30012013802B301120138ABB301120138807D
:100B0300B401120138E4B5011201383BB6011201F8
:100B130038C2B601120138A9B701120138F6B7017C
:100B230012013884B801120138A8B8011201387DC6
:100B3300BA01120138BEBA01120138E0BA0112013A
:100B43003861BB011201384BBC0112013811BD01E0
:100B53001201389FC90212013871CA021201381AF0
:100B6300CB021201385DCB02120138EACB0212012B
:100B73003876CC0212013857CD0212013886CD02E5
:100B830012013882CE02120138CACE02120138CCC9
:100B9300CF0212013810D00212013836D0021201EE
:100BA3003816A6031201383FF50212013855F50233
:100BB3001201387BF502120138A3F602120138AD97
:100BC300F60212013806F80212013806F902120180
:100BD30038ABD002120138E0D10212013813D2022D
:100BE3001201385DD2021201381BD40212013840BF
:100BF300A101120138A3A101120138E8A2011201D7
:100C030038F8A2011201381BA30112013866A301AF
:100C13001201380BA40112013801A501120138CBCE
:100C2300A50112013843A70112013885A70112015A
:100C33003823A80112013870A80112013896A801BF
:100C430012013884AA0112013889AA011201386AF3
:100C5300AC01120138BEAC0112013820AD01120102
:100C63003848AD01120138ECAD01120138AEAE01C6
:100C7300120138DFAE01120138E2AE011201382A47
:100C8300AF011201386CAF01120138D3AF01120169
:100C9300388B8C031201389E8C03120138B78C03F6
:100CA300120138028D03120138DD8D031201386CF5
:100CB3008E03120138B78E03120138302600120159
:100CC300383C2600120138752600120138BA260076
:100CD300120138712700120138F727001201385C1E
:100CE3002800120138882800120138C12800120197
:100CF30038D52A00120138B12C001201389C2E007D
:100D0300120138D32F001201383332001201381F79
:100D130033001201386534001201387235001201B4
:100D2300388F3500120138C73500120138E135001C
:100D3300120138493600120138E33A0012013884AF
:100D43003B00120138D53B00120138FC3B00120175
:100D5300384A3C00120138683C00120138BC3C00A0
:100D6300120138953D001201381C3F00120138A4CE
:100D73003F00120138D1D502120138DBD50212012E
:100D830038A6D602120138C1D602120138E7D602BC
:100D93001201382BD70212013863D7021201388CA3
:100DA300D70212013805D8021201381AD8021201EB
:100DB300382FD80212013866D8021201387AD802C5
:100DC300120138ABD802120138E5D80212013811EA
:100DD300D90212013849D902120138EAD9021201A3
:100DE300381ADA0212013863DA021201388DDA0294
:100DF300120138B2DA0212013853F1021201381D1E
:100E0300F20212013800F30212013876F3021201E2
:100E130038B8F302120138E5F402120138008002F7
:100E230012013829800212013842800212013887E8
:100E33008102120138658202120138848202120192
:100E430038118302120138548302120138A184023B
:100E5300120138408502120138BF87021201385649
:100E630088021201382A89021201380C8A021201FF
:100E730038788B021201380B8C02120138E49E037E
:100E83001201384D9F03120138A19F03120138C884
:100E93009F03120138E5E80212013852E9021201F8
:100EA300389DE90212013892EA021201388EEB02F0
:100EB30012013878EC0212013844AA021201388672
:100EC300AA0212013860AB0212013839AC021201D6
:100ED3003834AD0212013813AE021201387FAE026C
:100EE30012013846AF02120138B1AF0212013818AD
:100EF300B00212013843B002120138B4B002120139
:100F03003847B102120138B0B102120138C5B1023B
:100F13001201380DB20212013826B2021201388BC7
:100F2300B2021201388EB202120138D9FC02120148
:100F33003801FD021201383FFD02120138FDFD02A6
:100F430012013868FE0212013884FE02120138AC25
:100F5300FE02120138DCFE02120138EBFE0212011E
:100F63003865FF021201388BFF02120138869001A7
:100F7300120138239201120138099401120138D366
:100F830094011201381A9501120138619501120179
:100F930038739501120138B39501120138E29501B6
:100FA3001201382E96011201386696011201389407
:100FB3009601120138E59601120138749701120166
:100FC30038629A011201383C9C01120138789C0165
:100FD300120138D29D01120138199E011201388E77
:100FE3009E01120138DC9E01120138029F01120199
:100FF300381FA00112013841A1021201385EA1027B
:10100300120138F8A602120138FAA7021201387445
:10101300A90212013822AA02120138EB530012016D
:1010230038345400120138615400120138945400CA
:10103300120138A15400120138AD5400120138BF17
:101043005400120138945500120138F25500120170
:1010530038275600120138C35700120138105800C0
:10106300120138345800120138A1580012013846D1
:101073005900120138025A00120138815A00120134
:1010830038455B00120138545B00120138D55B0010
:10109300120138745C00120138A65C001201384159
:1010A3005D001201389F5D00120138D95D00120105
:1010B300385A5E00120138235F00120138CC5F00FA
:1010C300120138536000120138AB60001201380C72
:1010D3006100120138356100120138EB6100120121
:1010E30038356300120138786300120138956300C4
:1010F300120138B46300120138FF6300120138246F
:1011030064001201384D6400120138BC64001201FE
:1011130038FE64001201380266001201389C660032
:10112300120138686700120138816700120138A084
:101133009702120138F39702120138FF9702120146
:1011430038D49802120138FB9802120138369902FA
:10115300120138A29902120138D699021201380FEE
:101163009A02120138279A02120138809A02120158
:1011730038999A02120138E29A02120138F59A025A
:101183001201380F9B02120138259B0212013841CC
:101193009C02120138529D021201389F9E021201D5
:1011A30038849F02120138EC7F0012013842E801B3
:1011B30012013876E801120138E1EB011201382BF4
:1011C300ED01120138F5ED011201387FEF01120133
:1011D300385AF00112013894F001120138B7F001C6
:1011E300120138F9F00112013802F1011201384CF1
:1011F300F10112013856F10112013802F201120114
:1012030038D6F2011201382AF3011201388CF301A6
:10121300120138DFF3011201380EF4011201384DC7
:10122300F401120138B367001201380D7000120186
:1012330038137000120138CE7500120138B47900EA
:101243001201380080031201387680031201388CB2
:101253008003120138C9800312013801810312018E
:10126300387E8103120138B98103120138348203B5
:101273001201387082031201387982031201388512
:1012830082031201389F8203120138C482031201C0
:1012930038DA8203120138038303120138668303A9
:1012A300120138DADA02120138EDDA0212013807D4
:1012B300DB0212013830DB0212013873DB02120148
:1012C30038B2DB02120138F0DB0212013855DC02BE
:1012D3001201386ADC0212013875DC02120138820D
:1012E300DC0212013899DC02120138A7DC02120178
:1012F30038B2DC02120138BEDC02120138D1DC0242
:10130300120138DCDC02120138FFDC02120138A8BA
:10131300DD02120138B8DD02120138D2DD021201FA
:1013230038EFDD021201380BDE0212013830DE0223
:101333001201383ADE021201384EDE021201386D14
:10134300DE02120138CEDE02120138D4DE021201AF
:1013530038DADE02120138E0DE02120138ECDE0276
:101363001201381FDF02120138C9CD011201384BB7
:10137300CE01120138F4CE011201383CD001120122
:10138300384AD20112013830D30112013865D30132
:1013930012013887D30112013830D4011201380009
:1013A300D60112013829D601120138A1D601120142
:1013B30038D3D601120138E0D6011201382BD701F8
:1013C3001201384FD701120138A0D901120138AAEE
:1013D300DA0112013806DB0112013846BF0112019E
:1013E3003857C0011201383BC10112013845C10110
:1013F30012013867C10112013873C1011201381794
:10140300C30112013844C3011201385AC401120145
:1014130038AFC401120138FEC501120138D3C60129
:101423001201382FC7011201389AC701120138CFB0
:10143300C70112013812C801120138DCCA011201B6
:1014430038F4CA0112013885CB0112013893CB015C
:10145300120138E0CB01120138EECB011201385AE8
:10146300CC01120138D5CC011201382CCD01120167
:1014730038828C02120138A48C02120138B58E0214
:101483001201387491021201389E92021201385CE3
:101493009302120138489402120138229703120171
:1014A30038479703120138BD970312013882C202ED
:1014B3001201388BC20212013894C2021201386C35
:1014C300C3021201381DC5021201384DC5021201B3
:1014D3003878C502120138A8C502120138D3C502F3
:1014E30012013807C60212013833C60212013876D8
:1014F300C602120138A1C602120138E8C60212015F
:10150300383DC7021201387FC702120138D9C7021A
:1015130012013804C80212013853C8021201388379
:10152300C802120138AEC802120138DCC802120127
:1015330038FFC8021201389FA603120138CBA60355
:10154300120138F8A60312013802A7031201381258
:10155300A703120138D3FF02120138CAA703E066BA
:10156300701008A3E066700A08A3E066700408A37D
:10157300E06622C3E7960809E7960809E796080993
:10158300E79622C3E09608A3E09608A3E09608A393
:10159300E09622C008C3E096F50808A3E096420847
:1015A30008A3E096420808A3E09645087001D3D04B
:1015B3000822080808EAC0E0EBC0E086F0E7A4FAD6
:1015C300180986F0E7A42AFA180986F0E7A42AFA8C
:1015D300180986F0E7A42AFA1986F0E7A4FBE5F0D8
:1015E3002AFA190886F0E7A42BFBE5F03AFA190862
:1015F30086F0E7A42BFBE5F03AFA18180986F0E722
:10160300A4C5F02BFBE43AFA1908E7C5F0C6A426F3
:10161300F6E5F03BFBE43AFA1886F0E7A4F6E5F0CA
:101623000826F6E43B08F6E43A08F6D0E0FBD0E0FF
:10163300FA22E4CFC0E0E4CEC0E0E4CDC0E0E4CCE5
:10164300C0E075F020C3E633F608E633F608E63368
:10165300F608E633F6181818EC33FCED33FDEE33D9
:10166300FEEF33FFC3EC9709ED9709EE9709EF9768
:10167300191919400FFFEC97FC09ED97FD09EE9737
:10168300FE191906D5F0BEECF709EDF709EEF709D7
:10169300EFF7191919D0E0FCD0E0FDD0E0FED0E05F
:1016A300FF2212170D1818181216351216FC1919E5
:1016B30019221216FC191919080808E61818182017
:1016C300E7E012163512170D18181822090909E751
:1016D30019191920E7DC080808E618181820E70389
:1016E30002163512170D18181812163512170D1881
:1016F30018181216FC19191922E4C397F709E4976D
:10170300F709E497F709E497F722E4C396F608E4A8
:1017130096F608E496F608E496F622601708080899
:10172300C6A2E713C618C613C618C613C618C6132F
:10173300C6D5E0E9226016080808C6C313C618C652
:1017430013C618C613C618C613C6D5E0EA22700915
:10175300080808226016181818C6C333C608C6330B
:10176300C608C633C608C633C6D5E0EA22E627F65E
:101773000809E637F60809E637F60809E637F622D8
:10178300E026F608A3E036F608A3E036F608A3E061
:1017930036F622E026F008A3E036F008A3E036F0A0
:1017A30008A3E036F022C3E697F60809E697F608A1
:1017B30009E697F60809E697F622C3E096F008A330
:1017C300E096F008A3E096F008A3E096F022E05636
:1017D300F608A3E056F608A3E056F608A3E056F68B
:1017E30022E056F008A3E056F008A3E056F008A361
:1017F300E056F022E0F608A3E0F608A3E0F608A31B
:10180300E0F622E6F008A3E6F008A3E6F008A3E674
:10181300F022E0FAA3E0FBA3E0FCA3E0FD22EAF060
:10182300A3EBF0A3ECF0A3EDF022CAC0E0E6F0A333
:1018330008DAFAD0E0FA22CAC0E0E0A3C582CCC538
:1018430082C583CDC583F0A3C582CCC582C583CDB4
:10185300C583DAE6D0E0CA22C3E498F8E499F91222
:10186300189C8026C3E49AFAE49BFBE920E7E9127B
:10187300189CE498F8E499F922C3E498F8E499F9F8
:1018830012189CE498F8E499F9C3E49AFAE49BFBF0
:1018930022EB20E7CFE920E7E0B90010BB0008E81E
:1018A3008AF084F8AAF022E4FBC8FA22EB70227BC8
:1018B30010C833C8C933C9335007C39AC3DBF28096
:1018C300069A50012ADBEAC833F4C8C933F4C9FACB
:1018D3002275F008E4C833C8C933C933C99AC99B10
:1018E3005004C92AC93BD5F0ECFBC833F4C8E4C99A
:1018F300FA22600D08C6A2E713C618C613C6D5E0C0
:10190300F322600C08C6C313C618C613C6D5E0F489
:1019130022700422600D18C6C333C608C633C6D569
:10192300E0F41822251810AF08F5184002151980A5
:1019330008F51840021519D2AF22C0D0251810AFF0
:1019430008F518500205198008F51850020519D238
:10195300AFD0D0222518F58210AF08F51840021534
:10196300198008F51840021519D2AF85198322256D
:1019730018F582E43519F58322E4732518C582C06E
:10198300E0E51934FFC583C0E0E518C3958224F868
:1019930010AF08858319858218800885831985828D
:1019A30018D2AFCEF0A3E520F0A37808E608F0A3A1
:1019B300DEFAEFF0A3E58124FAF8E608F0A3E608DF
:1019C300F0A3E608F0A30808E608F0A3E608F0A3EE
:1019D30015811581D0E0FED0E0F8158115811581C0
:1019E300E8C0E0EEC0E0222518C582C0E0E5193466
:1019F300FFC583C0E0E518C3958224F910AF0885BD
:101A030083198582188008858319858218D2AFCE01
:101A1300F0A3E520F0A37808E608F0A3DEFAEFF0E0
:101A2300A3E58124FBF8E608F0A3E608F0A3080881
:101A3300E608F0A3E608F0A315811581D0E0FED0F7
:101A4300E0F815811581E8C0E0EEC0E02285198336
:101A5300851882E0A3FEE0A3F5207808E0A3F6084A
:101A6300DFFAE0A3FFE0A3C0E0E0A3C0E0E0A3C08F
:101A7300E0E0A3C0E0E0A3C0E010AF0885821885D2
:101A830083198008858218858319D2AFD083D082C9
:101A9300020135851983851882E0A3FEE0A3F520B2
:101AA3007808E0A3F608DFFAE0A3FFE0A3C0E0E0D4
:101AB300A3C0E0E0A3C0E0E0A3C0E010AF088582CC
:101AC300188583198008858218858319D2AFD0833E
:101AD300D08222C0D02518C582C0E0E51934FFC5E5
:101AE30083C0E0E518C3958224F310AF08858319FA
:101AF3008582188008858319858218D2AFC8F0A320
:101B0300E9F0A3EAF0A3EBF0A37908E709F0A3D87F
:101B1300FAECF0A3EDF0A3EEF0A3EFF0A3D0E0F026
:101B2300A3D0E0F0A3D0E0F0A3E520F0A3E5F0F02C
:101B3300A322851983851882E0C0E0A3E0F9A3E01E
:101B4300FAA3E0FBA37808E0F608A3DFFAE0FCA31E
:101B5300E0FDA3E0FEA3E0FFA3E0C0E0A3E0C0E05C
:101B6300A3E0F5D0A3E0F520A3E0A3F5F010AF08C0
:101B73008583198582188008858319858218D2AFD9
:101B8300D082D083D0E0F8D0E032740480067402AF
:101B930080027401C0E0F404121957D0E012182D2A
:101BA300227404800474028000CCC0E0EDC0E0E540
:101BB30018C39CCCAD1950011D10AF068C188D199C
:101BC30080068C188D19D2AF12183AD0E0FDD0E000
:101BD300FC22D083D082E9C0E0E493A3C386F0C59E
:101BE300F095F0F908E493A386F0C5F095F0700B37
:101BF300E493A3C3994005E9048002A3E475F002CA
:101C0300A42582F582E5F03583F583D0E0F9E493EA
:101C1300A3C0E0E493C0E022D083D082ECC0E0ED27
:101C2300C0E0E493A3FCE493A3FDED4C600D121C10
:101C330067EC24FFFCED34FFFD80EFE493A3FCE4A9
:101C430093A3FDED4C600D121CA6EC24FFFCED34B8
:101C5300FFFD80EFD0E0FDD0E0FCE493A3C0E0E41F
:101C630093C0E022C0E0C3E49396087401939618EE
:101C7300400FE4936670080874019366187000704F
:101C830019A3A3C3E49396087401939618A3A340DE
:101C93000DD0E0D0E0D0E0021C57A3A3A3A3A3A3DD
:101CA300D0E022C0E0C0F088F0E4936670080874C6
:101CB300019366187000A8F0A3A3700BD0F0D0E0D6
:0E1CC300D0E0D0E0021C57A3A3D0F0D0E02266
:101CD400C0E074F2121AD6A2AFE433FED2AFE589A3
:101CE400A2E04006E589A2E150031207CF758900FE
:101CF400758900C2C5751A00EEA2E092AF7F010299
:101D04001B35C0E0C0D0E8C0E0E5A8D2AFC2C775BB
:101D14001A00A2E792AFD0E0F8D0D0D0E03274F548
:101D24001219EAEAFEEBFFEE2434F8EF3400F988E6
:101D3400088909EE2435121E5AF8EE2437121E5A69
:101D4400F50AEC850AF0A4FCAAF0850AF0EDA42AB1
:101D5400FDE82CF8E43DF97A257B0012189CEA850D
:101D64000882850983F05407F87401B800028004DE
:101D7400C333D8FCC0E0E0131313541FF8EE28F863
:101D8400EF3400F9E8245DF582E93400F583D0E00E
:101D9400F8E0586008850882850983801DEE2436A2
:101DA400121E5AF5F0EA84A8F0EE28F8EF3400F990
:101DB400E82438F582E93400F583E0F97F04021A57
:101DC4009674F51219EAEAFEEBFFEE2434121E5A59
:101DD400C0E0EE2435F582EF3400F583D0E0F08ED8
:101DE400828F83A3A3A3A3A3E0FAA3E0FB8E828F35
:101DF40083A3A3A3A3A3A3A3E0FCA3E0FDECC39A42
:101E0400F50AED9BF50BEE2480F508EF3400F50997
:101E1400850882F583E06401702BEE2481F582EF5E
:101E24003400F583121BA8121E63740212193DE9D3
:101E340060137C207D07EEFAEFFB1210D585088233
:101E4400850983E4F0AC0AAD0BEEFAEFFB121D2218
:101E540012261A021DC0F582EF3400F583E022C079
:101E640082C083851882851983E0F8A3E0F9C3EA68
:101E74009CEB9D5012C3EC98ED994019C3EA98EB82
:101E840099501279018010C3EA98EB9940F5C3EC9C
:101E940098ED9950EE7900D083D08222EAC39CFA5F
:101EA400EB9DFB228521878522C622C0E074EF12B8
:101EB4001AD6759B00906182E0A2E64003021F706F
:101EC400E591A2E64003021F707591BF9005E5E01D
:101ED4006405700812127312127F8003121279754E
:101EE40021001212EBE99005E6F079001212DF12DC
:101EF400103F7A017B009005E4E0F912056B9078BD
:101F040003E064426003021FB9900782E014F060AA
:101F140003021FB9C2AF121F1D00782AD0E0F618C1
:101F2400D0E0F6E59F5407F97005908F6C8003901C
:101F34008F7478081217F7E9C4C0E07829E65508C9
:101F4400F50808E65509F509740B7808121905D047
:101F5400E02508F8906270E0A2E740F8E8C3339007
:101F64006272F0906270E0D2E0F08049E0A2E55045
:101F740024E591A2E5501E7591DF9005E5E0640D1E
:101F84007013900607E004F064287002E4F07A000D
:101F9400E0F912135D906181E0A2E35009E5E9A242
:101FA400E3500375E9F7A3E0A2E75009E591A2E73E
:101FB400500375917F7F04021B35C0E0C0D0C082FE
:101FC400C083906183E0A2E05009E5BFA2E0500322
:101FD40075BFFEE0A2E15009E5BFA2E1500375BF61
:101FE400FDE0A2E25009E5BFA2E2500375BFFBE0A9
:101FF400A2E35009E5BFA2E3500375BFF7E0A2E4F2
:102004005009E5BFA2E4500375BFEFE0A2E5500913
:10201400E5BFA2E5500375BFDFE0A2E65009E5BFC6
:10202400A2E6500375BFBFD083D082D0D0D0E032B7
:10203400C0E074F2121AD6E5A7A2E4500FE5A1A2FB
:10204400E4500953A7EF75A1EF122088E5A7A2E594
:10205400500CE5A1A2E5500653A7DF75A1DFE5A763
:10206400A2E15009E5A1A2E1500375A1FDE5A7A2F3
:10207400E2500CE5A1A2E2500653A7FB75A1FB7F39
:1020840001021B3574F81219EA7521019005E5E087
:10209400640670077A007B0012125BA2AFE433FE81
:1020A400D2AF9005EBE0640170187A207B009005B4
:1020B400E4E0F91205F57A207B009005E4E0F912DA
:1020C4000571906182E0D2E6F0900781E06021859D
:1020D400C62280169005EAE064017008E5C654F84B
:1020E4004405F5C653BEFC121EA87401652160E4C4
:1020F400EEA2E092AF7F01021A9600008E238F2495
:10210400858228858327851882851983E0CEA3E0FC
:10211400CF852882852783EBC9EAC8EDCBECCA7545
:10212400F010C3E833C8E933C9EA33CAEB33CBC38D
:10213400EA9EF526EB9FF525B35004AB25AA26ECC1
:1021440033CCED33CDD5F0DAAE23AF242274E912CB
:1021540019EA74FA121927EAFEEBFF8C088D09902C
:1021640005E5E024F7C394055006908FC802227851
:102174001211D78A0A8B0BEA450B700302227512DF
:1021840012918A0C8B0D121291EA650C7003EB65A7
:102194000D60ECEEFCEFFD851882851983AA82ABF5
:1021A40083121297850A82850B83A3A3780C1217D6
:1021B400F7908FA8780C1217D18518828519837827
:1021C400141217F7908FA878141217D1780C791479
:1021D400121576501F780C79141217A9908FD078A5
:1021E4000C1215964047850C10850D11850E12852D
:1021F4000F13804185141085151185161285171348
:102204007810790C1217A9908FD078101215965067
:102214001C75100075110075120075130178107982
:10222400141217A97810790C1217708008908FC8AF
:1022340078101217F774097810121751908FDC7800
:102244000C1217F77810790C1216359005E5E06436
:1022540008600AE064066005E06405701C908FACB9
:1022640078101215965012909014781012178380DB
:1022740008908F8878101217F7850882850983786B
:1022840010121806740612193D7F10021A9674F77C
:102294001219EA1212A990077FE06401701090628B
:1022A40045E4F0A3F053F4F343FE0C5390F31212FD
:1022B40049E5C654804449F5C6E59E547F64497097
:1022C400F8906185740FF090077DE0F47002A3E04C
:1022D400602C75080175090090077DE078081219D3
:1022E40014E508F4FAA3E0600814600A14600C8092
:1022F4000DEA52808008EA52908003EA52A07900E5
:102304007F02021A9674F71219EAE9FEEAFF7401D1
:102314006E700C7A807B009005E4E0F912056B90F6
:102324002628E493F46008E493F9121021800953F9
:10233400C680E59E547F70FA12124F90077FE064C6
:1023440001700312105790077DE0F47002A3E0605F
:102354002A75080175090090077DE07808121914A0
:10236400AA08A3E0600814600A14600C800DEA4215
:10237400808008EA42908003EA42A01211D78A08BA
:102384008B09A808A909E8496017E5E170FCE8246D
:1023940014F582E93400F583E0F874FF686002887C
:1023A400E174016F700A7A019005E4E0F91205C541
:1023B40002230474F11219EA8A088B098C0A8D0B22
:1023C400740F121972780C1217F7908FA8780812EC
:1023D40017D1908FA8780C1217D17808790C1215A0
:1023E4007650157808790C1217A9908FD0780812B6
:1023F4001596401579018013780C79081217A99065
:102404008FD0780C12159640EB79007F08021A964B
:1024140074ED1219EA8A088B098C0A8D0B74131255
:102424001972780C1217F7908FA878081217D190A8
:102434008FA8780C1217D1780C79081215764011F0
:102444007808790C1217A9AA08AB09AC0AAD0B805D
:10245400227510007511007512007513017810793A
:102464000C1217A978107908121770AA10AB11ACC6
:1024740012AD137F0C021A96908FA878081217F7E2
:102484008A828B8378081217E47F04021A9674F503
:102494001219EA8C828D8378081217F78A828B834B
:1024A40078081217BD1224E6C3E098F0A3E099124D
:1024B40024D8401E908F9C78081217F78A828B8349
:1024C40078081217968E828F83E02420F0A3E034DC
:1024D4004EF080A4F08E828F83C3E09420A3E09416
:1024E4004E22EA2404F8EB3400F9E8FEE9FF8C827A
:1024F4008D83A3A3A3A3E0F8A3E0F98E828F8322A4
:1025040074F51219EAE9FE900737E0FAA3E0FBEE4E
:10251400C333F8E433F974E728F582748E39F5830C
:10252400E02AF508A3E03BF5097808121B91908F87
:1025340098121815122100740212193D8A088B0989
:102544008C0A8D0B74107808121738AA08AB097F0F
:1025540004021A9674F11219EA8A0C8B0D8C0E8DF2
:102564000F740F121972E0FAA3E0FB7411121972BE
:10257400E0F508A3E0F5097413121972E0FEA3E074
:10258400FF7808121B91EA2401F508EB3400F509E1
:10259400E4F50AF50B780C79081215B5908F80785C
:1025A400081217F7780C79081215B5AA0CAB0DAC04
:1025B4000EAD0F122100740212193D8B09EA450970
:1025C40060047A0180027A00EC2AFCED3400FDEC10
:1025D400F8EDF97A717B0212189C88088909E4F5F0
:1025E4000AF50B8E828F837808121806ECF8EDF941
:1025F4007A717B0212189C8A088B09740578081278
:1026040019148E828F83A3A3A3A3E508F0A3E5097D
:10261400F07F08021A96C082C083E9906000F0D06F
:1026240083D08222FFFFFFFFFFFFFFFFC082C08332
:10263400E9900CFFF00228B474F712197EE99005B2
:1026440003F07C3B7D057AFF7BFF120D4B90050464
:1026540074FFF0A3F0A3E4F0A3F07905120CD39077
:102664000503E0F9120BFB7A697B0D120F31023579
:10267400C274F412197E8A088B09EB54806030907E
:102684000503E0F91205538A0A8B0BAE0AAF0BEE71
:102694004F60138E828F83E064B07003120CEBEEF4
:1026A400FAEFFB120541AA08E5096480FB80047A6D
:1026B400007B0002288374F212197E74FC1219271D
:1026C400EAFEEBFF7412121972123AA9EE4F70036C
:1026D40002275D7402121972EEF0A3EF122ABEEC07
:1026E400F0A3ED122ABEAA82AB83120BF5E9F50A18
:1026F400706AE508450960648E828F83123A8FEE12
:102704004F60567A067B001205AD8A0C8B0DA80C1F
:10271400A90DE8497005750A13804188828983E40C
:1027240012276AEEF0A3EF123ABAE508F0A3E5091E
:10273400F09005091227F1900509700512356C8097
:102744001B12355A8003EAFCEBFD8C828D83122721
:10275400F170F38C828D8380E3750A02A90A7404F4
:1027640012193D023CA9F0A3123A60A32274F2129A
:10277400197E890AE975F017A4FEAFF0900508E404
:10278400F09005061227F1600A1205B3900506E4DD
:10279400F0A3F0EEFAEFFB1205AD8A088B09EA45C7
:1027A40009602FEEFCEFFD790012052F900506E578
:1027B40008F0A3E509F07B0080081227DBE4F0A30E
:1027C400F00BEBC3950A40F2E50A900508F0790096
:1027D40080027913023CA9EB75F017A4F8A9F090D4
:1027E4000506E028FAA3E0398A82F583221231FE35
:1027F400EA4B2274F412197E740C121972123A8480
:10280400FEE9FF750800750900800CE5082401F550
:1028140008E5093400F509C3E5089CE5099D503233
:1028240085080A85090B7403780A121914EA250A23
:10283400F8EB350BF988828983A3A3A3A3A3A3127E
:102844003641EE650A7003EF650B70BFE8FAE9FBE9
:1028540080047A007B00802774F412197E7900EAE0
:10286400A2E0501B75084075098F7808121B917CF3
:10287400047D007A017B0D120CCD740212193D7F88
:1028840004021A50C082C0839005091228BB601C40
:1028940088828983A3A3E06A7003A3E06B8882899A
:1028A4008370E8A3A3A3A31231FA80047A007B0007
:1028B400D083D082020135123D8FE8492274EE1292
:1028C400197E74FC121927EAFEEBFF85188285191C
:1028D40083E4F0A3F0EE240212354CEE2405123A00
:1028E40067EE2404F50EEF122E73E024FE60392403
:1028F400FC604624FE605224FE605E24FE700302E7
:1029040029D424FE7003022A3824FE7003022A47C5
:1029140024FE7003022A5624FC7003022A6524FE56
:102924007003022A74022AB19005227417F0A3E4FA
:10293400122AC6120973022AB1851882851983AC3A
:1029440082AD83120CF1022A81851882851983AC29
:1029540082AD83120CF7022A81850C08850D097457
:1029640002121972AC82AD83850882850983123103
:10297400FA120C198A0C8B0DAC0CAD0DEC4D603BAE
:10298400E4F50CF50D780C121B91750C22750D05F0
:10299400780C121B91750C23750D05780C121B9184
:1029A4007408121972121BA8123F0B12193DE9F593
:1029B4000C700B1231F012098B800F750C01850815
:1029C40082850983122AB412356C850C08022A8484
:1029D4007402121972AC82AD83850C82850D831248
:1029E4002FC5603C850C82850D83A3A3121BA8759B
:1029F40010227511057810121B917510237511059D
:102A04007810121B917408121972121BA8123F0B32
:102A140012193DE9F509700B1231F0120991800F7A
:102A2400750901850C82850D83122AB412356C85D3
:102A34000908804C851882851983AC82AD83120CF9
:102A4400FD803A851882851983AC82AD83120D030B
:102A5400802B851882851983AC82AD83120D098081
:102A64001C851882851983AC82AD83120D0F800DED
:102A7400851882851983AC82AD83120D15E9F5089A
:102A8400E50860298E828F83A3E06414601F850E9D
:102A940082850F83E0900522122ABE123D8B900599
:102AA4002312356CE508A3122AC612096D02345BA1
:102AB400123D8F85188285198322F0851882851925
:102AC4008322F07C227D05850A82850B831231FEE8
:102AD4002274EE12197E74FC1219278A0A8B0B8C4D
:102AE4000E8D0FEA2405F508EB3400F5097C157DFD
:102AF4000079007A227B0512052FE5082402F50CE3
:102B0400E509123A6A8518828519838582108583BE
:102B1400117810121B91850882850983A3A3A3A3AE
:102B2400122FBC121B91E5082405F510E5093400A9
:102B3400F5117810121B91850C82850D83123311C7
:102B4400120C13740612193D8A108B11AE10AF11BA
:102B5400E50A2402F50AE50B12354FEE4F70030225
:102B64002C93801774021219721231FA88828983A5
:102B7400EAF0A3EBF0900522E004F0900522E0C314
:102B840094054003022C93E4F510F5117810121B00
:102B94009175100B7511057810121B9175100C7539
:102BA40011057810121B917406121972121BA87960
:102BB40010EEFCEFFD123F0D12193DE9705E850821
:102BC40082850983A3A3A3A3A3A3A3E0F890050B81
:102BD400E0687048122FBC121B917C0C7D05E5083F
:102BE4002408FAE5093400FB120529740212193D80
:102BF400E960298E828F83A3A3A3A31231FA9005DF
:102C040022E0F5107402781012191474232510F5BB
:102C14008274053511F583EAF0A3EBF074021219FE
:102C2400728582108583117810121B917402121917
:102C340072121BA8850C82850D8312322012193D55
:102C44008A108B11AE10AF11900522E0F5107511AA
:102C5400007402781012191474222510F8740535C2
:102C640011F988828983A31227F17003022B5FE88C
:102C74002403080808E93400F9EE4F6003022B68C6
:102C84008882898374FFF0A3F0900522E004F09019
:102C94000522E0600A1231F012097F7900800B8569
:102CA4000882850983123563790A02345B74EA1257
:102CB400197E74FE1219278C128D13EA2405F50C63
:102CC400EB123EF5123A93750800750900EA2402E6
:102CD400F510EB3400F51185188285198385820A75
:102CE40085830B780A121B91850C82850D83A3A31F
:102CF400A3A3122E89121B91E50C2405F50AE50DF8
:102D040012354F780A121B91850C82850D83122E81
:102D14008D120C13740612193D8A0A8B0BEA450BAB
:102D24007003022E2EEA2404F50EEB122E73123ACF
:102D3400938A828B83A3A3A3E0F9851082851183F0
:102D44001232046003022E2EE4F514F515781412E1
:102D54001B9175140B7515057814121B9175140CC1
:102D64007515057814121B917406121972121BA89A
:102D74007913AC0AAD0B851082851183123F1312AF
:102D8400193DE9F5096003022E2E90050BE0F8E5E4
:102D9400087009E02402900523F08014900523E0D4
:102DA400FCE82402FAE43400FBEA6C7001EB707E68
:102DB400850882AA82122FB39414122FAB506B850C
:102DC4000E82850F83E0C0E074242A122E6AD0E0BC
:102DD400F00508850E82850F83A3E0C0E085080A0C
:102DE4007424250A122E6AD0E0F0050890050B120F
:102DF4002E89121B917C0C7D0585080A7424250AF2
:102E0400122E7D12193D90050BE02508F50874FF7C
:102E14006E700374FF6F6012EE24010EEF3400FF36
:102E2400E508C394145003022CDBE5086013123246
:102E34000E8510828511831231FA1209857900807A
:102E440014E509700375090A851282851383EEF06F
:102E5400A3EFF0A909740212193D7F0E021A5085DE
:102E6400080C7424250CF58274053400F58322348F
:102E740000F50F850E82F58322FA74053400FB12E7
:102E84000517740222123AC922A3A3122E93221206
:102E9400355AFDEEFAEFFB2274EE12197E74FE121F
:102EA40019278C0E8D0FEA2405F50CEB123A6A757E
:102EB4000B00900522E4F0F50AEA2402F508EB344D
:102EC40000F5098044900522E0FA90050BE0F81221
:102ED4002FB39417122FAB400D900522E0F874160F
:102EE400C39890050BF0122FBC121B917C0C7D052E
:102EF40074232AFA7405122E8012193D90050BE0F2
:102F0400F8900522E028F0050AE50C2416F582E580
:102F14000D122E6EE0F8E50AC3985074900522E075
:102F2400C39416506BE50AC333F8E433F9E50C286F
:102F3400FEE50D39FF851882851983AC82AD838E39
:102F4400828F83122FC57008750B0112355F805074
:102F5400E4F510F5117810121B9175100B7511051D
:102F64007810121B9175100C7511057810121B91B5
:102F74007406121972121BA87916850882850983B2
:102F8400123F1312193DE9F50B7003022EC980BBE1
:102F94007C227D058508828509831231FA120997FE
:102FA400A90B740202345DE99400C365D03322EAAC
:102FB40028F8E43400F9E822E0F5107511007810DF
:102FC400221234528A108B11AC10AD11EC4D2274C4
:102FD400EA12197E74FC1219278A0C8B0D8C128D3F
:102FE40013EA2405F50AEB12354F7508007509003C
:102FF400E50A2402F510E50B3400F51174021219E8
:103004007285820E85830F780E121B91850A828544
:103014000B83A3A3A3A3123A6F121B91E50A240501
:10302400F50EE50B3400F50F780E121B9185108216
:103034008511831235551231F4120C1374061219CA
:103044003D8A0E8B0FAE0EAF0FE50C2402F50EE594
:103054000D3400F50F80388882898374FFF00508E9
:10306400122E6374FFF0050890050BE0F50C750D46
:1030740000780C121B917C0C7D0585080C742425AA
:103084000C122E7D12193D90050BE02508F508EE73
:103094004F60278E828F83A3A3A3E0F9850E8285D8
:1030A4000F83123204EE2404123A67E96027850C78
:1030B40082850D831231E612356CE5087003023106
:1030C400CC12320E850E82850F831231FA12099DBD
:1030D40079000231E1E4F514F5157814121B9175A9
:1030E400140B7515057814121B9175140C751505C0
:1030F4007814121B917408121972121BA87911EE1C
:10310400FCEFFD850E82850F83123F1312193DE9F2
:10311400F509709A850882AA82EA90050B7009E085
:103124002404900523F08025E0F8900523E0F514AD
:10313400E82404FCE43400FDEC65147001ED7081B6
:10314400122FB39412122FAB40030230C5850C82A8
:10315400850D83E0C0E074242A122E6AD0E0F005C5
:1031640008850C82850D83A3E0C0E0122E63D0E0B5
:1031740012322985820C85830D780C121B917404FC
:10318400121972121BA88510828511831232201223
:10319400193D8A0C8B0DAE0CAF0D85080C742425DB
:1031A4000CF874053400F9EE4F700302305B851897
:1031B40082851983E088828983123229A3E0C0E0E2
:1031C400122E63D0E0023069E509700375090A859F
:1031D4000A82850B831231E612356CA90974040244
:1031E4002E5B123D8F851282851383227C227D05FE
:1031F400850A82850B831231FE22E0FAA3E0FB22CA
:103204001231FE120C01E9F50922900523E0F5F0D4
:10321400E50884900522F07C227D0522122E93126B
:103224000C1F740422F00508851882851983227402
:10323400EC12197E74FE1219278A088B098C0E8DE4
:103244000FEA2405FEEB3400FF12343CEE2418127E
:103254003A67EA450B70030232DF12342550291213
:1032640033048A108B11EA4511606B7912AC0AADF4
:103274000B8508828509831231FA851082851183B2
:1032840012197CE9F50A7058E4F50AF50B780A126C
:103294001B918E828F83A3A3E0F50A780A121B91F7
:1032A400EE240312354C780A121B918E828F8312FE
:1032B4003311120D39740612193DE9F50A7021858E
:1032C4000C82850D83E0701F850882850983123185
:1032D400FA1209A38011750A0E8009750A01800487
:1032E400E50A600312355F850C82850D83E0600476
:1032F40079008002A90A740212193D7F0C021A5047
:103304008518828519831231FE120D272212355A2F
:10331400FD8508828509831231FE2274EE12197E1E
:1033240074FE1219278A088B098C0C8D0DEA24056A
:10333400FEEB3400FF750E0012343CEA450B7003BB
:10334400023403123425502C1233048A0E8B0FEAF4
:10335400450F604A7912AC0AAD0B85088285098352
:103364001231FA850E82850F8312197CE9F50E60FD
:1033740003023406850882850983123641AA0AFBB2
:1033840012341770147AFF7BFF123417606C888232
:103394008983E50AF0A3E50BF0750A008007750E32
:1033A4000E805F050A900508E0FAE50AC39A504AC0
:1033B400E50A75F017A4FAABF088828983A3A3E029
:1033C4002AFAA3E03BFB8A828B83123555EC4D70BD
:1033D400D2750A17750B00780A121B91EEFCEFFDEB
:1033E400120517740212193DEEFCEFFD8508828563
:1033F40009831231FA1209A98014750E0980037524
:103404000E01123D87850C82850D8312356CA90E41
:10341400022FA6120D1B8A108B11A810A911E849BE
:1034240022E5082402F508E5093400F5098A828BAF
:1034340083A3A3A3E0A2E522851882851983AC8225
:10344400AD838E828F831234528A0A8B0B22E0FA68
:10345400A3E0FB120C1922740412193D7F0A021A0C
:103464005074EC12197E8C108D11EA2405F50CEBC6
:10347400123A6A750F00EA2402F50AEB12354F85F9
:103484000A82F5831231FA123F99700302354175AD
:103494000E008071850C82850D83E06401704F8E6F
:1034A400828F83A3A3121BA88E828F83A3A3A3A3BB
:1034B400E0F5127513007812121B91EE2405F51233
:1034C400EF3400F5137812121B911231F4120D39F6
:1034D400740612193DE9F50F6014850C82850D837D
:1034E400E4F0123D8785108285118312356C7C17B8
:1034F4007D007900EEFAEFFB12052F8E828F83E4B4
:10350400F0A3F0050E900508E0F8E50EC398501EF0
:10351400E50E75F017A4F8A9F0850882850983A340
:10352400A3123EFF123555EC4D6003023498850812
:103534008285098374FFF0A3F0E50F70061231F45D
:103544001209AFA90F0232FFF50AEF3400F50B227E
:10355400A312355AFD22E0FCA3E0228E828F83124F
:103564003D8F850E82850F83E8F0A3E9F022C082A7
:10357400C083900504E06A7003A3E06B70067A04CC
:103584007B0580047A007B000228B474F712197E4C
:103594007F00EF75F003A4F8A9F0EC28F8ED39F9F1
:1035A40088828983E06A7003A3E06B7006E8FAE915
:1035B400FB800B0FEFC3940240D87A007B007F019D
:1035C400021A5074F612197E123B7870067A007B48
:1035D400008007A3A3A3A31231FA023C3974F212A8
:1035E400197EE9FE740E1219721236417410121902
:1035F40072123AA98C828D83E06402703BA3123D5F
:103604008B88828983E0F50CA3E0F9A80C74026826
:1036140070037429697021750C02750D00780C1201
:103624001B917808121B91780A121B91EEF9120D66
:103634005D740612193D80027901023CA9E0F50A85
:10364400A3E0F50B2274E812197E74FB121927E922
:10365400851882851983F08A168B178C0E8D0F744A
:103664001F121972123AA974211219721236417476
:1036740023121972123A937510008C828D83A3A3BE
:10368400A3E0A2E4502A741D12197212330A8A822A
:103694008B83E58245837003023755790AAC0EADFE
:1036A4000FAA16AB1712197CE9F5106003023758FC
:1036B400850E82850F83E064026003023A0EA31232
:1036C4003D8B850882850983A3858212858313E552
:1036D4000E2406F50CE50F123A6A88828983E0FA13
:1036E400A3E0F9EA2400F514E439F5157814121C62
:1036F4001B0100002801281D3707000228F43703A6
:1037040028643700291E39012946390229ED380376
:10371400291E390429AF390E3AEE4F703E850C82CA
:10372400850D83123A84FAE9FB8A828B83E0850A49
:1037340082850B83123AC0121B918A828B83A31257
:10374400355AFDAA08AB09120517740212193D80F7
:103754000375100EA9107405023EED75100B80F46C
:10376400EE4F70F7850A82850B837401F0123A9943
:10377400850882850983F07C007D00850E82850F93
:1037840083A3A3A3A3E02401FAA3E03400FB120C57
:1037940019EA4B60418A828B83E02402F8850A820D
:1037A400850B83E028F0EA2404F8EB3400F98882DE
:1037B4008983E0851282851383123AD2123AC012A9
:1037C4001B918A828B83123554E5082403FAE50998
:1037D4003400FB02374B850A82850B83E02404F016
:1037E4007C047D007900AA12AB1312052F0237580E
:1037F400EE4F600302375F123A99FEA3E0FF850A99
:1038040082850B837404F0EE850882850983F0EFCA
:10381400851282851383F07403121972AC82AD830E
:10382400EEFAEFFB123B6670030238CA8A828B837E
:10383400A3A3123A8F740112197285820E85830F25
:10384400780E121B917405121972121BA87CFF7D4D
:10385400FF120C1F740412193D8B0FEA450F7033CD
:10386400850C82850D83123A6F121B91850C82851B
:103874000D83A3121BA87C027D007A517B90120A4F
:103884004B740412193DE9700A740112197274FF21
:10389400F0A3F08E828F83E064027034750C02759D
:1038A4000D00780C121B918E828F83123554E5081B
:1038B4002404FAE509122E8012193D850A82850B2B
:1038C40083E0240280097401121972EEF0A3EFF070
:1038D4007401121972123A80F07401121972A3124F
:1038E4003A78A3A3A3F0023758EE4F600302375F80
:1038F400850C82850D83123555AA16AB17120D510E
:10390400850A82850B837402F0EA8508828509831F
:10391400F0851282851383EB80CBEE4F6003023770
:103924005F123A99F8A3E0F9850A82850B83740241
:10393400F0E8850882850983F0E98512828513837E
:1039440080A3850C82850D831231FA120511EAFCDD
:103954008C82A882C39EE49F404BE86E7001EF7096
:10396400047C00801F851882851983E0FAEE2AFA08
:10397400EF3400FBC3EA98EB94005003E08004EEBC
:10398400CCC39CFCEC850A82850B83F08C0A750BF6
:1039940000780A121B91850C82850D83E02EFCA30E
:1039A400E03F023746751007023758EE4F600302B6
:1039B400375F850C82850D83123D8B850A82850BCA
:1039C400837407F088828983123A78123A60E0851A
:1039D4001282851383F0E82402FAE93400FB8A8218
:1039E4008B83123A78123AB1123A80A3123ABA127D
:1039F4003A89F0E82405F8E93400F98882898312C9
:103A04003A89A3123AD2A30238E6741D121972122B
:103A14003B717003023755123D8B880C890DE845C4
:103A24000D70030237558E108F117810121B917888
:103A34000A121B917808121B917406121972E0F98C
:103A4400AC0EAD0FAA16AB17850C82850D83121927
:103A54007C740612193DE9F510023758F088828902
:103A640083A322F50CEF3400F50D22E0F50E750F5B
:103A740000780E22E085088285098322123AD92231
:103A8400123D8FE822123AD9A3A322A3A3A3A3E051
:103A9400FEA3E0FF22850C82850D83E0F8A3E0F508
:103AA400838882E022E0F508A3E0F50922A3A3F0CD
:103AB4008A828B83A32212276CA3A322F08A828B8F
:103AC40083123AC922E0F50A750B00780A22123AE9
:103AD40060123AD922E0850882850983A3A322745F
:103AE400EE12197E74FE1219278A0A8B0BECFAED7A
:103AF400FB7414121972E0F510A3E0F51174161298
:103B04001972E0FE7418121972E0F50EA3E0F50FB5
:103B1400851882851983AC82AD83123B66603E852D
:103B24001882851983123B71602FA3A3123AA9E569
:103B34000845096024780E121B917810121B91EE2F
:103B4400F9AC0CAD0DAA0AAB0B850882850983126A
:103B5400197C740412193D8006790E8002790102E1
:103B64002FA6120C198A0C8B0DEA450D221231FE78
:103B7400123B7822120CE58A828B83E582458322EC
:103B840074F612197E74FE121927740C121972122B
:103B94003A84851882851983F07401121972E9F048
:103BA400E4F508F5097808121B91750802780812E3
:103BB4001B9174041219728582088583097808128E
:103BC4001B91120D39740612193D740212193D80AD
:103BD4006474F712197EEAFEEBFF89087C3B7D05CD
:103BE400120D51EA5402600BA908EEFAEFFB120C15
:103BF4000D800279010235C274F612197E74FF6ACF
:103C0400700374FF6B701C7B00EB75F003A4F8A9C0
:103C1400F0EC28F8ED39F9123C3E0BEBC39402505A
:103C24001480E6120D218A088B09A808A909E8491D
:103C34006003123C3E7F02021A508882898374FF1B
:103C440012276AE4F02274F612197E120D218A8278
:103C54008B83E58245836006A3A3E0FA80027A00A1
:103C64007B0080D174F212197E8A088B09ECFEED78
:103C7400FF740E121972E0F50A123CAE701CEEFCD1
:103C8400EFFD7AFF7BFF123CAE7004791180168839
:103C9400828983E508F0A3E509F088828983A3A3D8
:103CA400E50AF079007F06021A50120D218A0C8B66
:103CB4000DA80CA90DE8492274EE12197EEAFEEB58
:103CC400FF8C088D09890C7412121972123D8B74C1
:103CD4001412197212355574161219721231FA75BA
:103CE4000D00EC4D6003023D7F7402650C6003021D
:103CF4003D7A8882898312355AF9EC2400F50EE462
:103D040039F50FEAF4F8EBF4F9EC58F8E50F59F942
:103D1400E849705DE5082406F8E5093400F9880AE5
:103D2400890B8882F583122E8F120D518A108B1104
:103D3400E50E65107004E50F65116042780E121BE4
:103D440091850A82850B83122E8F120D57740212ED
:103D5400193DE9F50D7027780E121B9185088285AF
:103D64000983A3A3122E8D120D6F740212193D80C4
:103D74000D750D808008750D0D8003750D0BA90D53
:103D84000234608E828F83123D8F22E0F8A3E0F923
:103D94002274E812197E74E712192785188285198E
:103DA40083EAF0A3EBF08C168D17890E7431121987
:103DB40072E0F512A3E0F5137433121972E0F514EE
:103DC400A3E0F5157435121972E0F50F7508007546
:103DD4000900E50975F003A4F8A9F085188285198E
:103DE40083123EFFE0F47003A3E0F47003023EDDAF
:103DF400EE2402F50CEF123EF5E07003023EDD8581
:103E0400160A85170B780A121B91AC14AD15AA1269
:103E1400AB13120CD9740212193D8A0A8B0BEA45B2
:103E24000B7003023EDDE4F510F5117810121B91BE
:103E340074061219728582108583117810121B91F1
:103E440074091219728582108583117810121B91DE
:103E5400851282851383A3A3A3A3121BA87914AC90
:103E64000AAD0B8E828F83123F1312193DE97069DC
:103E7400850A82850B83A3A3A3A3123D8B7402122C
:103E8400197212356C850C82850D83E0A2E05018FE
:103E9400A90E7402121972AC82AD838E828F8312C2
:103EA40031FA120C31E94208850C82850D83E0A2B7
:103EB400E15026E50FF50A780A121B95A90E740342
:103EC400121972AC82AD838E828F831231FA120C76
:103ED4002B740112193DE942080509E509C394024E
:103EE4005003023DD6A908741912193D7F10021A15
:103EF400503400F50D850C82F58322E028FEA3E002
:103F040039FF8E828F83227916850A82850B83126C
:103F140031FE120D3374082274F212197EEAFEEB9C
:103F2400FF890B7401650B600E7402650B70637975
:103F340001120F4FE9705BEEFAEFFB123F996047F5
:103F4400750A00800B7C177D00790012052F050A85
:103F5400900508E0F8E50AC3985021E50A75F017C2
:103F6400A4F8A9F0850882850983A3A3E028FAA30D
:103F7400E039FB8A828B831228BB70C9850882854D
:103F8400098374FFF0A3F07C3B7D05EEFAEFFB128E
:103F94000D4B023CA9120D1B8A088B09EA45092224
:103FA40074F212197E8A088B09ECFEEDFF740E126E
:103FB4001972123641900CFFE0F4603D7A097B00DF
:103FC40012053BEA4B60328A828B8374B1F0A3E41E
:103FD400123AB3A3123AB1A3E508F0A3E5091240DB
:103FE40000EEF0A3EF124000A3A3E50AF0A3E50B53
:103FF400F0900CFFE0F9120547023CA9F08A828B8D
:1040040083A3A3A3A3A32274F412197EE9FF7E0061
:104014008A088B097808121BD500040DBC413E4068
:104024005A406F4084409940AE40CA40E340F54056
:104034002341454161417D419B4174016F70128C64
:10404400828D83E0C394035008E0900B4FF002414B
:10405400DA7E180241DA74026F70F68C828D831254
:104064004918900B50E8F0A3E980E274016F70E105
:104074008C828D83E0C3940250D7E09002CE80CD31
:1040840074016F70CC8C828D83E0C3940550C2E0C0
:104094009002CF80B874016F70B78C828D83E0C3B7
:1040A400940250ADE09002D080A374106F70A2759A
:1040B40008108E097808121B917AD17B02124CDC0D
:1040C40012193D0241DA74016F70868C828D83E08F
:1040D400C394024003024055E09002E1024051744F
:1040E400016F60030240558C828D83E0900B5380F6
:1040F4008D74046F6003024055908F9878081217EE
:10410400F78D838C82780812158640030240558C03
:10411400828D831218159002E31218210241DAEFFE
:104124006003024055120BB9E9700E120739795039
:104134001208E312072D0241DA900376740102405B
:104144005174016F60030240558C828D83E0C394E7
:10415400024003024055E09002E202405174016FB4
:1041640060030240558C828D83E0C3940A400302AD
:104174004055E0900B5202405174016F60030240BD
:10418400558C828D83E024F9C3940A400302405580
:10419400E0900B5402405174016F6003024055904B
:1041A4000375E0F88C828D83E0900375F0E8702647
:1041B400E064017021024137C3EA9426EB94005075
:1041C4001374026F700E8C828D83124912120A5777
:1041D400E9FE80020E0EEEF90241E4740E12193D5E
:1041E4007F04021A5074F012197E74CC1219278CB1
:1041F4000A8D0B7444121972E0FE7420121972AC09
:1042040082AD8375838F758234740612183A7420D4
:10421400121972AC82AD831206DFE9F508C3940A61
:10422400400302434D75F006E9A4F50974261219FA
:1042340072AC82AD837A0E74202509124D947009F4
:104244007432121972E0FF80027F00900B4FE06419
:1042540002700474018001E4F50D780D121B95EED3
:10426400FDEFFCA908AA0AAB0B120763740112192B
:104274003D7C147D007900740C121972AA82AB8300
:1042840012052F740C121972AC82AD837A10742447
:104294002509124D9470377C1079FF740C12197231
:1042A400124AC17029741C121972AC82AD837A044B
:1042B40074252509F91208DD740C121972AC82AD4B
:1042C40083EFA2E0E433F9AA0AAB0B120AE18518E2
:1042D40082851983AC82AD837A0C74702508124DE3
:1042E400947055851882851983AA82AB8312070FAF
:1042F400750800E50875F003A4F8A9F0851882850F
:104304001983E58228F8E583124AFD124912EC4D1F
:10431400601D88828983A3A3E0F50E750F00780ED3
:10432400121B91AA0AAB0B120D3F740212193D0520
:1043340008E508C3940440BBEFA2E1500C9002CD01
:10434400E0F9AA0AAB0B120D4574046E702A900BA7
:104354004FE0640270229002E1E060047A0180027E
:104364007A009002CEE06004780480027800E84A83
:10437400F9AA0AAB0B120BA17900743412193D7F10
:1043840008021A5074F012197EEAFEEBFF8C088DB5
:1043940009750A0AE9600C14600914602E14607F20
:1043A40002442E120721E9F50AC3940A507CE50859
:1043B40045096076750E06750F00780E121B91EE96
:1043C400FCEFFD124CD812193D805F750B00750E81
:1043D40006750F00780E121B91EEFCEFFDE50B75D0
:1043E400F00EA4F8A9F074EF28FA740239FB120550
:1043F40029740212193DE9601B850B0AE50AC3946E
:104404000A5027E50845096021AA08AB09A90A1240
:10441400071B8016050BE50BC3940A500D80AF12E1
:104424000727E9F50AC3940A40D9A90A0243837409
:10443400F412197E890875091574FF6A700374FFF4
:104444006B70277E00AC087A027B00EEF91206FD41
:10445400E960037509000EEEC3940A40E8E50860BC
:10446400497A517B07120F618040120F438A0A8BED
:104474000BAE0AAF0BEE4F602E7C007D00EE2405E0
:10448400FAEF3400FB8E828F8312452A500CAC085D
:104494007A027B001206FD750900E508600CEEFA4D
:1044A400EFFB1207518003750914A9090241E47452
:1044B400F212197EECFEEDFF740E12197212490508
:1044C40075081574FF6A700374FF6B702175090019
:1044D400AC0AAD0BEEFAEFFBA909120703E960037E
:1044E4007508000509E509C3940A503580E2120FE6
:1044F400438A828B83E582458360237C007D00E5CB
:10450400822405FAE5833400FB12452A5013AC0AD1
:10451400AD0BEEFAEFFB1207037508008003750874
:1045240014A908025303A3A3A3A3E0F91206DFE925
:10453400C3940A22C082C0839002E7EAF0A3EBF09E
:104544009002CDE0FC7D007A257B00120A57900290
:10455400CDE0F9120CBBD083D08202013574EA128B
:10456400197E74EC121927EAFEEBFFEE240CF51405
:10457400EF3400F515EE240AF510EF3400F511EED2
:104584002405F50EEF3400F50FEE2409F50AEF3497
:1045940000F50BEE2403F508EF3400F5098E828F45
:1045A40083A3A3E024FA70030248CE24FD7003021F
:1045B40047FD14700302464C14601024FD7003027E
:1045C40047CE1470030248320248EC124931604A63
:1045D400E0F5838882124918880C890DE8450D603E
:1045E40039851482851583E0F50E780E121B95EE3D
:1045F400240BF582EF3400F583E0F9850A82850BFC
:10460400831249120A0A0AAB09850C82850D8312AA
:10461400197C740112193D0248EC850A82850B83CA
:10462400121BA89002E3121815120AF3740212194D
:104634003DE970030248EC7901850A82850B8312F7
:104644005128120AED0248EC8E828F83A3858212D0
:10465400858313E060030247A7850E82850F83E0FC
:10466400A2E040030247A77C0E7D007900851882F2
:10467400851983AA82AB8312052FEE2408F50AEF6D
:104684003400F50B850A82F5831249346019750CE0
:1046940006750D00780C121B91850A82850B83E048
:1046A4002410FCA3E0801A1248F6EA4B7003024877
:1046B400EC750C06750D00780C121B91EA2405FCB0
:1046C400EB3400FD7402121972AA82AB83124CDC23
:1046D40012193D850E82850F83E0A2E25004D2F0C8
:1046E4008002C2F0A2F0E433F8740C121972E048AC
:1046F400F0851082851183124934601585108285F6
:104704001183E02410F8A3E03400F98882898380BF
:1047140003908F9C780C1217F785108285118312F1
:104724004934600F851082851183E0F510A3E0F50C
:10473400118006751000751100850A82850B83129D
:104744004934600B850A82850B83124905800675FE
:104754000A00750B00780C121B8D7810121B9178CF
:104764000A121B91851482851583121BA88E828FD1
:1047740083A312490D740A121972AA82AB83120719
:1047840015740A12193D8508828509831249189007
:104794000377E8F0A3E9F07A017B009002CDE0F919
:1047A40012056B12493170030248EC12491E700362
:1047B4000248EC851282851383E0FC7901125122B0
:1047C4008E828F8312197C0248EC124931700302E5
:1047D40048ECE0F5838882A3A3124918890BE845C5
:1047E4000B70030248EC8E828F83A3E0FC790212E3
:1047F40051228882850B8380CB7C007D00EE2404CB
:10480400FAEF3400FB850882850983E0F91206DF9C
:10481400E9F8C3940A40030248ECAC10AD117A04E1
:1048240075F006E8A42425F91208D70248EC900292
:10483400E2E0600E900B52E0F9850882850983025C
:104844004643900B4FE07004790580ED1248F68AD8
:104854000C8B0DA80CA90DE82404F50CE93400F523
:104864000D8E828F83A3A3A3A3A3A3A3E0A2E050EE
:1048740036E8496073850C82850D83E0FE602885E7
:104884000A82850B83E05410701D740E121972ACE9
:1048940082AD83E82405FAE93400FBEEF91206DF61
:1048A400E9700479038092AC0EAD0F850C82850DFE
:1048B40083E0F912512212075D124931602A12492C
:1048C4001E60257C0079000247C1120BB9E97018FB
:1048D400900376E064017008120739900376E4F0DF
:1048E40079501208E312072D741412193D7F0E0239
:1048F4001A50850882850983E0FAA3E0FB120F436E
:1049040022E0F50AA3E0F50B22A3A3A3A3A3E0FCF2
:10491400A3E0FD22E0F8A3E0F922E0F5838882A376
:10492400A3E0F8A3E0F9E8FEE9FFEE4F229002E7E6
:10493400E0F8A3E0F9E8492274F412197E74F21243
:104944001927EAFE8C0B75F006E9A42420F50885E6
:104954001882851983AC82AD837A0E124D94704A05
:104964007C06124AB97043740C121972124918E881
:10497400F509E50B6005EE42098004EEF452098561
:104984000982AA82E86A7001E9601B740C12197228
:10499400EAF0A3E4F0851882851983AC82AD837AAA
:1049A4000EA9081208D77901800279000241DF7448
:1049B400F212197E74E6121927890A8A088B09EC07
:1049C400FEEDFF740C121972124D876003024A6DDA
:1049D4007C0679FF740C121972124AC16003024AF0
:1049E4006D7470250AF50B851882851983AC82AD28
:1049F400837A0C124D946003024AB2851882851999
:104A040083AA82AB8312070FE508450970217C0C49
:104A14007900124ABB6003024AB27C0C7D00790023
:104A2400851882851983AA82AB8312052F8061853C
:104A34001882851983AC82AD83AA08AB09120709D1
:104A44008A0C8B0DA80CA90DE849702CEE4F601947
:104A5400851882851983AC82AD837A007B001207A6
:104A640009EAF8EBF9EA4B700479008043888289FB
:104A740083E508F0A3E509F0124B39FAEE6A7001F8
:104A8400EF602BEEF04F700888828983E4F0A3F086
:104A9400851882851983AA82AB8312070F85188231
:104AA400851983AC82AD837A0CA90B1208D77901DE
:104AB400741A02530079FF851882851983AA82AB80
:104AC4008312058FE92274F712197E7F00EF75F0C7
:104AD40003A4F8A9F0EC28F8ED124AFDE06A70038B
:104AE400A3E06B7006E8FAE9FB800B0FEFC39404B4
:104AF40040DB7A007B00024E3239F98882898322B6
:104B040074F712197E7E00EE75F003A4F8A9F0EA9A
:104B140028F8EB124AFDE0F4FCA3E0F4FD88828956
:104B240083ECF0A3EDF0124B39F4F00EEEC39404D1
:104B340040D5024E32E82402F582E93400F583E0E0
:104B44002274EE12197E74F4121927EAFEEBFF8C1C
:104B54000A8D0B741E121972E0F50CA3E0F50D74A6
:104B640020121972E0F508A3E0F5097422121972F3
:104B7400E0F510A3E0F511EE4F7005790A024C6AD6
:104B8400120721E9F50EC3940A4023750F007C0631
:104B940079FFE50F75F00EA4FAABF074E92AFA7404
:104BA400023BFB124AC57003024C74850F0EE50EDE
:104BB400C3940A4003024C6875F006E50EA4F50F91
:104BC400EEFCEFFD7A0E7420124C85E50A450B606D
:104BD4000BAC0AAD0B7A1B7421124C85E50C450D08
:104BE400600BAC0CAD0D7A1B7422124C85E50845A4
:104BF40009600BAC08AD097A107423124C85E510DA
:104C04004511601BAC10AD117A107424124C8574DC
:104C140024121972AC82AD837A047425124C857CFB
:104C24000C7D0079FF1253917A0C7470250EF912E1
:104C340008D775080E7509007808121B91EEFCEF71
:104C4400FDE50E75F00EA4F8A9F074E928FA7402D3
:104C540039FB124CDC12193D900375E06003120716
:104C640069120757A90E740C12193D7F0A021A50D3
:104C7400050FE50FC3940A5003024B92750E0A8088
:104C8400E3250FF91208D72274F412197E74F21274
:104C94001927EAFEEBFFE9C3940A5004EE4F7004AF
:104CA4007902802D851882851983124D87F5087045
:104CB4001E750A06750B00780A121B9174021219EC
:104CC40072AC82AD83EEFAEFFB124CDC12193DA9F3
:104CD400080241DFAA08AB0912051774022274F412
:104CE40012197EEAFEEBFF750800750A06750B00C3
:104CF400780A121B91EEFCEFFDE50875F00EA4F89E
:104D0400A9F074E928FA740239FB12052974021215
:104D1400193DE96004A908800B0508E508C3940A55
:104D240040C8790A0241E474F712197E74F012192A
:104D340027EAFEEBFF750800851882851983AC828B
:104D4400AD837A1075F006E508A42423124D9470FF
:104D54001F7C10124AB97018EEFCEFFD851882858D
:104D64001983AA82AB83120AC3E97004A908800BD1
:104D74000508E508C3940A40BF790A741012193D66
:104D8400024E32AC82AD837A0E75F006E9A424207B
:104D9400F91208DDE92274F712197E750800E50896
:104DA40075F00EA4F8A9F074E928FE740239FFEE38
:104DB400FCEFFD7A0E75F006E508124D91602C7C2F
:104DC400067D0079FFEEFAEFFB12052F7C067D00CD
:104DD40079FFEE2406FAEF3400FB12052FEE240CC3
:104DE400F582EF3400F583E4F0A3F00508E508C389
:104DF400940A40AA900375E06003120769120757EA
:104E0400802C74F712197E7E007F007C0679FFEFF8
:104E140075F00EA4FAABF074E92AFA74023BFB12A3
:104E24004AC570010E0FEFC3940A40DFEEF97F010B
:104E3400021A5074F712197E7E00EEF912073F0E23
:104E4400EEC3940A5003E960F180E374F312197E0F
:104E540074CB121927E9FF75F006A4F50874202510
:104E640008FE7427121972AC82AD837A0EEE124DCD
:104E7400946003024F517C0679FF74271219721251
:104E84004AC16003024F517C0E7D0079FF742712E2
:104E94001972AA82AB8312052F7C1B7D0079FF74E3
:104EA4000C121972AA82AB8312052F7C0C7D007937
:104EB400FF851882851983AA82AB8312052F742774
:104EC400121972AC82AD837A0EEEF91208D7E9F5A5
:104ED40009740C121972AC82AD837A1B7421124FBF
:104EE40060FE740C121972AC82AD837A1B742212A8
:104EF4004F60F50A740C121972AC82AD837A107487
:104F040023124F60F50B740C121972AC82AD837AC4
:104F1400107424124F60F50C740C121972AC82AD2B
:104F2400837A047425124F60F508851882851983E5
:104F3400AC82AD837A0C74702FF91208D7E9F8EEBD
:104F4400450A450B450C450848420980037509008C
:104F5400A909743512193D7F05021A502508F91262
:104F640008D7E92274F712197EE99002CDF01207EE
:104F74002D024E3274F212197E74FB1219278A081C
:104F84008B09EB5480700302501C9002CDE0F9129F
:104F940005538A0A8B0BA80AA90BE8FEE9FFE84926
:104FA400606CEE2404F8EF3400F98E828F83E024E1
:104FB40050603814600624E1604A804B88828983FB
:104FC400E070448E828F83A3A3A3A3A3A3A3121B85
:104FD400A88E828F8312490D8E828F83A3A31251D0
:104FE400281206EB740212193D801C88828983E022
:104FF400641E701379008E828F83A3A3125128122A
:1050040006E580031206F7EEFAEFFB120541AA0843
:10501400E5096480FB02511DEAA2E0400302511934
:10502400900377124905740312197285820C8583E3
:105034000D780C121B91750C02750D00780C121B67
:1050440091750C4B750D90780C121B917CFF7DFFB4
:105054007A017B00120C13740612193D025101E40B
:10506400F50CF50D780C121B9174041219728582DB
:105074000C85830D780C121B9174041219728582AD
:105084000C85830D780C121B917409121972121B72
:10509400A87902EEFCEFFDAA0AAB0B120D337408DB
:1050A40012193DE97035851882851983E0FA740177
:1050B400121972E0F9EA2400F50CE439F50DEA4519
:1050C4000D6018780C121B918E828F8312490EAAE0
:1050D4000AAB0B1206EB740212193DE4F50CF50D44
:1050E400780C121B917405121972121BA87CFF7D97
:1050F400FFEEFAEFFB120C1F740412193D8A0C8B9D
:105104000DAE0CAF0DEE4F6003025063E508640171
:10511400FAAB0980047A007B007405025300850809
:1051240082850983E0FAA3E0FB22C082C083900257
:10513400CDE0F98A828B83A3125128120D450245D2
:105144005AC082C08374FF121927120733E9C3942B
:1051540002851882851983400474028002740AF05F
:10516400AC82AD837A017905120BD1740112193D19
:1051740002455A74F212197E74E8121927EAFEEBFA
:10518400FF890A8C088D097C187D007900125399D7
:10519400EEF0A3EFF09002CFE0C0E07402121972B7
:1051A400D0E0F09002D0E0C0E07403121972D0E0B5
:1051B400F0900B54E0C0E07417121972D0E0F07450
:1051C40015121972E054FEF8A3E0F9900B53E0A213
:1051D400E0E433FAE84AF8741512197212530FA274
:1051E400E15004D2F08002C2F0E854FDFAA2F0E4E7
:1051F4003333F8EA48F8741512197212530FA2E304
:105204005004D2F08002C2F0E854F7FAA2F0E4337A
:10521400F50C750D007403780C121914125308124E
:10522400197212530FA2E45004D2F08002C2F0E8C3
:1052340054EFFAA2F0E433F50C7404780C12191448
:1052440012530812197212530FA2E55004D2F080BF
:1052540002C2F0E854DFFAA2F0E433F50C740578E6
:105264000C12191412530812197212530FA2E2509D
:1052740004D2F08002C2F0E854FBFAA2F0E433F561
:105284000C7402780C121914125308121972E8F0F3
:10529400A3E9F09002D0E0601B750C10780C121B8F
:1052A400917CD17D027406121972AA82AB83124CCE
:1052B400DC12193D9002E1E06011E50A6009741501
:1052C400121972E04402F07801800278007414121A
:1052D4001972E048F09002CEE0600478048002780D
:1052E400007414121972E048F0AC08AD09851882F4
:1052F400851983AA82AB83120AE7741812193D7FB9
:1053040006021A50EA450CF8741522E8F0A3E9F0F5
:10531400900B53E02274F312197E74E5121927EAF4
:10532400FEEBFF8C098D0A7428121972E0F50C75D6
:10533400F006E9A4F87408650A7004742280027403
:105344002128F50B7C1B7D0079001253917A1BA94F
:105354000B124D957032741A121972E024F9C39429
:105364000A5025E50CF50B780B121B9574011219E4
:1053740072AC82AD83E509A2E0E433F9EEFAEFFB07
:10538400120AF9740112193D741B024F58125399F1
:10539400AC82AD8322851882851983AA82AB8312DD
:1053A400052F8518828519832274F712197E120D30
:1053B400B7750800E50875F00EA4F8A9F074E9289B
:1053C400FE740239FF7C0679FFEEFAEFFB124AC540
:1053D4007009EEFAEFFB7900120DBD0508E508C36C
:1053E400940A40D0024E32C082C08390619074040B
:1053F400F0A37448F0A3E4F09061807440F09061ED
:10540400BC7407F09061877469F09061B67416F00B
:105414007900121045790212104B902628E493F477
:105424006006E493F9121021790512133F02582DF6
:10543400C082C083E9540FF9906185E0696012E588
:10544400C654804449F5C6E59E547F644970F8E922
:10545400F053C680E59E547F70FA02582D74F712FB
:10546400197EE5A8FE53A87E12102DC2BA539AFEE7
:10547400C289759B00C2C212103375A91175B90592
:10548400121039D2BA439A0174805E42A8025DBAFE
:10549400C082C083906181E4F0A302582A75E900B8
:1054A40075910075BF00020135C082C0839061818F
:1054B400E4F0A374C0F0A3E402582CC082C0837447
:1054C400F81219279005E7125C9CE849700302550D
:1054D400769005E7E05440602379088518828519A1
:1054E40083AA82AB8312113B851882851983AA8211
:1054F400AB83120DE19005E7E054BFF0E054806007
:1055040010790C7AA37B0712113B9005E7E0547FD6
:10551400F0E0A2E05008790012557E54FEF0E05409
:10552400026008790112557E54FDF0E054046008CD
:10553400790012558954FBF0E0540860087901128F
:10554400558954F7F0E054106008790212558954D3
:10555400EFF0E054206008790312558954DFF0A37A
:10556400E05401600D121057120DF39005E8E05459
:10557400FEF0740812193D02582D121045120DE761
:105584009005E7E02212104B120DED9005E7E022A2
:10559400C082C083E9600514602A804F90619A74C8
:1055A40033F0A37455F09061A0743AF090077FE053
:1055B40064017009C2919005E97467802D9005E932
:1055C4007461802690619A743FF0A3745AF09061DC
:1055D400A0747FF090077FE064017009D291900578
:1055E400E9747180059005E9746AF002582DC0824F
:1055F400C083E9600B14600D14600F1460118020E7
:1056040090262C801590262D801090262E800B90AD
:10561400077FE0640160F390262FE493906186F0A5
:1056240002582D74EE12197E74F41219278518820B
:10563400851983AC82AD8375838F7582707404126F
:10564400183A90262C93F460030257B9907808E036
:10565400C3940250030257997404121972AC82ADB8
:105664008375838F758220740812183AF97AFF7B48
:10567400FF7FFF7E008982858210801874086E7017
:105684000302574E74096E700302574E740A6E700B
:105694000302574EE510C333FCE433FD74041219BE
:1056A40072E5822CF582E5833DF583E0F50EA3E0F7
:1056B400F50F8E08750900740278081219147448DD
:1056C4002508FC74783509FD8C828D8378081217BF
:1056D400F77408780812173885080C85090D8C8230
:1056E4008D8378081217F774187808121738E50CA8
:1056F4004508F508E50DF509C3E50E9508E50F9590
:10570400098C828D8378081217F78C828D83780830
:105714001217F7741878084014121738E50C450866
:10572400FCAD0DE50EC39CFCE50F9D800F121738F0
:10573400E50C4508C3950EFCE50D950FFDC3EC9AE9
:10574400ED9B5006ECFAEDFBEEFF0EEEC394135006
:105754000302568074FF6A700374FF6B602D8F0818
:10576400740278081219147448126448747835095C
:10577400F58378081217F7851882851983E5822541
:1057840010F582E5831261D5E508F009E9C39404B4
:1057940050030256717508017509007808121B91AF
:1057A4007402121972AC82AD837A8B7B091207AB37
:1057B400740212193D740C12193D7F0A021A50C06A
:1057C40082C083906186E0F890262FE49368700984
:1057D40090262EE493906186F09061AE7468F0A3F5
:1057E400746AF090624574FBF0A304F053F4FD4333
:1057F400FE0290077F7401F09061A0E0643A7004A7
:1058040079008002790112104502582DC082C083AC
:10581400900731E06401700A900736E06004790C67
:10582400800279008003F0A3F0D083D08202013596
:10583400C082C08375E1F1900734E0604D146008C4
:10584400146051146049805112106990072AE0F9DC
:105854007A2B7B071212C1908F681218151212F757
:10586400908FB01218151212CD900735E0F912126C
:10587400D97901121333900728E024161259C274FF
:1058840081F0A37410F07900809F12106F80BC1215
:10589400107580B712107B80B2791280EB74F41209
:1058A400197E75D90D900719E0A2E0E4331313F8BB
:1058B40012592E484401F5D978001259AC40FB78AE
:1058C400008808741A12644874071259B640F275B5
:1058D400E195900719E0F97A1A7B071212C7900D27
:1058E4002174F7F0A3740F1259D11259F11259E827
:1058F400125B2912593878081217F7908F647808C8
:10590400121783908FA878081217D11259BC7808FF
:10591400121806900728E024141259C27413F09048
:1059240005E57402F07F04021A5090072AE0C4339C
:105934003354C022900728E0F8A3E0F5838882A3BB
:10594400A32274F612197E125AFA8AD978001259CF
:10595400AC40FB78008006125A60125BACE8C39935
:1059640040F5125AEC1259AC40FB780080081264DE
:10597400447407125BACE8C39940F375E195900D4C
:10598400217403F0A374101259D11259DB121815A3
:105994001259BC121821900728E024141259C27419
:1059A40012F09005E5025D978808742B2508F582AE
:1059B4007407125D08940622900728E0240EF8A3C9
:1059C400E01259C9223400F98882898322125B12B9
:1059D40074FDF0A3740F221259F11259E8125B2DD1
:1059E400908F9C22F0A37415F0A37410221259F521
:1059F400221259F922F0A374A7F0A374112274F6A9
:105A040012197E125A5512592E4402F5D9780012F1
:105A140059AC40FB78008006125A60125BACE8C3B4
:105A24009940F575E195900D21125A6BF0A3125A25
:105A34006B1259DE1218151259BC1218219007283E
:105A4400E024141259C27414F09005E57404025D44
:105A54009990073AE0F9740729F5D9228808743B2C
:105A64002508F582740722740F125A78125A78F0B6
:105A7400A3741022F0A37410F0A3740F2274F6120E
:105A8400197E125AFA74064AF5D978001259AC40B4
:105A9400FB78008006125A60125BACE8C39940F5AB
:105AA400125AEC1259AC40FB78008008126444741A
:105AB40007125BACE8C39940F375E195900D21742E
:105AC40009F0A37410125B081259DB12181512594D
:105AD400BC121821900728E024141259C27415F03E
:105AE4009005E57403025D9990075A125A5874049C
:105AF4004AF5D9780022125A5590072AE0C4333364
:105B040054C0FA22125B1274A7F0A3741122125B20
:105B14001622125B2374A7F0A37411125B232212C2
:105B240059F9F0A322125B2D22F0900D2F74A7F0E7
:105B3400A37411125B1674A7F0A374111259F5F033
