:020000040000FA
:0600000002010A021DFFCF
:03002B000222802E
:0300330002226244
:03003B0002229905
:0300430002221680
:03005300021E7218
:03006B0002223C32
:10008300021CB3E5C754F84401F5C7790122000007
:100093000080FB120086B900030200F4E4792178A2
:1000A30008B800028004F709D8FCE479297802B87B
:1000B30000028004F709D8FCE4900281786879098A
:1000C3008002F0A3D8FCD9FA900AE8AA82AB839005
:1000D300013A78FF79038015E493A3AC82AD838A58
:1000E300828B83F0A3AA82AB838C828D83D8E9D9D8
:1000F300E775822B7583A3740312011C75829175B6
:100103008300740012011C75D00075813F7518813E
:10011300751902759F00020096C09FF59FE473D086
:100123009F22D083D082C09FE493C0E0740193C028
:10013300E0740293F59F22FF0000B400002800281A
:1001430000283075A000A000A000A000000800084F
:10015300E001F0001000100010001000100010006B
:1001630050005000500010001000D00700000000A5
:1001730000000F00010005003075070010000100AA
:1001830081FF0000FF360654063C06FF0202020808
:10019300025000A0000000E803028B840100007CF1
:1001A3008402A9840100003D0B028D84010000B28A
:1001B3000202A9840100003E0B027F84010000C8F3
:1001C3000202A9840100003F0B028184010000CADE
:1001D3000202A984010000400B028384080000CBC3
:1001E3000202A984010000410B0285840100004240
:1001F3000BFF0100FF20028B84010000768402A91B
:1002030084010000A60B0287840000000000028F17
:10021300840300001803060C060C060C060C060CDF
:10022300060C060C060C060C060C060C060C060C3B
:10023300820E9A0E7C0EFFFF0202020202020202EB
:1002430002010D0000001001028B8401000079847B
:1002530002A984010000E90B02A3840100009207B4
:1002630002A984010000EA0B029D8401000055836A
:1002730002A984010000EB0B029B840100002C8384
:1002830002A984010000EC0B02998401000095820D
:1002930002A984010000ED0B029784010000B982DA
:1002A30002A984010000EE0B029584010000A782DD
:1002B30002A984010000EF0B0293840100008382F2
:1002C30002A984010000F00B02B9840100003A8303
:1002D30002A984010000F10B029184010000F20BDA
:1002E30001E803053F10FF0001307503020106001A
:1002F30000000000000000000000000000000000FB
:100303000000000000000000000000FFFF06008066
:100313000CE803140953696D706C65424C455065D4
:10032300726970686572616C051214001400020A28
:10033300000201060302F0FF47686F737479755377
:10034300657269616C41707000000000000E13005B
:100353000014130A4368617261637465726973748C
:100363006963203100024368617261637465726975
:100373007374696320320008436861726163746552
:100383007269737469632033001043686172616337
:10039300746572697374696320340002436861721F
:1003A30061637465726973746963203500028B84B9
:1003B300010000738402A984010000040D02B184CA
:1003C300030000C60A029F84010000050D02A984F0
:1003D300010000160D02B384010000DA0A029F84B3
:1003E300010000170D02A984010000280D02B58445
:1003F300020000DB0A029F84010000290D02A98488
:100403000100003A0D02B784000000DC0A028F8469
:10041300030000DD0A029F840100003B0D02A98452
:100423000100004C0D02A584040000E30A029F842E
:100433000100004D0D120125B69503120125CD953E
:1004430003120125FC95031201253596031201259C
:100453005D96031201258B9603120125A2960312C2
:100463000125B99603120125CF9603120125F696AD
:10047300031201250997031201251F970312012572
:1004830032970312012557970312012511A4021273
:10049300012510A50212012545A50212012566A515
:1004A3000212012576A50212012597A50212012544
:1004B300A3A60212012570A702120125E3A70212C7
:1004C300012569A802120125ACA802120125E3A89F
:1004D3000212012569A9021201253BAA0212012574
:1004E30099AA02120125B1AA021201252BAB02120D
:1004F30001252EAB0212012531AB02120125D8AB27
:1005030002120125F0AB0212012520AC02120125D3
:1005130040AC021201252EAD02120125E4AD0212F8
:10052300012546FB011201256EFB011201259CFBEF
:1005330001120125D3FB011201253BFC0112012508
:1005430084FC01120125CFFC011201250DFD0112CE
:1005530001254AFD0112012578FD011201251FFE27
:100563000112012529FE0112012536FE0112012582
:1005730069FE011201252BFF0112012537FF01122C
:1005830001254FFF0112012559FF01120125509F3B
:10059300031201255E9F03120125769F0312012595
:1005A3008E9F03120125CBA70112012569A8011211
:1005B3000125E1A801120125F6A90112012530AA9E
:1005C30001120125D9AA01120125AEAB01120125A1
:1005D30012AD0112012569AD01120125F0AD011221
:1005E3000125D7AE0112012524AF01120125B2AFB7
:1005F30001120125D6AF01120125ABB1011201256C
:10060300ECB1011201250EB2011201258FB20112C4
:10061300012579B3011201253FB40112012541CE11
:100623000212012513CF02120125BCCF02120125AC
:10063300FFCF021201258CD00212012518D102121C
:100643000125F9D10212012528D20212012524D352
:10065300021201256CD3021201256ED40212012568
:10066300B2D402120125D8D40212012570A10312BB
:100673000125A3F802120125B9F802120125DFF8BA
:100683000212012507FA0212012511FA02120125AD
:100693006AFB021201256AFC021201254DD50212E2
:1006A300012582D602120125B5D602120125FFD6F5
:1006B30002120125BDD8021201256E9801120125EF
:1006C300D19801120125169A01120125269A0112C9
:1006D3000125499A01120125949A01120125399B9A
:1006E300011201252F9C01120125F99C01120125FC
:1006F300719E01120125B39E01120125519F011222
:1007030001259E9F01120125C49F01120125B2A15B
:1007130001120125B7A10112012598A30112012598
:10072300ECA3011201254EA40112012576A40112A6
:1007330001251AA501120125DCA5011201250DA62B
:100743000112012510A60112012558A60112012547
:100753009AA60112012501A7011201256F8D03122B
:100763000125828D031201259B8D03120125E68D40
:1007730003120125C18E03120125508F0312012597
:100783009B8F031201250C2300120125182300124D
:1007930001255123001201259623001201254D2422
:1007A30000120125D324001201253825001201254A
:1007B3006425001201259D2500120125B127001291
:1007C30001258D2900120125782B00120125AF2C5C
:1007D300001201250F2F00120125FB2F0012012506
:1007E3004131001201254E32001201256B320012F5
:1007F3000125A33200120125BD3200120125253344
:1008030000120125BF3700120125603800120125AF
:10081300B13800120125D8380012012526390012FB
:100823000125443900120125983900120125713A36
:1008330000120125F83B00120125803C001201251E
:1008430077DF0212012581DF021201254CE002123B
:10085300012567E0021201258DE002120125D1E096
:100863000212012509E10212012532E102120125DA
:10087300ABE102120125C0E102120125D5E102120A
:1008830001250CE20212012520E20212012551E2A8
:10089300021201258BE202120125B7E202120125A1
:1008A3002EE30212012577E302120125A1E30212CE
:1008B3000125C6E302120125B7F40212012581F5D1
:1008C3000212012564F602120125DAF6021201254D
:1008D3001CF70212012549F80212012500800212B9
:1008E30001252980021201254280021201258781F8
:1008F300021201256582021201258482021201255A
:10090300118302120125548302120125A1840212CC
:100913000125408502120125BF8702120125568851
:10092300021201252A89021201250C8A02120125CD
:10093300788B021201250B8C02120125449D0312B0
:100943000125AD9D03120125019E03120125289E59
:1009530003120125EEE3021201255BE402120125D5
:10096300A6E4021201259BE50212012597E6021275
:10097300012581E7021201254FAE0212012591AE36
:10098300021201256BAF0212012544B002120125A8
:100993003FB1021201251EB2021201258AB20212D0
:1009A300012551B302120125BCB30212012523B460
:1009B300021201254EB402120125BFB40212012511
:1009C30052B502120125BBB502120125D0B50212A0
:1009D300012518B60212012531B60212012596B679
:1009E3000212012599B602120125918703120125EE
:1009F300B98703120125F78703120125B58803126E
:100A030001252089031201253C89031201256489EC
:100A130003120125948903120125A38903120125D9
:100A23001D8A03120125438A03120125F2C4011210
:100A33000125CFC601120125CAC8011201259DC98E
:100A430001120125E8C90112012533CA011201254A
:100A530045CA0112012585CA01120125BACA01122C
:100A6300012506CB0112012535CB0112012558CBF7
:100A730001120125A5CB011201252ECC011201255E
:100A83003BCE0112012526D00112012569D00112A6
:100A93000125CED1011201250FD20112012582D2E7
:100AA30001120125CED201120125828C02120125E9
:100AB300AD8C02120125949302120125B8950212FE
:100AC3000125739702120125D09802120125E73CF4
:100AD300001201257E3D00120125C43D00120125AF
:100AE300033F001201259A40001201251441001210
:100AF30001252F4100120125A44100120125D342F3
:100B0300001201252E440012012530450012012553
:100B13008D4600120125A646001201250347001247
:100B23000125E547001201251848001201258848D0
:100B33000012012502490012012551490012012525
:100B43001D4A00120125224B00120125014C0012FF
:100B530001258C4C00120125FA4C001201256E4D23
:100B630000120125974D00120125564E0012012552
:100B7300D04F00120125ED4F001201250C50001239
:100B830001259D5000120125C25000120125EA5093
:100B930000120125655100120125BF5100120125E4
:100BA300135300120125D05300120125A354001240
:100BB3000125F9D20112012549D30112012555D38B
:100BC3000112012532D40112012562D4011201253B
:100BD3009AD40112012519D50112012551D501120B
:100BE3000125A3D501120125E0D50112012505D860
:100BF3000112012531DA011201252CDC0112012534
:100C030007DE01120125F87F00120125BD840112C0
:100C13000125078501120125E68A01120125678C4A
:100C230001120125C69201120125C193011201256A
:100C3300FE930112012521940112012563940112EF
:100C430001256C9401120125769401120125629508
:100C530001120125569601120125D15400120125D6
:100C6300495F001201254F5F001201255B660012E8
:100C7300012574FC0212012572FD02120125C8FD33
:100C83000212012506FE0212012563FE021201254E
:100C9300E0FE02120125E9FE02120125F5FE021211
:100CA300012508FF0212012544FF021201255AFF04
:100CB3000212012543E80212012550E80212012520
:100CC3006AE802120125A9E802120125E7E80212E7
:100CD30001254CE90212012561E9021201256CE9A3
:100CE3000212012579E90212012590E90212012578
:100CF3009EE902120125A9E902120125B5E90212B2
:100D03000125C4E902120125CFE902120125F2E906
:100D1300021201259BEA02120125ABEA0212012508
:100D2300C5EA02120125E2EA02120125FEEA0212D5
:100D3300012523EB021201252DEB0212012541EBC4
:100D43000212012560EB02120125C1EB02120125FB
:100D5300C7EB02120125CDEB02120125D3EB0212E0
:100D63000125DFEB0212012512EC02120125CDE071
:100D7300011201254FE101120125F8E101120125BC
:100D830040E3011201254EE50112012534E601126B
:100D9300012569E6011201258BE60112012534E7DD
:100DA3000112012504E9011201252DE90112012592
:100DB300A5E901120125D7E901120125E4E9011290
:100DC30001252FEA0112012553EA01120125A4ECA2
:100DD30001120125AEED011201250AEE01120125D2
:100DE30074B60112012585B70112012569B80112F4
:100DF300012573B80112012595B801120125A1B887
:100E03000112012545BA0112012572BA0112012509
:100E130088BB01120125DDBB011201252CBD011286
:100E2300012501BE011201255DBE01120125C8BEC7
:100E330001120125FDBE0112012540BF011201254A
:100E43000AC20112012522C201120125B3C20112F5
:100E53000125C1C2011201250EC3011201251CC3C4
:100E63000112012588C30112012503C401120125C2
:100E73005AC401120125F398021201251599021291
:100E83000125269B02120125E59D021201250F9FD4
:100E930002120125CD9F02120125B9A002120125DC
:100EA300FD93031201252294031201259894031242
:100EB300012524C7021201252DC70212012536C7B9
:100EC300021201250EC802120125BFC90212012513
:100ED300EFC9021201251ACA021201254ACA0212D7
:100EE300012575CA02120125A9CA02120125D5CA14
:100EF3000212012518CB0212012543CB0212012550
:100F03008ACB02120125DFCB0212012521CC02126A
:100F130001257BCC02120125A6CC02120125F5CCBA
:100F23000212012525CD0212012550CD0212012501
:100F33007ECD02120125A1CD02120125F9A10312D2
:100F4300012525A20312012552A2031201255CA249
:100F5300031201256CA203120125F3BE021201251F
:100F6300FDBE021201253EBF0212012587BF0212F8
:100F73000125C1BF0212012517C00212012538C085
:100F830002120125E7C202120125F0C20212012555
:100F930044C3021201256DC30212012577C3021255
:100FA3000125E5C30212012575C402120125D0C42F
:100FB30002120125FEC40212012586C50212012573
:100FC300C5C502120125FAC5021201250CC602127B
:100FD30001252BC60212012534C602120125F6C6CD
:100FE30002120125599E031201250C9203120125B9
:100FF300429203120125769203120125C393031231
:1010030001258AFF02120125A0FF02120125AAFF72
:101013000212012576A2031201258FEC021201258B
:10102300A2EC0212012566ED02120125A5ED0212C2
:101033000125C2ED02120125FBED0212012548EE46
:10104300021201257AEE02120125B1EE02120125E8
:101053007B9A031201259E9A03120125CD9A03124E
:101063000125659B03120125A79B03120125F09B14
:1010730003120125049C031201257A9C0312012506
:10108300EB9C03120125F79C031201258B8A0312A3
:101093000125B08A03120125DA8A03120125D5A29C
:1010A30003120125166B00120125F46C00120125B1
:1010B300936E001201253E6F00120125BE6F0012D0
:1010C30001254370001201256C700012012547743D
:1010D30000120125BE7400120125D57500120125E9
:1010E3000F76001201255076001201259777001222
:1010F3000125ED7700120125367800120125A57828
:1011030000120125117900120125427900120125EF
:101113005A7900120125737A00120125837A00128D
:101123000125397C00120125507C00120125827CA7
:1011330000120125247E00120125B87E001201252C
:1011430027A00312012538A0031201257EA3031251
:101153000125BDA30312012570A403120125D8A004
:1011630003120125E8A00312012500A103120125A2
:1011730066A103120125F67E001201257B7F001272
:101183000125DF7F001201250199031201252A9908
:1011930003120125959903120125E69903120125EE
:1011A300419A03120125C4F002120125F1F0021243
:1011B300012563F10212012578F10212012599F24A
:1011C300021201251CF30212012595F302120125D7
:1011D300B4F302120125D7F30212012514F402120B
:1011E30001252CF40212012582F402120125EEFFDF
:1011F30001120125008003120125908003120125AD
:10120300198103120125B5810312012546820312B8
:101213000125F6820312012504830312012582832B
:1012230003120125958303120125AB8303120125C4
:10123300B58303120125C88303120125699703129D
:101243000125BB97031201252E98031201259B98B4
:1012530003120125C58F03120125EF8F0312012508
:10126300BE90031201259A9103120125BDB6021205
:10127300012589B702120125CAB70212012504B854
:101283000212012562B802120125B6B80212012525
:1012930014B902120125AAB902120125B2BA021227
:1012A30001253CBC02120125DABC0212012541BD15
:1012B3000212012554BD0212012548BE0212012566
:1012C30091BE0212012557EE0112012589F1011287
:1012D30001251AF30112012571F3011201258EF381
:1012E300011201250EF4011201258AF501120125CF
:1012F30059F601120125C6F901120125B0FA0112AE
:10130300012573DA02120125E7DC0212012551DD02
:101313000212012567DE02120125F6DE0212012503
:10132300CB83031201251084031201252D8403129C
:101333000125E884031201254485031201251D8636
:1013430003120125588703120125FDA3031201256A
:10135300C7A3031201252AA40312012552A403E003
:1013630066701008A3E066700A08A3E066700408BC
:10137300A3E06622C3E7960809E7960809E79608FB
:1013830009E79622C3E09608A3E09608A3E096082F
:10139300A3E09622C008C3E096F50808A3E09642AE
:1013A3000808A3E096420808A3E09645087001D315
:1013B300D00822080808EAC0E0EBC0E086F0E7A402
:1013C300FA180986F0E7A42AFA180986F0E7A42A8E
:1013D300FA180986F0E7A42AFA1986F0E7A4FBE5D0
:1013E300F02AFA190886F0E7A42BFBE5F03AFA197C
:1013F3000886F0E7A42BFBE5F03AFA18180986F003
:10140300E7A4C5F02BFBE43AFA1908E7C5F0C6A434
:1014130026F6E5F03BFBE43AFA1886F0E7A4F6E596
:10142300F00826F6E43B08F6E43A08F6D0E0FBD0F1
:10143300E0FA22E4CFC0E0E4CEC0E0E4CDC0E0E4D3
:10144300CCC0E075F020C3E633F608E633F608E6D1
:1014530033F608E633F6181818EC33FCED33FDEEDB
:1014630033FEEF33FFC3EC9709ED9709EE9709EFCE
:1014730097191919400FFFEC97FC09ED97FD09EE39
:1014830097FE191906D5F0BEECF709EDF709EEF74B
:1014930009EFF7191919D0E0FCD0E0FDD0E0FED038
:1014A300E0FF226016080808C6C313C618C613C691
:1014B30018C613C618C613C6D5E0EA227009080871
:1014C30008226016181818C6C333C608C633C608E0
:1014D300C633C608C633C6D5E0EA22E627F60809AE
:1014E300E637F60809E637F60809E637F622E02676
:1014F300F608A3E036F608A3E036F608A3E036F6CE
:1015030022E026F008A3E036F008A3E036F008A3B3
:10151300E036F022C3E697F60809E697F60809E6EF
:1015230097F60809E697F622C3E096F008A3E0963B
:10153300F008A3E096F008A3E096F022E056F60840
:10154300A3E056F608A3E056F608A3E056F622E019
:1015530056F008A3E056F008A3E056F008A3E056BF
:10156300F022E0F608A3E0F608A3E0F608A3E0F60D
:1015730022E6F008A3E6F008A3E6F008A3E6F022CB
:10158300E0FAA3E0FBA3E0FCA3E0FD22EAF0A3EB77
:10159300F0A3ECF0A3EDF022CAC0E0E6F0A308DA72
:1015A300FAD0E0FA22CAC0E0E0A3C582CCC582C566
:1015B30083CDC583F0A3C582CCC582C583CDC58346
:1015C300DAE6D0E0CA22C3E498F8E499F912160ADD
:1015D3008026C3E49AFAE49BFBE920E7E912160AA2
:1015E300E498F8E499F922C3E498F8E499F9121617
:1015F3000AE498F8E499F9C3E49AFAE49BFB22EB32
:1016030020E7CFE920E7E0B90010BB0008E88AF043
:1016130084F8AAF022E4FBC8FA22EB70227B10C8FC
:1016230033C8C933C9335007C39AC3DBF280069A60
:1016330050012ADBEAC833F4C8C933F4C9FA227566
:10164300F008E4C833C8C933C933C99AC99B5004E5
:10165300C92AC93BD5F0ECFBC833F4C8E4C9FA2264
:10166300600D08C6A2E713C618C613C6D5E0F32259
:10167300600C08C6C313C618C613C6D5E0F422709F
:101683000422600D18C6C333C608C633C6D5E0F4BA
:101693001822251810AF08F518400215198008F50F
:1016A3001840021519D2AF22C0D0251810AF08F583
:1016B30018500205198008F51850020519D2AFD049
:1016C300D0222518F58210AF08F5184002151980AD
:1016D30008F51840021519D2AF851983222518F58C
:1016E30082E43519F58322E4732518C582C0E0E549
:1016F3001934FFC583C0E0E518C3958224F810AF01
:10170300088583198582188008858319858218D2F4
:10171300AFCEF0A3E520F0A37808E608F0A3DEFA45
:10172300EFF0A3E58124FAF8E608F0A3E608F0A3B6
:10173300E608F0A30808E608F0A3E608F0A315817D
:101743001581D0E0FED0E0F8158115811581E8C040
:10175300E0EEC0E0222518C582C0E0E51934FFC5DC
:1017630083C0E0E518C3958224F910AF0885831977
:101773008582188008858319858218D2AFCEF0A39D
:10178300E520F0A37808E608F0A3DEFAEFF0A3E57E
:101793008124FBF8E608F0A3E608F0A30808E608AE
:1017A300F0A3E608F0A315811581D0E0FED0E0F8A0
:1017B30015811581E8C0E0EEC0E022851983851804
:1017C30082E0A3FEE0A3F5207808E0A3F608DFFAA1
:1017D300E0A3FFE0A3C0E0E0A3C0E0E0A3C0E0E03B
:1017E300A3C0E0E0A3C0E010AF0885821885831989
:1017F3008008858218858319D2AFD083D0820201F5
:1018030022851983851882E0A3FEE0A3F5207808DA
:10181300E0A3F608DFFAE0A3FFE0A3C0E0E0A3C083
:10182300E0E0A3C0E0E0A3C0E010AF088582188524
:1018330083198008858218858319D2AFD083D0821B
:1018430022C0D02518C582C0E0E51934FFC583C086
:10185300E0E518C3958224F310AF088583198582C8
:10186300188008858319858218D2AFC8F0A3E9F0E0
:10187300A3EAF0A3EBF0A37908E709F0A3D8FAEC05
:10188300F0A3EDF0A3EEF0A3EFF0A3D0E0F0A3D02C
:10189300E0F0A3D0E0F0A3E520F0A3E5F0F0A3226D
:1018A300851983851882E0C0E0A3E0F9A3E0FAA3D9
:1018B300E0FBA37808E0F608A3DFFAE0FCA3E0FD71
:1018C300A3E0FEA3E0FFA3E0C0E0A3E0C0E0A3E049
:1018D300F5D0A3E0F520A3E0A3F5F010AF088583CE
:1018E300198582188008858319858218D2AFD08222
:1018F300D083D0E0F8D0E032740480067402800212
:101903007401C0E0F4041216C5D0E012159B2274D2
:1019130004800474028000CCC0E0EDC0E0E518C38D
:101923009CCCAD1950011D10AF068C188D19800683
:101933008C188D19D2AF1215A8D0E0FDD0E0FC228F
:10194300D083D082E9C0E0E493A3C386F0C5F095C9
:10195300F0F908E493A386F0C5F095F0700BE493D7
:10196300A3C3994005E9048002A3E475F002A4250A
:1019730082F582E5F03583F583D0E0F9E493A3C0E3
:10198300E0E493C0E022D083D082ECC0E0EDC0E07D
:10199300E493A3FCE493A3FDED4C600D1219D5EC85
:1019A30024FFFCED34FFFD80EFE493A3FCE493A359
:1019B300FDED4C600D121A14EC24FFFCED34FFFD19
:1019C30080EFD0E0FDD0E0FCE493A3C0E0E493C05B
:1019D300E022C0E0C3E49396087401939618400F85
:1019E300E49366700808740193661870007019A375
:1019F300A3C3E49396087401939618A3A3400DD050
:101A0300E0D0E0D0E00219C5A3A3A3A3A3A3D0E031
:101A130022C0E0C0F088F0E4936670080874019374
:101A230066187000A8F0A3A3700BD0F0D0E0D0E04C
:0C1A3300D0E00219C5A3A3D0F0D0E0223F
:101A400074F5121758EAFEEBFFEE2434F8EF340079
:101A5000F988088909EE2435F582EF3400F583E032
:101A6000F8EE2437F582EF3400F583E0F50AEC85D3
:101A70000AF0A4FCAAF0850AF0EDA42AFDE82CF8EF
:101A8000E43DF97A257B0012160AEA850882850969
:101A900083F05407F87401B800028004C333D8FC03
:101AA000C0E0E0131313541FF8EE28F8EF3400F9E8
:101AB000E8245DF582E93400F583D0E0F8E0586071
:101AC00008EE2434F582EF801EEE2436F582EF34E2
:101AD00000F583E0F5F0EA84A8F0EE28F8EF340092
:101AE000F9E82438F582E93400F583E0F97F04024F
:101AF000180474F5121758EAFEEBFFEE2434F58251
:101B0000EF3400F583E0C0E0EE2435F582EF3400D9
:101B1000F583D0E0F08E828F83A3A3A3A3A3A3A316
:101B2000C082C0838E828F83A3A3A3A3A3E0F8A364
:101B3000E0F9D083D082E0C398F508A3E099F509D5
:101B4000EE2480F582EF3400F583E064017069EEE5
:101B50002481F582EF3400F583E0F8A3E0F98E826A
:101B60008F83A3A3A3A3A3A3A3E0FCA3E0FD8E8282
:101B70008F83A3A3A3A3A3E0FAA3E0FBC3EA9CEB98
:101B80009D5027C3EC98ED99402EC3EA98EB9950ED
:101B9000277CFD7D04EEFAEFFB120B64EE2480F54A
:101BA00082EF3400F583E4F0800EC3EA98EB9940AD
:101BB000E0C3EC98ED9950D9EE2434F8EF3400F9F5
:101BC000E8FCE9FDEE2435F582EF3400F583E0F81A
:101BD000EE2437F582EF3400F583E0F50AE5088559
:101BE0000AF0A4F508AAF0850AF0E509A42AF50987
:101BF000E82508F8E43509F97A257B0012160AEA87
:101C00008C828D83F05407F87401B800028004C3FD
:101C100033D8FCC0E0E0131313541FF8EE28F8EF9C
:101C20003400F9E8245DF582E93400F583D0E0F86A
:101C3000E0586008EE2434F582EF801EEE2436F57D
:101C400082EF3400F583E0F5F0EA84A8F0EE28F89E
:101C5000EF3400F9E82438F582E93400F583E0F93F
:101C6000122208021AEDC082C0838518828519836A
:101C7000E0F8A3E0F9C3EA9CEB9D5012C3EC98EDA9
:101C8000994019C3EA98EB99501279018010C3EA80
:101C900098EB9940F5C3EC98ED9950EE7900D0831C
:101CA000D08222EAC39CFAEB9DFB22008521878526
:101CB00022C622C0E0C0D0E8C0E0E9C0E0EAC0E04F
:101CC000EBC0E0ECC0E0EDC0E0C008C009C00AC055
:101CD0000BC082C083C0F0759B00906182E0A2E6D9
:101CE0004003021D91E591A2E64003021D9175910A
:101CF000BF9003C2E064057008120C90120C9C8027
:101D000003120C96752100120CF0E99003C3F079D0
:101D100000120CE4120ADA7A017B009003C1E0F9A8
:101D2000120FBA907803E064426003021DDA900556
:101D30005FE014F06003021DDAC2AF121D3E0078AE
:101D40002AD0E0F618D0E0F6E59F5407F970059028
:101D5000844B80039084477808121565E9C4C0E07D
:101D60007829E65508F50808E65509F509740B7851
:101D700008121673D0E02508F8906270E0A2E740E0
:101D8000F8E8C333906272F0906270E0D2E0F080C5
:101D900049E0A2E55024E591A2E5501E7591DF903F
:101DA00003C2E0640D70139003E4E004F064287053
:101DB00002E4F07A00E0F9120D62906181E0A2E3A2
:101DC0005009E5E9A2E3500375E9F7A3E0A2E75063
:101DD00009E591A2E7500375917FD0F0D083D082BE
:101DE000D00BD00AD009D008D0E0FDD0E0FCD0E084
:101DF000FBD0E0FAD0E0F9D0E0F8D0D0D0E032C0AB
:101E0000E0C0D0C082C083906183E0A2E05009E5C9
:101E1000BFA2E0500375BFFEE0A2E15009E5BFA2FA
:101E2000E1500375BFFDE0A2E25009E5BFA2E25018
:101E30000375BFFBE0A2E35009E5BFA2E3500375C1
:101E4000BFF7E0A2E45009E5BFA2E4500375BFEF7D
:101E5000E0A2E55009E5BFA2E5500375BFDFE0A2AF
:101E6000E65009E5BFA2E6500375BFBFD083D0821C
:101E70008088C0E0C0D0E8C0E0E9C0E0EAC0E0EBA4
:101E8000C0E0ECC0E0EDC0E0C0F0E5A7A2E6500F76
:101E9000E5A1A2E6500953A7BF75A1BF121ED7E561
:101EA000A7A2E5500CE5A1A2E5500653A7DF75A156
:101EB000DFE5A7A2E15009E5A1A2E1500375A1FD6C
:101EC000E5A7A2E2500CE5A1A2E2500653A7FB75DC
:101ED000A1FBD0F0021DE874F8121758752101908B
:101EE00003C2E064067015120C308A828B83A3A3B0
:101EF000A3A3A3A3E0FAA3E0FB120C7EA2AFE433FA
:101F0000FED2AF9003C8E0640170187A207B009085
:101F100003C1E0F912103E7A207B009003C1E0F982
:101F2000120FC0906182E0D2E6F090055EE0602181
:101F300085C62280169003C7E064017008E5C65488
:101F4000F84405F5C653BEFC121CAC740165216053
:101F5000E4EEA2E092AF7F01021804008E238F24EA
:101F6000858228858327851882851983E0CEA3E0A2
:101F7000CF852882852783EBC9EAC8EDCBECCA75EB
:101F8000F010C3E833C8E933C9EA33CAEB33CBC333
:101F9000EA9EF526EB9FF525B35004AB25AA26EC67
:101FA00033CCED33CDD5F0DAAE23AF242274F11269
:101FB00017588A088B098C0A8D0B740F1216E0785B
:101FC0000C12156590841F780812153F90841F78B5
:101FD0000C12153F7808790C121377501578087990
:101FE0000C1215179083FB7808121397401579018E
:101FF0008013780C79081215179083FB780C121354
:102000009740EB79007F0802180474ED1217588A84
:10201000088B098C0A8D0B74131216E0780C1215BC
:102020006590841F780812153F90841F780C121554
:102030003F780C790812137740117808790C121543
:1020400017AA08AB09AC0AAD0B80227510007511F8
:10205000007512007513017810790C12151778109D
:1020600079081214DEAA10AB11AC12AD137F0C026A
:10207000180490841F78081215658A828B8378086B
:102080001215527F0402180474F51217588C828DB1
:102090008378081215658A828B83780812152BEADB
:1020A0002404F8EB3400F98C828D83A3A3A3A3E06E
:1020B000FCA3E0FD88828983C3E09CF0A3E09DF04F
:1020C00088828983C3E09420A3E0944E40229084C8
:1020D0005F78081215658A828B8378081215048A46
:1020E000828B83A3A3A3A3E02420F0A3E0344EF0CB
:1020F000808074F5121758E9FE900514E0FAA3E009
:10210000FBEEC333F8E433F974FD28F582748239A9
:10211000F583E02AF508A3E03BF50978081218FFDB
:1021200090845B121583121F5C74021216AB8A082E
:102130008B098C0A8D0B741078081214A6AA08ABB0
:10214000097F0402180474F11217588A0C8B0D8C45
:102150000E8D0F740F1216E0E0FAA3E0FB7411125B
:1021600016E0E0F508A3E0F50974131216E0E0FEAE
:10217000A3E0FF78081218FFEA2401F508EB340009
:10218000F509E4F50AF50B780C79081213B690837B
:10219000EB7808121565780C79081213B6AA0CAB07
:1021A0000DAC0EAD0F121F5C74021216AB8B09EA58
:1021B000450960047A0180027A00EC2AFCED3400C3
:1021C000FDECF8EDF97A717B0212160A880889098C
:1021D000E4F50AF50B8E828F837808121574ECF8FB
:1021E000EDF97A717B0212160A8A088B0974057858
:1021F000081216828E828F83A3A3A3A3E508F0A3FF
:10220000E509F07F08021804C082C083E9906000ED
:10221000F0D083D08222C0E074F2121844A2AFE45E
:1022200033FED2AFC2C0E5D1A2E4500653D1EF12C3
:102230001236EEA2E092AF7F010218A3C0E074F262
:10224000121844A2AFE433FED2AFE589A2E15003F5
:102250001211A0758900C2C5EEA2E092AF7F010203
:1022600018A3C0E074F2121844A2AFE433FED2AF58
:10227000E58BA2E050031211A0758B00C2E880D854
:10228000C0E0C0D0E8C0E0E5A8D2AFC2C7A2E792E4
:10229000AFD0E0F8D0D0D0E032C0E0C0D0E8C0E0AD
:1022A000E9C0E0C008C009C082C083A2AFE433F92E
:1022B000D2AF9009FAE0F8A3E0687008539AFBA344
:1022C00074018026C2E99009FAE0F5087401250836
:1022D000F0747A2508F58274093400F583E0F5C1BD
:1022E0009009FAE0C394804002E4F0E9A2E092AFE2
:1022F000D083D082D009D008D0E0F9D0E0F8D0D097
:03230000D0E032F8
:10230400FFFFFFFFFFFFFFFFC082C083E9900BA523
:10231400F002259074F71216ECE99002E0F07C18B4
:102324007D037AFF7BFF1208169002E174FFF0A38D
:10233400F0A3E4F0A3F0790512079E9002E0E0F91F
:102344001206C67A347B081209F002329E74F41223
:1023540016EC8A088B09EB548060309002E0E0F9B7
:10236400120FA28A0A8B0BAE0AAF0BEE4F60138ECC
:10237400828F83E064B070031207B6EEFAEFFB12AB
:102384000F90AA08E5096480FB80047A007B0002B0
:10239400255F74F21216EC74FC121695EAFEEBFF3C
:1023A40074121216E0123785EE4F7003022439744A
:1023B400021216E0EEF0A3EF12279AECF0A3ED124E
:1023C400279AAA82AB831206C0E9F50A706AE50867
:1023D400450960648E828F8312376BEE4F60567AA4
:1023E400067B00120FF68A0C8B0DA80CA90DE84988
:1023F4007005750A13804188828983E4122446EEAD
:10240400F0A3EF123796E508F0A3E509F09002E691
:102414001224CD9002E67005123248801B12323627
:102424008003EAFCEBFD8C828D831224CD70F38C47
:10243400828D8380E3750A02A90A74041216AB0222
:102444003985F0A312373CA32274F21216EC890AE0
:10245400E975F017A4FEAFF09002E5E4F09002E312
:102464001224CD600A120FFC9002E3E4F0A3F0EE14
:10247400FAEFFB120FF68A088B09EA4509602FEE82
:10248400FCEFFD7900120F789002E3E508F0A3E574
:1024940009F07B0080081224B7E4F0A3F00BEBC32F
:1024A400950A40F2E50A9002E5F07900800279137A
:1024B400023985EB75F017A4F8A9F09002E3E0283F
:1024C400FAA3E0398A82F58322122EDAEA4B2274C7
:1024D400F41216EC740C1216E0123760FEE9FF7564
:1024E4000800750900800CE5082401F508E50934A5
:1024F40000F509C3E5089CE5099D503285080A8565
:10250400090B7403780A121682EA250AF8EB350BD4
:10251400F988828983A3A3A3A3A3A312331DEE6521
:102524000A7003EF650B70BFE8FAE9FB80047A00D8
:102534007B00802774F41216EC7900EAA2E0501BA9
:102544007508C275098378081218FF7C047D007A27
:10255400A77B0B12079874021216AB7F040217BEF6
:10256400C082C0839002E6122597601C888289830A
:10257400A3A3E06A7003A3E06B8882898370E8A355
:10258400A3A3A3122ED680047A007B00D083D0822A
:10259400020122123A6BE8492274EE1216EC74FC22
:1025A400121695EAFEEBFF851882851983E4F0A3E1
:1025B400F0EE2402123228EE2405123743EE2404EE
:1025C400F50EEF122B4FE024FE603924FC60462404
:1025D400FE605224FE605E24FE70030226B024FED8
:1025E400700302271424FE700302272324FE7003C1
:1025F40002273224FC700302274124FE70030227C1
:102604005002278D9002FF7417F0A3E41227A21240
:10261400043E02278D851882851983AC82AD83120E
:1026240007BC02275D851882851983AC82AD8312AD
:1026340007C202275D850C08850D0974021216E095
:10264400AC82AD83850882850983122ED61206E4F6
:102654008A0C8B0DAC0CAD0DEC4D603BE4F50CF528
:102664000D780C1218FF750CFF750D02780C1218FA
:10267400FF750C00750D03780C1218FF7408121600
:10268400E0121916123BE71216ABE9F50C700B12A7
:102694002ECC120456800F750C018508828509839F
:1026A400122790123248850C080227607402121611
:1026B400E0AC82AD83850C82850D83122CA1603C35
:1026C400850C82850D83A3A31219167510FF75114D
:1026D4000278101218FF7510007511037810121883
:1026E400FF74081216E0121916123BE71216ABE932
:1026F400F509700B122ECC12045C800F750901854C
:102704000C82850D83122790123248850908804C6B
:10271400851882851983AC82AD831207C8803A85F7
:102724001882851983AC82AD831207CE802B85185D
:1027340082851983AC82AD831207D4801C851882EC
:10274400851983AC82AD831207DA800D85188285E2
:102754001983AC82AD831207E0E9F508E508602926
:102764008E828F83A3E06414601F850E82850F839D
:10277400E09002FF12279A123A679003001232483F
:10278400E508A31227A2120438023137123A6B85E6
:10279400188285198322F085188285198322F07C9A
:1027A400FF7D02850A82850B83122EDA2274EE12D3
:1027B40016EC74FC1216958A0A8B0B8C0E8D0FEA9C
:1027C4002405F508EB3400F5097C157D0079007AC1
:1027D400FF7B02120F78E5082402F50CE509123795
:1027E4004685188285198385821085831178101295
:1027F40018FF850882850983A3A3A3A3122C98122A
:1028040018FFE5082405F510E5093400F5117810E2
:102814001218FF850C82850D83122FED1206DE74CB
:10282400061216AB8A108B11AE10AF11E50A240202
:10283400F50AE50B12322BEE4F700302296F801755
:1028440074021216E0122ED688828983EAF0A3EB72
:10285400F09002FFE004F09002FFE0C3940540030F
:1028640002296FE4F510F51178101218FF7510E8BD
:1028740075110278101218FF7510E975110278109D
:102884001218FF74061216E01219167910EEFCEFF6
:10289400FD123BE91216ABE9705E85088285098357
:1028A400A3A3A3A3A3A3A3E0F89002E8E06870485D
:1028B400122C981218FF7CE97D02E5082408FAE539
:1028C400093400FB120F7274021216ABE960298EF0
:1028D400828F83A3A3A3A3122ED69002FFE0F51048
:1028E4007402781012168274002510F58274033570
:1028F40011F583EAF0A3EBF074021216E08582105E
:1029040085831178101218FF74021216E01219163A
:10291400850C82850D83122EFC1216AB8A108B1146
:10292400AE10AF119002FFE0F5107511007402783B
:102934001012168274FF2510F874023511F988827A
:102944008983A31224CD700302283BE824030808DA
:1029540008E93400F9EE4F60030228448882898331
:1029640074FFF0A3F09002FFE004F09002FFE06037
:102974000A122ECC12044A7900800B85088285093C
:102984008312323F790A02313774EA1216EC74FE6C
:102994001216958C128D13EA2405F50CEB123BD11B
:1029A40012376F750800750900EA2402F510EB343C
:1029B40000F51185188285198385820A85830B7831
:1029C4000A1218FF850C82850D83A3A3A3A3122BDF
:1029D400651218FFE50C2405F50AE50D12322B7873
:1029E4000A1218FF850C82850D83122B691206DEEC
:1029F40074061216AB8A0A8B0BEA450B7003022B82
:102A04000AEA2404F50EEB122B4F12376F8A828BDD
:102A140083A3A3A3E0F9851082851183122EE060BD
:102A240003022B0AE4F514F51578141218FF751433
:102A3400E875150278141218FF7514E975150278F3
:102A4400141218FF74061216E01219167913AC0A40
:102A5400AD0B851082851183123BEF1216ABE9F59D
:102A6400096003022B0A9002E8E0F8E5087009E027
:102A74002402900300F08014900300E0FCE8240298
:102A8400FAE43400FBEA6C7001EB707E850882AADC
:102A940082122C8F9414122C87506B850E82850F12
:102AA40083E0C0E074012A122B46D0E0F0050885CB
:102AB4000E82850F83A3E0C0E085080A7401250A0D
:102AC400122B46D0E0F005089002E8122B6512188C
:102AD400FF7CE97D0285080A7401250A122B59122C
:102AE40016AB9002E8E02508F50874FF6E700374D5
:102AF400FF6F6012EE24010EEF3400FFE508C3946B
:102B04001450030229B7E5086013122EEA851082D7
:102B1400851183122ED612045079008014E50970B1
:102B24000375090A851282851383EEF0A3EFF0A9D9
:102B34000974021216AB7F0E0217BE85080C7401CD
:102B4400250CF58274033400F583223400F50F85D7
:102B54000E82F58322FA74033400FB120F607402B0
:102B6400221237A522A3A3122B6F22123236FDEEB6
:102B7400FAEFFB2274EE1216EC74FE1216958C0E0C
:102B84008D0FEA2405F50CEB123746750B00900205
:102B9400FFE4F0F50AEA2402F508EB3400F50980B5
:102BA400449002FFE0FA9002E8E0F8122C8F9417A8
:102BB400122C87400D9002FFE0F87416C39890021F
:102BC400E8F0122C981218FF7CE97D0274002AFAAE
:102BD4007403122B5C1216AB9002E8E0F89002FF2B
:102BE400E028F0050AE50C2416F582E50D122B4ABF
:102BF400E0F8E50AC39850749002FFE0C3941650BD
:102C04006BE50AC333F8E433F9E50C28FEE50D3926
:102C1400FF851882851983AC82AD838E828F8312DF
:102C24002CA17008750B0112323B8050E4F510F5AD
:102C34001178101218FF7510E87511027810121827
:102C4400FF7510E975110278101218FF7406121638
:102C5400E01219167916850882850983123BEF1252
:102C640016ABE9F50B7003022BA580BB7CFF7D023C
:102C7400850882850983122ED6120462A90B740278
:102C8400023139E99400C365D03322EA28F8E434E8
:102C940000F9E822E0F51075110078102212312EA7
:102CA4008A108B11AC10AD11EC4D2274EA1216ECA3
:102CB40074FC1216958A0C8B0D8C128D13EA240564
:102CC400F50AEB12322B750800750900E50A240297
:102CD400F510E50B3400F51174021216E085820E2E
:102CE40085830F780E1218FF850A82850B83A3A3B0
:102CF400A3A312374B1218FFE50A2405F50EE50BC2
:102D04003400F50F780E1218FF8510828511831296
:102D14003231122ED01206DE74061216AB8A0E8BD6
:102D24000FAE0EAF0FE50C2402F50EE50D3400F5E1
:102D34000F80388882898374FFF00508122B3F7452
:102D4400FFF005089002E8E0F50C750D00780C1210
:102D540018FF7CE97D0285080C7401250C122B599F
:102D64001216AB9002E8E02508F508EE4F60278EB6
:102D7400828F83A3A3A3E0F9850E82850F83122E8D
:102D8400E0EE2404123743E96027850C82850D8325
:102D9400122EC2123248E5087003022EA8122EEA3F
:102DA400850E82850F83122ED61204687900022EB6
:102DB400BDE4F514F51578141218FF7514E87515AB
:102DC4000278141218FF7514E97515027814121894
:102DD400FF74081216E01219167911EEFCEFFD8546
:102DE4000E82850F83123BEF1216ABE9F509709A38
:102DF400850882AA82EA9002E87009E0240490031C
:102E040000F08025E0F8900300E0F514E82404FCC9
:102E1400E43400FDEC65147001ED7081122C8F9484
:102E240012122C874003022DA1850C82850D83E0AC
:102E3400C0E074012A122B46D0E0F00508850C820C
:102E4400850D83A3E0C0E0122B3FD0E0122F05854F
:102E5400820C85830D780C1218FF74041216E0128C
:102E64001916851082851183122EFC1216AB8A0C5A
:102E74008B0DAE0CAF0D85080C7401250CF8740392
:102E84003400F9EE4F7003022D37851882851983BB
:102E9400E088828983122F05A3E0C0E0122B3FD083
:102EA400E0022D45E509700375090A850A82850B40
:102EB40083122EC2123248A9097404022B37123A23
:102EC4006B851282851383227CFF7D02850A8285AD
:102ED4000B83122EDA22E0FAA3E0FB22122EDA127E
:102EE40006CCE9F50922900300E0F5F0E5088490AA
:102EF40002FFF07CFF7D0222122B6F1206EA74049B
:102F040022F005088518828519832274EC1216ECC8
:102F140074FE1216958A088B098C0E8D0FEA24050F
:102F2400FEEB3400FF123118EE2418123743EA4541
:102F34000B7003022FBB1231015029122FE08A10AB
:102F44008B11EA4511606B7912AC0AAD0B850882CE
:102F5400850983122ED68510828511831216EAE91B
:102F6400F50A7058E4F50AF50B780A1218FF8E82F8
:102F74008F83A3A3E0F50A780A1218FFEE24031244
:102F84003228780A1218FF8E828F83122FED1208CE
:102F94000474061216ABE9F50A7021850C82850DBE
:102FA40083E0701F850882850983122ED612046E71
:102FB4008011750A0E8009750A018004E50A600310
:102FC40012323B850C82850D83E060047900800217
:102FD400A90A74021216AB7F0C0217BE85188285EB
:102FE4001983122EDA1207F222123236FD85088274
:102FF400850983122EDA2274EE1216EC74FE121670
:10300400958A088B098C0C8D0DEA2405FEEB34009F
:10301400FF750E00123118EA450B70030230DF12FF
:103024003101502C122FE08A0E8B0FEA450F604AB3
:103034007912AC0AAD0B850882850983122ED685D8
:103044000E82850F831216EAE9F50E60030230E260
:1030540085088285098312331DAA0AFB1230F37096
:10306400147AFF7BFF1230F3606C88828983E50A4F
:10307400F0A3E50BF0750A008007750E0E805F055E
:103084000A9002E5E0FAE50AC39A504AE50A75F0A7
:1030940017A4FAABF088828983A3A3E02AFAA3E0F9
:1030A4003BFB8A828B83123231EC4D70D2750A1746
:1030B400750B00780A1218FFEEFCEFFD120F607416
:1030C400021216ABEEFCEFFD850882850983122EF1
:1030D400D61204748014750E098003750E01123A19
:1030E40063850C82850D83123248A90E022C82124C
:1030F40007E68A108B11A810A911E84922E50824D3
:1031040002F508E5093400F5098A828B83A3A3A399
:10311400E0A2E522851882851983AC82AD838E8274
:103124008F8312312E8A0A8B0B22E0FAA3E0FB1262
:1031340006E42274041216AB7F0A0217BE74EC1262
:1031440016EC8C108D11EA2405F50CEB123746753C
:103154000F00EA2402F50AEB12322B850A82F5836A
:10316400122ED6123C75700302321D750E0080714A
:10317400850C82850D83E06401704F8E828F83A35A
:10318400A31219168E828F83A3A3A3A3E0F512754D
:10319400130078121218FFEE2405F512EF3400F52F
:1031A4001378121218FF122ED01208047406121685
:1031B400ABE9F50F6014850C82850D83E4F0123AB7
:1031C400638510828511831232487C177D00790053
:1031D400EEFAEFFB120F788E828F83E4F0A3F005F2
:1031E4000E9002E5E0F8E50EC398501EE50E75F06A
:1031F40017A4F8A9F0850882850983A3A3123BDBF1
:10320400123231EC4D6003023174850882850983E2
:1032140074FFF0A3F0E50F7006122ED012047AA901
:103224000F022FDBF50AEF3400F50B22A31232361E
:10323400FD22E0FCA3E0228E828F83123A6B850E7E
:1032440082850F83E8F0A3E9F022C082C083900254
:10325400E1E06A7003A3E06B70067AE17B0280040C
:103264007A007B0002259074F71216EC7F00EF754C
:10327400F003A4F8A9F0EC28F8ED39F988828983E1
:10328400E06A7003A3E06B7006E8FAE9FB800B0FB9
:10329400EFC3940240D87A007B007F010217BE740A
:1032A400F61216EC12385470067A007B008007A3DD
:1032B400A3A3A3122ED602391574F21216ECE9FE5A
:1032C400740E1216E012331D74101216E0123785B4
:1032D4008C828D83E06402703BA3123A67888289F2
:1032E40083E0F50CA3E0F9A80C7402687003742958
:1032F400697021750C02750D00780C1218FF78089E
:103304001218FF780A1218FFEEF912082874061230
:1033140016AB80027901023985E0F50AA3E0F50BCA
:103324002274E81216EC74FB121695E9851882854E
:103334001983F08A168B178C0E8D0F741F1216E0EA
:1033440012378574211216E012331D74231216E00D
:1033540012376F7510008C828D83A3A3A3E0A2E4BF
:10336400502A741D1216E0122FE68A828B83E5829E
:1033740045837003023431790AAC0EAD0FAA16AB43
:10338400171216EAE9F5106003023434850E8285BB
:103394000F83E0640260030236EAA3123A678508E9
:1033A40082850983A3858212858313E50E2406F59D
:1033B4000CE50F12374688828983E0FAA3E0F9EA24
:1033C4002400F514E439F515781412198901000064
:1033D400280128F93307000228D034032840340098
:1033E40029FA35012922360229C9350329FA350477
:1033F400298B36EA36EE4F703E850C82850D83129A
:103404003760FAE9FB8A828B83E0850A82850B8325
:1034140012379C1218FF8A828B83A3123236FDAABC
:1034240008AB09120F6074021216AB800375100EFC
:10343400A9107405023BC975100B80F4EE4F70F7A8
:10344400850A82850B837401F0123775850882859D
:103454000983F07C007D00850E82850F83A3A3A3DE
:10346400A3E02401FAA3E03400FB1206E4EA4B6073
:10347400418A828B83E02402F8850A82850B83E0EB
:1034840028F0EA2404F8EB3400F988828983E08583
:1034940012828513831237AE12379C1218FF8A8268
:1034A4008B83123230E5082403FAE5093400FB0269
:1034B4003427850A82850B83E02404F07C047D0094
:1034C4007900AA12AB13120F78023434EE4F600362
:1034D40002343B123775FEA3E0FF850A82850B8315
:1034E4007404F0EE850882850983F0EF85128285E5
:1034F4001383F074031216E0AC82AD83EEFAEFFB93
:1035040012384270030235A68A828B83A3A3123732
:103514006B74011216E085820E85830F780E1218E3
:10352400FF74051216E01219167CFF7DFF1206EADD
:1035340074041216AB8B0FEA450F7033850C828529
:103544000D8312374B1218FF850C82850D83A3124D
:1035540019167C027D007A897B8412051674041284
:1035640016ABE9700A74011216E074FFF0A3F08E32
:10357400828F83E064027034750C02750D00780C40
:103584001218FF8E828F83123230E5082404FAE584
:1035940009122B5C1216AB850A82850B83E0240288
:1035A400800974011216E0EEF0A3EFF07401121614
:1035B400E012375CF074011216E0A3123754A3A38F
:1035C400A3F0023434EE4F600302343B850C828551
:1035D4000D83123231AA16AB1712081C850A828594
:1035E4000B837402F0EA850882850983F0851282D0
:1035F400851383EB80CBEE4F600302343B123775A7
:10360400F8A3E0F9850A82850B837402F0E8850843
:1036140082850983F0E985128285138380A3850C52
:1036240082850D83122ED6120F5AEAFC8C82A88250
:10363400C39EE49F404BE86E7001EF70047C0080F1
:103644001F851882851983E0FAEE2AFAEF3400FB0D
:10365400C3EA98EB94005003E08004EECCC39CFCD6
:10366400EC850A82850B83F08C0A750B00780A12AC
:1036740018FF850C82850D83E02EFCA3E03F023405
:1036840022751007023434EE4F600302343B850C7C
:1036940082850D83123A67850A82850B837407F04D
:1036A4008882898312375412373CE085128285134D
:1036B40083F0E82402FAE93400FB8A828B83123710
:1036C4005412378D12375CA3123796123765F0E81F
:1036D4002405F8E93400F988828983123765A31236
:1036E40037AEA30235C2741D1216E012384D7003B2
:1036F400023431123A67880C890DE8450D700302D3
:1037040034318E108F1178101218FF780A1218FFB6
:1037140078081218FF74061216E0E0F9AC0EAD0F2B
:10372400AA16AB17850C82850D831216EA7406124D
:1037340016ABE9F510023434F088828983A322F5AC
:103744000CEF3400F50D22E0F50E750F00780E2213
:10375400E0850882850983221237B522123A6BE884
:10376400221237B5A3A322A3A3A3A3E0FEA3E0FFE1
:1037740022850C82850D83E0F8A3E0F5838882E03E
:1037840022E0F508A3E0F50922A3A3F08A828B8343
:10379400A322122448A3A322F08A828B831237A582
:1037A40022E0F50A750B00780A2212373C1237B56D
:1037B40022E0850882850983A3A32274EE1216EC05
:1037C40074FE1216958A0A8B0BECFAEDFB74141234
:1037D40016E0E0F510A3E0F51174161216E0E0FE11
:1037E40074181216E0E0F50EA3E0F50F8518828533
:1037F4001983AC82AD83123842603E8518828519E4
:103804008312384D602FA3A3123785E5084509605C
:1038140024780E1218FF78101218FFEEF9AC0CADD4
:103824000DAA0AAB0B8508828509831216EA740473
:103834001216AB8006790E80027901022C821206E0
:10384400E48A0C8B0DEA450D22122EDA123854222A
:103854001207B08A828B83E58245832274F612169E
:10386400EC74FE121695740C1216E012376085186B
:1038740082851983F074011216E0E9F0E4F508F585
:103884000978081218FF75080278081218FF7404E2
:103894001216E085820885830978081218FF120839
:1038A4000474061216AB74021216AB806474F71219
:1038B40016ECEAFEEBFF89087C187D0312081CEA6B
:1038C4005402600BA908EEFAEFFB1206D8800279C5
:1038D4000102329E74F61216EC74FF6A700374FFD0
:1038E4006B701C7B00EB75F003A4F8A9F0EC28F8CE
:1038F400ED39F912391A0BEBC39402501480E61215
:1039040007EC8A088B09A808A909E8496003123959
:103914001A7F020217BE8882898374FF122446E448
:10392400F02274F61216EC1207EC8A828B83E5827D
:1039340045836006A3A3E0FA80027A007B0080D16D
:1039440074F21216EC8A088B09ECFEEDFF740E1269
:1039540016E0E0F50A12398A701CEEFCEFFD7AFFDE
:103964007BFF12398A70047911801688828983E575
:1039740008F0A3E509F088828983A3A3E50AF07916
:10398400007F060217BE1207EC8A0C8B0DA80CA947
:103994000DE8492274EE1216ECEAFEEBFF8C088D5A
:1039A40009890C74121216E0123A6774141216E0A4
:1039B40012323174161216E0122ED6750D00EC4D2B
:1039C4006003023A5B7402650C6003023A56888213
:1039D4008983123236F9EC2400F50EE439F50FEA46
:1039E400F4F8EBF4F9EC58F8E50F59F9E849705D8F
:1039F400E5082406F8E5093400F9880A890B888269
:103A0400F583122B6B12081C8A108B11E50E6510BE
:103A14007004E50F65116042780E1218FF850A8262
:103A2400850B83122B6B12082274021216ABE9F574
:103A34000D7027780E1218FF850882850983A3A3C9
:103A4400122B6912083A74021216AB800D750D80A0
:103A54008008750D0D8003750D0BA90D02313C8E88
:103A6400828F83123A6B22E0F8A3E0F92274E81201
:103A740016EC74E7121695851882851983EAF0A36B
:103A8400EBF08C168D17890E74311216E0E0F512E6
:103A9400A3E0F51374331216E0E0F514A3E0F51572
:103AA40074351216E0E0F50F750800750900E50994
:103AB40075F003A4F8A9F0851882851983123BDBFD
:103AC400E0F47003A3E0F47003023BB9EE2402F5C2
:103AD4000CEF123BD1E07003023BB985160A85173F
:103AE4000B780A1218FFAC14AD15AA12AB13120707
:103AF400A474021216AB8A0A8B0BEA450B700302FC
:103B04003BB9E4F510F51178101218FF740612167B
:103B1400E085821085831178101218FF740912163B
:103B2400E085821085831178101218FF8512828532
:103B34001383A3A3A3A31219167914AC0AAD0B8E95
:103B4400828F83123BEF1216ABE97069850A828576
:103B54000B83A3A3A3A3123A6774021216E01232D2
:103B640048850C82850D83E0A2E05018A90E7402EA
:103B74001216E0AC82AD838E828F83122ED612068B
:103B8400FCE94208850C82850D83E0A2E15026E51C
:103B94000FF50A780A121903A90E74031216E0AC81
:103BA40082AD838E828F83122ED61206F674011292
:103BB40016ABE942080509E509C394025003023A29
:103BC400B2A90874191216AB7F100217BE3400F59F
:103BD4000D850C82F58322E028FEA3E039FF8E8256
:103BE4008F83227916850A82850B83122EDA1207B7
:103BF400FE74082274F21216ECEAFEEBFF890B74D1
:103C040001650B600E7402650B70637901120A0E74
:103C1400E9705BEEFAEFFB123C756047750A0080B1
:103C24000B7C177D007900120F78050A9002E5E0FD
:103C3400F8E50AC3985021E50A75F017A4F8A9F02D
:103C4400850882850983A3A3E028FAA3E039FB8AC7
:103C5400828B8312259770C985088285098374FF36
:103C6400F0A3F07C187D03EEFAEFFB12081602397C
:103C7400851207E68A088B09EA45092274F21216AE
:103C8400EC8A088B09ECFEEDFF740E1216E0123379
:103C94001D900BA5E0F4603D7A097B00120F8AEABF
:103CA4004B60328A828B8374B1F0A3E412378FA302
:103CB40012378DA3E508F0A3E509123CDCEEF0A36E
:103CC400EF123CDCA3A3E50AF0A3E50BF0900BA5EF
:103CD400E0F9120F96023985F08A828B83A3A3A39D
:103CE400A3A322C082C0839061907404F0A374489B
:103CF400F0A37402F09061807440F09061BC74038E
:103D0400F09061877419F0906265741BF090619C67
:103D1400740DF090619A7433F0A37455F09061A01F
:103D2400743AF090055CE064017009C2919003C696
:103D3400746780059003C67461F090230AE493903D
:103D44006186F0902304E493F46027E493540FF81D
:103D5400906185E0686012E5C654804449F5C6E583
:103D64009E547F644970F8E8F053C680E59E547F02
:103D740070FA7905120D44023EFCC082C083E5A8A6
:103D8400F853A87E906181E4F0A3F0A3F0C2BA5383
:103D94009AFEC289759B00C2C275E90075910075CF
:103DA400BF0075A91175B905906181F0A374C0F0C5
:103DB400A3E4F0D2BA439A0174805842A8023EFCAC
:103DC400C082C08374F81216959003C4E0F8A3E08F
:103DD400F9E8497003023EF29003C4E054406023C2
:103DE4007908851882851983AA82AB83120BBE8554
:103DF4001882851983AA82AB831208A09003C4E0B9
:103E040054BFF0E054806010790C7A807B05120B6B
:103E1400BE9003C4E0547FF0E0A2E0503190619A78
:103E24007433F0A37455F09061A0743AF090055C7B
:103E3400E064017009C2919003C674678005900321
:103E4400C67461F01208A69003C4E054FEF0E05476
:103E540002603190619A743FF0A3745AF09061A0AB
:103E6400747FF090055CE064017009D2919003C600
:103E7400747180059003C6746AF01208A69003C496
:103E8400E054FDF0E054046013902308E49390613F
:103E940086F01208AC9003C4E054FBF0E0540860D0
:103EA40013902309E493906186F01208AC9003C444
:103EB400E054F7F0E05410601390230AE493906107
:103EC40086F01208AC9003C4E054EFF0E054206094
:103ED4000A1208AC9003C4E054DFF0A3E05401607C
:103EE4000D120AE61208B29003C5E054FEF07408FD
:103EF4001216AB8003F0A3F0D083D08202012274A7
:103F0400EC1216EC74F4121695851882851983AC9C
:103F140082AD8375838475826774041215A8902317
:103F24000893F46003024090907808E0C394025030
:103F34000302407074041216E0AC82AD837583836F
:103F44007582B274081215A8851882851983858232
:103F54001285831374041216E0AC82AD83750EFFD0
:103F6400750FFF7FFF7E00750C48750D7880157402
:103F7400086E700302400374096E700302400374F8
:103F84000A6E607B850C82850D8378081215658C1A
:103F9400828D83A909E50AC9F88810741878081273
:103FA40014A6E5104508F8C3E098A3E099850C82AF
:103FB400850D83780812156540188C828D837418DA
:103FC40078081214A6E5104508F8E0C398F8A3E0B1
:103FD400801C741878081214A6E5104508FAE9FB49
:103FE4008C828D83E0F8A3E0F9EAC398F8EB99F9A1
:103FF400C3E8950EE9950F5006880E890FEEFF0E63
:10400400E50C2404F50CE50D3400F50DEEC3941312
:104014005003023F7374FF650E700474FF650F60F4
:10402400238F087402780812168274482508F582D2
:1040340074783509F583780812156585128285131D
:1040440083E508F0EC24020C0CED3400FD851282AB
:10405400851383A3858212858313740C1216E0E5FD
:10406400826C7003E5836D6003023F61750801751E
:10407400090078081218FF74021216E0AC82AD83AE
:104084007AC27B0812117C74021216AB740C1216DD
:10409400AB7F0C0217BEC082C0839061AE7468F01F
:1040A400A3746AF090624574FBF0A304F053F4FD2A
:1040B40043FE0290055C7401F09061A0E0643A90C4
:1040C400619A70237433F0A37455F09061A0743A2C
:1040D400F0740164017009C2919003C6746780286A
:1040E4009003C674618021743FF0A3745AF0906108
:1040F400A0747FF0740164017009D2919003C674B6
:104104007180059003C6746A023EFB7F040217BEE9
:10411400C082C08390050EE06401700A900513E02C
:104124006004790C80027900023EFCC082C0837571
:10413400E1F1900511E060551460081460591460B1
:10414400518059120AF8900507E0F97A087B0512A4
:104154000CC6908457121583120CFC908417121508
:1041640083120CD2900512E0F9120CDE7901120DC3
:1041740038900505E02416F8A3E03400F988828914
:10418400837410F0A3740BF07900023EFC120AFE53
:1041940080B4120B0480AF120B0A80AA791280EA51
:1041A40074F41216EC75D90D9004F6E0A2E0E43331
:1041B4001313F8900507E0C4333354C0484401F5A1
:1041C400D97805790588828983A3A3A3E0F5D988E2
:1041D400828983A3A882A983E8640B7003E9640538
:1041E40070E378F6790488828983A3E0F5D988821C
:1041F4008983A3A882A983E864FC7003E96404703A
:10420400E575E1959004F6E0F97AF77B04120CCC9D
:10421400900BC774AAF0A3740AF0A37406F0A374F5
:104224000CF0A37406F0A3740CF0A37406F0A3744A
:104234000CF0A374B0F0A3740AF0A37406F0A37492
:104244000CF0A374C8F0A3740AF0900BD57406F0B4
:10425400A3740CF0A37406F0A3740CF0A37406F01A
:10426400A3740CF0A37406F0A3740CF0A37406F00A
:10427400A3740CF0A37406F0A3740CF0900505E08D
:10428400F8A3E0F5838882A3A378081215659084C7
:104294005378081214F190841F780812153F900582
:1042A40005E0240EF8A3E03400F9888289837808B5
:1042B400121574900505E02414F8A3E03400F9887D
:1042C4008289837413F09003C27402F002410FC018
:1042D40082C083900517E02407F5D9900507E0C450
:1042E400333354C0F5D97805790588828983A3A32B
:1042F400A3E0F5D988828983A3A882A983E8640B03
:104304007003E9640570E3900517E0601F78057990
:1043140005FAE82413F582E93400F583E0F5D98839
:10432400828983A3A882A9831AEA70E6900537E0FC
:104334002407F5D9900507E0C4333354C04404F589
:10434400D97805790588828983A3A3A3E0F5D98860
:10435400828983A3A882A983E8640B7003E96405B6
:1043640070E3900537E0601F78057905FAE8243397
:10437400F582E93400F583E0F5D988828983A3A81E
:1043840082A9831AEA70E675E195900BC774B6F0BA
:10439400A3740AF0A37406F0A3740CF0A37406F0DB
:1043A400A3740CF0A37406F0A3740CF0A374B0F01F
:1043B400A3740AF0A37406F0A3740CF0A374C8F0F9
:1043C400A3740AF0900BD57406F0A3740CF0A374D4
:1043D40006F0A3740CF0A37406F0A3740CF0A37499
:1043E40006F0A3740CF0A37406F0A3740CF0A37489
:1043F40006F0A3740CF090845F121583900505E019
:10440400240EF8A3E03400F98882898312158F9072
:104414000505E02414F8A3E03400F9888289837444
:1044240012F09003C27401023EFBC082C083900567
:1044340017E02407F5D9900507E0C4333354C0448A
:1044440002F5D97805790588828983A3A3A3E0F5C9
:10445400D988828983A3A882A983E8640B7003E9BD
:10446400640570E3900517E0601F78057905FAE8A4
:104474002413F582E93400F583E0F5D98882898331
:10448400A3A882A9831AEA70E675E195900BC77414
:10449400C2F0A3740AF0A374C2F0A3740AF0A37464
:1044A400C2F0A3740AF0A374C2F0A3740AF0A37454
:1044B400C2F0A3740AF0A374C2F0A3740AF0A37444
:1044C400C8F0A3740AF0900BD57406F0A3740CF032
:1044D400A37406F0A3740CF0A37406F0A3740CF098
:1044E400A37406F0A3740CF0A37406F0A3740CF088
:1044F400A37406F0A3740CF090845F1215839005E6
:1045040005E0240EF8A3E03400F9888289831215AB
:104514008F900505E02414F8A3E03400F98882891B
:10452400837414F09003C27404023EFBC082C083FF
:10453400900517E02407F5D9900507E0C4333354F8
:10454400C04406F5D97805790588828983A3A3A395
:10455400E0F5D988828983A3A882A983E8640B70D3
:1045640003E9640570E3900517E0601F7805790599
:10457400FAE82413F582E93400F583E0F5D988825A
:104584008983A3A882A9831AEA70E6900537E024F8
:1045940007F5D9900507E0C4333354C04404F5D972
:1045A4007805790588828983A3A3A3E0F5D9888255
:1045B4008983A3A882A983E8640B7003E964057066
:1045C400E3900537E0601F78057905FAE82433F5B0
:1045D40082E93400F583E0F5D988828983A3A8822F
:1045E400A9831AEA70E675E195900BC774BCF0A331
:1045F400740AF0A37406F0A3740CF0A37406F0A379
:10460400740CF0A37406F0A3740CF0A37406F0A366
:10461400740CF0A37406F0A3740CF0A374C8F0A394
:10462400740AF0900BD57406F0A3740CF0A374060E
:10463400F0A3740CF0A37406F0A3740CF0A3740636
:10464400F0A3740CF0A37406F0A3740CF0A3740626
:10465400F0A3740CF090845F121583900505E02498
:104664000EF8A3E03400F98882898312158F90052F
:1046740005E02414F8A3E03400F9888289837415D2
:10468400F09003C27403023EFBC082C08390050510
:10469400E0F8A3E0F5838882A3A3A3A3A3A3E40281
:1046A4003EF974F71216EC9003F0E0F875F004A4E8
:1046B400C8AAF02AF974F228F8740339F9E8240531
:1046C400FAE93400FB8A828B83E0FCA3E0FD888254
:1046D4008983A3A3A3A3A3A3A3A3A3ECF0A3EDF0B3
:1046E40088828983A3A3A3A3A3A3A3E024FFF8A39D
:1046F400E034FFF98A828B83E8F0A3E902494B7422
:10470400F71216ECEAFEEBFF9061D0E0600302477B
:10471400E075D90E75D90375D904EE248CF582EFB2
:104724003400F583E5822408F8E5833400F9E0F5E4
:10473400D9A3E865827003E9658370F2EE2484F5F9
:1047440082EF3400F583E5822404F8E5833400F92C
:10475400E0F5D9A3E865827003E9658370F275E139
:10476400957908EE248CFAEF3400FB120BB279042D
:10477400EE2484FAEF3400FB120BB27C00EEF8EF67
:10478400F9ECFAC3E49AFA95E0FBEE2AFAEF3BFB64
:10479400EA248BF582EB3400F583E0C0E0E824AB37
:1047A400F582E93400F583D0E0F00C88828983A394
:1047B400A882A983ECC3940840C7EE2470F582EF65
:1047C4003400F583E0F8A3E0F9EE2472F582EF34C7
:1047D40000F583E8F0A3E9F0790180027900024949
:1047E4004CC082C08375D90275D90375D90575E1AA
:1047F40095EA2470F582EB3400F583E0F8A3E0F940
:10480400EA2472F582EB3400F583E8F0A3E9F07949
:1048140001023EFC74F61216ECEAFEEBFF90056012
:104824007406F075086075090578081218FF7C0194
:104834007903120BFA74021216AB75D90675D903F3
:10484400758260758305E0F5D9A3E582646570041B
:10485400E583640570F075E1959003C2E064087027
:104864001EEE2470F582EF3400F583E0F8A3E0F93E
:10487400EE2472F582EF3400F583E8F0A3E9F079D1
:1048840001024A1874F61216ECEAFEEBFF9061D0AE
:10489400E070667801900560740BF09003C2E064E8
:1048A40007701975086075090578081218FF7C01EE
:1048B4007903120BFA74021216AB7805740128F509
:1048C400D975D903758260758305E8FAE0F5D9A333
:1048D4001AEA70F875E195EE2470F582EF3400F56C
:1048E40083E0F8A3E0F9EE2472F582EF3400F58357
:1048F400E8F0A3E9F0790180027900024A1874F71C
:104904001216ECEAFEEBFF75D90375D90375D90DC0
:10491400EE24DEF582EF3400F583E0F5D975E195F8
:104924007904120D02EE2470F582EF3400F583E071
:10493400F8A3E0F9EE2472F582EF3400F583E8F091
:10494400A3E9F079018001F07F010217BE74F61229
:1049540016ECEAFEEBFF9061D0E0F87480C398FA9D
:10496400EE2483F582EF3400F583E060047804805C
:10497400027800E8240BF8EAC3985003024A167D33
:1049840009900560EDF0EE24E3F8EF3400F97A6164
:104994007B057C0888828983E08A828B83F0888205
:1049A4008983A3A882A9838A828B83A3AA82AB83E7
:1049B4001CEC70E0EE2483F582EF3400F583E060B4
:1049C4001D75086075090578081218FF7C097903BC
:1049D400EEFAEFFB120BFA74021216AB7D0D7401A2
:1049E4002DF5D975D9037582607583058D08E0F5B9
:1049F400D9A31508E50870F675E1957904120D023E
:104A0400EE241DF582EF3400F583E4F0A3F0790180
:104A1400800279007F020217BE74F61216ECEAFED9
:104A2400EBFF9061D0E0F87480C398FAEE2483F52C
:104A340082EF3400F583E06004780480027800E8B3
:104A44002408F8EAC3985003024B1D7D06900560C4
:104A5400740CF09003DFE0900561F07AE07B03785A
:104A64006279057C028A828B83E088828983F08A5A
:104A7400828B83A3AA82AB8388828983A3A882A919
:104A8400831CEC70E07AE27B037C028A828B83E0F5
:104A940088828983F08A828B83A3AA82AB838882EB
:104AA4008983A3A882A9831CEC70E0EE2483F58299
:104AB400EF3400F583E0601D75086075090578081A
:104AC4001218FF7C067903EEFAEFFB120BFA74025C
:104AD4001216AB7D0A74012DF5D975D90375826060
:104AE4007583058D08E0F5D9A31508E50870F675FA
:104AF400E1957904120D02EE2470F582EF3400F58D
:104B040083E0F8A3E0F9EE2472F582EF3400F58334
:104B1400E8F0A3E9F0790180027900024A1874F6FA
:104B24001216ECEAFEEBFF9061D0E0F87480C398B3
:104B3400FAEE2483F582EF3400F583E06004780410
:104B440080027800E82404F8EAC3985003024BFC7E
:104B54007802900560E8F0EE24F5F582EF3400F574
:104B640083E0900561F0EE2483F582EF3400F58351
:104B7400E0601B75086075090578081218FF7C024F
:104B84007903EEFA120BFA74021216AB780674016A
:104B940028F5D975D9037582607583058808E0F511
:104BA400D9A31508E50870F675E195EE2474F5822D
:104BB400EF3400F583E4F0EE2480F582EF3400F561
:104BC40083E4F0EE241DF582EF3400F583E4F0A3D2
:104BD400F07904120D02EE240DF582EF3400F58312
:104BE400E0F8A3E0F9EE2472F582EF3400F583E8EF
:104BF400F0A3E9F0790180027900024A1874F612F0
:104C040016EC9061D0E0F87480C398FCEA2483F534
:104C140082EB3400F583E06004780480027800E8D5
:104C24002404F8ECC398405B79029005607407F0A3
:104C3400EA24F6F582EB3400F583E0900561F0EAAE
:104C44002483F582EB3400F583E060187508607501
:104C5400090578081218FF7C0209120BFA74021273
:104C640016AB7906740129F5D975D9037582607577
:104C74008305E9F8E0F5D9A318E870F875E19579AA
:104C84000180027900024A1874F51216ECE9FCA2BC
:104C9400AFE433F50AC2AF7D0080010DEA246FF55D
:104CA40082EB3400F583E0F8EDC398501A8D08EADE
:104CB4002508F8EB3400F9E8246BF582E93400F5B3
:104CC40083E06C70D68024EA246FF8EB3400F9E0BA
:104CD400FEEA2EFAEB3400FBEA246BF582EB340097
:104CE400F583ECF088828983E004F0E50AA2E0927F
:104CF400AF7F030217BE74F61216ECA2AFE433FDC5
:104D0400C2AFEA246FF582EB3400F583E014F07C43
:104D14000060368C08EA2508F8EB3400F9E8246CC6
:104D2400F582E93400F583E0C0E0E8246BF582E91C
:104D34003400F583D0E0F00CEA246FF582EB340004
:104D4400F583E0F8ECC39840CAEA246EF582EB34AC
:104D540000F58374FFF0EA246AF582EB3400F583EE
:104D6400E4F0EDA2E092AF024A18C082C083E5A845
:104D7400F8C2AFEA246BF582EB3400F583E9F0EA7C
:104D8400246AF582EB3400F583E4F0E8A2E792AFFD
:104D9400023EFC74F31216ECEAFEEBFFECFAEDFBB8
:104DA4008A828B83A3A3A3A3E0541FF0EE2436F5D9
:104DB40082EF3400F583E4F0F50AEEFCEFFD8A821D
:104DC4008B83E0C0E0EC245DF582ED3400F583D004
:104DD400E0F0750B00E50A33333354F8F50C8A829E
:104DE4008B83E0F508750900E50B7808121663E576
:104DF40008A2E0502FEE2436F8EF3400F9888289B7
:104E040083E0F508EE2508F508EF3400F509E50818
:104E14002438F582E5093400F583E50CF0888289AD
:104E240083E004F0050B050CE50BC3940840AF05C3
:104E34000A8A828B83A3AA82AB838C828D83A3ACE0
:104E440082AD83E50AC394055003024DC27F050277
:104E540017BE74F71216EC9003EEE0640170077A43
:104E6400007B00024FCD7E009003F4E070F17401EA
:104E7400F0A3E4F0A3F090045404F0900457E4F099
:104E8400A3F090045A04F09003F7E4F0A3F0A3F025
:104E9400A3F090040104F0900427E4F0908403123A
:104EA400158390040A12158F90040EE4F0A3F0A366
:104EB400F0900472F0900466F090045B7480F0A3A8
:104EC400E4F0900461F0900459F09004DDF0A3F054
:104ED400A3F0A3F0A3F0A3F0A3F0A3F09004E6F0F2
:104EE400900475F09004C5F0A3F090840312158328
:104EF4009004C712158F9084031215839004CB126B
:104F0400158F9004D1E4F09004D3F09004CFF09086
:104F140004E9F0A3F0A3F0A3F0A3F0A3F0A3F0A39B
:104F2400F078EE7903E8246FF582E93400F58374B0
:104F3400FFF00E88828983A3A882A983EEC3940418
:104F440040E37AEE7B0378FD790488828983E0C0AC
:104F5400E0EA2461F582EB3400F583D0E0F0888246
:104F64008983A3A882A9838A828B83A3AA82AB8321
:104F7400E864027003E9640570D07AEE7B0378D5A7
:104F8400790388828983A3E0C0E0EA24E7F582EB11
:104F94003400F583D0E0F088828983A3A882A983B2
:104FA4008A828B83A3AA82AB83E864DD7003E964FD
:104FB4000370CF9003EEE004F0640170089003F6F0
:104FC400E09003F0F07AF27B0302494CC082C08384
:104FD4009003F5E4F09003F4F09003EEF0A3F0A353
:104FE40074FFF075E1F1023EFCC082C08378007961
:104FF400009003F5E0600478F2790388828983A342
:10500400A3A3A3E0F9023EFC74F61216ECEAFEEB4D
:10501400FF8E828F83A3A3A3E0600F8E828F83A36E
:10502400A3A3E4F09003EFE014F09003EEE014F097
:1050340070069003F074FFF08E828F83A3A3E4F0D4
:10504400900502E0700D9003EFE0640170057900B3
:10505400120CE4EE2465F582EF3400F583E0F8A346
:10506400E0F9E8496029EE2465F8EF3400F988088E
:1050740089098882F583E0FCA3E0FD9003F0E0FA5F
:105084007B001208D6850882850983E4F0A3F0EE3C
:10509400FAEFFB120C2A024A1874F71216ECEAFE15
:1050A400EBFF8E828F83A3A3A3A3E0FA7B001209F4
:1050B40018EEFAEFFB120B7C120C1202494CC08260
:1050C400C08378D5790388828983A3E4F0888289B0
:1050D40083A3A882A983E864DD7003E9640370E60E
:1050E4009003D602442974F61216ECEAFEEBFFECA8
:1050F4002403F8ED3400F988088909EC2407F8ED55
:105104003400F9E8FCE9FD8C828D83E0F8A3E0F932
:10511400850882850983E0FAA3E0FB12160AEE24CF
:105124000DF582EF3400F583E8F0A3E9F08C828D6D
:1051340083E0F8A3E0F9850882850983E0FAA3E017
:10514400FB12160A8B09EA45096013EE240DF58259
:10515400EF3400F583E02401F0A3E03400F0024AC8
:105164001874F61216ECEAFEEBFFEE242EF582EF2D
:105174003400F583E0FCA3E0FD780079FAECFAED65
:10518400FB12160AEE2470F582EF3400F583E8F082
:10519400A3E9F0780079FAECFAEDFB12160A8B0910
:1051A400EA45096013EE2470F582EF3400F583E0DC
:1051B4002401F0A3E03400F0024A1874F01216EC53
:1051C400EAFEEBFF74101216E07808121565120C53
:1051D400A88A0C8B0D8C0E8D0F90844F780C1214B2
:1051E400F190841F780C12153F780C1218FB8E82F4
:1051F4008F83E0F8A3E0F5838882A3A312158312BA
:105204001FAD74041216ABE9600302530C8E828F37
:1052140083E02402F8A3E03400F9E8FAE9FB8A8287
:105224008B83780812150490841F78081215658AF8
:10523400828B837808121552EE240BF582EF34002A
:10524400F583C082C0838E828F83A3A3A3A3A3E02C
:105254002401F8A3E03400F9D083D082E06870031D
:10526400A3E0697005790102530E8E828F83A3A394
:10527400A3A3A3A3A3E02401F0A3E03400F0EE244D
:1052840074F582EF3400F583E064017036EE247522
:10529400F582EF3400F583E0F8A3E0F98E828F8382
:1052A400A3A3A3A3A3A3A3E0687003A3E06970135B
:1052B400EE2475F582EF3400F583E02401F0A3E0D9
:1052C4003400F0EE2480F582EF3400F583E06401CD
:1052D4007036EE2481F582EF3400F583E0F8A3E024
:1052E400F98E828F83A3A3A3A3A3A3A3E06870036F
:1052F400A3E0697013EE2481F582EF3400F583E0B6
:105304002401F0A3E03400F079007F080217BE7492
:10531400F71216EC9003F0E0F875F004A4C8AAF0B4
:105324002AF974F228FE740339FF8028EE2465F804
:10533400EF3400F988828983E0FCA3E0FD88828948
:1053440083E4F0A3F08E828F83A3A3A3A3E0FA7B6C
:10535400001208D6EE2465F582EF3400F583E0F8F8
:10536400A3E0F9E849604FEE2464F582EF3400F5D8
:1053740083E0F5087808121903EE2463F582EF340C
:1053840000F583E0F9EE2465F582EF3400F583E05F
:10539400FCA3E0FDEEFAEFFB120BA674011216ABB0
:1053A400E96089EE2465F582EF3400F583E0F8A323
:1053B400E0F9E84970137C007D008E828F83A3A3FB
:1053C400A3A3E0FA7B001208D602494C74F2121629
:1053D400ECEAFEEBFF890A740E1216E0E0FAEE2402
:1053E40062F582EF3400F583E06401600302549CAB
:1053F4009061D0E0F87480C398F50CEE2483F582B4
:10540400EF3400F583E060047804800278008908B2
:10541400E928F8E43400F9E824020808E93400F93A
:10542400E50C98E499A2D265D0334068EA7005751A
:105434000B028003750B01E06039750900780812CE
:1054440018FF7A607B05120BDC74021216AB750828
:105454006075090578081218FFAC0AA90BEEFAEF7B
:10546400FB120BFA74021216AB7404250AF50A7CBB
:10547400607D057401250AF5D9850BD9E50A600D0F
:105484008C828D83F8E0F5D9A318E870F875E1955E
:10549400790080067907800279FF7F060217BEC073
:1054A40082C083E960208C828D83E08A828B83F0C2
:1054B4008C828D83A3AC82AD838A828B83A3AA82E0
:1054C400AB8319E970E0ECFAEDFB023EFC74EA12DE
:1054D40016EC907803E06442705E90055FE014F08F
:1054E4007056C2AF1254EB00782AD0E0F618D0E020
:1054F400F6E59F5407F9700590844B800390844728
:105504007808121565E9C4C0E07829E65508F5085D
:1055140008E65509F509740B7808121673D0E025CE
:1055240008F8906270E0A2E740F8E8C33390627232
:10553400F0906270E0D2E0F09003F0E0F4700302C7
:1055440058F4E0F875F004A4C8AAF02AF974F22813
:10555400FE740339FFEE2402F582EF3401F583E093
:10556400F8A3E0F9E849601EEE2402F582EF340165
:10557400F583E0FAA3E0FBEE2401F582EF3401F5B4
:1055840083E0F9120FBA8E828F83A3A3A3A3A3A3EC
:10559400A3E0F8A3E0F98E828F83A3A3A3A3A3E8D7
:1055A400F0A3E9F0906054E09003C9F0906055E0F6
:1055B4009003CAF0906056E09003CBF0906057E0FF
:1055C4009003CCF0906058E09003CDF0906059E0E7
:1055D4009003CEF090605AE09003CFF090605BE0CF
:1055E4009003D0F090605CE0FC9003D1F090605D9B
:1055F400E0FB9003D2F090605EE0FD9003D3F09066
:10560400605FE0FA9003D4F09003CFE08C082508A3
:10561400F8E43400F98D08E82508F8E93400F98B3A
:1056240008E82508F8E93400F98A08E82508FAE9C1
:105634003400FBEE24F7F582EF3400F583E02AF022
:10564400A3E03BF08C08EE24F9F582EF3400F583F7
:10565400E02508F0A3E03400F0EE24FBF582EF34FB
:1056640000F583E02401F0A3E03400F0EE24FFF51C
:1056740082EF3400F583E0F8A3E0F9E84960429052
:105684006000E0C333FCE433FDE82CF582E93DF52A
:1056940083E02AF0A3E03BF0906000E0FA9003D1AD
:1056A400E0FCEAC333FAE433FBE82AF8E93BF9E81F
:1056B400244AF582E93400F583E02CF0A3E03400B9
:1056C400F09003CFE070119003D2E0700BA3E07070
:1056D40007A3E070030257D48E828F83A3A3A3A3EE
:1056E400A3E0F8A3E0F9EE240DF582EF3400F5838E
:1056F400E028F8A3E039F9EE240BF582EF3400F545
:1057040083E8F0A3E9F0EE240FF582EF3400F5838B
:10571400E4F0EE241CF582EF3400F583E0640170BC
:105724001EEE2420F582EF3400F583E0F8A3E0F9BF
:10573400EE241DF582EF3400F583E8F0A3E9F09040
:1057440003CAE06052EE241CF582EF3400F5837442
:1057540001F0EE246AF582EF3400F583E07038EE50
:105764002474F582EF3400F583E0702BEE2480F589
:1057740082EF3400F583E0701EEE2420F582EF34CE
:1057840000F583E0F8A3E0F9EE241DF582EF340080
:10579400F583E8F0A3E9F0906062E07003025887B3
:1057A4008E828F83E0F8A3E0F9E82406FCE9340054
:1057B400FDE82402FAE93400FB120CA28E828F83E6
:1057C400E02412F8A3E03400F98882898302589116
:1057D4009003D1E0603AEE240FF582EF3400F583B4
:1057E400E4F0EE241CF582EF3400F583E0640170EC
:1057F40040EE2420F582EF3400F583E0F8A3E0F9CD
:10580400EE241DF582EF3400F583E8F0A3E980204F
:10581400EE24FDF582EF3400F583E02401F0A3E0EB
:105824003400F0EE241DF582EF3400F583E4F0A398
:10583400F0EE240BF582EF3400F583E0F8A3E0F9F1
:105844008E828F83A3A3A3A3A3E0687003A3E0695C
:105854006003025743EE240FF582EF3400F583E032
:1058640060128E828F83A3A3A3A3A3E064057002B6
:10587400A3E0600B7908EEFAEFFB120B82807179DA
:105884003E80F3EE241DF582EF3400F583E4F0A3AB
:10589400F0906060E0C0E0EE2469F582EF3400F53A
:1058A40083D0E0F09003CFE0F8EE2467F582EF3484
:1058B40000F583E0280259F490055DE06401703539
:1058C400120D50EE2467F582EF3400F583E0700684
:1058D4009060607480F0EEFAEFFB120C6CE96401E6
:1058E400600E120BA0120C66E964016003120C1224
:1058F4007F0E0217BEEE2483F582EF3400F583E0B9
:105904006004780480027800E50CC398F91208CA90
:105914008A0A8B0BEA450B60A7EE2483F582EF34E9
:1059240000F583E070048A088B09E50C6012850891
:1059340082850983F512E5D9F0A31512E51270F6F4
:10594400EE2483F582EF3400F583E0603774FC25A0
:105954000CF50C78081218FFAC0CA90DEEFAEFFB4D
:10596400120C0074021216ABE970197403650D7001
:1059740003025A34E50A24FBFAE50B34FFFB120F49
:10598400FC025A347403650D7003025A39850C0EF7
:10599400750F00780E1218FFAC08AD09AA0AAB0BFC
:1059A400120BDC74021216ABEE2469F582EF34009C
:1059B400F583E064807004747F8001E0F508780862
:1059C400121903E50DF5087808121903A90CAC0A9D
:1059D400AD0B9003F0E0FA7B001208D074021216AB
:1059E400AB120D5CEE2467F582EF3400F583E0140E
:1059F400F0E070030258D4750860750905750A0053
:105A0400750B00E5D914F50CE5D95403F50D6020A8
:105A14007403650D700302592EE50C70030258BC23
:105A2400EE2468F582EF3400F583E060030258BC8D
:105A3400793D02587A850882850983E0F8A3858236
:105A440008858309603B147003025C3114700302FF
:105A54005F25147003025C8F24FD7003025DAF1494
:105A640070030259E5147003025E0524FE700302FC
:105A74005DBE147003025E00147003025E9A025E3F
:105A8400A9EE2477F510EF3400F511E08510828536
:105A94001183F0850882850983A38582088583099B
:105AA400EE2478F50EEF3400F50F7902AC08AD0959
:105AB400AA0EFB120BAC8A088B09EE247AF50CEFC4
:105AC4003400F50D7902AC08AD09AA0CFB120BAC3D
:105AD4008A088B097902AC08AD09EE247CFAEF340C
:105AE40000FB120BAC8A088B09EE247EF50AEF3416
:105AF40000F50B7902AC08AD09AA0AFB120BAC8ABB
:105B0400088B09851082851183E0C333F0850E82EA
:105B1400850F83E0F8A3E0F9E8C333F8E933F985A6
