:020000040000FA
:0600000002011D021DEFCC
:03002B0002251F8C
:03003300022501A2
:03005300021E6228
:03006B000224D894
:10008300021CA3E5C754F84401F5C7790122000017
:100093000080FB120086B90003020107E47921788E
:1000A30008B800028004F709D8FCE479297802B87B
:1000B30000028004F709D8FCE490028178AD790747
:1000C3008002F0A3D8FCD9FA781A90014D7A01BACC
:1000D30000028007E493A3F608DAF990092DAA82B7
:1000E300AB8390014E78FB79038015E493A3AC8234
:1000F300AD838A828B83F0A3AA82AB838C828D83A8
:10010300D8E9D9E77582977583FF740112012F75BA
:100113008291758300740012012F75D00075813FA1
:10012300751881751902759F00020096C09FF59F8F
:10013300E473D09F22D083D082C09FE493C0E07445
:100143000193C0E0740293F59F2201FF0000B40005
:100153000028002800283075A000A000A000A000FF
:1001630000080008E001F00010001000100010006B
:100173001000100050005000500010001000D00775
:100183000000000000000F003075070010000100A0
:1001930081FF0000FF460664064C06FF02020A0ABE
:1001A300025000A0000000E803028B840100007CE1
:1001B300840287840100007E09027F84010000B26B
:1001C300020287840100007F09028184010000C8C4
:1001D30002028784010000800902B984030000CA77
:1001E300020287840100008109029384030000CB8B
:1001F30002028784010000820902918401000083C6
:1002030009FF0100FF20028B84010000768402872E
:1002130084010000E709028D8400000000000283CE
:100223008403000018032E0C2E0C2E0C2E0C2E0C07
:100233002E0C2E0C2E0C2E0C2E0C2E0C2E0C2E0CEB
:10024300BC0ED40EB60EFFFF02020202020202022D
:1002530002010D0000001001028B84010000738471
:100263000287840100002A0A02A78401000075079F
:100273000287840100002B0A02A3840100002E835D
:100283000287840100002C0A02A184010000138369
:100293000287840100002D0A029F840100008082EE
:1002A3000287840100002E0A029D840100006E82F1
:1002B3000287840100002F0A029B840100005C82F4
:1002C300028784010000300A0299840100009282AF
:1002D300028784010000310A02978401000005832C
:1002E300028784010000320A029584010000330A68
:1002F30001E803053F10FF0001307503020106000A
:1003030000000000000000000000000000000000EA
:100313000000000000000000000000FFFF06008056
:100323000CE803140953696D706C65424C455065C4
:10033300726970686572616C051250002003020ACD
:10034300000201060302F0FF47686F737479754278
:100353004C455065726970686572616C00181300D2
:10036300001E130A43686172616374657269737472
:100373006963203100024368617261637465726965
:100383007374696320320008436861726163746542
:100393007269737469632033001043686172616327
:1003A300746572697374696320340002436861720F
:1003B30061637465726973746963203500028B84A9
:1003C3000100007984028784010000450B02B18497
:1003D3000300001E09028584010000460B02878486
:1003E300010000570B02B3840100001F090285843A
:1003F300010000580B028784010000690B02B584D9
:1004030002000020090285840100006A0B02878430
:100413000100007B0B02B7840000002109028384E2
:1004230003000022090285840100007C0B028784FB
:100433000100008D0B02AB840400002809028584AF
:100443000100008E0B1201384C9803120138639897
:1004530003120138929803120138CB980312013822
:10046300F3980312013821990312013838990312C2
:1004730001384F99031201386599031201388C9999
:10048300031201389F9903120138B59903120138F9
:10049300C89903120138ED9903120138FDA3021222
:1004A3000138FCA40212013831A50212013852A509
:1004B3000212013862A50212013883A50212013823
:1004C3008FA6021201385CA702120138CFA70212CD
:1004D300013855A80212013898A802120138CFA892
:1004E3000212013855A90212013827AA0212013853
:1004F30085AA021201389DAA0212013817AB021213
:1005030001381AAB021201381DAB02120138C4AB19
:1005130002120138DCAB021201380CAC02120138B2
:100523002CAC021201381AAD02120138D0AD0212FE
:10053300013820E50212013848E50212013876E558
:1005430002120138ADE50212013815E60212013834
:100553005EE602120138A9E602120138E7E602124A
:10056300013824E70212013852E702120138F9E791
:100573000212013803E80212013810E802120138AE
:1005830043E80212013805E90212013811E90212A7
:10059300013829E90212013833E90212013884A132
:1005A3000312013892A103120138AAA103120138E0
:1005B300C2A103120138CBAB0112013869AC01129D
:1005C3000138E1AC01120138F6AD0112013830AE49
:1005D30001120138D9AE01120138AEAF0112013850
:1005E30012B10112013869B101120138F0B10112DF
:1005F3000138D7B20112013824B301120138B2B362
:1006030001120138D6B301120138ABB5011201381A
:10061300ECB5011201380EB6011201388FB6011282
:10062300013879B7011201383FB801120138C5CD3D
:100633000212013897CE0212013840CF021201385C
:1006430083CF0212013810D0021201389CD002125B
:1006530001387DD102120138ACD102120138A8D27F
:1006630002120138F0D202120138F2D30212013819
:1006730036D4021201385CD402120138A2A3031249
:1006830001380080031201381680031201383C80C0
:10069300031201386481031201386E810312013899
:1006A300C78203120138C783031201382DE00212F7
:1006B30001383AE1021201386EE102120138B0E169
:1006C300021201386AE3021201382D6D001201385B
:1006D300906D00120138D56E00120138E56E0012DC
:1006E3000138086F00120138536F00120138F86F98
:1006F30000120138EE7000120138B871001201388F
:100703003073001201387273001201381074001232
:1007130001385D7400120138837400120138717658
:10072300001201387676001201385778001201382A
:10073300AB78001201380D790012013835790012B7
:100743000138D979001201389B7A00120138CC7A2A
:1007530000120138CF7A00120138177B00120138DA
:10076300597B00120138C07B00120138DC8D031263
:100773000138EF8D03120138088E03120138538EAE
:10078300031201382E8F03120138BD8F0312013873
:100793000890031201384425001201385025001235
:1007A3000138892500120138CE250012013885262B
:1007B300001201380B27001201387027001201388C
:1007C3009C2700120138D52700120138E9290012AD
:1007D3000138C52B00120138B02D00120138E72E65
:1007E3000012013847310012013833320012013848
:1007F300793300120138863400120138A334001211
:100803000138DB3400120138F534001201385D354C
:1008130000120138F73900120138983A00120138F2
:10082300E93A00120138103B001201385E3B001216
:1008330001387C3B00120138D03B00120138A93C3F
:1008430000120138303E00120138B83E0012013860
:10085300D1D402120138DBD402120138A2D502121C
:100863000138F1D50212013815D60212013870D6BB
:1008730002120138A8D602120138D0D6021201386A
:1008830000D8021201382BD80212013856D80212AE
:100893000138A5D802120138BBD80212013801D998
:1008A300021201383BD9021201387DD902120138F4
:1008B300C5D90212013801DA021201384FDA0212E5
:1008C300013898DA02120138C2DA02120138E7DA83
:1008D30002120138FDF602120138C7F7021201387D
:1008E300B3F80212013829F9021201386BF9021226
:1008F300013898FA02120138008002120138298067
:100903000212013842800212013887810212013833
:1009130065820212013884820212013811830212A5
:100923000138548302120138A18402120138408530
:1009330002120138BF8702120138568802120138A9
:100943002A89021201380C8A02120138788B0212AA
:1009530001380B8C02120138E5FE021201384EFFFA
:1009630002120138A2FF02120138C9FF0212013834
:100973005CEE02120138C9EE0212013814EF0212C2
:10098300013809F00212013805F102120138EFF1C2
:10099300021201383BAE021201387DAE0212013859
:1009A30057AF0212013830B0021201382BB10212D4
:1009B30001380AB20212013876B2021201383DB38D
:1009C30002120138A8B3021201380FB4021201381F
:1009D3003AB402120138ABB4021201383EB5021226
:1009E3000138A7B502120138BCB50212013804B6AA
:1009F300021201381DB60212013882B60212013802
:100A030085B6021201388A7C00120138B27C0012CA
:100A13000138F07C00120138AE7D00120138197ED6
:100A230000120138357E001201385D7E0012013854
:100A33008D7E001201389C7E00120138167F001251
:100A430001383C7F00120138C1D6011201388CD81D
:100A5300011201384EDA011201381DDB011201388F
:100A630068DB01120138B3DB01120138D1DB01125B
:100A7300013813DC011201382EDC011201387ADC53
:100A830001120138B4DC01120138D7DC011201383C
:100A930024DD0112013897DD01120138A9DF0112AB
:100AA300013853E101120138A3E101120138E8E2F0
:100AB300011201383EE301120138ACE3011201389F
:100AC300F7E30112013821E4011201384CE4011269
:100AD3000138828C02120138AD8C021201388093E6
:100AE30002120138A495021201385F9702120138ED
:100AF300BC98021201381F3F00120138B03F0012A8
:100B03000138DD3F001201382340001201386241F1
:100B130000120138F942001201384E430012013825
:100B2300C34300120138F244001201384D4600124B
:100B330001384F4700120138AC4800120138C5484C
:100B430000120138224900120138044A0012013808
:100B5300374A00120138A74A00120138214B00120C
:100B63000138704B001201383C4C00120138414DE2
:100B730000120138204E00120138AB4E001201382A
:100B8300194F001201388D4F00120138B64F001271
:100B93000138755000120138EF51001201380C5220
:100BA300001201382B5200120138BC5200120138D6
:100BB300E152001201380953001201388453001224
:100BC3000138DE5300120138325500120138EF5557
:100BD30000120138C25600120138F2C8011201385E
:100BE30042C9011201384EC9011201382BCA011240
:100BF30001385BCA0112013893CA0112013812CBC2
:100C0300011201384ACB011201389CCB0112013881
:100C1300D9CB01120138FECD011201382AD00112BD
:100C2300013825D20112013800D401120138F47FB2
:100C330000120138BD840112013807850112013801
:100C4300E68A01120138678C01120138C69201123B
:100C53000138C19301120138FE9301120138219426
:100C6300011201386394011201386C9401120138A6
:100C730076940112013862950112013856960112D9
:100C83000138F056001201386861001201386E61B4
:100C930000120138726800120138D183031201383F
:100CA3006784031201387D8403120138F784031229
:100CB30001384D85031201388B8503120138E8850D
:100CC300031201386586031201386E860312013858
:100CD3007A86031201388D8603120138C9860312FE
:100CE3000138DF86031201383E8703120138B1F25F
:100CF30002120138BEF202120138D8F20212013890
:100D030017F30212013855F302120138BAF3021233
:100D13000138CFF302120138DAF302120138E7F394
:100D230002120138FEF3021201380CF402120138E8
:100D330017F40212013823F40212013832F40212BA
:100D430001383DF40212013860F40212013809F54A
:100D53000212013819F50212013833F50212013873
:100D630050F5021201386CF50212013891F50212A6
:100D730001389BF502120138AFF502120138CEF5A6
:100D8300021201382FF60212013835F60212013829
:100D93003BF60212013841F6021201384DF60212F7
:100DA300013880F6021201380DF2011201388FF278
:100DB3000112013838F30112013880F401120138AD
:100DC3008EF60112013874F701120138A9F70112E6
:100DD3000138CBF70112013874F80112013844FAD3
:100DE300011201386DFA01120138E5FA01120138D6
:100DF30017FB0112013824FB011201386FFB0112AA
:100E0300013893FB01120138E4FD01120138EEFEB3
:100E1300011201384AFF0112013874BA0112013874
:100E230085BB0112013869BC0112013873BC011280
:100E3300013895BC01120138A1BC0112013845BE2D
:100E43000112013872BE0112013888BF0112013844
:100E5300DDBF011201382CC10112013801C2011298
:100E630001385DC201120138C8C201120138FDC246
:100E73000112013840C3011201380AC601120138B8
:100E830022C601120138B3C601120138C1C60112CC
:100E930001380EC7011201381CC70112013888C777
:100EA3000112013803C8011201385AC8011201386E
:100EB300DF9802120138019902120138129B0212C3
:100EC3000138D19D02120138FB9E02120138B99FED
:100ED30002120138A5A002120138939603120138B9
:100EE300B896031201382E9703120138A8C60212CE
:100EF3000138B1C602120138BAC60212013892C7CC
:100F03000212013843C90212013873C902120138AF
:100F13009EC902120138CEC902120138F9C9021260
:100F230001382DCA0212013859CA021201389CCA6B
:100F330002120138C7CA021201380ECB021201385D
:100F430063CB02120138A5CB02120138FFCB021288
:100F530001382ACC0212013879CC02120138A9CC0B
:100F630002120138D4CC0212013802CD0212013828
:100F730025CD021201382BA40312013857A4031202
:100F8300013884A4031201388EA4031201389EA4ED
:100F930003120138A9B602120138B3B6021201389E
:100FA300F4B6021201383DB70212013877B70212C4
:100FB3000138CDB702120138EEB7021201389DBADB
:100FC30002120138A6BA02120138FABA0212013823
:100FD30023BB021201382DBB021201389BBB021244
:100FE30001382BBC0212013886BC02120138B4BC92
:100FF300021201383CBD021201387BBD02120138D6
:10100300B0BD02120138C2BD02120138E1BD0212A5
:101013000138EABD02120138B1BE02120138B09F95
:1010230003120138A29403120138D8940312013831
:101033000C95031201385996031201380CA30312BD
:10104300013822A3031201382CA30312013876A31B
:1010530003120138847F00120138C8E902120138F3
:10106300DBE9021201389CEA02120138DBEA0212C0
:101073000138F8EA0212013831EB021201387EEB33
:1010830002120138B0EB02120138E7EB0212013809
:10109300F0ED02120138399D031201385C9D0312F1
:1010A30001388B9D03120138239E03120138659E7C
:1010B30003120138F88A031201381D8B0312013819
:1010C300478B03120138A8A4031201386E9801124A
:1010D3000138389A01120138E39B011201388E9CC2
:1010E300011201380E9D01120138979D011201383A
:1010F300C09D0112013879A101120138F9A1011231
:10110300013804A3011201383EA3011201387FA361
:1011130001120138C6A4011201381CA501120138BD
:1011230065A501120138BCA5011201380AA60112F6
:10113300013838A60112013850A60112013835A72B
:10114300011201386BA7011201381AA801120138E4
:1011530031A80112013863A80112013800AA011253
:10116300013894AA01120138D2AA011201385BA2F4
:10117300031201386CA203120138FEA403120138D2
:101183003DA503120138E37F00120138A7A0031223
:101193000138B7A003120138CCA0031201387EA195
:1011A30003120138AE9E03120138339F0312013834
:1011B300979F03120138FF9903120138289A0312EB
:1011C30001388E9A03120138AE9A03120138FF9A3E
:1011D300031201385A9B03120138949B03120138FE
:1011E300979B03120138F2FA021201381FFB021215
:1011F300013891FB02120138A6FB02120138C7FC29
:10120300021201384AFD02120138C3FD02120138ED
:10121300E2FD0212013805FE0212013842FE0212FB
:1012230001385AFE02120138B0FE02120138F0A54D
:101233000312013800A60312013803A60312013872
:10124300F87F00120138799203120138F8930312E0
:1012530001385994031201389F9403120138A19B5A
:1012630003120138F39B03120138669C0312013801
:10127300D39C031201383290031201385C9003129D
:1012830001382B9103120138079203120138DFBE94
:1012930002120138ABBF02120138ECBF021201384F
:1012A3004AC0021201389EC002120138FCC0021269
:1012B300013892C1021201389AC20212013824C4C1
:1012C30002120138C2C40212013829C502120138C0
:1012D30040C5021201385FC60212013877E40112D9
:1012E3000138F3E7011201387FE901120138CFE930
:1012F30001120138E9E90112013869EA01120138E2
:101303006FEC0112013860F0011201380FDB021299
:10131300013877DD0212013825DE021201383ADF87
:1013230002120138ACDF021201386E870312013852
:10133300B38703120138D08703120138868803125A
:101343000138D98803120138A98903120138BF8AE9
:10135300031201387DA50312013847A50312013892
:10136300AAA503120138D2A503E066701008A3E012
:1013730066700A08A3E066700408A3E06622C3E768
:10138300960809E7960809E7960809E79622C3E055
:101393009608A3E09608A3E09608A3E09622C00867
:1013A300C3E096F50808A3E096420808A3E0964236
:1013B3000808A3E09645087001D3D008220808085E
:1013C300EAC0E0EBC0E086F0E7A4FA180986F0E78C
:1013D300A42AFA180986F0E7A42AFA180986F0E77E
:1013E300A42AFA1986F0E7A4FBE5F02AFA1908867D
:1013F300F0E7A42BFBE5F03AFA190886F0E7A42BF3
:10140300FBE5F03AFA18180986F0E7A4C5F02BFBC0
:10141300E43AFA1908E7C5F0C6A426F6E5F03BFB63
:10142300E43AFA1886F0E7A4F6E5F00826F6E43B7A
:1014330008F6E43A08F6D0E0FBD0E0FA22E4CFC0A5
:10144300E0E4CEC0E0E4CDC0E0E4CCC0E075F02041
:10145300C3E633F608E633F608E633F608E633F672
:10146300181818EC33FCED33FDEE33FEEF33FFC3F6
:10147300EC9709ED9709EE9709EF97191919400FA2
:10148300FFEC97FC09ED97FD09EE97FE191906D5B8
:10149300F0BEECF709EDF709EEF709EFF7191919A3
:1014A300D0E0FCD0E0FDD0E0FED0E0FF22601608E3
:1014B3000808C6C313C618C613C618C613C618C66B
:1014C30013C6D5E0EA227009080808226016181826
:1014D30018C6C333C608C633C608C633C608C633E0
:1014E300C6D5E0EA22E627F60809E637F60809E654
:1014F30037F60809E637F622E026F608A3E036F6C3
:1015030008A3E036F608A3E036F622E026F008A3A7
:10151300E036F008A3E036F008A3E036F022C3E695
:1015230097F60809E697F60809E697F60809E69795
:10153300F622C3E096F008A3E096F008A3E096F045
:1015430008A3E096F022E056F608A3E056F608A3B7
:10155300E056F608A3E056F622E056F008A3E0565C
:10156300F008A3E056F008A3E056F022E0F608A343
:10157300E0F608A3E0F608A3E0F622E6F008A3E607
:10158300F008A3E6F008A3E6F022E0FAA3E0FBA349
:10159300E0FCA3E0FD22EAF0A3EBF0A3ECF0A3ED63
:1015A300F022CAC0E0E6F0A308DAFAD0E0FA22CAD1
:1015B300C0E0E0A3C582CCC582C583CDC583F0A3BB
:1015C300C582CCC582C583CDC583DAE6D0E0CA2205
:1015D300C3E498F8E499F91216148026C3E49AFA3E
:1015E300E49BFBE920E7E9121614E498F8E499F97F
:1015F30022C3E498F8E499F9121614E498F8E499EC
:10160300F9C3E49AFAE49BFB22EB20E7CFE920E756
:10161300E0B90010BB0008E88AF084F8AAF022E4DD
:10162300FBC8FA22EB70227B10C833C8C933C93315
:101633005007C39AC3DBF280069A50012ADBEAC83B
:1016430033F4C8C933F4C9FA2275F008E4C833C8BF
:10165300C933C933C99AC99B5004C92AC93BD5F0B8
:10166300ECFBC833F4C8E4C9FA22600D08C6A2E74C
:1016730013C618C613C6D5E0F322600C08C6C313FD
:10168300C618C613C6D5E0F422700422600D18C62E
:10169300C333C608C633C6D5E0F41822251810AFE5
:1016A30008F518400215198008F51840021519D2DB
:1016B300AF22C0D0251810AF08F5185002051980C5
:1016C30008F51850020519D2AFD0D0222518F5829B
:1016D30010AF08F518400215198008F518400215D7
:1016E30019D2AF851983222518F582E43519F583BC
:1016F30022E4732518C582C0E0E51934FFC583C011
:10170300E0E518C3958224F810AF08858319858214
:10171300188008858319858218D2AFCEF0A3E520FF
:10172300F0A37808E608F0A3DEFAEFF0A3E581243E
:10173300FAF8E608F0A3E608F0A3E608F0A3080821
:10174300E608F0A3E608F0A315811581D0E0FED0EA
:10175300E0F8158115811581E8C0E0EEC0E022258F
:1017630018C582C0E0E51934FFC583C0E0E518C39E
:10177300958224F910AF088583198582188008851E
:101783008319858218D2AFCEF0A3E520F0A37808A1
:10179300E608F0A3DEFAEFF0A3E58124FBF8E60800
:1017A300F0A3E608F0A30808E608F0A3E608F0A310
:1017B30015811581D0E0FED0E0F815811581E8C0D0
:1017C300E0EEC0E022851983851882E0A3FEE0A342
:1017D300F5207808E0A3F608DFFAE0A3FFE0A3C052
:1017E300E0E0A3C0E0E0A3C0E0E0A3C0E0E0A3C06A
:1017F300E010AF08858218858319800885821885D3
:101803008319D2AFD083D08202013585198385181D
:1018130082E0A3FEE0A3F5207808E0A3F608DFFA50
:10182300E0A3FFE0A3C0E0E0A3C0E0E0A3C0E0E0EA
:10183300A3C0E010AF0885821885831980088582CC
:1018430018858319D2AFD083D08222C0D02518C582
:1018530082C0E0E51934FFC583C0E0E518C3958273
:1018630024F310AF088583198582188008858319AE
:10187300858218D2AFC8F0A3E9F0A3EAF0A3EBF096
:10188300A37908E709F0A3D8FAECF0A3EDF0A3EEEF
:10189300F0A3EFF0A3D0E0F0A3D0E0F0A3D0E0F00A
:1018A300A3E520F0A3E5F0F0A32285198385188230
:1018B300E0C0E0A3E0F9A3E0FAA3E0FBA37808E02B
:1018C300F608A3DFFAE0FCA3E0FDA3E0FEA3E0FF3C
:1018D300A3E0C0E0A3E0C0E0A3E0F5D0A3E0F520DF
:1018E300A3E0A3F5F010AF0885831985821880085B
:1018F300858319858218D2AFD082D083D0E0F8D007
:10190300E03274048006740280027401C0E0F404BF
:101913001216CFD0E01215A522740480047402803D
:1019230000CCC0E0EDC0E0E518C39CCCAD1950017C
:101933001D10AF068C188D1980068C188D19D2AF27
:101943001215B2D0E0FDD0E0FC22D083D082E9C0F2
:10195300E0E493A3C386F0C5F095F0F908E493A3FC
:1019630086F0C5F095F0700BE493A3C3994005E9A5
:10197300048002A3E475F002A42582F582E5F03524
:1019830083F583D0E0F9E493A3C0E0E493C0E022BD
:10199300D083D082ECC0E0EDC0E0E493A3FCE493F9
:1019A300A3FDED4C600D1219DFEC24FFFCED34FFB9
:1019B300FD80EFE493A3FCE493A3FDED4C600D12D3
:1019C3001A1EEC24FFFCED34FFFD80EFD0E0FDD0C8
:1019D300E0FCE493A3C0E0E493C0E022C0E0C3E4EE
:1019E3009396087401939618400FE4936670080861
:1019F300740193661870007019A3A3C3E493960847
:101A03007401939618A3A3400DD0E0D0E0D0E00278
:101A130019CFA3A3A3A3A3A3D0E022C0E0C0F0885F
:101A2300F0E4936670080874019366187000A8F0D8
:101A3300A3A3700BD0F0D0E0D0E0D0E00219CFA385
:061A4300A3D0F0D0E02268
:101A4C0074F5121762EAFEEBFFEE2434F8EF340063
:101A5C00F988088909EE2435F582EF3400F583E026
:101A6C00F8EE2437F582EF3400F583E0F50AEC85C7
:101A7C000AF0A4FCAAF0850AF0EDA42AFDE82CF8E3
:101A8C00E43DF97A257B00121614EA850882850953
:101A9C0083F05407F87401B800028004C333D8FCF7
:101AAC00C0E0E0131313541FF8EE28F8EF3400F9DC
:101ABC00E8245DF582E93400F583D0E0F8E0586065
:101ACC0008EE2434F582EF801EEE2436F582EF34D6
:101ADC0000F583E0F5F0EA84A8F0EE28F8EF340086
:101AEC00F9E82438F582E93400F583E0F97F040243
:101AFC00180E74F5121762EAFEEBFFEE2434F58231
:101B0C00EF3400F583E0C0E0EE2435F582EF3400CD
:101B1C00F583D0E0F08E828F83A3A3A3A3A3A3A30A
:101B2C00C082C0838E828F83A3A3A3A3A3E0F8A358
:101B3C00E0F9D083D082E0C398F508A3E099F509C9
:101B4C00EE2480F582EF3400F583E064017047EEFB
:101B5C002481F582EF3400F583E0FCA3E0FD8E8256
:101B6C008F83A3A3A3A3A3A3A3E0FAA3E0FBC3E8DF
:101B7C009AE99B4003021C26C3EA9CEB9D40177C10
:101B8C00FB7D04EEFAEFFB120B8CEE2480F582EF5A
:101B9C003400F583E4F0EE2434F8EF3400F9E8FC7B
:101BAC00E9FDEE2435F582EF3400F583E0F8EE2400
:101BBC0037F582EF3400F583E0F50AE508850AF085
:101BCC00A4F508AAF0850AF0E509A42AF509E82588
:101BDC0008F8E43509F97A257B00121614EA8C8290
:101BEC008D83F05407F87401B800028004C333D815
:101BFC00FCC0E0E0131313541FF8EE28F8EF340088
:101C0C00F9E8245DF582E93400F583D0E0F8E0587A
:101C1C006015EE2434F582EF802BC3E89CE99D50CF
:101C2C0003021B8B021B84EE2436F582EF3400F585
:101C3C0083E0F5F0EA84A8F0EE28F8EF3400F9E838
:101C4C002438F582E93400F583E0F91224CA021A2B
:101C5C00F9C082C083851882851983E0F8A3E0F966
:101C6C00C3EA9CEB9D500BC3EC98ED9940127901A3
:101C7C008010C3EA98EB9940F5C3EC98ED9950EEBF
:101C8C007900D083D08222EAC39CFAEB9DFB220020
:101C9C008521878522C622C0E0C0D0E8C0E0E9C01B
:101CAC00E0EAC0E0EBC0E0ECC0E0EDC0E0C008C092
:101CBC0009C00AC00BC082C083C0F0759B00906144
:101CCC0082E0A2E64003021D81E591A2E6400302F8
:101CDC001D817591BF9003C2E064057008120CC49D
:101CEC00120CD08003120CCA752100120D2AE99037
:101CFC0003C3F07900120D1E120B087A017B0090C1
:101D0C0003C1E0F9120FF4907803E064426003021F
:101D1C001DCA90055CE014F06003021DCAC2AF122C
:101D2C001D2E00782AD0E0F618D0E0F6E59F540777
:101D3C00F9700590846F800390843B780812156FBE
:101D4C00E9C4C0E07829E65508F50808E65509F518
:101D5C0009740B780812167DD0E02508F890627093
:101D6C00E0A2E740F8E8C333906272F0906270E052
:101D7C00D2E0F08049E0A2E55024E591A2E5501EA6
:101D8C007591DF9003C2E0640D70139003E4E004DE
:101D9C00F064287002E4F07A00E0F9120D9C906176
:101DAC0081E0A2E35009E5E9A2E3500375E9F7A34A
:101DBC00E0A2E75009E591A2E7500375917FD0F0BE
:101DCC00D083D082D00BD00AD009D008D0E0FDD07F
:101DDC00E0FCD0E0FBD0E0FAD0E0F9D0E0F8D0D0D5
:101DEC00D0E032C0E0C0D0C082C083906183E0A25A
:101DFC00E05009E5BFA2E0500375BFFEE0A2E15040
:101E0C0009E5BFA2E1500375BFFDE0A2E25009E570
:101E1C00BFA2E2500375BFFBE0A2E35009E5BFA2ED
:101E2C00E3500375BFF7E0A2E45009E5BFA2E4500C
:101E3C000375BFEFE0A2E55009E5BFA2E5500375BD
:101E4C00BFDFE0A2E65009E5BFA2E6500375BFBFB5
:101E5C00D083D0828088C0E0C0D0E8C0E0E9C0E088
:101E6C00EAC0E0EBC0E0ECC0E0EDC0E0C0F0E5A7FC
:101E7C00A2E6500FE5A1A2E6500953A7BF75A1BF7A
:101E8C00121EC7E5A7A2E5500CE5A1A2E55006532A
:101E9C00A7DF75A1DFE5A7A2E15009E5A1A2E150FA
:101EAC000375A1FDE5A7A2E2500CE5A1A2E2500644
:101EBC0053A7FB75A1FBD0F0021DD874F812176262
:101ECC007521019003C2E064067015120C588A82C9
:101EDC008B83A3A3A3A3A3A3E0FAA3E0FB120CB2EE
:101EEC00A2AFE433FED2AF9003C8E0640170187A5D
:101EFC00207B009003C1E0F912107E7A207B0090C9
:101F0C0003C1E0F9120FFA906182E0D2E6F090057D
:101F1C005BE0602185C62280169003C7E0640170E7
:101F2C0008E5C654F84405F5C653BEFC121C9C7457
:101F3C0001652160E4EEA2E092AF7F0102180E0071
:101F4C008E238F2485822885832785188285198383
:101F5C00E0CEA3E0CF852882852783EBC9EAC8EDC4
:101F6C00CBECCA75F010C3E833C8E933C9EA33CAFD
:101F7C00EB33CBC3EA9EF526EB9FF525B35004ABB0
:101F8C0025AA26EC33CCED33CDD5F0DAAE23AF2435
:101F9C002274EB12176274FA12169F8A088B098C42
:101FAC00148D159003C2E024F7C394055006908459
:101FBC00030220FF120C588A0A8B0BAE0AAF0BEEF1
:101FCC004F70030220FCAC08AD098518828519837B
:101FDC00AA82AB83120CE28E828F83A3A3780812A1
:101FEC00156F9084277808121549851882851983F6
:101FFC00780C12156F908427780C12154978087993
:10200C000C121381501F7808790C1215219083FB48
:10201C0078081213A14047850810850911850A120A
:10202C00850B138041850C10850D11850E12850FC3
:10203C0013781079081215219083FB78101213A1D4
:10204C00501C751000751100751200751301781075
:10205C00790C121521781079081214E880089084F4
:10206C0003781012156F740978101214C9908467D4
:10207C00780812156F781079081214408E828F83AD
:10208C00A3A3A3A3A3A3E0F8A3E0F97AD07B031244
:10209C00161488088909E4F50AF50B7810790812EA
:1020AC0014E874041216EAE0F8A3E0F97AD07B0382
:1020BC00121614E8FA8A08E4F50978107908121354
:1020CC00815007781079081215219003C2E064083A
:1020DC00600AE064066005E06405701C9083F77884
:1020EC00101213A150129083F378101214FB800875
:1020FC009083EB781012156F8514828515837810F8
:10210C0012157E74061216B57F0E02180E74F71295
:10211C001762120CF4900559E0640170109062453E
:10212C00E4F0A3F053F4F343FE0C5390F3120CA021
:10213C00E5C654804449F5C6E59E547F644970F861
:10214C00906185740FF0900557E0F47002A3E06085
:10215C004E900558E0600814601B14602E8040758A
:10216C000801750900900557E0780812168CE508EF
:10217C00F45280802A750801750900900557E078A3
:10218C000812168CE508F452908014750801750934
:10219C0000900557E0780812168CE508F452A079E7
:1021AC00007F0202180E74F7121762E9FE90253CAC
:1021BC00E493F46008E493F9120AFC800953C68096
:1021CC00E59E547F70FA120CA6900559E0640170DC
:1021DC0003120B14900557E0F47002A3E0604B90CF
:1021EC000558E0600814601A14602C803D750801D5
:1021FC00750900900557E0780812168CE5084280A6
:10220C008028750801750900900557E078081216AA
:10221C008CE50842908013750801750900900557EC
:10222C00E0780812168CE50842A0120CF4120C5837
:10223C008A088B09A808A909E8496015E5E170FC32
:10224C00E82414F582E93400F583E0F46003E0F54A
:10225C00E174016E700A7A019003C1E0F912104822
:10226C000221AD74F11217628A088B098C0A8D0B4E
:10227C00740F1216EA780C12156F908427780812D6
:10228C001549908427780C1215497808790C12138B
:10229C008150157808790C1215219083FB7808125F
:1022AC0013A1401579018013780C7908121521902F
:1022BC0083FB780C1213A140EB79007F0802180EF7
:1022CC0074ED1217628A088B098C0A8D0B74131229
:1022DC0016EA780C12156F9084277808121549901D
:1022EC008427780C121549780C7908121381401147
:1022FC007808790C121521AA08AB09AC0AAD0B8031
:10230C002275100075110075120075130178107983
:10231C000C121521781079081214E8AA10AB11AC24
:10232C0012AD137F0C02180E908427780812156FCB
:10233C008A828B83780812155C7F0402180E74F560
:10234C001217628C828D83780812156F8A828B83A8
:10235C007808121535EA2404F8EB3400F98C828DD8
:10236C0083A3A3A3A3E0FCA3E0FD88828983C3E03D
:10237C009CF0A3E09DF088828983C3E09420A3E0C5
:10238C00944E4022908447780812156F8A828B8372
:10239C00780812150E8A828B83A3A3A3A3E02420B2
:1023AC00F0A3E0344EF0808074F5121762E9FE90D1
:1023BC000511E0FAA3E0FBEEC333F8E433F974D66D
:1023CC0028F582748239F583E02AF508A3E03BF501
:1023DC0009780812190990844312158D121F4C7438
:1023EC00021216B58A088B098C0A8D0B74107808AA
:1023FC001214B0AA08AB097F0402180E74F112175C
:10240C00628A0C8B0D8C0E8D0F740F1216EAE0FA8B
:10241C00A3E0FB74111216EAE0F508A3E0F50974C9
:10242C00131216EAE0FEA3E0FF7808121909EA2459
:10243C0001F508EB3400F509E4F50AF50B780C7995
:10244C00081213C09083D3780812156F780C790892
:10245C001213C0AA0CAB0DAC0EAD0F121F4C7402B4
:10246C001216B58B09EA450960047A0180027A00DC
:10247C00EC2AFCED3400FDECF8EDF97A717B0212DC
:10248C00161488088909E4F50AF50B8E828F837877
:10249C000812157EECF8EDF97A717B021216148A8B
:1024AC00088B097405780812168C8E828F83A3A36F
:1024BC00A3A3E508F0A3E509F07F0802180EC0827B
:1024CC00C083E9906000F0D083D08222C0E074F227
:1024DC0012184EA2AFE433FED2AFE589A2E150034D
:1024EC001211D4758900C2C5751A00EEA2E092AF24
:1024FC007F010218ADC0E074F212184EA2AFE433A3
:10250C00FED2AFE58BA2E050031211D4758B00C242
:10251C00E880D5C0E0C0D0E8C0E0E5A8D2AFC2C723
:0F252C00751A00A2E792AFD0E0F8D0D0D0E0321D
:10253C00FFFFFFFFFFFFFFFFC082C083E99009E6AA
:10254C00F00227C874F71216F6E99002E0F07C1836
:10255C007D037AFF7BFF1208269002E174FFF0A343
:10256C00F0A3E4F0A3F079051207AE9002E0E0F9D5
:10257C001206D67A447B08120A0C0234D674F41272
:10258C0016F68A088B09EB548060309002E0E0F973
:10259C00120FDC8A0A8B0BAE0AAF0BEE4F60138E58
:1025AC00828F83E064B070031207C6EEFAEFFB1261
:1025BC000FCAAA08E5096480FB80047A007B00023C
:1025CC00279774F21216F674FC12169FEAFEEBFFB4
:1025DC0074121216EA1239BDEE4F70030226717492
:1025EC00021216EAEEF0A3EF1229D2ECF0A3ED12D0
:1025FC0029D2AA82AB831206D0E9F50A706AE508E3
:10260C00450960648E828F831239A3EE4F60567A2F
:10261C00067B001210308A0C8B0DA80CA90DE84912
:10262C007005750A13804188828983E412267EEE38
:10263C00F0A3EF1239CEE508F0A3E509F09002E61D
:10264C001227059002E67005123480801B12346E3E
:10265C008003EAFCEBFD8C828D8312270570F38CD2
:10266C00828D8380E3750A02A90A74041216B502DE
:10267C003BBDF0A3123974A32274F21216F6890A28
:10268C00E975F017A4FEAFF09002E5E4F09002E3D8
:10269C00122705600A1210369002E3E4F0A3F0EE64
:1026AC00FAEFFB1210308A088B09EA4509602FEE0D
:1026BC00FCEFFD7900120FB29002E3E508F0A3E500
:1026CC0009F07B0080081226EFE4F0A3F00BEBC3BB
:1026DC00950A40F2E50A9002E5F079008002791340
:1026EC00023BBDEB75F017A4F8A9F09002E3E028CB
:1026FC00FAA3E0398A82F58322123112EA4B227452
:10270C00F41216F6740C1216EA123998FEE9FF75DB
:10271C000800750900800CE5082401F508E509346A
:10272C0000F509C3E5089CE5099D503285080A852A
:10273C00090B7403780A12168CEA250AF8EB350B90
:10274C00F988828983A3A3A3A3A3A3123555EE65AD
:10275C000A7003EF650B70BFE8FAE9FB80047A009E
:10276C007B00802774F41216F67900EAA2E0501B65
:10277C007508A675098378081219097C047D007AFE
:10278C00E87B091207A874021216B57F040217C859
:10279C00C082C0839002E61227CF601C8882898396
:1027AC00A3A3E06A7003A3E06B8882898370E8A31B
:1027BC00A3A3A312310E80047A007B00D083D082B5
:1027CC00020135123CA3E8492274EE1216F674FC91
:1027DC0012169FEAFEEBFF851882851983E4F0A39D
:1027EC00F0EE2402123460EE240512397BEE240440
:1027FC00F50EEF122D87E024FE603924FC60462490
:10280C00FE605224FE605E24FE70030228E824FE63
:10281C00700302294C24FE700302295B24FE700312
:10282C0002296A24FC700302297924FE7003022910
:10283C00880229C59002FF7417F0A3E41229DA125A
:10284C00044E0229C5851882851983AC82AD83128A
:10285C0007CC022995851882851983AC82AD831229
:10286C0007D2022995850C08850D0974021216EA07
:10287C00AC82AD8385088285098312310E1206F471
:10288C008A0C8B0DAC0CAD0DEC4D603BE4F50CF5EE
:10289C000D780C121909750CFF750D02780C1219B4
:1028AC0009750C00750D03780C12190974081216B1
:1028BC00EA121920123E1F1216B5E9F50C700B1214
:1028CC003104120466800F750C018508828509831A
:1028DC001229C8123480850C080229987402121629
:1028EC00EAAC82AD83850C82850D83122ED9603CB7
:1028FC00850C82850D83A3A31219207510FF751109
:10290C00027810121909751000751103781012193C
:10291C000974081216EA121920123E1F1216B5E994
:10292C00F509700B12310412046C800F75090185C6
:10293C000C82850D831229C8123480850908804CBD
:10294C00851882851983AC82AD831207D8803A85AD
:10295C001882851983AC82AD831207DE802B851813
:10296C0082851983AC82AD831207E4801C851882A2
:10297C00851983AC82AD831207EA800D8518828598
:10298C001983AC82AD831207F0E9F508E5086029DC
:10299C008E828F83A3E06414601F850E82850F8363
:1029AC00E09002FF1229D2123C9F90030012348057
:1029BC00E508A31229DA12044802336F123CA385EE
:1029CC00188285198322F085188285198322F07C60
:1029DC00FF7D02850A82850B831231122274EE125E
:1029EC0016F674FC12169F8A0A8B0B8C0E8D0FEA4E
:1029FC002405F508EB3400F5097C157D0079007A87
:102A0C00FF7B02120FB2E5082402F50CE50912391E
:102A1C007E85188285198385821085831178101222
:102A2C001909850882850983A3A3A3A3122ED012AA
:102A3C001909E5082405F510E5093400F51178109D
:102A4C00121909850C82850D831232251206EE743B
:102A5C00061216B58A108B11AE10AF11E50A2402BE
:102A6C00F50AE50B123463EE4F7003022BA78017A7
:102A7C0074021216EA12310E88828983EAF0A3EBF3
:102A8C00F09002FFE004F09002FFE0C394054003D5
:102A9C00022BA7E4F510F51178101219097510E83E
:102AAC0075110278101219097510E9751102781058
:102ABC0012190974061216EA1219207910EEFCEF9D
:102ACC00FD123E211216B5E9705E850882850983D8
:102ADC00A3A3A3A3A3A3A3E0F89002E8E068704823
:102AEC00122ED01219097CE97D02E5082408FAE5BA
:102AFC00093400FB120FAC74021216B5E960298E72
:102B0C00828F83A3A3A3A312310E9002FFE0F510D2
:102B1C007402781012168C74002510F5827403352B
:102B2C0011F583EAF0A3EBF074021216EA85821019
:102B3C00858311781012190974021216EA121920E1
:102B4C00850C82850D831231341216B58A108B11C7
:102B5C00AE10AF119002FFE0F51075110074027801
:102B6C001012168C74FF2510F874023511F9888236
:102B7C008983A31227057003022A73E8240308082B
:102B8C0008E93400F9EE4F6003022A7C88828983BD
:102B9C0074FFF0A3F09002FFE004F09002FFE060FD
:102BAC000A12310412045A7900800B8508828509B7
:102BBC0083123477790A02336F74EA1216F674FEB4
:102BCC0012169F8C128D13EA2405F50CEB123E099C
:102BDC001239A7750800750900EA2402F510EB34C8
:102BEC0000F51185188285198385820A85830B78F7
:102BFC000A121909850C82850D83A3A3A3A3122D98
:102C0C009D121909E50C2405F50AE50D12346378BB
:102C1C000A121909850C82850D83122DA11206EE5C
:102C2C0074061216B58A0A8B0BEA450B7003022D3B
:102C3C0042EA2404F50EEB122D871239A78A828BF7
:102C4C0083A3A3A3E0F98510828511831231186048
:102C5C0003022D42E4F514F51578141219097514B4
:102C6C00E875150278141219097514E975150278AE
:102C7C001412190974061216EA1219207913AC0AE7
:102C8C00AD0B851082851183123E271216B5E9F51E
:102C9C00096003022D429002E8E0F8E5087009E0B3
:102CAC002402900300F08014900300E0FCE824025E
:102CBC00FAE43400FBEA6C7001EB707E850882AAA2
:102CCC0082122EC79414122EBF506B850E82850F64
:102CDC0083E0C0E074012A122D7ED0E0F005088557
:102CEC000E82850F83A3E0C0E085080A7401250AD3
:102CFC00122D7ED0E0F005089002E8122D9D1219DD
:102D0C00097CE97D0285080A7401250A122D9112AD
:102D1C0016B59002E8E02508F50874FF6E70037490
:102D2C00FF6F6012EE24010EEF3400FFE508C39430
:102D3C00145003022BEFE508601312312285108228
:102D4C0085118312310E12046079008014E509702C
:102D5C000375090A851282851383EEF0A3EFF0A99F
:102D6C000974021216B57F0E0217C885080C74017F
:102D7C00250CF58274033400F583223400F50F859D
:102D8C000E82F58322FA74033400FB120F9A74023C
:102D9C00221239DD22A3A3122DA72212346EFDEECE
:102DAC00FAEFFB2274EE1216F674FE12169F8C0EBE
:102DBC008D0FEA2405F50CEB12397E750B00900291
:102DCC00FFE4F0F50AEA2402F508EB3400F509807B
:102DDC00449002FFE0FA9002E8E0F8122EC7941734
:102DEC00122EBF400D9002FFE0F87416C3989002AB
:102DFC00E8F0122ED01219097CE97D0274002AFA2F
:102E0C007403122D941216B59002E8E0F89002FFAC
:102E1C00E028F0050AE50C2416F582E50D122D824A
:102E2C00E0F8E50AC39850749002FFE0C394165082
:102E3C006BE50AC333F8E433F9E50C28FEE50D39EC
:102E4C00FF851882851983AC82AD838E828F8312A5
:102E5C002ED97008750B011234738050E4F510F5FF
:102E6C001178101219097510E875110278101219E1
:102E7C00097510E9751102781012190974061216E9
:102E8C00EA1219207916850882850983123E2712C9
:102E9C0016B5E9F50B7003022DDD80BB7CFF7D02BE
:102EAC0085088285098312310E120472A90B7402F3
:102EBC00023371E99400C365D03322EA28F8E43474
:102ECC0000F9E822E0F51075110078102212336633
:102EDC008A108B11AC10AD11EC4D2274EA1216F65F
:102EEC0074FC12169F8A0C8B0D8C128D13EA240520
:102EFC00F50AEB123463750800750900E50A240223
:102F0C00F510E50B3400F51174021216EA85820EE9
:102F1C0085830F780E121909850A82850B83A3A36A
:102F2C00A3A3123983121909E50A2405F50EE50B42
:102F3C003400F50F780E1219098510828511831251
:102F4C0034691231081206EE74061216B58A0E8B0D
:102F5C000FAE0EAF0FE50C2402F50EE50D3400F5A7
:102F6C000F80388882898374FFF00508122D7774DE
:102F7C00FFF005089002E8E0F50C750D00780C12D6
:102F8C0019097CE97D0285080C7401250C122D9120
:102F9C001216B59002E8E02508F508EE4F60278E72
:102FAC00828F83A3A3A3E0F9850E82850F83123150
:102FBC0018EE240412397BE96027850C82850D8379
:102FCC001230FA123480E50870030230E01231221C
:102FDC00850E82850F8312310E120478790002302F
:102FEC00F5E4F514F51578141219097514E875152E
:102FFC000278141219097514E9751502781412194E
:10300C000974081216EA1219207911EEFCEFFD85ED
:10301C000E82850F83123E271216B5E9F509709AB8
:10302C00850882AA82EA9002E87009E024049003E1
:10303C0000F08025E0F8900300E0F514E82404FC8F
:10304C00E43400FDEC65147001ED7081122EC79410
:10305C0012122EBF4003022FD9850C82850D83E0FE
:10306C00C0E074012A122D7ED0E0F00508850C8298
:10307C00850D83A3E0C0E0122D77D0E012313D85A1
:10308C00820C85830D780C12190974041216EA123D
:10309C0019208510828511831231341216B58A0CD1
:1030AC008B0DAE0CAF0D85080C7401250CF8740358
:1030BC003400F9EE4F7003022F6F85188285198347
:1030CC00E08882898312313DA3E0C0E0122D77D0D5
:1030DC00E0022F7DE509700375090A850A82850BCC
:1030EC00831230FA123480A9097404022D6F123C39
:1030FC00A3851282851383227CFF7D02850A82853B
:10310C000B8312311222E0FAA3E0FB2212311212CD
:10311C0006DCE9F50922900300E0F5F0E50884905F
:10312C0002FFF07CFF7D0222122DA71206FA740416
:10313C0022F005088518828519832274EC1216F684
:10314C0074FE12169F8A088B098C0E8D0FEA2405CB
:10315C00FEEB3400FF123350EE241812397BEA4593
:10316C000B70030231F312333950291232188A10C2
:10317C008B11EA4511606B7912AC0AAD0B85088294
:10318C0085098312310E8510828511831216F4E99C
:10319C00F50A7058E4F50AF50B780A1219098E82B3
:1031AC008F83A3A3E0F50A780A121909EE240312FF
:1031BC003460780A1219098E828F83123225120814
:1031CC001474061216B5E9F50A7021850C82850D6A
:1031DC0083E0701F85088285098312310E12047EEC
:1031EC008011750A0E8009750A018004E50A6003D6
:1031FC00123473850C82850D83E0600479008002A3
:10320C00A90A74021216B57F0C0217C8851882859C
:10321C0019831231121208022212346EFD850882B3
:10322C008509831231122274EE1216F674FE1216F0
:10323C009F8A088B098C0C8D0DEA2405FEEB34005B
:10324C00FF750E00123350EA450B70030233171250
:10325C003339502C1232188A0E8B0FEA450F604A04
:10326C007912AC0AAD0B85088285098312310E8563
:10327C000E82850F831216F4E9F50E600302331AE1
:10328C00850882850983123555AA0AFB12332B70E7
:10329C00147AFF7BFF12332B606C88828983E50ADA
:1032AC00F0A3E50BF0750A008007750E0E805F0524
:1032BC000A9002E5E0FAE50AC39A504AE50A75F06D
:1032CC0017A4FAABF088828983A3A3E02AFAA3E0BF
:1032DC003BFB8A828B83123469EC4D70D2750A17D2
:1032EC00750B00780A121909EEFCEFFD120F9A7497
:1032FC00021216B5EEFCEFFD8508828509831231AA
:10330C000E1204848014750E098003750E01123C94
:10331C009B850C82850D83123480A90E022EBA1265
:10332C0007F68A108B11A810A911E84922E5082488
:10333C0002F508E5093400F5098A828B83A3A3A35F
:10334C00E0A2E522851882851983AC82AD838E823A
:10335C008F831233668A0A8B0B22E0FAA3E0FB12EE
:10336C0006F42274041216B57F0A0217C874EC1204
:10337C0016F68C108D11EA2405F50CEB12397E75BE
:10338C000F00EA2402F50AEB123463850A82F583F6
:10339C0012310E123EAD7003023455750E00807161
:1033AC00850C82850D83E06401704F8E828F83A320
:1033BC00A31219208E828F83A3A3A3A3E0F5127509
:1033CC0013007812121909EE2405F512EF3400F5EA
:1033DC0013781212190912310812081474061216F5
:1033EC00B5E9F50F6014850C82850D83E4F0123C71
:1033FC009B8510828511831234807C177D007900A7
:10340C00EEFAEFFB120FB28E828F83E4F0A3F0057D
:10341C000E9002E5E0F8E50EC398501EE50E75F02F
:10342C0017A4F8A9F0850882850983A3A3123E137B
:10343C00123469EC4D60030233AC85088285098334
:10344C0074FFF0A3F0E50F700612310812048AA97C
:10345C000F023213F50AEF3400F50B22A312346E6F
:10346C00FD22E0FCA3E0228E828F83123CA3850E0A
:10347C0082850F83E8F0A3E9F022C082C08390021A
:10348C00E1E06A7003A3E06B70067AE17B028004D2
:10349C007A007B000227C874F71216F67F00EF75CE
:1034AC00F003A4F8A9F0EC28F8ED39F988828983A7
:1034BC00E06A7003A3E06B7006E8FAE9FB800B0F7F
:1034CC00EFC3940240D87A007B007F010217C874C6
:1034DC00F61216F6123A8C70067A007B008007A35F
:1034EC00A3A3A312310E023B4D74F21216F6E9FEA1
:1034FC00740E1216EA12355574101216EA1239BDF2
:10350C008C828D83E06402703BA3123C9F8882897D
:10351C0083E0F50CA3E0F9A80C740268700374291D
:10352C00697021750C02750D00780C121909780858
:10353C00121909780A121909EEF9120838740612D0
:10354C0016B580027901023BBDE0F50AA3E0F50B4C
:10355C002274E81216F674FB12169FE98518828500
:10356C001983F08A168B178C0E8D0F741F1216EAA6
:10357C001239BD74211216EA12355574231216EA4B
:10358C001239A77510008C828D83A3A3A3E0A2E44B
:10359C00502A741D1216EA12321E8A828B83E5821F
:1035AC0045837003023669790AAC0EAD0FAA16ABCF
:1035BC00171216F4E9F510600302366C850E82853D
:1035CC000F83E064026003023922A3123C9F85083A
:1035DC0082850983A3858212858313E50E2406F563
:1035EC000CE50F12397E88828983E0FAA3E0F9EAB0
:1035FC002400F514E439F515781412199301000020
:10360C0028012831360700022808370328783600AD
:10361C0029323801295A3802290138032932380451
:10362C0029C3382239EE4F703E850C82850D8312EA
:10363C003998FAE9FB8A828B83E0850A82850B83B1
:10364C001239D41219098A828B83A312346EFDAA03
:10365C0008AB09120F9A74021216B5800375100E7E
:10366C00A9107405023E0175100B80F4EE4F70F733
:10367C00850A82850B837401F01239AD8508828529
:10368C000983F07C007D00850E82850F83A3A3A3A4
:10369C00A3E02401FAA3E03400FB1206F4EA4B6029
:1036AC00418A828B83E02402F8850A82850B83E0B1
:1036BC0028F0EA2404F8EB3400F988828983E08549
:1036CC0012828513831239E61239D41219098A82AF
:1036DC008B83123468E5082403FAE5093400FB02F5
:1036EC00365F850A82850B83E02404F07C047D0020
:1036FC007900AA12AB13120FB202366CEE4F6003B4
:10370C000236731239ADFEA3E0FF850A82850B8366
:10371C007404F0EE850882850983F0EF85128285AA
:10372C001383F074031216EAAC82AD83EEFAEFFB4E
:10373C00123A7A70030237DE8A828B83A3A3123982
:10374C00A374011216EA85820E85830F780E121966
:10375C000974051216EA1219207CFF7DFF1206FA75
:10376C0074041216B58B0FEA450F7033850C8285E5
:10377C000D83123983121909850C82850D83A312CE
:10378C0019207C027D007A897B8412052674041230
:10379C0016B5E9700A74011216EA74FFF0A3F08EE4
:1037AC00828F83E064027034750C02750D00780C06
:1037BC001219098E828F83123468E5082404FAE505
:1037CC0009122D941216B5850A82850B83E024020A
:1037DC00800974011216EAEEF0A3EFF074011216D0
:1037EC00EA123994F074011216EAA312398CA3A3CD
:1037FC00A3F002366CEE4F6003023673850C8285A3
:10380C000D83123469AA16AB1712082C850A82850F
:10381C000B837402F0EA850882850983F085128295
:10382C00851383EB80CBEE4F60030236731239ADF8
:10383C00F8A3E0F9850A82850B837402F0E8850809
:10384C0082850983F0E985128285138380A3850C18
:10385C0082850D8312310E120F94EAFC8C82A882A1
:10386C00C39EE49F404BE86E7001EF70047C0080B7
:10387C001F851882851983E0FAEE2AFAEF3400FBD3
:10388C00C3EA98EB94005003E08004EECCC39CFC9C
:10389C00EC850A82850B83F08C0A750B00780A1272
:1038AC001909850C82850D83E02EFCA3E03F0236BE
:1038BC005A75100702366CEE4F6003023673850C96
:1038CC0082850D83123C9F850A82850B837407F0D9
:1038DC008882898312398C123974E085128285139F
:1038EC0083F0E82402FAE93400FB8A828B831239D4
:1038FC008C1239C5123994A31239CE12399DF0E8C5
:10390C002405F8E93400F98882898312399DA312C1
:10391C0039E6A30237FA741D1216EA123A857003BF
:10392C00023669123C9F880C890DE8450D70030224
:10393C0036698E108F117810121909780A1219092C
:10394C00780812190974061216EAE0F9AC0EAD0FDC
:10395C00AA16AB17850C82850D831216F474061209
:10396C0016B5E9F51002366CF088828983A322F52E
:10397C000CEF3400F50D22E0F50E750F00780E22D9
:10398C00E0850882850983221239ED22123CA3E8D6
:10399C00221239EDA3A322A3A3A3A3E0FEA3E0FF6D
:1039AC0022850C82850D83E0F8A3E0F5838882E004
:1039BC0022E0F508A3E0F50922A3A3F08A828B8309
:1039CC00A322122680A3A322F08A828B831239DDD4
:1039DC0022E0F50A750B00780A221239741239EDBF
:1039EC0022E0850882850983A3A32274EE1216F6C1
:1039FC0074FE12169F8A0A8B0BECFAEDFB741412F0
:103A0C0016EAE0F510A3E0F51174161216EAE0FEC2
:103A1C0074181216EAE0F50EA3E0F50F85188285EE
:103A2C001983AC82AD83123A7A603E85188285196F
:103A3C0083123A85602FA3A31239BDE508450960AE
:103A4C0024780E1219097810121909EEF9AC0CAD84
:103A5C000DAA0AAB0B8508828509831216F474042F
:103A6C001216B58006790E80027901022EBA120662
:103A7C00F48A0C8B0DEA450D22123112123A8C226B
:103A8C001207C08A828B83E58245832274F6121654
:103A9C00F674FE12169F740C1216EA1239988518D9
:103AAC0082851983F074011216EAE9F0E4F508F541
:103ABC000978081219097508027808121909740492
:103ACC001216EA85820885830978081219091208EA
:103ADC001474061216B574021216B5806474F712BB
:103AEC0016F6EAFEEBFF89087C187D0312082CEA17
:103AFC005402600BA908EEFAEFFB1206E88002797B
:103B0C00010234D674F61216F674FF6A700374FF51
:103B1C006B701C7B00EB75F003A4F8A9F0EC28F893
:103B2C00ED39F9123B520BEBC39402501480E612A0
:103B3C0007FC8A088B09A808A909E8496003123B0D
:103B4C00527F020217C88882898374FF12267EE492
:103B5C00F02274F61216F61207FC8A828B83E58229
:103B6C0045836006A3A3E0FA80027A007B0080D133
:103B7C0074F21216F68A088B09ECFEEDFF740E1225
:103B8C0016EAE0F50A123BC2701CEEFCEFFD7AFF60
:103B9C007BFF123BC270047911801688828983E501
:103BAC0008F0A3E509F088828983A3A3E50AF079DC
:103BBC00007F060217C81207FC8A0C8B0DA80CA9F3
:103BCC000DE8492274EE1216F6EAFEEBFF8C088D16
:103BDC0009890C74121216EA123C9F74141216EA1C
:103BEC0012346974161216EA12310E750D00EC4D72
:103BFC006003023C937402650C6003023C8E888265
:103C0C00898312346EF9EC2400F50EE439F50FEAD1
:103C1C00F4F8EBF4F9EC58F8E50F59F9E849705D54
:103C2C00E5082406F8E5093400F9880A890B88822E
:103C3C00F583122DA312082C8A108B11E50E65103A
:103C4C007004E50F65116042780E121909850A821D
:103C5C00850B83122DA312083274021216B5E9F5E6
:103C6C000D7027780E121909850882850983A3A384
:103C7C00122DA112084A74021216B5800D750D8012
:103C8C008008750D0D8003750D0BA90D0233748E14
:103C9C00828F83123CA322E0F8A3E0F92274E8128D
:103CAC0016F674E712169F851882851983EAF0A31D
:103CBC00EBF08C168D17890E74311216EAE0F512A2
:103CCC00A3E0F51374331216EAE0F514A3E0F5152E
:103CDC0074351216EAE0F50F750800750900E50950
:103CEC0075F003A4F8A9F0851882851983123E1388
:103CFC00E0F47003A3E0F47003023DF1EE2402F54E
:103D0C000CEF123E09E07003023DF185160A85178F
:103D1C000B780A121909AC14AD15AA12AB131207C1
:103D2C00B474021216B58A0A8B0BEA450B700302A7
:103D3C003DF1E4F510F511781012190974061216FC
:103D4C00EA858210858311781012190974091216EC
:103D5C00EA858210858311781012190985128285E3
:103D6C001383A3A3A3A31219207914AC0AAD0B8E51
:103D7C00828F83123E271216B5E97069850A8285F7
:103D8C000B83A3A3A3A3123C9F74021216EA123452
:103D9C0080850C82850D83E0A2E05018A90E740278
:103DAC001216EAAC82AD838E828F8312310E12070B
:103DBC000CE94208850C82850D83E0A2E15026E5D2
:103DCC000FF50A780A12190DA90E74031216EAAC33
:103DDC0082AD838E828F8312310E1207067401120C
:103DEC0016B5E942080509E509C394025003023CE3
:103DFC00EAA90874191216B57F100217C83400F519
:103E0C000D850C82F58322E028FEA3E039FF8E821B
:103E1C008F83227916850A82850B83123112120840
:103E2C000E74082274F21216F6EAFEEBFF890B747C
:103E3C0001650B600E7402650B70637901120A2A1E
:103E4C00E9705BEEFAEFFB123EAD6047750A00803D
:103E5C000B7C177D007900120FB2050A9002E5E089
:103E6C00F8E50AC3985021E50A75F017A4F8A9F0F3
:103E7C00850882850983A3A3E028FAA3E039FB8A8D
:103E8C00828B831227CF70C985088285098374FFC2
:103E9C00F0A3F07C187D03EEFAEFFB120826023B30
:103EAC00BD1207F68A088B09EA45092274F212162C
:103EBC00F68A088B09ECFEEDFF740E1216EA123529
:103ECC00559009E6E0F4603D7A097B00120FC4EAD4
:103EDC004B60328A828B8374B1F0A3E41239C7A38E
:103EEC001239C5A3E508F0A3E509123F14EEF0A3BF
:103EFC00EF123F14A3A3E50AF0A3E50BF09009E63B
:103F0C00E0F9120FD0023BBDF08A828B83A3A3A3EE
:103F1C00A3A322C082C0839061907404F0A3744860
:103F2C00F0A37402F09061807440F09061BC740353
:103F3C00F09061877419F0906265741BF090619A2F
:103F4C007433F0A37455F09061A0743AF090055955
:103F5C00E064017009C2919003C6746780059003F8
:103F6C00C67461F0902542E493906186F090253CF4
:103F7C00E493F46027E493540FF8906185E0686053
:103F8C0012E5C654804449F5C6E59E547F644970D9
:103F9C00F8E8F053C680E59E547F70FA7905120D4F
:103FAC007E02415BC082C083E9540FF9906185E0C9
:103FBC00696012E5C654804449F5C6E59E547F6499
:103FCC004970F8E9F053C680E59E547F70FA0241BF
:103FDC005BC082C083E5A8F853A87E906181E4F0B1
:103FEC00A3F0A3F0C2BA539AFEC289759B00C2C259
:103FFC0075E90075910075BF0075A91175B905902B
:10400C006181F0A374C0F0A3E4F0D2BA439A0174B6
:10401C00805842A802415BC082C08374F812169F7C
:10402C009003C4E0F8A3E0F9E84970030241519011
:10403C0003C4E0544060237908851882851983AA4B
:10404C0082AB83120BE6851882851983AA82AB8317
:10405C001208BC9003C4E054BFF0E05480601079A7
:10406C000C7A7D7B05120BE69003C4E0547FF0E0E4
:10407C00A2E0503190619A7433F0A37455F09061C2
:10408C00A0743AF0900559E064017009C291900354
:10409C00C6746780059003C67461F01208C2900361
:1040AC00C4E054FEF0E05402603190619A743FF029
:1040BC00A3745AF09061A0747FF0900559E06401EC
:1040CC007009D2919003C6747180059003C6746A0E
:1040DC00F01208C29003C4E054FDF0E054046013E5
:1040EC00902540E493906186F01208C89003C4E0D8
:1040FC0054FBF0E054086013902541E493906186E2
:10410C00F01208C89003C4E054F7F0E054106013A8
:10411C00902542E493906186F01208C89003C4E0A5
:10412C0054EFF0E05420600A1208C89003C4E05425
:10413C00DFF0A3E05401600D120B141208CE9003B3
:10414C00C5E054FEF074081216B58003F0A3F0D04D
:10415C0083D08202013574EC1216F674F412169F99
:10416C00851882851983AC82AD8375838475821F13
:10417C0074041215B290254093F460030242EF9040
:10418C007808E0C3940250030242CF74041216EA7A
:10419C00AC82AD8375838375828E74081215B285DB
:1041AC00188285198385821285831374041216EA8A
:1041BC00AC82AD83750EFF750FFF7FFF7E00750C13
:1041CC0048750D78801574086E700302426274098C
:1041DC006E7003024262740A6E607B850C82850DE0
:1041EC0083780812156F8C828D83A909E50AC9F8AA
:1041FC008810741878081214B0E5104508F8C3E05C
:10420C0098A3E099850C82850D83780812156F4070
:10421C00188C828D83741878081214B0E510450838
:10422C00F8E0C398F8A3E0801C741878081214B056
:10423C00E5104508FAE9FB8C828D83E0F8A3E0F9E0
:10424C00EAC398F8EB99F9C3E8950EE9950F500677
:10425C00880E890FEEFF0EE50C2404F50CE50D34E9
:10426C0000F50DEEC3941350030241D274FF650E9A
:10427C00700474FF650F60238F087402780812169F
:10428C008C74482508F58274783509F58378081202
:10429C00156F851282851383E508F0EC24020C0C53
:1042AC00ED3400FD851282851383A38582128583EC
:1042BC0013740C1216EAE5826C7003E5836D6003CF
:1042CC000241C075080175090078081219097402B9
:1042DC001216EAAC82AD837A507B091211AA7402D1
:1042EC001216B5740C1216B57F0C0217C8C082C01A
:1042FC008390618674E1F09061AE7468F0A3746A87
:10430C00F090624574FBF0A304F053F4FD43FE02FD
:10431C009005597401F090619A7433F0A37455F0C0
:10432C009061A0743AF0740164017009C291900319
:10433C00C6746780059003C6746102415A7F0402FB
:10434C0017C8C082C08375E1F190050EE06055146A
:10435C0060081460591460518059120B20900504A8
:10436C00E0F97A057B05120D009083EF12158D1282
:10437C000D3690842B12158D120D0C90050FE0F953
:10438C00120D187901120D72900502E02416F8A393
:10439C00E03400F9888289837438F0A3740BF079C7
:1043AC000002415B120B2680B4120B2C80AF120B57
:1043BC003280AA791280EA74F41216F675D90D902F
:1043CC0004F4E0A2E0E4331313F8900504E0C433E2
:1043DC003354C0484401F5D9780279058882898321
:1043EC00A3A3A3E0F5D988828983A3A882A983E833
:1043FC0064087003E9640570E378F47904888289B1
:10440C0083A3E0F5D988828983A3A882A983E86471
:10441C00FA7003E9640470E575E1959004F4E0F931
:10442C007AF57B04120D06900A0874D2F0A3740A74
:10443C00F0A3742EF0A3740CF0A3742EF0A3740CE0
:10444C00F0A3742EF0A3740CF0A374D8F0A3740A28
:10445C00F0A3742EF0A3740CF0A374F0F0A3740A00
:10446C00F0900A16742EF0A3740CF0A3742EF0A323
:10447C00740CF0A3742EF0A3740CF0A3742EF0A3A0
:10448C00740CF0A3742EF0A3740CF0A3742EF0A390
:10449C00740CF0900502E0F8A3E0F5838882A3A3E6
:1044AC00780812156F9083CF78081214FB9084272C
:1044BC007808121549900502E0240EF8A3E03400A8
:1044CC00F988828983780812157E900502E02414FD
:1044DC00F8A3E03400F9888289837413F09003C246
:1044EC007402F0024349C082C083900514E0240793
:1044FC00F5D9900504E0C4333354C0F5D97802796A
:10450C000588828983A3A3A3E0F5D988828983A334
:10451C00A882A983E864087003E9640570E3900538
:10452C0014E0601F78027905FAE82413F582E93467
:10453C0000F583E0F5D988828983A3A882A9831A20
:10454C00EA70E6900534E02407F5D9900504E0C440
:10455C00333354C04404F5D97802790588828983B1
:10456C00A3A3A3E0F5D988828983A3A882A983E8B1
:10457C0064087003E9640570E3900534E0601F780B
:10458C00027905FAE82433F582E93400F583E0F585
:10459C00D988828983A3A882A9831AEA70E675E177
:1045AC0095900A0874DEF0A3740AF0A3742EF0A39D
:1045BC00740CF0A3742EF0A3740CF0A3742EF0A35F
:1045CC00740CF0A374D8F0A3740AF0A3742EF0A3A7
:1045DC00740CF0A374F0F0A3740AF0900A16742E05
:1045EC00F0A3740CF0A3742EF0A3740CF0A3742E2F
:1045FC00F0A3740CF0A3742EF0A3740CF0A3742E1F
:10460C00F0A3740CF0A3742EF0A3740CF0908447F8
:10461C0012158D900502E0240EF8A3E03400F98801
:10462C00828983121599900502E02414F8A3E034D2
:10463C0000F9888289837412F09003C274010241DC
:10464C005AC082C083900514E02407F5D990050464
:10465C00E0C4333354C04402F5D97802790588821A
:10466C008983A3A3A3E0F5D988828983A3A882A90F
:10467C0083E864087003E9640570E3900514E06056
:10468C001F78027905FAE82413F582E93400F583E2
:10469C00E0F5D988828983A3A882A9831AEA70E6F7
:1046AC0075E195900A0874EAF0A3740AF0A374EA11
:1046BC00F0A3740AF0A374EAF0A3740AF0A374EAEA
:1046CC00F0A3740AF0A374EAF0A3740AF0A374EADA
:1046DC00F0A3740AF0A374F0F0A3740AF0900A1615
:1046EC00742EF0A3740CF0A3742EF0A3740CF0A32E
:1046FC00742EF0A3740CF0A3742EF0A3740CF0A31E
:10470C00742EF0A3740CF0A3742EF0A3740CF09020
:10471C00844712158D900502E0240EF8A3E03400B6
:10472C00F988828983121599900502E02414F8A364
:10473C00E03400F9888289837414F09003C2740405
:10474C0002415AC082C083900514E02407F5D99029
:10475C000504E0C4333354C04406F5D97802790516
:10476C0088828983A3A3A3E0F5D988828983A3A82F
:10477C0082A983E864087003E9640570E39005146A
:10478C00E0601F78027905FAE82413F582E9340019
:10479C00F583E0F5D988828983A3A882A9831AEAD4
:1047AC0070E6900534E02407F5D9900504E0C43395
:1047BC003354C04404F5D97802790588828983A3DF
:1047CC00A3A3E0F5D988828983A3A882A983E8648E
:1047DC00087003E9640570E3900534E0601F78020B
:1047EC007905FAE82433F582E93400F583E0F5D94C
:1047FC0088828983A3A882A9831AEA70E675E19559
:10480C00900A0874E4F0A3740AF0A3742EF0A37455
:10481C000CF0A3742EF0A3740CF0A3742EF0A374FC
:10482C000CF0A3742EF0A3740CF0A3742EF0A374EC
:10483C000CF0A374F0F0A3740AF0900A16742EF026
:10484C00A3740CF0A3742EF0A3740CF0A3742EF0CC
:10485C00A3740CF0A3742EF0A3740CF0A3742EF0BC
:10486C00A3740CF0A3742EF0A3740CF09084471274
:10487C00158D900502E0240EF8A3E03400F988822F
:10488C008983121599900502E02414F8A3E03400F2
:10489C00F9888289837415F09003C2740302415A1B
:1048AC00C082C083900502E0F8A3E0F5838882A360
:1048BC00A3A3A3A3A3E402415874F71216F6900322
:1048CC00EEE0F875F004A4C8AAF02AF974F028F800
:1048DC00740339F9E82405FAE93400FB8A828B83E6
:1048EC00E0FCA3E0FD88828983A3A3A3A3A3A3A3D5
:1048FC00A3A3ECF0A3EDF088828983A3A3A3A3A3C5
:10490C00A3A3E024FFF8A3E034FFF98A828B83E8A9
:10491C00F0A3E9024B6A74F71216F6EAFEEBFF906D
:10492C0061D0E060030249FF75D90E75D90375D9C2
:10493C0004EE248CF582EF3400F583E5822408F82C
:10494C00E5833400F9E0F5D9A3E865827003E965E5
:10495C008370F2EE2484F582EF3400F583E5822433
:10496C0004F8E5833400F9E0F5D9A3E86582700317
:10497C00E9658370F275E1957908EE248CFAEF34D1
:10498C0000FB120BDA7904EE2484FAEF3400FB12EC
:10499C000BDA7C00EEF8EFF9ECFAC3E49AFA95E046
:1049AC00FBEE2AFAEF3BFBEA248BF582EB3400F5A5
:1049BC0083E0C0E0E824ABF582E93400F583D0E075
:1049CC00F00C88828983A3A882A983ECC394084045
:1049DC00C7EE2470F582EF3400F583E0F8A3E0F91C
:1049EC00EE2472F582EF3400F583E8F0A3E9F07958
:1049FC000180027900024B6BC082C08375D90275AD
:104A0C00D90375D90575E195EA2470F582EB34006C
:104A1C00F583E0F8A3E0F9EA2472F582EB3400F5B3
:104A2C0083E8F0A3E9F0790102415B74F61216F603
:104A3C00EAFEEBFF90055D7406F075085D750905DF
:104A4C0078081219097C017903120C2274021216CF
:104A5C00B575D90675D90375825D758305E0F5D9F1
:104A6C00A3E58264627004E583640570F075E195DA
:104A7C009003C2E06408701EEE2470F582EF3400DF
:104A8C00F583E0F8A3E0F9EE2472F582EF3400F53B
:104A9C0083E8F0A3E9F07901024C3774F61216F6AC
:104AAC00EAFEEBFF9061D0E07066780190055D74D2
:104ABC000BF09003C2E06407701975085D75090569
:104ACC0078081219097C017903120C22740212164F
:104ADC00B57805740128F5D975D90375825D758390
:104AEC0005E8FAE0F5D9A31AEA70F875E195EE2419
:104AFC0070F582EF3400F583E0F8A3E0F9EE247250
:104B0C00F582EF3400F583E8F0A3E9F07901800237
:104B1C007900024C3774F71216F6EAFEEBFF75D9E2
:104B2C000375D90375D90DEE24DEF582EF3400F54B
:104B3C0083E0F5D975E1957904120D3CEE2470F5FE
:104B4C0082EF3400F583E0F8A3E0F9EE2472F582ED
:104B5C00EF3400F583E8F0A3E9F079018001F07FF0
:104B6C00010217C874F61216F6EAFEEBFF9061D03C
:104B7C00E0F87480C398FAEE2483F582EF3400F5E4
:104B8C0083E06004780480027800E8240BF8EAC320
:104B9C00985003024C357D0990055DEDF0EE24E351
:104BAC00F8EF3400F97A5E7B057C0888828983E013
:104BBC008A828B83F088828983A3A882A9838A82C4
:104BCC008B83A3AA82AB831CEC70E0EE2483F5826A
:104BDC00EF3400F583E0601D75085D7509057808F4
:104BEC001219097C097903EEFAEFFB120C227402FC
:104BFC001216B57D0D74012DF5D975D90375825D2D
:104C0C007583058D08E0F5D9A31508E50870F675D0
:104C1C00E1957904120D3CEE241DF582EF3400F57C
:104C2C0083E4F0A3F07901800279007F020217C8B7
:104C3C0074F61216F6EAFEEBFF9061D0E0F8748081
:104C4C00C398FAEE2483F582EF3400F583E0600418
:104C5C00780480027800E82408F8EAC3985003022C
:104C6C004D3C7D0690055D740CF09003DFE09005E3
:104C7C005EF07AE07B03785F79057C028A828B8315
:104C8C00E088828983F08A828B83A3AA82AB838893
:104C9C00828983A3A882A9831CEC70E07AE27B034F
:104CAC007C028A828B83E088828983F08A828B8360
:104CBC00A3AA82AB8388828983A3A882A9831CECD4
:104CCC0070E0EE2483F582EF3400F583E0601D750F
:104CDC00085D75090578081219097C067903EEFA46
:104CEC00EFFB120C2274021216B57D0A74012DF51D
:104CFC00D975D90375825D7583058D08E0F5D9A347
:104D0C001508E50870F675E1957904120D3CEE2452
:104D1C0070F582EF3400F583E0F8A3E0F9EE24722D
:104D2C00F582EF3400F583E8F0A3E9F07901800215
:104D3C007900024C3774F61216F6EAFEEBFF90611E
:104D4C00D0E0F87480C398FAEE2483F582EF340037
:104D5C00F583E06004780480027800E82404F8EA23
:104D6C00C3985003024E1B780290055DE8F0EE24C8
:104D7C00F5F582EF3400F583E090055EF0EE2483C8
:104D8C00F582EF3400F583E0601B75085D7509054D
:104D9C0078081219097C027903EEFA120C227402BB
:104DAC001216B57806740128F5D975D90375825D8C
:104DBC007583058808E0F5D9A31508E50870F67524
:104DCC00E195EE2474F582EF3400F583E4F0EE24E3
:104DDC0080F582EF3400F583E4F0EE241DF582EFCC
:104DEC003400F583E4F0A3F07904120D3CEE240DAD
:104DFC00F582EF3400F583E0F8A3E0F9EE2472F5C8
:104E0C0082EF3400F583E8F0A3E9F07901800279B0
:104E1C0000024C3774F61216F69061D0E0F87480EC
:104E2C00C398FCEA2483F582EB3400F583E060043C
:104E3C00780480027800E82404F8ECC398405B798D
:104E4C000290055D7407F0EA24F6F582EB3400F568
:104E5C0083E090055EF0EA2483F582EB3400F58361
:104E6C00E0601875085D75090578081219097C024F
:104E7C0009120C2274021216B57906740129F5D99F
:104E8C0075D90375825D758305E9F8E0F5D9A3182A
:104E9C00E870F875E195790180027900024C37745D
:104EAC00F51216F6E9FCA2AFE433F50AC2AF7D00A9
:104EBC0080010DEA246FF582EB3400F583E0F8ED08
:104ECC00C398501A8D08EA2508F8EB3400F9E82449
:104EDC006BF582E93400F583E06C70D68024EA240B
:104EEC006FF8EB3400F9E0FEEA2EFAEB3400FBEA43
:104EFC00246BF582EB3400F583ECF088828983E037
:104F0C0004F0E50AA2E092AF7F030217C874F61210
:104F1C0016F6A2AFE433FDC2AFEA246FF582EB3490
:104F2C0000F583E014F07C0060368C08EA2508F864
:104F3C00EB3400F9E8246CF582E93400F583E0C029
:104F4C00E0E8246BF582E93400F583D0E0F00CEA5C
:104F5C00246FF582EB3400F583E0F8ECC39840CA7B
:104F6C00EA246EF582EB3400F58374FFF0EA246AD0
:104F7C00F582EB3400F583E4F0EDA2E092AF024C45
:104F8C0037C082C083E5A8F8C2AFEA246BF582EB88
:104F9C003400F583E9F0EA246AF582EB3400F583FA
:104FAC00E4F0E8A2E792AF02415B74F31216F6EA62
:104FBC00FEEBFFECFAEDFB8A828B83A3A3A3A3E0A9
:104FCC00541FF0EE2436F582EF3400F583E4F0F54F
:104FDC000AEEFCEFFD8A828B83E0C0E0EC245DF5E9
:104FEC0082ED3400F583D0E0F0750B00E50A333325
:104FFC003354F8F50C8A828B83E0F508750900E5CB
:10500C000B780812166DE508A2E0502FEE2436F846
:10501C00EF3400F988828983E0F508EE2508F5085D
:10502C00EF3400F509E5082438F582E5093400F57C
:10503C0083E50CF088828983E004F0050B050CE510
:10504C000BC3940840AF050A8A828B83A3AA82AB58
:10505C00838C828D83A3AC82AD83E50AC394055007
:10506C0003024FE17F050217C874F71216F690037E
:10507C00ECE0640170077A007B000251EC7E00903A
:10508C0003F2E070F17401F0A3E4F0A3F090045289
:10509C0004F0900455E4F0A3F090045804F090034D
:1050AC00F5E4F0A3F0A3F0A3F09003FF04F0900458
:1050BC0025E4F09083EB12158D900408121599904D
:1050CC00040CE4F0A3F0A3F0900470F0900464F0EE
:1050DC009004597480F0A3E4F090045FF0900457AE
:1050EC00F09004DBF0A3F0A3F0A3F0A3F0A3F0A3E3
:1050FC00F0A3F09004E4F0900473F09004C3F0A3D8
:10510C00F09083EB12158D9004C51215999083EBDA
:10511C0012158D9004C91215999004CFE4F09004E7
:10512C00D1F09004CDF09004E7F0A3F0A3F0A3F03D
:10513C00A3F0A3F0A3F0A3F078EC7903E8246FF5C7
:10514C0082E93400F58374FFF00E88828983A3A86A
:10515C0082A983EEC3940440E37AEC7B0378FB7959
:10516C000488828983E0C0E0EA2461F582EB340094
:10517C00F583D0E0F088828983A3A882A9838A82F0
:10518C008B83A3AA82AB83E864007003E964057087
:10519C00D07AEC7B0378D5790388828983A3E0C02D
:1051AC00E0EA24E7F582EB3400F583D0E0F0888266
:1051BC008983A3A882A9838A828B83A3AA82AB83C7
:1051CC00E864DD7003E9640370CF9003ECE004F055
:1051DC00640170089003F4E09003EEF07AF07B0326
:1051EC00024B6BC082C0839003F3E4F09003F2F0A7
:1051FC009003ECF0A3F0A374FFF075E1F102415BB6
:10520C00C082C083780079009003F3E0600478F0EA
:10521C00790388828983A3A3A3A3E0F902415B7479
:10522C00F61216F6EAFEEBFF8E828F83A3A3A3E0A1
:10523C00600F8E828F83A3A3A3E4F09003EDE014A0
:10524C00F09003ECE014F070069003EE74FFF08E17
:10525C00828F83A3A3E4F0900500E0700D9003ED22
:10526C00E0640170057900120D1EEE2465F582EFE5
:10527C003400F583E0F8A3E0F9E8496029EE2465F1
:10528C00F8EF3400F9880889098882F583E0FCA3DB
:10529C00E0FD9003EEE0FA7B001208F285088285AF
:1052AC000983E4F0A3F0EEFAEFFB120C52024C3738
:1052BC0074F71216F6EAFEEBFF8E828F83A3A3A37C
:1052CC00A3E0FA7B00120934EEFAEFFB120BA412E6
:1052DC000C3A024B6BC082C08378D57903888289E3
:1052EC0083A3E4F088828983A3A882A983E864DD80
:1052FC007003E9640370E69003D602464874F61214
:10530C0016F6EAFEEBFFEC2403F8ED3400F98808FE
:10531C008909EC2407F8ED3400F9E8FCE9FD8C82EE
:10532C008D83E0F8A3E0F9850882850983E0FAA370
:10533C00E0FB121614EE240DF582EF3400F583E831
:10534C00F0A3E9F08C828D83E0F8A3E0F985088264
:10535C00850983E0FAA3E0FB1216148B09EA4509D0
:10536C006013EE240DF582EF3400F583E02401F098
:10537C00A3E03400F0024C3774F61216F6EAFEEB9A
:10538C00FFEE242EF582EF3400F583E0FCA3E0FD64
:10539C00780079FAECFAEDFB121614EE2470F58213
:1053AC00EF3400F583E8F0A3E9F0780079FAECFA31
:1053BC00EDFB1216148B09EA45096013EE2470F507
:1053CC0082EF3400F583E02401F0A3E03400F00216
:1053DC004C3774F01216F6EAFEEBFF74101216EA54
:1053EC00780812156F120CDC8A0C8B0D8C0E8D0F3D
:1053FC009083E3780C1214FB908427780C121549D7
:10540C00780C1219058E828F83E0F8A3E0F583885F
:10541C0082A3A312158D12226F74041216B5E960C3
:10542C000302552B8E828F83E02402F8A3E0340014
:10543C00F9E8FAE9FB8A828B83780812150E9084BE
:10544C0027780812156F8A828B83780812155CEE08
:10545C00240BF582EF3400F583C082C0838E828FDB
:10546C0083A3A3A3A3A3E02401F8A3E03400F9D001
:10547C0083D082E0687003A3E0697005790102555E
:10548C002D8E828F83A3A3A3A3A3A3A3E02401F057
:10549C00A3E03400F0EE2474F582EF3400F583E0E1
:1054AC0064017036EE2475F582EF3400F583E0F874
:1054BC00A3E0F98E828F83A3A3A3A3A3A3A3E06885
:1054CC007003A3E0697013EE2475F582EF3400F5D8
:1054DC0083E02401F0A3E03400F0EE2480F582EFA9
:1054EC003400F583E064017036EE2481F582EF34EC
:1054FC0000F583E0F8A3E0F98E828F83A3A3A3A326
:10550C00A3A3A3E0687003A3E0697013EE2481F5F4
:10551C0082EF3400F583E02401F0A3E03400F0794D
:10552C00007F080217C874F71216F69003EEE0F825
:10553C0075F004A4C8AAF02AF974F028FE74033993
:10554C00FF8028EE2465F8EF3400F988828983E027
:10555C00FCA3E0FD88828983E4F0A3F08E828F8324
:10556C00A3A3A3A3E0FA7B001208F2EE2465F58254
:10557C00EF3400F583E0F8A3E0F9E849604FEE243E
:10558C0064F582EF3400F583E0F508780812190D04
:10559C00EE2463F582EF3400F583E0F9EE2465F533
:1055AC0082EF3400F583E0FCA3E0FDEEFAEFFB1292
:1055BC000BCE74011216B5E96089EE2465F582EF05
:1055CC003400F583E0F8A3E0F9E84970137C007D22
:1055DC00008E828F83A3A3A3A3E0FA7B001208F2B0
:1055EC00024B6B74F21216F6EAFEEBFF890A740E8C
:1055FC001216EAE0FAEE2462F582EF3400F583E04D
:10560C00640160030256BB9061D0E0F87480C398CB
:10561C00F50CEE2483F582EF3400F583E06004781A
:10562C0004800278008908E928F8E43400F9E824B9
:10563C00020808E93400F9E50C98E499A2D265D087
:10564C00334068EA7005750B028003750B01E0604E
:10565C003975090078081219097A5D7B05120C045A
:10566C0074021216B575085D7509057808121909CA
:10567C00AC0AA90BEEFAEFFB120C2274021216B54F
:10568C007404250AF50A7C5D7D057401250AF5D99B
:10569C00850BD9E50A600D8C828D83F8E0F5D9A3D2
:1056AC0018E870F875E19579008006790780027921
:1056BC00FF7F060217C8C082C083E960208C828DF0
:1056CC0083E08A828B83F08C828D83A3AC82AD8342
:1056DC008A828B83A3AA82AB8319E970E0ECFAED82
:1056EC00FB02415B74EA1216F6907803E064427098
:1056FC005E90055CE014F07056C2AF12570A007849
:10570C002AD0E0F618D0E0F6E59F5407F970059022
:10571C00846F800390843B780812156FE9C4C0E055
:10572C007829E65508F50808E65509F509740B784B
:10573C000812167DD0E02508F8906270E0A2E740D0
:10574C00F8E8C333906272F0906270E0D2E0F090AF
:10575C0003EEE0F47003025B13E0F875F004A4C8E8
:10576C00AAF02AF974F028FE740339FFEE2402F52E
:10577C0082EF3401F583E0F8A3E0F9E849601EEE0E
:10578C002402F582EF3401F583E0FAA3E0FBEE246A
:10579C0001F582EF3401F583E0F9120FF48E828F5C
:1057AC0083A3A3A3A3A3A3A3E0F8A3E0F98E828F02
:1057BC0083A3A3A3A3A3E8F0A3E9F0906054E09023
:1057CC0003C9F0906055E09003CAF0906056E090E9
:1057DC0003CBF0906057E09003CCF0906058E090D1
:1057EC0003CDF0906059E09003CEF090605AE090B9
:1057FC0003CFF090605BE09003D0F090605CE0FC35
:10580C009003D1F090605DE0FB9003D2F090605E6D
:10581C00E0FD9003D3F090605FE0FA9003D4F09039
:10582C0003CFE08C082508F8E43400F98D08E8254E
:10583C0008F8E93400F98B08E82508F8E93400F990
:10584C008A08E82508FAE93400FBEE24F7F582EF24
:10585C003400F583E02AF0A3E03BF08C08EE24F949
:10586C00F582EF3400F583E02508F0A3E03400F076
:10587C00EE24FBF582EF3400F583E02401F0A3E085
:10588C003400F0EE24FFF582EF3400F583E0F8A34A
:10589C00E0F9E8496042906000E0C333FCE433FD7A
:1058AC00E82CF582E93DF583E02AF0A3E03BF0908B
:1058BC006000E0FA9003D1E0FCEAC333FAE433FB76
:1058CC00E82AF8E93BF9E8244AF582E93400F58343
:1058DC00E02CF0A3E03400F09003CFE070119003C3
:1058EC00D2E0700BA3E07007A3E070030259F38EB3
:1058FC00828F83A3A3A3A3A3E0F8A3E0F9EE240D66
:10590C00F582EF3400F583E028F8A3E039F9EE24B2
:10591C000BF582EF3400F583E8F0A3E9F0EE240FE9
:10592C00F582EF3400F583E4F0EE241CF582EF34BD
:10593C0000F583E06401701EEE2420F582EF340044
:10594C00F583E0F8A3E0F9EE241DF582EF3400F5C1
:10595C0083E8F0A3E9F09003CAE06052EE241CF552
:10596C0082EF3400F5837401F0EE246AF582EF3493
:10597C0000F583E07038EE2474F582EF3400F58383
:10598C00E0702BEE2480F582EF3400F583E0701E7E
:10599C00EE2420F582EF3400F583E0F8A3E0F9EE75
:1059AC00241DF582EF3400F583E8F0A3E9F0906054
:1059BC0062E07003025AA68E828F83E0F8A3E0F9AE
:1059CC00E82406FCE93400FDE82402FAE93400FB83
:1059DC00120CD68E828F83E02412F8A3E03400F9E7
:1059EC0088828983025AB09003D1E0603AEE240F8A
:1059FC00F582EF3400F583E4F0EE241CF582EF34ED
:105A0C0000F583E064017040EE2420F582EF340051
:105A1C00F583E0F8A3E0F9EE241DF582EF3400F5F0
:105A2C0083E8F0A3E98020EE24FDF582EF3400F545
:105A3C0083E02401F0A3E03400F0EE241DF582EFA6
:105A4C003400F583E4F0A3F0EE240BF582EF340080
:105A5C00F583E0F8A3E0F98E828F83A3A3A3A3A31D
:105A6C00E0687003A3E0696003025962EE240FF54D
:105A7C0082EF3400F583E060128E828F83A3A3A3A0
:105A8C00A3A3E064057002A3E0600B7908EEFAEFC3
:105A9C00FB120BAA8071793E80F3EE241DF582EF88
:105AAC003400F583E4F0A3F0906060E0C0E0EE24F5
:105ABC0069F582EF3400F583D0E0F09003CFE0F885
:105ACC00EE2467F582EF3400F583E028025C139036
:105ADC00055AE064017035120D8AEE2467F582EFE9
:105AEC003400F583E070069060607480F0EEFAEF9D
:105AFC00FB120C94E96401600E120BC8120C8EE9B7
:105B0C0064016003120C3A7F0E0217C8EE2483F571
:105B1C0082EF3400F583E06004780480027800E5BD
:105B2C000CC398F91208E68A0A8B0BEA450B60A79E
