:020000040000FA
:0600000002011D021D7645
:03002B0002241498
:030033000223F6AF
:03005300021DEC9F
:03006B000223CDA0
:10008300021C67E5C754F84401F5C7790122000053
:100093000080FB120086B90003020107E47921788E
:1000A30008B800028004F709D8FCE479297802B87B
:1000B30000028004F709D8FCE490028178AD790747
:1000C3008002F0A3D8FCD9FA781A90014D7A01BACC
:1000D30000028007E493A3F608DAF990092DAA82B7
:1000E300AB8390014E78FB79038015E493A3AC8234
:1000F300AD838A828B83F0A3AA82AB838C828D83A8
:10010300D8E9D9E775821375839C740312012F759F
:100113008291758300740012012F75D00075813FA1
:10012300751881751902759F00020096C09FF59F8F
:10013300E473D09F22D083D082C09FE493C0E07445
:100143000193C0E0740293F59F2201FF0000B40005
:100153000028002800283075A000A000A000A000FF
:1001630000080008E001F00010001000100010006B
:100173001000100050005000500010001000D00775
:100183000000000000000F003075070010000100A0
:1001930081FF0000FF460664064C06FF02020A0ABE
:1001A300025000A0000000E803027D920100005FFE
:1001B300920279920100007E0902A592010000B229
:1001C300020279920100007F09027392010000C8C4
:1001D300020279920100008009027192030000CAB1
:1001E300020279920100008109026F92030000CBA1
:1001F300020279920100008209026D9201000083DC
:1002030009FF0100FF20027D92010000659202793F
:1002130092010000E709026B9200000000000275E2
:100223009203000018037C0C7C0C7C0C7C0C7C0C73
:100233007C0C7C0C7C0C7C0C7C0C7C0C7C0C7C0C7B
:10024300520F6A0F4C0FFFFF020202020202020268
:1002530002010D0000001001027D9201000068926E
:100263000279920100002A0A0295920100007507A3
:100273000279920100002B0A0293920100000D9172
:100283000279920100002C0A028F92010000FF9074
:100293000279920100002D0A028D920100005A900A
:1002A3000279920100002E0A028B920100007E90D7
:1002B3000279920100002F0A0289920100006C90DA
:1002C300027992010000300A0287920100004890EF
:1002D300027992010000310A028592010000F19037
:1002E300027992010000320A028392010000330A6C
:1002F30001E803053F10FF0001307503020106000A
:1003030000000000000000000000000000000000EA
:100313000000000000000000000000FFFF06008056
:100323000CE803140953696D706C65424C455065C4
:10033300726970686572616C051250002003020ACD
:10034300000201060302F0FF47686F737479754278
:100353004C455065726970686572616C00AE13003C
:1003630000B4130A436861726163746572697374DC
:100373006963203100024368617261637465726965
:100383007374696320320008436861726163746542
:100393007269737469632033001043686172616327
:1003A300746572697374696320340002436861720F
:1003B30061637465726973746963203500027D92A9
:1003C3000100006292027992010000450B029D92A6
:1003D3000300001E09027792010000460B02799286
:1003E300010000570B029F920100001F0902779240
:1003F300010000580B027992010000690B02A192DF
:1004030002000020090277920100006A0B02799230
:100413000100007B0B02A3920000002109027592E8
:1004230003000022090277920100007C0B027992FB
:100433000100008D0B0299920400002809027792B3
:100443000100008E0B1201384E90031201386590A3
:1004530003120138949003120138CD90031201382E
:10046300F590031201382391031201383A910312D4
:1004730001385191031201386791031201388E91AB
:1004830003120138A19103120138B7910312013805
:10049300CA9103120138EF9103120138A097021297
:1004A30001389F9802120138D49802120138F59846
:1004B30002120138059902120138269902120138F5
:1004C300329A02120138FF9A02120138729B021209
:1004D3000138F89B021201383B9C02120138729CCE
:1004E30002120138F89C02120138CA9D0212013827
:1004F300289E02120138409E02120138BA9E02124F
:100503000138BD9E02120138C09E02120138679F56
:10051300021201387F9F02120138AF9F0212013885
:10052300CF9F02120138BDA00212013873A102123B
:1005330001380DDE0212013835DE0212013863DEA6
:10054300021201389ADE0212013802DF0212013868
:100553004BDF0212013896DF02120138D4DF021298
:10056300013811E0021201383FE002120138E6E0DF
:1005730002120138F0E002120138FDE002120138E4
:1005830030E102120138F2E102120138FEE10212F7
:10059300013816E20212013820E2021201382699CC
:1005A300031201383499031201384C9903120138AC
:1005B30064990312013806A201120138A4A20112A0
:1005C30001381CA30112013831A4011201386BA4B4
:1005D3000112013814A501120138E9A501120138ED
:1005E3004DA701120138A4A7011201382BA801124B
:1005F300013812A9011201385FA901120138EDA9CE
:100603000112013811AA01120138E6AB01120138B7
:1006130027AC0112013849AC01120138CAAC0112EE
:100623000138B4AD011201387AAE01120138F0C1BC
:1006330002120138C2C2021201386BC3021201381E
:10064300AEC3021201383BC402120138C7C40212FE
:100653000138A8C502120138D7C502120138D3C622
:10066300021201381BC7021201381DC802120138D9
:1006730061C80212013887C802120138AE9A031208
:10068300013886F3021201389CF302120138C2F3D7
:1006930002120138EAF402120138F4F402120138AA
:1006A3004DF6021201384DF70212013858D40212E6
:1006B300013865D50212013899D502120138DBD50C
:1006C3000212013895D702120138A992011201389A
:1006D3000C930112013851940112013861940112F3
:1006E3000138849401120138CF94011201387495B2
:1006F300011201386A960112013834970112013848
:10070300AC9801120138EE98011201388C9901124C
:100713000138D99901120138FF9901120138ED9B73
:1007230001120138F29B01120138D39D01120138E5
:10073300279E01120138899E01120138B19E0112D0
:100743000138559F0112013817A00112013848A042
:10075300011201384BA00112013893A00112013894
:10076300D5A0011201383CA101120138DE85031224
:100773000138F185031201380A86031201385586C0
:1007830003120138308703120138BF87031201387F
:100793000A88031201383824001201384424001255
:1007A30001387D2400120138C22400120138792552
:1007B30000120138FF2500120138642600120138A7
:1007C300902600120138C92600120138DD280012D4
:1007D3000138B92A00120138A42C00120138DB2D8C
:1007E300001201383B300012013827310012013862
:1007F3006D32001201387A33001201389733001238
:100803000138CF3300120138E93300120138513473
:1008130000120138EB38001201388C39001201380C
:10082300DD3900120138043A00120138523A00123D
:100833000138703A00120138C43A001201389D3B66
:1008430000120138243D00120138AC3D001201387A
:10085300FCC80212013806C902120138CDC90212BE
:1008630001381CCA0212013840CA021201389BCA5D
:1008730002120138D3CA02120138FBCA021201382C
:100883002BCC0212013856CC0212013881CC021251
:100893000138D0CC02120138E6CC021201382CCD3B
:1008A3000212013866CD02120138A8CD02120138B6
:1008B300F0CD021201382CCE021201387ACE021288
:1008C3000138C3CE02120138EDCE0212013812CF25
:1008D300021201389EEB0212013868EC0212013851
:1008E30054ED02120138CAED021201380CEE021265
:1008F300013839EF021201380080021201382980D1
:100903000212013842800212013887810212013833
:1009130065820212013884820212013811830212A5
:100923000138548302120138A18402120138408530
:1009330002120138BF8702120138568802120138A9
:100943002A89021201380C8A02120138788B0212AA
:1009530001380B8C021201383B9503120138A49520
:1009630003120138F895031201381F960312013858
:1009730049E702120138B6E70212013801E8021210
:100983000138F6E802120138F2E902120138DCEA12
:10099300021201384A77001201388C7700120138AD
:1009A3006678001201383F79001201383A7A001252
:1009B3000138197B00120138857B001201384C7C09
:1009C30000120138B77C001201381E7D0012013875
:1009D300497D00120138BA7D001201384D7E0012A4
:1009E3000138B67E00120138CB7E00120138137F26
:1009F300001201382C7F00120138917F0012013858
:100A0300947F0012013800800312013828800312FA
:100A130001386680031201382481031201388F8163
:100A230003120138AB8103120138D3810312013859
:100A33000382031201381282031201388C820312DB
:100A43000138B28203120138AFB0011201383AB251
:100A530001120138D6B3011201389CB401120138D6
:100A6300E3B4011201382AB50112013848B5011265
:100A730001388AB501120138A0B501120138ECB56D
:100A83000112013824B60112013857B60112013898
:100A9300A8B60112013812B7011201380CBA0112BB
:100AA3000138AEBB01120138F4BB011201382BBD72
:100AB3000112013888BD01120138FDBD0112013850
:100AC30051BE011201387EBE01120138A9BE0112C6
:100AD3000138DEA102120138FBA10212013888A7F6
:100AE300021201388AA80212013804AA021201383C
:100AF300B2AA02120138133E001201385C3E001202
:100B03000138893E00120138BC3E00120138C93E4B
:100B130000120138D53E00120138E73E00120138B9
:100B2300BC3F001201381A40001201384F40001236
:100B33000138EB410012013825420012013893427B
:100B430000120138384300120138F443001201380F
:100B5300734400120138374500120138464500122C
:100B63000138C7450012013866460012013898461D
:100B7300001201383347001201389147001201383F
:100B8300CB47001201384C480012013815490012B6
:100B93000138BE4900120138454A001201389D4A06
:100BA30000120138FE4A00120138274B00120138A7
:100BB300DD4B00120138274D001201386A4D001237
:100BC3000138874D00120138A64D00120138F14D4E
:100BD30000120138164E001201383F4E0012013840
:100BE300AE4E00120138F04E00120138F44F0012DD
:100BF30001388E50001201385A51001201387351D6
:100C030000120138C9F5011201381CF6011201382E
:100C130028F601120138FDF60112013824F70112FA
:100C230001385FF701120138CBF701120138FFF7E2
:100C33000112013838F80112013850F80112013855
:100C4300A9F801120138C2F8011201380BF9011297
:100C530001381EF90112013838F9011201384EF931
:100C6300011201386AFA011201387BFB01120138C3
:100C7300C8FC01120138ADFD01120138EE7F0012EC
:100C83000138E3E80112013817E90112013882EC57
:100C930001120138CCED0112013896EE0112013830
:100CA30020F001120138FBF00112013835F1011275
:100CB300013858F1011201389AF101120138A3F1F8
:100CC30001120138EDF101120138F7F10112013877
:100CD300A3F20112013877F301120138CBF30112A9
:100CE30001382DF40112013880F401120138AFF4F8
:100CF30001120138EEF401120138026500120138C5
:100D03005C6D00120138626D001201381573001218
:100D13000138FB760012013857F702120138CDF77C
:100D230002120138E3F70212013820F802120138E7
:100D330058F802120138D5F80212013810F90212DC
:100D430001388BF902120138C7F902120138D0F9C0
:100D530002120138DCF902120138F6F902120138E5
:100D63001BFA0212013831FA021201385AFA02123E
:100D73000138BDFA021201384BD9021201385ED98B
:100D83000212013878D902120138A1D902120138AE
:100D9300E4D90212013823DA0212013861DA0212AD
:100DA3000138C6DA02120138DBDA02120138E6DA58
:100DB30002120138F3DA021201380ADB0212013897
:100DC30018DB0212013823DB021201382FDB021277
:100DD300013842DB021201384DDB0212013870DBAD
:100DE3000212013819DC0212013829DC021201381F
:100DF30043DC0212013860DC021201387CDC02128F
:100E03000138A1DC02120138ABDC02120138BFDC6D
:100E130002120138DEDC021201383FDD0212013812
:100E230045DD021201384BDD0212013851DD021299
:100E330001385DDD0212013890DD0212013859DB01
:100E430001120138DBDB0112013884DC01120138A5
:100E5300CCDD01120138DADF01120138C0E00112E2
:100E63000138F5E00112013817E101120138C0E140
:100E73000112013890E301120138B9E3011201387C
:100E830031E40112013863E40112013870E4011204
:100E93000138BBE401120138DFE40112013830E705
:100EA300011201383AE80112013896E801120138BB
:100EB30045BF0112013856C0011201383AC101126F
:100EC300013844C10112013866C10112013872C1EF
:100ED3000112013816C30112013843C3011201384C
:100EE30059C401120138AEC401120138FDC5011203
:100EF3000138D2C6011201382EC70112013899C731
:100F030001120138CEC70112013811C8011201388C
:100F1300DBCA01120138F3CA0112013884CB011272
:100F2300013892CB01120138DFCB01120138EDCB2E
:100F33000112013859CC01120138D4CC0112013805
:100F43002BCD01120138828C02120138A48C0212BB
:100F53000138B58E021201387491021201389E9243
:100F6300021201385C9302120138489402120138CC
:100F7300958E03120138BA8E03120138308F031293
:100F83000138D3BA02120138DCBA02120138E5BAC9
:100F930002120138BDBB021201386EBD02120138C4
:100FA3009EBD02120138C9BD02120138F9BD0212F9
:100FB300013824BE0212013858BE0212013884BE21
:100FC30002120138C7BE02120138F2BE0212013802
:100FD30039BF021201388EBF02120138D0BF02128C
:100FE30001382AC00212013855C002120138A4C0C8
:100FF30002120138D4C002120138FFC002120138B4
:101003002DC10212013850C102120138379B03125D
:101013000138639B03120138909B031201389A9B9A
:1010230003120138AA9B03120138D4AA0212013811
:10103300DEAA021201381FAB0212013868AB02129A
:101043000138A2AB02120138F8AB0212013819AC15
:1010530002120138C8AE02120138D1AE02120138B1
:1010630025AF021201384EAF0212013858AF0212F7
:101073000138C6AF0212013856B002120138B1B0BE
:1010830002120138DFB00212013867B102120138CF
:10109300A6B102120138DBB102120138EDB102121E
:1010A30001380CB20212013815B202120138DCB257
:1010B30002120138529703120138A48C031201382B
:1010C300DA8C031201380E8D031201385B8E031282
:1010D30001386AFF0112013880FF011201388AFFCB
:1010E30001120138D4FF01120138B49B03120138F5
:1010F300B5E202120138C8E20212013889E3021292
:101103000138C8E302120138E5E3021201381EE494
:10111300021201386BE4021201389DE40212013815
:10112300D4E402120138DDE60212013877FE02121E
:1011330001389AFE02120138C9FE0212013861FF1A
:1011430002120138A3FF02120138FA820312013896
:101153001F83031201384983031201386B9C031266
:101163000138A551001201386F53001201381A5586
:1011730000120138C55500120138455600120138D6
:10118300CE5600120138F75600120138B05A001239
:101193000138305B001201383B5C00120138755C8A
:1011A30000120138B65C00120138FD5D00120138EF
:1011B300535E001201389C5E00120138F35E001288
:1011C3000138415F001201386F5F00120138875FF9
:1011D300001201386C6000120138A260001201385D
:1011E3005161001201386861001201389A610012DE
:1011F3000138376300120138CB63001201380964E8
:1012030000120138FD99031201380E9A03120138B6
:10121300C19C03120138009D03120138ECFF021236
:1012230001384998031201385998031201386E980E
:101233000312013820990312013850960312013822
:10124300D59603120138399703120138019203121C
:1012530001382A9203120138909203120138B09296
:10126300031201380193031201385C93031201380E
:1012730096930312013899930312013893EF0212E4
:101283000138C0EF0212013832F00212013847F080
:101293000212013868F102120138EBF1021201382F
:1012A30064F20212013883F202120138A6F202122A
:1012B3000138E3F202120138FBF20212013851F352
:1012C300021201387D9D031201388D9D03120138EE
:1012D300909D03120138F87F001201387B8A0312B4
:1012E3000138FA8B031201385B8C03120138A18C8D
:1012F30003120138A39303120138F5930312013843
:10130300689403120138D594031201383488031208
:1013130001385E88031201382D8903120138098AC6
:10132300031201380AB302120138D6B3021201388C
:1013330017B40212013875B402120138C9B402128B
:10134300013827B502120138BDB502120138C5B6FE
:10135300021201384FB802120138EDB802120138F7
:1013630054B9021201386BB9021201388ABA021257
:101373000138C3CD011201383FD101120138CBD25C
:10138300011201381BD30112013835D30112013880
:10139300B5D301120138BBD501120138ACD9011202
:1013A30001383ACF02120138A2D10212013850D2C9
:1013B3000212013865D302120138D7D30212013861
:1013C300EDFA0212013832FB021201384FFB02120E
:1013D300013805FC0212013858FC0212013828FDBD
:1013E300021201383EFE021201380A9D031201382F
:1013F300B87F00120138379D031201385F9D03E067
:1014030066701008A3E066700A08A3E0667004081B
:10141300A3E06622C3E7960809E7960809E796085A
:1014230009E79622C3E09608A3E09608A3E096088E
:10143300A3E09622C008C3E096F50808A3E096420D
:101443000808A3E096420808A3E09645087001D374
:10145300D00822080808EAC0E0EBC0E086F0E7A461
:10146300FA180986F0E7A42AFA180986F0E7A42AED
:10147300FA180986F0E7A42AFA1986F0E7A4FBE52F
:10148300F02AFA190886F0E7A42BFBE5F03AFA19DB
:101493000886F0E7A42BFBE5F03AFA18180986F062
:1014A300E7A4C5F02BFBE43AFA1908E7C5F0C6A494
:1014B30026F6E5F03BFBE43AFA1886F0E7A4F6E5F6
:1014C300F00826F6E43B08F6E43A08F6D0E0FBD051
:1014D300E0FA22E4CFC0E0E4CEC0E0E4CDC0E0E433
:1014E300CCC0E075F020C3E633F608E633F608E631
:1014F30033F608E633F6181818EC33FCED33FDEE3B
:1015030033FEEF33FFC3EC9709ED9709EE9709EF2D
:1015130097191919400FFFEC97FC09ED97FD09EE98
:1015230097FE191906D5F0BEECF709EDF709EEF7AA
:1015330009EFF7191919D0E0FCD0E0FDD0E0FED097
:10154300E0FF226016080808C6C313C618C613C6F0
:1015530018C613C618C613C6D5E0EA2270090808D0
:1015630008226016181818C6C333C608C633C6083F
:10157300C633C608C633C6D5E0EA22E627F608090D
:10158300E637F60809E637F60809E637F622E026D5
:10159300F608A3E036F608A3E036F608A3E036F62D
:1015A30022E026F008A3E036F008A3E036F008A313
:1015B300E036F022C3E697F60809E697F60809E64F
:1015C30097F60809E697F622C3E096F008A3E0969B
:1015D300F008A3E096F008A3E096F022E056F608A0
:1015E300A3E056F608A3E056F608A3E056F622E079
:1015F30056F008A3E056F008A3E056F008A3E0561F
:10160300F022E0F608A3E0F608A3E0F608A3E0F66C
:1016130022E6F008A3E6F008A3E6F008A3E6F0222A
:10162300E0FAA3E0FBA3E0FCA3E0FD22EAF0A3EBD6
:10163300F0A3ECF0A3EDF022CAC0E0E6F0A308DAD1
:10164300FAD0E0FA22CAC0E0E0A3C582CCC582C5C5
:1016530083CDC583F0A3C582CCC582C583CDC583A5
:10166300DAE6D0E0CA22C3E498F8E499F91216AA9C
:101673008026C3E49AFAE49BFBE920E7E91216AA61
:10168300E498F8E499F922C3E498F8E499F9121676
:10169300AAE498F8E499F9C3E49AFAE49BFB22EBF1
:1016A30020E7CFE920E7E0B90010BB0008E88AF0A3
:1016B30084F8AAF022E4FBC8FA22EB70227B10C85C
:1016C30033C8C933C9335007C39AC3DBF280069AC0
:1016D30050012ADBEAC833F4C8C933F4C9FA2275C6
:1016E300F008E4C833C8C933C933C99AC99B500445
:1016F300C92AC93BD5F0ECFBC833F4C8E4C9FA22C4
:10170300600D08C6A2E713C618C613C6D5E0F322B8
:10171300600C08C6C313C618C613C6D5E0F42270FE
:101723000422600D18C6C333C608C633C6D5E0F419
:101733001822251810AF08F518400215198008F56E
:101743001840021519D2AF22C0D0251810AF08F5E2
:1017530018500205198008F51850020519D2AFD0A8
:10176300D0222518F58210AF08F51840021519800C
:1017730008F51840021519D2AF851983222518F5EB
:1017830082E43519F58322E4732518C582C0E0E5A8
:101793001934FFC583C0E0E518C3958224F810AF60
:1017A300088583198582188008858319858218D254
:1017B300AFCEF0A3E520F0A37808E608F0A3DEFAA5
:1017C300EFF0A3E58124FAF8E608F0A3E608F0A316
:1017D300E608F0A30808E608F0A3E608F0A31581DD
:1017E3001581D0E0FED0E0F8158115811581E8C0A0
:1017F300E0EEC0E0222518C582C0E0E51934FFC53C
:1018030083C0E0E518C3958224F910AF08858319D6
:101813008582188008858319858218D2AFCEF0A3FC
:10182300E520F0A37808E608F0A3DEFAEFF0A3E5DD
:101833008124FBF8E608F0A3E608F0A30808E6080D
:10184300F0A3E608F0A315811581D0E0FED0E0F8FF
:1018530015811581E8C0E0EEC0E022851983851863
:1018630082E0A3FEE0A3F5207808E0A3F608DFFA00
:10187300E0A3FFE0A3C0E0E0A3C0E0E0A3C0E0E09A
:10188300A3C0E0E0A3C0E010AF08858218858319E8
:101893008008858218858319D2AFD083D082020154
:1018A30035851983851882E0A3FEE0A3F520780827
:1018B300E0A3F608DFFAE0A3FFE0A3C0E0E0A3C0E3
:1018C300E0E0A3C0E0E0A3C0E010AF088582188584
:1018D30083198008858218858319D2AFD083D0827B
:1018E30022C0D02518C582C0E0E51934FFC583C0E6
:1018F300E0E518C3958224F310AF08858319858228
:10190300188008858319858218D2AFC8F0A3E9F03F
:10191300A3EAF0A3EBF0A37908E709F0A3D8FAEC64
:10192300F0A3EDF0A3EEF0A3EFF0A3D0E0F0A3D08B
:10193300E0F0A3D0E0F0A3E520F0A3E5F0F0A322CC
:10194300851983851882E0C0E0A3E0F9A3E0FAA338
:10195300E0FBA37808E0F608A3DFFAE0FCA3E0FDD0
:10196300A3E0FEA3E0FFA3E0C0E0A3E0C0E0A3E0A8
:10197300F5D0A3E0F520A3E0A3F5F010AF0885832D
:10198300198582188008858319858218D2AFD08281
:10199300D083D0E0F8D0E032740480067402800271
:1019A3007401C0E0F404121765D0E012163B2274F0
:1019B30004800474028000CCC0E0EDC0E0E518C3ED
:1019C3009CCCAD1950011D10AF068C188D198006E3
:1019D3008C188D19D2AF121648D0E0FDD0E0FC224E
:1019E300D083D082E9C0E0E493A3C386F0C5F09529
:1019F300F0F908E493A386F0C5F095F0700BE49337
:101A0300A3C3994005E9048002A3E475F002A42569
:101A130082F582E5F03583F583D0E0F9E493A3C042
:101A2300E0E493C0E022D083D082ECC0E0EDC0E0DC
:101A3300E493A3FCE493A3FDED4C600D121A75EC43
:101A430024FFFCED34FFFD80EFE493A3FCE493A3B8
:101A5300FDED4C600D121AB4EC24FFFCED34FFFDD8
:101A630080EFD0E0FDD0E0FCE493A3C0E0E493C0BA
:101A7300E022C0E0C3E49396087401939618400FE4
:101A8300E49366700808740193661870007019A3D4
:101A9300A3C3E49396087401939618A3A3400DD0AF
:101AA300E0D0E0D0E0021A65A3A3A3A3A3A3D0E0F0
:101AB30022C0E0C0F088F0E49366700808740193D4
:101AC30066187000A8F0A3A3700BD0F0D0E0D0E0AC
:0C1AD300D0E0021A65A3A3D0F0D0E022FE
:101AE00074F51217F8EAFEEBFFEE2434F8EF340039
:101AF000F988088909EE2435121C18F8EE243712EB
:101B00001C18F50AEC850AF0A4FCAAF0850AF0ED91
:101B1000A42AFDE82CF8E43DF97A257B001216AAE8
:101B2000EA850882850983F05407F87401B8000239
:101B30008004C333D8FCC0E0E0131313541FF8EE45
:101B400028F8EF3400F9E8245DF582E93400F583E4
:101B5000D0E0F8E0586008850882850983801DEE92
:101B60002436121C18F5F0EA84A8F0EE28F8EF34B9
:101B700000F9E82438F582E93400F583E0F97F04C0
:101B80000218A474F51217F8EAFEEBFFEE243412E3
:101B90001C18C0E0EE2435F582EF3400F583D0E068
:101BA000F08E828F83A3A3A3A3A3E0FAA3E0FB8E0E
:101BB000828F83A3A3A3A3A3A3A3E0FCA3E0FDECD4
:101BC000C39AF50AED9BF50BEE2480F508EF34007F
:101BD000F509850882F583E06401702BEE2481F518
:101BE00082EF3400F5831219B6121C217402121709
:101BF0004BE960137CFB7D04EEFAEFFB120BAA8528
:101C00000882850983E4F0AC0AAD0BEEFAEFFB1213
:101C10001AE01223BF021B7EF582EF3400F583E049
:101C200022C082C083851882851983E0F8A3E0F979
:101C3000C3EA9CEB9D500BC3EC98ED9940127901DF
:101C40008010C3EA98EB9940F5C3EC98ED9950EEFB
:101C50007900D083D08222EAC39CFAEB9DFB22005C
:101C60008521878522C622C0E074EF1218E4759B97
:101C700000906182E0A2E64003021D28E591A2E601
:101C80004003021D287591BF9003C2E064057008EF
:101C9000120D48120D548003120D4E752100120DC5
:101CA000C0E99003C3F07900120DB4120B1A7A0147
:101CB0007B009003C1E0F912108A907803E064423F
:101CC0006003021D7190055CE014F06003021D7159
:101CD000C2AF121CD500782AD0E0F618D0E0F6E5A5
:101CE0009F5407F9700590922780039092237808FB
:101CF000121605E9C4C0E07829E65508F50808E69B
:101D00005509F509740B7808121713D0E02508F867
:101D1000906270E0A2E740F8E8C333906272F090FE
:101D20006270E0D2E0F08049E0A2E55024E591A2A3
:101D3000E5501E7591DF9003C2E0640D70139003AF
:101D4000E4E004F064287002E4F07A00E0F9120E96
:101D500032906181E0A2E35009E5E9A2E350037506
:101D6000E9F7A3E0A2E75009E591A2E750037591D6
:101D70007F7F04021943C0E0C0D0C082C08390615D
:101D800083E0A2E05009E5BFA2E0500375BFFEE08A
:101D9000A2E15009E5BFA2E1500375BFFDE0A2E258
:101DA0005009E5BFA2E2500375BFFBE0A2E3500972
:101DB000E5BFA2E3500375BFF7E0A2E45009E5BF19
:101DC000A2E4500375BFEFE0A2E55009E5BFA2E52C
:101DD000500375BFDFE0A2E65009E5BFA2E650035D
:101DE00075BFBFD083D082D0D0D0E032C0E074F2D3
:101DF0001218E4E5A7A2E4500FE5A1A2E4500953AC
:101E0000A7EF75A1EF121E40E5A7A2E5500CE5A1D2
:101E1000A2E5500653A7DF75A1DFE5A7A2E15009AF
:101E2000E5A1A2E1500375A1FDE5A7A2E2500CE5F2
:101E3000A1A2E2500653A7FB75A1FB7F0102194343
:101E400074F81217F87521019003C2E06406700758
:101E50007A007B00120D30A2AFE433FED2AF9003C4
:101E6000C8E0640170187A207B009003C1E0F91289
:101E700011147A207B009003C1E0F9121090906158
:101E800082E0D2E6F090055BE0602185C6228016F4
:101E90009003C7E064017008E5C654F84405F5C630
:101EA00053BEFC121C607401652160E4EEA2E09256
:101EB000AF7F010218A400008E238F24858228851D
:101EC0008327851882851983E0CEA3E0CF852882F9
:101ED000852783EBC9EAC8EDCBECCA75F010C3E8DF
:101EE00033C8E933C9EA33CAEB33CBC3EA9EF526DC
:101EF000EB9FF525B35004AB25AA26EC33CCED338C
:101F0000CDD5F0DAAE23AF242274E91217F874FAB3
:101F1000121735EAFEEBFF8C088D099003C2E0240E
:101F2000F7C3940550069091E3022030120CAC8A5E
:101F30000A8B0BEA450B700302202D120D668A0CEA
:101F40008B0D120D66EA650C7003EB650D60ECEE0F
:101F5000FCEFFD851882851983AA82AB83120D6C74
:101F6000850A82850B83A3A3780C1216059091FB3A
:101F7000780C1215DF8518828519837814121605DE
:101F80009091FB78141215DF780C79141214175005
:101F90001F780C79141215B79091CF780C12143762
:101FA0004047850C10850D11850E12850F13804159
:101FB0008514108515118516128517137810790C64
:101FC0001215B79091CF7810121437501C7510006D
:101FD000751100751200751301781079141215B778
:101FE0007810790C12157E80089091E37810121603
:101FF000057409781012155F9091C3780C121605BC
:102000007810790C1214D69003C2E06408600AE0DC
:1020100064066005E06405701C90923B7810121411
:102020003750129091BF781012159180089091D777
:102030007810121605850882850983781012161407
:10204000740612174B7F100218A474F71217F812B7
:102050000D7E900559E064017010906245E4F0A394
:10206000F053F4F343FE0C5390F3120D1EE5C654E7
:10207000804449F5C6E59E547F644970F8906185B7
:10208000740FF0900557E0F47002A3E0602C75081F
:1020900001750900900557E07808121722E508F449
:1020A000FAA3E0600814600A14600C800DEA528004
:1020B0008008EA52908003EA52A079007F02021859
:1020C000A474F71217F8E9FE902430E493F4600842
:1020D000E493F9120AFC800953C680E59E547F7090
:1020E000FA120D24900559E064017003120B32902E
:1020F0000557E0F47002A3E0602A75080175090035
:10210000900557E07808121722AA08A3E060081487
:10211000600A14600C800DEA42808008EA429080D8
:1021200003EA42A0120CAC8A088B09A808A909E8A6
:10213000496017E5E170FCE82414F582E93400F504
:1021400083E0F874FF68600288E174016E700A7AB7
:10215000019003C1E0F91210DE0220BC74F11217E5
:10216000F88A088B098C0A8D0B740F121780780C73
:102170001216059091FB78081215DF9091FB780CF0
:102180001215DF7808790C12141750157808790C9D
:102190001215B79091CF7808121437401579018045
:1021A00013780C79081215B79091CF780C12143768
:1021B00040EB79007F080218A474ED1217F88A0822
:1021C0008B098C0A8D0B7413121780780C1216056C
:1021D0009091FB78081215DF9091FB780C1215DFB7
:1021E000780C790812141740117808790C1215B779
:1021F000AA08AB09AC0AAD0B80227510007511005E
:102200007512007513017810790C1215B7781079D2
:102210000812157EAA10AB11AC12AD137F0C021878
:10222000A49091FB78081216058A828B8378081295
:1022300015F27F040218A474F51217F88C828D83AE
:1022400078081216058A828B8378081215CB122221
:102250008BC3E098F0A3E09912227D401E90923348
:1022600078081216058A828B8378081215A48E824C
:102270008F83E02420F0A3E0344EF080A4F08E821F
:102280008F83C3E09420A3E0944E22EA2404F8EB69
:102290003400F9E8FEE9FF8C828D83A3A3A3A3E0B9
:1022A000F8A3E0F98E828F832274F51217F8E9FE05
:1022B000900511E0FAA3E0FBEEC333F8E433F974C0
:1022C000B228F582749039F583E02AF508A3E03B43
:1022D000F509780812199F90922F121623121EB832
:1022E000740212174B8A088B098C0A8D0B741078B4
:1022F00008121546AA08AB097F040218A474F1124B
:1023000017F88A0C8B0D8C0E8D0F740F121780E04E
:10231000FAA3E0FB7411121780E0F508A3E0F509B9
:102320007413121780E0FEA3E0FF780812199FEAE9
:102330002401F508EB3400F509E4F50AF50B780CF7
:1023400079081214569091BB7808121605780C790A
:1023500008121456AA0CAB0DAC0EAD0F121EB874B9
:102360000212174B8B09EA450960047A0180027A50
:1023700000EC2AFCED3400FDECF8EDF97A717B02FB
:102380001216AA88088909E4F50AF50B8E828F8354
:102390007808121614ECF8EDF97A717B021216AA7D
:1023A0008A088B09740578081217228E828F83A3FE
:1023B000A3A3A3E508F0A3E509F07F080218A4C0D1
:1023C00082C083E9906000F0D083D08222C0E074A4
:1023D000F21218E4A2AFE433FED2AFE589A2E150D5
:1023E0000312126A758900C2C5751A00EEA2E09246
:1023F000AF7F01021943C0E074F21218E4A2AFE407
:1024000033FED2AFE58BA2E0500312126A758B0047
:10241000C2E880D5C0E0C0D0E8C0E0E5A8D2AFC235
:10242000C7751A00A2E792AFD0E0F8D0D0D0E03262
:10243000FFFFFFFFFFFFFFFFC082C083E99009E6B7
:10244000F00226BC74F712178CE99002E0F07C18B9
:102450007D037AFF7BFF1208269002E174FFF0A350
:10246000F0A3E4F0A3F079051207AE9002E0E0F9E2
:102470001206D67A447B08120A0C0233CA74F4128C
:10248000178C8A088B09EB548060309002E0E0F9E9
:102490001210728A0A8B0BAE0AAF0BEE4F60138ECE
:1024A000828F83E064B070031207C6EEFAEFFB126E
:1024B0001060AA08E5096480FB80047A007B0002B2
:1024C000268B74F212178C74FC121735EAFEEBFFA0
:1024D00074121217801238B1EE4F70030225657422
:1024E00002121780EEF0A3EF1228C6ECF0A3ED1253
:1024F00028C6AA82AB831206D0E9F50A706AE508FD
:10250000450960648E828F83123897EE4F60567A49
:10251000067B001210C68A0C8B0DA80CA90DE84989
:102520007005750A13804188828983E4122572EE52
:10253000F0A3EF1238C2E508F0A3E509F09002E637
:102540001225F99002E67005123374801B12336273
:102550008003EAFCEBFD8C828D831225F970F38CED
:10256000828D8380E3750A02A90A740412174B0254
:102570003AB1F0A3123868A32274F212178C890AB8
:10258000E975F017A4FEAFF09002E5E4F09002E3E5
:102590001225F9600A1210CC9002E3E4F0A3F0EEE9
:1025A000FAEFFB1210C68A088B09EA4509602FEE84
:1025B000FCEFFD79001210489002E3E508F0A3E576
:1025C00009F07B0080081225E3E4F0A3F00BEBC3D5
:1025D000950A40F2E50A9002E5F07900800279134D
:1025E000023AB1EB75F017A4F8A9F09002E3E028E5
:1025F000FAA3E0398A82F58322123006EA4B22746C
:10260000F412178C740C12178012388CFEE9FF75C7
:102610000800750900800CE5082401F508E5093477
:1026200000F509C3E5089CE5099D503285080A8537
:10263000090B7403780A121722EA250AF8EB350B06
:10264000F988828983A3A3A3A3A3A3123449EE65C7
:102650000A7003EF650B70BFE8FAE9FB80047A00AB
:102660007B00802774F412178C7900EAA2E0501BDB
:102670007508A4750991780812199F7C047D007A69
:10268000E87B091207A8740212174B7F0402185E38
:10269000C082C0839002E61226C3601C88828983B0
:1026A000A3A3E06A7003A3E06B8882898370E8A328
:1026B000A3A3A312300280047A007B00D083D082CF
:1026C000020135123B97E8492274EE12178C74FC14
:1026D000121735EAFEEBFF851882851983E4F0A313
:1026E000F0EE2402123354EE240512386FEE240467
:1026F000F50EEF122C7BE024FE603924FC604624AA
:10270000FE605224FE605E24FE70030227DC24FE7D
:10271000700302284024FE700302284F24FE700339
:1027200002285E24FC700302286D24FE7003022838
:102730007C0228B99002FF7417F0A3E41228CE128D
:10274000044E0228B9851882851983AC82AD8312A4
:1027500007CC022889851882851983AC82AD831243
:1027600007D2022889850C08850D0974021217808A
:10277000AC82AD838508828509831230021206F48B
:102780008A0C8B0DAC0CAD0DEC4D603BE4F50CF5FB
:102790000D780C12199F750CFF750D02780C12192B
:1027A0009F750C00750D03780C12199F7408121791
:1027B000801219B6123D1312174BE9F50C700B126B
:1027C0002FF8120466800F750C0185088285098335
:1027D0001228BC123374850C0802288C740212175C
:1027E00080AC82AD83850C82850D83122DCD603C3B
:1027F000850C82850D83A3A31219B67510FF751180
:1028000002781012199F75100075110378101219B3
:102810009F74081217801219B6123D1312174BE954
:10282000F509700B122FF812046C800F75090185E1
:102830000C82850D831228BC123374850908804CE4
:10284000851882851983AC82AD831207D8803A85BA
:102850001882851983AC82AD831207DE802B851820
:1028600082851983AC82AD831207E4801C851882AF
:10287000851983AC82AD831207EA800D85188285A5
:102880001983AC82AD831207F0E9F508E5086029E9
:102890008E828F83A3E06414601F850E82850F8370
:1028A000E09002FF1228C6123B939003001233748B
:1028B000E508A31228CE120448023263123B978522
:1028C000188285198322F085188285198322F07C6D
:1028D000FF7D02850A82850B831230062274EE1278
:1028E000178C74FC1217358A0A8B0B8C0E8D0FEA2D
:1028F0002405F508EB3400F5097C157D0079007A94
:10290000FF7B02121048E5082402F50CE509123895
:10291000728518828519838582108583117810123B
:10292000199F850882850983A3A3A3A3122DC4122E
:10293000199FE5082405F510E5093400F511781014
:1029400012199F850C82850D831231191206EE74BF
:102950000612174B8A108B11AE10AF11E50A240234
:10296000F50AE50B123357EE4F7003022A9B8017CE
:10297000740212178012300288828983EAF0A3EB76
:10298000F09002FFE004F09002FFE0C394054003E2
:10299000022A9BE4F510F511781012199F7510E8C2
:1029A000751102781012199F7510E97511027810CF
:1029B00012199F74061217801219B67910EEFCEFE7
:1029C000FD123D1512174BE9705E8508828509835B
:1029D000A3A3A3A3A3A3A3E0F89002E8E068704830
:1029E000122DC412199F7CE97D02E5082408FAE53E
:1029F000093400FB121042740212174BE960298E51
:102A0000828F83A3A3A3A31230029002FFE0F510EC
:102A10007402781012172274002510F582740335A1
:102A200011F583EAF0A3EBF074021217808582108F
:102A3000858311781012199F74021217801219B62B
:102A4000850C82850D8312302812174B8A108B114A
:102A5000AE10AF119002FFE0F5107511007402780E
:102A60001012172274FF2510F874023511F98882AC
:102A70008983A31225F97003022967E82403080853
:102A800008E93400F9EE4F600302297088828983D7
:102A900074FFF0A3F09002FFE004F09002FFE0600A
:102AA0000A122FF812045A7900800B8508828509D2
:102AB0008312336B790A02326374EA12178C74FE44
:102AC0001217358C128D13EA2405F50CEB123CFD20
:102AD00012389B750800750900EA2402F510EB34E2
:102AE00000F51185188285198385820A85830B7804
:102AF0000A12199F850C82850D83A3A3A3A3122C10
:102B00009112199FE50C2405F50AE50D123357784B
:102B10000A12199F850C82850D83122C951206EEE0
:102B2000740612174B8A0A8B0BEA450B7003022CB2
:102B300036EA2404F50EEB122C7B12389B8A828B2A
:102B400083A3A3A3E0F985108285118312300C6062
:102B500003022C36E4F514F515781412199F751438
:102B6000E8751502781412199F7514E97515027825
:102B70001412199F74061217801219B67913AC0A31
:102B8000AD0B851082851183123D1B12174BE9F5A1
:102B9000096003022C369002E8E0F8E5087009E0CD
:102BA0002402900300F08014900300E0FCE824026B
:102BB000FAE43400FBEA6C7001EB707E850882AAAF
:102BC00082122DBB9414122DB3506B850E82850F8B
:102BD00083E0C0E074012A122C72D0E0F005088571
:102BE0000E82850F83A3E0C0E085080A7401250AE0
:102BF000122C72D0E0F005089002E8122C91121904
:102C00009F7CE97D0285080A7401250A122C851231
:102C1000174B9002E8E02508F50874FF6E70037406
:102C2000FF6F6012EE24010EEF3400FFE508C3943D
:102C3000145003022AE3E50860131230168510824F
:102C400085118312300212046079008014E5097046
:102C50000375090A851282851383EEF0A3EFF0A9AC
:102C600009740212174B7F0E02185E85080C74015E
:102C7000250CF58274033400F583223400F50F85AA
:102C80000E82F58322FA74033400FB1210307402B2
:102C9000221238D122A3A3122C9B22123362FDEE02
:102CA000FAEFFB2274EE12178C74FE1217358C0E9D
:102CB0008D0FEA2405F50CEB123872750B009002AB
:102CC000FFE4F0F50AEA2402F508EB3400F5098088
:102CD000449002FFE0FA9002E8E0F8122DBB94174E
:102CE000122DB3400D9002FFE0F87416C3989002C5
:102CF000E8F0122DC412199F7CE97D0274002AFAB3
:102D00007403122C8812174B9002E8E0F89002FF2F
:102D1000E028F0050AE50C2416F582E50D122C7664
:102D2000E0F8E50AC39850749002FFE0C39416508F
:102D30006BE50AC333F8E433F9E50C28FEE50D39F9
:102D4000FF851882851983AC82AD838E828F8312B2
:102D50002DCD7008750B011233678050E4F510F526
:102D600011781012199F7510E87511027810121958
:102D70009F7510E9751102781012199F74061217C9
:102D8000801219B67916850882850983123D1B12B7
:102D9000174BE9F50B7003022CD180BB7CFF7D0241
:102DA000850882850983123002120472A90B74020D
:102DB000023265E99400C365D03322EA28F8E4348E
:102DC00000F9E822E0F51075110078102212325A4D
:102DD0008A108B11AC10AD11EC4D2274EA12178CD5
:102DE00074FC1217358A0C8B0D8C128D13EA240596
:102DF000F50AEB123357750800750900E50A24023D
:102E0000F510E50B3400F511740212178085820E5F
:102E100085830F780E12199F850A82850B83A3A3E1
:102E2000A3A312387712199FE50A2405F50EE50BC6
:102E30003400F50F780E12199F85108285118312C8
:102E4000335D122FFC1206EE740612174B8A0E8B9E
:102E50000FAE0EAF0FE50C2402F50EE50D3400F5B4
:102E60000F80388882898374FFF00508122C6B74F8
:102E7000FFF005089002E8E0F50C750D00780C12E3
:102E8000199F7CE97D0285080C7401250C122C85A4
:102E900012174B9002E8E02508F508EE4F60278EE8
:102EA000828F83A3A3A3E0F9850E82850F8312305E
:102EB0000CEE240412386FE96027850C82850D839F
:102EC000122FEE123374E5087003022FD41230165D
:102ED000850E82850F831230021204787900022F4A
:102EE000E9E4F514F515781412199F7514E87515B1
:102EF00002781412199F7514E975150278141219C5
:102F00009F74081217801219B67911EEFCEFFD8537
:102F10000E82850F83123D1B12174BE9F509709A3B
:102F2000850882AA82EA9002E87009E024049003EE
:102F300000F08025E0F8900300E0F514E82404FC9C
:102F4000E43400FDEC65147001ED7081122DBB942A
:102F500012122DB34003022ECD850C82850D83E025
:102F6000C0E074012A122C72D0E0F00508850C82B2
:102F7000850D83A3E0C0E0122C6BD0E012303185C8
:102F8000820C85830D780C12199F7404121780121D
:102F900019B685108285118312302812174B8A0CBE
:102FA0008B0DAE0CAF0D85080C7401250CF8740365
:102FB0003400F9EE4F7003022E6385188285198361
:102FC000E088828983123031A3E0C0E0122C6BD0FC
:102FD000E0022E71E509700375090A850A82850BE6
:102FE00083122FEE123374A9097404022C63123B6E
:102FF00097851282851383227CFF7D02850A828554
:103000000B8312300622E0FAA3E0FB2212300612F4
:1030100006DCE9F50922900300E0F5F0E50884906C
:1030200002FFF07CFF7D0222122C9B1206FA740430
:1030300022F005088518828519832274EC12178CFA
:1030400074FE1217358A088B098C0E8D0FEA240541
:10305000FEEB3400FF123244EE241812386FEA45BA
:103060000B70030230E712322D502912310C8A10F6
:103070008B11EA4511606B7912AC0AAD0B850882A1
:1030800085098312300285108285118312178AE91F
:10309000F50A7058E4F50AF50B780A12199F8E822A
:1030A0008F83A3A3E0F50A780A12199FEE24031276
:1030B0003354780A12199F8E828F831231191208A5
:1030C00014740612174BE9F50A7021850C82850DE0
:1030D00083E0701F85088285098312300212047E06
:1030E0008011750A0E8009750A018004E50A6003E3
:1030F000123367850C82850D83E0600479008002BD
:10310000A90A740212174B7F0C02185E851882857B
:10311000198312300612080222123362FD850882DA
:103120008509831230062274EE12178C74FE121772
:10313000358A088B098C0C8D0DEA2405FEEB3400D2
:10314000FF750E00123244EA450B700302320B1277
:10315000322D502C12310C8A0E8B0FEA450F604A2B
:103160007912AC0AAD0B850882850983123002857D
:103170000E82850F8312178AE9F50E600302320E64
:10318000850882850983123449AA0AFB12321F700E
:10319000147AFF7BFF12321F606C88828983E50AF4
:1031A000F0A3E50BF0750A008007750E0E805F0531
:1031B0000A9002E5E0FAE50AC39A504AE50A75F07A
:1031C00017A4FAABF088828983A3A3E02AFAA3E0CC
:1031D0003BFB8A828B8312335DEC4D70D2750A17EC
:1031E000750B00780A12199FEEFCEFFD1210307477
:1031F0000212174BEEFCEFFD850882850983123021
:10320000021204848014750E098003750E01123BAE
:103210008F850C82850D83123374A90E022DAE1298
:1032200007F68A108B11A810A911E84922E5082495
:1032300002F508E5093400F5098A828B83A3A3A36C
:10324000E0A2E522851882851983AC82AD838E8247
:103250008F8312325A8A0A8B0B22E0FAA3E0FB1208
:1032600006F422740412174B7F0A02185E74EC12E3
:10327000178C8C108D11EA2405F50CEB1238727541
:103280000F00EA2402F50AEB123357850A82F58310
:10329000123002123DA17003023349750E00807195
:1032A000850C82850D83E06401704F8E828F83A32D
:1032B000A31219B68E828F83A3A3A3A3E0F5127580
:1032C0001300781212199FEE2405F512EF3400F561
:1032D00013781212199F122FFC1208147406121779
:1032E0004BE9F50F6014850C82850D83E4F0123BE9
:1032F0008F8510828511831233747C177D007900CD
:10330000EEFAEFFB1210488E828F83E4F0A3F005F3
:103310000E9002E5E0F8E50EC398501EE50E75F03C
:1033200017A4F8A9F0850882850983A3A3123D0795
:1033300012335DEC4D60030232A08508828509835B
:1033400074FFF0A3F0E50F7006122FFC12048AA997
:103350000F023107F50AEF3400F50B22A312336296
:10336000FD22E0FCA3E0228E828F83123B97850E24
:1033700082850F83E8F0A3E9F022C082C083900227
:10338000E1E06A7003A3E06B70067AE17B028004DF
:103390007A007B000226BC74F712178C7F00EF7551
:1033A000F003A4F8A9F0EC28F8ED39F988828983B4
:1033B000E06A7003A3E06B7006E8FAE9FB800B0F8C
:1033C000EFC3940240D87A007B007F0102185E743C
:1033D000F612178C12398070067A007B008007A3E2
:1033E000A3A3A3123002023A4174F212178CE9FE31
:1033F000740E12178012344974101217801238B1EB
:103400008C828D83E06402703BA3123B9388828997
:1034100083E0F50CA3E0F9A80C740268700374292A
:10342000697021750C02750D00780C12199F7808CF
:1034300012199F780A12199FEEF9120838740612B1
:10344000174B80027901023AB1E0F50AA3E0F50BCF
:103450002274E812178C74FB121735E985188285DF
:103460001983F08A168B178C0E8D0F741F1217801C
:103470001238B17421121780123449742312178044
:1034800012389B7510008C828D83A3A3A3E0A2E465
:10349000502A741D1217801231128A828B83E582A2
:1034A0004583700302355D790AAC0EAD0FAA16ABE9
:1034B0001712178AE9F5106003023560850E8285C0
:1034C0000F83E064026003023816A3123B93850861
:1034D00082850983A3858212858313E50E2406F570
:1034E0000CE50F12387288828983E0FAA3E0F9EACA
:1034F0002400F514E439F5157814121A2901000096
:10350000280128253507000228FC3503286C3500E2
:1035100029263701294E370229F536032926370493
:1035200029B7371638EE4F703E850C82850D831211
:10353000388CFAE9FB8A828B83E0850A82850B83CB
:103540001238C812199F8A828B83A3123362FDAA94
:1035500008AB09121030740212174B800375100E5D
:10356000A9107405023CF575100B80F4EE4F70F74E
:10357000850A82850B837401F01238A18508828543
:103580000983F07C007D00850E82850F83A3A3A3B1
:10359000A3E02401FAA3E03400FB1206F4EA4B6036
:1035A000418A828B83E02402F8850A82850B83E0BE
:1035B00028F0EA2404F8EB3400F988828983E08556
:1035C00012828513831238DA1238C812199F8A8240
:1035D0008B8312335CE5082403FAE5093400FB020F
:1035E0003553850A82850B83E02404F07C047D003A
:1035F0007900AA12AB13121048023560EE4F600337
:103600000235671238A1FEA3E0FF850A82850B838D
:103610007404F0EE850882850983F0EF85128285B7
:103620001383F07403121780AC82AD83EEFAEFFBC4
:1036300012396E70030236D28A828B83A3A31238AA
:1036400097740112178085820E85830F780E1219E8
:103650009F74051217801219B67CFF7DFF1206FABF
:10366000740412174B8B0FEA450F7033850C82855B
:103670000D8312387712199F850C82850D83A31252
:1036800019B67C027D007A7B7B92120526740412A7
:10369000174BE9700A740112178074FFF0A3F08EC3
:1036A000828F83E064027034750C02750D00780C13
:1036B00012199F8E828F8312335CE5082404FAE589
:1036C00009122C8812174B850A82850B83E024028D
:1036D00080097401121780EEF0A3EFF07401121745
:1036E00080123888F07401121780A3123880A3A3C7
:1036F000A3F0023560EE4F6003023567850C8285CA
:103700000D8312335DAA16AB1712082C850A828529
:103710000B837402F0EA850882850983F0851282A2
:10372000851383EB80CBEE4F60030235671238A11F
:10373000F8A3E0F9850A82850B837402F0E8850816
:1037400082850983F0E985128285138380A3850C25
:1037500082850D8312300212102AEAFC8C82A88224
:10376000C39EE49F404BE86E7001EF70047C0080C4
:103770001F851882851983E0FAEE2AFAEF3400FBE0
:10378000C3EA98EB94005003E08004EECCC39CFCA9
:10379000EC850A82850B83F08C0A750B00780A127F
:1037A000199F850C82850D83E02EFCA3E03F023536
:1037B0004E751007023560EE4F6003023567850CC9
:1037C00082850D83123B93850A82850B837407F0F3
:1037D00088828983123880123868E08512828513C6
:1037E00083F0E82402FAE93400FB8A828B831238E2
:1037F000801238B9123888A31238C2123891F0E812
:103800002405F8E93400F988828983123891A312DB
:1038100038DAA30236EE741D12178012397970035C
:1038200002355D123B93880C890DE8450D7003024B
:10383000355D8E108F11781012199F780A12199F1A
:10384000780812199F7406121780E0F9AC0EAD0FBC
:10385000AA16AB17850C82850D8312178A7406127F
:10386000174BE9F510023560F088828983A322F5B1
:103870000CEF3400F50D22E0F50E750F00780E22E6
:10388000E0850882850983221238E122123B97E8FD
:10389000221238E1A3A322A3A3A3A3E0FEA3E0FF87
:1038A00022850C82850D83E0F8A3E0F5838882E011
:1038B00022E0F508A3E0F50922A3A3F08A828B8316
:1038C000A322122574A3A322F08A828B831238D1FB
:1038D00022E0F50A750B00780A221238681238E1E6
:1038E00022E0850882850983A3A32274EE12178C37
:1038F00074FE1217358A0A8B0BECFAEDFB74141266
:103900001780E0F510A3E0F5117416121780E0FEA1
:103910007418121780E0F50EA3E0F50F8518828564
:103920001983AC82AD8312396E603E851882851989
:1039300083123979602FA3A31238B1E508450960D5
:1039400024780E12199F781012199FEEF9AC0CAD65
:103950000DAA0AAB0B85088285098312178A7404A5
:1039600012174B8006790E80027901022DAE1206E5
:10397000F48A0C8B0DEA450D221230061239802292
:103980001207C08A828B83E58245832274F6121760
:103990008C74FE121735740C12178012388C85182F
:1039A00082851983F07401121780E9F0E4F508F5B7
:1039B00009780812199F750802780812199F740473
:1039C000121780858208858309780812199F1208CA
:1039D00014740612174B740212174B806474F7129A
:1039E000178CEAFEEBFF89087C187D0312082CEA8D
:1039F0005402600BA908EEFAEFFB1206E880027988
:103A0000010233CA74F612178C74FF6A700374FFD4
:103A10006B701C7B00EB75F003A4F8A9F0EC28F8A0
:103A2000ED39F9123A460BEBC39402501480E612BA
:103A300007FC8A088B09A808A909E8496003123A1B
:103A4000467F0202185E8882898374FF122572E421
:103A5000F02274F612178C1207FC8A828B83E5829F
:103A600045836006A3A3E0FA80027A007B0080D140
:103A700074F212178C8A088B09ECFEEDFF740E129B
:103A80001780E0F50A123AB6701CEEFCEFFD7AFFE3
:103A90007BFF123AB670047911801688828983E51B
:103AA00008F0A3E509F088828983A3A3E50AF079E9
:103AB000007F0602185E1207FC8A0C8B0DA80CA969
:103AC0000DE8492274EE12178CEAFEEBFF8C088D8C
:103AD00009890C7412121780123B93741412178008
:103AE00012335D7416121780123002750D00EC4D02
:103AF0006003023B877402650C6003023B8288828C
:103B00008983123362F9EC2400F50EE439F50FEAEB
:103B1000F4F8EBF4F9EC58F8E50F59F9E849705D61
:103B2000E5082406F8E5093400F9880A890B88823B
:103B3000F583122C9712082C8A108B11E50E651054
:103B40007004E50F65116042780E12199F850A8294
:103B5000850B83122C97120832740212174BE9F569
:103B60000D7027780E12199F850882850983A3A3FB
:103B7000122C9512084A740212174B800D750D8095
:103B80008008750D0D8003750D0BA90D0232688E2E
:103B9000828F83123B9722E0F8A3E0F92274E812A7
:103BA000178C74E7121735851882851983EAF0A3FC
:103BB000EBF08C168D17890E7431121780E0F51218
:103BC000A3E0F5137433121780E0F514A3E0F515A4
:103BD0007435121780E0F50F750800750900E509C6
:103BE00075F003A4F8A9F0851882851983123D07A2
:103BF000E0F47003A3E0F47003023CE5EE2402F568
:103C00000CEF123CFDE07003023CE585160A8517B7
:103C10000B780A12199FAC14AD15AA12AB13120738
:103C2000B4740212174B8A0A8B0BEA450B7003021D
:103C30003CE5E4F510F511781012199F740612177F
:103C400080858210858311781012199F74091217CC
:103C500080858210858311781012199F85128285C4
:103C60001383A3A3A3A31219B67914AC0AAD0B8EC8
:103C7000828F83123D1B12174BE97069850A82857A
:103C80000B83A3A3A3A3123B9374021217801233D6
:103C900074850C82850D83E0A2E05018A90E740291
:103CA000121780AC82AD838E828F8312300212078E
:103CB0000CE94208850C82850D83E0A2E15026E5DF
:103CC0000FF50A780A1219A3A90E7403121780AC13
:103CD00082AD838E828F8312300212070674011226
:103CE000174BE942080509E509C394025003023B5A
:103CF000DEA908741912174B7F1002185E3400F504
:103D00000D850C82F58322E028FEA3E039FF8E8228
:103D10008F83227916850A82850B8312300612085A
:103D20000E74082274F212178CEAFEEBFF890B74F2
:103D300001650B600E7402650B70637901120A2A2B
:103D4000E9705BEEFAEFFB123DA16047750A008057
:103D50000B7C177D007900121048050A9002E5E0FF
:103D6000F8E50AC3985021E50A75F017A4F8A9F000
:103D7000850882850983A3A3E028FAA3E039FB8A9A
:103D8000828B831226C370C985088285098374FFDC
:103D9000F0A3F07C187D03EEFAEFFB120826023A3E
:103DA000B11207F68A088B09EA45092274F2121744
:103DB0008C8A088B09ECFEEDFF740E12178012340A
:103DC000499009E6E0F4603D7A097B0012105AEA56
:103DD0004B60328A828B8374B1F0A3E41238BBA3A8
:103DE0001238B9A3E508F0A3E509123E08EEF0A3E6
:103DF000EF123E08A3A3E50AF0A3E50BF09009E655
:103E0000E0F9121066023AB1F08A828B83A3A3A371
:103E1000A3A322C082C0839061907404F0A374486D
:103E2000F0A3E4F09061807440F09061BC7407F0FE
:103E30009061877469F09061B67416F07900120B86
:103E4000207902120B26902430E493F46006E49368
:103E5000F9120AFC7905120E1402421EC082C083B8
:103E6000E9540FF9906185E0696012E5C654804419
:103E700049F5C6E59E547F644970F8E9F053C68061
:103E8000E59E547F70FA02421E74F712178CE5A863
:103E9000FE53A87E120B08C2BA539AFEC289759BC4
:103EA00000C2C2120B0E75A91175B905120B14D2FE
:103EB000BA439A0174805E42A80247ACC082C083B4
:103EC000906181E4F0A302421B75E90075910075D1
:103ED000BF00020135C082C083906181E4F0A37409
:103EE000C0F0A3E402421DC082C08374F8121735EB
:103EF0009003C412468EE8497003023F9E9003C4AB
:103F0000E0544060237908851882851983AA82AB22
:103F100083120C10851882851983AA82AB8312083C
:103F2000BC9003C4E054BFF0E054806010790C7A78
:103F30007D7B05120C109003C4E0547FF0E0A2E0FA
:103F400050087900123FA654FEF0E0540260087950
:103F500001123FA654FDF0E0540460087900123FBE
:103F6000B154FBF0E0540860087901123FB154F7F6
:103F7000F0E0541060087902123FB154EFF0E054C1
:103F80002060087903123FB154DFF0A3E0540160D0
:103F90000D120B321208CE9003C5E054FEF07408E7
:103FA00012174B02421E120B201208C29003C4E0EB
:103FB00022120B261208C89003C4E022C082C083DC
:103FC000E9600514602A804F90619A7433F0A374FD
:103FD00055F09061A0743AF0900559E064017009C1
:103FE000C2919003C67467802D9003C674618026C9
:103FF00090619A743FF0A3745AF09061A0747FF0BE
:10400000900559E064017009D2919003C6747180E3
:10401000059003C6746AF002421EC082C083E96044
:104020000B14600D14600F146011802090243480F4
:10403000159024358010902436800B900559E0644B
:104040000160F3902437E493906186F002421E747D
:10405000EE12178C74F4121735851882851983AC0B
:1040600082AD83758392758203740412164890247E
:104070003493F460030241E1907808E0C394025065
:10408000030241C17404121780AC82AD8375839121
:104090007582717408121648F97AFF7BFF7FFF7EE4
:1040A000008982858210801874086E700302417640
:1040B00074096E7003024176740A6E7003024176D1
:1040C000E510C333FCE433FD7404121780E5822C41
:1040D000F582E5833DF583E0F50EA3E0F50F8E084C
:1040E0007509007402780812172274482508FC74B8
:1040F000783509FD8C828D8378081216057408784E
:104100000812154685080C85090D8C828D83780868
:1041100012160574187808121546E50C4508F508BE
:10412000E50DF509C3E50E9508E50F95098C828D1F
:104130008378081216058C828D8378081216057410
:104140001878084014121546E50C4508FCAD0DE53D
:104150000EC39CFCE50F9D800F121546E50C45082B
:10416000C3950EFCE50D950FFDC3EC9AED9B500633
:10417000ECFAEDFBEEFF0EEEC3941350030240A8E1
:1041800074FF6A700374FF6B602D8F0874027808E7
:104190001217227448124E3A74783509F58378085C
:1041A000121605851882851983E5822510F582E5AA
:1041B00083124BC7E508F009E9C394045003024099
:1041C00099750801750900780812199F7402121771
:1041D00080AC82AD837A0D7B0912124074021217F3
:1041E0004B740C12174B7F0A02185EC082C083907A
:1041F000618674D5F09061AE7468F0A3746AF09033
:10420000624574FBF0A304F053F4FD43FE029005F5
:10421000597401F07900120B208003F0A3F0D083D1
:10422000D082020135C082C08375E1F190050EE0B5
:10423000604E14600814605214604A8052120B3EA3
:10424000900504E0F97A057B05120D969091F31222
:104250001623120DCC9091F7121623120DA2900581
:104260000FE0F9120DAE7901120E08900502E0245C
:10427000161243B47456F0A3740BF0790002421E78
:10428000120B4480BB120B4A80B6120B5080B179DE
:104290001280EA74F412178C75D90D9004F4E0A220
:1042A000E0E4331313F8124320484401F5D97800B1
:1042B00012439E40FB7800880874F5124E3A74044D
:1042C0001243A840F275E1959004F4E0F97AF57B89
:1042D00004120D9C900A0874D2F0A3740A1243C30E
:1042E0001243E31243DA12451B12432A78081216CE
:1042F000059091EF78081215919091FB78081215AE
:10430000DF1243AE7808121614900502E02414124E
:1043100043B47413F09003C27402F07F0402185E79
:10432000900504E0C4333354C022900502E0F8A3A2
:10433000E0F5838882A3A32274F612178C1244EC52
:104340008AD9780012439E40FB78008006124452BE
:1043500012459EE8C39940F51244DE12439E40FB8D
:1043600078008008124E36740512459EE8C39940C5
:10437000F375E195900A0874DEF0A3740A1243C342
:104380001243CD1216231243AE12162F900502E0EF
:1043900024141243B47412F09003C20247898808AF
:1043A00074052508F58274051246FA9406229005D4
:1043B00002E0240EF8A3E01243BB223400F9888205
:1043C00089832212450474D8F0A3740A221243E3AD
:1043D0001243DA12451F90923322F0A374F0F0A337
:1043E000740A221243E7221243EB22F0A3747CF0FA
:1043F000A3740C2274F612178C1244471243204403
:1044000002F5D9780012439E40FB780080061244E2
:104410005212459EE8C39940F575E195900A08123D
:10442000445DF0A312445D1243D01216231243AE32
:1044300012162F900502E024141243B47414F09065
:1044400003C2740402478B900514E0F9740729F540
:10445000D922880874152508F58274052274EA1299
:10446000446A12446AF0A3740A22F0A3740AF0A307
:1044700074EA2274F612178C1244EC74064AF5D9C9
:10448000780012439E40FB78008006124452124589
:104490009EE8C39940F51244DE12439E40FB78002B
:1044A0008008124E36740512459EE8C39940F37594
:1044B000E195900A0874E4F0A3740A1244FA1243D6
:1044C000CD1216231243AE12162F900502E02414CB
:1044D0001243B47415F09003C2740302478B900525
:1044E0003412444A74044AF5D978002212444790A1
:1044F0000504E0C4333354C0FA22124504747CF03E
:10450000A3740C2212450822124515747CF0A37482
:104510000C124515221243EBF0A32212451F22F084
:10452000900A16747CF0A3740C124508747CF0A3F6
:10453000740C1243E7F022C082C08312432AA3A363
:10454000A3A3E402421B74F712178C12507CF87478
:104550000339F9E82405FAE93400FB8A828B8312D7
:104560004DEB88828983A3A3A3A3A3A3A3A3A3EC56
:10457000F0A3EDF088828983A3A3A3A3A3A3A3E060
:1045800024FFF8A3E034FFF98A828B83E8F0A3E9E3
:10459000F00247AC8808745D2508F5827405124D59
:1045A00012F5D90822EAFEEBFF9061D0E0F87480A2
:1045B000C398FAEE2483221245BD940422124BD5EF
:1045C000E0F5D90AEAC32274F612178CEAFEEBFF73
:1045D0009061D0E0707575D90E75D90375D9047ADC
:1045E000008A08EE250812514A248C12466040F1D8
:1045F0007A008A08EE250812514A24841245B740F1
:10460000F175E1957908EE248C12465924841246FE
:10461000507C008C82AA82C3E49AF895E0F9EE28D7
:10462000F8EF39F9E8248BF582E9124D0EC0E0EE7F
:104630002A12514A24ABF582E9124BC7D0E0F00CA4
:10464000ECC3940840CD1247168002790002478CD3
:10465000FAEF3400FB120C04221246507904EE22C9
:104660001245BD940822C082C08375D90275D90352
:1046700075D90575E195EA2470F582EB12468BEA4F
:104680002472F582EB12472802421E124BD81246C2
:104690009222E0F8A3E0F92274F612178CEAFEEBFE
:1046A000FF90055D740612470412199F7C0179037F
:1046B000124A3012174B75D90675D9037800124685
:1046C000EA40FB75E1959003C2E064087017EE24A0
:1046D00070F582EF12468BEE2472F582EF124BC713
:1046E000E8F0A3E9F0790102478C8808745D250899
:1046F000F58274051246FA940522124BD8E0F5D9DA
:1047000008E8C322F075085D75090578082275E18F
:10471000957904120DD2EE2470F582EF124BD81267
:104720004692EE2472F582EF124BD8E8F0A3E9F03E
:1047300079012274F612178CEAFEEBFF9061D0E04B
:104740007043790190055D740BF09003C2E064073B
:10475000701775085D750905780812199F7C0109A5
:1047600009124A3012174B7905740129F5D975D908
:104770000378008003124594E8C39940F875E195E9
:104780001247168002790080037401F07F0202183C
:104790005E74F712178CEAFEEBFF75D90375D90327
:1047A00075D90DEE24DE1247B112470E7F010218B3
:1047B0005EF582EF124D12F5D9227F0302185E7466
:1047C00001250AF5D975D90378002274F512178CE2
:1047D0001248406004780480027800E8240BF8EA6C
:1047E000C3984041750A0990055D7409F079081273
:1047F0004829601475085D750905780812199F121B
:104800004A2812174B750A0D1247BF8003124594B0
:10481000E8C3950A40F775E1957904120DD2124963
:10482000A57901800279008091EE24E3FCEF340049
:10483000FD7A5E7B05120BFE850882850983E022E6
:104840001245A5F8EF124DDFF583E02274F312173D
:104850008C8A088B09124A3BFAE5082483F50AEB97
:1048600012490A6004780480027800E82408F8EA13
:10487000C3985003024903750C0690055D740CF053
:104880009003DFE090055EF07402C0E0F97CE07D0B
:10489000037A5F7B05120BFED0E0F97CE27D031208
:1048A0000BFE850A82850B83E0601C750A5D750B23
:1048B00005780A12199F7C067903AA08AB09124AE7
:1048C0003012174B750C0A7401250CF5D975D903F4
:1048D00078008009880A745D250A12459AE8C39514
:1048E0000C40F175E1957904120DD2E5082470F5BC
:1048F00082E50912468BE5082472F582E509124724
:1049000028800279007F0502185E3400F50B850AC5
:1049100082F583E02274F612178CEAFEEBFF124A4E
:104920003BFCEE2483F8EF124A3660047A048002DE
:104930007A00EA2404FAECC39A405E7A0290055D9C
:10494000EAF0EE24F5F582EF1249B1601975085DC1
:10495000750905780812199F7C027903EEFA124A4C
:104960003012174B7A0674012AF5D975D9037800ED
:104970008003124594E8C39A40F875E195EE2474DB
:1049800012499EEE248012499E1249A57904120D07
:10499000D2EE240D1247198002790002478CF5826D
:1049A000EF124B2122EE241DF582EF124B21A3F0D2
:1049B00022124D1290055EF088828983E02274F6FF
:1049C00012178C124A3BFEEA2483F8EB124A366037
:1049D000047C0480027C00EC2404FCEEC39C404375
:1049E0007C0290055D7407F0EA24F6F582EB12492B
:1049F000B1601575085D750905780812199F79036E
:104A0000124A3012174B7C0674012CF5D975D90364
:104A100078008003124594E8C39C40F875E19579CD
:104A2000018002790002478C7C097903EEFAEFFBE2
:104A3000120C707402221243BBE0229061D0E0F8A5
:104A40007480C3982274F512178CE9FEA2AFE43388
:104A5000F50AC2AF7F00EA246FF8EB3400F9800159
:104A60000F88828983E0FCEFC39C50188F08EA25E9
:104A700008FCEB3400FDEC246BF582ED124D0E6E5C
:104A800070DE8010EA2CFAEB3400FB124BC1EE1200
:104A900049B704F0E50AA2E092AF0247BA74F612F1
:104AA000178CA2AFE433FFC2AFEA246FF8EB1251C8
:104AB0004CFCE9FD8C828D83E014F07E0080218E19
:104AC00008EA2508F8EB12514C246CF582E9124DE6
:104AD0000EC0E0E8246BF582E9124BC7D0E0F00E7F
:104AE0008C828D83E0F8EEC39840D4EA246E124B9A
:104AF000C474FF124B16EFA2E092AF02478CC08243
:104B0000C083E5A8F8C2AF124BC1E9124B16E8A268
:104B1000E792AF02421EF0EA246AF582EB124B21C3
:104B200022124BD8E4F02274F212178C8C828D83FF
:104B3000A3A3A3A3E0541FF0EA2436124E838E826F
:104B40008F83E4F0F50C850C8285820AEC250AF847
:104B5000ED124DDBF583E0C0E0EA250AF8EB124BDD
:104B6000CBD0E0F0750D00850882850983E0F50A59
:104B7000750B00E50D780A121703E50AA2E0502A2A
:104B8000E50C33333354F8250DC0E08E828F83E07B
:104B9000F8EA28F8EB12514C2438F582E9124BC799
:104BA000D0E0F08E828F83E004F0050DE50DC39414
:104BB0000840B4050CE50CC39405408A7F06021832
:104BC0005EEA246BF582EB124BD8223400F9E8241C
:104BD0005D124BD522F582E93400F5832274F6127A
:104BE000178C9003ECE0640170077A007B00024DA3
:104BF000087E009003F2E070F17401F0A3E4F0A3EA
:104C0000F090045204F0900455E4F0A3F09004589E
:104C100004F09003F5E4124D1F9003FF04F090049C
:104C200025E4F09091D712162390040812162F90C5
:104C3000040CE4F0A3F0A3F0900470F0900464F08E
:104C40009004597480F0A3E4F090045FF09004574E
:104C5000F09004DB124D179004E4F0900473F09090
:104C600004C3F0A3F09091D71216239004C5121636
:104C70002F9091D71216239004C912162F9004CFAB
:104C8000E4F09004D1F09004CDF09004E7124D17B9
:104C90008E08745B124E3A7404124BC774FFF00E08
:104CA000EEC3940440EA7E008E82A88274FB28F54D
:104CB000827404124D0EC0E0744D28F58274041203
:104CC0004BC7D0E0F00EEEC3940540DC7E008E8230
:104CD000A88274D628F5827403124D0EC0E074D3F6
:104CE00028F5827404124BC7D0E0F00EEEC394088E
:104CF00040DC9003ECE004F0640170089003F4E001
:104D00009003EEF07AF07B0302478CF582EF124DB0
:104D10001222124BD8E022124D1FA3124D1F22F077
:104D2000A3F0A3F0A3F022C082C083EA2403F5829B
:104D3000EB124D0E6008E4F09003EDE014F09003E8
:104D4000ECE014F070069003EE74FFF08A828B831F
:104D5000A3A3E4F0900500E0700D9003EDE0640182
:104D600070057900120DB402421EC082C083900308
:104D7000F3E4F09003F2F09003ECF0A3F0A374FFDF
:104D8000F075E1F102421EC082C083780079009084
:104D900003F3E0600478F0790388828983A3A3A3F6
:104DA000A3E0F902421E74F612178CEAFEEBFF1222
:104DB0000BB6EE2465F8EF124DDB124DE9EC4D60B9
:104DC000109003EE125074850882850983E4F0A3E5
:104DD000F0EEFAEFFB120CA602478C124DDF2234E4
:104DE00000F988088909888222F583E0FCA3E0FDA8
:104DF0002274F712178CEAFEEBFF8E828F83A3A337
:104E0000A3A3E0FA7B00120934EEFAEFFB120BC801
:104E1000120C880247AC74F612178C78008808745C
:104E2000D6124E3A74031249A108E8C3940840ED23
:104E30009003D6024789880874352508F5822274C4
:104E4000F612178CEA240D124E83EC2403F8ED348D
:104E500000F988088909EC2407F8ED12514CFCE9A7
:104E6000FD124E8D1216AA8E828F83E8F0A3E9F010
:104E7000124E8D1216AA8B09EA45096003124EA044
:104E800002478CF8EB3400F9E8FEE9FF228C828DB2
:104E900083124692850882850983E0FAA3E0FB220B
:104EA0008E828F83E02401F0A3E03400F02274F6B8
:104EB00012178CEA242EF582EB3400124DE9EA2415
:104EC00070124E83780079FAECFAEDFB1216AA8E76
:104ED000828F83E8F0A3E9F0780079FAECFAEDFB31
:104EE0001216AA8B09EA45096003124EA002478CEC
:104EF00074F012178CEAFEEBFF741012178078081A
:104F0000121605120D608A0C8B0D8C0E8D0F90926F
:104F10002B780C1215919091FB780C1215DF780C00
:104F200012199B8E828F8312432D12162312215C3D
:104F3000740412174BE96003024FD88E828F83E00E
:104F40002402F8A3E012514CFAE9FB8A828B8378A1
:104F5000081215A49091FB78081216058A828B839B
:104F600078081215F2EE240BF582EF124BC7C082BF
:104F7000C0838E828F83A3A3A3A3A3E02401F8A3FD
:104F8000E03400F9D083D082E0687003A3E0697058
:104F90000479018045EE2407F8EF1243BB124EA4BA
:104FA000EE24741251517014EE2475124FDF700309
:104FB000A3E06D70078A828B83124EA4EE248012C8
:104FC00051517014EE2481124FDF7003A3E06D7015
:104FD000078A828B83124EA479007F0802185EFA3A
:104FE000EF3400FB8A828B83E0FCA3E0FD8882899A
:104FF00083E06C2274F312178C12507CFE74033918
:10500000FFEE2404F50AEF3400F50BEE2465F508F5
:10501000EF3400F5098010124DEB85088285098375
:10502000E4F0A3F012506E850882850983124DEBDF
:10503000EC4D6030EE2464124D0BF50C780C121917
:10504000A3EE2463124D0BF9EEFAEFFB120BF27490
:105050000112174BE985088285098360BA12468ED2
:10506000E84970077C007D0012506E024905850AF0
:1050700082850B83E0FA7B001208F2229003EEE0B7
:10508000F875F004A4C8AAF02AF974F0282274F282
:1050900012178CEAFEEBFF890A740E121780E0FAF1
:1050A000EE24621251516003025145124A3BF50C45
:1050B000EE2483124D0BFB60047804800278008993
:1050C00008E928F8E412514C24020808E93400F9F0
:1050D000E50C98E499A2D265D0334065EA70057575
:1050E0000B028003750B01EB603375090078081221
:1050F000199F7A5D7B05120C3A740212174B7508E2
:105100005D750905780812199FAC0AA90B124A2C83
:1051100012174B7404250AF50A7C5D7D0574012580
:105120000AF5D9850BD97800800A8808EC124E3A26
:10513000ED12459EE8C3950A40F075E1957900802F
:10514000067907800279FF024BBCF8EF3400F9E8DA
:1051500022F582EF124D12640122C082C0838003C7
:10516000125188E9F874FF28190470F4ECFAEDFB89
:1051700002421EC082C0838003125188E9F874FF86
:1051800028190470F402421E8C828D83E08A828B7F
:1051900083F08C828D83A3AC82AD838A828B83A3C0
:1051A000AA82AB832274F412178CE9FF7E008A086E
:1051B0008B0978081219E300040D4253D851F451B9
:1051C00009521E523352485264527D528F52BD5280
:1051D000CC52E8520453225374016F70128C828DAA
:1051E00083E0C394035008E0900AD2F00253607E3B
:1051F0001802536074026F70F68C828D83125A828B
:10520000900AD3E8F0A3E980E274016F70E18C8228
:105210008D83E0C3940250D7E090077E80CD740167
:105220006F70CC8C828D83E0C3940550C2E09007F0
:105230007F80B874016F70B78C828D83E0C3940255
:1052400050ADE090078080A374106F70A2750810B5
:105250008E09780812199F7A817B07125E4D12170A
:105260004B02536074016F70868C828D83E0C3940F
:105270000240030251EFE09007910251EB74016F7D
:1052800060030251EF8C828D83E0900AD6808D748A
:10529000046F60030251EF90922F78081216058D6B
:1052A000838C82780812142740030251EF8C828D80
:1052B0008312162390079312162F025360EF600398
:1052C0000251EF1211C81211BC02536074016F60D9
:1052D000030251EF8C828D83E0C39402400302519C
:1052E000EFE09007920251EB74016F60030251EFFF
:1052F0008C828D83E0C3940A40030251EFE0900A50
:10530000D50251EB74016F60030251EF8C828D83E3
:10531000E024F9C3940A40030251EFE0900AD70257
:1053200051EB74016F60030251EF900825E0F88C97
:10533000828D83E0900825F0E87025E064017020FC
:105340008084C3EA9424EB9400501374026F700EAF
:105350008C828D83125A8D120532E9FE80020E0E68
:10536000EEF902536A740E12174B7F0402185E7432
:10537000F012178C74CC1217358C0A8D0B744412F2
:105380001780E0FE7420121780AC82AD8375839184
:1053900075829274061216487420121780AC82AD82
:1053A0008312116EE9F508C3940A40030254C775CD
:1053B000F006E9A4F5097426121780AC82AD837A51
:1053C0000E74201255137432121780E0FF900AD227
:1053D000E06402700474018001E4F50D780D121987
:1053E000A3EEFDEFFCA908AA0AAB0B1211F274019F
:1053F00012174B7C147D007900740C121780AA825E
:10540000AB83121048740C121780AC82AD837A10F3
:105410007424125513E970347C1079FF740C121740
:105420008012550A7026741C121780AC82AD837AE4
:10543000047425125513740C121780AC82AD83EFDF
:10544000A2E0E433F9AA0AAB0B1205BC85188285E9
:105450001983AC82AD837A0C74702508125B2A70B4
:1054600055851882851983AA82AB8312119E75080F
:1054700000E50875F003A4F8A9F085188285198362
:10548000E58228F8E583125C6E125A8DEC4D601DA2
:1054900088828983A3A3E0F50E750F00780E121998
:1054A0009FAA0AAB0B12081A740212174B0508E5E3
:1054B00008C3940440BBEFA2E1500C90077DE0F9D3
:1054C000AA0AAB0B12082074046E702A900AD2E06C
:1054D00064027022900791E060047A0180027A00F1
:1054E00090077EE06004780480027800E84AF9AA18
:1054F0000AAB0B12067C7900743412174B7F08023A
:10550000185E79FF851882851983AA82AB831210F1
:10551000AEE9222509F912136C2274F012178CEAF5
:10552000FEEBFF8C088D09750A0AE9600C1460090E
:1055300014602E14607F0255C01211B0E9F50AC341
:10554000940A507CE50845096076750E06750F00D3
:10555000780E12199FEEFCEFFD125E4912174B8078
:105560005F750B00750E06750F00780E12199FEE11
:10557000FCEFFDE50B75F00EA4F8A9F0749F28FA76
:10558000740739FB121042740212174BE9601B8535
:105590000B0AE50AC3940A5027E50845096021AAC9
:1055A00008AB09A90A1211AA8016050BE50BC394D2
:1055B0000A500D80AF1211B6E9F50AC3940A40D91A
:1055C000A90A0254FD74F412178C89087509157420
:1055D000FF6A700374FF6B70277E00AC087A027B51
:1055E00000EEF912118CE960037509000EEEC39408
:1055F0000A40E8E50860497AE07B11120A3C8040E5
:10560000120A1E8A0A8B0BAE0AAF0BEE4F602E7C7D
:10561000007D00EE2405FAEF3400FB8E828F8312AA
:1056200056C0500CAC087A027B0012118C75090030
:10563000E508600CEEFAEFFB1211E0800375091427
:10564000A90902536A74F212178CECFEEDFF740E76
:10565000121780E0F50AA3E0F50B75081574FF6AD0
:10566000700374FF6B7021750900AC0AAD0BEEFA84
:10567000EFFBA909121192E960037508000509E51D
:1056800009C3940A503580E2120A1E8A828B83E590
:1056900082458360237C007D00E5822405FAE58352
:1056A0003400FB1256C05013AC0AAD0BEEFAEFFB00
:1056B0001211927508008003750814A908025C365F
:1056C000A3A3A3A3E0F912116EE9C3940A22C08236
:1056D000C083900797EAF0A3EBF090077DE0FC7D94
:1056E000007A237B0012053290077DE0F9120796BD
:1056F000D083D08202013574EA12178C74EC121731
:10570000358A088B09EA240CF514EB3400F515EA08
:10571000240AF510EB3400F511EA2405F50EEB34FC
:1057200000F50FEA2409F50AEB3400F50BEA24032F
:10573000FEEB3400FF8A828B83A3A3E024FA70037C
:10574000025A5524FD70030259851470030257E074
:1057500014601024FD70030259511470030259B8EB
:10576000025A5E125AA5604AE0F5838882125A8274
:10577000880C890DE8450D6039851482851583E014
:10578000F50E780E1219A3EA240BF582EB3400F51E
:1057900083E0F9850A82850B83125A8D0A0A0AEF83
:1057A000FB850C82850D8312178A740112174B0238
:1057B0005A5E850A82850B831219B69007931216DA
:1057C000231205CE740212174BE97003025A5E7958
:1057D00001850A82850B8312614B1205C8025A5E4D
:1057E0008A828B83A3858212858313E0600302592A
:1057F00029850E82850F83E0A2E040030259297CAF
:105800000E7D007900851882851983AA82AB8312E8
:105810001048E5082408F50AE5093400F50B850A67
:1058200082F583125AA86019750C06750D00780C64
:1058300012199F850A82850B83E02410FCA3E08067
:105840001A125A75EA4B7003025A5E750C06750DF2
:1058500000780C12199FEA2405FCEB3400FD740259
:10586000121780AA82AB83125E4D12174B850E82EF
:10587000850F83E0A2E25004D2F08002C2F0A2F0D1
:10588000E433F8740C121780E048F085108285111B
:1058900083125AA86015851082851183E02410F8C0
:1058A000A3E03400F9888289838003909233780CD6
:1058B000121605851082851183125AA8600F851073
:1058C00082851183E0F510A3E0F5118006751000C4
:1058D000751100850A82850B83125AA8600F850A0C
:1058E00082850B83E0F50AA3E0F50B8006750A00BC
:1058F000750B00780C12199B781012199F780A12F8
:10590000199F8514828515831219B6850882850929
:1059100083A3125A88740A121780AA82AB831211C9
:10592000A4740A12174B125A68125AA57003025A2D
:105930005E125A937003025A5E851282851383E0C9
:10594000FC7901126147888285098312178A025AFD
:105950005E125A68125AA57003025A5EE0F58388F7
:1059600082A3A3125A82890BE8450B7003025A5E88
:10597000850882850983A3E0FC7902126147888249
:10598000850B8380C67C007D00EA2404FAEB34009A
:10599000FB8E828F83E0F912116EE9F8C3940A40FE
:1059A00003025A5EAC10AD117A0475F006E8A42427
:1059B00025F9121366025A5E900792E0600C900A75
:1059C000D5E0F98E828F830257D7900AD2E0700417
:1059D000790580EF125A758A0C8B0DA80CA90DE879
:1059E0002404F50CE93400F50D850882850983A3AC
:1059F000A3A3A3A3A3A3E0A2E05037E849605F8577
:105A00000C82850D83E0F5086028850A82850B836A
:105A1000E05410701D740E121780AC82AD83E82420
:105A200005FAE93400FBA90812116EE97004790344
:105A30008091AC0EAD0F850C82850D83E0F912616B
:105A4000471211EC125AA56015125A9360107C008F
:105A50007900025943120694E970031211BC7414C0
:105A600012174B7F0E02185E8E828F83E0FAA3E03E
:105A7000FB1211FE228E828F83E0FAA3E0FB120A52
:105A80001E22E0F8A3E0F922A3A3A3A3A3E0FCA3B2
:105A9000E0FD22E0F5838882A3A3E0F8A3E0F98982
:105AA00009E8450922900797E0F8A3E0F9E84922C0
:105AB00074F412178C74F2121735EAFE8C0B75F021
:105AC00006E9A42420F508851882851983AC82ADE7
:105AD000837A0E125B2A70407C061255027039746C
:105AE0000C121780125A82E8F509E50B6005EE42A8
:105AF000098004EEF45209850982AA82E86A7001DD
:105B0000E96011740C121780EAF0A3E4126094A902
:105B100008121366790180027900025365AC82ADE8
:105B2000837A0E75F006E9A42420F912136CE92299
:105B300074F212178C74E6121735890A8A088B09D9
