:020000040000FA
:0600000002010A021D8A44
:03002B00022007A9
:03003300021FE9C0
:03003B0002202080
:03004300021F9DFC
:03005300021E008A
:03006B00021FC3AE
:10008300021C7BE5C754F84401F5C779012200003F
:100093000080FB120086B900030200F4E4791A78A9
:1000A30002B800028004F709D8FCE4791C7802B88E
:1000B30000028004F709D8FCE4900281788B790F61
:1000C3008002F0A3D8FCD9FA90110BAA82AB8390DB
:1000D300013A78D479018015E493A3AC82AD838A85
:1000E300828B83F0A3AA82AB838C828D83D8E9D9D8
:1000F300E77582C37583C5740312011C75829175FC
:100103008300740012011C75D00075813F7518813E
:10011300751902759F00020096C09FF59FE473D086
:100123009F22D083D082C09FE493C0E0740193C028
:10013300E0740293F59F229903AB03D5039F03FF5A
:100143000000B4000028002800283075A000A0009B
:10015300A000A00000080008E001F000100010005B
:10016300100010001000100050005000500010004C
:100173001000D0070000000000000F000100050080
:10018300307507001000010081FF0000FF0202022A
:1001930094940100008194029A9401000061110279
:1001A3008A94010000B102029A94010000621102D4
:1001B3008894010000C702FFFF0100FF200294940E
:1001C3000100007B94029A9401000090110286942E
:1001D3000000000000028C94030000A403850B853B
:1001E3000B850B850B850B850B850B850B850B858C
:1001F3000B850B850B850B9B0DB90D950DFFFF0132
:10020300E803053F1002FF00FEFF120125EDBD03C9
:1002130012012503BE0312012530BE03120125601E
:10022300BE0312012577BE0312012598BE031201F6
:1002330025C9BE031201251ABF0312012531BF03CD
:1002430012012520B60312012537B60312012566D4
:10025300B6031201259FB603120125C7B603120187
:1002630025F5B6031201250CB70312012523B703A5
:1002730012012539B70312012560B7031201257353
:10028300B70312012589B703120125B1B703120180
:1002930025C89A02120125C79B02120125F19B0270
:1002A300120125469C02120125679C02120125803A
:1002B3009C02120125829C02120125A39C021201B9
:1002C30025A69D02120125639E02120125309F027D
:1002D300120125949F021201252BA0021201252E43
:1002E300A002120125B4A002120125F7A0021201F7
:1002F3002549A1021201254CA10212012583A10265
:10030300120125AAA10212012540A202120125C948
:10031300A20212012512A3021201251FA302120138
:100323002522A30212012580A30212012598A3020C
:1003330012012512A40212012515A4021201253867
:10034300A4021201253BA402120125E2A402120118
:100353002505A5021201251DA5021201254DA502A1
:100363001201255AA5021201255DA502120125C914
:10037300A502120125B7A6021201256DA7021201DB
:10038300251CB202120125F7B20212012525B30280
:10039300120125A5B302120125C5B30212012503DB
:1003A300B40212012556B402120125BEB402120191
:1003B300254FB5021201251AB60212012529B902E9
:1003C30012012595BA02120125B8BA021201253F7E
:1003D300A003120125D0A10312012521A2031201BA
:1003E3002580A2031201258EA203120125B7A203C1
:1003F3001201256CF00212012594F002120125C2AC
:10040300F002120125F9F00212012561F102120135
:1004130025AAF102120125F5F10212012533F20298
:1004230012012570F2021201259EF20212012545E6
:10043300F3021201254FF3021201255CF3021201AC
:10044300258FF30212012551F4021201255DF402F6
:1004530012012575F4021201257FF402120125FD14
:10046300F4021201254EC2031201255CC2031201DC
:100473002574C2031201258CC203120125A4C203F1
:1004830012012578D60112012516D7011201258EF6
:10049300D701120125A3D801120125DDD8011201CC
:1004A3002586D9011201255BDA01120125BFDB0183
:1004B30012012516DC011201259DDC0112012584A0
:1004C300DD01120125D1DD011201255FDE011201DB
:1004D3002583DE0112012558E00112012599E0016F
:1004E300120125BBE00112012580E101120125461D
:1004F300E2011201257BE401120125F294031201AA
:10050300250895031201252E9503120125569603FE
:10051300120125609603120125B99703120125B92B
:100523009803120125008003120125A28003120102
:1005330025D580031201251F8103120125D98203CA
:100543001201259E94011201251C95011201252CEF
:1005530095011201250F9601120125199601120129
:10056300254796011201255296011201252B970169
:100573001201258D97011201252998011201252DBC
:100583009A01120125E49B01120125609C011201CD
:10059300253D9D011201256BA00112012509A10131
:1005A30012012566A201120125D9A3011201258298
:1005B300A401120125CBA40112012502A5011201F8
:1005C30025A7A50112012525A601120125F8B801C9
:1005D3001201254DB90112012592BA01120125A27A
:1005E300BA01120125C5BA0112012510BB0112017E
:1005F30025B5BB01120125ABBC0112012575BD0157
:10060300120125EDBE011201252FBF01120125CDD7
:10061300BF01120125F3BF01120125E1C10112013E
:1006230025E6C101120125C7C3011201251BC4011F
:100633001201257DC401120125A5C401120125491A
:10064300C5011201250BC6011201253CC601120189
:10065300253FC60112012587C601120125C9C6011E
:1006630012012530C70112012517B0031201252AF3
:10067300B00312012533B0031201254CB00312015C
:100683002597B00312012572B10312012501B203AC
:100693001201254CB203120125942000120125A456
:1006A30020001201250721001201254C210012010F
:1006B30025FC2100120125D52200120125FE22006E
:1006C3001201252E23001201254225001201251EA9
:1006D3002700120125FE2800120125362A001201E7
:1006E30025AF2C001201259B2D00120125E12E00C0
:1006F300120125EE2F00120125303000120125686A
:100703003000120125823000120125EA3000120167
:10071300258435001201252536001201257936007E
:10072300120125A03600120125DE3600120125FD37
:1007330036001201255137001201255938001201E4
:1007430025E238001201252B7A00120125357A00A3
:10075300120125D17A001201259C7B00120125BBD1
:100763007B00120125E17B00120125207C00120190
:1007730025587C00120125817C00120125BB7C00D9
:10078300120125D07C001201259D7D00120125C098
:100793007D00120125E27D00120125F77D00120183
:1007A30025817E00120125BB7E001201252F7F00CB
:1007B300120125787F00120125A27F00120125C7AF
:1007C3007F00120125069103120125D09103120126
:1007D30025B392031201252993031201256B930379
:1007E3001201259894031201250080021201252984
:1007F3008002120125428002120125878102120123
:1008030025658202120125848202120125118302C9
:100813001201255483021201258C8402120125F84A
:100823008402120125EE86021201257C890212013F
:10083300250F8A02120125E38A02120125868B0203
:10084300120125998C021201252F8D0212012548D0
:10085300BF03120125B1BF0312012505C003120115
:100863002534C0031201257C8403120125E9840386
:10087300120125348503120125298603120125253A
:1008830087031201250F8803120125E7DC021201F9
:10089300252EDD0212012507DE0212012502DF02E9
:1008A300120125E1DF021201254DE0021201256943
:1008B300E102120125D0E102120125D3E102120166
:1008C30025FEE1021201256FE20212012512E30265
:1008D30012012527E3021201256FE3021201258885
:1008E300E3021201258BE302120125CFA3031201B8
:1008F300250BA40312012549A40312012513A50303
:1009030012012586A503120125C1A503120125FFA6
:10091300A5031201252FA60312012556A6031201D2
:1009230025C1A60312012503A7031201251F660093
:10093300120125E1670012012579690012012520C2
:100943006A00120125676A00120125AB6A001201D1
:1009530025BD6A00120125FD6A001201252C6B00DA
:10096300120125776B00120125B76B00120125E5F3
:100973006B00120125366C00120125C36C001201B5
:10098300250C6E00120125006F00120125B57000C1
:10099300120125587500120125A17500120125E8E1
:1009A3007500120125FE770012012571AD031201B6
:1009B30025E3AD0312012539AE031201257DAE03F4
:1009C3001201259DAE03120125EAAE031201253261
:1009D300AF0312012585AF03120125D6AF03120120
:1009E30025493900120125923900120125BF39002A
:1009F300120125F23900120125023A001201250ED7
:100A03003A001201251F3A00120125F43A0012019F
:100A130025523B00120125873B00120125233D008F
:100A2300120125753D00120125C33D001201251F4A
:100A33003E001201251B3F00120125A140001201B7
:100A430025784100120125884100120125A44100A7
:100A5300120125A741001201256142001201252A36
:100A63004300120125D043001201252F4400120137
:100A730025B744001201251C4500120125AB450092
:100A83001201257446001201251147001201259811
:100A93004700120125EF47001201255048001201BB
:100AA300258A4800120125384900120125304B00E0
:100AB300120125804B00120125C34B00120125387A
:100AC3004C00120125C44C001201250F4D001201E8
:100AD30025344D00120125854D00120125A74D0037
:100AE300120125EC4D001201255B4E001201259DDC
:100AF3004E001201259D4F001201252550001201C1
:100B030025F650001201250F5100120125F0BB02FA
:100B130012012543BC021201254FBC0212012524F8
:100B2300BD021201254BBD0212012586BD02120131
:100B330025F2BD0212012526BE021201255FBE0267
:100B430012012577BE02120125D0BE02120125E94A
:100B5300BE0212012532BF0212012545BF02120156
:100B6300255FBF0212012575BF0212012591C00244
:100B7300120125A2C102120125EFC202120125D4DE
:100B8300C302120125EF7F001201258FFA02120121
:100B93002501FE0212012519FF02120125A68D026D
:100BA3001201259993021201259F93021201251F19
:100BB30096021201258EF50212012539F602120161
:100BC30025E9F6021201250EF70212012505F902A5
:100BD30012012558FA02120125D9A6011201250D89
:100BE300A70112012561AF01120125ADB001120168
:100BF30025CAB10112012554B30112012536B401EE
:100C030012012570B40112012593B401120125D5F7
:100C1300B4011201251FB50112012529B5011201E5
:100C230025D5B501120125A9B601120125FDB6018D
:100C33001201255FB701120125B2B701120125E1A7
:100C4300B70112012520B8011201254BA703120198
:100C530025C1A703120125D7A70312012514A80351
:100C63001201254CA803120125C9A803120125046A
:100C7300A9031201257FA903120125BBA9031201B0
:100C830025C4A903120125D0A903120125EAA9034A
:100C93001201250FAA0312012525AA0312012569B2
:100CA300AA03120125AFE302120125C2E3021201D6
:100CB30025DCE30212012505E40212012548E402C2
:100CC30012012587E402120125C5E4021201252A37
:100CD300E5021201253FE50212012556E502120144
:100CE3002564E50212012573E50212012588E50258
:100CF3001201259DE502120125A8E502120125B482
:100D0300E502120125C1E502120125D4E502120113
:100D130025DFE50212012504E602120125ADE602F4
:100D2300120125C2E602120125D7E602120125F1BE
:100D3300E6021201250CE70212012529E70212013E
:100D43002534E702120125F0E702120125DCE8024F
:100D530012012501E9021201250BE9021201251FE7
:100D6300E9021201253EE9021201259FE90212015F
:100D730025A5E902120125ABE902120125B1E90219
:100D8300120125BDE902120125F0E902120125E550
:100D9300A70212012511A802120125F5A8021201CA
:100DA300258FAB02120125A5AC02120125C2AD02AB
:100DB30012012565AE021201250BAF02120125684F
:100DC300F201120125EAF20112012593F301120146
:100DD30025DBF401120125E9F601120125CFF70104
:100DE30012012504F80112012526F801120125CF6D
:100DF300F8011201259FFA01120125C8FA01120117
:100E03002540FB0112012572FB011201257FFB0125
:100E1300120125CAFB01120125EEFB011201253F38
:100E2300FE0112012549FF01120125A5FF0112014F
:100E330025FAC7011201250BC901120125EFC901CA
:100E4300120125F9C9011201251BCA011201252727
:100E5300CA01120125CBCB01120125F8CB011201E6
:100E6300250ECD0112012563CD01120125B2CE015C
:100E730012012587CF01120125E3CF011201254E6F
:100E8300D00112012583D001120125C6D001120120
:100E93002590D301120125A8D30112012539D401CC
:100EA30012012547D40112012594D401120125A270
:100EB300D4011201250ED50112012589D501120194
:100EC30025E0D50112012567B4031201258CB40373
:100ED30012012502B503120125F8D50212012501DD
:100EE300D6021201250AD602120125E2D602120108
:100EF3002593D802120125C3D802120125EED80288
:100F03001201251ED90212012549D9021201257D9C
:100F1300D902120125A9D902120125ECD902120125
:100F23002517DA021201255EDA02120125B3DA026D
:100F3300120125F5DA021201254FDB021201257A8F
:100F4300DB02120125C9DB02120125F9DB021201C2
:100F53002524DC0212012547DC0212012564FF026D
:100F630012012590FF02120125BDFF02120125C7C0
:100F7300FF02120125D7FF02120125C7CD0212017C
:100F830025D1CD0212012512CE021201255BCE021C
:100F930012012595CE02120125EBCE021201250C7A
:100FA300CF02120125BBD102120125C4D1021201C5
:100FB3002518D20212012541D2021201254BD20279
:100FC300120125B9D20212012549D302120125A427
:100FD300D302120125D2D3021201255AD4021201DF
:100FE3002599D402120125CED402120125E0D402A0
:100FF300120125FFD40212012508D502120125CAC8
:10100300D50212012557C10312012576B20312013D
:1010130025ACB203120125E0B2031201252DB4035E
:10102300120125FAC40312012510C5031201251A62
:10103300C503120125D18803120125E48803120197
:1010430025A88903120125E78903120125048A03D0
:101053001201253D8A031201258A8A03120125BC48
:101063008A03120125F38A03120125068D03120157
:101073002564C5031201255BB9031201257EB9035B
:10108300120125ADB90312012545BA031201255DED
:10109300BA031201259FBA03120125E8BA0312010C
:1010A30025F6BA0312012567BB03120125C0BB0352
:1010B300120125DEBB031201256DEA02120125AFE1
:1010C300EA021201252FEB0212012542EB02120163
:1010D3002597EB02120125EBEB0212012530EC02FE
:1010E3001201253FEC02120125EEEC021201254903
:1010F300ED0212012598ED02120125F2ED02120113
:1011030025FFEE02120125F7EF0212012534F0024A
:101113001201258BC4031201254151001201253F01
:101123005300120125DC54001201258955001201D8
:10113300250956001201258B5600120125B45600CD
:101143001201250657001201253F5B00120125B647
:101153005B00120125CD5C00120125075D00120121
:1011630025485D001201258F5E00120125BE5E0039
:10117300120125145F001201255D5F00120125C9CC
:101183005F001201253D60001201256B6000120112
:10119300258360001201259C6100120125AC6100CA
:1011A3001201256763001201257E6300120125B039
:1011B30063001201254D6500120125E1650012014E
:1011C300253DC3031201254EC30312012516C60391
:1011D30012012555C603120125EAC603120125EEA5
:1011E300C303120125FEC30312012519C40312010F
:1011F3002581C40312012555C003120125DAC0035A
:101203001201253EC10312012568BC031201259179
:10121300BC03120125FCBC031201254DBD031201C1
:1012230025A8BD03120125138D03120125408D034B
:10123300120125B28D03120125C78D03120125E882
:101243008E031201256B8F03120125E48F03120114
:1012530025039003120125269003120125639003B1
:101263001201257B9003120125D190031201258ED3
:101273009C03120125A59C031201251F9D03120146
:1012830025039E03120125DA9F03120125C3980348
:10129300120125539903120125DC990312012578C4
:1012A3009A03120125099B03120125B99B0312011D
:1012B30025C79B03120125459C03120125589C0356
:1012C3001201256E9C03120125789C031201258BC4
:1012D3009C03120125C3B70312012515B80312019C
:1012E3002588B803120125F5B80312012599AA032D
:1012F300120125C3AA0312012592AB031201256E25
:10130300AC03120125FFAC0312012591C5021201A2
:10131300255DC6021201259EC602120125D8C6020A
:1013230012012536C7021201258AC702120125E8D8
:10133300C7021201257EC80212012586C9021201C5
:101343002510CB02120125AECB0212012515CC02CA
:1013530012012528CC021201251CCD02120125659C
:10136300CD021201258AE401120125A2E501120131
:10137300257FE6011201255EE80112012536E90108
:101383001201257CE9011201252AEC011201257ABB
:10139300EC0112012518ED011201254AEE0112019B
:1013A30025F0EE0112012577EF01120125CEEF01A1
:1013B30012012507F00112012595C6031201255FCD
:1013C300C603120125C2C603120125E1FF02E0662E
:1013D300701008A3E066700A08A3E066700408A30F
:1013E300E06622C3E7960809E7960809E796080925
:1013F300E79622C3E09608A3E09608A3E09608A325
:10140300E09622C008C3E096F50808A3E0964208D8
:1014130008A3E096420808A3E09645087001D3D0DC
:101423000822080808EAC0E0EBC0E086F0E7A4FA67
:10143300180986F0E7A42AFA180986F0E7A42AFA1D
:10144300180986F0E7A42AFA1986F0E7A4FBE5F069
:101453002AFA190886F0E7A42BFBE5F03AFA1908F3
:1014630086F0E7A42BFBE5F03AFA18180986F0E7B3
:10147300A4C5F02BFBE43AFA1908E7C5F0C6A42685
:10148300F6E5F03BFBE43AFA1886F0E7A4F6E5F05C
:101493000826F6E43B08F6E43A08F6D0E0FBD0E091
:1014A300FA22E4CFC0E0E4CEC0E0E4CDC0E0E4CC77
:1014B300C0E075F020C3E633F608E633F608E633FA
:1014C300F608E633F6181818EC33FCED33FDEE336B
:1014D300FEEF33FFC3EC9709ED9709EE9709EF97FA
:1014E300191919400FFFEC97FC09ED97FD09EE97C9
:1014F300FE191906D5F0BEECF709EDF709EEF70969
:10150300EFF7191919D0E0FCD0E0FDD0E0FED0E0F0
:10151300FF226016080808C6C313C618C613C618E8
:10152300C613C618C613C6D5E0EA22700908080810
:10153300226016181818C6C333C608C633C608C6B1
:1015430033C608C633C6D5E0EA22E627F60809E61D
:1015530037F60809E637F60809E637F622E026F6F5
:1015630008A3E036F608A3E036F608A3E036F62231
:10157300E026F008A3E036F008A3E036F008A3E085
:1015830036F022C3E697F60809E697F60809E697C8
:10159300F60809E697F622C3E096F008A3E096F072
:1015A30008A3E096F008A3E096F022E657F60809B0
:1015B300E657F60809E657F60809E657F622E05615
:1015C300F608A3E056F608A3E056F608A3E056F69D
:1015D30022E056F008A3E056F008A3E056F008A373
:1015E300E056F022E066F608A3E066F608A3E0669C
:1015F300F608A3E066F622E0F608A3E0F608A3E007
:10160300F608A3E0F622E6F008A3E6F008A3E6F066
:1016130008A3E6F022E0FAA3E0FBA3E0FCA3E0FDCD
:1016230022EAF0A3EBF0A3ECF0A3EDF022CAC0E0B2
:10163300E6F0A308DAFAD0E0FA22CAC0E0E0A3C5D4
:1016430082CCC582C583CDC583F0A3C582CCC582B8
:10165300C583CDC583DAE6D0E0CA22C3E498F8E4B3
:1016630099F912169F8026C3E49AFAE49BFBE920BA
:10167300E7E912169FE498F8E499F922C3E498F88D
:10168300E499F912169FE498F8E499F9C3E49AFAF5
:10169300E49BFB22EB20E7CFE920E7E0B90010BB96
:1016A3000008E88AF084F8AAF022E4FBC8FA22EBE7
:1016B30070227B10C833C8C933C9335007C39AC3D8
:1016C300DBF280069A50012ADBEAC833F4C8C93337
:1016D300F4C9FA2275F008E4C833C8C933C933C959
:1016E3009AC99B5004C92AC93BD5F0ECFBC833F413
:1016F300C8E4C9FA22600D08C6A2E713C618C613C8
:10170300C6D5E0F322600C08C6C313C618C613C6B9
:10171300D5E0F422700422600D18C6C333C608C690
:1017230033C6D5E0F41822251810AF08F518400287
:1017330015198008F51840021519D2AF22C0D0251B
:101743001810AF08F518500205198008F518500253
:101753000519D2AFD0D0222518F58210AF08F5189D
:10176300400215198008F51840021519D2AF8519E2
:101773008322C5822518C582C583351910AF07F5A5
:10178300198582188007F519858218D2AFC583227F
:101793002518F582E43519F58322E4732518C582EB
:1017A300C0E0E51934FFC583C0E0E518C395822482
:1017B300F810AF08858319858218800885831985F9
:1017C3008218D2AFCEF0A3E520F0A37808E608F0A4
:1017D300A3DEFAEFF0A3E58124FAF8E608F0A3E626
:1017E30008F0A3E608F0A30808E608F0A3E608F06B
:1017F300A315811581D0E0FED0E0F8158115811580
:1018030081E8C0E0EEC0E0222518C582C0E0E519FA
:1018130034FFC583C0E0E518C3958224F910AF08EF
:101823008583198582188008858319858218D2AF2C
:10183300CEF0A3E520F0A37808E608F0A3DEFAEFE4
:10184300F0A3E58124FBF8E608F0A3E608F0A3087B
:1018530008E608F0A3E608F0A315811581D0E0FEA1
:10186300D0E0F815811581E8C0E0EEC0E0228519CB
:1018730083851882E0A3FEE0A3F5207808E0A3F6B1
:1018830008DFFAE0A3FFE0A3C0E0E0A3C0E0E0A329
:10189300C0E0E0A3C0E0E0A3C0E010AF0885821879
:1018A3008583198008858218858319D2AFD083D0A8
:1018B30082020122851983851882E0A3FEE0A3F545
:1018C300207808E0A3F608DFFAE0A3FFE0A3C0E076
:1018D300E0A3C0E0E0A3C0E0E0A3C0E010AF088550
:1018E30082188583198008858218858319D2AFD021
:1018F30083D08222C0D02518C582C0E0E51934FF09
:10190300C583C0E0E518C3958224F310AF0885832F
:10191300198582188008858319858218D2AFC8F08B
:10192300A3E9F0A3EAF0A3EBF0A37908E709F0A396
:10193300D8FAECF0A3EDF0A3EEF0A3EFF0A3D0E020
:10194300F0A3D0E0F0A3D0E0F0A3E520F0A3E5F00E
:10195300F0A322851983851882E0C0E0A3E0F9A3F0
:10196300E0FAA3E0FBA37808E0F608A3DFFAE0FCC3
:10197300A3E0FDA3E0FEA3E0FFA3E0C0E0A3E0C07B
:10198300E0A3E0F5D0A3E0F520A3E0A3F5F010AFCA
:10199300088583198582188008858319858218D262
:1019A300AFD082D083D0E0F8D0E0327404800674E4
:1019B3000280027401C0E0F40412175AD0E0121638
:1019C30030227404800474028000CCC0E0EDC0E0D7
:1019D300E518C39CCCAD1950011D10AF068C188DB2
:1019E3001980068C188D19D2AF12163DD0E0FDD0A8
:1019F300E0FC22D083D082E9C0E0E493A3C386F065
:101A0300C5F095F0F908E493A386F0C5F095F0705E
:101A13000BE493A3C3994005E9048002A3E475F0A2
:101A230002A42582F582E5F03583F583D0E0F9E45D
:101A330093A3C0E0E493C0E022D083D082ECC0E063
:101A4300EDC0E0E493A3FCE493A3FDED4C600D1221
:101A53001A88EC24FFFCED34FFFD80EFE493A3FC34
:101A6300E493A3FDED4C600D121AC7EC24FFFCEDCB
:101A730034FFFD80EFD0E0FDD0E0FCE493A3C0E0B1
:101A8300E493C0E022C0E0C3E49396087401939604
:101A930018400FE493667008087401936618700089
:101AA3007019A3A3C3E49396087401939618A3A390
:101AB300400DD0E0D0E0D0E0021A78A3A3A3A3A303
:101AC300A3D0E022C0E0C0F088F0E4936670080879
:101AD30074019366187000A8F0A3A3700BD0F0D024
:0F1AE300E0D0E0D0E0021A78A3A3D0F0D0E02248
:101AF40074F512180BEAFEEBFFEE2434F8EF340011
:101B0400F988088909EE2435121C2CF8EE243712C2
:101B14001C2CF50AEC850AF0A4FCAAF0850AF0ED69
:101B2400A42AFDE82CF8E43DF97A257B0012169FDF
:101B3400EA850882850983F05407F87401B8000225
:101B44008004C333D8FCC0E0E0131313541FF8EE31
:101B540028F8EF3400F9E8245DF582E93400F583D0
:101B6400D0E0F8E0586008850882850983801DEE7E
:101B74002436121C2CF5F0EA84A8F0EE28F8EF3491
:101B840000F9E82438F582E93400F583E0F97F04AC
:101B94000218B774F512180BEAFEEBFFEE243412A8
:101BA4001C2CC0E0EE2435F582EF3400F583D0E040
:101BB400F08E828F83A3A3A3A3A3E0FAA3E0FB8EFA
:101BC400828F83A3A3A3A3A3A3A3E0FCA3E0FDECC0
:101BD400C39AF50AED9BF50BEE2480F508EF34006B
:101BE400F509850882F583E06401702BEE2481F504
:101BF40082EF3400F5831219C9121C3574021217CE
:101C040040E960137CE27D07EEFAEFFB120AA1853E
:101C14000882850983E4F0AC0AAD0BEEFAEFFB12FF
:101C24001AF4121F8F021B92F582EF3400F583E041
:101C340022C082C083851882851983E0F8A3E0F965
:101C4400C3EA9CEB9D5012C3EC98ED994019C3EA8A
:101C540098EB99501279018010C3EA98EB9940F5FA
:101C6400C3EC98ED9950EE7900D083D08222000025
:101C7400851A87851BC622C0E074EF1218F7759B7E
:101C840000906182E0A2E64003021D3CE591A2E6D9
:101C94004003021D3C7591BF900499E064057008EF
:101CA400120C7B120C878003120C81751A00120C23
:101CB400F3E990049AF07900120CD5120A057A011E
:101CC4007B00900498E0F9120FDB907803E0644203
:101CD4006003021D85900817E014F06003021D855F
:101CE400C2AF121CE900781DD0E0F618D0E0F6E58A
:101CF4009F5407F9700590947380039093EB7808D0
:101D04001215FAE9C4C0E0781CE65508F50808E69F
:101D14005509F509740B7808121708D0E02508F85E
:101D2400906270E0A2E740F8E8C333906272F090EA
:101D34006270E0D2E0F08049E0A2E55024E591A28F
:101D4400E5501E7591DF900499E0640D70139004C2
:101D5400BBE004F064287002E4F07A00E0F9120DAC
:101D640083906181E0A2E35009E5E9A2E3500375A1
:101D7400E9F7A3E0A2E75009E591A2E750037591C2
:101D84007F7F04021956C0E0C0D0C082C083906136
:101D940083E0A2E05009E5BFA2E0500375BFFEE076
:101DA400A2E15009E5BFA2E1500375BFFDE0A2E244
:101DB4005009E5BFA2E2500375BFFBE0A2E350095E
:101DC400E5BFA2E3500375BFF7E0A2E45009E5BF05
:101DD400A2E4500375BFEFE0A2E55009E5BFA2E518
:101DE400500375BFDFE0A2E65009E5BFA2E6500349
:101DF40075BFBFD083D082D0D0D0E032C0E074F2BF
:101E04001218F7E5A7A2E4500FE5A1A2E450095384
:101E1400A7EF75A1EF121E54E5A7A2E5500CE5A1AA
:101E2400A2E5500653A7DF75A1DFE5A7A2E150099B
:101E3400E5A1A2E1500375A1FDE5A7A2E2500CE5DE
:101E4400A1A2E2500653A7FB75A1FB7F010219561C
:101E540074F812180B751A01900499E0640670075F
:101E64007A007B00120C63A2AFE433FED2AF90047D
:101E74009FE0640170187A207B00900498E0F912C6
:101E840010597A207B00900498E0F9120FE19061D8
:101E940082E0D2E6F0900816E0602185C61B801629
:101EA40090049EE064017008E5C654F84405F5C644
:101EB40053BEFC121C747401651A60E4EEA2E09235
:101EC400AF7F010218B774F112180B8A088B098CC2
:101ED4000A8D0B740F121793780C1215FA90941341
:101EE40078081215C1909413780C1215C1780879EA
:101EF4000C1213E650157808790C12158690946B21
:101F04007808121406401579018013780C790812A8
:101F1400158690946B780C12140640EB79007F08B8
:101F24000218B774ED12180B8A088B098C0A8D0BF2
:101F34007413121793780C1215FA909413780812EC
:101F440015C1909413780C1215C1780C79081213EA
:101F5400E640117808790C121586AA08AB09AC0A78
:101F6400AD0B8022751000751100751200751301F8
:101F74007810790C1215867810790812154DAA106C
:101F8400AB11AC12AD137F0C0218B7C082C083E949
:101F9400906000F0D083D08222C0E074F21218F76F
:101FA400A2AFE433FED2AFC2C0E5D1A2E4500653DF
:101FB400D1EF1212CFEEA2E092AF7F01021956C008
:101FC400E074F21218F7A2AFE433FED2AFE589A2AF
:101FD400E15003121221758900C2C5EEA2E092AF4E
:101FE4007F01021956C0E074F21218F7A2AFE4336D
:101FF400FED2AFE58BA2E05003121221758B00C212
:10200400E880D8C0E0C0D0E8C0E0E5A8D2AFC2C73D
:10201400A2E792AFD0E0F8D0D0D0E032C0E0C0D098
:10202400E8C0E0E9C0E0C008C009C082C083A2AF34
:10203400E433F9D2AF901063E0F8A3E0687008537A
:102044009AFBA374018026C2E9901063E0F508743A
:10205400012508F074E32508F582740F3400F58334
:10206400E0F5C1901063E0C394804002E4F0E9A27B
:10207400E092AFD083D082D009D008D0E0F9D0E08C
:06208400F8D0D0D0E032DC
:10208C00FFFFFFFFFFFFFFFFC082C083E990118FAE
:10209C00F0D083D08202012274F612179FE99003CC
:1020AC0064F07CA47D037AFF7BFF1207237A008AFD
:1020BC00087509007402780812171774652508F85A
:1020CC00740335091220F3A3F00AEAC3940340DF2A
:1020DC0079051206B1900364E0F91205D97A3B7BBD
:1020EC00071208F1023674F98882898374FF122171
:1020FC0000E4F022F0A3123501A32274F412179F0E
:10210C008A088B09EB54806030900364E0F9120F5D
:10211C00C38A0A8B0BAE0AAF0BEE4F60138E828F05
:10212C0083E064B070031206C3EEFAEFFB120FB13A
:10213C00AA08E5096480FB80047A007B000222D0A7
:10214C0074F212179F74FC12172AEAFEEBFF74123A
:10215C0012179312354AEE4F70030221EF740212DC
:10216C001793EEF0A3EF12252BECF0A3ED12252B19
:10217C00AA82AB831205D3E9F50A706AE508450912
:10218C0060648E828F8312352BEE4F60567A067BFD
:10219C00001210178A0C8B0DA80CA90DE8497005BC
:1021AC00750A13804188828983E4122100EEF0A322
:1021BC00EF12355BE508F0A3E509F09003721222EB
:1021CC00CA9003727005122FE8801B122FD6800361
:1021DC00EAFCEBFD8C828D831222CA70F38C828D0B
:1021EC008380E3750A02A90A740412174002373E71
:1021FC0074F212179F890AE975F045A4FEAFF090AE
:10220C000371E4F09003671222CA602812101D7942
:10221C00008908750900740278081217177467256D
:10222C0008F58274033509F583E4F0A3F009E9C3DA
:10223C00940340DDEEFAEFFB1210178A088B09EAC3
:10224C0045096075EEFCEFFD7900120F997D008D4C
:10225C000C750D007402780C1217177467250CF8A6
:10226C007403350DF9E50AF5F0EDA475F017A4FA31
:10227C00ABF0E5082AFAE5093BFB88828983EAF092
:10228C00A3EBF07E00801BEE75F017A4FAABF08880
:10229C00828983E02AFCA3E03B8C82F583E4F0A3E3
:1022AC00F00EEEC3950A40DF0DEDC3940340A0E59C
:1022BC000A900371F079008002791302373E122CD8
:1022CC007AEA4B227F0402187174F412179F79007A
:1022DC00EAA2E0501B7508AE75099378081219B282
:1022EC007C047D007A917B111206AB7402121740AC
:1022FC0080D2C082C08390037212354549601C881D
:10230C00828983A3A3E06A7003A3E06B888289832C
:10231C0070E7A3A3A3A3122C7680047A007B00029F
:10232C00209D74EE12179F74FC12172AEAFEEBFF25
:10233C00851882851983E4F0A3F0EE2402122FC8CD
:10234C00EE2405123508EE2404F50EEF1228D5E024
:10235C0024FE603924FC604624FE605224FE605E3C
:10236C0024FE700302244124FE70030224A524FEE3
:10237C0070030224B424FE70030224C324FC7003F3
:10238C000224D224FE70030224E102251E90038B4A
:10239C007417F0A3E412253312024902251E851886
:1023AC0082851983AC82AD831206C90224EE85188E
:1023BC0082851983AC82AD831206CF0224EE850C84
:1023CC0008850D097402121793AC82AD83850882BF
:1023DC00850983122C761205F78A0C8B0DAC0CAD8B
:1023EC000DEC4D603BE4F50CF50D780C1219B27543
:1023FC000C8B750D03780C1219B2750C8C750D03C2
:10240C00780C1219B274081217931219C9123848A1
:10241C00121740E9F50C700B122C6C120261800F34
:10242C00750C01850882850983122521122FE885F8
:10243C000C080224F17402121793AC82AD83850C44
:10244C0082850D83122A28603C850C82850D83A31E
:10245C00A31219C975108B75110378101219B27566
:10246C00108C75110378101219B27408121793128C
:10247C0019C9123848121740E9F509700B122C6C67
:10248C00120267800F750901850C82850D83122558
:10249C0021122FE8850908804C851882851983AC98
:1024AC0082AD831206D5803A851882851983AC8259
:1024BC00AD831206DB802B851882851983AC82AD27
:1024CC00831206E1801C851882851983AC82AD834A
:1024DC001206E7800D851882851983AC82AD8312B4
:1024EC0006EDE9F508E50860298E828F83A3E06488
:1024FC0014601F850E82850F83E090038B12252BB1
:10250C0012382090038C122FE8E508A31225331201
:10251C000243022ED712382485188285198322F0A3
:10252C0085188285198322F07C8B7D03850A828530
:10253C000B83122C7A2274EE12179F74FC12172A3A
:10254C008A0A8B0B8C0E8D0FEA2405F508EB3400F0
:10255C00F5097C157D0079007A8B7B03120F99E5C8
:10256C00082402F50CE50912350B851882851983B0
:10257C0085821085831178101219B285088285091D
:10258C0083A3A3A3A3122A1F1219B2E5082405F5ED
:10259C0010E5093400F51178101219B2850C8285FA
:1025AC000D83122D8D1205F174061217408A108BB3
:1025BC0011AE10AF11E50A2402F50AE50B122FCB70
:1025CC00EE4F700302270080177402121793122C1F
:1025DC007688828983EAF0A3EBF090038BE004F019
:1025EC0090038BE0C394054003022700E4F510F53B
:1025FC001178101219B27510747511037810121924
:10260C00B275107575110378101219B27406121781
:10261C00931219C97910EEFCEFFD12384A121740CB
:10262C00E9705E850882850983A3A3A3A3A3A3A352
:10263C00E0F8900374E0687048122A1F1219B27CFB
:10264C00757D03E5082408FAE5093400FB120F93A5
:10265C007402121740E960298E828F83A3A3A3A36F
:10266C00122C7690038BE0F5107402781012171769
:10267C00748C2510F58274033511F583EAF0A3EB05
:10268C00F074021217938582108583117810121939
:10269C00B274021217931219C9850C82850D83121C
:1026AC002C9C1217408A108B11AE10AF1190038B1B
:1026BC00E0F51075110074027810121717748B2541
:1026CC0010F874033511F988828983A31222CA7019
:1026DC00030225CCE82403080808E93400F9EE4F7E
:1026EC0060030225D58882898374FFF0A3F09003E0
:1026FC008BE004F090038BE0600A122C6C120255F4
:10270C007900800B850882850983122FDF790A02F4
:10271C002ED774EA12179F74FE12172A8C128D137F
:10272C00EA2405F50CEB12383212352F75080075BA
:10273C000900EA2402F510EB3400F51185188285A6
:10274C00198385820A85830B780A1219B2850C824B
:10275C00850D83A3A3A3A31228EB1219B2E50C24B5
:10276C0005F50AE50D122FCB780A1219B2850C82E9
:10277C00850D831228EF1205F174061217408A0A90
:10278C008B0BEA450B70030228A0EA2404F50EEB30
:10279C001228D512352F8A828B83A3A3A3E0F98547
:1027AC001082851183122C8060030228A0E4F5149A
:1027BC00F51578141219B275147475150378141272
:1027CC0019B275147575150378141219B2740612B2
:1027DC0017931219C97913AC0AAD0B8510828511A8
:1027EC0083123850121740E9F50960030228A090B3
:1027FC000374E0F8E5087009E0240290038CF08083
:10280C001790038CE0FCE82402FAE43400FBEA6C39
:10281C007001EB60030228A4850882AA82122A1692
:10282C009414122A0E506D850E82850F83E0C0E041
:10283C00122C46D0E0F00508850E82850F83A3E0AC
:10284C00C0E085080A748D250AF58274033400F5FE
:10285C0083D0E0F005089003741228EB1219B27CB7
:10286C00757D0385080A748D250A1228DF1217401E
:10287C00900374E02508F50874FF6E700374FF6F05
:10288C006012EE24010EEF3400FFE508C3941450DF
:10289C0003022748E5086013122C8A8510828511E3
:1028AC0083122C7612025B79008014E50970037593
:1028BC00090A851282851383EEF0A3EFF0A909743F
:1028CC00021217407F0E0218713400F50F850E822C
:1028DC00F58322FA74033400FB120F817402221266
:1028EC00356A22A3A31228F522122FD6FDEEFAEF99
:1028FC00FB2274EE12179F74FE12172A8C0E8D0F8A
:10290C00EA2405F50CEB12350B750B0090038BE4E8
:10291C00F0F50AEA2402F508EB3400F5098044903E
:10292C00038BE0FA900374E0F8122A169417122A1B
:10293C000E400D90038BE0F87416C398900374F05E
:10294C00122A1F1219B27C757D03748C2AFA740337
:10295C001228E2121740900374E0F890038BE028E1
:10296C00F0050AE50C2416F582E50D3400F583E03C
:10297C00F8E50AC398507490038BE0C39416506B1F
:10298C00E50AC333F8E433F9E50C28FEE50D39FF0D
:10299C00851882851983AC82AD838E828F83122A2F
:1029AC00287008750B01122FDB8050E4F510F5111F
:1029BC0078101219B275107475110378101219B2BF
:1029CC0075107575110378101219B27406121793DD
:1029DC001219C97916850882850983123850121785
:1029EC0040E9F50B700302292B80BB7C8B7D0385A2
:1029FC000882850983122C7612026DA90B740202CF
:102A0C002ED9E99400C365D03322EA28F8E43400C7
:102A1C00F9E822E0F510751100781022122ECE8AFA
:102A2C00108B11AC10AD11EC4D2274EA12179F747F
:102A3C00FC12172A8A0C8B0D8C128D13EA2405F5C7
:102A4C000AEB122FCB750800750900E50A2402F574
:102A5C0010E50B3400F511740212179385820E8564
:102A6C00830F780E1219B2850A82850B83A3A3A358
:102A7C00A31235101219B2E50A2405F50EE50B3434
:102A8C0000F50F780E1219B2851082851183122F62
:102A9C00D1122C701205F174061217408A0E8B0F8E
:102AAC00AE0EAF0FE50C2402F50EE50D3400F50F5C
:102ABC0080388882898374FFF00508122C5274FFC9
:102ACC00F00508900374E0F50C750D00780C1219E4
:102ADC00B27C757D0385080C748D250C1228DF12D1
:102AEC001740900374E02508F508EE4F60278E829E
:102AFC008F83A3A3A3E0F9850E82850F83122C800C
:102B0C00EE2404123508E96027850C82850D8312AA
:102B1C002C62122FE8E5087003022C2C122C8A85EB
:102B2C000E82850F83122C761202737900022C41CF
:102B3C00E4F514F51578141219B27514747515039F
:102B4C0078141219B275147575150378141219B21C
:102B5C0074081217931219C97911EEFCEFFD850E4A
:102B6C0082850F83123850121740E9F509709A8547
:102B7C000882AA82EA9003747009E0240490038C02
:102B8C00F08025E0F890038CE0F514E82404FCE4D4
:102B9C003400FDEC65147001ED7081122A1694124C
:102BAC00122A0E4003022B28850C82850D83E0C06F
:102BBC00E0122C46D0E0F00508850C82850D83A32D
:102BCC00E0C0E0122C52D0E0122CA585820C85833B
:102BDC000D780C1219B274041217931219C98510BE
:102BEC0082851183122C9C1217408A0C8B0DAE0C13
:102BFC00AF0D85080C748D250CF874033400F9EEB8
:102C0C004F7003022ABE851882851983E088828959
:102C1C0083122CA5A3E0C0E0122C52D0E0022ACCE7
:102C2C00E509700375090A850A82850B83122C62EB
:102C3C00122FE8A90974040228CD748D2AF5827428
:102C4C00033400F5832285080C748D250CF58274F1
:102C5C00033400F5832212382485128285138322D3
:102C6C007C8B7D03850A82850B83122C7A22E0FAF9
:102C7C00A3E0FB22122C7A1205DFE9F5092290035E
:102C8C008CE0F5F0E5088490038BF07C8B7D0322BF
:102C9C001228F51205FD740422F0050885188285AA
:102CAC0019832274EC12179F74FE12172A8A088B50
:102CBC00098C0E8D0FEA2405FEEB3400FF122EB8A2
:102CCC00EE2418123508EA450B7003022D5B122E08
:102CDC00A15029122D808A108B11EA4511606B7955
:102CEC0012AC0AAD0B850882850983122C768510EF
:102CFC008285118312179DE9F50A7058E4F50AF5DF
:102D0C000B780A1219B28E828F83A3A3E0F50A788E
:102D1C000A1219B2EE2403122FC8780A1219B28EB5
:102D2C00828F83122D8D1207117406121740E9F54C
:102D3C000A7021850C82850D83E0701F85088285C1
:102D4C000983122C761202798011750A0E8009758E
:102D5C000A018004E50A6003122FDB850C82850DC5
:102D6C0083E0600479008002A90A74021217407F84
:102D7C000C021871851882851983122C7A1206FFA1
:102D8C0022122FD6FD850882850983122C7A227493
:102D9C00EE12179F74FE12172A8A088B098C0C8D61
:102DAC000DEA2405FEEB3400FF750E00122EB8EA76
:102DBC00450B7003022E7F122EA1502C122D808AEF
:102DCC000E8B0FEA450F604A7912AC0AAD0B8508E1
:102DDC0082850983122C76850E82850F8312179DAE
:102DEC00E9F50E6003022E82850882850983123074
:102DFC00E2AA0AFB122E9370147AFF7BFF122E9319
:102E0C00606C88828983E50AF0A3E50BF0750A00F3
:102E1C008007750E0E805F050A900371E0FAE50AD3
:102E2C00C39A504AE50A75F017A4FAABF088828968
:102E3C0083A3A3E02AFAA3E03BFB8A828B83122FA5
:102E4C00D1EC4D70D2750A17750B00780A1219B2B5
:102E5C00EEFCEFFD120F817402121740EEFCEFFD39
:102E6C00850882850983122C7612027F8014750ED8
:102E7C00098003750E0112381C850C82850D831296
:102E8C002FE8A90E022A091206F38A108B11A8103A
:102E9C00A911E84922E5082402F508E5093400F5F2
:102EAC00098A828B83A3A3A3E0A2E52285188285DD
:102EBC001983AC82AD838E828F83122ECE8A0A8BBD
:102ECC000B22E0FAA3E0FB1205F722740412174060
:102EDC007F0A02187174EC12179F8C108D11EA2462
:102EEC0005F50CEB12350B750F00EA2402F50AEB15
:102EFC00122FCB850A82F583122C761238D77003E9
:102F0C00022FBD750E008071850C82850D83E064E7
:102F1C0001704F8E828F83A3A31219C98E828F8367
:102F2C00A3A3A3A3E0F51275130078121219B2EE45
:102F3C002405F512EF3400F51378121219B2122C85
:102F4C00701207117406121740E9F50F6014850C06
:102F5C0082850D83E4F012381C8510828511831252
:102F6C002FE87C177D007900EEFAEFFB120F998E9B
:102F7C00828F83E4F0A3F0050E900371E0F8E50E68
:102F8C00C398501EE50E75F017A4F8A9F0850882B9
:102F9C00850983A3A312383C122FD1EC4D60030298
:102FAC002F1485088285098374FFF0A3F0E50F7058
:102FBC0006122C70120285A90F022D7BF50AEF3434
:102FCC0000F50B22A3122FD6FD22E0FCA3E0228EEB
:102FDC00828F83123824850E82850F83E8F0A3E953
:102FEC00F02274F612179F7C008C0875090074028D
:102FFC0078081217171230206A7003A3E06B700662
:10300C00E8FAE9FB800B0CECC3940340DC7A007B00
:10301C000002367474652508F874033509F9888242
:10302C008983E02274F712179F7F00EF75F003A4D9
:10303C00F8A9F0EC28F8ED39F988828983E06A70F8
:10304C0003A3E06B7006E8FAE9FB800B0FEFC39467
:10305C000440D87A007B007F0102187174F61217B5
:10306C009F12361970067A007B008007A3A3A3A3D6
:10307C00122C7602367474F212179FE9FE740E123B
:10308C0017931230E2741012179312354A8C828DFA
:10309C0083E06402703BA312382088828983E0F5B8
:1030AC000CA3E0F9A80C74026870037429697021F0
:1030BC00750C02750D00780C1219B278081219B241
:1030CC00780A1219B2EEF9120735740612174080FD
:1030DC0002790102373EE0F50AA3E0F50B2274E811
:1030EC0012179F74FB12172AE9851882851983F031
:1030FC008A168B178C0E8D0F741F12179312354A6C
:10310C0074211217931230E2742312179312352F75
:10311C007510008C828D83A3A3A3E0A2E4502A74C3
:10312C001D121793122D868A828B83E5824583703C
:10313C00030231F6790AAC0EAD0FAA16AB171217B3
:10314C009DE9F51060030231F9850E82850F83E04D
:10315C00640260030234AFA312382085088285090B
:10316C0083A3858212858313E50E2406F50CE50FE7
:10317C0012350B88828983E0FAA3E0F9EA2400F582
:10318C0014E439F5157814121A3C010000280128B2
:10319C00BE31070002289532032805320029BF33BF
:1031AC000129E73302298E330329BF330429503414
:1031BC00AF34EE4F703E850C82850D83123545FA87
:1031CC00E9FB8A828B83E0850A82850B8312356149
:1031DC001219B28A828B83A3122FD6FDAA08AB09CF
:1031EC00120F817402121740800375100EA910740F
:1031FC000502382A75100B80F4EE4F70F7850A82A1
:10320C00850B837401F0123535850882850983F0AE
:10321C007C007D00850E82850F83A3A3A3A3E024ED
:10322C0001FAA3E03400FB1205F7EA4B60418A82F5
:10323C008B83E02402F8850A82850B83E028F0EA70
:10324C002404F8EB3400F988828983E085128285A6
:10325C0013831235731235611219B28A828B831261
:10326C002FD0E5082403FAE5093400FB0231EC8584
:10327C000A82850B83E02404F07C047D007900AA8B
:10328C0012AB13120F990231F9EE4F6003023200A8
:10329C00123535FEA3E0FF850A82850B837404F09A
:1032AC00EE850882850983F0EF851282851383F001
:1032BC007403121793AC82AD83EEFAEFFB12360750
:1032CC00700302336B8A828B83A3A312352B740198
:1032DC0012179385820E85830F780E1219B274051E
:1032EC001217931219C97CFF7DFF1205FD7404128D
:1032FC0017408B0FEA450F7033850C82850D8312B6
:10330C0035101219B2850C82850D83A31219C97C54
:10331C00027D007A927B941203757404121740E9B3
:10332C00700A740112179374FFF0A3F08E828F83CE
:10333C00E064027034750C02750D00780C1219B231
:10334C008E828F83122FD0E5082404FAE509122807
:10335C00E2121740850A82850B83E02402800974EF
:10336C0001121793EEF0A3EFF074011217931235BC
:10337C0021F07401121793A3123519A3A3A3F00221
:10338C0031F9EE4F6003023200850C82850D8312F9
:10339C002FD1AA16AB17120729850A82850B8374C5
:1033AC0002F0EA850882850983F0851282851383F1
:1033BC00EB80CBEE4F6003023200123535F8A3E000
:1033CC00F9850A82850B837402F0E88508828509E9
:1033DC0083F0E985128285138380A3850C82850D89
:1033EC0083122C76120F7BEAFC8C82A882C39EE49B
:1033FC009F404BE86E7001EF70047C00801F8518B5
:10340C0082851983E0FAEE2AFAEF3400FBC3EA98BE
:10341C00EB94005003E08004EECCC39CFCEC850ADA
:10342C0082850B83F08C0A750B00780A1219B28511
:10343C000C82850D83E02EFCA3E03F0231E7751072
:10344C00070231F9EE4F6003023200850C82850DC4
:10345C0083123820850A82850B837407F088828951
:10346C0083123519123501E0851282851383F0E839
:10347C002402FAE93400FB8A828B83123519123547
:10348C0052123521A312355B123525F0E82405F8CC
:10349C00E93400F988828983123525A3123573A388
:1034AC00023387741D12179312361270030231F611
:1034BC00123820880C890DE8450D70030231F68E08
:1034CC00108F1178101219B2780A1219B2780812EA
:1034DC0019B27406121793E0F9AC0EAD0FAA16AB25
:1034EC0017850C82850D8312179D7406121740E9FF
:1034FC00F5100231F9F088828983A322F50CEF34A0
:10350C0000F50D22E0F50E750F00780E22E085080F
:10351C00828509832212357A2212357AA3A322A33B
:10352C00A3A3A3E0FEA3E0FF22850C82850D83E01C
:10353C00F8A3E0F5838882E022123824E822E0F533
:10354C0008A3E0F50922A3A3F08A828B83A322129D
:10355C002102A3A322F08A828B8312356A22E0F522
:10356C000A750B00780A2212350112357A22E08591
:10357C000882850983A3A32274EE12179F74FE128E
:10358C00172A8A0A8B0BECFAEDFB7414121793E0D2
:10359C00F510A3E0F5117416121793E0FE741812CF
:1035AC001793E0F50EA3E0F50F851882851983AC0F
:1035BC0082AD83123607603E8518828519831236D8
:1035CC0012602FA3A312354AE50845096024780E32
:1035DC001219B278101219B2EEF9AC0CAD0DAA0A90
:1035EC00AB0B85088285098312179D740412174052
:1035FC008006790E80027901022A091205F78A0CDD
:10360C008B0DEA450D22122C7A123619221206BDA8
:10361C008A828B83E58245832274F612179F74FE8F
:10362C0012172A740C1217931235458518828519B6
:10363C0083F07401121793E9F0E4F508F5097808A2
:10364C001219B275080278081219B2740412179381
:10365C0085820885830978081219B212071174063D
:10366C0012174074021217407F0202187174F7127D
:10367C00179FEAFEEBFF89087CA47D03120729EA59
:10368C005402600BA908EEFAEFFB1205EB800279ED
:10369C000102306374F612179F74FF6A700374FF93
:1036AC006B701B7B00EB75F003A4F8A9F0EC28F809
:1036BC00ED391220F30BEBC39404501480E712067F
:1036CC00F98A088B09A808A909E84960031220F4B3
:1036DC00809674F612179F1206F98A828B83E58204
:1036EC0045836006A3A3E0FA80027A007B000236D1
:1036FC007474F212179F8A088B09ECFEEDFF740E9E
:10370C00121793E0F50A123743701CEEFCEFFD7AAA
:10371C00FF7BFF12374370047911801688828983EE
:10372C00E508F0A3E509F088828983A3A3E50AF0F4
:10373C0079007F060218711206F98A0C8B0DA80C01
:10374C00A90DE8492274EE12179FEAFEEBFF8C08D4
:10375C008D09890C741212179312382074141217D5
:10376C0093122FD17416121793122C76750D00EC40
:10377C004D60030238147402650C600302380F8824
:10378C00828983122FD6F9EC2400F50EE439F50F5B
:10379C00EAF4F8EBF4F9EC58F8E50F59F9E849704C
:1037AC005DE5082406F8E5093400F9880A890B88D8
:1037BC0082F5831228F11207298A108B11E50E6508
:1037CC00107004E50F65116042780E1219B2850A6B
:1037DC0082850B831228F112072F7402121740E90D
:1037EC00F50D7027780E1219B2850882850983A30E
:1037FC00A31228EF1207417402121740800D750DA9
:10380C00808008750D0D8003750D0BA90D022EDC43
:10381C008E828F8312382422E0F8A3E0F92212174B
:10382C00407F100218713400F50D850C82F583224F
:10383C00E028FEA3E039FF8E828F83227916850A59
:10384C0082850B83122C7A12070B74082274F212E5
:10385C00179FEAFEEBFF890B7401650B600E740277
:10386C00650B7064790112090FE9705CEEFAEFFBDD
:10387C001238D76048750A00800B7C177D007900E0
:10388C00120F99050A900371E0F8E50AC3985022CB
:10389C00E50A75F017A4F8A9F0850882850983A3B9
:1038AC00A3E028FAA3E039FB8A828B8312354549C1
:1038BC0070C885088285098374FFF0A3F07CA47D11
:1038CC0003EEFAEFFB12072302373E1206F38A08C7
:1038DC008B09EA45092274F212179F8A088B09ECAE
:1038EC00FEEDFF740E1217931230E290118FE0F47C
:1038FC00603D7A097B00120FABEA4B60328A828BF7
:10390C008374B1F0A3E4123554A3123552A3E50825
:10391C00F0A3E50912393EEEF0A3EF12393EA3A352
:10392C00E50AF0A3E50BF090118FE0F9120FB70246
:10393C00373EF08A828B83A3A3A3A3A322C082C0A9
:10394C00839061907404F0A37448F0A3E4F0906148
:10395C00807440F09061BC7407F09061877469F0DA
:10396C009061B67416F07900120A0B7902120A11E2
:10397C0090208CE493F46006E493F91209E779053E
:10398C00120D65023DAFC082C083E9540FF99061FE
:10399C0085E0696012E5C654804449F5C6E59E543D
:1039AC007F644970F8E9F053C680E59E547F70FA45
:1039BC00023DAF74F712179FE5A8FE53A87E1209BB
:1039CC00F3C2BA539AFEC289759B00C2C21209F99E
:1039DC0075A91175B9051209FFD2BA439A01748001
:1039EC005E42A8024CB2C082C083906181E4F0A315
:1039FC00F0A3F0023DAF75E90075910075BF0002B0
:103A0C000122C082C083906181E4F0A374C0F0A352
:103A1C00E480DFC082C08374F812172A90049B12D2
:103A2C004425E8497003023AD690049BE054406068
:103A3C00237908851882851983AA82AB83120B1906
:103A4C00851882851983AA82AB831207AD90049BDB
:103A5C00E054BFF0E054806010790C7A387B081287
:103A6C000B1990049BE0547FF0E0A2E05008790021
:103A7C00123ADE54FEF0E0540260087901123ADE8C
:103A8C0054FDF0E0540460087900123AE954FBF05C
:103A9C00E0540860087901123AE954F7F0E0541048
:103AAC0060087902123AE954EFF0E054206008798A
:103ABC0003123AE954DFF0A3E05401600D120A1D21
:103ACC001207BF90049CE054FEF0740812174002D9
:103ADC003DAF120A0B1207B390049BE022120A119D
:103AEC001207B990049BE022C082C083E9600514E0
:103AFC00602A804F90619A7433F0A37455F09061F2
:103B0C00A0743AF0900814E064017009C29190041A
:103B1C009D7467802D90049D7461802690619A74C9
:103B2C003FF0A3745AF09061A0747FF0900814E0F9
:103B3C0064017009D29190049D7471800590049D6C
:103B4C00746AF0023DAFC082C083E9600B14600D53
:103B5C0014600F146011802090209080159020919B
:103B6C008010902092800B900814E0640160F39018
:103B7C002093E493906186F0023DAF74EE12179F90
:103B8C0074F412172A851882851983AC82AD83755B
:103B9C0083937582F3740412163D90209093F46015
:103BAC0003023D19907808E0C394025003023CF9DB
:103BBC007404121793AC82AD8375839375829074E1
:103BCC000812163DF97AFF7BFF7FFF7E0089828504
:103BDC008210801874086E7003023CAE74096E700B
:103BEC0003023CAE740A6E7003023CAEE510C333A4
:103BFC00FCE433FD7404121793E5822CF582E58303
:103C0C003DF583E0F50EA3E0F50F8E087509007401
:103C1C0002780812171774482508FC74783509FDCA
:103C2C008C828D8378081215FA7408780812151591
:103C3C0085080C85090D8C828D8378081215FA7411
:103C4C00187808121515E50C4508F508E50DF50969
:103C5C00C3E50E9508E50F95098C828D83780812C3
:103C6C0015FA8C828D8378081215FA74187808402E
:103C7C0014121515E50C4508FCAD0DE50EC39CFCA6
:103C8C00E50F9D800F121515E50C4508C3950EFC2C
:103C9C00E50D950FFDC3EC9AED9B5006ECFAEDFB90
:103CAC00EEFF0EEEC394135003023BE074FF6A70F8
:103CBC000374FF6B602D8F08740278081217177449
:103CCC004812493374783509F58378081215FA854A
:103CDC001882851983E5822510F582E583124871D7
:103CEC00E508F009E9C394045003023BD1750801BF
:103CFC0075090078081219B27402121793AC82ADD0
:103D0C00837A247B081211FD7402121740740C1272
:103D1C0017407F0A021871C082C083906186E0F858
:103D2C00902093E493687009902092E493906186BC
:103D3C00F09061AE7468F0A3746AF090624574FB05
:103D4C00F0A304F053F4FD43FE029008147401F048
:103D5C009061A0E0643A7004790080027901120A43
:103D6C000B023DAF7F04021871C082C0839007F232
:103D7C00E0640170179007F8E0F87401686009E8D6
:103D8C00700AA3E064017004790C8012900809E0B9
:103D9C006401700890080FE0640160EC7900800306
:103DAC00123F0CD083D08202012212447D94062251
:103DBC00E0C4333354C022C082C0839007FC742506
:103DCC00F09007FA7401F0A3E4F07A01FB120CE115
:103DDC009007E8E02416123E107441F0A3740AF028
:103DEC009007F9E0640170169007F8E07010790103
:103DFC00120D41120D11120D3B7900120D4D023DA9
:103E0C00AFE02414F8A3E0123E17223400F98882A4
:103E1C0089832274F612179F74FA12172A9007F1ED
:103E2C00E064017008120A299007F1E4F075E1F1E1
:103E3C009007E8E02415123E107401F09007F3E0AF
:103E4C00640170539093CCC082851882851983AC21
:103E5C0082AD83758393D082740612163D75D90D8D
:103E6C009007EA123DBC4403F5D97800880874EB3E
:103E7C001249337407123DB640F278008808851851
:103E8C0082851983E582124933E583123DB640ECF5
:103E9C0075E195790180027900120CE79011B1124D
:103EAC003F1274BBF0A3740BF0A3123F12123F121B
:103EBC0012407174C1F0A3740B1240869007EAE0B3
:103ECC00F97AEB7B07120CC39007FC123F0C7901BB
:103EDC00120CED9093FF121618120D0590941F12F0
:103EEC001618120CCF7900120D599007E8123E0DDE
:103EFC007416F09004997405F00412174002450EE4
:103F0C00E0F9121F8F2274B5F0A3740BF0A3227486
:103F1C00F412179F8908A808124055900801E0F97F
:103F2C007A027B08120CC390080FE0701A79001209
:103F3C000D239007DBE0700B79007ADC7B07120C09
:103F4C00C98009790180F37901120D2375E1F175AE
:103F5C00D923900801123DBC4405F5D97800880A94
:103F6C007402250AF5827408123DB640F175D90029
:103F7C0075D90075D90075D90075D90075D9007A35
:103F8C00001250E124221243A040F67A001250E1B4
:103F9C002426F582E91245160AEAC3940340EEEE94
:103FAC00242B1245137A001250E1242C1243A64004
:103FBC00F67A001250E1242E1243A640F67A001233
:103FCC0050E124301243A640F67A001250E124321C
:103FDC001243A640F67A008A0AEE250AF8EF124937
:103FEC00211243B3940540EFEE2437124B73541F48
:103FFC00F8EE242A124B73C43354E048F5D975E11A
:10400C00959011B1748BF0A3740BF0A37491F0A381
:10401C00740B1240687497F0A3740B1240869008CE
:10402C000E123F0C9093FF121618120D0590941F50
:10403C00121618120CCF90600DE4F07901120D5984
:10404C009004997406F0023D70E875F006A4C8AAB5
:10405C00F02AF974C928FE740439FF22F0A3124027
:10406C007112407122124075227485F0A3740BF00A
:10407C00A37485F0A3740BF0A32212408A22F09053
:10408C0011BF124096A3124096221240757485F00F
:10409C00A3740BF02274EC12179F9007FF124C299B
:1040AC0078101215FA900810E0FAF875F006A4C80A
:1040BC00ACF02CF974F728F582740439F583E0FE22
:1040CC00A3E0FFEEC333FEEF33FF8E0CF50D750E40
:1040DC0000750F0085100885110985120A85130BD0
:1040EC0090942B780812156078081219AE85100878
:1040FC0085110985120A85130B7808790C12154D58
:10410C007810790C1214A5E4F50EF50F7808790CDB
:10411C001215868A0C750D007403780C121717781B
:10412C0008790C12154D90941378081215C1AA0831
:10413C00AB09AC0AAD0B121F2774041217408A0886
:10414C008B09A808A909C3EE98EF995006E82EF838
:10415C00E93FF9E890600EF0E9A3F0EEA3F0EFA3CD
:10416C00F090600D74C1F07F0C021871C082C08396
:10417C009007E81241989007FC023DACC082C083C6
:10418C009007FF12419890080E023DAC124C2DA3E3
:10419C00A3A3A3E4F0A3F02202012274F212179F4E
:1041AC001242F2F50AEF1246696004780480027834
:1041BC0000E8240EF8EAC398500302425075080C2C
:1041CC00900818E4F0EE2477124B73900819F079EC
:1041DC0002EE2478FCEF3400FD7A1A7B08120B07F0
:1041EC007902EE247A124255247C124255247EFC2C
:1041FC00EF3400FD120B07EE2475124308850A827A
:10420C00850B83E060167508187509087808121973
:10421C00B27C0C12477D12174075081074012508EA
:10422C00F5D975D90378008009880A7418250A1203
:10423C0042E7E8C3950840F175E1957904120D0B3E
:10424C0079018002790002491CFCEF3400FD120B4D
:10425C00077902EE2274F212179F1242F2F508EF60
:10426C003400F509850882F583E060047804800247
:10427C007800E8240AF8EAC3984055750A089008B3
:10428C00187401F079057CE27D077A197B08120B12
:10429C0007EE2481124308850882850983E06016A5
:1042AC0075081875090878081219B27C0812477D30
:1042BC00121740750A0C12457080031242E1E8C3D4
:1042CC00950A40F775E1957904120D0B790180027E
:1042DC00790002491C880874182508F582740812A4
:1042EC004B7AF5D908221242F622EAFEEBFF9061D6
:1042FC00D0E0F87480C398FAEE248322FCEF3400EB
:10430C00FD8E828F83A3A3A3A3A31244298C828D39
:10431C0083E028F0A3E039F07902120B072274F63F
:10432C0012179FEAFEEBFF9061D0E0706275D9180E
:10433C0075D90375D9037A008A08EE25081250E660
:10434C00249C1243CA40F17A008A08EE25081250C8
:10435C00E624A41243A640F17A008A08EE2508123E
:10436C0050E624941243CA40F17A008A08EE2508DC
:10437C001250E624881243A040F175E1957908EEBD
:10438C0024941243C324881243BA124495800279B0
:10439C000002450E1243AC9404221243AC94022248
:1043AC00F582E93400F583E0F5D90AEAC322FAEF85
:1043BC003400FB120B0D221243BA7904EE22124385
:1043CC00AC94082274F612179FEAFEEBFF900818C3
:1043DC0074061244881219B27C01790312478312B5
:1043EC00174075D90675D903780012446D40FB75DA
:1043FC00E195900499E064087017EE2470F582EF53
:10440C00124422EE2472F582EF124871E8F0A3E90F
:10441C00F0790102450E12492E12442922E0F8A32C
:10442C00E0F92274F612179FEAFEEBFF9061D0E0E0
:10443C00702A900818740A1244881219B27C0179F7
:10444C000312478312174075D90675D903780012E9
:10445C00446D40FB75E19512449A80027900024547
:10446C000E880874182508F582740812447D94058A
:10447C00223400F583E0F5D908E8C322F07508185A
:10448C0075090878082275E1957904120D0BEE2454
:10449C0070F582EF12492E124429EE2472F582EF48
:1044AC0012492EE8F0A3E9F079012274F612179F55
:1044BC00EAFEEBFF9061D0E070437901900818742C
:1044CC000BF0900499E064077017750818750908CB
:1044DC0078081219B27C0109091247831217407926
:1044EC0005740129F5D975D903780080031242E1CE
:1044FC00E8C39940F875E19512449A8002790080DE
:10450C0001F07F02021871F582EF124B7AF5D92275
:10451C0074F512179F12459F60047804800278008E
:10452C00E8240BF8EAC3984036750A099008187409
:10453C0008F0F91245886014750818750908780890
:10454C001219B212477B121740750A0D1245708072
:10455C00031242E1E8C3950A40F7124492800279B3
:10456C00000247EA7401250AF5D975D903780022AF
:10457C00EE241DF582EF124883A3F022EE24E5FC15
:10458C00EF3400FD7A197B08120B07850882850928
:10459C0083E0221242F6F8EF124CFDF583E0227410
:1045AC00F312179F8A088B0912478EFAE5082483A9
:1045BC00F50AEB1246696004780480027800E8245E
:1045CC0008F8EAC3985003024662750C0690081866
:1045DC00740CF09004B6E0900819F07402C0E0F985
:1045EC007CB77D047A1A7B08120B07D0E0F97CB9F2
:1045FC007D04120B07850A82850B83E0601C750A0B
:10460C0018750B08780A1219B27C067903AA08AB44
:10461C0009124783121740750C0A7401250CF5D941
:10462C0075D90378008009880A7418250A1242E7A4
:10463C00E8C3950C40F175E1957904120D0BE50872
:10464C002470F582E509124422E5082472F582E50E
:10465C00091244AC800279007F050218713400F510
:10466C000B850A82F583E02274F612179FEAFEEBA3
:10467C00FF12478EFCEE2483F8EF12478960047A10
:10468C000480027A00EA2404FAECC39A405E7A02AF
:10469C00900818EAF0EE24F7F582EF12470460193F
:1046AC0075081875090878081219B27C027903EE9E
:1046BC00FA1247831217407A0674012AF5D975D974
:1046CC0003780080031242E1E8C39A40F875E19543
:1046DC00EE24741246FDEE24801246FD12457C79C0
:1046EC0004120D0BEE240D12449D8002790002453C
:1046FC000EF582EF12488322124B7A900819F0883B
:10470C00828983E02274F612179F12478EFEEA24E8
:10471C0083F8EB12478960047C0480027C00EC2453
:10472C0004FCEEC39C40437C029008187407F0EA2A
:10473C0024F8F582EB124704601575081875090802
:10474C0078081219B279031247831217407C067449
:10475C00012CF5D975D903780080031242E1E8C326
:10476C009C40F875E19579018002790002450E7C38
:10477C00097903EEFAEFFB120B79740222123E1741
:10478C00E0229061D0E0F87480C3982274F512177F
:10479C009FE9FEA2AFE433F50AC2AF7F00EA246FB3
:1047AC00F8EB3400F980010F88828983E0FCEFC3B9
:1047BC009C50188F08EA2508FCEB3400FDEC246BA8
:1047CC00F582ED124B766E70DE800DEA2CFAEB1250
:1047DC004B06EE12470A04F0E50AA2E092AF7F0303
:1047EC0002187174F612179FA2AFE433FFC2AFEA3E
:1047FC00246FF8EB1250E8FCE9FD8C828D83E014F9
:10480C00F07E00801E8E08EA2508F8EB1250E82492
:10481C006CF582E9124B76C0E0E8246B12486ED03E
:10482C00E0F00E8C828D83E0F8EEC39840D7EA243A
:10483C006EF582EB12487174FF124875EFA2E0928C
:10484C00AF02450EC082C083E5A8F8C2AFEA246B64
:10485C00F582EB124871E9124875E8A2E792AF02B3
:10486C003DAFF582E912492E22F0EA246AF582EB7B
:10487C0012488322F582E93400F583E4F02274F2C5
:10488C0012179F8C828D83A3A3A3A3E0541FF0EA7D
:10489C002436124E308E828F83E4F0F50C850C8218
:1048AC0085820AEC250AF8ED124CF9F583E0C0E09C
:1048BC00EA250AF8EB124921D0E0F0750D008508C5
:1048CC0082850983E0F50A750B00E50D780A12164E
:1048DC00F8E50AA2E05027E50C33333354F8250DE4
:1048EC00C0E08E828F83E0F8EA28F8EB1250E824BF
:1048FC003812486ED0E0F08E828F83E004F0050D04
:10490C00E50DC3940840B7050CE50CC39405408D28
:10491C007F060218713400F9E8245D12492B22F548
:10492C0082E93400F583222508F5822274F61217E9
:10493C009F9004C5E0640370077A007B0002450E6B
:10494C007C00ECF875F006A4C8AAF02AF974CB2800
:10495C00F582740439F583E06003024AEA124D7261
:10496C00124B18E4F0E82404FAE93400FBEAFEEBFD
:10497C00FFEC8E828F83F0E82462124AF7246512D2
:10498C004B27246812486E124B18A3A3E4F0A31211
:10499C004BBCA3124B2B240F124AF72435124AFF9F
:1049AC00121618E8241812486E121624E8241C1249
:1049BC004B13241D124B272480124B132474124BBF
:1049CC0013246912486E7480F0E8246A124B132485
:1049DC006F124B132467124B1324ED124B1324EE5E
:1049EC00124B1324EF124B1324F0124B1324F1121D
:1049FC004B2724F3124B2724F6124B132483124B10
:104A0C001324D3124B1324D4124AFF121618E82481
:104A1C00D512486E121624909447121618E824D911
:104A2C0012486E121624E824DF124B1324E1124BA9
:104A3C001324DD124B1324E2124B1324E3124B13F9
:104A4C0024F9124B2724FB124B2724FD124B27244D
:104A5C00FFF582E9124582FC8C08E82508FAE91278
:104A6C004B0674FFF00CECC3940440EC7C008C827D
:104A7C00AA8274E22AF5827407124B76C0E0E82A07
:104A8C00FAE93400FBEA245DF582EB124871D0E0C0
:104A9C00F00CECC3940540D67C008C82AA8274ADD9
:104AAC002AF5827404124B76C0E0E82AFAE9340045
:104ABC00FBEA24E5F582EB124871D0E0F00CECC374
:104ACC00940840D69004C5E004F0640170098E820D
:104ADC008F83E09004C7F0E8FAE9FB0249490CEC3B
:104AEC00C39403400302494502494E12492B7401F9
:104AFC00F0E822124880909447223400FBEA246BA1
:104B0C00F582EB12492E22124880E8227401124BD6
:104B1C001E22F088828983A3A3A32212492BE4F0DE
:104B2C00A3F0E822C082C083EA2403F582EB124B87
:104B3C00766008E4F09004C6E014F09004C5E0142C
:104B4C00F070069004C774FFF08A828B83A3A3E4F1
:104B5C00F09007E7E0700D9004C6E06401700579F1
:104B6C0000120CD5023DAFF582EF124B7A223400C5
:104B7C00F583E022C082C0837B00EBF875F006A4BD
:104B8C00C8AAF02AF974C528F87404124D7CA3A3A2
:104B9C00A3A3A3E4124BBCF00BEBC3940340DB9038
:104BAC0004C5E4F0A3F0A374FFF075E1F1023DAF8E
:104BBC00124B1EA3A3A32274F512179F7508007540
:104BCC000900750A00A80A1240558E828F83A3A390
:104BDC00A3E0602DE5084509700AEEF8EFF98808A6
:104BEC008909801D850882850983124C291219C5F3
:104BFC00124C25121618121ECA7404121740E960C2
:104C0C00D9050AE50AC3940340BB8508828509834C
:104C1C00A3A3A3A3E0F90247EA8E828F83124C2D43
:104C2C0022E0F8A3E0F5838882A3A32274F712177D
:104C3C009F78FF79FF7F00EFFC75F006A4CCAEF0F7
:104C4C002EFD74C92CFC74043DFD8C828D83A3A3B2
:104C5C00A3E06040EC2474F582ED124B76FE74FFF9
:104C6C0068700374FF69701574016E700BEC247A14
:104C7C00F582ED124422801CEC242E80F374016E1C
:104C8C00700AEC247A124CB7500A80E1EC242E12F4
:104C9C004CB740E40FEFC39403409CC3EA98EB99E4
:104CAC004004E8FAE9FB7F01021871F582ED124924
:104CBC002EC3E098A3E0992274F612179FEAFEEB3C
:104CCC00FF120AADEE2465F8EF124CF9124D07EC09
:104CDC004D60109004C712501D850882850983E42D
:104CEC00F0A3F0EEFAEFFB120BFD02450E124CFD99
:104CFC00223400F988088909888222F583E0FCA314
:104D0C00E0FD2274F712179FEAFEEBFF8E828F8371
:104D1C00A3A3A3A3E0FA7B0012082BEEFAEFFB127D
:104D2C000AC5120BDF024CB2C082C0837B00EBF8C9
:104D3C0075F006A4C8AAF02AF9124D72A3E0601A05
:104D4C00E8246FF582E9124B76600FE8246BF5824C
:104D5C00E9124B767004790180090BEBC394034084
:104D6C00CD7900023DAF74C928F87404124D7C2231
:104D7C0039F988828983A3A32274F612179F7800CD
:104D8C00880874AD124933740412470008E8C394C0
:104D9C000840ED9004AD740102450DC082C08374CF
:104DAC00FC12172A909447121618851882851983BD
:104DBC00121624120B13E9851882851983F0120B35
:104DCC00137401121793E9F0120B13740212179358
:104DDC00E9F08518828519831216187404023AD8E2
:104DEC0074F612179FEA240D124E30EC2403F8EDE2
:104DFC003400F988088909EC2407F8ED1250E8FC16
:104E0C00E9FD124E3A12169F8E828F83E8F0A3E9C9
:104E1C00F0124E3A12169F8B09EA45096003124EA6
:104E2C004D02450EF8EB3400F9E8FEE9FF228C82C6
:104E3C008D83124429850882850983E0FAA3E0FB5F
:104E4C00228E828F83E02401F0A3E03400F02274E0
:104E5C00F612179FEA242EF582EB3400124D07EA66
:104E6C002470124E30780079FAECFAEDFB12169F92
:104E7C008E828F83E8F0A3E9F0780079FAECFAEDF2
:104E8C00FB12169F8B09EA45096003124E4D024531
:104E9C000E74F012179FEAFEEBFF74101217937842
:104EAC00081215FA120C938A0C8B0D8C0E8D0F9028
:104EBC009437780C121560909413780C1215C178F5
:104ECC000C1219AE124C25121618121ECA740412AA
:104EDC001740E96003024F818E828F83E02402F831
:104EEC00A3E01250E8FAE9FB8A828B83780812154A
:104EFC007390941378081215FA8A828B83780812AF
:104F0C0015D4EE240BF582EF124871C082C0838E4B
:104F1C00828F83A3A3A3A3A3E02401F8A3E034000E
:104F2C00F9D083D082E0687003A3E0697004790142
:104F3C008045EE2407F8EF123E17124E51EE247402
:104F4C001250ED7014EE2475124F887003A3E06DAF
:104F5C0070078A828B83124E51EE24801250ED70B2
:104F6C0014EE2481124F887003A3E06D70078A82BF
:104F7C008B83124E5179007F08021871FAEF3400BE
:104F8C00FB8A828B83E0FCA3E0FD88828983E06C42
:104F9C002274F312179F9004C7E0F8124056EE24C7
:104FAC0004F50AEF3400F50BEE2465F508EF340038
:104FBC00F5098010124D09850882850983E4F0A358
:104FCC00F0125017850882850983124D09EC4D604B
:104FDC0030EE2464124B73F50C780C1219B6EE24D7
:104FEC0063124B73F9EEFAEFFB120AFB7401121702
:104FFC0040E985088285098360BA124425E8497026
:10500C00077C007D00125017024664850A82850BCE
:10501C0083E0FA7B001207E32274F212179FEAFE78
:10502C00EBFF890A740E121793E0FAEE2462125009
:10503C00ED60030250DC12478EF50CEE2483124B0C
:10504C0073FB60047804800278008908E928F8E48E
:10505C001250E824020808E93400F9E50C98E499A8
:10506C00A2D265D0334065EA7005750B02800375DA
:10507C000B01EB603375090078081219B27A187BB2
:10508C0008120B437402121740750818750908783A
:10509C00081219B2AC0AA90B12477F1217407404FC
:1050AC00250AF50A7C187D087401250AF5D9850BAB
:1050BC00D97800800A8808EC124933ED1242EBE8EB
:1050CC00C3950A40F075E195790080067907800256
:1050DC0079FF02491C8A0AEE250AF8EF3400F9E838
:1050EC0022F582EF124B7A640122C082C0838003C6
:1050FC00125124E9F874FF28190470F4ECFAEDFB52
:10510C00023DAFC082C0838003125124E9F874FFC2
:10511C0028190470F4023DAF8C828D83E08A828B57
:10512C0083F08C828D83A3AC82AD838A828B83A324
:10513C00AA82AB832274F412179FE9FF7E008A08BF
:10514C008B0978081219F600040F125378519451F8
:10515C00A951BE51D351E85104521D522F525D52E8
:10516C007F529B52B752D5521253F65274016F7044
:10517C00128C828D83E0C394035008E09011D3F01D
:10518C000253307E1802533074026F70F68C828D8D
:10519C0083125B219011D4E8F0A3E980E274016FD3
:1051AC0070E18C828D83E0C3940250D7E0900DDEC9
:1051BC0080CD74016F70CC8C828D83E0C3940550CC
:1051CC00C2E0900DDF80B874016F70B78C828D8354
:1051DC00E0C3940250ADE0900DE080A374106F70AA
:1051EC00A27508108E0978081219B27AE17B0D129B
:1051FC005F0E12174002533074016F70868C828DD3
:10520C0083E0C39402400302518FE0900DF10251F0
:10521C008B74016F600302518F8C828D83E090112F
:10522C00D7808D74046F600302518F90943F78087F
:10523C001215FA8D838C8278081213F640030251F2
:10524C008F8C828D83121618900DF3121624025334
:10525C0030EF600302518F12050DE9700E12118BA5
:10526C00795012135F12117F025330900E86740125
:10527C0002518B74016F600302518F8C828D83E01D
:10528C00C39402400302518FE0900DF202518B74D3
:10529C00016F600302518F8C828D83E0C3940A40AE
:1052AC000302518FE09011D602518B74016F600391
:1052BC0002518F8C828D83E024F9C3940A4003023F
:1052CC00518FE09011D802518B74016F6003025121
:1052DC008F900E85E0F88C828D83E0900E85F0E83F
:1052EC007042E06401703D02527174016F60030200
:1052FC00518F8C828D83E0C39404400302518FE064
:10530C009011D902518BC3EA9426EB94005013747C
:10531C00026F700E8C828D83125B2C1203F3E9FEEC
:10532C0080020E0EEEF902533A740E1217407F04EF
:10533C0002187174F212179F74DA12172A890AEC88
:10534C00FEEDFF7434121793E0F50B7420121793D3
:10535C00AC82AD837583937582C6740612163D7448
:10536C0020121793AC82AD83121125E9F508C39472
:10537C000A4003025492121167E9F5099011D3E027
:10538C006402700474018001E4F50C780C1219B6F7
:10539C00AD0BAC09A908EEFAEFFB1211B5740112B2
:1053AC0017407C147D007900740C121793AA82AB01
:1053BC0083120F9975F006E508A4F50B740C1217FF
:1053CC0093AC82AD837A107424250B125FC37038B2
:1053DC007C1079FF740C121793125CC4702A741C25
:1053EC00121793AC82AD837A047425250BF9121332
:1053FC0059740C121793AC82AD83E509A2E0E43327
:10540C00F9EEFAEFFB120489851882851983AC82B8
:10541C00AD837A0C74702508125FC37055851882A1
:10542C00851983AA82AB8312115B750800E5087598
:10543C00F003A4F8A9F0851882851983E58228F871
:10544C00E583125D00125B2CEC4D601D8882898314
:10545C00A3A3E0F50C750D00780C1219B2EEFAEF5F
:10546C00FB12071774021217400508E508C39404D1
:10547C0040BBE509A2E15046900DDDE0F9EEFAEFF4
:10548C00FB12071D80387408650B70329011D3E045
:10549C006402702A7C007D00A90AEEFAEFFB12115F
:1054AC00AF1254D16018125B3288828983E5824531
:1054BC0083600B7C007900EEFAEFFB12179D7900EC
:1054CC007426026353900DF7E0F8A3E0F9E8492243
:1054DC0074F012179FEAFEEBFF8C088D09750A0A0F
:1054EC00E9600C14600914602E14607F025582125E
:1054FC001173E9F50AC3940A507CE50845096076F6
:10550C00750E06750F00780E1219B2EEFCEFFD1237
:10551C005F0A121740805F750B00750E06750F0041
:10552C00780E1219B2EEFCEFFDE50B75F00EA4F837
:10553C00A9F074FF28FA740D39FB120F9374021240
:10554C001740E9601B850B0AE50AC3940A5027E54E
:10555C000845096021AA08AB09A90A12116D801629
:10556C00050BE50BC3940A500D80AF121179E9F5C8
:10557C000AC3940A40D9A90A7F0802187174F4125C
:10558C00179F890875091574FF6A700374FF6B7097
:10559C00277E00AC087A027B00EEF9121149E96013
:1055AC00037509000EEEC3940A40E8E50860497AD9
:1055BC00A37B1112092180401209038A0A8B0BAEBE
:1055CC000AAF0BEE4F602E7C007D00EE2405FAEF47
:1055DC003400FB8E828F83125680500CAC087A02FA
:1055EC007B00121149750900E508600CEEFAEFFB1F
:1055FC001211A38003750914A90902533A74F2120B
:10560C00179FECFEEDFF740E121793125B197508C1
:10561C001574FF6A700374FF6B7021750900AC0A76
:10562C00AD0BEEFAEFFBA90912114FE960037508F7
:10563C00000509E509C3940A503580E21209038A72
:10564C00828B83E582458360237C007D00E5822488
:10565C0005FAE5833400FB1256805013AC0AAD0BEF
:10566C00EEFAEFFB12114F7508008003750814A9B0
:10567C0008026356A3A3A3A3125B03C3940A22C01C
:10568C0082C083900DF7EAF0A3EBF0900DDDE0FC07
:10569C007D007A257B001203F3900DDDE0F91206F4
:1056AC0099D083D08202012274EC12179F8A088B46
:1056BC0009E9FE7414121793780C1215FA7F00EE98
:1056CC00702E78081219B290943F78101215FA784F
:1056DC000C79101214A5AA10AB11AC12AD13120454
:1056EC009B7402121740E9FF60097901AA08AB0903
:1056FC00120495EFF97F0C02187174EA12179F745B
:10570C00EC12172AEAFEEBFFEE240CF514EF340032
:10571C00F5158E828F83A3858212858313EE240A5E
:10572C00F510EF3400F511EE2403F508EF3400F515
:10573C00098E828F83A3A3E024FA7003025ADB2420
:10574C00FD70030259FE1470030257F2146010141A
:10575C007003025A3024FE700302597E025AF9EE8D
:10576C002409F50AEF3400F50B1254D1604AE0F528
:10577C00838882125B21880C890DE8450D60398580
:10578C001482851583E0F50E780E1219B6EE240BF3
:10579C00F582EF3400F583E0F9850A82850B8312DC
:1057AC005B2C0A0A0AAB09850C82850D8312179DA6
:1057BC007401121740025AF9850A82850B8312195B
:1057CC00C9900DF312161812049B7402121740E9BB
:1057DC007003025AF97901850A82850B8312636181
:1057EC00120495025AF9851282851383E060030234
:1057FC005951EE2405F50CEF3400F50D850C82F5AE
:10580C0083E0A2E040030259517C0E7D00790085B3
:10581C001882851983AA82AB83120F99EE2408F59E
:10582C000AEF3400F50B850A82F5831254D4601903
:10583C00750E06750F00780E1219B2850A82850B4B
:10584C0083E02410FCA3E0801A125B0AEA4B70037D
:10585C00025AF9750E06750F00780E1219B2EA2469
:10586C0005FCEB3400FD7402121793AA82AB831271
:10587C005F0E121740850C82850D83E0A2E2500466
:10588C00D2F08002C2F0A2F0E433F8740C12179339
:10589C00E048F08510828511831254D46015851070
:1058AC0082851183E02410F8A3E03400F988828902
:1058BC0083800390943B780C1215FA851082851125
:1058CC00831254D4600F851082851183E0F510A3E8
:1058DC00E0F5118006751000751100850A82850BA4
:1058EC00831254D4600B850A82850B83125B19805A
:1058FC0006750A00750B00780C1219AE7810121987
:10590C00B2780A1219B28514828515831219C98EC0
:10591C00828F83A3125B27740A121793AA82AB831C
:10592C00121161740A121740850882850983125B73
:10593C0021900E87E8F0A3E9F07A017B00900DDD51
:10594C00E0F9120FDB1254D17003025AF9125B32D8
:10595C00E8FEE9FFEE4F7003025AF98512828513B7
:10596C0083E0FC790112635B8E828F8312179D0298
:10597C005AF9851282851383E06406704C125B0A17
:10598C008A0A8B0BEA450B60409011D9E014600831
:10599C0014602814601880317C007D008A828B830F
:1059AC00A3A3A3A3E0F912635B1211AF801B7C00CD
:1059BC007D0079007A097B0412111912635B850A48
:1059CC0082850B83E0F91204831254D17003025ABE
:1059DC00F9125B32890BE8450B7003025AF98E827F
:1059EC008F83A3E0FC790212635B8882850B8302B0
:1059FC0059787C007D00EE2404FAEF3400FB850816
:105A0C0082850983125B03F8C3940A4003025AF996
:105A1C00AC10AD117A0475F006E8A42425F9121324
:105A2C0053025AF9850882850983E0F508A3E0F54D
:105A3C0009740E121793AC82AD837583937582B47F
:105A4C00740612163DAA08AB091209038A0A8B0BBD
:105A5C00A80AA90BE8497003025AF99011D3E06423
:105A6C00027003025AF9E82404FEE93400FF740EB4
:105A7C00121793AC82AD83E82405FAE93400FB8E4F
:105A8C00828F83125B03F50AC3940A501C750B01B9
:105A9C00780B1219B6121167E9FC7408FDA90AAA51
:105AAC0008AB091211B50257BC9011D3E0700979FB
:105ABC0005AA08AB090257EC640170317C007D002B
:105ACC008E828F83E0F9AA08AB091211AF801E12E7
:105ADC00050DE97018900E86E06401700812118BA8
:105AEC00900E86E4F0795012135F12117F74141229
:105AFC0017407F0E021871E0F9121125E922850872
:105B0C0082850983E0FAA3E0FB12090322E0F50A7F
:105B1C00A3E0F50B22E0F8A3E0F922A3A3A3A3A32F
