:020000040000FA
:0600000002010A021DAF1F
:03002B0002204868
:0300330002202A7E
:03003B000220613F
:03004300021FDEBB
:03005300021E2268
:03006B000220046C
:10008300021C63E5C754F84401F5C7790122000057
:100093000080FB120086B900030200F4E4791A78A9
:1000A30002B800028004F709D8FCE4791C7802B88E
:1000B30000028004F709D8FCE4900281788B790F61
:1000C3008002F0A3D8FCD9FA90110BAA82AB8390DB
:1000D300013A78D479018015E493A3AC82AD838A85
:1000E300828B83F0A3AA82AB838C828D83D8E9D9D8
:1000F300E77582C07583CF740312011C75829175F5
:100103008300740012011C75D00075813F7518813E
:10011300751902759F00020096C09FF59FE473D086
:100123009F22D083D082C09FE493C0E0740193C028
:10013300E0740293F59F229903AB03D5039F03FF5A
:100143000000B4000028002800283075A000A0009B
:10015300A000A00000080008E001F000100010005B
:10016300100010001000100050005000500010004C
:100173001000D0070000000000000F000100050080
:10018300307507001000010081FF0000FF0202022A
:1001930092860100007D86028C86010000611102B7
:1001A3008886010000B102028C8601000062110200
:1001B3008686010000C702FFFF0100FF200292862E
:1001C3000100008086028C8601000090110298864F
:1001D3000000000000028A86030000A4030D0B0D3B
:1001E3000B0D0B0D0B0D0B0D0B0D0B0D0B0D0B0D4C
:1001F3000B0D0B0D0B0D0BDB0CF90CD50CFFFF01DD
:10020300E803053F1002FF00FEFF120125A5FE01D2
:10021300120125BBFE01120125E8FE01120125187A
:10022300FF011201252FFF0112012550FF011201C9
:100233002581FF01120125D2FF01120125E9FF01EA
:1002430012012506C1031201251DC1031201254C0C
:10025300C10312012585C103120125ADC10312019A
:1002630025DBC103120125F2C10312012509C203D3
:100273001201251FC20312012546C203120125598B
:10028300C2031201256FC20312012597C203120193
:1002930025DDB602120125DCB70212012506B802DC
:1002A3001201255BB8021201257CB80212012595C3
:1002B300B80212012597B802120125B8B80212013B
:1002C30025BBB90212012578BA0212012545BB02EA
:1002D300120125A9BB0212012540BC0212012543CC
:1002E300BC02120125C9BC021201250CBD02120178
:1002F300255EBD0212012561BD0212012598BD02D2
:10030300120125BFBD0212012555BE02120125DED1
:10031300BE0212012527BF0212012534BF021201BA
:100323002537BF0212012595BF02120125ADBF0279
:1003330012012527C0021201252AC0021201254DF0
:10034300C00212012550C002120125F7C00212019A
:10035300251AC10212012532C10212012562C1020E
:100363001201256FC10212012572C102120125DE9D
:10037300C102120125CCC20212012582C30212015D
:1003830025FAC302120125D5C40212012503C502B1
:1003930012012583C502120125A3C502120125E11D
:1003A300C50212012534C6021201259CC6021201A0
:1003B300252DC702120125F8C70212012507CB021A
:1003C30012012573CC0212012596CC02120125627B
:1003D300B003120125F3B10312012544B203120144
:1003E30025A3B203120125B1B203120125DAB20328
:1003F300120125018B03120125298B0312012557B5
:100403008B031201258E8B03120125F68B03120138
:10041300253F8C031201258A8C03120125C88C0306
:10042300120125058D03120125338D03120125DAEF
:100433008D03120125E48D03120125F18D031201B1
:1004430025248E03120125E68E03120125F28E0365
:100453001201250A8F03120125148F03120125921D
:100463008F03120125CECB03120125DCCB0312012E
:1004730025F4CB031201250CCC0312012524CC0354
:1004830012012588F00112012526F1011201259E92
:10049300F101120125B3F201120125EDF20112015E
:1004A3002596F3011201256BF401120125CFF50105
:1004B30012012526F601120125ADF601120125943C
:1004C300F701120125E1F7011201256FF80112016D
:1004D3002593F80112012568FA01120125A9FA01F1
:1004E300120125CBFA0112012590FB0112012556B9
:1004F300FC011201258BFE0112012515A503120132
:10050300252BA50312012551A50312012579A60365
:1005130012012583A603120125DCA703120125DCA2
:10052300A803120125239003120125C5900312018C
:1005330025F89003120125429103120125FC920331
:100543001201253BB101120125B9B101120125C9DF
:10055300B101120125ACB201120125B6B20112019B
:1005630025E4B201120125EFB201120125C8B3013E
:100573001201252AB401120125C6B401120125CAAC
:10058300B60112012581B801120125FDB80112013E
:1005930025DAB90112012508BD01120125A6BD0105
:1005A30012012503BF0112012576C0011201251F87
:1005B300C10112012568C1011201259FC101120168
:1005C3002544C201120125C2C20112012508D3012B
:1005D3001201255DD301120125A2D401120125B216
:1005E300D401120125D5D40112012520D501120110
:1005F30025C5D501120125BBD60112012585D701D9
:10060300120125FDD8011201253FD901120125DD73
:10061300D90112012503DA01120125F1DB011201CF
:1006230025F6DB01120125D7DD011201252BDE01A1
:100633001201258DDE01120125B5DE0112012559B6
:10064300DF011201251BE0011201254CE00112011B
:10065300254FE00112012597E001120125D9E001A0
:1006630012012540E101120125797D001201258C3B
:100673007D00120125957D00120125AE7D0012013A
:1006830025F97D00120125D47E00120125637F0028
:10069300120125AE7F001201258D5A001201259DFE
:1006A3005A00120125005B00120125455B0012016F
:1006B30025F55B00120125CE5C00120125F75C00D5
:1006C300120125275D001201253B5F00120125174A
:1006D3006100120125F762001201252F6400120147
:1006E30025A86600120125946700120125DA680027
:1006F300120125E76900120125296A00120125610B
:100703006A001201257B6A00120125E36A001201C7
:10071300257D6F001201251E7000120125727000E5
:10072300120125997000120125D77000120125F6D8
:1007330070001201254A7100120125527200120144
:1007430025DB72001201250080031201250A8003B4
:10075300120125A680031201257181031201259040
:100763008103120125B68103120125F581031201CC
:10077300252D82031201255682031201259082033F
:10078300120125A582031201257283031201259507
:100793008303120125B78303120125CC83031201BE
:1007A3002556840312012590840312012504850331
:1007B3001201254D85031201257785031201259C1E
:1007C300850312012529A103120125F3A1031201B7
:1007D30025D6A2031201254CA3031201258EA303E0
:1007E300120125BBA403120125A89B02120125D1E6
:1007F3009B02120125EA9B021201252F9D02120181
:10080300250D9E021201252C9E02120125B99E027E
:10081300120125FC9E0212012534A002120125A01B
:10082300A00212012596A20212012524A50212019B
:1008330025B7A5021201258BA6021201252EA702B8
:1008430012012541A802120125D7A802120125C8C9
:10085300C80312012531C90312012585C9031201F9
:1008630025B4C9031201259F94031201250C950396
:100873001201255795031201254C960312012548B1
:10088300970312012532980312012524E502120170
:10089300256BE50212012544E6021201253FE7021A
:1008A3001201251EE8021201258AE802120125A67B
:1008B300E9021201250DEA0212012510EA021201D2
:1008C300253BEA02120125ACEA021201254FEB0295
:1008D30012012564EB02120125ACEB02120125C5BE
:1008E300EB02120125C8EB02120125F2B303120138
:1008F300252EB4031201256CB40312012536B5036A
:10090300120125A9B503120125E4B503120125221D
:10091300B60312012552B60312012579B60312015B
:1009230025E4B60312012526B703120125A086018B
:10093300120125BE88011201256D8A011201251DB0
:100943008B01120125688B01120125B38B01120162
:1009530025C58B01120125058C011201253A8C0155
:10096300120125868C01120125B58C01120125D8AF
:100973008C011201255F8D011201254B8E0112019D
:1009830025898F011201258B9001120125679201A0
:100993001201258B9701120125D197011201250F11
:1009A3009801120125449A01120125F8FD02120152
:1009B3002598FF02120125D420001201256B210086
:1009C300120125B12100120125E722001201257E23
:1009D3002400120125F624001201253825001201F6
:1009E30025882500120125F326001201255E290022
:1009F3001201253A2A00120125592A0012012578ED
:100A03002A001201257B2A00120125012C00120164
:100A130025F62C00120125F22D00120125622E006D
:100A2300120125D42E00120125532F001201252E69
:100A33003000120125353100120125143200120154
:100A4300259F32001201250D330012012581330049
:100A5300120125AA330012012569340012012578F9
:100A63003700120125C13700120125043800120195
:100A7300258738001201252B3900120125BC3900C6
:100A8300120125E139001201252B3A0012012555E7
:100A93003A001201259A3A00120125153B00120172
:100AA300256F3B00120125C33C00120125803D0048
:100AB300120125533E00120125D98D021201252969
:100AC3008E02120125358E02120125128F021201A8
:100AD30025428F021201257A8F02120125F98F0216
:100AE300120125319002120125839002120125C0C3
:100AF3009002120125E592021201251195021201BD
:100B0300250C9702120125E79802120125EEFF0238
:100B130012012533F80212012565FC02120125B5E5
:100B2300FD0212012576C30112012548CA011201F3
:100B3300254ECA01120125FECC01120125C48503ED
:100B43001201257086031201253E870312012568D1
:100B53008703120125B68903120125813E00120184
:100B630025CB3E001201257D4B00120125FE4C00D2
:100B7300120125F64D00120125555400120125508E
:100B830055001201258D5500120125B055001201A3
:100B930025F25500120125FC5500120125E85600E7
:100BA300120125DC57001201257558001201256E2C
:100BB300B7031201256CB803120125C2B803120151
:100BC3002500B9031201255DB903120125DAB90322
:100BD300120125E3B903120125EFB903120125021E
:100BE300BA031201253EBA0312012554BA031201B6
:100BF30025ECEB02120125F9EB0212012513EC029D
:100C030012012552EC0212012590EC02120125F586
:100C1300EC021201250AED0212012521ED02120157
:100C2300252FED021201253EED0212012553ED029F
:100C330012012568ED0212012573ED021201257FD1
:100C4300ED021201258CED021201259BED0212012A
:100C530025A6ED02120125CBED0212012574EE0249
:100C630012012589EE021201259EEE02120125B81A
:100C7300EE02120125D3EE02120125F0EE0212015B
:100C830025FBEE02120125B7EF02120125A3F002A4
:100C9300120125C8F002120125D2F002120125E645
:100CA300F00212012505F10212012566F10212017B
:100CB300256CF10212012572F10212012578F1026D
:100CC30012012584F102120125B7F1021201254216
:100CD30073001201256E7300120125527400120174
:100CE30025EC76001201250278001201251F7900F8
:100CF300120125C27900120125687A0012012553D9
:100D0300A902120125D5A9021201257EAA02120108
:100D130025C6AB02120125D4AD02120125BAAE02DB
:100D2300120125EFAE0212012511AF02120125BAFD
:100D3300AF021201258AB102120125B3B1021201D9
:100D4300252BB2021201255DB2021201256AB202FD
:100D5300120125B5B202120125D9B2021201252AC8
:100D6300B50212012534B60212012590B602120112
:100D7300250AE2011201251BE301120125FFE3010C
:100D830012012509E4011201252BE4011201253783
:100D9300E401120125DBE50112012508E601120138
:100DA300251EE70112012573E701120125C2E8019F
:100DB30012012597E901120125F3E9011201255ECC
:100DC300EA0112012593EA01120125D6EA01120173
:100DD30025A0ED01120125B8ED0112012549EE010F
:100DE30012012557EE01120125A4EE01120125B2CD
:100DF300EE011201251EEF0112012599EF011201E7
:100E030025F0EF011201254DBF0312012572BF0327
:100E1300120125E8BF0312012535DE021201253E2A
:100E2300DE0212012547DE021201251FDF02120135
:100E330025D0E00212012500E1021201252BE10277
:100E43001201255BE10212012586E102120125BA96
:100E5300E102120125E6E10212012529E202120153
:100E63002554E2021201259BE202120125F0E2025F
:100E730012012532E3021201258CE302120125B788
:100E8300E30212012506E40212012536E4021201EF
:100E93002561E40212012584E4021201250BCE032D
:100EA30012012537CE0312012564CE031201256EEC
:100EB300CE031201257ECE0312012504D6021201B0
:100EC300250ED6021201254FD60212012598D6020D
:100ED300120125D2D60212012528D7021201254973
:100EE300D702120125F8D90212012501DA021201F3
:100EF3002555DA021201257EDA0212012588DA026B
:100F0300120125F6DA0212012586DB02120125E120
:100F1300DB021201250FDC0212012597DC0212010C
:100F230025D6DC021201250BDD021201251DDD028F
:100F33001201253CDD0212012545DD0212012507C0
:100F4300DE02120125D7CA031201255CBD0312017B
:100F53002592BD03120125C6BD0312012513BF034C
:100F6300120125F7CE031201250DCF031201251718
:100F7300CF03120125F498031201250799031201E7
:100F830025CB99031201250A9A03120125279A03F7
:100F9300120125609A03120125AD9A03120125DF80
:100FA3009A03120125169B03120125299D031201A1
:100FB3002561CF0312012541C40312012564C40333
:100FC30012012593C4031201252BC50312012543E6
:100FD300C50312012585C503120125CEC5031201E0
:100FE30025DCC5031201254DC603120125A6C60340
:100FF300120125C4C60312012534F202120125761B
:10100300F202120125F6F20212012509F30212017E
:10101300255EF302120125B2F302120125F7F30252
:1010230012012506F402120125B5F402120125105E
:10103300F5021201255FF502120125B9F50212012D
:1010430025C6F602120125BEF702120125FBF7029F
:1010530012012588CE031201255D9C011201255B37
:101063009E01120125F89F01120125A5A00112017D
:101073002525A101120125A7A101120125D0A10156
:1010830012012522A2011201255BA601120125D21C
:10109300A601120125E9A70112012523A8011201C6
:1010A3002564A801120125ABA901120125DAA901C2
:1010B30012012530AA0112012579AA01120125E5A1
:1010C300AA0112012559AB0112012587AB011201B7
:1010D300259FAB01120125B8AC01120125C8AC0153
:1010E30012012583AE011201259AAE01120125CC0E
:1010F300AE0112012569B001120125FDB0011201F3
:1011030025BDCC03120125CECC0312012513D00338
:1011130012012552D003120125DDD0031201256EE1
:10112300CD031201257ECD0312012599CD031201B2
:101133002501CE03120125D5C9031201255ACA037D
:10114300120125BECA031201254EC70312012577DA
:10115300C703120125E2C70312012533C803120195
:10116300258EC803120125369D03120125639D03B5
:10117300120125D59D03120125EA9D031201250BBA
:101183009F031201258E9F0312012507A00312015D
:101193002526A00312012549A00312012586A003D9
:1011A3001201259EA003120125F4A003120125B10B
:1011B300AC03120125C8AC0312012542AD03120191
:1011C3002526AE03120125FDAF03120125E6A80370
:1011D30012012576A903120125FFA9031201259BFC
:1011E300AA031201252CAB03120125DCAB03120168
:1011F30025EAAB0312012568AC031201257BAC037E
:1012030012012591AC031201259BAC03120125AEFB
:10121300AC03120125A9C203120125FBC20312016B
:10122300256EC303120125DBC30312012584BA0310
:10123300120125AEBA031201257DBB031201255904
:10124300BC03120125EABC03120125CECD02120113
:10125300259ACE02120125DBCE0212012515CF02FB
:1012630012012573CF02120125C7CF0212012525D2
:10127300D002120125BBD002120125C3D1021201F3
:10128300254DD302120125EBD30212012552D402BC
:1012930012012565D40212012559D502120125A296
:1012A300D5021201250080021201251881021201C4
:1012B30025F58102120125D48302120125AC840293
:1012C300120125F28402120125A08702120125F0E2
:1012D30087021201258E8802120125C0890212019C
:1012E30025668A02120125ED8A02120125448B022A
:1012F3001201257D8B0212012592D0031201255C78
:10130300D003120125D87F00120125BFD003E06668
:10131300701008A3E066700A08A3E066700408A3CF
:10132300E06622C3E7960809E7960809E7960809E5
:10133300E79622C3E09608A3E09608A3E09608A3E5
:10134300E09622C008C3E096F50808A3E096420899
:1013530008A3E096420808A3E09645087001D3D09D
:101363000822080808EAC0E0EBC0E086F0E7A4FA28
:10137300180986F0E7A42AFA180986F0E7A42AFADE
:10138300180986F0E7A42AFA1986F0E7A4FBE5F02A
:101393002AFA190886F0E7A42BFBE5F03AFA1908B4
:1013A30086F0E7A42BFBE5F03AFA18180986F0E774
:1013B300A4C5F02BFBE43AFA1908E7C5F0C6A42646
:1013C300F6E5F03BFBE43AFA1886F0E7A4F6E5F01D
:1013D3000826F6E43B08F6E43A08F6D0E0FBD0E052
:1013E300FA22E4CFC0E0E4CEC0E0E4CDC0E0E4CC38
:1013F300C0E075F020C3E633F608E633F608E633BB
:10140300F608E633F6181818EC33FCED33FDEE332B
:10141300FEEF33FFC3EC9709ED9709EE9709EF97BA
:10142300191919400FFFEC97FC09ED97FD09EE9789
:10143300FE191906D5F0BEECF709EDF709EEF70929
:10144300EFF7191919D0E0FCD0E0FDD0E0FED0E0B1
:10145300FF226016080808C6C313C618C613C618A9
:10146300C613C618C613C6D5E0EA227009080808D1
:10147300226016181818C6C333C608C633C608C672
:1014830033C608C633C6D5E0EA22E627F60809E6DE
:1014930037F60809E637F60809E637F622E026F6B6
:1014A30008A3E036F608A3E036F608A3E036F622F2
:1014B300E026F008A3E036F008A3E036F008A3E046
:1014C30036F022C3E697F60809E697F60809E69789
:1014D300F60809E697F622C3E096F008A3E096F033
:1014E30008A3E096F008A3E096F022E657F6080971
:1014F300E657F60809E657F60809E657F622E056D6
:10150300F608A3E056F608A3E056F608A3E056F65D
:1015130022E056F008A3E056F008A3E056F008A333
:10152300E056F022E066F608A3E066F608A3E0665C
:10153300F608A3E066F622E0F608A3E0F608A3E0C7
:10154300F608A3E0F622E6F008A3E6F008A3E6F027
:1015530008A3E6F022E0FAA3E0FBA3E0FCA3E0FD8E
:1015630022EAF0A3EBF0A3ECF0A3EDF022CAC0E073
:10157300E6F0A308DAFAD0E0FA22CAC0E0E0A3C595
:1015830082CCC582C583CDC583F0A3C582CCC58279
:10159300C583CDC583DAE6D0E0CA22C3E498F8E474
:1015A30099F91215DF8026C3E49AFAE49BFBE9203C
:1015B300E7E91215DFE498F8E499F922C3E498F80F
:1015C300E499F91215DFE498F8E499F9C3E49AFA77
:1015D300E49BFB22EB20E7CFE920E7E0B90010BB57
:1015E3000008E88AF084F8AAF022E4FBC8FA22EBA8
:1015F30070227B10C833C8C933C9335007C39AC399
:10160300DBF280069A50012ADBEAC833F4C8C933F7
:10161300F4C9FA2275F008E4C833C8C933C933C919
:101623009AC99B5004C92AC93BD5F0ECFBC833F4D3
:10163300C8E4C9FA22600D08C6A2E713C618C61388
:10164300C6D5E0F322600C08C6C313C618C613C67A
:10165300D5E0F422700422600D18C6C333C608C651
:1016630033C6D5E0F41822251810AF08F518400248
:1016730015198008F51840021519D2AF22C0D025DC
:101683001810AF08F518500205198008F518500214
:101693000519D2AFD0D0222518F58210AF08F5185E
:1016A300400215198008F51840021519D2AF8519A3
:1016B3008322C5822518C582C583351910AF07F566
:1016C300198582188007F519858218D2AFC5832240
:1016D3002518F582E43519F58322E4732518C582AC
:1016E300C0E0E51934FFC583C0E0E518C395822443
:1016F300F810AF08858319858218800885831985BA
:101703008218D2AFCEF0A3E520F0A37808E608F064
:10171300A3DEFAEFF0A3E58124FAF8E608F0A3E6E6
:1017230008F0A3E608F0A30808E608F0A3E608F02B
:10173300A315811581D0E0FED0E0F8158115811540
:1017430081E8C0E0EEC0E0222518C582C0E0E519BB
:1017530034FFC583C0E0E518C3958224F910AF08B0
:101763008583198582188008858319858218D2AFED
:10177300CEF0A3E520F0A37808E608F0A3DEFAEFA5
:10178300F0A3E58124FBF8E608F0A3E608F0A3083C
:1017930008E608F0A3E608F0A315811581D0E0FE62
:1017A300D0E0F815811581E8C0E0EEC0E02285198C
:1017B30083851882E0A3FEE0A3F5207808E0A3F672
:1017C30008DFFAE0A3FFE0A3C0E0E0A3C0E0E0A3EA
:1017D300C0E0E0A3C0E0E0A3C0E010AF088582183A
:1017E3008583198008858218858319D2AFD083D069
:1017F30082020122851983851882E0A3FEE0A3F506
:10180300207808E0A3F608DFFAE0A3FFE0A3C0E036
:10181300E0A3C0E0E0A3C0E0E0A3C0E010AF088510
:1018230082188583198008858218858319D2AFD0E1
:1018330083D08222C0D02518C582C0E0E51934FFC9
:10184300C583C0E0E518C3958224F310AF088583F0
:10185300198582188008858319858218D2AFC8F04C
:10186300A3E9F0A3EAF0A3EBF0A37908E709F0A357
:10187300D8FAECF0A3EDF0A3EEF0A3EFF0A3D0E0E1
:10188300F0A3D0E0F0A3D0E0F0A3E520F0A3E5F0CF
:10189300F0A322851983851882E0C0E0A3E0F9A3B1
:1018A300E0FAA3E0FBA37808E0F608A3DFFAE0FC84
:1018B300A3E0FDA3E0FEA3E0FFA3E0C0E0A3E0C03C
:1018C300E0A3E0F5D0A3E0F520A3E0A3F5F010AF8B
:1018D300088583198582188008858319858218D223
:1018E300AFD082D083D0E0F8D0E0327404800674A5
:1018F3000280027401C0E0F40412169AD0E01215BB
:1019030070227404800474028000CCC0E0EDC0E057
:10191300E518C39CCCAD1950011D10AF068C188D72
:101923001980068C188D19D2AF12157DD0E0FDD029
:10193300E0FC22D083D082E9C0E0E493A3C386F025
:10194300C5F095F0F908E493A386F0C5F095F0701F
:101953000BE493A3C3994005E9048002A3E475F063
:1019630002A42582F582E5F03583F583D0E0F9E41E
:1019730093A3C0E0E493C0E022D083D082ECC0E024
:10198300EDC0E0E493A3FCE493A3FDED4C600D12E2
:1019930019C8EC24FFFCED34FFFD80EFE493A3FCB6
:1019A300E493A3FDED4C600D121A07EC24FFFCED4C
:1019B30034FFFD80EFD0E0FDD0E0FCE493A3C0E072
:1019C300E493C0E022C0E0C3E493960874019396C5
:1019D30018400FE49366700808740193661870004A
:1019E3007019A3A3C3E49396087401939618A3A351
:1019F300400DD0E0D0E0D0E00219B8A3A3A3A3A385
:101A0300A3D0E022C0E0C0F088F0E4936670080839
:101A130074019366187000A8F0A3A3700BD0F0D0E4
:0F1A2300E0D0E0D0E00219B8A3A3D0F0D0E022C9
:101A340074F512174BEAFEEBFFEE2434F8EF340092
:101A4400F988088909EE2435F582EF3400F583E03E
:101A5400F8EE2437F582EF3400F583E0F50AEC85DF
:101A64000AF0A4FCAAF0850AF0EDA42AFDE82CF8FB
:101A7400E43DF97A257B001215DFEA8508828509A1
:101A840083F05407F87401B800028004C333D8FC0F
:101A9400C0E0E0131313541FF8EE28F8EF3400F9F4
:101AA400E8245DF582E93400F583D0E0F8E058607D
:101AB40008EE2434F582EF801EEE2436F582EF34EE
:101AC40000F583E0F5F0EA84A8F0EE28F8EF34009E
:101AD400F9E82438F582E93400F583E0F97F04025B
:101AE40017F774F512174BEAFEEBFFEE2434F58278
:101AF400EF3400F583E0C0E0EE2435F582EF3400E6
:101B0400F583D0E0F08E828F83A3A3A3A3A3A3A322
:101B1400C082C0838E828F83A3A3A3A3A3E0F8A370
:101B2400E0F9D083D082E0C398F508A3E099F509E1
:101B3400EE2480F582EF3400F583E064017069EEF1
:101B44002481F582EF3400F583E0F8A3E0F98E8276
:101B54008F83A3A3A3A3A3A3A3E0FCA3E0FD8E828E
:101B64008F83A3A3A3A3A3E0FAA3E0FBC3EA9CEBA4
:101B74009D5027C3EC98ED99402EC3EA98EB9950F9
:101B8400277CE27D07EEFAEFFB120A53EE2480F580
:101B940082EF3400F583E4F0800EC3EA98EB9940B9
:101BA400E0C3EC98ED9950D9EE2434F8EF3400F901
:101BB400E8FCE9FDEE2435F582EF3400F583E0F826
:101BC400EE2437F582EF3400F583E0F50AE5088565
:101BD4000AF0A4F508AAF0850AF0E509A42AF50993
:101BE400E82508F8E43509F97A257B001215DFEABF
:101BF4008C828D83F05407F87401B800028004C30A
:101C040033D8FCC0E0E0131313541FF8EE28F8EFA8
:101C14003400F9E8245DF582E93400F583D0E0F876
:101C2400E0586008EE2434F582EF801EEE2436F589
:101C340082EF3400F583E0F5F0EA84A8F0EE28F8AA
:101C4400EF3400F9E82438F582E93400F583E0F94B
:101C5400121FD0021AE10000851A87851BC622C014
:101C6400E0C0D0E8C0E0E9C0E0EAC0E0EBC0E0ECEE
:101C7400C0E0EDC0E0C008C009C00AC00BC082C00B
:101C840083C0F0759B00906182E0A2E64003021DD0
:101C940041E591A2E64003021D417591BF9004996C
:101CA400E064057008120BCD120BD98003120BD31C
:101CB400751A00120C33E990049AF07900120C158D
:101CC4001209C37A017B00900498E0F9120F1B906B
:101CD4007803E064426003021D8A900817E014F060
:101CE4006003021D8AC2AF121CEE00781DD0E0F61C
:101CF40018D0E0F6E59F5407F9700590860180033B
:101D04009085FD780812153AE9C4C0E0781CE655C0
:101D140008F50808E65509F509740B780812164801
:101D2400D0E02508F8906270E0A2E740F8E8C333F9
:101D3400906272F0906270E0D2E0F08049E0A2E537
:101D44005024E591A2E5501E7591DF900499E0645A
:101D54000D70139004BBE004F064287002E4F07A80
:101D640000E0F9120CC3906181E0A2E35009E5E9B7
:101D7400A2E3500375E9F7A3E0A2E75009E591A2B5
:101D8400E7500375917FD0F0D083D082D00BD00A76
:101D9400D009D008D0E0FDD0E0FCD0E0FBD0E0FAE0
:101DA400D0E0F9D0E0F8D0D0D0E032C0E0C0D0C06C
:101DB40082C083906183E0A2E05009E5BFA2E050B5
:101DC4000375BFFEE0A2E15009E5BFA2E15003752F
:101DD400BFFDE0A2E25009E5BFA2E2500375BFFBDC
:101DE400E0A2E35009E5BFA2E3500375BFF7E0A208
:101DF400E45009E5BFA2E4500375BFEFE0A2E5504B
:101E040009E5BFA2E5500375BFDFE0A2E65009E58E
:101E1400BFA2E6500375BFBFD083D0828088C0E0E4
:101E2400C0D0E8C0E0E9C0E0EAC0E0EBC0E0ECC04C
:101E3400E0EDC0E0C0F0E5A7A2E6500FE5A1A2E600
:101E4400500953A7BF75A1BF121E87E5A7A2E5508D
:101E54000CE5A1A2E5500653A7DF75A1DFE5A7A213
:101E6400E15009E5A1A2E1500375A1FDE5A7A2E2B5
:101E7400500CE5A1A2E2500653A7FB75A1FBD0F0DC
:101E8400021D9874F812174B751A01900499E064B6
:101E9400067015120B858A828B83A3A3A3A3A3A325
:101EA400E0FAA3E0FB120BBBA2AFE433FED2AF9087
:101EB400049FE0640170187A207B00900498E0F994
:101EC400120F997A207B00900498E0F9120F219068
:101ED4006182E0D2E6F0900816E0602185C61B809E
:101EE4001690049EE064017008E5C654F84405F5B4
:101EF400C653BEFC121C5C7401651A60E4EEA2E0D9
:101F040092AF7F010217F774F112174B8A088B09FD
:101F14008C0A8D0B740F1216D3780C12153A908517
:101F2400F978081215019085F9780C1215017808D2
:101F3400790C12132650157808790C1214C6908661
:101F4400497808121346401579018013780C7908F2
:101F54001214C6908649780C12134640EB79007F20
:101F6400080217F774ED12174B8A088B098C0A8D37
:101F74000B74131216D3780C12153A9085F978085D
:101F84001215019085F9780C121501780C79081254
:101F9400132640117808790C1214C6AA08AB09ACB0
:101FA4000AAD0B80227510007511007512007513AF
:101FB400017810790C1214C67810790812148DAABD
:101FC40010AB11AC12AD137F0C0217F7C082C083A3
:101FD400E9906000F0D083D08222C0E074F212183D
:101FE40037A2AFE433FED2AFC2C0E5D1A2E45006BB
:101FF40053D1EF12120FEEA2E092AF7F01021896B6
:10200400C0E074F2121837A2AFE433FED2AFE58910
:10201400A2E15003121161758900C2C5EEA2E092DB
:10202400AF7F01021896C0E074F2121837A2AFE431
:1020340033FED2AFE58BA2E05003121161758B0021
:10204400C2E880D8C0E0C0D0E8C0E0E5A8D2AFC202
:10205400C7A2E792AFD0E0F8D0D0D0E032C0E0C061
:10206400D0E8C0E0E9C0E0C008C009C082C083A2D3
:10207400AFE433F9D2AF901063E0F8A3E0687008DE
:10208400539AFBA374018026C2E9901063E0F5081B
:1020940074012508F074E32508F582740F3400F503
:1020A40083E0F5C1901063E0C394804002E4F0E95A
:1020B400A2E092AFD083D082D009D008D0E0F9D08A
:0720C400E0F8D0D0D0E032BB
:1020CC00FFFFFFFFFFFFFFFFC082C0839061907492
:1020DC0004F0A37448F0A37402F09061807440F093
:1020EC009061BC7403F09061877419F09062657410
:1020FC001BF090619C740DF090619A7433F0A37492
:10210C0055F09061A0743AF0900814E064017009E5
:10211C00C29190049D7467800590049D7461F09049
:10212C0020D2E493906186F09020CCE493F4602765
:10213C00E493540FF8906185E0686012E5C6548012
:10214C004449F5C6E59E547F644970F8E8F053C6DF
:10215C0080E59E547F70FA7905120CA5022531C0DA
:10216C0082C083E5A8F853A87E906181E4F0A3F0C7
:10217C00A3F0C2BA539AFEC289759B00C2C275E91C
:10218C000075910075BF0075A91175B90590618135
:10219C00F0A374C0F0A3E4F0D2BA439A017480584F
:1021AC0042A8022531C082C08374F812166A9004CA
:1021BC009BE0F8A3E0F9E84970030222DF90049B4E
:1021CC00E0544060237908851882851983AA82AB74
:1021DC0083120AC5851882851983AA82AB831207DC
:1021EC00AD90049BE054BFF0E054806010790C7A01
:1021FC00387B08120AC590049BE0547FF0E0A2E003
:10220C00503190619A7433F0A37455F09061A074BE
:10221C003AF0900814E064017009C29190049D7426
:10222C0067800590049D7461F01207B390049BE0E5
:10223C0054FEF0E05402603190619A743FF0A37444
:10224C005AF09061A0747FF0900814E0640170095A
:10225C00D29190049D7471800590049D746AF01263
:10226C0007B390049BE054FDF0E0540460139020FD
:10227C00D0E493906186F01207B990049BE054FB74
:10228C00F0E0540860139020D1E493906186F01232
:10229C0007B990049BE054F7F0E0541060139020C1
:1022AC00D2E493906186F01207B990049BE054EF4E
:1022BC00F0E05420600A1207B990049BE054DFF060
:1022CC00A3E05401600D1209CF1207BF90049CE0EB
:1022DC0054FEF0740812168002253174EC1216DFCD
:1022EC0074F412166A851882851983AC82AD8375D5
:1022FC008386758209740412157D9020D093F46046
:10230C0003022474907808E0C3940250030224540E
:10231C0074041216D3AC82AD8375838575829A745E
:10232C000812157D85188285198385821285831381
:10233C0074041216D3AC82AD83750EFF750FFF7F3C
:10234C00FF7E00750C48750D78801574086E70034F
:10235C000223E774096E70030223E7740A6E607B34
:10236C00850C82850D83780812153A8C828D83A991
:10237C0009E50AC9F8881074187808121455E51084
:10238C004508F8C3E098A3E099850C82850D837805
:10239C000812153A40188C828D8374187808121420
:1023AC0055E5104508F8E0C398F8A3E0801C7418B4
:1023BC007808121455E5104508FAE9FB8C828D83D8
:1023CC00E0F8A3E0F9EAC398F8EB99F9C3E8950EA5
:1023DC00E9950F5006880E890FEEFF0EE50C2404CC
:1023EC00F50CE50D3400F50DEEC3941350030223E8
:1023FC005774FF650E700474FF650F60238F0874AB
:10240C0002780812165774482508F5827478350935
:10241C00F583780812153A851282851383E508F046
:10242C00EC24020C0CED3400FD851282851383A381
:10243C00858212858313740C1216D3E5826C70039B
:10244C00E5836D6003022345750801750900780862
:10245C001218F274021216D3AC82AD837A347B0854
:10246C0012113D7402121680740C1216807F0C022D
:10247C0017B1C082C0839061AE7468F0A3746AF027
:10248C0090624574FBF0A304F053F4FD43FE0290FC
:10249C0008147401F09061A0E0643A90619A702382
:1024AC007433F0A37455F09061A0743AF074016425
:1024BC00017009C29190049D7467802890049D74EA
:1024CC00618021743FF0A3745AF09061A0747FF086
:1024DC00740164017009D29190049D74718005900F
:1024EC00049D746A8000F0022531C082C08390077D
:1024FC00F2E0640170159007F8E064016009E07087
:10250C000AA3E064017004790C8012900809E0645D
:10251C0001700890080FE0640160EC79000225312D
:10252C00E0F9121FD0D083D082020122C082C08376
:10253C009007FC7425F09007FA7401F0A3E4F07A8C
:10254C0001FB120C219007E8E02416F8A3E03400FC
:10255C00F98882898374F3F0A37409F09007F9E089
:10256C00640170169007F8E070107901120C81125A
:10257C000C51120C7B7900120C8D80A9C082C08387
:10258C0074FA12166A9007F1E0640170081209DB04
:10259C009007F1E4F075E1F19007E8E02415F8A359
:1025AC00E03400F9888289837401F09007F3E064C9
:1025BC000170769085B0C082851882851983AC82B3
:1025CC00AD83758385D082740612157D75D90D90F7
:1025DC0007EAE0C4333354C04403F5D978E87907EB
:1025EC0088828983A3A3A3E0F5D988828983A3A8D1
:1025FC0082A983E864EE7003E9640770E3851882AE
:10260C00851983A882A98388828983E0F5D9A3A838
:10261C0082A98374061216D3E582687003E5836978
:10262C0070E575E195790180027900120C27901103
:10263C00B1743DF0A3740BF0A37443F0A3740BF0CE
:10264C00A3743DF0A3740BF0A3743DF0A3740BF0D2
:10265C00A3740DF0A3740BF0A3740DF0A3740BF022
:10266C00A37449F0A3740BF09011BF740DF0A37414
:10267C000BF0A3740DF0A3740BF0A3740DF0A37402
:10268C000BF0A3740DF0A3740BF0A3740DF0A374F2
:10269C000BF0A3740DF0A3740BF09007EAE0F97A39
:1026AC00EB7B07120C039007FCE0F9121FD07901A9
:1026BC00120C2D908605121558120C459085F112AE
:1026CC001558120C0F7900120C999007E8E024149D
:1026DC00F8A3E03400F9888289837416F090049989
:1026EC007405F0040222E174F71216DF8908A808B9
:1026FC00E875F006A4C8AAF02AF974C928FE740477
:10270C0039FF900801E0F97A027B08120C0390085B
:10271C000FE0701A7900120C639007DBE0700B79F4
:10272C00007ADC7B07120C098009790180F37901AE
:10273C00120C6375E1F175D923900801E0C43333B1
:10274C0054C04405F5D978FF790788828983A3A3FF
:10275C00A3E0F5D988828983A3A882A983E86405BC
:10276C007003E9640870E375D90075D90075D90058
:10277C0075D90075D90075D900EEF8EFF9E8240485
:10278C00FAE93400FBE82422F582E93400F583E011
:10279C00F5D988828983A3A882A983EA687002EBA1
:1027AC006970E2EEF8EFF9E824031AE93400FBE86B
:1027BC002426F582E93400F583E0F5D988828983F3
:1027CC00A3A882A983EA687002EB6970E2EE242B5D
:1027DC00F582EF3400F583E0F5D9EEF8EFF9E82453
:1027EC00021AE93400FBE8242CF582E93400F58365
:1027FC00E0F5D988828983A3A882A983EA6870024C
:10280C00EB6970E2EEF8EFF9E8242EF582E934007A
:10281C00F583E0F5D988828983A3A882A983EA6825
:10282C007002EB6970E2EEF8EFF9E82430F582E91A
:10283C003400F583E0F5D988828983A3A882A98323
:10284C00EA687002EB6970E2EEF8EFF9E82432F511
:10285C0082E93400F583E0F5D988828983A3A882C4
:10286C00A983EA687002EB6970E2EEF8EFF9E824EC
:10287C00050A0A0AE93400FBE8245DF582E9340014
:10288C00F583E0F5D988828983A3A882A983EA68B5
:10289C007002EB6970E2EE2437F582EF3400F583B9
:1028AC00E0541FF8EE242AF582EF3400F583E0C4DF
:1028BC003354E048F5D975E1959011B17413F0A338
:1028CC00740BF0A37419F0A3740BF0A3740DF0A3A4
:1028DC00740BF0A3740DF0A3740BF0A3740DF0A3A0
:1028EC00740BF0A3740DF0A3740BF0A3741FF0A37E
:1028FC00740BF09011BF740DF0A3740BF0A3740D56
:10290C00F0A3740BF0A3740DF0A3740BF0A3740D6F
:10291C00F0A3740BF0A3740DF0A3740BF0A3740D5F
:10292C00F0A3740BF090080EE0F9121FD0908605FE
:10293C00121558120C459085F1121558120C0F9067
:10294C00600DE4F07901120C999004997406F00270
:10295C002F4E74EC1216DF9007FFE0F8A3E0F5831E
:10296C008882A3A3781012153A900810E0FAF87533
:10297C00F006A4C8ACF02CF974F728F5827404396D
:10298C00F583E0FEA3E0FFEEC333FEEF33FF8E0CC6
:10299C00F50D750E00750F0085100885110985124F
:1029AC000A85130B90863978081214A0780812182F
:1029BC00EE85100885110985120A85130B780879A4
:1029CC000C12148D7810790C1213E5E4F50EF50F3A
:1029DC007808790C1214C68A0C750D007403780CE7
:1029EC001216577808790C12148D9085F978081204
:1029FC001501AA08AB09AC0AAD0B121F68740412BE
:102A0C0016808A088B09A808A909C3EE98EF99507B
:102A1C0006E82EF8E93FF9E890600EF0E9A3F0EE35
:102A2C00A3F0EFA3F090600D74C1F0022479C08282
:102A3C00C0839007E8E0F8A3E0F5838882A3A3A302
:102A4C00A3A3A3E4F0A3F09007FC02252CC082C042
:102A5C00839007FFE0F8A3E0F5838882A3A3A3A3E8
:102A6C00A3A3E4F0A3F090080E02252C020122741B
:102A7C00F61216DF9061D0E0F87480C398FCEA245B
:102A8C0083F582EB3400F583E060047804800278EF
:102A9C0000E8240EF8ECC3985003022BFC7E0C903B
:102AAC000818E4F0EA2477F582EB3400F583E09023
:102ABC000819F0EA2478FCEB3400FD781A79087FC9
:102ACC00028C828D83E088828983F08C828D83A333
:102ADC00AC82AD8388828983A3A882A9831FEF70FF
:102AEC00E0EA247AFCEB3400FD7F028C828D83E0DB
:102AFC0088828983F08C828D83A3AC82AD8388829B
:102B0C008983A3A882A9831FEF70E0EA247CFCEBE5
:102B1C003400FD7F028C828D83E088828983F08C67
:102B2C00828D83A3AC82AD8388828983A3A882A97A
:102B3C00831FEF70E0EA247EFCEB3400FD7F028CF7
:102B4C00828D83E088828983F08C828D83A3AC8212
:102B5C00AD8388828983A3A882A9831FEF70E0EAE2
:102B6C002475FCEB3400FD8A828B83A3A3A3A3A35F
:102B7C00E0F508A3E0F5098C828D83E02508F0A32D
:102B8C00E03509F07F028C828D83E088828983F0A6
:102B9C008C828D83A3AC82AD8388828983A3A88227
:102BAC00A9831FEF70E0EA2483F582EB3400F583F0
:102BBC00E0601975081875090878081218F27C0C71
:102BCC007903120B0174021216807E1074012EF51B
:102BDC00D975D903758218758308EEFFE0F5D9A372
:102BEC001FEF70F875E1957904120C4B7901800296
:102BFC00790002313074F61216DF9061D0E0F8746F
:102C0C0080C398FCEA2483F582EB3400F583E06002
:102C1C0004780480027800E8240AF8ECC398500386
:102C2C00022CF17508089008187401F07CE27D07FD
:102C3C00781979087E058C828D83E088828983F0EF
:102C4C008C828D83A3AC82AD8388828983A3A88276
:102C5C00A9831EEE70E0EA2481FCEB3400FD8A822D
:102C6C008B83A3A3A3A3A3E0FEA3E0FF8C828D839D
:102C7C00E02EF0A3E03FF07E028C828D83E0888210
:102C8C008983F08C828D83A3AC82AD838882898307
:102C9C00A3A882A9831EEE70E0EA2483F582EB34AC
:102CAC0000F583E0601A7508187509087808121881
:102CBC00F27C087903120B01740212168075080C51
:102CCC0074012508F5D975D903758218758308AE7A
:102CDC0008E0F5D9A31EEE70F875E1957904120C95
:102CEC004B79018002790002313074F71216DFEA59
:102CFC00FEEBFF9061D0E06003022DED75D91875E5
:102D0C00D90375D903EEF8EFF9E82408FAE9340091
:102D1C00FBE8249CF582E93400F583E0F5D9888240
:102D2C008983A3A882A983EA687002EB6970E2EE3A
:102D3C00F8EFF9E82402FAE93400FBE824A4F58260
:102D4C00E93400F583E0F5D988828983A3A882A9A8
:102D5C0083EA687002EB6970E2EE2494F582EF343A
:102D6C0000F583E5822408F8E5833400F9E0F5D911
:102D7C00A3E865827003E9658370F2EE2488F5821E
:102D8C00EF3400F583E5822404F8E5833400F9E0A0
:102D9C00F5D9A3E865827003E9658370F275E19556
:102DAC007908EE2494FAEF3400FB120AB97904EE98
:102DBC002488FAEF3400FB120AB97904120C4BEE9A
:102DCC002470F582EF3400F583E0F8A3E0F9EE24EB
:102DDC0072F582EF3400F583E8F0A3E9F079018015
:102DEC00027900022F4E74F61216DFEAFEEBFF900A
:102DFC0008187406F075081875090878081218F286
:102E0C007C017903120B01740212168075D90675B8
:102E1C00D903758218758308E0F5D9A3E582641D82
:102E2C007004E583640870F075E195900499E06492
:102E3C0008701EEE2470F582EF3400F583E0F8A3E1
:102E4C00E0F9EE2472F582EF3400F583E8F0A3E9A3
:102E5C00F0790102313074F61216DFEAFEEBFF90C6
:102E6C0061D0E0705E900818740AF0750818750946
:102E7C000878081218F27C017903120B0174021203
:102E8C00168075D90675D903758218758308E0F517
:102E9C00D9A3E582641D7004E583640870F075E1C4
:102EAC0095EE2470F582EF3400F583E0F8A3E0F999
:102EBC00EE2472F582EF3400F583E8F0A3E9F079A3
:102ECC00018002790002313074F61216DFEAFEEB53
:102EDC00FF9061D0E070667801900818740BF09048
:102EEC000499E064077019750818750908780812B8
:102EFC0018F27C017903120B01740212168078050A
:102F0C00740128F5D975D903758218758308E8FA08
:102F1C00E0F5D9A31AEA70F875E195EE2470F58204
:102F2C00EF3400F583E0F8A3E0F9EE2472F582EFBC
:102F3C003400F583E8F0A3E9F0790180027900020E
:102F4C0031307F010217B174F61216DFEAFEEBFF87
:102F5C009061D0E0F87480C398FAEE2483F582EF88
:102F6C003400F583E06004780480027800E8240BD8
:102F7C00F8EAC39850030230297D099008187408A8
:102F8C00F0EE24E5F8EF3400F97A197B087C088818
:102F9C00828983E08A828B83F088828983A3A882CA
:102FAC00A9838A828B83A3AA82AB831CEC70E0EE8C
:102FBC002483F582EF3400F583E0601D75081875E5
:102FCC00090878081218F27C097903EEFAEFFB1263
:102FDC000B0174021216807D0D74012DF5D975D973
:102FEC00037582187583088D08E0F5D9A31508E5DB
:102FFC000870F675E1957904120C4BEE2470F5828D
:10300C00EF3400F583E0F8A3E0F9EE2472F582EFDB
:10301C003400F583E8F0A3E9F0790180027900022D
:10302C00313074F61216DFEAFEEBFF9061D0E0F857
:10303C007480C398FAEE2483F582EF3400F583E0B4
:10304C006004780480027800E82408F8EAC39850F9
:10305C000302312E7D06900818740CF09004B6E033
:10306C00900819F07AB77B04781A79087C028A8266
:10307C008B83E088828983F08A828B83A3AA82ABBC
:10308C008388828983A3A882A9831CEC70E07AB917
:10309C007B047C028A828B83E088828983F08A821B
:1030AC008B83A3AA82AB8388828983A3A882A983FA
:1030BC001CEC70E0EE2483F582EF3400F583E060C5
:1030CC001D75081875090878081218F27C06790322
:1030DC00EEFAEFFB120B0174021216807D0A7401DA
:1030EC002DF5D975D9037582187583088D08E0F50F
:1030FC00D9A31508E50870F675E1957904120C4B07
:10310C00EE2470F582EF3400F583E0F8A3E0F9EEDD
:10311C002472F582EF3400F583E8F0A3E9F079012D
:10312C00800279007F020217B174F61216DFEAFEF4
:10313C00EBFF9061D0E0F87480C398FAEE2483F52D
:10314C0082EF3400F583E06004780480027800E8B4
:10315C002404F8EAC398500302320F78029008183E
:10316C00E8F0EE24F7F582EF3400F583E0900819CF
:10317C00F0EE2483F582EF3400F583E0601B7508D4
:10318C001875090878081218F27C027903EEFA1205
:10319C000B0174021216807806740128F5D975D9C2
:1031AC00037582187583088808E0F5D9A31508E51E
:1031BC000870F675E195EE2474F582EF3400F58312
:1031CC00E4F0EE2480F582EF3400F583E4F0EE2495
:1031DC001DF582EF3400F583E4F0A3F07904120CB2
:1031EC004BEE240DF582EF3400F583E0F8A3E0F903
:1031FC00EE2472F582EF3400F583E8F0A3E9F07960
:10320C00018002790002313074F61216DF9061D021
:10321C00E0F87480C398FCEA2483F582EB3400F563
:10322C0083E06004780480027800E82404F8ECC39E
:10323C0098405B79029008187407F0EA24F8F5823C
:10324C00EB3400F583E0900819F0EA2483F582EB67
:10325C003400F583E06018750818750908780812B1
:10326C0018F27C0209120B01740212168079067492
:10327C000129F5D975D903758218758308E9F8E029
:10328C00F5D9A318E870F875E195790180027900F9
:10329C0002313074F51216DFE9FCA2AFE433F50A03
:1032AC00C2AF7D0080010DEA246FF582EB3400F58E
:1032BC0083E0F8EDC398501A8D08EA2508F8EB3432
:1032CC0000F9E8246BF582E93400F583E06C70D6E4
:1032DC008024EA246FF8EB3400F9E0FEEA2EFAEBD6
:1032EC003400FBEA246BF582EB3400F583ECF088B8
:1032FC00828983E004F0E50AA2E092AF7F03021713
:10330C00B174F61216DFA2AFE433FDC2AFEA246F3C
:10331C00F582EB3400F583E014F07C0060368C0809
:10332C00EA2508F8EB3400F9E8246CF582E934005E
:10333C00F583E0C0E0E8246BF582E93400F583D036
:10334C00E0F00CEA246FF582EB3400F583E0F8EC46
:10335C00C39840CAEA246EF582EB3400F58374FFFF
:10336C00F0EA246AF582EB3400F583E4F0EDA2E098
:10337C0092AF023130C082C083E5A8F8C2AFEA2414
:10338C006BF582EB3400F583E9F0EA246AF582EB05
:10339C003400F583E4F0E8A2E792AF02253174F330
:1033AC001216DFEAFEEBFFECFAEDFB8A828B83A3AD
:1033BC00A3A3A3E0541FF0EE2436F582EF3400F5FE
:1033CC0083E4F0F50AEEFCEFFD8A828B83E0C0E02B
:1033DC00EC245DF582ED3400F583D0E0F0750B0044
:1033EC00E50A33333354F8F50C8A828B83E0F50805
:1033FC00750900E50B7808121638E508A2E0502F85
:10340C00EE2436F8EF3400F988828983E0F508EE73
:10341C002508F508EF3400F509E5082438F582E5B0
:10342C00093400F583E50CF088828983E004F0050B
:10343C000B050CE50BC3940840AF050A8A828B83FD
:10344C00A3AA82AB838C828D83A3AC82AD83E50A65
:10345C00C3940550030233D57F050217B174F712DC
:10346C0016DF9004C5E0640370077A007B00022F1E
:10347C004E7B0078C5790488828983A3A3A3A3A378
:10348C00A3E06003023763EBF875F006A4C8AAF05A
:10349C002AF974C928F8740439F988828983A3A39A
:1034AC007401F088828983A3A3A3E4F0EB8882895A
:1034BC0083A3A3A3A3F0E82462F582E93400F58387
:1034CC007401F0E82465F582E93400F583E4F0A397
:1034DC00F0E82468F582E93400F5837401F0888201
:1034EC008983A3A3A3A3A3E4F0A3F088828983A375
:1034FC00A3A3A3A3A3A3F0A3F0E8240FF582E934BC
:10350C0000F5837401F0E82435F582E93400F58385
:10351C00E4F0908645121558E82418F582E9340039
:10352C00F583121564E8241CF582E93400F583E474
:10353C00F0E8241DF582E93400F583E4F0A3F0E80B
:10354C002480F582E93400F583E4F0E82474F582F4
:10355C00E93400F583E4F0E82469F582E93400F5F8
:10356C00837480F0E8246AF582E93400F583E4F092
:10357C00E8246FF582E93400F583E4F0E82467F57C
:10358C0082E93400F583E4F0E824EDF582E93400B7
:10359C00F583E4F0E824EEF582E93400F583E4F0F9
:1035AC00E824EFF582E93400F583E4F0E824F0F543
:1035BC0082E93400F583E4F0E824F1F582E9340083
:1035CC00F583E4F0A3F0E824F3F582E93400F58305
:1035DC00E4F0A3F0E824F6F582E93400F583E4F096
:1035EC00E82483F582E93400F583E4F0E824D3F58C
:1035FC0082E93400F583E4F0E824D4F582E9340060
:10360C00F583E4F0908645121558E824D5F582E947
:10361C003400F583121564908645121558E824D9A8
:10362C00F582E93400F583121564E824DFF582E9AC
:10363C003400F583E4F0E824E1F582E93400F58305
:10364C00E4F0E824DDF582E93400F583E4F0E824C5
:10365C00E2F582E93400F583E4F0E824E3F582E94D
:10366C003400F583E4F0E824F9F582E93400F583BD
:10367C00E4F0A3F0E824FBF582E93400F583E4F0F0
:10368C00A3F0E824FDF582E93400F583E4F0A3F01F
:10369C00E824FFF582E93400F583E4F0A3F0E8FABE
:1036AC00E9FBEA2404FCEB3400FDEA246BF582EB25
:1036BC003400F58374FFF08A828B83A3AA82AB83D8
:1036CC00EC6A7002ED6B70E2E8FAE9FB7CE27D07D4
:1036DC008C828D83E0C0E0EA245DF582EB3400F54A
:1036EC0083D0E0F08C828D83A3AC82AD838A828BF5
:1036FC0083A3AA82AB83EC64E77003ED640770D0FC
:10370C00E8FAE9FB7CAC7D048C828D83A3E0C0E0FD
:10371C00EA24E5F582EB3400F583D0E0F08C828D61
:10372C0083A3AC82AD838A828B83A3AA82AB83EC06
:10373C0064B47003ED640470CF9004C5E004F064CD
:10374C0001700D88828983A3A3A3A3E09004C7F022
:10375C00E8FAE9FB02347A0BE82406F8E93401F9BB
:10376C00EBC394034003023476023483C082C083DB
:10377C008A828B83A3A3A3E0600F8A828B83A3A38B
:10378C00A3E4F09004C6E014F09004C5E014F070CB
:10379C00069004C774FFF08A828B83A3A3E4F09095
:1037AC0007E7E0700D9004C6E06401700579001223
:1037BC000C15022531C082C08378C57904888289B2
:1037CC0083A3A3A3A3A3A3A3E4F088828983A3A3C5
:1037DC00A3A3A3A3F0E82406F8E93401F9E864D71D
:1037EC007003E9640770D69004C5E4F0A3F0A374E9
:1037FC00FFF075E1F102253174F31216DF75080044
:10380C00750900750C00750AC9750B04AE0AAF0B6F
:10381C008E828F83A3A3A3E0603FE5084509700A5D
:10382C00EEF8EFF988088909802F850882850983CD
:10383C00E0F8A3E0F5838882A3A31219058E828F8A
:10384C0083E0F8A3E0F5838882A3A3121558121F16
:10385C000B7404121680E960C7050CEE2406F50AF9
:10386C00EF3401F50BE50CC3940340A08508828569
:10387C000983A3A3A3A3E0F902346474F61216DF40
:10388C0078FF79FF7508007EC97F04EEFCEFFD8C94
:10389C00828D83A3A3A3E0606474FF68700374FF3C
:1038AC00697025EC2474F582ED3400F583E0640135
:1038BC007011EC247AF582ED3400F583E0F8A3E086
:1038CC00F9803AEC242E80EDEC2474F582ED340072
:1038DC00F583E064017014EC247AF582ED3400F584
:1038EC0083C3E098A3E099501480C7EC242EF58292
:1038FC00ED3400F583C3E098A3E09940C60508EECB
:10390C002406FEEF3401FFE508C39403500302388C
:10391C0097C3EA98EB994004E8FAE9FB023130745A
:10392C00F61216DFEAFEEBFF8E828F83A3A3A3E0D1
:10393C00600F8E828F83A3A3A3E4F09004C6E014DF
:10394C00F09004C5E014F070069004C774FFF08E7C
:10395C00828F83A3A3E4F09007E7E0700D9004C678
:10396C00E0640170057900120C15EE2465F582EF08
:10397C003400F583E0F8A3E0F9E8496029EE24650A
:10398C00F8EF3400F9880889098882F583E0FCA3F4
:10399C00E0FD9004C7E0FA7B001207E385088285FE
:1039AC000983E4F0A3F0EEFAEFFB120B7F02313047
:1039BC0074F71216DFEAFEEBFF8E828F83A3A3A3AC
:1039CC00A3E0FA7B0012082BEEFAEFFB120A771237
:1039DC000B61022F4EC082C0837C007AC97B04EA43
:1039EC00F8EBF988828983A3A3A3E0601EE8246F17
:1039FC00F582E93400F583E06011E8246BF582E987
:103A0C003400F583E07004790180110CEA2406FA85
:103A1C00EB3401FBECC3940340C57900022531C0A3
:103A2C0082C08378AC790488828983A3E4F088828D
:103A3C008983A3A882A983E864B47003E964047041
:103A4C00E69004AD74010224F2C082C08374FC12AF
:103A5C00166A908645121558851882851983121599
:103A6C0064120ABFE9851882851983F0120ABF74A3
:103A7C00011216D3E9F0120ABF74021216D3E9F040
:103A8C0085188285198312155874040222E174F684
:103A9C001216DFEAFEEBFFEC2403F8ED3400F98894
:103AAC00088909EC2407F8ED3400F9E8FCE9FD8CF1
:103ABC00828D83E0F8A3E0F9850882850983E0FA1A
:103ACC00A3E0FB1215DFEE240DF582EF3400F58335
:103ADC00E8F0A3E9F08C828D83E0F8A3E0F9850887
:103AEC0082850983E0FAA3E0FB1215DF8B09EA4516
:103AFC00096013EE240DF582EF3400F583E0240108
:103B0C00F0A3E03400F002313074F61216DFEAFE56
:103B1C00EBFFEE242EF582EF3400F583E0FCA3E0FE
:103B2C00FD780079FAECFAEDFB1215DFEE2470F556
:103B3C0082EF3400F583E8F0A3E9F0780079FAEC31
:103B4C00FAEDFB1215DF8B09EA45096013EE2470C0
:103B5C00F582EF3400F583E02401F0A3E03400F0AB
:103B6C0002313074F01216DFEAFEEBFF74101216FD
:103B7C00D3780812153A120BE58A0C8B0D8C0E8D2E
:103B8C000F90860D780C1214A09085F9780C1215F4
:103B9C0001780C1218EE8E828F83E0F8A3E0F58387
:103BAC008882A3A3121558121F0B7404121680E9F5
:103BBC006003023CBC8E828F83E02402F8A3E034C5
:103BCC0000F9E8FAE9FB8A828B8378081214B39027
:103BDC0085F9780812153A8A828B837808121514A5
:103BEC00EE240BF582EF3400F583C082C0838E8205
:103BFC008F83A3A3A3A3A3E02401F8A3E03400F9CB
:103C0C00D083D082E0687003A3E06970057901026B
:103C1C003CBE8E828F83A3A3A3A3A3A3A3E0240102
:103C2C00F0A3E03400F0EE2474F582EF3400F58359
:103C3C00E064017036EE2475F582EF3400F583E014
:103C4C00F8A3E0F98E828F83A3A3A3A3A3A3A3E07D
:103C5C00687003A3E0697013EE2475F582EF3400ED
:103C6C00F583E02401F0A3E03400F0EE2480F5822B
:103C7C00EF3400F583E064017036EE2481F582EFB9
:103C8C003400F583E0F8A3E0F98E828F83A3A3A31D
:103C9C00A3A3A3A3E0687003A3E0697013EE2481CF
:103CAC00F582EF3400F583E02401F0A3E03400F05A
:103CBC0079007F080217B174F71216DF9004C7E081
:103CCC00F875F006A4C8AAF02AF974C928FE740481
:103CDC0039FF8028EE2465F8EF3400F98882898357
:103CEC00E0FCA3E0FD88828983E4F0A3F08E828F50
:103CFC0083A3A3A3A3E0FA7B001207E3EE2465F5EC
:103D0C0082EF3400F583E0F8A3E0F9E849604FEE68
:103D1C002464F582EF3400F583E0F5087808121876
:103D2C00F6EE2463F582EF3400F583E0F9EE2465BA
:103D3C00F582EF3400F583E0FCA3E0FDEEFAEFFB37
:103D4C00120AAD7401121680E96089EE2465F582C1
:103D5C00EF3400F583E0F8A3E0F9E84970137C0038
:103D6C007D008E828F83A3A3A3A3E0FA7B001207AE
:103D7C00E3022F4E74F21216DFEAFEEBFF890A748F
:103D8C000E1216D3E0FAEE2462F582EF3400F583BE
:103D9C00E064016003023E4C9061D0E0F87480C393
:103DAC0098F50CEE2483F582EF3400F583E0600483
:103DBC007804800278008908E928F8E43400F9E8EE
:103DCC0024020808E93400F9E50C98E499A2D265BC
:103DDC00D0334068EA7005750B028003750B01E067
:103DEC00603975090078081218F27A187B08120AE3
:103DFC00E3740212168075081875090878081218F1
:103E0C00F2AC0AA90BEEFAEFFB120B0174021216BC
:103E1C00807404250AF50A7C187D087401250AF5BE
:103E2C00D9850BD9E50A600D8C828D83F8E0F5D924
:103E3C00A318E870F875E19579008006790780027F
:103E4C0079FF7F060217B1C082C083E960208C82A3
:103E5C008D83E08A828B83F08C828D83A3AC82ADC0
:103E6C00838A828B83A3AA82AB8319E970E0ECFA74
:103E7C00EDFB022531C082C083786979088882897C
:103E8C0083A3A3A3A3A3A3E4F088828983A3A3A3FE
:103E9C00A3A374FFF0E82418F8E93400F9E864C926
:103EAC007003E9640870D690086B74FFF090086A90
:103EBC00E4F0900869F090086CF0A3F00255A97436
:103ECC00EC1216DF90086CE0F508A3E0F509E508A4
:103EDC00450970061209C3024B788508828509834F
:103EEC00E014601814601524FE601124C4700302E1
:103EFC00463A24C0700302463A024B78E0F9120BA2
:103F0C00738A0A8B0BAE0AAF0B9004C6E0700302E7
:103F1C0042B8120A6BE9F875F006A4C8AAF02AF99F
:103F2C0074C928F50C740439F50D850C82F583E001
:103F3C00F50AA3E0F50BAC0AFDEEFAEFFB120B6DE4
:103F4C00E9F50E7402650E70030242778E828F8340
:103F5C00E024FE600A24FE700302416F024B78EEEF
:103F6C0065087003EF650960211209E19007F9E01B
:103F7C00640170169007F8E070107901120C811230
:103F8C000C51120C7B7900120C87E50E6021E508B0
:103F9C002415F582E5093400F583E060129007F4EE
:103FAC00E0F8A3E0F9A3E0687003A3E069702612BF
:103FBC000BE58A0C8B0D8C0E8D0F908641780C12B4
:103FCC0014A09085F9780C1215018E828F83A3A30F
:103FDC00780C121549E5082415F582E5093400F52D
:103FEC0083E064016003024095850A82850B83A3FC
:103FFC00A3780C12153A908611780C1214A0780C38
:10400C001218EE8E828F83A3A3C082C0839007F612
:10401C00E0F508A3E085080CF50DE4F50EF50FD0DE
:10402C0083D082780C1214A0AA0CAB0DAC0EAD0F81
:10403C00121F0B7404121680E9703C8E828F83A3BE
:10404C00A3C082C0839007F6E0F508A3E0F509E46D
:10405C00F50AF50BD083D08278081214A09085F95C
:10406C007808121501EE240EF582EF3400F58378F2
:10407C0008121549024167850A82850B83A3A37830
:10408C000812153A90861180CFEE240EF582EF348B
:10409C0000F5831219058E828F83A3A31215581273
:1040AC001F0B7404121680E96401600302416785DA
:1040BC000A82850B83A3A3780C12153A908611788B
:1040CC000C1214A0780C1218EE8E828F83A3A3C04E
:1040DC0082C0839007F6E0F508A3E085080CF50D87
:1040EC00E4F50EF50FD083D082780C1214A0AA0C34
:1040FC00AB0DAC0EAD0F121F0B7404121680E970D1
:10410C001F8E828F83A3A3C082C0839007F6E0F535
:10411C0008A3E0F509E4F50AF50BD083D0828010F2
:10412C00850A82850B83A3A3780812153A90861111
:10413C0078081214A09085F97808121501EE240E57
:10414C00F582EF3400F58378081215499007FCE0EE
:10415C006427700474258002E004F090086B7402EC
:10416C00024B70EE65087003EF6509603190081022
:10417C00E0F91209E7850882850983E06402701E64
:10418C009007F9E0640170169007F8E07010790060
:10419C00120C81120C51120C7B7901120C87E50E5A
:1041AC00601290080AE0F8A3E0F9A3E0687003A39A
:1041BC00E0697026120BE58A0C8B0D8C0E8D0F901E
:1041CC008641780C1214A09085F9780C1215018E8A
:1041DC00828F83A3A3780C121549850A82850B83E1
:1041EC00A3A3780C12153A908611780C1214A078AF
:1041FC000C1218EE8E828F83A3A3C082C08390080A
:10420C000CE0F508A3E085080CF50DE4F50EF50FB0
:10421C00D083D082780C1214A0AA0CAB0DAC0EADCE
:10422C000F121F0B7404121680E9701F8E828F837D
:10423C00A3A3C082C08390080CE0F508A3E0F509A5
:10424C00E4F50AF50BD083D0828010850A82850BA9
:10425C0083A3A3780812153A90861178081214A03B
:10426C009085F97808121501024B59850882850949
:10427C0083E0640270139007F9E06401700B9007FF
:10428C00F8E070057900120C81E50C2404FEE50DB4
:10429C003400FF8E828F83E0F9120BA98E828F83FC
:1042AC00E09004C7F0AA0AAB0B024B75EE650870E0
:1042BC0003EF65098E828F83600302449CE024FE29
:1042CC00600A24FE70030243F7024B71EE2415F5CD
:1042DC0082EF3400F583E060419007F4E0F8A3E04E
:1042EC00F9A3E0687003A3E069602F120BE58A085C
:1042FC008B098C0A8D0B90862178081214A07808F3
:10430C001218EE8E828F83A3A3121558121F0B74F2
:10431C0004121680E96003024B71120BE58A088BBC
:10432C00098C0A8D0B90864178081214A09085F99F
:10433C0078081215018E828F83A3A3780812154971
:10434C00EE2415F582EF3400F583E0640170348EB1
:10435C00828F83A3A3C082C0839007F6E0F508A3E5
:10436C00E0F509E4F50AF50BD083D0827808121435
:10437C00A0EE240EF582EF3400F58378081215496F
:10438C00024B71EE240EF582EF3400F58312190501
:10439C008E828F83A3A3121558121F0B740412164E
:1043AC0080E964016003024B718E828F83A3A3C0EA
:1043BC0082C0839007F6E0F508A3E0F509E4F50A5E
:1043CC00F50BD083D08278081214A0EE240EF5825F
:1043DC00EF3400F58378081215499007FCE0642748
:1043EC0070057425024B70E00480F990080AE0F81F
:1043FC00A3E0F9A3E0687003A3E069602C120BE55D
:10440C008A088B098C0A8D0B90862178081214A0CF
:10441C0078081218EE8E828F83A3A3121558121FE0
:10442C000B7404121680E97064EE2402F508EF3464
:10443C0000F509120BE58A0C8B0D8C0E8D0F9086F6
:10444C0041780C1214A09085F9780C12150185088E
:10445C0082850983780C121549850882850983C0E9
:10446C0082C08390080CE0F508A3E0F509E4F50A96
:10447C00F50BD083D08278081214A0EE240EF582AE
:10448C00EF3400F58378081215491209ED024B71CF
:10449C00E024FE600A24FE7003024562024B78128F
:1044AC0009E19007F9E0640170169007F8E07010CC
:1044BC007901120C81120C51120C7B7900120C87B1
:1044CC009007F4E0F8A3E0F9A3E0687003A3E069B7
:1044DC00602F120BE58A088B098C0A8D0B908621B4
:1044EC0078081214A078081218EE8E828F83A3A37A
:1044FC00121558121F0B7404121680E96003024146
:10450C0067EE2402F508EF3400F509120BE58A0C6E
:10451C008B0D8C0E8D0F908641780C1214A090850B
:10452C00F9780C121501850882850983780C12150F
:10453C0049850882850983C082C0839007F6E0F51F
:10454C0008A3E0F509E4F50AF50BD083D0827808CE
:10455C001214A0024071900810E0F91209E78508C6
:10456C0082850983E06402701E9007F9E064017093
:10457C00169007F8E070107900120C81120C511291
:10458C000C7B7901120C8790080AE0F8A3E0F9A3E0
:10459C00E0687003A3E069602C120BE58A088B09B4
:1045AC008C0A8D0B90862178081214A078081218AA
:1045BC00EE8E828F83A3A3121558121F0B74041254
:1045CC001680E97066EE2402F8EF3400F988088949
:1045DC0009120BE58A0C8B0D8C0E8D0F9086417891
:1045EC000C1214A09085F9780C121501850882859F
:1045FC000983780C121549850882850983C082C00D
:10460C008390080CE0F508A3E0F509E4F50AF50B36
:10461C00D083D08278081214A0EE240EF582EF34E9
:10462C0000F58378081215491209ED024B6B9004C2
:10463C00C6E070030249D0120A6BE9F875F006A4C3
:10464C00C8AAF02AF974C928F510740439F5118533
:10465C001082F583E0F508A3E0F5099004C7E0F8B3
:10466C0075F006A4C8AAF02AF974C928F50C7404CC
:10467C0039F50D90086AE0540770030248F9A3E07D
:10468C00F9120B738A0A8B0BAE0AAF0BAC08AD098F
:10469C00120B6DE9F50E7402650E70030248F98574
:1046AC000C82850D83A3A3A3A3E0F875F08AA4C89C
:1046BC00AAF02AF974CE28F50A740839F50BAA0A5F
:1046CC00FB120B9DAA0AAB0B120B9775128075137C
:1046DC000078121218F27C007D60E50A2406FAE5D7
:1046EC000B3401FB120AE37402121680A80AA90B00
:1046FC00906195E0C0E0E82486F582E93401F58309
:10470C00D0E0F0906196E0C0E0E82487F582E934CF
:10471C0001F583D0E0F0906197E0C0E0E82488F5E3
:10472C0082E93401F583D0E0F0906198E0C0E0E8D4
:10473C002489F582E93401F583D0E0F08E828F83F1
:10474C00E024FE600A24FE70030248340248F91289
:10475C0009E19007F9E0640170119007F8E0700B23
:10476C00120C51120C7B7900120C87E50E60129022
:10477C0007F4E0F8A3E0F9A3E0687003A3E0697024
:10478C0026120BE58A0C8B0D8C0E8D0F90864178C2
:10479C000C1214A09085F9780C1215018E828F835F
:1047AC00A3A3780C121549850882850983A3A378E5
:1047BC000C12153A908611780C1214A0780C121861
:1047CC00EE8E828F83A3A3C082C0839007F6E0F5A0
:1047DC000CA3E0F50DE4F50EF50FD083D082780C28
:1047EC001214A0AA0CAB0DAC0EAD0F121F0B74045F
:1047FC00121680E9701F8E828F83A3A3C082C083A0
:10480C009007F6E0F508A3E0F509E4F50AF50BD0FE
:10481C0083D0828010850882850983A3A37808122F
:10482C00153A908611024064900810E0F91209E7DD
:10483C00E50E601290080AE0F8A3E0F9A3E06870B6
:10484C0003A3E0697026120BE58A0C8B0D8C0E8D80
:10485C000F908641780C1214A09085F9780C1215E3
:10486C00018E828F83A3A3780C121549850882854B
:10487C000983A3A3780C12153A908611780C1214A4
:10488C00A0780C1218EE8E828F83A3A3C082C083F3
:10489C0090080CE0F50CA3E0F50DE4F50EF50FD047
:1048AC0083D082780C1214A0AA0CAB0DAC0EAD0FF9
:1048BC00121F0B7404121680E9701F8E828F83A353
:1048CC00A3C082C08390080CE0F508A3E0F509E4CE
:1048DC00F50AF50BD083D082801085088285098378
:1048EC00A3A3780812153A908611024267E5106569
:1048FC000C7004E511650D70030249C9850C8285A5
:10490C000D83A3A3A3E070030249AD850C82850D32
:10491C0083A3A3A3A3E0F875F08AA4C8AAF02AF98C
:10492C0074CE28FE740839FFEEFAEFFB120B9DEEE5
:10493C00FAEFFB120B97750A80750B00780A1218A8
:10494C00F27C007D60EE2406FAEF3401FB120AE3E0
:10495C007402121680906195E0C0E0EE2486F58218
:10496C00EF3401F583D0E0F0906196E0C0E0EE24E6
:10497C0087F582EF3401F583D0E0F0906197E0C0C9
:10498C00E0EE2488F582EF3401F583D0E0F09061FD
:10499C0098E0C0E0EE2489F582EF3401F583D0E095
:1049AC00F0E5102404FEE5113400FF8E828F83E0C5
:1049BC00F9120BA98E828F83E09004C7F0AA08AB82
:1049CC0009024B7590086AE054077003024B78A3F8
:1049DC00E0F9120B738A088B09AE08AF098E828F2F
:1049EC0083E024FE600A24FE7003024ABF024B7867
:1049FC001209E19007F9E0640170169007F8E07075
:104A0C00107901120C81120C51120C7B7900120CD2
:104A1C00879007F4E0F8A3E0F9A3E0687003A3E043
:104A2C0069602C120BE58A088B098C0A8D0B908619
:104A3C002178081214A078081218EE8E828F83A3A6
:104A4C00A3121558121F0B7404121680E97061EE34
:104A5C002402F508EF3400F509120BE58A0C8B0DD6
:104A6C008C0E8D0F908641780C1214A09085F978DD
:104A7C000C121501850882850983780C121549855D
:104A8C000882850983C082C0839007F6E0F508A3ED
:104A9C00E0F509E4F50AF50BD083D08278081214FE
:104AAC00A0EE240EF582EF3400F583780812154938
:104ABC00024167900810E0F91209E790080AE0F843
:104ACC00A3E0F9A3E0687003A3E069602C120BE586
:104ADC008A088B098C0A8D0B90862178081214A0F9
:104AEC0078081218EE8E828F83A3A3121558121F0A
:104AFC000B7404121680E97063EE2402F8EF340094
:104B0C00F988088909120BE58A0C8B0D8C0E8D0F18
:104B1C00908641780C1214A09085F9780C1215012E
:104B2C00850882850983780C1215498508828509C8
:104B3C0083C082C08390080CE0F508A3E0F509E47B
:104B4C00F50AF50BD083D08278081214A0EE240E4F
:104B5C00F582EF3400F58378081215491209ED90AF
:104B6C00086B7404F0EEFAEFFB120B677F0C021764
:104B7C00B174F01216DFEAFEEBFFEE2402F8EF340C
:104B8C0000F988088909EE2406F8EF3400F9880A40
:104B9C00890B8882F583121909850882850983128D
:104BAC001558120BC17402121680850A82850B836C
:104BBC00121909850882850983121558120BB574D0
:104BCC0002121680EE240EF582EF3400F5831215D6
:104BDC0058120BC78E828F83E06440701CEE241237
:104BEC00F8EF3400F988828983E0906064F0888261
:104BFC008983A3E09060658006906064E4F0A3F084
:104C0C0090086CEEF0A3EFF0EE2416F582EF340072
:104C1C00F583E0F8A3E0F58388821216DD906054EA
:104C2C00E4F0A3F0A3F0A3F0A3F0A3F0A3F0A3F09F
:104C3C00A3F0A3F0A3F0A3F0906182E0C2E6F075BC
:104C4C0091BFEE2415F582EF3400F583E06401701A
:104C5C0003120BF7E5E170FCEE2414F582EF34003F
:104C6C00F583E0F46003E0F5E1EE2415F582EF3412
:104C7C0000F5837401F090049FE06401706F120BD7
:104C8C00E58A088B098C0A8D0B78081218EE8E8237
:104C9C008F83A3A3121558121F6874041216808AEE
:104CAC00088B098C0A8D0B9085E9780C12153A78D3
:104CBC0008790C12136574037808121455E508244E
:104CCC00F4F508E5093401F509900816E0600312C3
:104CDC000F45E4F50AF50B78081218EE7A207B00E4
:104CEC00900498E0F9120F8D74041216807F08025C
:104CFC0017B174EC1216DFEAFEEBFF8C088D09EE8F
:104D0C004F70057902024DF3120BE58A0C8B0D8C5A
:104D1C000E8D0F908659780C1214A09085F9780C92
:104D2C001215018E828F83E06402701F9007F4E0ED
:104D3C00F8A3E0F9A3E0687003A3E06970248E8205
:104D4C008F83A3A3780C1215498017E064047012AA
:104D5C0090080AE0F8A3E0F9A3E0687003A3E06907
:104D6C0060DC780C1218EE850882850983A3A312E7
:104D7C001558121F6874041216808A108B118C122D
:104D8C008D1390867578101213464003024D0F85D3
:104D9C000882850983A3A3780812153A9086357882
:104DAC00081214A078081218EE8E828F83A3A31217
:104DBC001558121F0B7404121680E96003024D0F74
:104DCC00908665780C1214A0780C1218EE8E828FD7
:104DDC0083A3A3121558121F0B7404121680E970CA
:104DEC0004790080027901024B7874F01216DF8985
:104DFC000874FF65086003024F8290086AE054074C
:104E0C00700302544E7A007869790888828983A3EA
:104E1C00A3A3A3A3E064047050EA75F018A4F8A946
:104E2C00F0746F28F582740839F583E064017048DA
:104E3C007A007869790888828983A3A3A3A3A3E065
:104E4C0064046003024EDA88828983A3A3A3A3A31C
:104E5C00A3E064017078EA75F018A4F8A9F0746EF8
:104E6C0028FA740839FB0254520AE82418F8E93479
:104E7C0000F9EAC3940440937A007869790888822F
:104E8C008983A3A3A3A3A3E064017057EA75F01868
:104E9C00A4F8A9F0746F28F582740839F583E064DE
:104EAC0001704F7A007869790888828983A3A3A35B
:104EBC00A3A3E064016003024F5E88828983A3A3ED
:104ECC00A3A3A3A3E064016003024F5E80880AE8F9
:104EDC002418F8E93400F9EAC394045003024E4252
:104EEC0002544E0AE82418F8E93400F9EAC3940491
:104EFC00408C7A007869790888828983A3A3A3A35C
:104F0C00A3E064027061EA75F018A4F8A9F0746F5C
:104F1C0028F582740839F583E0640170597A0078B9
:104F2C0069790888828983A3A3A3A3A3E064027090
:104F3C007A88828983A3A3A3A3A3A3E06401706BE3
:104F4C00EA75F018A4F8A9F0746E28FA740839FB05
:104F5C00806F0AE82418F8E93400F9EAC394045085
:104F6C0003024EB502544E0AE82418F8E93400F94D
:104F7C00EAC3940440827A0078697908888289832C
:104F8C00A3A3A3A3A3E06508703D88828983A3A390
:104F9C00A3A3A3A3E06401702EEA75F018A4F8A9EA
:104FAC00F0746E28FE740839FF802F0AE82418F874
:104FBC00E93400F9EAC394045003024F2F7A007BC2
:104FCC000002545202544E0AE82418F8E93400F94D
:104FDC00EAC3940440A67E007F007A0078697908C1
:104FEC0088828983A3A3A3A3A3E06508701BEA7539
:104FFC00F018A4F8A9F0746F28F582740839F583B9
:10500C00E0640170137A0180110AE82418F8E9347D
:10501C0000F9EAC3940440C87A00E50814600F1440
:10502C0070030251EB24FE700302534580967B0003
:10503C007869790888828983A3A3A3A3A3E0640277
:10504C007055EB75F018A4F8A9F0746F28F58274FC
:10505C000839F583E06401704D7B00786979088824
:10506C00828983A3A3A3A3A3E0640260030251215A
:10507C0088828983A3A3A3A3A3A3E0640160030292
:10508C005121EB75F018A4F8A9F0746E28F50A7488
:10509C000839F50B0251390BE82418F8E93400F9FA
:1050AC00EBC39404408E7B007869790888828983ED
:1050BC00A3A3A3A3A3E064046003025175EB75F0F2
:1050CC0018A4F8A9F0746F28F582740839F583E0F8
:1050DC00640160030251877B0078697908888289B2
:1050EC0083A3A3A3A3A3E064046003025192888268
:1050FC008983A3A3A3A3A3A3E06401600302519239
:10510C00EB75F018A4F8A9F0746E28F50A74083938
:10511C00F50B0251AA0BE82418F8E93400F9EBC39B
:10512C009404500302506B750A00750B00EAA2E060
:10513C0040030251DD850A82850B83A3A3780C12F0
:10514C00153A908655780C1214A0780C1218EE8E25
:10515C00828F83A3A3121558121F0B74041216808E
:10516C00E9706EEEFAEF024E710BE82418F8E93490
:10517C0000F9EBC3940450030250B8EAA2E0505873
:10518C00EEFAEFFB80560BE82418F8E93400F9EB43
:10519C00C3940450030250E9750A00750B00EAA28F
:1051AC00E0502E850A82850B83A3A3780C12153A46
:1051BC00908655780C1214A0780C1218EE8E828FF3
:1051CC0083A3A3121558121F0B7404121680E960E6
:1051DC0092AA0AAB0B0254527A007B000254527B07
:1051EC00007869790888828983A3A3A3A3A3E064C8
:1051FC00047052EB75F018A4F8A9F0746F28F582BE
:10520C00740839F583E06401704A7B007869790889
:10521C0088828983A3A3A3A3A3E06404600302523E
:10522C00B988828983A3A3A3A3A3A3E06401707D9F
:10523C00EB75F018A4F8A9F0746E28F50A74083907
:10524C00F50B0252D10BE82418F8E93400F9EBC342
:10525C00940440917B007869790888828983A3A3A0
:10526C00A3A3A3E06401600302530DEB75F018A433
:10527C00F8A9F0746F28F582740839F583E064019D
:10528C00600302531F7B007869790888828983A3A5
:10529C00A3A3A3A3E06401600302532A8882898339
:1052AC00A3A3A3A3A3A3E06401707380830BE824DE
:1052BC0018F8E93400F9EBC39404500302521C753E
:1052CC000A00750B00EAA2E040030251DD850A8258
:1052DC00850B83A3A3780C12153A908655780C1283
:1052EC0014A0780C1218EE8E828F83A3A31215587B
:1052FC00121F0B7404121680E960030251DD025177
:10530C006F0BE82418F8E93400F9EBC3940450034C
:10531C00025266EAA2E0501AEEFAEFFB80180BE894
:10532C002418F8E93400F9EBC394045003025297A3
:10533C00808D7A007B000254527B00786979088852
:10534C00828983A3A3A3A3A3E064017040EB75F04F
:10535C0018A4F8A9F0746F28F582740839F583E065
:10536C00640170387B007869790888828983A3A3EB
:10537C00A3A3A3E06401600302540A88828983A377
:10538C00A3A3A3A3A3E06401707402523C0BE82412
:10539C0018F8E93400F9EBC3940440A37B00786956
:1053AC00790888828983A3A3A3A3A3E06402706312
:1053BC00EB75F018A4F8A9F0746F28F5827408390D
:1053CC00F583E06401705B7B0078697908888289D9
:1053DC0083A3A3A3A3A3E06402704F88828983A351
:1053EC00A3A3A3A3A3E064017040EB75F018A4F889
:1053FC00A9F0746E28F50A740839F50B80410BE896
:10540C002418F8E93400F9EBC394045003025376E2
:10541C000252CB0BE82418F8E93400F9EBC39404DE
:10542C004080EAA2E0501B02516F0BE82418F8E907
:10543C003400F9EBC394044094750A00750B000218
:10544C0052D17A007B00024CF974F61216DF8909EE
:10545C007508007869790888828983A3A3A3A3A31C
:10546C00A3E06003025531E50875F018A4F8A9F023
:10547C00746E28FE740839FF8E828F83A37401F03A
:10548C008E828F83E509F0120BE58E828F83A3A3A6
:10549C001215648E828F83A3A3A3A3A3A3E4F0A30A
:1054AC00F090862D121558EE240EF582EF3400F58F
:1054BC0083121564EE2414F582EF3400F583740125
:1054CC00F0EE2415F582EF3400F5837401F0EE2430
:1054DC0016F582EF3400F583E4F0A3F090086AE04F
:1054EC004509F0900869E004F06401600C74806573
:1054FC00096006744065097019E50875F018A4F880
:10550C00A9F0746E28F8740839F990086CE8F0A3C7
:10551C00E9F0E50875F018A4F8A9F0746E28FA748F
:10552C000839FB80180508E82418F8E93400F9E577
:10553C0008C3940450030254637A007B0080007FFC
:10554C00020217B1C082C0838A828B83E0F8A3E089
:10555C00F98A828B83E4F0A3F088828983A3F08894
:10556C00828983E0F4F890086AE058F0900869E0CA
:10557C0014F0700B90086CE4F0A3F0900499F08098
:10558C001CC082C083900869E0600A90086CE0FA45
:10559C00A3E0FB80047A007B008002E0F9D083D08A
:1055AC0082020122C082C083E9FB7A007869790803
:1055BC0088828983A3A3A3A3A3E06B7016EA75F07A
:1055CC0018A4F8A9F0746F28F582740839F583E0F3
:1055DC00F980110AE82418F8E93400F9EAC39404B4
:1055EC0040CE790080B7C082C0839008690255A76D
:1055FC0074F61216DFEAFEEBFF9061D0E0C0E0EE2D
:10560C002400F582EF3401F583D0E0F09061D7E00F
:10561C00FA9061D5E0C39A547FC0E0EE2401F58284
:10562C00EF3401F583D0E0F0EE2402F8EF3401F909
:10563C009061D6E0C39A547F88828983F0701A9067
:10564C0061C5E0A2E45012E0A2E7500DEE2402F591
:10565C0082EF3401F5837480F0120CABEE2401F56B
:10566C0082EF3401F583E07034EE2402F582EF34DE
:10567C0001F583E070279061C5E0A2E4501FE0A221
:10568C00E7501AEE2402F582EF3401F5837480F0B2
:10569C00EE2401F582EF3401F5837480F075E19509
:1056AC007800EE2400F582EF3401F583E06027905A
:1056BC0061D3E0C0E08808EE2508F582EF3400F5F0
:1056CC0083D0E0F008EE2400F582EF3401F583E09E
:1056DC00F9E8C39940D975E19102554B74F612164D
:1056EC00DFEAFEEBFF9061C8E0C0E0EE2403F58238
:1056FC00EF3401F583D0E0F09061CFE0FA9061CD0A
:10570C00E0C39A547FC0E0EE2404F582EF3401F537
:10571C0083D0E0F0EE2405F8EF3401F99061CEE08F
:10572C00C39A547F88828983F0701A9061C5E0A275
:10573C00E05012E0A2E3500DEE2405F582EF3401A7
:10574C00F5837480F0120CB1EE2404F582EF340171
:10575C00F583E07034EE2405F582EF3401F583E037
:10576C0070279061C5E0A2E0501FE0A2E3501AEE52
:10577C002405F582EF3401F5837480F0EE2404F5F2
:10578C0082EF3401F5837480F0120CB77A00EE24AA
:10579C0003F582EF3401F583E0602F9061CBE0C01C
:1057AC00E08A08EE2508F8EF3400F9E82480F58249
:1057BC00E93400F583D0E0F00AEE2403F582EF34EF
:1057CC0001F583E0F8EAC39840D175E18102554BAD
:1057DC0074F41216DF8908A808E875F08AA4C8AA20
:1057EC00F02AF974CE28FE740839FFEEFAEFFB129A
:1057FC000B9DEEFAEFFB120B97750A80750B007878
:10580C000A1218F27C007D60EE2406FAEF3401FBDC
:10581C00120AE37402121680906195E0C0E0EE2447
:10582C0086F582EF3401F583D0E0F0906196E0C00C
:10583C00E0EE2487F582EF3401F583D0E0F090613F
:10584C0097E0C0E0EE2488F582EF3401F583D0E0D8
:10585C00F0906198E0C0E0EE2489F582EF3401F518
:10586C0083D0E0F07F040217B174F21216DF8908BE
:10587C00A808E875F08AA4C8AAF02AF974CE28F80A
:10588C00740839F99061C6E0FDE054F0F075E181DF
:10589C007C00E82403F582E93401F583E0602B8C6D
:1058AC000AE8250AFAE93400FBEA2480F582EB3495
:1058BC0000F583E09061CAF00CE82403F582E9342A
:1058CC0001F583E0FAECC39A40D5E82405F582E9AA
:1058DC003401F583E060049061CEF0E82404F58295
:1058EC00E93401F583E060049061CDF0ED9061C680
:1058FC00F0A808E875F08AA4C8AAF02AF974CE2892
:10590C00F8740839F9E0FCE0540FF075E1917A0075
:10591C00E82400F582E93401F583E060238A0AE883
:10592C00250AF582E93400F583E09061D2F00AE8AB
:10593C002400F582E93401F583E0FBEAC39B40DDEA
:10594C00E82402F582E93401F583E060049061D625
:10595C00F0E82401F582E93401F583E060049061FC
:10596C00D5F0EC9061C6F0850882AE82EEF875F049
:10597C008AA4C8AAF02AF974CE28F50A740839F555
:10598C000B750C80750D00780C1218F2E50A2406C4
:10599C00FCE50B3401FD7A007B60120AE374021201
:1059AC001680A80AA90BE82486F582E93401F58350
:1059BC00E0906195F0E82487F582E93401F583E005
:1059CC00906196F0E82488F582E93401F583E09043
:1059DC006197F0E82489F582E93401F583E0906160
:1059EC0098F0EE75F006A4CEA8F028FF74C92EF539
:1059FC008274043FF583E0F8A3E0F5838882E064C9
:105A0C008070419011B17425F0A3740BF0A3740D48
:105A1C00F0A3740BF0A37425F0A3740BF0A37425FE
:105A2C00F0A3740BF0A3740DF0A3740BF0A3742506
:105A3C00F0A3740BF0A3742BF0A3740BF0900499E7
:105A4C00740880059004997407F09011BF740DF0E0
:105A5C00A3740BF0A3740DF0A3740BF0A3740DF0EE
:105A6C00A3740BF0A3740DF0A3740BF0A3740DF0DE
:105A7C00A3740BF0A3740DF0A3740BF07F06021744
:105A8C00B1C082C083E990118FF0D083D082020123
:105A9C002274F61216DFE9900364F07CA47D037A7D
:105AAC00FF7BFF1207237A008A08750900740278BD
:105ABC000812165774652508F874033509125AEC48
:105ACC00A3F00AEAC3940340DF79051206B19003F0
:105ADC0064E0F91205D97A3B7B071208F102706D6C
:105AEC00F98882898374FF125AF9E4F022F0A31228
:105AFC006EFAA32274F41216DF8A088B09EB548019
:105B0C006030900364E0F9120F038A0A8B0BAE0A23
:105B1C00AF0BEE4F60138E828F83E064B070031274
