:020000040000FA
:0600000002010A021D9B33
:03002B000220347C
:0300330002201692
:03003B0002204D53
:03004300021FCACF
:03005300021E0E7C
:03006B00021FF081
:10008300021C4FE5C754F84401F5C779012200006B
:100093000080FB120086B900030200F4E4791A78A9
:1000A30002B800028004F709D8FCE4791C7802B88E
:1000B30000028004F709D8FCE4900281788B790F61
:1000C3008002F0A3D8FCD9FA90110BAA82AB8390DB
:1000D300013A78D479018015E493A3AC82AD838A85
:1000E300828B83F0A3AA82AB838C828D83D8E9D9D8
:1000F300E77582347583CD740312011C7582917583
:100103008300740012011C75D00075813F7518813E
:10011300751902759F00020096C09FF59FE473D086
:100123009F22D083D082C09FE493C0E0740193C028
:10013300E0740293F59F229903AB03D5039F03FF5A
:100143000000B4000028002800283075A000A0009B
:10015300A000A00000080008E001F000100010005B
:10016300100010001000100050005000500010004C
:100173001000D0070000000000000F000100050080
:10018300307507001000010081FF0000FF0202022A
:1001930060860100004186024E8601000061110263
:1001A3004A86010000B102024E860100006211027C
:1001B3005486010000C702FFFF0100FF2002608692
:1001C3000100004486024E860100009011025C8605
:1001D3000000000000024C86030000A4030D0B0D79
:1001E3000B0D0B0D0B0D0B0D0B0D0B0D0B0D0B0D4C
:1001F3000B0D0B0D0B0D0BDB0CF90CD50CFFFF01DD
:10020300E803053F1002FF00FEFF12012558C60355
:100213001201256EC6031201259BC603120125CBCD
:10022300C603120125E2C60312012503C703120107
:100233002534C70312012585C7031201259CC70373
:100243001201251EC00312012535C00312012564C6
:10025300C0031201259DC003120125C5C00312016D
:1002630025F3C0031201250AC10312012521C1038D
:1002730012012537C1031201255EC1031201257145
:10028300C10312012587C103120125AFC103120166
:100293002504A90212012503AA021201252DAA028F
:1002A30012012582AA02120125A3AA02120125BC6A
:1002B300AA02120125BEAA02120125DFAA02120117
:1002C30025E2AB021201259FAC021201256CAD029F
:1002D300120125D0AD0212012567AE021201256A73
:1002E300AE02120125F0AE0212012533AF02120154
:1002F3002585AF0212012588AF02120125BFAF0287
:10030300120125E6AF021201257CB0021201250578
:10031300B1021201254EB1021201255BB102120195
:10032300255EB102120125BCB102120125D4B1022E
:100333001201254EB20212012551B2021201257497
:10034300B20212012577B2021201251EB302120175
:100353002541B30212012559B30212012589B302C3
:1003630012012596B30212012599B3021201250544
:10037300B402120125F3B402120125A9B502120138
:100383002558C00212012533C10212012561C102A1
:10039300120125E1C10212012501C2021201253F0A
:1003A300C20212012592C202120125FAC2021201EF
:1003B300258BC30212012556C40212012565C7020B
:1003C300120125D1C802120125F4C8021201252504
:1003D300AB03120125B6AC0312012507AD031201CD
:1003E3002566AD0312012574AD031201259DAD03EE
:1003F300120125C48503120125EC85031201251A78
:100403008603120125518603120125B986031201C1
:10041300250287031201254D87031201258B8703CC
:10042300120125C88703120125F687031201259DB2
:100433008803120125A78803120125B4880312013A
:1004430025E78803120125A98903120125B589032C
:10045300120125CD8903120125D7890312012555E0
:100463008A03120125ACC903120125BAC90312017B
:1004730025D2C903120125EAC90312012502CA03C1
:100483001201254CF001120125EAF0011201256247
:10049300F10112012577F201120125B1F2011201D6
:1004A300255AF3011201252FF40112012593F501B9
:1004B300120125EAF50112012571F60112012558F1
:1004C300F701120125A5F70112012533F8011201E5
:1004D3002557F8011201252CFA011201256DFA01A5
:1004E3001201258FFA0112012554FB011201251A6D
:1004F300FC011201254FFE01120125D89F031201B1
:1005030025EE9F0312012514A0031201253CA1032C
:1005130012012546A1031201259FA2031201259F63
:10052300A303120125E68A03120125888B03120116
:1005330025BB8B03120125058C03120125BF8D03F7
:10054300120125FFB0011201257DB1011201258D94
:10055300B10112012570B2011201257AB201120113
:1005630025A8B201120125B3B2011201258CB301F2
:10057300120125EEB3011201258AB4011201258E61
:10058300B60112012545B801120125C1B8011201B6
:10059300259EB901120125CCBC011201256ABD01BA
:1005A300120125C7BE011201253AC001120125E33C
:1005B300C0011201252CC10112012563C1011201E1
:1005C3002508C20112012586C201120125CCD201E0
:1005D30012012521D30112012566D40112012576CA
:1005E300D40112012599D401120125E4D401120189
:1005F3002589D5011201257FD60112012549D7018D
:10060300120125C1D80112012503D901120125A127
:10061300D901120125C7D901120125B5DB01120148
:1006230025BADB011201259BDD01120125EFDD0156
:1006330012012551DE0112012579DE011201251D6A
:10064300DF01120125DFDF0112012510E001120194
:100653002513E0011201255BE0011201259DE00154
:1006630012012504E1011201251FB80312012532ED
:10067300B8031201253BB80312012554B803120134
:10068300259FB8031201257AB90312012509BA037C
:1006930012012554BA03120125795A001201258942
:1006A3005A00120125EC5A00120125315B00120198
:1006B30025E15B00120125BA5C00120125E35C0011
:1006C300120125135D00120125275F001201250386
:1006D3006100120125E362001201251B640012016F
:1006E30025946600120125806700120125C6680063
:1006F300120125D36900120125156A001201254D47
:100703006A00120125676A00120125CF6A001201EF
:1007130025696F001201250A70001201255E700021
:10072300120125857000120125C37000120125E214
:1007330070001201253671001201253E720012016C
:1007430025C772001201250080031201250A8003C8
:10075300120125A680031201257181031201259040
:100763008103120125B68103120125F581031201CC
:10077300252D82031201255682031201259082033F
:10078300120125A582031201257283031201259507
:100793008303120125B78303120125CC83031201BE
:1007A3002556840312012590840312012504850331
:1007B3001201254D85031201257785031201259C1E
:1007C3008503120125EC9B03120125B69C0312013C
:1007D30025999D031201250F9E03120125519E03A6
:1007E3001201257E9F03120125CF8D02120125F8E8
:1007F3008D02120125118E02120125568F0212015C
:1008030025349002120125539002120125E0900233
:100813001201252391021201255B9202120125C7C1
:100823009202120125BD94021201254B9702120177
:1008330025DE9702120125B298021201255599026D
:10084300120125689A02120125FE9A02120125DE81
:100853007E00120125477F001201259B7F001201B4
:1008630025CA7F00120125628F03120125CF8F0352
:100873001201251A90031201250F91031201250B72
:100883009203120125F5920312012582E10212015E
:1008930025C9E102120125A2E2021201259DE3020C
:1008A3001201257CE402120125E8E4021201250469
:1008B300E6021201256BE6021201256EE602120121
:1008C3002599E6021201250AE702120125ADE70286
:1008D300120125C2E7021201250AE80212012523AB
:1008E300E80212012526E802120125B5AE03120122
:1008F30025F1AE031201252FAF03120125F9AF0332
:100903001201256CB003120125A7B003120125E5DE
:10091300B00312012515B1031201253CB1031201E5
:1009230025A7B103120125E9B1031201256486014C
:10093300120125828801120125318A01120125E164
:100943008A011201252C8B01120125778B011201DB
:1009530025898B01120125C98B01120125FE8B010B
:100963001201254A8C01120125798C011201259C63
:100973008C01120125238D011201250F8E01120115
:10098300254D8F011201254F90011201252B920154
:100993001201254F9701120125959701120125D3C5
:1009A3009701120125089A011201257EBA0312014B
:1009B300251EBC03120125C020001201255721006A
:1009C3001201259D2100120125D322001201256A5F
:1009D3002400120125E2240012012524250012011E
:1009E30025742500120125DF26001201254A29005E
:1009F300120125262A00120125452A001201256429
:100A03002A00120125672A00120125ED2B0012018D
:100A130025E22C00120125DE2D001201254E2E00A9
:100A2300120125C02E001201253F2F001201251AA5
:100A3300300012012521310012012500320012017C
:100A4300258B3200120125F932001201256D330086
:100A53001201259633001201255534001201256435
:100A63003700120125AD3700120125F037001201BE
:100A730025733800120125173900120125A8390002
:100A8300120125CD3900120125173A001201254123
:100A93003A00120125863A00120125013B0012019A
:100AA300255B3B00120125AF3C001201256C3D0084
:100AB3001201253F3E00120125008002120125503C
:100AC30080021201255C8002120125398102120184
:100AD30025698102120125A18102120125208202CA
:100AE300120125588202120125AA8202120125E76A
:100AF30082021201250C8502120125388702120198
:100B0300253389021201250E8B02120125F6FF01FE
:100B130012012591F402120125C3F80212012513D3
:100B2300FA021201253AC3011201250CCA0112016E
:100B33002512CA01120125C2CC0112012556FA025F
:100B430012012502FB02120125D0FB02120125FA34
:100B5300FB0212012548FE021201256D3E0012011F
:100B630025B73E00120125694B00120125EA4C000E
:100B7300120125E24D001201254154001201253CCA
:100B830055001201257955001201259C55001201CB
:100B930025DE5500120125E85500120125D4560023
:100BA300120125C857001201256158001201253191
:100BB300B2031201252FB30312012585B3031201DA
:100BC30025C3B30312012520B4031201259DB403E9
:100BD300120125A6B403120125B2B403120125C5DF
:100BE300B40312012501B50312012517B503120140
:100BF300254AE80212012557E80212012571E8028D
:100C0300120125B0E802120125EEE8021201255374
:100C1300E90212012568E9021201257FE9021201A6
:100C2300258DE9021201259CE902120125B1E90291
:100C3300120125C6E902120125D1E902120125DDBF
:100C4300E902120125EAE902120125F9E90212017A
:100C53002504EA0212012529EA02120125D2EA0239
:100C6300120125E7EA02120125FCEA021201251608
:100C7300EB0212012531EB021201254EEB021201A8
:100C83002559EB0212012515EC0212012501ED0293
:100C930012012526ED0212012530ED021201254431
:100CA300ED0212012563ED02120125C4ED021201CA
:100CB30025CAED02120125D0ED02120125D6ED025F
:100CC300120125E2ED0212012515EE021201252182
:100CD300B6021201254DB60212012531B7021201E7
:100CE30025CBB902120125E1BA02120125FEBB028E
:100CF300120125A1BC0212012547BD021201257A6A
:100D03009B02120125FC9B02120125A59C021201E4
:100D130025ED9D02120125FB9F02120125E1A00290
:100D230012012516A10212012538A102120125E1A3
:100D3300A102120125B1A302120125DAA3021201B5
:100D43002552A40212012584A40212012591A402B2
:100D5300120125DCA40212012500A502120125516E
:100D6300A7021201255BA802120125B7A8021201EE
:100D730025CEE101120125DFE201120125C3E301C2
:100D8300120125CDE301120125EFE301120125FB39
:100D9300E3011201259FE501120125CCE5011201B2
:100DA30025E2E60112012537E70112012586E80154
:100DB3001201255BE901120125B7E9011201252280
:100DC300EA0112012557EA011201259AEA011201EB
:100DD3002564ED011201257CED011201250DEE01C3
:100DE3001201251BEE0112012568EE011201257681
:100DF300EE01120125E2EE011201255DEF01120160
:100E030025B4EF0112012565BE031201258ABE0335
:100E130012012500BF0312012593DA021201259C5A
:100E2300DA02120125A5DA021201257DDB02120185
:100E3300252EDD021201255EDD0212012589DD0268
:100E4300120125B9DD02120125E4DD021201251884
:100E5300DE0212012544DE0212012587DE021201A1
:100E630025B2DE02120125F9DE021201254EDF0250
:100E730012012590DF02120125EADF021201251576
:100E8300E00212012564E00212012594E00212013E
:100E930025BFE002120125E2E002120125E9CB039E
:100EA30012012515CC0312012542CC031201254C56
:100EB300CC031201255CCC0312012562D20212017C
:100EC300256CD202120125ADD202120125F6D202FF
:100ED30012012530D30212012586D302120125A760
:100EE300D30212012556D6021201255FD602120142
:100EF30025B3D602120125DCD602120125E6D6025D
:100F030012012554D702120125E4D7021201253F0D
:100F1300D8021201256DD802120125F5D80212015B
:100F23002534D90212012569D9021201257BD90280
:100F33001201259AD902120125A3D90212012565AE
:100F4300DA02120125B5C80312012574BC0312018C
:100F530025AABC03120125DEBC031201252BBE0307
:100F630012012593FF02120125A9FF02120125B3E5
:100F7300FF02120125B79303120125CA930312013D
:100F8300258E9403120125CD9403120125EA9403BF
:100F9300120125239503120125709503120125A241
:100FA3009503120125D99503120125EC970312012C
:100FB30025D5CC03120125C1C103120125E4C103C8
:100FC30012012513C203120125ABC203120125C36B
:100FD300C20312012505C3031201254EC3031201E7
:100FE300255CC303120125CDC3031201252BC403C2
:100FF30012012549C40312012592EE02120125D4E0
:10100300EE0212012554EF0212012567EF021201CD
:1010130025BCEF0212012510F00212012555F00242
:1010230012012564F00212012513F1021201256E4B
:10103300F102120125BDF10212012517F20212017C
:101043002524F3021201251CF40212012559F4028E
:1010530012012566CC03120125219C011201251FD3
:101063009E01120125BC9F0112012569A0011201F5
:1010730025E9A0011201256BA10112012594A1010B
:10108300120125E6A1011201251FA60112012596D1
:10109300A601120125ADA701120125E7A70112013F
:1010A3002528A8011201256FA9011201259EA90176
:1010B300120125F4A9011201253DAA01120125A956
:1010C300AA011201251DAB011201254BAB0112012F
:1010D3002563AB011201257CAC011201258CAC0107
:1010E30012012547AE011201255EAE0112012590C2
:1010F300AE011201252DB001120125C1B00112016B
:10110300259BCA03120125ACCA0312012587CD030F
:10111300120125C6CD03120125EB7F001201254CD8
:10112300CB031201255CCB0312012577CB031201FC
:1011330025DFCB03120125B3C70312012538C803EA
:101143001201259CC803120125D3C403120125FCF7
:10115300C40312012567C503120125B8C503120193
:101163002513C603120125F99703120125269803B7
:10117300120125989803120125AD9803120125CE7B
:101183009903120125519A03120125CA9A031201E8
:1011930025E99A031201250C9B03120125499B03A0
:1011A300120125619B03120125B79B0312012574CC
:1011B300A7031201258BA70312012505A80312011A
:1011C30025E9A803120125C0AA03120125A9A30337
:1011D30012012539A403120125C2A4031201255EBD
:1011E300A503120125EFA5031201259FA6031201F2
:1011F30025ADA6031201252BA7031201253EA70344
:1012030012012554A7031201255EA70312012571BC
:10121300A7031201255EFE01120125B0FE01120192
:101223002523FF0112012590FF0112012547B50374
:1012330012012571B50312012540B6031201251CC5
:10124300B703120125ADB7031201252CCA021201FF
:1012530025F8CA0212012539CB0212012573CB02EC
:10126300120125D1CB0212012525CC0212012583BF
:10127300CC0212012519CD0212012521CE02120141
:1012830025ABCF0212012549D002120125B0D002AD
:10129300120125C3D002120125B7D1021201250084
:1012A300D2021201252E73001201254B7400120184
:1012B30025357500120125CF7700120125AF78007F
:1012C300120125F57800120125917B00120125E119
:1012D3007B001201257F7C00120125B67D001201DF
:1012E300255C7E0012012506CE03120125D0CD0315
:1012F30012012533CE031201255BCE03E066701085
:1013030008A3E066700A08A3E066700408A3E06619
:1013130022C3E7960809E7960809E7960809E796BE
:1013230022C3E09608A3E09608A3E09608A3E096FC
:1013330022C008C3E096F50808A3E096420808A374
:10134300E096420808A3E09645087001D3D008222E
:10135300080808EAC0E0EBC0E086F0E7A4FA180941
:1013630086F0E7A42AFA180986F0E7A42AFA1809EE
:1013730086F0E7A42AFA1986F0E7A4FBE5F02AFA37
:10138300190886F0E7A42BFBE5F03AFA190886F072
:10139300E7A42BFBE5F03AFA18180986F0E7A4C591
:1013A300F02BFBE43AFA1908E7C5F0C6A426F6E5E4
:1013B300F03BFBE43AFA1886F0E7A4F6E5F00826DA
:1013C300F6E43B08F6E43A08F6D0E0FBD0E0FA2274
:1013D300E4CFC0E0E4CEC0E0E4CDC0E0E4CCC0E0C4
:1013E30075F020C3E633F608E633F608E633F6086D
:1013F300E633F6181818EC33FCED33FDEE33FEEF4D
:1014030033FFC3EC9709ED9709EE9709EF97191985
:1014130019400FFFEC97FC09ED97FD09EE97FE19B4
:101423001906D5F0BEECF709EDF709EEF709EFF76A
:10143300191919D0E0FCD0E0FDD0E0FED0E0FF2286
:101443006016080808C6C313C618C613C618C61301
:10145300C618C613C6D5E0EA227009080808226038
:1014630016181818C6C333C608C633C608C633C60B
:1014730008C633C6D5E0EA22E627F60809E637F6BA
:101483000809E637F60809E637F622E026F608A348
:10149300E036F608A3E036F608A3E036F622E026A7
:1014A300F008A3E036F008A3E036F008A3E036F036
:1014B30022C3E697F60809E697F60809E697F608C1
:1014C30009E697F622C3E096F008A3E096F008A396
:1014D300E096F008A3E096F022E657F60809E657EF
:1014E300F60809E657F60809E657F622E056F60825
:1014F300A3E056F608A3E056F608A3E056F622E06A
:1015030056F008A3E056F008A3E056F008A3E0560F
:10151300F022E066F608A3E066F608A3E066F608A4
:10152300A3E066F622E0F608A3E0F608A3E0F608D7
:10153300A3E0F622E6F008A3E6F008A3E6F008A38A
:10154300E6F022E0FAA3E0FBA3E0FCA3E0FD22EA3D
:10155300F0A3EBF0A3ECF0A3EDF022CAC0E0E6F0B9
:10156300A308DAFAD0E0FA22CAC0E0E0A3C582CC2D
:10157300C582C583CDC583F0A3C582CCC582C5838F
:10158300CDC583DAE6D0E0CA22C3E498F8E499F93A
:101593001215CD8026C3E49AFAE49BFBE920E7E920
:1015A3001215CDE498F8E499F922C3E498F8E49984
:1015B300F91215CDE498F8E499F9C3E49AFAE49B97
:1015C300FB22EB20E7CFE920E7E0B90010BB0008DE
:1015D300E88AF084F8AAF022E4FBC8FA22EB70222E
:1015E3007B10C833C8C933C9335007C39AC3DBF26E
:1015F30080069A50012ADBEAC833F4C8C933F4C918
:10160300FA2275F008E4C833C8C933C933C99AC983
:101613009B5004C92AC93BD5F0ECFBC833F4C8E49A
:10162300C9FA22600D08C6A2E713C618C613C6D5A9
:10163300E0F322600C08C6C313C618C613C6D5E070
:10164300F422700422600D18C6C333C608C633C61D
:10165300D5E0F41822251810AF08F5184002151923
:101663008008F51840021519D2AF22C0D0251810F2
:10167300AF08F518500205198008F518500205192E
:10168300D2AFD0D0222518F58210AF08F51840024A
:1016930015198008F51840021519D2AF8519832250
:1016A300C5822518C582C583351910AF07F519857D
:1016B30082188007F519858218D2AFC583222518B1
:1016C300F582E43519F58322E4732518C582C0E059
:1016D300E51934FFC583C0E0E518C3958224F810EB
:1016E300AF08858319858218800885831985821838
:1016F300D2AFCEF0A3E520F0A37808E608F0A3DE8E
:10170300FAEFF0A3E58124FAF8E608F0A3E608F07F
:10171300A3E608F0A30808E608F0A3E608F0A3157B
:10172300811581D0E0FED0E0F8158115811581E89F
:10173300C0E0EEC0E0222518C582C0E0E51934FF01
:10174300C583C0E0E518C3958224F910AF088583EB
:10175300198582188008858319858218D2AFCEF047
:10176300A3E520F0A37808E608F0A3DEFAEFF0A3E0
:10177300E58124FBF8E608F0A3E608F0A30808E6F1
:1017830008F0A3E608F0A315811581D0E0FED0E0B0
:10179300F815811581E8C0E0EEC0E0228519838544
:1017A3001882E0A3FEE0A3F5207808E0A3F608DFA3
:1017B300FAE0A3FFE0A3C0E0E0A3C0E0E0A3C0E041
:1017C300E0A3C0E0E0A3C0E010AF088582188583E2
:1017D300198008858218858319D2AFD083D08202FD
:1017E3000122851983851882E0A3FEE0A3F5207802
:1017F30008E0A3F608DFFAE0A3FFE0A3C0E0E0A35C
:10180300C0E0E0A3C0E0E0A3C0E010AF0885821809
:101813008583198008858218858319D2AFD083D038
:101823008222C0D02518C582C0E0E51934FFC583E4
:10183300C0E0E518C3958224F310AF0885831985AA
:1018430082188008858319858218D2AFC8F0A3E96E
:10185300F0A3EAF0A3EBF0A37908E709F0A3D8FA21
:10186300ECF0A3EDF0A3EEF0A3EFF0A3D0E0F0A330
:10187300D0E0F0A3D0E0F0A3E520F0A3E5F0F0A3DF
:1018830022851983851882E0C0E0A3E0F9A3E0FA7A
:10189300A3E0FBA37808E0F608A3DFFAE0FCA3E0EB
:1018A300FDA3E0FEA3E0FFA3E0C0E0A3E0C0E0A34C
:1018B300E0F5D0A3E0F520A3E0A3F5F010AF088591
:1018C30083198582188008858319858218D2AFD041
:1018D30082D083D0E0F8D0E03274048006740280B2
:1018E300027401C0E0F404121688D0E012155E22DF
:1018F3007404800474028000CCC0E0EDC0E0E518FD
:10190300C39CCCAD1950011D10AF068C188D1980E6
:10191300068C188D19D2AF12156BD0E0FDD0E0FC08
:1019230022D083D082E9C0E0E493A3C386F0C5F05C
:1019330095F0F908E493A386F0C5F095F0700BE4F5
:1019430093A3C3994005E9048002A3E475F002A4BC
:101953002582F582E5F03583F583D0E0F9E493A39E
:10196300C0E0E493C0E022D083D082ECC0E0EDC0BD
:10197300E0E493A3FCE493A3FDED4C600D1219B6D0
:10198300EC24FFFCED34FFFD80EFE493A3FCE49330
:10199300A3FDED4C600D1219F5EC24FFFCED34FFB3
:1019A300FD80EFD0E0FDD0E0FCE493A3C0E0E4933E
:1019B300C0E022C0E0C3E4939608740193961840F4
:1019C3000FE4936670080874019366187000701929
:1019D300A3A3C3E49396087401939618A3A3400D9D
:1019E300D0E0D0E0D0E00219A6A3A3A3A3A3A3D081
:1019F300E022C0E0C0F088F0E49366700808740148
:101A03009366187000A8F0A3A3700BD0F0D0E0D0B9
:101A1300E0D0E00219A6A3A3D0F0D0E02274F5121F
:101A23001739EAFEEBFFEE2434F8EF3400F98808A7
:101A33008909EE2435F582EF3400F583E0F8EE24CE
:101A430037F582EF3400F583E0F50AEC850AF0A45C
:101A5300FCAAF0850AF0EDA42AFDE82CF8E43DF990
:101A63007A257B001215CDEA850882850983F05417
:101A730007F87401B800028004C333D8FCC0E0E067
:101A8300131313541FF8EE28F8EF3400F9E8245D1C
:101A9300F582E93400F583D0E0F8E0586008EE24DD
:101AA30034F582EF801EEE2436F582EF3400F583A1
:101AB300E0F5F0EA84A8F0EE28F8EF3400F9E82422
:101AC30038F582E93400F583E0F97F040217E57401
:101AD300F5121739EAFEEBFFEE2434F582EF3400FA
:101AE300F583E0C0E0EE2435F582EF3400F583D0D2
:101AF300E0F08E828F83A3A3A3A3A3A3A3C082C07A
:101B0300838E828F83A3A3A3A3A3E0F8A3E0F9D0DA
:101B130083D082E0C398F508A3E099F509EE248009
:101B2300F582EF3400F583E064017069EE2481F5FA
:101B330082EF3400F583E0F8A3E0F98E828F83A36C
:101B4300A3A3A3A3A3A3E0FCA3E0FD8E828F83A39F
:101B5300A3A3A3A3E0FAA3E0FBC3EA9CEB9D502756
:101B6300C3EC98ED99402EC3EA98EB9950277CE299
:101B73007D07EEFAEFFB120A53EE2480F582EF3471
:101B830000F583E4F0800EC3EA98EB9940E0C3ECE0
:101B930098ED9950D9EE2434F8EF3400F9E8FCE9D4
:101BA300FDEE2435F582EF3400F583E0F8EE2437BB
:101BB300F582EF3400F583E0F50AE508850AF0A421
:101BC300F508AAF0850AF0E509A42AF509E825082D
:101BD300F8E43509F97A257B001215CDEA8C828D5C
:101BE30083F05407F87401B800028004C333D8FCAF
:101BF300C0E0E0131313541FF8EE28F8EF3400F994
:101C0300E8245DF582E93400F583D0E0F8E058601C
:101C130008EE2434F582EF801EEE2436F582EF348D
:101C230000F583E0F5F0EA84A8F0EE28F8EF34003D
:101C3300F9E82438F582E93400F583E0F9121FBC92
:101C4300021ACD0000851A87851BC622C0E0C0D0CA
:101C5300E8C0E0E9C0E0EAC0E0EBC0E0ECC0E0EDE2
:101C6300C0E0C008C009C00AC00BC082C083C0F076
:101C7300759B00906182E0A2E64003021D2DE59171
:101C8300A2E64003021D2D7591BF900499E06405FF
:101C93007008120BCD120BD98003120BD3751A00E7
:101CA300120C33E990049AF07900120C151209C34F
:101CB3007A017B00900498E0F9120F1B907803E0FF
:101CC30064426003021D76900817E014F06003027B
:101CD3001D76C2AF121CDA00781DD0E0F618D0E0F2
:101CE300F6E59F5407F970059085C180039085F947
:101CF3007808121528E9C4C0E0781CE65508F508F1
:101D030008E65509F509740B7808121636D0E02554
:101D130008F8906270E0A2E740F8E8C3339062727B
:101D2300F0906270E0D2E0F08049E0A2E55024E553
:101D330091A2E5501E7591DF900499E0640D701334
:101D43009004BBE004F064287002E4F07A00E0F948
:101D5300120CC3906181E0A2E35009E5E9A2E350CC
:101D63000375E9F7A3E0A2E75009E591A2E7500361
:101D730075917FD0F0D083D082D00BD00AD009D018
:101D830008D0E0FDD0E0FCD0E0FBD0E0FAD0E0F9F1
:101D9300D0E0F8D0D0D0E032C0E0C0D0C082C08361
:101DA300906183E0A2E05009E5BFA2E0500375BF54
:101DB300FEE0A2E15009E5BFA2E1500375BFFDE0DB
:101DC300A2E25009E5BFA2E2500375BFFBE0A2E324
:101DD3005009E5BFA2E3500375BFF7E0A2E4500941
:101DE300E5BFA2E4500375BFEFE0A2E55009E5BFEC
:101DF300A2E5500375BFDFE0A2E65009E5BFA2E606
:101E0300500375BFBFD083D0828088C0E0C0D0E8C4
:101E1300C0E0E9C0E0EAC0E0EBC0E0ECC0E0EDC048
:101E2300E0C0F0E5A7A2E6500FE5A1A2E6500953F2
:101E3300A7BF75A1BF121E73E5A7A2E5500CE5A1CC
:101E4300A2E5500653A7DF75A1DFE5A7A2E150097C
:101E5300E5A1A2E1500375A1FDE5A7A2E2500CE5BF
:101E6300A1A2E2500653A7FB75A1FBD0F0021D848B
:101E730074F8121739751A01900499E06406701505
:101E8300120B858A828B83A3A3A3A3A3A3E0FAA344
:101E9300E0FB120BBBA2AFE433FED2AF90049FE092
:101EA300640170187A207B00900498E0F9120F996E
:101EB3007A207B00900498E0F9120F21906182E070
:101EC300D2E6F0900816E0602185C61B80169004C8
:101ED3009EE064017008E5C654F84405F5C653BE98
:101EE300FC121C487401651A60E4EEA2E092AF7F15
:101EF300010217E574F11217398A088B098C0A8DD0
:101F03000B740F1216C1780C1215289085C9780826
:101F13001214EF9085C9780C1214EF7808790C121B
:101F2300131450157808790C1214B490862D780880
:101F3300121334401579018013780C79081214B404
:101F430090862D780C12133440EB79007F0802172A
:101F5300E574ED1217398A088B098C0A8D0B7413FB
:101F63001216C1780C1215289085C978081214EF3F
:101F73009085C9780C1214EF780C79081213144069
:101F8300117808790C1214B4AA08AB09AC0AAD0B8A
:101F930080227510007511007512007513017810F9
:101FA300790C1214B47810790812147BAA10AB11AF
:101FB300AC12AD137F0C0217E5C082C083E99060B9
:101FC30000F0D083D08222C0E074F2121825A2AFB1
:101FD300E433FED2AFC2C0E5D1A2E4500653D1EF41
:101FE30012120FEEA2E092AF7F01021884C0E074D8
:101FF300F2121825A2AFE433FED2AFE589A2E15075
:1020030003121161758900C2C5EEA2E092AF7F0190
:10201300021884C0E074F2121825A2AFE433FED292
:10202300AFE58BA2E05003121161758B00C2E8800B
:10203300D8C0E0C0D0E8C0E0E5A8D2AFC2C7A2E7ED
:1020430092AFD0E0F8D0D0D0E032C0E0C0D0E8C04A
:10205300E0E9C0E0C008C009C082C083A2AFE43396
:10206300F9D2AF901063E0F8A3E0687008539AFBCD
:10207300A374018026C2E9901063E0F5087401257A
:1020830008F074E32508F582740F3400F583E0F556
:10209300C1901063E0C394804002E4F0E9A2E092AF
:1020A300AFD083D082D009D008D0E0F9D0E0F8D007
:0420B300D0D0E03277
:1020B800FFFFFFFFFFFFFFFFC082C08390619074A6
:1020C80004F0A37448F0A37402F09061807440F0A7
:1020D8009061BC7403F09061877419F09062657424
:1020E8001BF090619C740DF090619A7433F0A374A6
:1020F80055F09061A0743AF0900814E064017009FA
:10210800C29190049D7467800590049D7461F0905D
:1021180020BEE493906186F09020B8E493F46027A1
:10212800E493540FF8906185E0686012E5C6548026
:102138004449F5C6E59E547F644970F8E8F053C6F3
:1021480080E59E547F70FA7905120CA502251DC002
:1021580082C083E5A8F853A87E906181E4F0A3F0DB
:10216800A3F0C2BA539AFEC289759B00C2C275E930
:102178000075910075BF0075A91175B90590618149
:10218800F0A374C0F0A3E4F0D2BA439A0174805863
:1021980042A802251DC082C08374F8121658900404
:1021A8009BE0F8A3E0F9E84970030222CB90049B76
:1021B800E0544060237908851882851983AA82AB88
:1021C80083120AC5851882851983AA82AB831207F0
:1021D800AD90049BE054BFF0E054806010790C7A15
:1021E800387B08120AC590049BE0547FF0E0A2E017
:1021F800503190619A7433F0A37455F09061A074D3
:102208003AF0900814E064017009C29190049D743A
:1022180067800590049D7461F01207B390049BE0F9
:1022280054FEF0E05402603190619A743FF0A37458
:102238005AF09061A0747FF0900814E0640170096E
:10224800D29190049D7471800590049D746AF01277
:1022580007B390049BE054FDF0E054046013902011
:10226800BCE493906186F01207B990049BE054FB9C
:10227800F0E0540860139020BDE493906186F0125A
:1022880007B990049BE054F7F0E0541060139020D5
:10229800BEE493906186F01207B990049BE054EF76
:1022A800F0E05420600A1207B990049BE054DFF074
:1022B800A3E05401600D1209CF1207BF90049CE0FF
:1022C80054FEF0740812166E02251D74EC1216CD19
:1022D80074F4121658851882851983AC82AD8375FB
:1022E80083857582B5740412156B9020BC93F460D5
:1022F80003022460907808E0C3940250030224404B
:1023080074041216C1AC82AD83758385758284749A
:102318000812156B851882851983858212858313A7
:1023280074041216C1AC82AD83750EFF750FFF7F62
:10233800FF7E00750C48750D78801574086E700363
:102348000223D374096E70030223D3740A6E607B70
:10235800850C82850D8378081215288C828D83A9B7
:1023680009E50AC9F8881074187808121443E510AA
:102378004508F8C3E098A3E099850C82850D837819
:102388000812152840188C828D8374187808121446
:1023980043E5104508F8E0C398F8A3E0801C7418DA
:1023A8007808121443E5104508FAE9FB8C828D83FE
:1023B800E0F8A3E0F9EAC398F8EB99F9C3E8950EB9
:1023C800E9950F5006880E890FEEFF0EE50C2404E0
:1023D800F50CE50D3400F50DEEC3941350030223FC
:1023E8004374FF650E700474FF650F60238F0874D3
:1023F80002780812164574482508F582747835095C
:10240800F5837808121528851282851383E508F06C
:10241800EC24020C0CED3400FD851282851383A395
:10242800858212858313740C1216C1E5826C7003C1
:10243800E5836D600302233175080175090078088A
:102448001218E074021216C1AC82AD837A2F7B0891
:1024580012113D740212166E740C12166E7F0C0265
:10246800179FC082C0839061AE7468F0A3746AF04D
:1024780090624574FBF0A304F053F4FD43FE029010
:1024880008147401F09061A0E0643A90619A702396
:102498007433F0A37455F09061A0743AF074016439
:1024A800017009C29190049D7467802890049D74FE
:1024B800618021743FF0A3745AF09061A0747FF09A
:1024C800740164017009D29190049D747180059023
:1024D800049D746A8000F002251DC082C0839007A5
:1024E800F2E0640170159007F8E064016009E0709B
:1024F8000AA3E064017004790C8012900809E06472
:1025080001700890080FE0640160EC790002251D55
:10251800E0F9121FBCD083D082020122C082C0839E
:102528009007FC7425F09007FA7401F0A3E4F07AA0
:1025380001FB120C219007E8E02416F8A3E0340010
:10254800F98882898374F3F0A37409F09007F9E09D
:10255800640170169007F8E070107901120C81126E
:102568000C51120C7B7900120C8D80A9C082C0839B
:1025780074FA1216589007F1E0640170081209DB2A
:102588009007F1E4F075E1F19007E8E02415F8A36D
:10259800E03400F9888289837401F09007F3E064DD
:1025A800017076908599C082851882851983AC82DE
:1025B800AD83758385D082740612156B75D90D901D
:1025C80007EAE0C4333354C04403F5D978E87907FF
:1025D80088828983A3A3A3E0F5D988828983A3A8E5
:1025E80082A983E864EE7003E9640770E3851882C2
:1025F800851983A882A98388828983E0F5D9A3A84D
:1026080082A98374061216C1E582687003E583699E
:1026180070E575E195790180027900120C27901117
:10262800B1743DF0A3740BF0A37443F0A3740BF0E2
:10263800A3743DF0A3740BF0A3743DF0A3740BF0E6
:10264800A3740DF0A3740BF0A3740DF0A3740BF036
:10265800A37449F0A3740BF09011BF740DF0A37428
:102668000BF0A3740DF0A3740BF0A3740DF0A37416
:102678000BF0A3740DF0A3740BF0A3740DF0A37406
:102688000BF0A3740DF0A3740BF09007EAE0F97A4D
:10269800EB7B07120C039007FCE0F9121FBC7901D1
:1026A800120C2D9085F1121546120C459085D51205
:1026B8001546120C0F7900120C999007E8E02414C3
:1026C800F8A3E03400F9888289837416F09004999D
:1026D8007405F0040222CD74F71216CD8908A808F3
:1026E800E875F006A4C8AAF02AF974C928FE74048B
:1026F80039FF900801E0F97A027B08120C03900870
:102708000FE0701A7900120C639007DBE0700B7908
:10271800007ADC7B07120C098009790180F37901C2
:10272800120C6375E1F175D923900801E0C43333C5
:1027380054C04405F5D978FF790788828983A3A313
:10274800A3E0F5D988828983A3A882A983E86405D0
:102758007003E9640870E375D90075D90075D9006C
:1027680075D90075D90075D900EEF8EFF9E8240499
:10277800FAE93400FBE82422F582E93400F583E025
:10278800F5D988828983A3A882A983EA687002EBB5
:102798006970E2EEF8EFF9E824031AE93400FBE87F
:1027A8002426F582E93400F583E0F5D98882898307
:1027B800A3A882A983EA687002EB6970E2EE242B71
:1027C800F582EF3400F583E0F5D9EEF8EFF9E82467
:1027D800021AE93400FBE8242CF582E93400F58379
:1027E800E0F5D988828983A3A882A983EA68700260
:1027F800EB6970E2EEF8EFF9E8242EF582E934008F
:10280800F583E0F5D988828983A3A882A983EA6839
:102818007002EB6970E2EEF8EFF9E82430F582E92E
:102828003400F583E0F5D988828983A3A882A98337
:10283800EA687002EB6970E2EEF8EFF9E82432F525
:1028480082E93400F583E0F5D988828983A3A882D8
:10285800A983EA687002EB6970E2EEF8EFF9E82400
:10286800050A0A0AE93400FBE8245DF582E9340028
:10287800F583E0F5D988828983A3A882A983EA68C9
:102888007002EB6970E2EE2437F582EF3400F583CD
:10289800E0541FF8EE242AF582EF3400F583E0C4F3
:1028A8003354E048F5D975E1959011B17413F0A34C
:1028B800740BF0A37419F0A3740BF0A3740DF0A3B8
:1028C800740BF0A3740DF0A3740BF0A3740DF0A3B4
:1028D800740BF0A3740DF0A3740BF0A3741FF0A392
:1028E800740BF09011BF740DF0A3740BF0A3740D6A
:1028F800F0A3740BF0A3740DF0A3740BF0A3740D84
:10290800F0A3740BF0A3740DF0A3740BF0A3740D73
:10291800F0A3740BF090080EE0F9121FBC9085F13B
:10292800121546120C459085D5121546120C0F90BB
:10293800600DE4F07901120C999004997406F00284
:102948002F3A74EC1216CD9007FFE0F8A3E0F58358
:102958008882A3A37810121528900810E0FAF87559
:10296800F006A4C8ACF02CF974F728F58274043981
:10297800F583E0FEA3E0FFEEC333FEEF33FF8E0CDA
:10298800F50D750E00750F00851008851109851263
:102998000A85130B9085F5780812148E780812189A
:1029A800DC85100885110985120A85130B780879CA
:1029B8000C12147B7810790C1213D3E4F50EF50F72
:1029C8007808790C1214B48A0C750D007403780C0D
:1029D8001216457808790C12147B9085C97808126C
:1029E80014EFAA08AB09AC0AAD0B121F54740412F9
:1029F800166E8A088B09A808A909C3EE98EF9950A2
:102A080006E82EF8E93FF9E890600EF0E9A3F0EE49
:102A1800A3F0EFA3F090600D74C1F0022465C082AA
:102A2800C0839007E8E0F8A3E0F5838882A3A3A316
:102A3800A3A3A3E4F0A3F09007FC022518C082C06A
:102A4800839007FFE0F8A3E0F5838882A3A3A3A3FC
:102A5800A3A3E4F0A3F090080E0225180201227443
:102A6800F61216CD9061D0E0F87480C398FCEA2481
:102A780083F582EB3400F583E06004780480027803
:102A880000E8240EF8ECC3985003022BE87E0C9063
:102A98000818E4F0EA2477F582EB3400F583E09037
:102AA8000819F0EA2478FCEB3400FD781A79087FDD
:102AB800028C828D83E088828983F08C828D83A347
:102AC800AC82AD8388828983A3A882A9831FEF7013
:102AD800E0EA247AFCEB3400FD7F028C828D83E0EF
:102AE80088828983F08C828D83A3AC82AD838882AF
:102AF8008983A3A882A9831FEF70E0EA247CFCEBFA
:102B08003400FD7F028C828D83E088828983F08C7B
:102B1800828D83A3AC82AD8388828983A3A882A98E
:102B2800831FEF70E0EA247EFCEB3400FD7F028C0B
:102B3800828D83E088828983F08C828D83A3AC8226
:102B4800AD8388828983A3A882A9831FEF70E0EAF6
:102B58002475FCEB3400FD8A828B83A3A3A3A3A373
:102B6800E0F508A3E0F5098C828D83E02508F0A341
:102B7800E03509F07F028C828D83E088828983F0BA
:102B88008C828D83A3AC82AD8388828983A3A8823B
:102B9800A9831FEF70E0EA2483F582EB3400F58304
:102BA800E0601975081875090878081218E07C0C97
:102BB8007903120B01740212166E7E1074012EF541
:102BC800D975D903758218758308EEFFE0F5D9A386
:102BD8001FEF70F875E1957904120C4B79018002AA
:102BE800790002311C74F61216CD9061D0E0F874A9
:102BF80080C398FCEA2483F582EB3400F583E06017
:102C080004780480027800E8240AF8ECC39850039A
:102C1800022CDD7508089008187401F07CE27D0725
:102C2800781979087E058C828D83E088828983F003
:102C38008C828D83A3AC82AD8388828983A3A8828A
:102C4800A9831EEE70E0EA2481FCEB3400FD8A8241
:102C58008B83A3A3A3A3A3E0FEA3E0FF8C828D83B1
:102C6800E02EF0A3E03FF07E028C828D83E0888224
:102C78008983F08C828D83A3AC82AD83888289831B
:102C8800A3A882A9831EEE70E0EA2483F582EB34C0
:102C980000F583E0601A7508187509087808121895
:102CA800E07C087903120B01740212166E75080C89
:102CB80074012508F5D975D903758218758308AE8E
:102CC80008E0F5D9A31EEE70F875E1957904120CA9
:102CD8004B79018002790002311C74F71216CDEA93
:102CE800FEEBFF9061D0E06003022DD975D918750D
:102CF800D90375D903EEF8EFF9E82408FAE93400A6
:102D0800FBE8249CF582E93400F583E0F5D9888254
:102D18008983A3A882A983EA687002EB6970E2EE4E
:102D2800F8EFF9E82402FAE93400FBE824A4F58274
:102D3800E93400F583E0F5D988828983A3A882A9BC
:102D480083EA687002EB6970E2EE2494F582EF344E
:102D580000F583E5822408F8E5833400F9E0F5D925
:102D6800A3E865827003E9658370F2EE2488F58232
:102D7800EF3400F583E5822404F8E5833400F9E0B4
:102D8800F5D9A3E865827003E9658370F275E1956A
:102D98007908EE2494FAEF3400FB120AB97904EEAC
:102DA8002488FAEF3400FB120AB97904120C4BEEAE
:102DB8002470F582EF3400F583E0F8A3E0F9EE24FF
:102DC80072F582EF3400F583E8F0A3E9F079018029
:102DD800027900022F3A74F61216CDEAFEEBFF9044
:102DE80008187406F075081875090878081218E0AC
:102DF8007C017903120B01740212166E75D90675DF
:102E0800D903758218758308E0F5D9A3E582641D96
:102E18007004E583640870F075E195900499E064A6
:102E280008701EEE2470F582EF3400F583E0F8A3F5
:102E3800E0F9EE2472F582EF3400F583E8F0A3E9B7
:102E4800F0790102311C74F61216CDEAFEEBFF9000
:102E580061D0E0705E900818740AF075081875095A
:102E68000878081218E07C017903120B0174021229
:102E7800166E75D90675D903758218758308E0F53D
:102E8800D9A3E582641D7004E583640870F075E1D8
:102E980095EE2470F582EF3400F583E0F8A3E0F9AD
:102EA800EE2472F582EF3400F583E8F0A3E9F079B7
:102EB800018002790002311C74F61216CDEAFEEB8D
:102EC800FF9061D0E070667801900818740BF0905C
:102ED8000499E064077019750818750908780812CC
:102EE80018E07C017903120B01740212166E780542
:102EF800740128F5D975D903758218758308E8FA1D
:102F0800E0F5D9A31AEA70F875E195EE2470F58218
:102F1800EF3400F583E0F8A3E0F9EE2472F582EFD0
:102F28003400F583E8F0A3E9F07901800279000222
:102F3800311C7F0102179F74F61216CDEAFEEBFFD3
:102F48009061D0E0F87480C398FAEE2483F582EF9C
:102F58003400F583E06004780480027800E8240BEC
:102F6800F8EAC39850030230157D099008187408D0
:102F7800F0EE24E5F8EF3400F97A197B087C08882C
:102F8800828983E08A828B83F088828983A3A882DE
:102F9800A9838A828B83A3AA82AB831CEC70E0EEA0
:102FA8002483F582EF3400F583E0601D75081875F9
:102FB800090878081218E07C097903EEFAEFFB1289
:102FC8000B01740212166E7D0D74012DF5D975D999
:102FD800037582187583088D08E0F5D9A31508E5EF
:102FE8000870F675E1957904120C4BEE2470F582A1
:102FF800EF3400F583E0F8A3E0F9EE2472F582EFF0
:103008003400F583E8F0A3E9F07901800279000241
:10301800311C74F61216CDEAFEEBFF9061D0E0F891
:103028007480C398FAEE2483F582EF3400F583E0C8
:103038006004780480027800E82408F8EAC398500D
:103048000302311A7D06900818740CF09004B6E05B
:10305800900819F07AB77B04781A79087C028A827A
:103068008B83E088828983F08A828B83A3AA82ABD0
:103078008388828983A3A882A9831CEC70E07AB92B
:103088007B047C028A828B83E088828983F08A822F
:103098008B83A3AA82AB8388828983A3A882A9830E
:1030A8001CEC70E0EE2483F582EF3400F583E060D9
:1030B8001D75081875090878081218E07C06790348
:1030C800EEFAEFFB120B01740212166E7D0A740100
:1030D8002DF5D975D9037582187583088D08E0F523
:1030E800D9A31508E50870F675E1957904120C4B1B
:1030F800EE2470F582EF3400F583E0F8A3E0F9EEF2
:103108002472F582EF3400F583E8F0A3E9F0790141
:10311800800279007F0202179F74F61216CDEAFE2C
:10312800EBFF9061D0E0F87480C398FAEE2483F541
:1031380082EF3400F583E06004780480027800E8C8
:103148002404F8EAC39850030231FB780290081867
:10315800E8F0EE24F7F582EF3400F583E0900819E3
:10316800F0EE2483F582EF3400F583E0601B7508E8
:103178001875090878081218E07C027903EEFA122B
:103188000B01740212166E7806740128F5D975D9E8
:10319800037582187583088808E0F5D9A31508E532
:1031A8000870F675E195EE2474F582EF3400F58326
:1031B800E4F0EE2480F582EF3400F583E4F0EE24A9
:1031C8001DF582EF3400F583E4F0A3F07904120CC6
:1031D8004BEE240DF582EF3400F583E0F8A3E0F917
:1031E800EE2472F582EF3400F583E8F0A3E9F07974
:1031F800018002790002311C74F61216CD9061D05C
:10320800E0F87480C398FCEA2483F582EB3400F577
:1032180083E06004780480027800E82404F8ECC3B2
:1032280098405B79029008187407F0EA24F8F58250
:10323800EB3400F583E0900819F0EA2483F582EB7B
:103248003400F583E06018750818750908780812C5
:1032580018E07C0209120B01740212166E790674CA
:103268000129F5D975D903758218758308E9F8E03D
:10327800F5D9A318E870F875E1957901800279000D
:1032880002311C74F51216CDE9FCA2AFE433F50A3D
:10329800C2AF7D0080010DEA246FF582EB3400F5A2
:1032A80083E0F8EDC398501A8D08EA2508F8EB3446
:1032B80000F9E8246BF582E93400F583E06C70D6F8
:1032C8008024EA246FF8EB3400F9E0FEEA2EFAEBEA
:1032D8003400FBEA246BF582EB3400F583ECF088CC
:1032E800828983E004F0E50AA2E092AF7F03021727
:1032F8009F74F61216CDA2AFE433FDC2AFEA246F75
:10330800F582EB3400F583E014F07C0060368C081D
:10331800EA2508F8EB3400F9E8246CF582E9340072
:10332800F583E0C0E0E8246BF582E93400F583D04A
:10333800E0F00CEA246FF582EB3400F583E0F8EC5A
:10334800C39840CAEA246EF582EB3400F58374FF13
:10335800F0EA246AF582EB3400F583E4F0EDA2E0AC
:1033680092AF02311CC082C083E5A8F8C2AFEA243C
:103378006BF582EB3400F583E9F0EA246AF582EB19
:103388003400F583E4F0E8A2E792AF02251D74F358
:103398001216CDEAFEEBFFECFAEDFB8A828B83A3D3
:1033A800A3A3A3E0541FF0EE2436F582EF3400F512
:1033B80083E4F0F50AEEFCEFFD8A828B83E0C0E03F
:1033C800EC245DF582ED3400F583D0E0F0750B0058
:1033D800E50A33333354F8F50C8A828B83E0F50819
:1033E800750900E50B7808121626E508A2E0502FAB
:1033F800EE2436F8EF3400F988828983E0F508EE88
:103408002508F508EF3400F509E5082438F582E5C4
:10341800093400F583E50CF088828983E004F0051F
:103428000B050CE50BC3940840AF050A8A828B8311
:10343800A3AA82AB838C828D83A3AC82AD83E50A79
:10344800C3940550030233C17F0502179F74F71216
:1034580016CD9004C5E0640370077A007B00022F44
:103468003A7B0078C5790488828983A3A3A3A3A3A0
:10347800A3E0600302374FEBF875F006A4C8AAF082
:103488002AF974C928F8740439F988828983A3A3AE
:103498007401F088828983A3A3A3E4F0EB8882896E
:1034A80083A3A3A3A3F0E82462F582E93400F5839B
:1034B8007401F0E82465F582E93400F583E4F0A3AB
:1034C800F0E82468F582E93400F5837401F0888215
:1034D8008983A3A3A3A3A3E4F0A3F088828983A389
:1034E800A3A3A3A3A3A3F0A3F0E8240FF582E934D0
:1034F80000F5837401F0E82435F582E93400F5839A
:10350800E4F0908611121546E82418F582E9340093
:10351800F583121552E8241CF582E93400F583E49A
:10352800F0E8241DF582E93400F583E4F0A3F0E81F
:103538002480F582E93400F583E4F0E82474F58208
:10354800E93400F583E4F0E82469F582E93400F50C
:10355800837480F0E8246AF582E93400F583E4F0A6
:10356800E8246FF582E93400F583E4F0E82467F590
:1035780082E93400F583E4F0E824EDF582E93400CB
:10358800F583E4F0E824EEF582E93400F583E4F00D
:10359800E824EFF582E93400F583E4F0E824F0F557
:1035A80082E93400F583E4F0E824F1F582E9340097
:1035B800F583E4F0A3F0E824F3F582E93400F58319
:1035C800E4F0A3F0E824F6F582E93400F583E4F0AA
:1035D800E82483F582E93400F583E4F0E824D3F5A0
:1035E80082E93400F583E4F0E824D4F582E9340074
:1035F800F583E4F0908611121546E824D5F582E9A2
:103608003400F583121552908611121546E824D914
:10361800F582E93400F583121552E824DFF582E9D2
:103628003400F583E4F0E824E1F582E93400F58319
:10363800E4F0E824DDF582E93400F583E4F0E824D9
:10364800E2F582E93400F583E4F0E824E3F582E961
:103658003400F583E4F0E824F9F582E93400F583D1
:10366800E4F0A3F0E824FBF582E93400F583E4F004
:10367800A3F0E824FDF582E93400F583E4F0A3F033
:10368800E824FFF582E93400F583E4F0A3F0E8FAD2
:10369800E9FBEA2404FCEB3400FDEA246BF582EB39
:1036A8003400F58374FFF08A828B83A3AA82AB83EC
:1036B800EC6A7002ED6B70E2E8FAE9FB7CE27D07E8
:1036C8008C828D83E0C0E0EA245DF582EB3400F55E
:1036D80083D0E0F08C828D83A3AC82AD838A828B09
:1036E80083A3AA82AB83EC64E77003ED640770D010
:1036F800E8FAE9FB7CAC7D048C828D83A3E0C0E012
:10370800EA24E5F582EB3400F583D0E0F08C828D75
:1037180083A3AC82AD838A828B83A3AA82AB83EC1A
:1037280064B47003ED640470CF9004C5E004F064E1
:1037380001700D88828983A3A3A3A3E09004C7F036
:10374800E8FAE9FB0234660BE82406F8E93401F9E3
:10375800EBC39403400302346202346FC082C08317
:103768008A828B83A3A3A3E0600F8A828B83A3A39F
:10377800A3E4F09004C6E014F09004C5E014F070DF
:10378800069004C774FFF08A828B83A3A3E4F090A9
:1037980007E7E0700D9004C6E06401700579001237
:1037A8000C1502251DC082C08378C57904888289DA
:1037B80083A3A3A3A3A3A3A3E4F088828983A3A3D9
:1037C800A3A3A3A3F0E82406F8E93401F9E864D731
:1037D8007003E9640770D69004C5E4F0A3F0A374FD
:1037E800FFF075E1F102251D74F31216CD7508007E
:1037F800750900750C00750AC9750B04AE0AAF0B84
:103808008E828F83A3A3A3E0603FE5084509700A71
:10381800EEF8EFF988088909802F850882850983E1
:10382800E0F8A3E0F5838882A3A31218F38E828FB1
:1038380083E0F8A3E0F5838882A3A3121546121E3D
:10384800F7740412166EE960C7050CEE2406F50A33
:10385800EF3401F50BE50CC3940340A0850882857D
:103868000983A3A3A3A3E0F902345074F61216CD7A
:1038780078FF79FF7508007EC97F04EEFCEFFD8CA8
:10388800828D83A3A3A3E0606474FF68700374FF50
:10389800697025EC2474F582ED3400F583E0640149
:1038A8007011EC247AF582ED3400F583E0F8A3E09A
:1038B800F9803AEC242E80EDEC2474F582ED340086
:1038C800F583E064017014EC247AF582ED3400F598
:1038D80083C3E098A3E099501480C7EC242EF582A6
:1038E800ED3400F583C3E098A3E09940C60508EEDF
:1038F8002406FEEF3401FFE508C3940350030238A1
:1039080083C3EA98EB994004E8FAE9FB02311C7496
:10391800F61216CDEAFEEBFF8E828F83A3A3A3E0F7
:10392800600F8E828F83A3A3A3E4F09004C6E014F3
:10393800F09004C5E014F070069004C774FFF08E90
:10394800828F83A3A3E4F09007E7E0700D9004C68C
:10395800E0640170057900120C15EE2465F582EF1C
:103968003400F583E0F8A3E0F9E8496029EE24651E
:10397800F8EF3400F9880889098882F583E0FCA308
:10398800E0FD9004C7E0FA7B001207E38508828512
:103998000983E4F0A3F0EEFAEFFB120B7F02311C6F
:1039A80074F71216CDEAFEEBFF8E828F83A3A3A3D2
:1039B800A3E0FA7B0012082BEEFAEFFB120A77124B
:1039C8000B61022F3AC082C0837C007AC97B04EA6B
:1039D800F8EBF988828983A3A3A3E0601EE8246F2B
:1039E800F582E93400F583E06011E8246BF582E99B
:1039F8003400F583E07004790180110CEA2406FA9A
:103A0800EB3401FBECC3940340C5790002251DC0CB
:103A180082C08378AC790488828983A3E4F08882A1
:103A28008983A3A882A983E864B47003E964047055
:103A3800E69004AD74010224DEC082C08374FC12D7
:103A48001658908611121546851882851983121505
:103A580052120ABFE9851882851983F0120ABF74C9
:103A6800011216C1E9F0120ABF74021216C1E9F078
:103A780085188285198312154674040222CD74F6BE
:103A88001216CDEAFEEBFFEC2403F8ED3400F988BA
:103A9800088909EC2407F8ED3400F9E8FCE9FD8C05
:103AA800828D83E0F8A3E0F9850882850983E0FA2E
:103AB800A3E0FB1215CDEE240DF582EF3400F5835B
:103AC800E8F0A3E9F08C828D83E0F8A3E0F985089B
:103AD80082850983E0FAA3E0FB1215CD8B09EA453C
:103AE800096013EE240DF582EF3400F583E024011C
:103AF800F0A3E03400F002311C74F61216CDEAFE91
:103B0800EBFFEE242EF582EF3400F583E0FCA3E012
:103B1800FD780079FAECFAEDFB1215CDEE2470F57C
:103B280082EF3400F583E8F0A3E9F0780079FAEC45
:103B3800FAEDFB1215CD8B09EA45096013EE2470E6
:103B4800F582EF3400F583E02401F0A3E03400F0BF
:103B580002311C74F01216CDEAFEEBFF7410121637
:103B6800C17808121528120BE58A0C8B0D8C0E8D66
:103B78000F9085E9780C12148E9085C9780C121470
:103B8800EF780C1218DC8E828F83E0F8A3E0F583BF
:103B98008882A3A3121546121EF7740412166EE942
:103BA8006003023CA88E828F83E02402F8A3E034ED
:103BB80000F9E8FAE9FB8A828B8378081214A1904D
:103BC80085C978081215288A828B8378081215020D
:103BD800EE240BF582EF3400F583C082C0838E8219
:103BE8008F83A3A3A3A3A3E02401F8A3E03400F9DF
:103BF800D083D082E0687003A3E069700579010280
:103C08003CAA8E828F83A3A3A3A3A3A3A3E024012A
:103C1800F0A3E03400F0EE2474F582EF3400F5836D
:103C2800E064017036EE2475F582EF3400F583E028
:103C3800F8A3E0F98E828F83A3A3A3A3A3A3A3E091
:103C4800687003A3E0697013EE2475F582EF340001
:103C5800F583E02401F0A3E03400F0EE2480F5823F
:103C6800EF3400F583E064017036EE2481F582EFCD
:103C78003400F583E0F8A3E0F98E828F83A3A3A331
:103C8800A3A3A3A3E0687003A3E0697013EE2481E3
:103C9800F582EF3400F583E02401F0A3E03400F06E
:103CA80079007F0802179F74F71216CD9004C7E0B9
:103CB800F875F006A4C8AAF02AF974C928FE740495
:103CC80039FF8028EE2465F8EF3400F9888289836B
:103CD800E0FCA3E0FD88828983E4F0A3F08E828F64
:103CE80083A3A3A3A3E0FA7B001207E3EE2465F500
:103CF80082EF3400F583E0F8A3E0F9E849604FEE7D
:103D08002464F582EF3400F583E0F508780812188A
:103D1800E4EE2463F582EF3400F583E0F9EE2465E0
:103D2800F582EF3400F583E0FCA3E0FDEEFAEFFB4B
:103D3800120AAD740112166EE96089EE2465F582E7
:103D4800EF3400F583E0F8A3E0F9E84970137C004C
:103D58007D008E828F83A3A3A3A3E0FA7B001207C2
:103D6800E3022F3A74F21216CDEAFEEBFF890A74C9
:103D78000E1216C1E0FAEE2462F582EF3400F583E4
:103D8800E064016003023E389061D0E0F87480C3BB
:103D980098F50CEE2483F582EF3400F583E0600497
:103DA8007804800278008908E928F8E43400F9E802
:103DB80024020808E93400F9E50C98E499A2D265D0
:103DC800D0334068EA7005750B028003750B01E07B
:103DD800603975090078081218E07A187B08120A09
:103DE800E3740212166E7508187509087808121817
:103DF800E0AC0AA90BEEFAEFFB120B0174021216E3
:103E08006E7404250AF50A7C187D087401250AF5E4
:103E1800D9850BD9E50A600D8C828D83F8E0F5D938
:103E2800A318E870F875E195790080067907800293
:103E380079FF7F0602179FC082C083E960208C82C9
:103E48008D83E08A828B83F08C828D83A3AC82ADD4
:103E5800838A828B83A3AA82AB8319E970E0ECFA88
:103E6800EDFB02251DC082C08378697908888289A4
:103E780083A3A3A3A3A3A3E4F088828983A3A3A312
:103E8800A3A374FFF0E82418F8E93400F9E864C93A
:103E98007003E9640870D690086B74FFF090086AA4
:103EA800E4F0900869F090086CF0A3F0025595745E
:103EB800EC1216CD90086CE0F508A3E0F509E508CA
:103EC800450970061209C3024B6485088285098377
:103ED800E014601814601524FE601124C4700302F5
:103EE800462624C07003024626024B64E0F9120BF2
:103EF800738A0A8B0BAE0AAF0B9004C6E0700302FC
:103F080042A4120A6BE9F875F006A4C8AAF02AF9C7
:103F180074C928F50C740439F50D850C82F583E015
:103F2800F50AA3E0F50BAC0AFDEEFAEFFB120B6DF8
:103F3800E9F50E7402650E70030242638E828F8368
:103F4800E024FE600A24FE700302415B024B64EE2B
:103F580065087003EF650960211209E19007F9E02F
:103F6800640170169007F8E070107901120C811244
:103F78000C51120C7B7900120C87E50E6021E508C4
:103F88002415F582E5093400F583E060129007F402
:103F9800E0F8A3E0F9A3E0687003A3E069702612D3
:103FA8000BE58A0C8B0D8C0E8D0F90860D780C12FC
:103FB800148E9085C9780C1214EF8E828F83A3A378
:103FC800780C121537E5082415F582E5093400F553
:103FD80083E064016003024081850A82850B83A324
:103FE800A3780C12152890861D780C12148E780C64
:103FF8001218DC8E828F83A3A3C082C0839007F639
:10400800E0F508A3E085080CF50DE4F50EF50FD0F2
:1040180083D082780C12148EAA0CAB0DAC0EAD0FA7
:10402800121EF7740412166EE9703C8E828F83A3F9
:10403800A3C082C0839007F6E0F508A3E0F509E481
:10404800F50AF50BD083D082780812148E9085C9B2
:1040580078081214EFEE240EF582EF3400F5837819
:1040680008121537024153850A82850B83A3A3786A
:104078000812152890861D80CFEE240EF582EF34A5
:1040880000F5831218F38E828F83A3A312154612AC
:104098001EF7740412166EE9640160030241538529
:1040A8000A82850B83A3A3780C12152890861D78A5
:1040B8000C12148E780C1218DC8E828F83A3A3C086
:1040C80082C0839007F6E0F508A3E085080CF50D9B
:1040D800E4F50EF50FD083D082780C12148EAA0C5A
:1040E800AB0DAC0EAD0F121EF7740412166EE9700C
:1040F8001F8E828F83A3A3C082C0839007F6E0F54A
:1041080008A3E0F509E4F50AF50BD083D082801006
:10411800850A82850B83A3A3780812152890861D2B
:10412800780812148E9085C978081214EFEE240EC0
:10413800F582EF3400F58378081215379007FCE014
:104148006427700474258002E004F090086B740200
:10415800024B5CEE65087003EF650960319008104A
:10416800E0F91209E7850882850983E06402701E78
:104178009007F9E0640170169007F8E07010790074
:10418800120C81120C51120C7B7901120C87E50E6E
:10419800601290080AE0F8A3E0F9A3E0687003A3AE
:1041A800E0697026120BE58A0C8B0D8C0E8D0F9032
:1041B800860D780C12148E9085C9780C1214EF8E27
:1041C800828F83A3A3780C121537850A82850B8307
:1041D800A3A3780C12152890861D780C12148E78DB
:1041E8000C1218DC8E828F83A3A3C082C083900830
:1041F8000CE0F508A3E085080CF50DE4F50EF50FC5
:10420800D083D082780C12148EAA0CAB0DAC0EADF4
:104218000F121EF7740412166EE9701F8E828F83B8
:10422800A3A3C082C08390080CE0F508A3E0F509B9
:10423800E4F50AF50BD083D0828010850A82850BBD
:1042480083A3A3780812152890861D780812148E67
:104258009085C978081214EF024B458508828509B4
:1042680083E0640270139007F9E06401700B900713
:10427800F8E070057900120C81E50C2404FEE50DC8
:104288003400FF8E828F83E0F9120BA98E828F8310
:10429800E09004C7F0AA0AAB0B024B61EE65087008
:1042A80003EF65098E828F836003024488E024FE51
:1042B800600A24FE70030243E3024B5DEE2415F509
:1042C80082EF3400F583E060419007F4E0F8A3E062
:1042D800F9A3E0687003A3E069602F120BE58A0870
:1042E8008B098C0A8D0B9085FD780812148E78083E
:1042F8001218DC8E828F83A3A3121546121EF77440
:104308000412166EE96003024B5D120BE58A088BF6
:10431800098C0A8D0B90860D780812148E9085C929
:1043280078081214EF8E828F83A3A37808121537AA
:10433800EE2415F582EF3400F583E0640170348EC5
:10434800828F83A3A3C082C0839007F6E0F508A3F9
:10435800E0F509E4F50AF50BD083D0827808121449
:104368008EEE240EF582EF3400F5837808121537A7
:10437800024B5DEE240EF582EF3400F5831218F33C
:104388008E828F83A3A3121546121EF77404121689
:104398006EE964016003024B5D8E828F83A3A3C024
:1043A80082C0839007F6E0F508A3E0F509E4F50A72
:1043B800F50BD083D082780812148EEE240EF58285
:1043C800EF3400F58378081215379007FCE064276E
:1043D80070057425024B5CE00480F990080AE0F847
:1043E800A3E0F9A3E0687003A3E069602C120BE571
:1043F8008A088B098C0A8D0B9085FD780812148E1B
:1044080078081218DC8E828F83A3A3121546121E19
:10441800F7740412166EE97064EE2402F508EF349E
:1044280000F509120BE58A0C8B0D8C0E8D0F90860A
:104438000D780C12148E9085C9780C1214EF85082B
:1044480082850983780C121537850882850983C00F
:1044580082C08390080CE0F508A3E0F509E4F50AAA
:10446800F50BD083D082780812148EEE240EF582D4
:10447800EF3400F58378081215371209ED024B5D09
:10448800E024FE600A24FE700302454E024B6412CB
:1044980009E19007F9E0640170169007F8E07010E0
:1044A8007901120C81120C51120C7B7900120C87C5
:1044B8009007F4E0F8A3E0F9A3E0687003A3E069CB
:1044C800602F120BE58A088B098C0A8D0B9085FDED
:1044D800780812148E78081218DC8E828F83A3A3B2
:1044E800121546121EF7740412166EE96003024193
:1044F80053EE2402F508EF3400F509120BE58A0C97
:104508008B0D8C0E8D0F90860D780C12148E908565
:10451800C9780C1214EF850882850983780C121566
:1045280037850882850983C082C0839007F6E0F545
:1045380008A3E0F509E4F50AF50BD083D0827808E2
:1045480012148E02405D900810E0F91209E7850800
:1045580082850983E06402701E9007F9E0640170A7
:10456800169007F8E070107900120C81120C5112A5
:104578000C7B7901120C8790080AE0F8A3E0F9A3F4
:10458800E0687003A3E069602C120BE58A088B09C8
:104598008C0A8D0B9085FD780812148E78081218F5
:1045A800DC8E828F83A3A3121546121EF7740412A1
:1045B800166EE97066EE2402F8EF3400F98808896F
:1045C80009120BE58A0C8B0D8C0E8D0F90860D78D9
:1045D8000C12148E9085C9780C1214EF8508828508
:1045E8000983780C121537850882850983C082C033
:1045F8008390080CE0F508A3E0F509E4F50AF50B4B
:10460800D083D082780812148EEE240EF582EF340F
:1046180000F58378081215371209ED024B579004FC
:10462800C6E070030249BC120A6BE9F875F006A4EB
:10463800C8AAF02AF974C928F510740439F5118547
:104648001082F583E0F508A3E0F5099004C7E0F8C7
:1046580075F006A4C8AAF02AF974C928F50C7404E0
:1046680039F50D90086AE0540770030248E5A3E0A5
:10467800F9120B738A0A8B0BAE0AAF0BAC08AD09A3
:10468800120B6DE9F50E7402650E70030248E5859C
:104698000C82850D83A3A3A3A3E0F875F08AA4C8B0
:1046A800AAF02AF974CE28F50A740839F50BAA0A73
:1046B800FB120B9DAA0AAB0B120B97751280751390
:1046C8000078121218E07C007D60E50A2406FAE5FD
:1046D8000B3401FB120AE3740212166EA80AA90B26
:1046E800906195E0C0E0E82486F582E93401F5831D
:1046F800D0E0F0906196E0C0E0E82487F582E934E4
:1047080001F583D0E0F0906197E0C0E0E82488F5F7
:1047180082E93401F583D0E0F0906198E0C0E0E8E8
:104728002489F582E93401F583D0E0F08E828F8305
:10473800E024FE600A24FE70030248200248E512C5
:1047480009E19007F9E0640170119007F8E0700B37
:10475800120C51120C7B7900120C87E50E60129036
:1047680007F4E0F8A3E0F9A3E0687003A3E0697038
:1047780026120BE58A0C8B0D8C0E8D0F90860D780A
:104788000C12148E9085C9780C1214EF8E828F83C8
:10479800A3A3780C121537850882850983A3A3780B
:1047A8000C12152890861D780C12148E780C12188D
:1047B800DC8E828F83A3A3C082C0839007F6E0F5C6
:1047C8000CA3E0F50DE4F50EF50FD083D082780C3C
:1047D80012148EAA0CAB0DAC0EAD0F121EF774049A
:1047E80012166EE9701F8E828F83A3A3C082C083C6
:1047F8009007F6E0F508A3E0F509E4F50AF50BD013
:1048080083D0828010850882850983A3A378081243
:10481800152890861D024050900810E0F91209E70B
:10482800E50E601290080AE0F8A3E0F9A3E06870CA
:1048380003A3E0697026120BE58A0C8B0D8C0E8D94
:104848000F90860D780C12148E9085C9780C12146E
:10485800EF8E828F83A3A3780C1215378508828583
:104868000983A3A3780C12152890861D780C1214BE
:104878008E780C1218DC8E828F83A3A3C082C0832B
:1048880090080CE0F50CA3E0F50DE4F50EF50FD05B
:1048980083D082780C12148EAA0CAB0DAC0EAD0F1F
:1048A800121EF7740412166EE9701F8E828F83A38E
:1048B800A3C082C08390080CE0F508A3E0F509E4E2
:1048C800F50AF50BD083D08280108508828509838C
:1048D800A3A3780812152890861D024253E5106597
:1048E8000C7004E511650D70030249B5850C8285CD
:1048F8000D83A3A3A3E07003024999850C82850D5B
:1049080083A3A3A3A3E0F875F08AA4C8AAF02AF9A0
:1049180074CE28FE740839FFEEFAEFFB120B9DEEF9
:10492800FAEFFB120B97750A80750B00780A1218BC
:10493800E07C007D60EE2406FAEF3401FB120AE306
:10494800740212166E906195E0C0E0EE2486F5823E
:10495800EF3401F583D0E0F0906196E0C0E0EE24FA
:1049680087F582EF3401F583D0E0F0906197E0C0DD
:10497800E0EE2488F582EF3401F583D0E0F0906111
:1049880098E0C0E0EE2489F582EF3401F583D0E0A9
:10499800F0E5102404FEE5113400FF8E828F83E0D9
:1049A800F9120BA98E828F83E09004C7F0AA08AB96
:1049B80009024B6190086AE054077003024B64A334
:1049C800E0F9120B738A088B09AE08AF098E828F43
:1049D80083E024FE600A24FE7003024AAB024B64A3
:1049E8001209E19007F9E0640170169007F8E07089
:1049F800107901120C81120C51120C7B7900120CE7
:104A0800879007F4E0F8A3E0F9A3E0687003A3E057
:104A180069602C120BE58A088B098C0A8D0B90852E
:104A2800FD780812148E78081218DC8E828F83A302
:104A3800A3121546121EF7740412166EE97061EE81
:104A48002402F508EF3400F509120BE58A0C8B0DEA
:104A58008C0E8D0F90860D780C12148E9085C97867
:104A68000C1214EF850882850983780C1215378596
:104A78000882850983C082C0839007F6E0F508A301
:104A8800E0F509E4F50AF50BD083D0827808121412
:104A98008EEE240EF582EF3400F583780812153770
:104AA800024153900810E0F91209E790080AE0F86B
:104AB800A3E0F9A3E0687003A3E069602C120BE59A
:104AC8008A088B098C0A8D0B9085FD780812148E44
:104AD80078081218DC8E828F83A3A3121546121E43
:104AE800F7740412166EE97063EE2402F8EF3400CE
:104AF800F988088909120BE58A0C8B0D8C0E8D0F2D
:104B080090860D780C12148E9085C9780C1214EFCB
:104B1800850882850983780C1215378508828509EE
:104B280083C082C08390080CE0F508A3E0F509E48F
:104B3800F50AF50BD083D082780812148EEE240E75
:104B4800F582EF3400F58378081215371209ED90D5
:104B5800086B7404F0EEFAEFFB120B677F0C021778
:104B68009F74F01216CDEAFEEBFFEE2402F8EF3444
:104B780000F988088909EE2406F8EF3400F9880A54
:104B8800890B8882F5831218F785088285098312B4
:104B98001546120BC1740212166E850A82850B83A4
:104BA8001218F7850882850983121546120BB57409
:104BB8000212166EEE240EF582EF3400F5831215FC
:104BC80046120BC78E828F83E06440701CEE24125D
:104BD800F8EF3400F988828983E0906064F0888275
:104BE8008983A3E09060658006906064E4F0A3F098
:104BF80090086CEEF0A3EFF0EE2416F582EF340087
:104C0800F583E0F8A3E0F58388821216CB90605410
:104C1800E4F0A3F0A3F0A3F0A3F0A3F0A3F0A3F0B3
:104C2800A3F0A3F0A3F0A3F0906182E0C2E6F075D0
:104C380091BFEE2415F582EF3400F583E06401702E
:104C480003120BF7E5E170FCEE2414F582EF340053
:104C5800F583E0F46003E0F5E1EE2415F582EF3426
:104C680000F5837401F090049FE06401706F120BEB
:104C7800E58A088B098C0A8D0B78081218DC8E825D
:104C88008F83A3A3121546121F54740412166E8A3A
:104C9800088B098C0A8D0B908621780C12152878C0
:104CA80008790C12135374037808121443E5082486
:104CB800F4F508E5093401F509900816E0600312D7
:104CC8000F45E4F50AF50B78081218DC7A207B000A
:104CD800900498E0F9120F8D740412166E7F080282
:104CE800179F74EC1216CDEAFEEBFF8C088D09EEC7
:104CF8004F70057902024DDF120BE58A0C8B0D8C83
:104D08000E8D0F908601780C12148E9085C9780C40
:104D18001214EF8E828F83E06402701F9007F4E014
:104D2800F8A3E0F9A3E0687003A3E06970248E8219
:104D38008F83A3A3780C1215378017E064047012D0
:104D480090080AE0F8A3E0F9A3E0687003A3E0691B
:104D580060DC780C1218DC850882850983A3A3120D
:104D68001546121F54740412166E8A108B118C1279
:104D78008D1390862578101213344003024CFB855E
:104D88000882850983A3A3780812152890863578A8
:104D98000812148E78081218DC8E828F83A3A3124F
:104DA8001546121EF7740412166EE96003024CFBD6
:104DB800908639780C12148E780C1218DC8E828F3B
:104DC80083A3A3121546121EF7740412166EE97017
:104DD80004790080027901024B6474F01216CD89BF
:104DE8000874FF65086003024F6E90086AE0540774
:104DF800700302543A7A007869790888828983A313
:104E0800A3A3A3A3E064047050EA75F018A4F8A95A
:104E1800F0746F28F582740839F583E064017048EE
:104E28007A007869790888828983A3A3A3A3A3E079
:104E380064046003024EC688828983A3A3A3A3A344
:104E4800A3E064017078EA75F018A4F8A9F0746E0C
:104E580028FA740839FB02543E0AE82418F8E934A1
:104E680000F9EAC3940440937A0078697908888243
:104E78008983A3A3A3A3A3E064017057EA75F0187C
:104E8800A4F8A9F0746F28F582740839F583E064F2
:104E980001704F7A007869790888828983A3A3A36F
:104EA800A3A3E064016003024F4A88828983A3A315
:104EB800A3A3A3A3E064016003024F4A80880AE821
:104EC8002418F8E93400F9EAC394045003024E2E7A
:104ED80002543A0AE82418F8E93400F9EAC39404B9
:104EE800408C7A007869790888828983A3A3A3A370
:104EF800A3E064027061EA75F018A4F8A9F0746F71
:104F080028F582740839F583E0640170597A0078CD
:104F180069790888828983A3A3A3A3A3E0640270A4
:104F28007A88828983A3A3A3A3A3A3E06401706BF7
:104F3800EA75F018A4F8A9F0746E28FA740839FB19
:104F4800806F0AE82418F8E93400F9EAC394045099
:104F580003024EA102543A0AE82418F8E93400F989
:104F6800EAC3940440827A00786979088882898340
:104F7800A3A3A3A3A3E06508703D88828983A3A3A4
:104F8800A3A3A3A3E06401702EEA75F018A4F8A9FE
:104F9800F0746E28FE740839FF802F0AE82418F888
:104FA800E93400F9EAC394045003024F1B7A007BEA
:104FB8000002543E02543A0AE82418F8E93400F989
:104FC800EAC3940440A67E007F007A0078697908D5
:104FD80088828983A3A3A3A3A3E06508701BEA754D
:104FE800F018A4F8A9F0746F28F582740839F583CD
:104FF800E0640170137A0180110AE82418F8E93492
:1050080000F9EAC3940440C87A00E50814600F1454
:1050180070030251D724FE700302533180967B003F
:105028007869790888828983A3A3A3A3A3E064028B
:105038007055EB75F018A4F8A9F0746F28F5827410
:105048000839F583E06401704D7B00786979088838
:10505800828983A3A3A3A3A3E06402600302510D82
:1050680088828983A3A3A3A3A3A3E06401600302A6
:10507800510DEB75F018A4F8A9F0746E28F50A74B0
:105088000839F50B0251250BE82418F8E93400F922
:10509800EBC39404408E7B00786979088882898301
:1050A800A3A3A3A3A3E064046003025161EB75F01A
:1050B80018A4F8A9F0746F28F582740839F583E00C
:1050C800640160030251737B0078697908888289DA
:1050D80083A3A3A3A3A3E06404600302517E888290
:1050E8008983A3A3A3A3A3A3E06401600302517E61
:1050F800EB75F018A4F8A9F0746E28F50A7408394D
:10510800F50B0251960BE82418F8E93400F9EBC3C3
:1051180094045003025057750A00750B00EAA2E088
:1051280040030251C9850A82850B83A3A3780C1218
:105138001528908631780C12148E780C1218DC8E93
:10514800828F83A3A3121546121EF7740412166EDB
:10515800E9706EEEFAEF024E5D0BE82418F8E934B8
:1051680000F9EBC3940450030250A4EAA2E050589B
:10517800EEFAEFFB80560BE82418F8E93400F9EB57
:10518800C3940450030250D5750A00750B00EAA2B7
:10519800E0502E850A82850B83A3A3780C1215286C
:1051A800908631780C12148E780C1218DC8E828F4F
:1051B80083A3A3121546121EF7740412166EE96033
:1051C80092AA0AAB0B02543E7A007B0002543E7B43
:1051D800007869790888828983A3A3A3A3A3E064DC
:1051E800047052EB75F018A4F8A9F0746F28F582D2
:1051F800740839F583E06401704A7B00786979089E
:1052080088828983A3A3A3A3A3E064046003025252
:10521800A588828983A3A3A3A3A3A3E06401707DC7
:10522800EB75F018A4F8A9F0746E28F50A7408391B
:10523800F50B0252BD0BE82418F8E93400F9EBC36A
:10524800940440917B007869790888828983A3A3B4
:10525800A3A3A3E0640160030252F9EB75F018A45C
:10526800F8A9F0746F28F582740839F583E06401B1
:10527800600302530B7B007869790888828983A3CD
:10528800A3A3A3A3E0640160030253168882898361
:10529800A3A3A3A3A3A3E06401707380830BE824F2
:1052A80018F8E93400F9EBC3940450030252087566
:1052B8000A00750B00EAA2E040030251C9850A8280
:1052C800850B83A3A3780C121528908631780C12CD
:1052D800148E780C1218DC8E828F83A3A3121546C5
:1052E800121EF7740412166EE960030251C90251C6
:1052F8005B0BE82418F8E93400F9EBC39404500375
:10530800025252EAA2E0501AEEFAEFFB80180BE8BC
:105318002418F8E93400F9EBC394045003025283CB
:10532800808D7A007B0002543E7B0078697908887A
:10533800828983A3A3A3A3A3E064017040EB75F063
:1053480018A4F8A9F0746F28F582740839F583E079
:10535800640170387B007869790888828983A3A3FF
:10536800A3A3A3E0640160030253F688828983A3A0
:10537800A3A3A3A3A3E0640170740252280BE8243A
:1053880018F8E93400F9EBC3940440A37B0078696A
:10539800790888828983A3A3A3A3A3E06402706326
:1053A800EB75F018A4F8A9F0746F28F58274083921
:1053B800F583E06401705B7B0078697908888289ED
:1053C80083A3A3A3A3A3E06402704F88828983A365
:1053D800A3A3A3A3A3E064017040EB75F018A4F89D
:1053E800A9F0746E28F50A740839F50B80410BE8AA
:1053F8002418F8E93400F9EBC3940450030253620B
:105408000252B70BE82418F8E93400F9EBC3940406
:105418004080EAA2E0501B02515B0BE82418F8E92F
:105428003400F9EBC394044094750A00750B00022C
:1054380052BD7A007B00024CE574F61216CD89093C
:105448007508007869790888828983A3A3A3A3A330
:10545800A3E0600302551DE50875F018A4F8A9F04B
:10546800746E28FE740839FF8E828F83A37401F04E
:105478008E828F83E509F0120BE58E828F83A3A3BA
:105488001215528E828F83A3A3A3A3A3A3E4F0A330
:10549800F09085D1121546EE240EF582EF3400F512
:1054A80083121552EE2414F582EF3400F58374014B
:1054B800F0EE2415F582EF3400F5837401F0EE2444
:1054C80016F582EF3400F583E4F0A3F090086AE063
:1054D8004509F0900869E004F06401600C74806587
:1054E800096006744065097019E50875F018A4F894
:1054F800A9F0746E28F8740839F990086CE8F0A3DC
:10550800E9F0E50875F018A4F8A9F0746E28FA74A3
:105518000839FB80180508E82418F8E93400F9E58B
:1055280008C39404500302544F7A007B0080007F24
:105538000202179FC082C0838A828B83E0F8A3E0AF
:10554800F98A828B83E4F0A3F088828983A3F088A8
:10555800828983E0F4F890086AE058F0900869E0DE
:1055680014F0700B90086CE4F0A3F0900499F080AC
:105578001CC082C083900869E0600A90086CE0FA59
:10558800A3E0FB80047A007B008002E0F9D083D09E
:1055980082020122C082C083E9FB7A007869790817
:1055A80088828983A3A3A3A3A3E06B7016EA75F08E
:1055B80018A4F8A9F0746F28F582740839F583E007
:1055C800F980110AE82418F8E93400F9EAC39404C8
:1055D80040CE790080B7C082C08390086902559395
:1055E80074F61216CDEAFEEBFF9061D0E0C0E0EE53
:1055F8002400F582EF3401F583D0E0F09061D7E024
:10560800FA9061D5E0C39A547FC0E0EE2401F58298
:10561800EF3401F583D0E0F0EE2402F8EF3401F91D
:105628009061D6E0C39A547F88828983F0701A907B
:1056380061C5E0A2E45012E0A2E7500DEE2402F5A5
:1056480082EF3401F5837480F0120CABEE2401F57F
:1056580082EF3401F583E07034EE2402F582EF34F2
:1056680001F583E070279061C5E0A2E4501FE0A235
:10567800E7501AEE2402F582EF3401F5837480F0C6
:10568800EE2401F582EF3401F5837480F075E1951D
:105698007800EE2400F582EF3401F583E06027906E
:1056A80061D3E0C0E08808EE2508F582EF3400F504
:1056B80083D0E0F008EE2400F582EF3401F583E0B2
:1056C800F9E8C39940D975E19102553774F6121675
:1056D800CDEAFEEBFF9061C8E0C0E0EE2403F5825E
:1056E800EF3401F583D0E0F09061CFE0FA9061CD1E
:1056F800E0C39A547FC0E0EE2404F582EF3401F54C
:1057080083D0E0F0EE2405F8EF3401F99061CEE0A3
:10571800C39A547F88828983F0701A9061C5E0A289
:10572800E05012E0A2E3500DEE2405F582EF3401BB
:10573800F5837480F0120CB1EE2404F582EF340185
:10574800F583E07034EE2405F582EF3401F583E04B
:1057580070279061C5E0A2E0501FE0A2E3501AEE66
:105768002405F582EF3401F5837480F0EE2404F506
:1057780082EF3401F5837480F0120CB77A00EE24BE
:1057880003F582EF3401F583E0602F9061CBE0C030
:10579800E08A08EE2508F8EF3400F9E82480F5825D
:1057A800E93400F583D0E0F00AEE2403F582EF3403
:1057B80001F583E0F8EAC39840D175E181025537D5
:1057C80074F41216CD8908A808E875F08AA4C8AA46
:1057D800F02AF974CE28FE740839FFEEFAEFFB12AE
:1057E8000B9DEEFAEFFB120B97750A80750B00788C
:1057F8000A1218E07C007D60EE2406FAEF3401FB03
:10580800120AE3740212166E906195E0C0E0EE246D
:1058180086F582EF3401F583D0E0F0906196E0C020
:10582800E0EE2487F582EF3401F583D0E0F0906153
:1058380097E0C0E0EE2488F582EF3401F583D0E0EC
:10584800F0906198E0C0E0EE2489F582EF3401F52C
:1058580083D0E0F07F0402179F74F21216CD8908F6
:10586800A808E875F08AA4C8AAF02AF974CE28F81E
:10587800740839F99061C6E0FDE054F0F075E181F3
:105888007C00E82403F582E93401F583E0602B8C81
:105898000AE8250AFAE93400FBEA2480F582EB34A9
:1058A80000F583E09061CAF00CE82403F582E9343E
:1058B80001F583E0FAECC39A40D5E82405F582E9BE
:1058C8003401F583E060049061CEF0E82404F582A9
:1058D800E93401F583E060049061CDF0ED9061C694
:1058E800F0A808E875F08AA4C8AAF02AF974CE28A6
:1058F800F8740839F9E0FCE0540FF075E1917A008A
:10590800E82400F582E93401F583E060238A0AE897
:10591800250AF582E93400F583E09061D2F00AE8BF
:105928002400F582E93401F583E0FBEAC39B40DDFE
:10593800E82402F582E93401F583E060049061D639
:10594800F0E82401F582E93401F583E06004906110
:10595800D5F0EC9061C6F0850882AE82EEF875F05D
:105968008AA4C8AAF02AF974CE28F50A740839F569
:105978000B750C80750D00780C1218E0E50A2406EA
:10598800FCE50B3401FD7A007B60120AE374021215
:10599800166EA80AA90BE82486F582E93401F58376
:1059A800E0906195F0E82487F582E93401F583E019
:1059B800906196F0E82488F582E93401F583E09057
:1059C8006197F0E82489F582E93401F583E0906174
:1059D80098F0EE75F006A4CEA8F028FF74C92EF54D
:1059E8008274043FF583E0F8A3E0F5838882E064DD
:1059F8008070419011B17425F0A3740BF0A3740D5D
:105A0800F0A3740BF0A37425F0A3740BF0A3742512
:105A1800F0A3740BF0A3740DF0A3740BF0A374251A
:105A2800F0A3740BF0A3742BF0A3740BF0900499FB
:105A3800740880059004997407F09011BF740DF0F4
:105A4800A3740BF0A3740DF0A3740BF0A3740DF002
:105A5800A3740BF0A3740DF0A3740BF0A3740DF0F2
:105A6800A3740BF0A3740DF0A3740BF07F06021758
:105A78009FC082C083E990118FF0D083D082020149
:105A88002274F61216CDE9900364F07CA47D037AA3
:105A9800FF7BFF1207237A008A08750900740278D1
:105AA8000812164574652508F874033509125AD882
:105AB800A3F00AEAC3940340DF79051206B1900304
:105AC80064E0F91205D97A3B7B071208F102705994
:105AD800F98882898374FF125AE5E4F022F0A31250
:105AE8006EE6A32274F41216CD8A088B09EB548053
:105AF8006030900364E0F9120F038A0A8B0BAE0A38
:105B0800AF0BEE4F60138E828F83E064B070031288
:105B180006C3EEFAEFFB120EF1AA08E5096480FB52
