:020000040000FA
:0600000002010A021D7658
:03002B00021FF3BE
:03003300021FD5D4
:03003B0002200C94
:03004300021F8910
:03005300021DEC9F
:03006B00021FAFC2
:10008300021C67E5C754F84401F5C7790122000053
:100093000080FB120086B900030200F4E4791A78A9
:1000A30002B800028004F709D8FCE4791C7802B88E
:1000B30000028004F709D8FCE4900281788B790F61
:1000C3008002F0A3D8FCD9FA90110BAA82AB8390DB
:1000D300013A78D479018015E493A3AC82AD838A85
:1000E300828B83F0A3AA82AB838C828D83D8E9D9D8
:1000F300E77582697583C3740312011C7582917558
:100103008300740012011C75D00075813F7518813E
:10011300751902759F00020096C09FF59FE473D086
:100123009F22D083D082C09FE493C0E0740193C028
:10013300E0740293F59F229903AB03D5039F03FF5A
:100143000000B4000028002800283075A000A0009B
:10015300A000A00000080008E001F000100010005B
:10016300100010001000100050005000500010004C
:100173001000D0070000000000000F000100050080
:10018300307507001000010081FF0000FF0202022A
:1001930052940100004294024C9401000061110248
:1001A3004894010000B102024C9401000062110264
:1001B3005E94010000C702FFFF0100FF200252947A
:1001C3000100004594024C940100009011024E94EA
:1001D3000000000000024A94030000A403850B857D
:1001E3000B850B850B850B850B850B850B850B858C
:1001F3000B850B850B850B9B0DB90D950DFFFF0132
:10020300E803053F1002FF00FEFF12012593BB0325
:10021300120125A9BB03120125D6BB031201250632
:10022300BC031201251DBC031201253EBC031201B0
:10023300256FBC03120125C0BC03120125D7BC03E3
:10024300120125C1B303120125D8B30312012507F7
:10025300B40312012540B40312012568B40312014B
:100263002596B403120125ADB403120125C4B403CA
:10027300120125DAB40312012501B5031201251475
:10028300B5031201252AB50312012552B503120144
:1002930025228D02120125218E021201254B8E0289
:1002A300120125A08E02120125C18E02120125DA48
:1002B3008E02120125DC8E02120125FD8E0212012F
:1002C30025009002120125BD90021201258A910298
:1002D300120125EE91021201258592021201258851
:1002E30092021201250E930212012551930212016B
:1002F30025A39302120125A69302120125DD930281
:100303001201250494021201259A94021201252355
:1003130095021201256C95021201257995021201AD
:10032300257C9502120125DA9502120125F2950228
:100333001201256C96021201256F96021201259275
:1003430096021201259596021201253C970212018D
:10035300255F9702120125779702120125A79702BD
:10036300120125B49702120125B797021201252322
:100373009802120125119902120125C7990212014F
:100383002526B00212012501B1021201252FB10267
:10039300120125AFB102120125CFB1021201250DC1
:1003A300B20212012560B202120125C8B202120183
:1003B3002559B30212012524B40212012533B702D1
:1003C3001201259FB802120125C2B8021201253F6E
:1003D300A003120125D0A10312012521A2031201BA
:1003E3002580A2031201258EA203120125B7A203C1
:1003F30012012576EE021201259EEE02120125CC92
:10040300EE0212012503EF021201256BEF02120126
:1004130025B4EF02120125FFEF021201253DF00280
:100423001201257AF002120125A8F0021201254FCC
:10043300F10212012559F10212012566F10212019E
:100443002599F1021201255BF20212012567F202DE
:100453001201257FF20212012589F20212012507FA
:10046300F302120125F4BF0312012502C003120196
:10047300251AC00312012532C0031201254AC00305
:100483001201253CD601120125DAD60112012552AB
:10049300D70112012567D801120125A1D801120144
:1004A300254AD9011201251FDA0112012583DB0137
:1004B300120125DADB0112012561DC011201254855
:1004C300DD0112012595DD0112012523DE01120153
:1004D3002547DE011201251CE0011201255DE00123
:1004E3001201257FE00112012544E1011201250AD1
:1004F300E2011201253FE401120125F294031201E6
:10050300250895031201252E9503120125569603FE
:10051300120125609603120125B99703120125B92B
:100523009803120125008003120125A28003120102
:1005330025D580031201251F8103120125D98203CA
:10054300120125629401120125E09401120125F0A4
:100553009401120125D39501120125DD95011201A4
:10056300250B9601120125169601120125EF96011E
:10057300120125519701120125ED9701120125F171
:100583009901120125A89B01120125249C01120146
:1005930025019D011201252FA001120125CDA001E6
:1005A3001201252AA2011201259DA301120125464C
:1005B300A4011201258FA401120125C6A401120171
:1005C300256BA501120125E9A501120125BCB8017E
:1005D30012012511B90112012556BA01120125662E
:1005E300BA0112012589BA01120125D4BA011201F7
:1005F3002579BB011201256FBC0112012539BD010B
:10060300120125B1BE01120125F3BE01120125918C
:10061300BF01120125B7BF01120125A5C1011201B6
:1006230025AAC1011201258BC301120125DFC301D4
:1006330012012541C40112012569C4011201250DCE
:10064300C501120125CFC50112012500C601120102
:100653002503C6011201254BC6011201258DC601D2
:10066300120125F4C6011201256EFD021201258136
:10067300FD021201258AFD02120125A3FD021201CA
:1006830025EEFD02120125C9FE0212012558FF02C3
:10069300120125A3FF0212012580200012012590DB
:1006A3002000120125F32000120125382100120138
:1006B30025E82100120125C12200120125EA2200AA
:1006C3001201251A23001201252E25001201250AE5
:1006D3002700120125EA2800120125222A0012010F
:1006E300259B2C00120125872D00120125CD2E00FC
:1006F300120125DA2F001201251C300012012554A6
:1007030030001201256E3000120125D6300012018F
:1007130025703500120125113600120125653600BA
:100723001201258C3600120125CA3600120125E973
:1007330036001201253D370012012545380012010C
:1007430025CE3800120125177A00120125217A00DF
:10075300120125BD7A00120125887B00120125A70D
:100763007B00120125CD7B001201250C7C001201B8
:1007730025447C001201256D7C00120125A77C0015
:10078300120125BC7C00120125897D00120125ACD4
:100793007D00120125CE7D00120125E37D001201AB
:1007A300256D7E00120125A77E001201251B7F0007
:1007B300120125647F001201258E7F00120125B3EB
:1007C3007F00120125069103120125D09103120126
:1007D30025B392031201252993031201256B930379
:1007E3001201259894031201254EE4011201257785
:1007F300E40112012590E401120125D5E50112015E
:1008030025B3E601120125D2E6011201255FE701B6
:10081300120125A2E701120125DAE801120125469A
:10082300E9011201253CEB01120125CAED01120178
:10083300255DEE0112012531EF01120125D4EF01EF
:10084300120125E7F0011201257DF101120125EEC8
:10085300BC0312012557BD03120125ABBD031201D1
:1008630025DABD031201257C8403120125E98403E3
:10087300120125348503120125298603120125253A
:1008830087031201250F8803120125F1DA021201F1
:100893002538DB0212012511DC021201250CDD02D1
:1008A300120125EBDD0212012557DE021201257329
:1008B300DF02120125DADF02120125DDDF02120158
:1008C3002508E00212012579E0021201251CE1024C
:1008D30012012531E10212012579E102120125926B
:1008E300E10212012595E102120125CFA3031201B2
:1008F300250BA40312012549A40312012513A50303
:1009030012012586A503120125C1A503120125FFA6
:10091300A5031201252FA60312012556A6031201D2
:1009230025C1A60312012503A7031201250B6600A7
:10093300120125CD67001201256569001201250CFE
:100943006A00120125536A00120125976A001201F9
:1009530025A96A00120125E96A00120125186B0016
:10096300120125636B00120125A36B00120125D12F
:100973006B00120125226C00120125AF6C001201DD
:1009830025F86D00120125EC6E00120125A17000FF
:100993001201254475001201258D7500120125D41D
:1009A3007500120125EA770012012571AD031201CA
:1009B30025E3AD0312012539AE031201257DAE03F4
:1009C3001201259DAE03120125EAAE031201253261
:1009D300AF0312012585AF03120125D6AF03120120
:1009E300253539001201257E3900120125AB390066
:1009F300120125DE3900120125EE3900120125FA14
:100A030039001201250B3A00120125E03A001201C8
:100A1300253E3B00120125733B001201250F3D00CB
:100A2300120125613D00120125AF3D001201250B86
:100A33003E00120125073F001201258D40001201DF
:100A430025644100120125744100120125904100E3
:100A53001201259341001201254D42001201251672
:100A63004300120125BC43001201251B440012015F
:100A730025A34400120125084500120125974500CE
:100A8300120125604600120125FD4600120125844E
:100A93004700120125DB47001201253C48001201E3
:100AA300257648001201252449001201251C4B001C
:100AB3001201256C4B00120125AF4B0012012524B6
:100AC3004C00120125B04C00120125FB4C00120111
:100AD30025204D00120125714D00120125934D0073
:100AE300120125D84D00120125474E001201258918
:100AF3004E00120125894F001201251150001201E9
:100B030025E25000120125FB5000120125FAB9021B
:100B13001201254DBA0212012559BA021201252EDE
:100B2300BB0212012555BB0212012590BB02120123
:100B330025FCBB0212012530BC0212012569BC024F
:100B430012012581BC02120125DABC02120125F330
:100B5300BC021201253CBD021201254FBD02120148
:100B63002569BD021201257FBD021201259BBE022C
:100B7300120125ACBF02120125F9C002120125DEC4
:100B8300C102120125F97F0012012599F802120111
:100B9300250BFC0212012523FD0212012500800210
:100BA300120125F38502120125F985021201257927
:100BB300880212012598F30212012543F40212015F
:100BC30025F3F40212012518F5021201250FF7028D
:100BD30012012562F8021201259DA601120125D1F9
:100BE300A60112012525AF0112012571B0011201E1
:100BF300258EB10112012518B301120125FAB301A3
:100C030012012534B40112012557B40112012599AB
:100C1300B401120125E3B401120125EDB40112015F
:100C23002599B5011201256DB601120125C1B60141
:100C330012012523B70112012576B701120125A55B
:100C4300B701120125E4B7011201254BA7031201D5
:100C530025C1A703120125D7A70312012514A80351
:100C63001201254CA803120125C9A803120125046A
:100C7300A9031201257FA903120125BBA9031201B0
:100C830025C4A903120125D0A903120125EAA9034A
:100C93001201250FAA0312012525AA0312012569B2
:100CA300AA03120125B9E102120125CCE1021201C6
:100CB30025E6E1021201250FE20212012552E202AA
:100CC30012012591E202120125CFE202120125341D
:100CD300E30212012549E30212012560E302120136
:100CE300256EE3021201257DE30212012592E30240
:100CF300120125A7E302120125B2E302120125BE68
:100D0300E302120125CBE302120125DEE302120105
:100D130025E9E3021201250EE402120125B7E402DC
:100D2300120125CCE402120125E1E402120125FBA4
:100D3300E40212012516E50212012533E502120130
:100D4300253EE502120125FAE502120125E6E60237
:100D53001201250BE70212012515E70212012529CD
:100D6300E70212012548E702120125A9E702120151
:100D730025AFE702120125B5E702120125BBE70201
:100D8300120125C7E702120125FAE702120125EF36
:100D9300A5021201251BA602120125FFA6021201BC
:100DA3002599A902120125AFAA02120125CCAB0293
:100DB3001201256FAC0212012515AD02120125F9AE
:100DC300F1011201257BF20112012524F301120125
:100DD300256CF4011201257AF60112012560F70151
:100DE30012012595F701120125B7F70112012560BC
:100DF300F80112012530FA0112012559FA011201F5
:100E030025D1FA0112012503FB0112012510FB0173
:100E13001201255BFB011201257FFB01120125D085
:100E2300FD01120125DAFE0112012536FF0112012F
:100E330025BEC701120125CFC801120125B3C9017F
:100E4300120125BDC901120125DFC901120125EBDC
:100E5300C9011201258FCB01120125BCCB0112015F
:100E630025D2CC0112012527CD0112012576CE0111
:100E73001201254BCF01120125A7CF011201251223
:100E8300D00112012547D0011201258AD001120198
:100E93002554D3011201256CD301120125FDD30181
:100EA3001201250BD40112012558D4011201256624
:100EB300D401120125D2D4011201254DD50112010D
:100EC30025A4D50112012508B2031201252DB20371
:100ED300120125A3B20312012502D4021201250B2C
:100EE300D40212012514D402120125ECD4021201FA
:100EF300259DD602120125CDD602120125F8D60270
:100F030012012528D70212012553D7021201258782
:100F1300D702120125B3D702120125F6D702120117
:100F23002521D80212012568D802120125BDD80255
:100F3300120125FFD80212012559D9021201258475
:100F4300D902120125D3D90212012503DA021201B3
:100F5300252EDA0212012551DA0212012583FF013F
:100F6300120125AFFF01120125DCFF01120125E665
:100F7300FF01120125F6FF01120125D1CB02120157
:100F830025DBCB021201251CCC0212012565CC0204
:100F93001201259FCC02120125F5CC021201251660
:100FA300CD02120125C5CF02120125CECF021201B7
:100FB3002522D0021201254BD00212012555D00261
:100FC300120125C3D00212012553D102120125AE0D
:100FD300D102120125DCD10212012564D2021201D1
:100FE30025A3D202120125D8D202120125EAD20288
:100FF30012012509D30212012512D302120125D4AD
:10100300D302120125FDBE0312012517B0031201FD
:10101300254DB00312012581B003120125CEB10382
:10102300120125A0C203120125B6C203120125C075
:10103300C203120125D18803120125E4880312019A
:1010430025A88903120125E78903120125048A03D0
:101053001201253D8A031201258A8A03120125BC48
:101063008A03120125F38A03120125068D03120157
:10107300250AC303120125FCB6031201251FB7037A
:101083001201254EB703120125E6B703120125FE0F
:10109300B70312012540B80312012589B8031201D1
:1010A3002597B80312012508B90312012566B90370
:1010B30012012584B90312012577E802120125B92B
:1010C300E80212012539E9021201254CE902120155
:1010D30025A1E902120125F5E9021201253AEA02E6
:1010E30012012549EA02120125F8EA0212012553E9
:1010F300EB02120125A2EB02120125FCEB02120105
:101103002509ED0212012501EE021201253EEE0230
:1011130012012531C2031201252D51001201252B85
:101123005300120125C85400120125755500120100
:1011330025F55500120125775600120125A056000A
:10114300120125F256001201252B5B00120125A284
:101153005B00120125B95C00120125F35C0012014A
:1011630025345D001201257B5E00120125AA5E0075
:10117300120125005F00120125495F00120125B508
:101183005F0012012529600012012557600012013A
:10119300256F600012012588610012012598610006
:1011A3001201255363001201256A63001201259C75
:1011B3006300120125396500120125CD6500120176
:1011C30025E3C003120125F4C003120125BCC303A8
:1011D300120125FBC30312012563C40312012594E5
:1011E300C103120125A4C103120125BFC1031201CA
:1011F3002527C203120125FBBD0312012580BE036F
:10120300120125E4BE031201250EBA03120125378C
:10121300BA03120125A2BA03120125F3BA0312017C
:10122300254EBB03120125138D03120125408D03A7
:10123300120125B28D03120125C78D03120125E882
:101243008E031201256B8F03120125E48F03120114
:1012530025039003120125269003120125639003B1
:101263001201257B9003120125D190031201258ED3
:101273009C03120125A59C031201251F9D03120146
:1012830025039E03120125DA9F03120125C3980348
:10129300120125539903120125DC990312012578C4
:1012A3009A03120125099B03120125B99B0312011D
:1012B30025C79B03120125459C03120125589C0356
:1012C3001201256E9C03120125789C031201258BC4
:1012D3009C0312012564B503120125B6B50312015F
:1012E3002529B60312012596B60312012599AA03EF
:1012F300120125C3AA0312012592AB031201256E25
:10130300AC03120125FFAC031201259BC30212019A
:101313002567C402120125A8C402120125E2C402F2
:1013230012012540C50212012594C502120125F2BE
:10133300C50212012588C60212012590C7021201B7
:10134300251AC902120125B8C9021201251FCA02B2
:1013530012012532CA0212012526CB021201256F82
:10136300CB021201253F9A021201255C9B02120156
:1013730025469C02120125E09E02120125C09F0210
:1013830012012506A002120125A2A202120125F2D2
:10139300A20212012590A302120125C7A402120181
:1013A300256DA502120125CDFF0212012505C403F7
:1013B3001201253BC403120125DB7F00E066701098
:1013C30008A3E066700A08A3E066700408A3E06659
:1013D30022C3E7960809E7960809E7960809E796FE
:1013E30022C3E09608A3E09608A3E09608A3E0963C
:1013F30022C008C3E096F50808A3E096420808A3B4
:10140300E096420808A3E09645087001D3D008226D
:10141300080808EAC0E0EBC0E086F0E7A4FA180980
:1014230086F0E7A42AFA180986F0E7A42AFA18092D
:1014330086F0E7A42AFA1986F0E7A4FBE5F02AFA76
:10144300190886F0E7A42BFBE5F03AFA190886F0B1
:10145300E7A42BFBE5F03AFA18180986F0E7A4C5D0
:10146300F02BFBE43AFA1908E7C5F0C6A426F6E523
:10147300F03BFBE43AFA1886F0E7A4F6E5F0082619
:10148300F6E43B08F6E43A08F6D0E0FBD0E0FA22B3
:10149300E4CFC0E0E4CEC0E0E4CDC0E0E4CCC0E003
:1014A30075F020C3E633F608E633F608E633F608AC
:1014B300E633F6181818EC33FCED33FDEE33FEEF8C
:1014C30033FFC3EC9709ED9709EE9709EF971919C5
:1014D30019400FFFEC97FC09ED97FD09EE97FE19F4
:1014E3001906D5F0BEECF709EDF709EEF709EFF7AA
:1014F300191919D0E0FCD0E0FDD0E0FED0E0FF22C6
:101503006016080808C6C313C618C613C618C61340
:10151300C618C613C6D5E0EA227009080808226077
:1015230016181818C6C333C608C633C608C633C64A
:1015330008C633C6D5E0EA22E627F60809E637F6F9
:101543000809E637F60809E637F622E026F608A387
:10155300E036F608A3E036F608A3E036F622E026E6
:10156300F008A3E036F008A3E036F008A3E036F075
:1015730022C3E697F60809E697F60809E697F60800
:1015830009E697F622C3E096F008A3E096F008A3D5
:10159300E096F008A3E096F022E657F60809E6572E
:1015A300F60809E657F60809E657F622E056F60864
:1015B300A3E056F608A3E056F608A3E056F622E0A9
:1015C30056F008A3E056F008A3E056F008A3E0564F
:1015D300F022E066F608A3E066F608A3E066F608E4
:1015E300A3E066F622E0F608A3E0F608A3E0F60817
:1015F300A3E0F622E6F008A3E6F008A3E6F008A3CA
:10160300E6F022E0FAA3E0FBA3E0FCA3E0FD22EA7C
:10161300F0A3EBF0A3ECF0A3EDF022CAC0E0E6F0F8
:10162300A308DAFAD0E0FA22CAC0E0E0A3C582CC6C
:10163300C582C583CDC583F0A3C582CCC582C583CE
:10164300CDC583DAE6D0E0CA22C3E498F8E499F979
:1016530012168D8026C3E49AFAE49BFBE920E7E99E
:1016630012168DE498F8E499F922C3E498F8E49902
:10167300F912168DE498F8E499F9C3E49AFAE49B15
:10168300FB22EB20E7CFE920E7E0B90010BB00081D
:10169300E88AF084F8AAF022E4FBC8FA22EB70226D
:1016A3007B10C833C8C933C9335007C39AC3DBF2AD
:1016B30080069A50012ADBEAC833F4C8C933F4C957
:1016C300FA2275F008E4C833C8C933C933C99AC9C3
:1016D3009B5004C92AC93BD5F0ECFBC833F4C8E4DA
:1016E300C9FA22600D08C6A2E713C618C613C6D5E9
:1016F300E0F322600C08C6C313C618C613C6D5E0B0
:10170300F422700422600D18C6C333C608C633C65C
:10171300D5E0F41822251810AF08F5184002151962
:101723008008F51840021519D2AF22C0D025181031
:10173300AF08F518500205198008F518500205196D
:10174300D2AFD0D0222518F58210AF08F518400289
:1017530015198008F51840021519D2AF851983228F
:10176300C5822518C582C583351910AF07F51985BC
:1017730082188007F519858218D2AFC583222518F0
:10178300F582E43519F58322E4732518C582C0E098
:10179300E51934FFC583C0E0E518C3958224F8102A
:1017A300AF08858319858218800885831985821877
:1017B300D2AFCEF0A3E520F0A37808E608F0A3DECD
:1017C300FAEFF0A3E58124FAF8E608F0A3E608F0BF
:1017D300A3E608F0A30808E608F0A3E608F0A315BB
:1017E300811581D0E0FED0E0F8158115811581E8DF
:1017F300C0E0EEC0E0222518C582C0E0E51934FF41
:10180300C583C0E0E518C3958224F910AF0885832A
:10181300198582188008858319858218D2AFCEF086
:10182300A3E520F0A37808E608F0A3DEFAEFF0A31F
:10183300E58124FBF8E608F0A3E608F0A30808E630
:1018430008F0A3E608F0A315811581D0E0FED0E0EF
:10185300F815811581E8C0E0EEC0E0228519838583
:101863001882E0A3FEE0A3F5207808E0A3F608DFE2
:10187300FAE0A3FFE0A3C0E0E0A3C0E0E0A3C0E080
:10188300E0A3C0E0E0A3C0E010AF08858218858321
:10189300198008858218858319D2AFD083D082023C
:1018A3000122851983851882E0A3FEE0A3F5207841
:1018B30008E0A3F608DFFAE0A3FFE0A3C0E0E0A39B
:1018C300C0E0E0A3C0E0E0A3C0E010AF0885821849
:1018D3008583198008858218858319D2AFD083D078
:1018E3008222C0D02518C582C0E0E51934FFC58324
:1018F300C0E0E518C3958224F310AF0885831985EA
:1019030082188008858319858218D2AFC8F0A3E9AD
:10191300F0A3EAF0A3EBF0A37908E709F0A3D8FA60
:10192300ECF0A3EDF0A3EEF0A3EFF0A3D0E0F0A36F
:10193300D0E0F0A3D0E0F0A3E520F0A3E5F0F0A31E
:1019430022851983851882E0C0E0A3E0F9A3E0FAB9
:10195300A3E0FBA37808E0F608A3DFFAE0FCA3E02A
:10196300FDA3E0FEA3E0FFA3E0C0E0A3E0C0E0A38B
:10197300E0F5D0A3E0F520A3E0A3F5F010AF0885D0
:1019830083198582188008858319858218D2AFD080
:1019930082D083D0E0F8D0E03274048006740280F1
:1019A300027401C0E0F404121748D0E012161E229C
:1019B3007404800474028000CCC0E0EDC0E0E5183C
:1019C300C39CCCAD1950011D10AF068C188D198026
:1019D300068C188D19D2AF12162BD0E0FDD0E0FC87
:1019E30022D083D082E9C0E0E493A3C386F0C5F09C
:1019F30095F0F908E493A386F0C5F095F0700BE435
:101A030093A3C3994005E9048002A3E475F002A4FB
:101A13002582F582E5F03583F583D0E0F9E493A3DD
:101A2300C0E0E493C0E022D083D082ECC0E0EDC0FC
:101A3300E0E493A3FCE493A3FDED4C600D121A764E
:101A4300EC24FFFCED34FFFD80EFE493A3FCE4936F
:101A5300A3FDED4C600D121AB5EC24FFFCED34FF31
:101A6300FD80EFD0E0FDD0E0FCE493A3C0E0E4937D
:101A7300C0E022C0E0C3E493960874019396184033
:101A83000FE4936670080874019366187000701968
:101A9300A3A3C3E49396087401939618A3A3400DDC
:101AA300D0E0D0E0D0E0021A66A3A3A3A3A3A3D0FF
:101AB300E022C0E0C0F088F0E49366700808740187
:101AC3009366187000A8F0A3A3700BD0F0D0E0D0F9
:101AD300E0D0E0021A66A3A3D0F0D0E02274F5129E
:101AE30017F9EAFEEBFFEE2434F8EF3400F9880827
:101AF3008909EE2435121C18F8EE2437121C18F548
:101B03000AEC850AF0A4FCAAF0850AF0EDA42AFDEC
:101B1300E82CF8E43DF97A257B0012168DEA850856
:101B230082850983F05407F87401B800028004C366
:101B330033D8FCC0E0E0131313541FF8EE28F8EF7A
:101B43003400F9E8245DF582E93400F583D0E0F848
:101B5300E0586008850882850983801DEE243612CB
:101B63001C18F5F0EA84A8F0EE28F8EF3400F9E841
:101B73002438F582E93400F583E0F97F040218A5DF
:101B830074F51217F9EAFEEBFFEE2434121C18C0A9
:101B9300E0EE2435F582EF3400F583D0E0F08E8259
:101BA3008F83A3A3A3A3A3E0FAA3E0FB8E828F8377
:101BB300A3A3A3A3A3A3A3E0FCA3E0FDECC39AF513
:101BC3000AED9BF50BEE2480F508EF3400F509854B
:101BD3000882F583E06401702BEE2481F582EF34F3
:101BE30000F5831219B7121C21740212172EE96033
:101BF300137CE27D07EEFAEFFB120AA185088285CA
:101C03000983E4F0AC0AAD0BEEFAEFFB121AE01213
:101C13001F7B021B7EF582EF3400F583E022C08236
:101C2300C083851882851983E0F8A3E0F9C3EA9C91
:101C3300EB9D5012C3EC98ED994019C3EA98EB99C8
:101C4300501279018010C3EA98EB9940F5C3EC98E0
:101C5300ED9950EE7900D083D082220000851A8757
:101C6300851BC622C0E074EF1218E5759B009061D6
:101C730082E0A2E64003021D28E591A2E6400302AA
:101C83001D287591BF900499E064057008120C7BC0
:101C9300120C878003120C81751A00120CF3E99061
:101CA300049AF07900120CD5120A057A017B009090
:101CB3000498E0F9120FDB907803E06442600302BA
:101CC3001D71900817E014F06003021D71C2AF127A
:101CD3001CD500781DD0E0F618D0E0F6E59F540738
:101CE300F970059093C380039093FB78081215E86D
:101CF300E9C4C0E0781CE65508F50808E65509F57F
:101D030009740B78081216F6D0E02508F890627073
:101D1300E0A2E740F8E8C333906272F0906270E0AB
:101D2300D2E0F08049E0A2E55024E591A2E5501EFF
:101D33007591DF900499E0640D70139004BBE00487
:101D4300F064287002E4F07A00E0F9120D839061E8
:101D530081E0A2E35009E5E9A2E3500375E9F7A3A3
:101D6300E0A2E75009E591A2E7500375917F7F0454
:101D7300021944C0E0C0D0C082C083906183E0A256
:101D8300E05009E5BFA2E0500375BFFEE0A2E150B9
:101D930009E5BFA2E1500375BFFDE0A2E25009E5EA
:101DA300BFA2E2500375BFFBE0A2E35009E5BFA267
:101DB300E3500375BFF7E0A2E45009E5BFA2E45086
:101DC3000375BFEFE0A2E55009E5BFA2E550037537
:101DD300BFDFE0A2E65009E5BFA2E6500375BFBF2F
:101DE300D083D082D0D0D0E032C0E074F21218E5B4
:101DF300E5A7A2E4500FE5A1A2E4500953A7EF75AC
:101E0300A1EF121E40E5A7A2E5500CE5A1A2E55003
:101E13000653A7DF75A1DFE5A7A2E15009E5A1A25B
:101E2300E1500375A1FDE5A7A2E2500CE5A1A2E2F2
:101E3300500653A7FB75A1FB7F0102194474F812E6
:101E430017F9751A01900499E0640670077A007B0C
:101E530000120C63A2AFE433FED2AF90049FE064A0
:101E63000170187A207B00900498E0F91210597AD7
:101E7300207B00900498E0F9120FE1906182E0D298
:101E8300E6F0900816E0602185C61B801690049E3C
:101E9300E064017008E5C654F84405F5C653BEFC7A
:101EA300121C607401651A60E4EEA2E092AF7F0138
:101EB3000218A574F11217F98A088B098C0A8D0B85
:101EC300740F121781780C1215E89093D3780812C7
:101ED30015AF9093D3780C1215AF7808790C1213C1
:101EE300D450157808790C1215749094337808122D
:101EF30013F4401579018013780C79081215749046
:101F03009433780C1213F440EB79007F080218A580
:101F130074ED1217F98A088B098C0A8D0B7413124E
:101F23001781780C1215E89093D378081215AF90A7
:101F330093D3780C1215AF780C79081213D440118F
:101F43007808790C121574AA08AB09AC0AAD0B809A
:101F53002275100075110075120075130178107940
:101F63000C1215747810790812153BAA10AB11AC3A
:101F730012AD137F0C0218A5C082C083E9906000E4
:101F8300F0D083D08222C0E074F21218E5A2AFE44D
:101F930033FED2AFC2C0E5D1A2E4500653D1EF1253
:101FA30012CFEEA2E092AF7F01021944C0E074F2B7
:101FB3001218E5A2AFE433FED2AFE589A2E15003E4
:101FC300121221758900C2C5EEA2E092AF7F010211
:101FD3001944C0E074F21218E5A2AFE433FED2AFA5
:101FE300E58BA2E05003121221758B00C2E880D862
:101FF300C0E0C0D0E8C0E0E5A8D2AFC2C7A2E79274
:10200300AFD0E0F8D0D0D0E032C0E0C0D0E8C0E03C
:10201300E9C0E0C008C009C082C083A2AFE433F9BD
:10202300D2AF901063E0F8A3E0687008539AFBA363
:1020330074018026C2E9901063E0F5087401250855
:10204300F074E32508F582740F3400F583E0F5C1DD
:10205300901063E0C394804002E4F0E9A2E092AF01
:10206300D083D082D009D008D0E0F9D0E0F8D0D026
:03207300D0E03288
:10207800FFFFFFFFFFFFFFFFC082C083E990118FC2
:10208800F0D083D08202012274F612178DE99003F2
:1020980064F07CA47D037AFF7BFF1207237A008A11
:1020A800087509007402780812170574652508F880
:1020B800740335091220DFA3F00AEAC3940340DF52
:1020C80079051206B1900364E0F91205D97A3B7BD1
:1020D800071208F1023660F98882898374FF12209A
:1020E800ECE4F022F0A31234EDA32274F412178D5D
:1020F8008A088B09EB54806030900364E0F9120F72
:10210800C38A0A8B0BAE0AAF0BEE4F60138E828F19
:1021180083E064B070031206C3EEFAEFFB120FB14E
:10212800AA08E5096480FB80047A007B000222BCCF
:1021380074F212178D74FC121718EAFEEBFF741272
:10214800121781123536EE4F70030221DB7402122A
:102158001781EEF0A3EF122517ECF0A3ED12251767
:10216800AA82AB831205D3E9F50A706AE508450926
:1021780060648E828F83123517EE4F60567A067B25
:10218800001210178A0C8B0DA80CA90DE8497005D0
:10219800750A13804188828983E41220ECEEF0A34B
:1021A800EF123547E508F0A3E509F0900372122213
:1021B800B69003727005122FD4801B122FC28003B1
:1021C800EAFCEBFD8C828D831222B670F38C828D33
:1021D8008380E3750A02A90A740412172E02372AAB
:1021E80074F212178D890AE975F045A4FEAFF090D4
:1021F8000371E4F09003671222B6602812101D796B
:102208000089087509007402780812170574672593
:1022180008F58274033509F583E4F0A3F009E9C3EE
:10222800940340DDEEFAEFFB1210178A088B09EAD7
:1022380045096075EEFCEFFD7900120F997D008D60
:102248000C750D007402780C1217057467250CF8CC
:102258007403350DF9E50AF5F0EDA475F017A4FA45
:10226800ABF0E5082AFAE5093BFB88828983EAF0A6
:10227800A3EBF07E00801BEE75F017A4FAABF08894
:10228800828983E02AFCA3E03B8C82F583E4F0A3F7
:10229800F00EEEC3950A40DF0DEDC3940340A0E5B0
:1022A8000A900371F079008002791302372A122C00
:1022B80066EA4B227F0402185F74F412178D7900C6
:1022C800EAA2E0501B75089175099378081219A0C5
:1022D8007C047D007A917B111206AB740212172ED2
:1022E80080D2C082C08390037212353149601C8845
:1022F800828983A3A3E06A7003A3E06B8882898341
:1023080070E7A3A3A3A3122C6280047A007B0002C7
:10231800208974EE12178D74FC121718EAFEEBFF71
:10232800851882851983E4F0A3F0EE2402122FB4F5
:10233800EE24051234F4EE2404F50EEF1228C1E061
:1023480024FE603924FC604624FE605224FE605E50
:1023580024FE700302242D24FE700302249124FE1F
:1023680070030224A024FE70030224AF24FC70032F
:102378000224BE24FE70030224CD02250A90038B9A
:102388007417F0A3E412251F12024902250A8518C2
:1023980082851983AC82AD831206C90224DA8518B6
:1023A80082851983AC82AD831206CF0224DA850CAC
:1023B80008850D097402121781AC82AD83850882E5
:1023C800850983122C621205F78A0C8B0DAC0CADB3
:1023D8000DEC4D603BE4F50CF50D780C1219A07569
:1023E8000C8B750D03780C1219A0750C8C750D03E8
:1023F800780C1219A074081217811219B712383400
:1024080012172EE9F50C700B122C58120261800F6E
:10241800750C0185088285098312250D122FD48534
:102428000C080224DD7402121781AC82AD83850C7E
:1024380082850D83122A14603C850C82850D83A346
:10244800A31219B775108B75110378101219A0759E
:10245800108C75110378101219A0740812178112C4
:1024680019B712383412172EE9F509700B122C58C7
:10247800120267800F750901850C82850D8312256C
:102488000D122FD4850908804C851882851983ACD4
:1024980082AD831206D5803A851882851983AC826D
:1024A800AD831206DB802B851882851983AC82AD3B
:1024B800831206E1801C851882851983AC82AD835E
:1024C8001206E7800D851882851983AC82AD8312C8
:1024D80006EDE9F508E50860298E828F83A3E0649C
:1024E80014601F850E82850F83E090038B122517D9
:1024F80012380C90038C122FD4E508A312251F1252
:102508000243022EC312381085188285198322F0DF
:1025180085188285198322F07C8B7D03850A828544
:102528000B83122C662274EE12178D74FC12171886
:102538008A0A8B0B8C0E8D0FEA2405F508EB340004
:10254800F5097C157D0079007A8B7B03120F99E5DC
:10255800082402F50CE5091234F7851882851983D9
:1025680085821085831178101219A0850882850943
:1025780083A3A3A3A3122A0B1219A0E5082405F527
:1025880010E5093400F51178101219A0850C828520
:102598000D83122D791205F1740612172E8A108BED
:1025A80011AE10AF11E50A2402F50AE50B122FB798
:1025B800EE4F70030226EC80177402121781122C5A
:1025C8006288828983EAF0A3EBF090038BE004F041
:1025D80090038BE0C3940540030226ECE4F510F564
:1025E8001178101219A0751074751103781012194A
:1025F800A075107575110378101219A074061217BA
:10260800811219B77910EEFCEFFD12383612172E29
:10261800E9705E850882850983A3A3A3A3A3A3A366
:10262800E0F8900374E0687048122A0B1219A07C35
:10263800757D03E5082408FAE5093400FB120F93B9
:10264800740212172EE960298E828F83A3A3A3A395
:10265800122C6290038BE0F51074027810121705A3
:10266800748C2510F58274033511F583EAF0A3EB19
:10267800F07402121781858210858311781012195F
:10268800A074021217811219B7850C82850D831266
:102698002C8812172E8A108B11AE10AF1190038B55
:1026A800E0F51075110074027810121705748B2567
:1026B80010F874033511F988828983A31222B67041
:1026C800030225B8E82403080808E93400F9EE4FA6
:1026D80060030225C18882898374FFF0A3F0900308
:1026E8008BE004F090038BE0600A122C581202551C
:1026F8007900800B850882850983122FCB790A021D
:102708002EC374EA12178D74FE1217188C128D13CB
:10271800EA2405F50CEB12381E12351B75080075F6
:102728000900EA2402F510EB3400F51185188285BA
:10273800198385820A85830B780A1219A0850C8271
:10274800850D83A3A3A3A31228D71219A0E50C24EF
:1027580005F50AE50D122FB7780A1219A0850C8223
:10276800850D831228DB1205F1740612172E8A0ACA
:102778008B0BEA450B700302288CEA2404F50EEB58
:102788001228C112351B8A828B83A3A3A3E0F98583
:102798001082851183122C6C600302288CE4F514D6
:1027A800F51578141219A075147475150378141298
:1027B80019A075147575150378141219A0740612EA
:1027C80017811219B77913AC0AAD0B8510828511E0
:1027D8008312383C12172EE9F509600302288C9001
:1027E8000374E0F8E5087009E0240290038CF08097
:1027F8001790038CE0FCE82402FAE43400FBEA6C4E
:102808007001EB6003022890850882AA82122A02CE
:1028180094141229FA506D850E82850F83E0C0E06A
:10282800122C32D0E0F00508850E82850F83A3E0D4
:10283800C0E085080A748D250AF58274033400F512
:1028480083D0E0F005089003741228D71219A07CF1
:10285800757D0385080A748D250A1228CB12172E58
:10286800900374E02508F50874FF6E700374FF6F19
:102878006012EE24010EEF3400FFE508C3941450F3
:1028880003022734E5086013122C7685108285111F
:1028980083122C6212025B79008014E509700375BB
:1028A800090A851282851383EEF0A3EFF0A9097453
:1028B8000212172E7F0E02185F3400F50F850E8264
:1028C800F58322FA74033400FB120F81740222127A
:1028D800355622A3A31228E122122FC2FDEEFAEFE9
:1028E800FB2274EE12178D74FE1217188C0E8D0FC2
:1028F800EA2405F50CEB1234F7750B0090038BE412
:10290800F0F50AEA2402F508EB3400F50980449052
:10291800038BE0FA900374E0F8122A029417122944
:10292800FA400D90038BE0F87416C398900374F086
:10293800122A0B1219A07C757D03748C2AFA740371
:102948001228CE12172E900374E0F890038BE0281B
:10295800F0050AE50C2416F582E50D3400F583E050
:10296800F8E50AC398507490038BE0C39416506B33
:10297800E50AC333F8E433F9E50C28FEE50D39FF21
:10298800851882851983AC82AD838E828F83122A43
:10299800147008750B01122FC78050E4F510F5115B
:1029A80078101219A075107475110378101219A0F7
:1029B80075107575110378101219A0740612178115
:1029C8001219B7791685088285098312383C1217BF
:1029D8002EE9F50B700302291780BB7C8B7D0385DC
:1029E8000882850983122C6212026DA90B740202F7
:1029F8002EC5E99400C365D03322EA28F8E43400F0
:102A0800F9E822E0F510751100781022122EBA8A22
:102A1800108B11AC10AD11EC4D2274EA12178D74A5
:102A2800FC1217188A0C8B0D8C128D13EA2405F5ED
:102A38000AEB122FB7750800750900E50A2402F59C
:102A480010E50B3400F511740212178185820E858A
:102A5800830F780E1219A0850A82850B83A3A3A37E
:102A6800A31234FC1219A0E50A2405F50EE50B346F
:102A780000F50F780E1219A0851082851183122F88
:102A8800BD122C5C1205F1740612172E8A0E8B0FDC
:102A9800AE0EAF0FE50C2402F50EE50D3400F50F70
:102AA80080388882898374FFF00508122C3E74FFF1
:102AB800F00508900374E0F50C750D00780C1219F8
:102AC800A07C757D0385080C748D250C1228CB120B
:102AD800172E900374E02508F508EE4F60278E82C4
:102AE8008F83A3A3A3E0F9850E82850F83122C6C34
:102AF800EE24041234F4E96027850C82850D8312D4
:102B08002C4E122FD4E5087003022C18122C76854F
:102B18000E82850F83122C621202737900022C2D0B
:102B2800E4F514F51578141219A0751474751503C5
:102B380078141219A075147575150378141219A054
:102B480074081217811219B77911EEFCEFFD850E82
:102B580082850F8312383C12172EE9F509709A8581
:102B68000882AA82EA9003747009E0240490038C16
:102B7800F08025E0F890038CE0F514E82404FCE4E8
:102B88003400FDEC65147001ED7081122A02941274
:102B98001229FA4003022B14850C82850D83E0C0AC
:102BA800E0122C32D0E0F00508850C82850D83A355
:102BB800E0C0E0122C3ED0E0122C9185820C858377
:102BC8000D780C1219A074041217811219B7851008
:102BD80082851183122C8812172E8A0C8B0DAE0C4D
:102BE800AF0D85080C748D250CF874033400F9EECC
:102BF8004F7003022AAA851882851983E088828982
:102C080083122C91A3E0C0E0122C3ED0E0022AB837
:102C1800E509700375090A850A82850B83122C4E13
:102C2800122FD4A90974040228B9748D2AF5827464
:102C3800033400F5832285080C748D250CF5827405
:102C4800033400F5832212381085128285138322FB
:102C58007C8B7D03850A82850B83122C6622E0FA21
:102C6800A3E0FB22122C661205DFE9F50922900386
:102C78008CE0F5F0E5088490038BF07C8B7D0322D3
:102C88001228E11205FD740422F0050885188285D2
:102C980019832274EC12178D74FE1217188A088B88
:102CA800098C0E8D0FEA2405FEEB3400FF122EA4CA
:102CB800EE24181234F4EA450B7003022D47122E45
:102CC8008D5029122D6C8A108B11EA4511606B7991
:102CD80012AC0AAD0B850882850983122C62851017
:102CE8008285118312178BE9F50A7058E4F50AF505
:102CF8000B780A1219A08E828F83A3A3E0F50A78B5
:102D08000A1219A0EE2403122FB4780A1219A08E01
:102D1800828F83122D79120711740612172EE9F586
:102D28000A7021850C82850D83E0701F85088285D5
:102D38000983122C621202798011750A0E800975B6
:102D48000A018004E50A6003122FC7850C82850DED
:102D580083E0600479008002A90A740212172E7FAA
:102D68000C02185F851882851983122C661206FFDB
:102D780022122FC2FD850882850983122C662274CF
:102D8800EE12178D74FE1217188A088B098C0C8D99
:102D98000DEA2405FEEB3400FF750E00122EA4EA9E
:102DA800450B7003022E6B122E8D502C122D6C8A3F
:102DB8000E8B0FEA450F604A7912AC0AAD0B8508F5
:102DC80082850983122C62850E82850F8312178BE8
:102DD800E9F50E6003022E6E85088285098312309C
:102DE800CEAA0AFB122E7F70147AFF7BFF122E7F69
:102DF800606C88828983E50AF0A3E50BF0750A0008
:102E08008007750E0E805F050A900371E0FAE50AE7
:102E1800C39A504AE50A75F017A4FAABF08882897C
:102E280083A3A3E02AFAA3E03BFB8A828B83122FB9
:102E3800BDEC4D70D2750A17750B00780A1219A0EF
:102E4800EEFCEFFD120F81740212172EEEFCEFFD5F
:102E5800850882850983122C6212027F8014750E00
:102E6800098003750E01123808850C82850D8312BE
:102E78002FD4A90E0229F51206F38A108B11A81077
:102E8800A911E84922E5082402F508E5093400F506
:102E9800098A828B83A3A3A3E0A2E52285188285F1
:102EA8001983AC82AD838E828F83122EBA8A0A8BE5
:102EB8000B22E0FAA3E0FB1205F722740412172E86
:102EC8007F0A02185F74EC12178D8C108D11EA249A
:102ED80005F50CEB1234F7750F00EA2402F50AEB3E
:102EE800122FB7850A82F583122C621238C3700339
:102EF800022FA9750E008071850C82850D83E06410
:102F080001704F8E828F83A3A31219B78E828F838D
:102F1800A3A3A3A3E0F51275130078121219A0EE6B
:102F28002405F512EF3400F51378121219A0122CAB
:102F38005C120711740612172EE9F50F6014850C40
:102F480082850D83E4F0123808851082851183127A
:102F58002FD47C177D007900EEFAEFFB120F998EC3
:102F6800828F83E4F0A3F0050E900371E0F8E50E7C
:102F7800C398501EE50E75F017A4F8A9F0850882CD
:102F8800850983A3A3123828122FBDEC4D600302D4
:102F98002F0085088285098374FFF0A3F0E50F7080
:102FA80006122C5C120285A90F022D67F50AEF3470
:102FB80000F50B22A3122FC2FD22E0FCA3E0228E13
:102FC800828F83123810850E82850F83E8F0A3E97B
:102FD800F02274F612178D7C008C087509007402B3
:102FE800780812170512300C6A7003A3E06B70069C
:102FF800E8FAE9FB800B0CECC3940340DC7A007B15
:103008000002366074652508F874033509F988826A
:103018008983E02274F712178D7F00EF75F003A4FF
:10302800F8A9F0EC28F8ED39F988828983E06A700C
:1030380003A3E06B7006E8FAE9FB800B0FEFC3947B
:103048000440D87A007B007F0102185F74F61217DB
:103058008D12360570067A007B008007A3A3A3A310
:10306800122C6202366074F212178DE9FE740E1289
:1030780017811230CE74101217811235368C828D5A
:1030880083E06402703BA312380C88828983E0F5E0
:103098000CA3E0F9A80C7402687003742969702104
:1030A800750C02750D00780C1219A078081219A079
:1030B800780A1219A0EEF9120735740612172E8035
:1030C80002790102372AE0F50AA3E0F50B2274E839
:1030D80012178D74FB121718E9851882851983F069
:1030E8008A168B178C0E8D0F741F121781123536A6
:1030F80074211217811230CE742312178112351BD6
:103108007510008C828D83A3A3A3E0A2E4502A74D7
:103118001D121781122D728A828B83E58245837076
:10312800030231E2790AAC0EAD0FAA16AB171217DB
:103138008BE9F51060030231E5850E82850F83E087
:103148006402600302349BA312380C850882850947
:1031580083A3858212858313E50E2406F50CE50FFB
:103168001234F788828983E0FAA3E0F9EA2400F5AB
:1031780014E439F5157814121A2A010000280128D8
:10318800AA310700022881320328F1310029AB3324
:103198000129D33302297A330329AB3304293C3478
:1031A8009B34EE4F703E850C82850D83123531FAC3
:1031B800E9FB8A828B83E0850A82850B8312354D71
:1031C8001219A08A828B83A3122FC2FDAA08AB0909
:1031D800120F81740212172E800375100EA9107435
:1031E8000502381675100B80F4EE4F70F7850A82C9
:1031F800850B837401F0123521850882850983F0D7
:103208007C007D00850E82850F83A3A3A3A3E02401
:1032180001FAA3E03400FB1205F7EA4B60418A8209
:103228008B83E02402F8850A82850B83E028F0EA84
:103238002404F8EB3400F988828983E085128285BA
:10324800138312355F12354D1219A08A828B8312AF
:103258002FBCE5082403FAE5093400FB0231D885C0
:103268000A82850B83E02404F07C047D007900AA9F
:1032780012AB13120F990231E5EE4F60030231ECE5
:10328800123521FEA3E0FF850A82850B837404F0C2
:10329800EE850882850983F0EF851282851383F015
:1032A8007403121781AC82AD83EEFAEFFB1235F38B
:1032B80070030233578A828B83A3A31235177401D4
:1032C80012178185820E85830F780E1219A0740556
:1032D8001217811219B77CFF7DFF1205FD740412C5
:1032E800172E8B0FEA450F7033850C82850D8312DC
:1032F80034FC1219A0850C82850D83A31219B77CA2
:10330800027D007A507B94120375740412172EE91B
:10331800700A740112178174FFF0A3F08E828F83F4
:10332800E064027034750C02750D00780C1219A057
:103338008E828F83122FBCE5082404FAE50912282F
:10334800CE12172E850A82850B83E0240280097429
:1033580001121781EEF0A3EFF074011217811235F4
:103368000DF07401121781A3123505A3A3A3F0026F
:1033780031E5EE4F60030231EC850C82850D831236
:103388002FBDAA16AB17120729850A82850B8374ED
:1033980002F0EA850882850983F085128285138305
:1033A800EB80CBEE4F60030231EC123521F8A3E03D
:1033B800F9850A82850B837402F0E88508828509FD
:1033C80083F0E985128285138380A3850C82850D9D
:1033D80083122C62120F7BEAFC8C82A882C39EE4C3
:1033E8009F404BE86E7001EF70047C00801F8518C9
:1033F80082851983E0FAEE2AFAEF3400FBC3EA98D3
:10340800EB94005003E08004EECCC39CFCEC850AEE
:1034180082850B83F08C0A750B00780A1219A08537
:103428000C82850D83E02EFCA3E03F0231D375109A
:10343800070231E5EE4F60030231EC850C82850D01
:103448008312380C850A82850B837407F088828979
:10345800831235051234EDE0851282851383F0E876
:103468002402FAE93400FB8A828B8312350512356F
:103478003E12350DA3123547123511F0E82405F830
:10348800E93400F988828983123511A312355FA3C4
:10349800023373741D1217811235FE70030231E274
:1034A80012380C880C890DE8450D70030231E28E44
:1034B800108F1178101219A0780A1219A078081222
:1034C80019A07406121781E0F9AC0EAD0FAA16AB5D
:1034D80017850C82850D8312178B740612172EE937
:1034E800F5100231E5F088828983A322F50CEF34C8
:1034F80000F50D22E0F50E750F00780E22E0850824
:10350800828509832212356622123566A3A322A377
:10351800A3A3A3E0FEA3E0FF22850C82850D83E030
:10352800F8A3E0F5838882E022123810E822E0F55B
:1035380008A3E0F50922A3A3F08A828B83A32212B1
:1035480020EEA3A322F08A828B8312355622E0F55F
:103558000A750B00780A221234ED12356622E085CE
:103568000882850983A3A32274EE12178D74FE12B4
:1035780017188A0A8B0BECFAEDFB7414121781E00A
:10358800F510A3E0F5117416121781E0FE741812F5
:103598001781E0F50EA3E0F50F851882851983AC35
:1035A80082AD831235F3603E851882851983123502
:1035B800FE602FA3A3123536E50845096024780E6E
:1035C8001219A078101219A0EEF9AC0CAD0DAA0AC8
:1035D800AB0B85088285098312178B740412172E8A
:1035E8008006790E800279010229F51205F78A0C06
:1035F8008B0DEA450D22122C66123605221206BDE5
:103608008A828B83E58245832274F612178D74FEB5
:10361800121718740C121781123531851882851902
:1036280083F07401121781E9F0E4F508F5097808C8
:103638001219A075080278081219A07404121781CB
:1036480085820885830978081219A0120711740663
:1036580012172E740212172E7F0202185F74F712C7
:10366800178DEAFEEBFF89087CA47D03120729EA7F
:103678005402600BA908EEFAEFFB1205EB80027901
:103688000102304F74F612178D74FF6A700374FFCD
:103698006B701B7B00EB75F003A4F8A9F0EC28F81D
:1036A800ED391220DF0BEBC39404501480E71206A7
:1036B800F98A088B09A808A909E84960031220E0DB
:1036C800809674F612178D1206F98A828B83E5822A
:1036D80045836006A3A3E0FA80027A007B000236E5
:1036E8006074F212178D8A088B09ECFEEDFF740ED8
:1036F800121781E0F50A12372F701CEEFCEFFD7AE5
:10370800FF7BFF12372F7004791180168882898316
:10371800E508F0A3E509F088828983A3A3E50AF008
:1037280079007F0602185F1206F98A0C8B0DA80C27
:10373800A90DE8492274EE12178DEAFEEBFF8C08FA
:103748008D09890C741212178112380C741412170F
:1037580081122FBD7416121781122C62750D00ECA0
:103768004D60030238007402650C60030237FB8861
:10377800828983122FC2F9EC2400F50EE439F50F83
:10378800EAF4F8EBF4F9EC58F8E50F59F9E8497060
:103798005DE5082406F8E5093400F9880A890B88EC
:1037A80082F5831228DD1207298A108B11E50E6530
:1037B800107004E50F65116042780E1219A0850A91
:1037C80082850B831228DD12072F740212172EE947
:1037D800F50D7027780E1219A0850882850983A334
:1037E800A31228DB120741740212172E800D750DE3
:1037F800808008750D0D8003750D0BA90D022EC86C
:103808008E828F8312381022E0F8A3E0F922121773
:103818002E7F1002185F3400F50D850C82F5832287
:10382800E028FEA3E039FF8E828F83227916850A6D
:1038380082850B83122C6612070B74082274F2120D
:10384800178DEAFEEBFF890B7401650B600E74029D
:10385800650B7064790112090FE9705CEEFAEFFBF1
:103868001238C36048750A00800B7C177D00790008
:10387800120F99050A900371E0F8E50AC3985022DF
:10388800E50A75F017A4F8A9F0850882850983A3CD
:10389800A3E028FAA3E039FB8A828B8312353149E9
:1038A80070C885088285098374FFF0A3F07CA47D25
:1038B80003EEFAEFFB12072302372A1206F38A08EF
:1038C8008B09EA45092274F212178D8A088B09ECD4
:1038D800FEEDFF740E1217811230CE90118FE0F4B6
:1038E800603D7A097B00120FABEA4B60328A828B0B
:1038F8008374B1F0A3E4123540A312353EA3E50862
:10390800F0A3E50912392AEEF0A3EF12392AA3A38E
:10391800E50AF0A3E50BF090118FE0F9120FB7025A
:10392800372AF08A828B83A3A3A3A3A322C082C0D1
:10393800839061907404F0A37448F0A3E4F090615C
:10394800807440F09061BC7407F09061877469F0EE
:103958009061B67416F07900120A0B7902120A11F6
:10396800902078E493F46006E493F91209E7790566
:10397800120D65023D9BC082C083E9540FF9906126
:1039880085E0696012E5C654804449F5C6E59E5451
:103998007F644970F8E9F053C680E59E547F70FA59
:1039A800023D9B74F712178DE5A8FE53A87E1209F5
:1039B800F3C2BA539AFEC289759B00C2C21209F9B2
:1039C80075A91175B9051209FFD2BA439A01748015
:1039D8005E42A8024C9EC082C083906181E4F0A33D
:1039E800F0A3F0023D9B75E90075910075BF0002D8
:1039F8000122C082C083906181E4F0A374C0F0A367
:103A0800E480DFC082C08374F812171890049B12F8
:103A18004411E8497003023AC290049BE0544060A4
:103A2800237908851882851983AA82AB83120B191A
:103A3800851882851983AA82AB831207AD90049BEF
:103A4800E054BFF0E054806010790C7A387B08129B
:103A58000B1990049BE0547FF0E0A2E05008790035
:103A6800123ACA54FEF0E0540260087901123ACAC8
:103A780054FDF0E0540460087900123AD554FBF084
:103A8800E0540860087901123AD554F7F0E0541070
:103A980060087902123AD554EFF0E05420600879B2
:103AA80003123AD554DFF0A3E05401600D120A1D49
:103AB8001207BF90049CE054FEF0740812172E02FF
:103AC8003D9B120A0B1207B390049BE022120A11C5
:103AD8001207B990049BE022C082C083E9600514F4
:103AE800602A804F90619A7433F0A37455F0906106
:103AF800A0743AF0900814E064017009C29190042F
:103B08009D7467802D90049D7461802690619A74DD
:103B18003FF0A3745AF09061A0747FF0900814E00D
:103B280064017009D29190049D7471800590049D80
:103B3800746AF0023D9BC082C083E9600B14600D7B
:103B480014600F146011802090207C801590207DD7
:103B5800801090207E800B900814E0640160F39040
:103B6800207FE493906186F0023D9B74EE12178DDE
:103B780074F4121718851882851983AC82AD837581
:103B880083937582C7740412162B90207C93F4607B
:103B980003023D05907808E0C394025003023CE517
:103BA8007404121781AC82AD837583937582827415
:103BB8000812162BF97AFF7BFF7FFF7E008982852A
:103BC8008210801874086E7003023C9A74096E7033
:103BD80003023C9A740A6E7003023C9AE510C333E0
:103BE800FCE433FD7404121781E5822CF582E58329
:103BF8003DF583E0F50EA3E0F50F8E087509007416
:103C080002780812170574482508FC74783509FDF0
:103C18008C828D8378081215E874087808121503C9
:103C280085080C85090D8C828D8378081215E87437
:103C3800187808121503E50C4508F508E50DF5098F
:103C4800C3E50E9508E50F95098C828D83780812D7
:103C580015E88C828D8378081215E8741878084066
:103C680014121503E50C4508FCAD0DE50EC39CFCCC
:103C7800E50F9D800F121503E50C4508C3950EFC52
:103C8800E50D950FFDC3EC9AED9B5006ECFAEDFBA4
:103C9800EEFF0EEEC394135003023BCC74FF6A7020
:103CA8000374FF6B602D8F0874027808121705746F
:103CB8004812491F74783509F58378081215E88584
:103CC8001882851983E5822510F582E58312485DFF
:103CD800E508F009E9C394045003023BBD750801E7
:103CE80075090078081219A07402121781AC82AD08
:103CF800837A1F7B081211FD740212172E740C129E
:103D0800172E7F0A02185FC082C083906186E0F890
:103D180090207FE49368700990207EE493906186F8
:103D2800F09061AE7468F0A3746AF090624574FB19
:103D3800F0A304F053F4FD43FE029008147401F05C
:103D48009061A0E0643A7004790080027901120A57
:103D58000B023D9B7F0402185FC082C0839007F26C
:103D6800E0640170179007F8E0F87401686009E8EA
:103D7800700AA3E064017004790C8012900809E0CD
:103D88006401700890080FE0640160EC790080031A
:103D9800123EF8D083D0820201221244699406228E
:103DA800E0C4333354C022C082C0839007FC74251A
:103DB800F09007FA7401F0A3E4F07A01FB120CE129
:103DC8009007E8E02416123DFC7441F0A3740AF051
:103DD8009007F9E0640170169007F8E07010790117
:103DE800120D41120D11120D3B7900120D4D023DBD
:103DF8009BE02414F8A3E0123E03223400F98882E1
:103E080089832274F612178D74FA1217189007F125
:103E1800E064017008120A299007F1E4F075E1F1F5
:103E28009007E8E02415123DFC7401F09007F3E0D8
:103E3800640170539093A9C082851882851983AC58
:103E480082AD83758393D082740612162B75D90DB3
:103E58009007EA123DA84403F5D97800880874EB66
:103E680012491F7407123DA240F27800880885188D
:103E780082851983E58212491FE583123DA240EC31
:103E880075E195790180027900120CE79011B11261
:103E98003EFE74BBF0A3740BF0A3123EFE123EFE6E
:103EA80012405D74C1F0A3740B1240729007EAE0EF
:103EB800F97AEB7B07120CC39007FC123EF87901E4
:103EC800120CED9093CB121606120D059093E31287
:103ED8001606120CCF7900120D599007E8123DF919
:103EE8007416F09004997405F00412172E0244FA1F
:103EF800E0F9121F7B2274B5F0A3740BF0A32274AF
:103F0800F412178D8908A808124041900801E0F9B9
:103F18007A027B08120CC390080FE0701A7900121D
:103F28000D239007DBE0700B79007ADC7B07120C1D
:103F3800C98009790180F37901120D2375E1F175C2
:103F4800D923900801123DA84405F5D97800880ABC
:103F58007402250AF5827408123DA240F175D90051
:103F680075D90075D90075D90075D90075D9007A49
:103F7800001250CD242212438C40F67A001250CD04
:103F88002426F582E91245020AEAC3940340EEEEBC
:103F9800242B1244FF7A001250CD242C1243924055
:103FA800F67A001250CD242E12439240F67A00126F
:103FB80050CD243012439240F67A001250CD24326C
:103FC80012439240F67A008A0AEE250AF8EF12495F
:103FD8000D12439F940540EFEE2437124B5F541F98
:103FE800F8EE242A124B5FC43354E048F5D975E142
:103FF800959011B1748BF0A3740BF0A37491F0A396
:10400800740B1240547497F0A3740B12407290080A
:104018000E123EF89093CB121606120D059093E3FC
:10402800121606120CCF90600DE4F07901120D59AA
:104038009004997406F0023D5CE875F006A4C8AADD
:10404800F02AF974C928FE740439FF22F0A312403B
:104058005D12405D22124061227485F0A3740BF05A
:10406800A37485F0A3740BF0A32212407622F0907B
:1040780011BF124082A3124082221240617485F05F
:10408800A3740BF02274EC12178D9007FF124C15D5
:1040980078101215E8900810E0FAF875F006A4C830
:1040A800ACF02CF974F728F582740439F583E0FE36
:1040B800A3E0FFEEC333FEEF33FF8E0CF50D750E54
:1040C80000750F0085100885110985120A85130BE4
:1040D8009093B3780812154E780812199C85100829
:1040E80085110985120A85130B7808790C12153B7E
:1040F8007810790C121493E4F50EF50F7808790C02
:104108001215748A0C750D007403780C1217057853
:1041180008790C12153B9093D378081215AFAA08AA
:10412800AB09AC0AAD0B121F13740412172E8A08C0
:104138008B09A808A909C3EE98EF995006E82EF84C
:10414800E93FF9E890600EF0E9A3F0EEA3F0EFA3E1
:10415800F090600D74C1F07F0C02185FC082C083BC
:104168009007E81241849007FC023D98C082C08302
:104178009007FF12418490080E023D98124C19A333
:10418800A3A3A3E4F0A3F02202012274F212178D74
:104198001242DEF50AEF1246556004780480027870
:1041A80000E8240EF8EAC398500302423C75080C54
:1041B800900818E4F0EE2477124B5F900819F07914
:1041C80002EE2478FCEF3400FD7A1A7B08120B0704
:1041D8007902EE247A124241247C124241247EFC68
:1041E800EF3400FD120B07EE24751242F4850A82A3
:1041F800850B83E060167508187509087808121988
:10420800A07C0C12476912172E7508107401250836
:10421800F5D975D90378008009880A7418250A1217
:1042280042D3E8C3950840F175E1957904120D0B66
:10423800790180027900024908FCEF3400FD120B75
:10424800077902EE2274F212178D1242DEF508EF9A
:104258003400F509850882F583E06004780480025B
:104268007800E8240AF8EAC3984055750A089008C7
:10427800187401F079057CE27D077A197B08120B26
:1042880007EE24811242F4850882850983E06016CE
:1042980075081875090878081219A07C081247696A
:1042A80012172E750A0C12455C80031242CDE8C322
:1042B800950A40F775E1957904120D0B7901800292
:1042C8007900024908880874182508F582740812CC
:1042D8004B66F5D908221242E222EAFEEBFF906112
:1042E800D0E0F87480C398FAEE248322FCEF3400FF
:1042F800FD8E828F83A3A3A3A3A31244158C828D62
:1043080083E028F0A3E039F07902120B072274F653
:1043180012178DEAFEEBFF9061D0E0706275D91834
:1043280075D90375D9037A008A08EE25081250D288
:10433800249C1243B640F17A008A08EE25081250F0
:10434800D224A412439240F17A008A08EE2508127A
:1043580050D224941243B640F17A008A08EE250818
:104368001250D2248812438C40F175E1957908EEF9
:1043780024941243AF24881243A612448180027900
:10438800000244FA12439894042212439894022299
:10439800F582E93400F583E0F5D90AEAC322FAEF99
:1043A8003400FB120B0D221243A67904EE221243AD
:1043B8009894082274F612178DEAFEEBFF900818FD
:1043C80074061244741219A07C01790312476F1203
:1043D800172E75D90675D903780012445940FB7514
:1043E800E195900499E064087017EE2470F582EF67
:1043F80012440EEE2472F582EF12485DE8F0A3E94C
:10440800F079010244FA12491A12441522E0F8A37D
:10441800E0F92274F612178DEAFEEBFF9061D0E006
:10442800702A900818740A1244741219A07C017931
:104438000312476F12172E75D90675D90378001223
:10444800445940FB75E19512448680027900024484
:10445800FA880874182508F58274081244699405C6
:10446800223400F583E0F5D908E8C322F07508186E
:1044780075090878082275E1957904120D0BEE2468
:1044880070F582EF12491A124415EE2472F582EF84
:1044980012491AE8F0A3E9F079012274F612178D8F
:1044A800EAFEEBFF9061D0E0704379019008187440
:1044B8000BF0900499E064077017750818750908DF
:1044C80078081219A07C01090912476F12172E7972
:1044D80005740129F5D975D903780080031242CDF6
:1044E800E8C39940F875E195124486800279008006
:1044F80001F07F0202185FF582EF124B66F5D922B0
:1045080074F512178D12458B6004780480027800C8
:10451800E8240BF8EAC3984036750A09900818741D
:1045280008F0F912457460147508187509087808B8
:104538001219A012476712172E750A0D12455C80D2
:10454800031242CDE8C3950A40F712447E800279EF
:10455800000247D67401250AF5D975D903780022D7
:10456800EE241DF582EF12486FA3F022EE24E5FC3D
:10457800EF3400FD7A197B08120B0785088285093C
:1045880083E0221242E2F8EF124CE9F583E022744C
:10459800F312178D8A088B0912477AFAE5082483E3
:1045A800F50AEB1246556004780480027800E82486
:1045B80008F8EAC398500302464E750C069008188E
:1045C800740CF09004B6E0900819F07402C0E0F999
:1045D8007CB77D047A1A7B08120B07D0E0F97CB906
:1045E8007D04120B07850A82850B83E0601C750A1F
:1045F80018750B08780A1219A07C067903AA08AB6B
:104608000912476F12172E750C0A7401250CF5D97B
:1046180075D90378008009880A7418250A1242D3CC
:10462800E8C3950C40F175E1957904120D0BE50886
:104638002470F582E50912440EE5082472F582E536
:1046480009124498800279007F0502185F3400F54A
:104658000B850A82F583E02274F612178DEAFEEBC9
:10466800FF12477AFCEE2483F8EF12477560047A4C
:104678000480027A00EA2404FAECC39A405E7A02C3
:10468800900818EAF0EE24F7F582EF1246F0601968
:1046980075081875090878081219A07C027903EEC4
:1046A800FA12476F12172E7A0674012AF5D975D9AE
:1046B80003780080031242CDE8C39A40F875E1956B
:1046C800EE24741246E9EE24801246E91245687910
:1046D80004120D0BEE240D12448980027900024465
:1046E800FAF582EF12486F22124B66900819F0888B
:1046F800828983E02274F612178D12477AFEEA2423
:1047080083F8EB12477560047C0480027C00EC247B
:1047180004FCEEC39C40437C029008187407F0EA3E
:1047280024F8F582EB1246F060157508187509082B
:1047380078081219A0790312476F12172E7C067495
:10474800012CF5D975D903780080031242CDE8C34E
:104758009C40F875E1957901800279000244FA7C61
:10476800097903EEFAEFFB120B79740222123E0369
:10477800E0229061D0E0F87480C3982274F5121793
:104788008DE9FEA2AFE433F50AC2AF7F00EA246FD9
:10479800F8EB3400F980010F88828983E0FCEFC3CD
:1047A8009C50188F08EA2508FCEB3400FDEC246BBC
:1047B800F582ED124B626E70DE800DEA2CFAEB1278
:1047C8004AF2EE1246F604F0E50AA2E092AF7F0341
:1047D80002185F74F612178DA2AFE433FFC2AFEA76
:1047E800246FF8EB1250D4FCE9FD8C828D83E01421
:1047F800F07E00801E8E08EA2508F8EB1250D424BB
:104808006CF582E9124B62C0E0E8246B12485AD07A
:10481800E0F00E8C828D83E0F8EEC39840D7EA244E
:104828006EF582EB12485D74FF124861EFA2E092C8
:10483800AF0244FAC082C083E5A8F8C2AFEA246B8D
:10484800F582EB12485DE9124861E8A2E792AF02EF
:104858003D9BF582E912491A22F0EA246AF582EBB7
:1048680012486F22F582E93400F583E4F02274F2ED
:1048780012178D8C828D83A3A3A3A3E0541FF0EAA3
:104888002436124E1C8E828F83E4F0F50C850C8240
:1048980085820AEC250AF8ED124CE5F583E0C0E0C4
:1048A800EA250AF8EB12490DD0E0F0750D008508ED
:1048B80082850983E0F50A750B00E50D780A121662
:1048C800E6E50AA2E05027E50C33333354F8250D0A
:1048D800C0E08E828F83E0F8EA28F8EB1250D424E7
:1048E8003812485AD0E0F08E828F83E004F0050D2C
:1048F800E50DC3940840B7050CE50CC39405408D3D
:104908007F0602185F3400F9E8245D12491722F582
:1049180082E93400F583222508F5822274F61217FD
:104928008D9004C5E0640370077A007B000244FAA6
:104938007C00ECF875F006A4C8AAF02AF974CB2814
:10494800F582740439F583E06003024AD6124D5E9D
:10495800124B04E4F0E82404FAE93400FBEAFEEB25
:10496800FFEC8E828F83F0E82462124AE3246512FA
:104978004B13246812485A124B04A3A3E4F0A31261
:104988004BA8A3124B17240F124AE32435124AEB03
:10499800121606E8241812485A121612E8241C1295
:1049A8004AFF241D124B132480124AFF2474124A12
:1049B800FF246912485A7480F0E8246A124AFF24D6
:1049C8006F124AFF2467124AFF24ED124AFF24EEB1
:1049D800124AFF24EF124AFF24F0124AFF24F11270
:1049E8004B1324F3124B1324F6124AFF2483124A62
:1049F800FF24D3124AFF24D4124AEB121606E824E5
:104A0800D512485A121612909423121606E824D981
:104A180012485A121612E824DF124AFF24E1124AF9
:104A2800FF24DD124AFF24E2124AFF24E3124AFF60
:104A380024F9124B1324FB124B1324FD124B13249D
:104A4800FFF582E912456EFC8C08E82508FAE912A0
:104A58004AF274FFF00CECC3940440EC7C008C82A6
:104A6800AA8274E22AF5827407124B62C0E0E82A2F
:104A7800FAE93400FBEA245DF582EB12485DD0E0E8
:104A8800F00CECC3940540D67C008C82AA8274ADED
:104A98002AF5827404124B62C0E0E82AFAE934006D
:104AA800FBEA24E5F582EB12485DD0E0F00CECC39C
:104AB800940840D69004C5E004F0640170098E8221
:104AC8008F83E09004C7F0E8FAE9FB0249350CEC63
:104AD800C39403400302493102493A124917740149
:104AE800F0E82212486C909423223400FBEA246BED
:104AF800F582EB12491A2212486CE8227401124B13
:104B08000A22F088828983A3A3A322124917E4F01A
:104B1800A3F0E822C082C083EA2403F582EB124B9B
:104B2800626008E4F09004C6E014F09004C5E01454
:104B3800F070069004C774FFF08A828B83A3A3E405
:104B4800F09007E7E0700D9004C6E0640170057905
:104B580000120CD5023D9BF582EF124B6622340001
:104B6800F583E022C082C0837B00EBF875F006A4D1
:104B7800C8AAF02AF974C528F87404124D68A3A3CA
:104B8800A3A3A3E4124BA8F00BEBC3940340DB9060
:104B980004C5E4F0A3F0A374FFF075E1F1023D9BB6
:104BA800124B0AA3A3A32274F512178D750800757A
:104BB8000900750A00A80A1240418E828F83A3A3B8
:104BC800A3E0602DE5084509700AEEF8EFF98808BA
:104BD8008909801D850882850983124C151219B32D
:104BE800124C11121606121EB6740412172EE96022
:104BF800D9050AE50AC3940340BB85088285098361
:104C0800A3A3A3A3E0F90247D68E828F83124C197F
:104C180022E0F8A3E0F5838882A3A32274F7121791
:104C28008D78FF79FF7F00EFFC75F006A4CCAEF01D
:104C38002EFD74C92CFC74043DFD8C828D83A3A3C6
:104C4800A3E06040EC2474F582ED124B62FE74FF21
:104C580068700374FF69701574016E700BEC247A28
:104C6800F582ED12440E801CEC242E80F374016E44
:104C7800700AEC247A124CA3500A80E1EC242E121C
:104C88004CA340E40FEFC39403409CC3EA98EB990C
:104C98004004E8FAE9FB7F0102185FF582ED12494A
:104CA8001AC3E098A3E0992274F612178DEAFEEB76
:104CB800FF120AADEE2465F8EF124CE5124CF3EC46
:104CC8004D60109004C7125009850882850983E455
:104CD800F0A3F0EEFAEFFB120BFD0244FA124CE9D6
:104CE800223400F988088909888222F583E0FCA328
:104CF800E0FD2274F712178DEAFEEBFF8E828F8398
:104D0800A3A3A3A3E0FA7B0012082BEEFAEFFB1291
:104D18000AC5120BDF024C9EC082C0837B00EBF8F1
:104D280075F006A4C8AAF02AF9124D5EA3E0601A2D
:104D3800E8246FF582E9124B62600FE8246BF58274
:104D4800E9124B627004790180090BEBC3940340AC
:104D5800CD7900023D9B74C928F87404124D68226D
:104D680039F988828983A3A32274F612178D7800F3
:104D7800880874AD12491F74041246EC08E8C394FD
:104D88000840ED9004AD74010244F9C082C08374F8
:104D9800FC12171890942312160685188285198319
:104DA800121612120B13E9851882851983F0120B5B
:104DB800137401121781E9F0120B13740212178190
:104DC800E9F08518828519831216067404023AC41C
:104DD80074F612178DEA240D124E1CEC2403F8ED1C
:104DE8003400F988088909EC2407F8ED1250D4FC3E
:104DF800E9FD124E2612168D8E828F83E8F0A3E904
:104E0800F0124E2612168D8B09EA45096003124EE0
:104E1800390244FAF8EB3400F9E8FEE9FF228C8203
:104E28008D83124415850882850983E0FAA3E0FB87
:104E3800228E828F83E02401F0A3E03400F02274F4
:104E4800F612178DEA242EF582EB3400124CF3EAA1
:104E58002470124E1C780079FAECFAEDFB12168DCC
:104E68008E828F83E8F0A3E9F0780079FAECFAED06
:104E7800FB12168D8B09EA45096003124E3902446C
:104E8800FA74F012178DEAFEEBFF7410121781788E
:104E9800081215E8120C938A0C8B0D8C0E8D0F904E
:104EA80093BF780C12154E9093D3780C1215AF78E7
:104EB8000C12199C124C11121606121EB67404120A
:104EC800172EE96003024F6D8E828F83E02402F86B
:104ED800A3E01250D4FAE9FB8A828B837808121572
:104EE800619093D378081215E88A828B8378081228
:104EF80015C2EE240BF582EF12485DC082C0838E86
:104F0800828F83A3A3A3A3A3E02401F8A3E0340022
:104F1800F9D083D082E0687003A3E0697004790156
:104F28008045EE2407F8EF123E03124E3DEE24743E
:104F38001250D97014EE2475124F747003A3E06DEB
:104F480070078A828B83124E3DEE24801250D970EE
:104F580014EE2481124F747003A3E06D70078A82E7
:104F68008B83124E3D79007F0802185FFAEF3400F8
:104F7800FB8A828B83E0FCA3E0FD88828983E06C56
:104F88002274F312178D9004C7E0F8124042EE2401
:104F980004F50AEF3400F50BEE2465F508EF34004C
:104FA800F5098010124CF5850882850983E4F0A381
:104FB800F0125003850882850983124CF5EC4D6088
:104FC80030EE2464124B5FF50C780C1219A4EE2411
:104FD80063124B5FF9EEFAEFFB120AFB740112172A
:104FE8002EE985088285098360BA124411E8497060
:104FF800077C007D00125003024650850A82850B0B
:1050080083E0FA7B001207E32274F212178DEAFE9E
:10501800EBFF890A740E121781E0FAEE246212502F
:10502800D960030250C812477AF50CEE2483124B5C
:105038005FFB60047804800278008908E928F8E4B6
:105048001250D424020808E93400F9E50C98E499D0
:10505800A2D265D0334065EA7005750B02800375EE
:105068000B01EB603375090078081219A07A187BD8
:1050780008120B43740212172E7508187509087860
:10508800081219A0AC0AA90B12476B12172E740448
:10509800250AF50A7C187D087401250AF5D9850BBF
:1050A800D97800800A8808EC12491FED1242D7E827
:1050B800C3950A40F075E19579008006790780026A
:1050C80079FF0249088A0AEE250AF8EF3400F9E860
:1050D80022F582EF124B66640122C082C0838003EE
:1050E800125110E9F874FF28190470F4ECFAEDFB7A
:1050F800023D9BC082C0838003125110E9F874FFFF
:1051080028190470F4023D9B8C828D83E08A828B7F
:1051180083F08C828D83A3AC82AD838A828B83A338
:10512800AA82AB832274F412178DE9FF7E008A08E5
:105138008B0978081219E400040FFE52645180515B
:105148009551AA51BF51D451F05109521B5249529D
:105158006B528752A352C152FE52E25274016F70D1
:10516800128C828D83E0C394035008E09011D3F031
:1051780002531C7E1802531C74026F70F68C828DC9
:1051880083125B0D9011D4E8F0A3E980E274016FFB
:1051980070E18C828D83E0C3940250D7E0900DDEDD
:1051A80080CD74016F70CC8C828D83E0C3940550E0
:1051B800C2E0900DDF80B874016F70B78C828D8368
:1051C800E0C3940250ADE0900DE080A374106F70BE
:1051D800A27508108E0978081219A07AE17B0D12C1
:1051E8005EFA12172E02531C74016F70868C828D22
:1051F80083E0C39402400302517BE0900DF1025119
:105208007774016F600302517B8C828D83E090116B
:10521800D7808D74046F600302517B90940B7808DB
:105228001215E88D838C8278081213E4400302512A
:105238007B8C828D83121606900DF3121612025380
:105248001CEF600302517B12050DE9700E12118BE1
:10525800795012135F12117F02531C900E8674014D
:1052680002517774016F600302517B8C828D83E059
:10527800C39402400302517BE0900DF2025177740F
:10528800016F600302517B8C828D83E0C3940A40D6
:105298000302517BE09011D602517774016F6003CD
:1052A80002517B8C828D83E024F9C3940A40030267
:1052B800517BE09011D802517774016F600302515D
:1052C8007B900E85E0F88C828D83E0900E85F0E867
:1052D8007042E06401703D02525D74016F60030228
:1052E800517B8C828D83E0C39404400302517BE0A0
:1052F8009011D9025177C3EA9426EB9400501374A5
:10530800026F700E8C828D83125B181203F3E9FE14
:1053180080020E0EEEF9025326740E12172E7F0429
:1053280002185F74F212178D74DA121718890AECD2
:10533800FEEDFF7434121781E0F50B74201217810B
:10534800AC82AD837583937582A3740612162B7491
:1053580020121781AC82AD83121125E9F508C39498
:105368000A400302547E121167E9F5099011D3E04F
:105378006402700474018001E4F50C780C1219A41D
:10538800AD0BAC09A908EEFAEFFB1211B5740112C6
:10539800172E7C147D007900740C121781AA82AB39
:1053A80083120F9975F006E508A4F50B740C121713
:1053B80081AC82AD837A107424250B125FAF7038EC
:1053C8007C1079FF740C121781125CB0702A741C5F
:1053D800121781AC82AD837A047425250BF9121358
:1053E80059740C121781AC82AD83E509A2E0E4334D
:1053F800F9EEFAEFFB120489851882851983AC82CD
:10540800AD837A0C74702508125FAF7055851882C9
:10541800851983AA82AB8312115B750800E50875AC
:10542800F003A4F8A9F0851882851983E58228F885
:10543800E583125CEC125B18EC4D601D8882898351
:10544800A3A3E0F50C750D00780C1219A0EEFAEF85
:10545800FB120717740212172E0508E508C39404F7
:1054680040BBE509A2E15046900DDDE0F9EEFAEF08
:10547800FB12071D80387408650B70329011D3E059
:105488006402702A7C007D00A90AEEFAEFFB121173
:10549800AF1254BD6018125B1E88828983E582456D
:1054A80083600B7C007900EEFAEFFB12178B790012
:1054B800742602633F900DF7E0F8A3E0F9E849226B
:1054C80074F012178DEAFEEBFF8C088D09750A0A35
:1054D800E9600C14600914602E14607F02556E1286
:1054E8001173E9F50AC3940A507CE508450960760A
:1054F800750E06750F00780E1219A0EEFCEFFD125E
:105508005EF612172E805F750B00750E06750F007C
:10551800780E1219A0EEFCEFFDE50B75F00EA4F85D
:10552800A9F074FF28FA740D39FB120F9374021254
:10553800172EE9601B850B0AE50AC3940A5027E574
:105548000845096021AA08AB09A90A12116D80163D
:10555800050BE50BC3940A500D80AF121179E9F5DC
:105568000AC3940A40D9A90A7F0802185F74F41282
:10557800178D890875091574FF6A700374FF6B70BD
:10558800277E00AC087A027B00EEF9121149E96027
:10559800037509000EEEC3940A40E8E50860497AED
:1055A800A37B1112092180401209038A0A8B0BAED2
:1055B8000AAF0BEE4F602E7C007D00EE2405FAEF5B
:1055C8003400FB8E828F8312566C500CAC087A0222
:1055D8007B00121149750900E508600CEEFAEFFB33
:1055E8001211A38003750914A90902532674F21233
:1055F800178DECFEEDFF740E121781125B0575080E
:105608001574FF6A700374FF6B7021750900AC0A8A
:10561800AD0BEEFAEFFBA90912114FE9600375080B
:10562800000509E509C3940A503580E21209038A86
:10563800828B83E582458360237C007D00E582249C
:1056480005FAE5833400FB12566C5013AC0AAD0B17
:10565800EEFAEFFB12114F7508008003750814A9C4
:1056680008026342A3A3A3A3125AEFC3940A22C059
:1056780082C083900DF7EAF0A3EBF0900DDDE0FC1B
:105688007D007A257B001203F3900DDDE0F9120608
:1056980099D083D08202012274EC12178D8A088B6C
:1056A80009E9FE7414121781780C1215E87F00EED0
:1056B800702E78081219A090940B78101215E878BB
:1056C8000C7910121493AA10AB11AC12AD1312047A
:1056D8009B740212172EE9FF60097901AA08AB0929
:1056E800120495EFF97F0C02185F74EA12178D7493
:1056F800EC121718EAFEEBFFEE240CF514EF340059
:10570800F5158E828F83A3858212858313EE240A72
:10571800F510EF3400F511EE2403F508EF3400F529
:10572800098E828F83A3A3E024FA7003025AC72448
:10573800FD70030259EA1470030257DE1460101456
:105748007003025A1C24FE700302596A025AE5EEDD
:105758002409F50AEF3400F50B1254BD604AE0F550
:10576800838882125B0D880C890DE8450D603985A8
:105778001482851583E0F50E780E1219A4EE240B19
:10578800F582EF3400F583E0F9850A82850B8312F0
:105798005B180A0A0AAB09850C82850D8312178BE0
:1057A800740112172E025AE5850A82850B83121995
:1057B800B7900DF312160612049B740212172EE905
:1057C8007003025AE57901850A82850B8312634DBD
:1057D800120495025AE5851282851383E06003025C
:1057E800593DEE2405F50CEF3400F50D850C82F5D6
:1057F80083E0A2E0400302593D7C0E7D00790085DC
:105808001882851983AA82AB83120F99EE2408F5B2
:105818000AEF3400F50B850A82F5831254C060192B
:10582800750E06750F00780E1219A0850A82850B71
:1058380083E02410FCA3E0801A125AF6EA4B7003A6
:10584800025AE5750E06750F00780E1219A0EA24A3
:1058580005FCEB3400FD7402121781AA82AB831297
:105868005EFA12172E850C82850D83E0A2E25004A1
:10587800D2F08002C2F0A2F0E433F8740C1217815F
:10588800E048F08510828511831254C06015851098
:1058980082851183E02410F8A3E03400F988828916
:1058A8008380039093F7780C1215E8851082851190
:1058B800831254C0600F851082851183E0F510A310
:1058C800E0F5118006751000751100850A82850BB8
:1058D800831254C0600B850A82850B83125B058096
:1058E80006750A00750B00780C12199C78101219AD
:1058F800A0780A1219A08514828515831219B78E0B
:10590800828F83A3125B13740A121781AA82AB8356
:10591800121161740A12172E850882850983125B99
:105928000D900E87E8F0A3E9F07A017B00900DDD79
:10593800E0F9120FDB1254BD7003025AE5125B1E28
:10594800E8FEE9FFEE4F7003025AE58512828513DF
:1059580083E0FC79011263478E828F8312178B02D2
:105968005AE5851282851383E06406704C125AF654
:105978008A0A8B0BEA450B60409011D9E014600845
:1059880014602814601880317C007D008A828B8323
:10599800A3A3A3A3E0F91263471211AF801B7C00F5
:1059A8007D0079007A097B04121119126347850A70
:1059B80082850B83E0F91204831254BD7003025AE6
:1059C800E5125B1E890BE8450B7003025AE58E82CF
:1059D8008F83A3E0FC79021263478882850B8302D8
:1059E80059647C007D00EE2404FAEF3400FB85083E
:1059F80082850983125AEFF8C3940A4003025AE5D4
:105A0800AC10AD117A0475F006E8A42425F9121338
:105A180053025AE5850882850983E0F508A3E0F575
:105A280009740E121781AC82AD83758393758297C2
:105A3800740612162BAA08AB091209038A0A8B0BE3
:105A4800A80AA90BE8497003025AE59011D3E0644B
:105A5800027003025AE5E82404FEE93400FF740EDC
:105A6800121781AC82AD83E82405FAE93400FB8E75
:105A7800828F83125AEFF50AC3940A501C750B01E2
:105A8800780B1219A4121167E9FC7408FDA90AAA77
:105A980008AB091211B50257A89011D3E070097923
:105AA80005AA08AB090257D8640170317C007D0053
:105AB8008E828F83E0F9AA08AB091211AF801E12FB
:105AC800050DE97018900E86E06401700812118BBC
:105AD800900E86E4F0795012135F12117F7414123D
:105AE800172E7F0E02185FE0F9121125E9228508AA
:105AF80082850983E0FAA3E0FB12090322E0F50A94
:105B0800A3E0F50B22E0F8A3E0F922A3A3A3A3A343
:105B1800E0FCA3E0FD22E0F5838882A3A3E0F8A3DC
