:020000040000FA
:0600000002010A02240EB9
:03002B0002285553
:0300330002286E32
:0300530002248400
:03007B0002281246
:100083000222FFE5C754F84401F5C77901220000B5
:100093000080FB120086B900030200F4E4792178A2
:1000A3000FB800028004F709D8FCE479307802B86D
:1000B30000028004F709D8FCE490028178B0790E3D
:1000C3008002F0A3D8FCD9FA901030AA82AB8390B7
:1000D300013A784579028015E493A3AC82AD838A13
:1000E300828B83F0A3AA82AB838C828D83D8E9D9D8
:1000F300E77582557583A3740412011C758291758B
:100103008300740012011C75D00075813F7518813E
:10011300751902759F00020096C09FF59FE473D086
:100123009F22D083D082C09FE493C0E0740193C028
:10013300E0740293F59F220A041C0446041004FF92
:100143000000B4000028002800283075A000A0009B
:10015300A000A00000080008E001F000100010005B
:10016300100010001000100050005000500010004C
:100173001000D0070000000000000F000100050080
:10018300307507001000010081FF0000FF0202022A
:1001930008025000A0000000E80302CC9301000015
:1001A300B09302C693010000861002C293010000BF
:1001B300B10202C693010000871002C09301000040
:1001C300C70202C693010000881002BE930100001B
:1001D300C90202C693010000891002BC9308000003
:1001E300CA0202C6930100008A1002BA93010000FA
:1001F3008B10FFFF0100FF2002CC93010000B3939B
:1002030002C693010000F01002B893000000000042
:1002130002C493030000AB03CC0ECC0ECC0ECC0E69
:10022300CC0ECC0ECC0ECC0ECC0ECC0ECC0ECC0EFB
:10023300CC0E421160113C11FFFF01E803053F1092
:1002430002FF00FEFF0003300031003200330034B0
:1002530000350036003700380039003000310032F5
:10026300003300340035003600370038003900A66B
:1002730019FB19FB19FB19FB19031A120125139C0E
:1002830004120125299C04120125569C0412012500
:10029300869C041201259D9C04120125BE9C041218
:1002A3000125EF9C04120125409D04120125579D51
:1002B30004120125409704120125579704120125C2
:1002C300869704120125BF9704120125E7970412AC
:1002D30001251598041201252C9804120125439831
:1002E300041201255998041201258098041201254E
:1002F300939804120125A99804120125D198041298
:1003030001255ED5021201255DD60212012587D68D
:1003130002120125DCD602120125FDD602120125A7
:1003230016D70212012518D70212012539D7021256
:1003330001253CD802120125F9D802120125C6D99C
:10034300021201252ADA02120125C1DA021201255D
:10035300C4DA021201254ADB021201258DDB0212E7
:100363000125DFDB02120125E2DB0212012519DC84
:100373000212012540DC02120125D6DC02120125FE
:100383005FDD02120125A8DD02120125B5DD02128F
:100393000125B8DD0212012516DE021201252EDE2B
:1003A30002120125A8DE02120125ABDE021201258D
:1003B300CEDE02120125D1DE0212012578DF021200
:1003C30001259BDF02120125B3DF02120125E3DFC2
:1003D30002120125F0DF02120125F3DF02120125CB
:1003E3005FE0021201254DE10212012503E2021230
:1003F3000125378A03120125128B03120125408B35
:1004030003120125C08B03120125E08B0312012582
:100413001E8C03120125718C03120125D98C031242
:1004230001256A8D03120125358E0312012544919E
:1004330003120125B09203120125D3920312012561
:1004430027F803120125B8F90312012509FA03124B
:10045300012568FA0312012576FA031201259FFA92
:100463000312012519D90312012541D903120125CC
:100473006FD903120125A6D9031201250EDA03123F
:10048300012557DA03120125A2DA03120125E0DA66
:10049300031201251DDB031201254BDB031201258A
:1004A300F2DB03120125FCDB0312012509DC031235
:1004B30001253CDC03120125FEDC031201250ADDC4
:1004C3000312012522DD031201252CDD0312012570
:1004D300AADD0312012574A00412012582A00412CF
:1004E30001259AA004120125B2A004120125CAA075
:1004F300041201259BAC0212012539AD021201251C
:10050300B1AD02120125C6AE0212012500AF0212DF
:100513000125A9AF021201257EB002120125E2B125
:100523000212012539B202120125C0B202120125BD
:10053300A7B302120125F4B30212012582B40212F9
:100543000125A6B4021201257BB602120125BCB611
:1005530002120125DEB602120125A3B702120125FC
:1005630069B8021201259EBA02120125A8F00312EE
:100573000125BEF003120125E4F0031201250CF25C
:100583000312012516F2031201256FF3031201254D
:100593006FF403120125F3D30312012528D50312A7
:1005A30001255BD503120125A5D50312012563D7C8
:1005B3000312012566E701120125E4E70112012573
:1005C300F4E701120125D7E801120125E1E8011240
:1005D30001250FE9011201251AE901120125F3E9A9
:1005E3000112012555EA01120125F1EA0112012543
:1005F300F5EC01120125ACEE0112012528EF0112E1
:10060300012505F00112012533F301120125D1F370
:10061300011201252EF501120125A1F60112012572
:100623004AF70112012593F701120125CAF70112B6
:1006330001256FF801120125EDF8011201251B8F29
:1006430002120125708F02120125B59002120125B5
:10065300C59002120125E89002120125339102127E
:100663000125D89102120125CE92021201259893F9
:10067300021201251095021201255295021201253D
:10068300F095021201251696021201250498021212
:100693000125099802120125EA99021201253E9AC1
:1006A30002120125A09A02120125C89A02120125FD
:1006B3006C9B021201252E9C021201255F9C0212E3
:1006C3000125629C02120125AA9C02120125EC9CC1
:1006D30002120125539D02120125389104120125AE
:1006E3004B91041201255491041201256D910412BA
:1006F3000125B89104120125939204120125229336
:10070300041201256D9304120125D59301120125CD
:10071300E593011201254894011201258D940112DC
:1007230001253D95011201251696011201253F96DB
:10073300011201256F9601120125839801120125EB
:100743005F9A011201253F9C01120125779D011239
:100753000125F09F01120125DCA00112012522A22F
:10076300011201252FA30112012571A301120125F5
:10077300A9A301120125C3A3011201252BA4011270
:100783000125C5A80112012566A901120125BAA9EF
:1007930001120125E1A9011201251FAA0112012558
:1007A3003EAA0112012592AA011201259AAB011258
:1007B300012523AC01120125166E00120125206EBE
:1007C30000120125BC6E00120125836F0012012562
:1007D300956F00120125CD6F0012012512700012D2
:1007E30001253E70001201257C7000120125C570A1
:1007F30000120125ED70001201255271001201252E
:100803000972001201251F72001201255B7200128A
:100813000125817200120125C07200120125F372B5
:10082300001201252B73001201254A7300120125C2
:10083300737300120125F073001201250574001271
:1008430001251A74001201252F7400120125687402
:1008530000120125A27400120125C674001201259D
:100863008F7500120125A57500120125C4750012AC
:100873000125D77500120125EC75001201250176BB
:10088300001201257776001201258B7600120125CF
:10089300DF7600120125EE76001201253D77001266
:1008A3000125777700120125A87700120125D47757
:1008B3000012012502780012012535780012012566
:1008C3004A78001201255F7800120125A0780012F2
:1008D3000125EA78001201255A79001201259C7935
:1008E30000120125C77900120125087A001201259B
:1008F300337A001201255E7A00120125CC7A0012A8
:100903000125F67A00120125377B00120125667B4B
:1009130000120125957B00120125BF7B00120125E2
:10092300E97B00120125137C00120125507C001283
:100933000125797C00120125A47C00120125CE7CBF
:1009430000120125F97C00120125247D00120125E6
:100953004D7D00120125A47D00120125097E0012A0
:100963000125527E001201257C7E00120125A17E05
:1009730000120125257F0012012560FB02120125CB
:100983009CFB0212012566FC02120125B9FC02122E
:1009930001259CFD0212012512FE0212012554FEBF
:1009A3000212012581FF0212012500800212012596
:1009B3002980021201254280021201258781021239
:1009C3000125658202120125848202120125118309
:1009D300021201255483021201258C84021201257F
:1009E300F88402120125EE86021201257C89021287
:1009F30001250F8A02120125E38A02120125868B43
:100A030002120125708C02120125DC8D02120125D0
:100A1300728E02120125DD8E021201256E9D0412D3
:100A23000125D79D041201252B9E041201255A9EF0
:100A33000412012511E8031201257EE803120125A2
:100A4300C9E803120125BEE903120125BAEA03121C
:100A53000125A4EB031201252BCD0312012572CD31
:100A6300031201254BCE0312012546CF03120125A4
:100A730025D00312012591D003120125ADD1031214
:100A8300012514D20312012517D20312012542D2E4
:100A930003120125B3D20312012556D303120125F4
:100AA3006BD303120125B3D303120125CCD3031255
:100AB3000125CFD303120125B7FB03120125F3FB55
:100AC3000312012531FC03120125FBFC031201254E
:100AD3006EFD03120125A9FD03120125E7FD031293
:100AE300012517FE031201253EFE03120125A9FE6F
:100AF30003120125EBFE0312012520290012012513
:100B03000E2B001201259A2D001201256C2E0012C6
:100B13000125AF2E00120125F82E001201250A2F00
:100B2300001201254A2F001201258B2F00120125E7
:100B33009A2F00120125C92F00120125153000122A
:100B430001254D3000120125A43000120125C730C4
:100B530000120125FB30001201251E310012012570
:100B6300B13100120125DF31001201255832001284
:100B73000125A93200120125353300120125FD3567
:100B830000120125FA36001201255D3700120125F6
:100B9300D93700120125B13900120125ED390012B0
:100BA3000125083B00120125393B00120125803B3A
:100BB300001201257D3C00120125503E0012012543
:100BC300B53E00120125FC3E00120125D64300125A
:100BD30001250744001201254544001201253A4628
:100BE300001201252A4700120125C94800120125D8
:100BF300FE4800120125704900120125484A0012DF
:100C03000125794A00120125A34A00120125CD4A84
:100C130000120125024B00120125274B001201256A
:100C2300464B00120125734B00120125DA4B0012CB
:100C33000125654C00120125A94C00120125CB4C5E
:100C430000120125F94D00120125264E001201253F
:100C5300844E00120125A94E00120125934F001264
:100C63000125AA4F00120125555000120125E0501D
:100C7300001201250B5100120125098C04120125D4
:100C83007B8C04120125D18C04120125158D0412CD
:100C93000125358D04120125828D04120125CA8D8B
:100CA300041201251D8E041201256E8E04120125E6
:100CB300CA9D03120125E79D0312012581A3031297
:100CC300012583A403120125FDA503120125ABA66B
:100CD300031201255251001201259B5100120125D7
:100CE300C85100120125FB51001201250B520012BD
:100CF3000125175200120125285200120125FD5229
:100D0300001201255B5300120125905300120125A7
:100D1300C75300120125635500120125B055001277
:100D23000125FF5500120125695600120125FB56C6
:100D330000120125A1570012012526580012012592
:100D4300A85800120125F25800120125225A001258
:100D530001257D5B00120125545C00120125795C9D
:100D630000120125BE5C00120125CE5C0012012594
:100D7300EA5C00120125ED5C00120125A75D00125B
:100D83000125705E00120125005F001201259C5FA2
:100D930000120125C15F0012012520600012012508
:100DA300AF60001201250461001201252D610012BC
:100DB30001258D61001201251B6200120125E462E9
:100DC3000012012581630012012508640012012528
:100DD3005F6400120125C06400120125FA64001249
:100DE3000125A36500120125F16500120125E167C4
:100DF30000120125316800120125816800120125C6
:100E0300F66800120125806900120125CB690012E2
:100E13000125F06900120125416A001201256A6A61
:100E230000120125AF6A001201251E6B0012012575
:100E3300606B00120125606C00120125FA6C001230
:100E43000125CB6D00120125E46D001201250B94E1
:100E5300031201255E94031201256A9403120125EE
:100E63003F9503120125669503120125A1950312EF
:100E730001250D96031201253196031201255F9674
:100E830003120125989603120125B096031201253A
:100E93000997031201252297031201256B97031269
:100EA30001257E9703120125989703120125AE971A
:100EB30003120125CA9803120125DB9903120125A8
:100EC300289B031201250D9C03120125F9FF021231
:100ED30001253CE303120125AEE603120125C6E713
:100EE300031201253CC8021201252FCE021201254F
:100EF30035CE02120125B5D0021201253BDE0312C5
:100F03000125E6DE0312012596DF03120125BBDF6F
:100F130003120125B2E10312012505E303120125A2
:100F230016C1011201254AC1011201254FCB01123D
:100F330001259BCC01120125B8CD0112012542CF19
:100F43000112012524D0011201255ED001120125D1
:100F530081D001120125C3D001120125CCD0011289
:100F6300012516D10112012520D101120125CCD171
:100F730001120125A0D201120125F4D2011201258B
:100F830056D301120125A9D301120125D8D3011289
:100F9300012517D40112012516D50112012570DD93
:100FA3000112012576DD0112012531E3011201252C
:100FB30017E701120125008004120125768004122F
:100FC30001258C8004120125C980041201250181A9
:100FD300041201257E8104120125B9810412012521
:100FE30034820412012570820412012579820412CD
:100FF30001258582041201259F8204120125C482E2
:1010030004120125DA82041201251E83041201252C
:101013003EB70312012551B7031201256BB7031223
:10102300012594B703120125D7B70312012516B87A
:101033000312012554B803120125B9B8031201257F
:10104300CEB803120125D9B803120125E6B803125D
:101053000125FDB8031201250BB9031201251AB9A5
:10106300031201252FB90312012544B903120125E7
:101073004FB9031201255BB90312012568B90312A5
:1010830001257BB90312012586B903120125ABB9EA
:1010930003120125B0B9031201254CBA031201252D
:1010A300B2BA03120125C2BA03120125D7BA031239
:1010B3000125ECBA0312012506BB0312012521BB4E
:1010C300031201253EBB0312012549BB031201256F
:1010D30005BC03120125F1BC031201250DBD03124A
:1010E300012524BD031201252EBD0312012542BD96
:1010F3000312012563BD03120125C4BD031201259B
:10110300CABD03120125D0BD03120125D6BD0312AA
:101113000125DCBD0312012503BE031201253EBEDA
:101123000312012557BE0312012597BE03120125A1
:10113300CABE031201250080031201252C8003126D
:101143000125108103120125AA8303120125C084FE
:1011530003120125DD850312012580860312012573
:10116300268703120125B2BA0212012534BB0212EB
:101173000125DDBB0212012525BD0212012533BF66
:101183000212012519C0021201254EC002120125C7
:1011930070C00212012519C102120125E9C202120F
:1011A300012512C3021201258AC302120125BCC301
:1011B30002120125C9C30212012514C4021201251A
:1011C30038C40212012589C60212012593C70212EF
:1011D3000125EFC7021201251D9E021201252E9F34
:1011E3000212012512A0021201251CA002120125E0
:1011F3003EA0021201254AA002120125EEA102120D
:1012030001251BA20212012531A30212012586A387
:1012130002120125D5A402120125AAA50212012555
:1012230006A60212012571A602120125A6A6021224
:101233000125E9A602120125B3A902120125CBA9B2
:10124300021201255CAA021201256AAA02120125D3
:10125300B7AA02120125C5AA0212012531AB021257
:101263000125ACAB0212012503AC021201258795BF
:1012730004120125AC9504120125229604120125BE
:101283003CC60312012545C6031201254EC60312AF
:10129300012526C703120125D7C80312012507C953
:1012A3000312012532C90312012562C90312012564
:1012B3008DC903120125C1C903120125EDC903120A
:1012C300012530CA031201255BCA03120125A2CAF4
:1012D30003120125F7CA0312012539CB0312012595
:1012E30093CB03120125BECB031201250DCC0312B0
:1012F30001253DCC0312012568CC031201258BCCBB
:10130300031201252BEF0212012561EF02120125C1
:10131300A4EF02120125AFEF02120125BAEF021268
:101323000125C5EF0212012501F302120125D6F3AF
:101333000212012550F402120125C7F402120125FD
:10134300D4F402120125E1F402120125EBF4021296
:101353000125F5F40212012511F50212012521F5EB
:101363000212012563F5021201259CF502120125E3
:10137300A6F502120125B0F502120125BAF50212F3
:101383000125C7F502120125D1F502120125DBF56E
:1013930002120125E5F502120125EFF502120125DE
:1013A30039F60212012556F60212012573F60212CE
:1013B300012583F6021201258DF602120125E8F6B6
:1013C30002120125F5F602120125B9F702120125D1
:1013D300C3F702120125CDF702120125D7F7021236
:1013E3000125F4F70212012511F802120125D5F89F
:1013F30002120125DEF802120125EAF80212012584
:101403000FF9021201251CF90212012525F9021216
:1014130001254CF90212012573F9021201257FF906
:101423000212012589F90212012599F902120125F7
:10143300B2F902120125BCF902120125CCF90212FC
:101443000125DCF902120125E6F902120125F6F95C
:101453000212012506FA0212012525FA02120125BC
:1014630032FA021201253FFA021201254FFA021243
:1014730001255FFA021201256FFA02120125A1FA72
:1014830002120125ABFA02120125BBFA0212012551
:10149300CBFA02120125D8FA0212012501FB02122E
:1014A30001250BFB0212012518FB0212012522FB69
:1014B3000212012532FB021201253CFB0212012517
:1014C30046FB0212012556FB02120125CDA603128B
:1014D3000125D7A60312012518A70312012561A729
:1014E300031201259BA703120125F1A7031201256E
:1014F30012A803120125C1AA03120125CAAA0312C5
:1015030001251EAB0312012547AB0312012551AB85
:10151300031201255BAB03120125C9AB031201259D
:1015230059AC03120125B4AC03120125E2AC03123A
:1015330001256AAD03120125A9AD03120125DEAD14
:1015430003120125F0AD031201250FAE031201258D
:1015530018AE03120125DAAE031201257D9F041292
:101563000125979304120125CC93041201250094BD
:10157300041201254D9504120125EBA20412012545
:1015830001A3041201250BA30412012566EC031227
:10159300012579EC031201253DED031201257CEDB4
:1015A3000312012599ED03120125D2ED0312012542
:1015B3001FEE0312012551EE0312012588EE0312DB
:1015C30001259BF003120125A0FF011201257B9A3F
:1015D300041201259E9A04120125CD9A04120125B5
:1015E300659B041201257D9B04120125BF9B0412F8
:1015F3000125A1F901120125E3F90112012563FA7D
:101603000112012576FA01120125CBFA01120125F7
:101613001FFB0112012564FB0112012573FB01125B
:10162300012522FC011201257DFC01120125CCFCC0
:101633000112012526FD0112012533FE01120125A8
:101643002BFF0112012568FF011201257CA2041260
:1016530001258AAC0112012588AE0112012525B0AE
:1016630001120125D2B00112012552B10112012547
:10167300D4B101120125FDB10112012536B60112C3
:101683000125ADB601120125C4B701120125FEB72C
:10169300011201253FB80112012586B90112012566
:1016A300B5B9011201250BBA0112012554BA011271
:1016B3000125C0BA0112012534BB0112012562BB09
:1016C300011201257ABB0112012593BC01120125E8
:1016D300A3BC011201255EBE0112012575BE0112D4
:1016E3000125A7BE0112012544C001120125D8C05E
:1016F300011201259AA404120125F3A30412012562
:1017030032A404120125ABA40412012533FF0312F2
:10171300012543FF031201255BFF03120125C3FFCC
:10172300031201257B9E04120125009F041201254B
:10173300649F041201254D7F00120125507F001282
:101743000125897F00120125DA7F0012012579F432
:10175300031201258DF40312012507F50312012558
:10176300EBF503120125C2F7031201255B8904126D
:101773000125FB8904120125428A041201258E8A60
:10178300041201254D8B04120125748B04120125CB
:10179300A08B04120125B38B04120125C88B0412FC
:1017A3000125D18B04120125EC7F00120125EF7F67
:1017B30000120125F17F00120125F37F001201259C
:1017C300FA7F00120125E3980412012535990412CA
:1017D3000125A89904120125159A0412012583866F
:1017E30004120125AD86041201257C87041201250C
:1017F300588804120125E9880412012508AF031251
:101803000125D4AF0312012515B0031201254FB0F2
:1018130003120125ADB00312012501B10312012505
:101823005FB103120125F5B103120125FDB20312C5
:10183300012587B40312012525B5031201258CB5B3
:10184300031201259FB50312012593B60312012547
:10185300DCB6031201257BE20212012597E3021293
:10186300012574E40212012533E602120125CDE6B7
:1018730002120125E3E60212012532E902120125D3
:1018830035E90212012538E9021201255EEA021246
:10189300012506EB0212012588EB02120125CCEB90
:1018A30002120125E6EB021201256EEC021201255C
:1018B300C5EC02120125FEEC02120125FAA1041265
:1018C30001252AA2041201255FA20412012561A2A7
:1018D3000412012563A20412012574A20412012536
:1018E30076A20412012579A204120125B68E0412F0
:1018F3000125288F041201254A8F04120125828FA6
:1019030004120125B88F041201254E830412012508
:10191300918304120125AF8304120125E585041286
:1019230001251D8604120125418604120125A8A361
:101933000412012547BF0312012520C0031201250C
:101943000BC1031201251CC1031201252DC1031272
:10195300012577C10312012503C30312012564C4C2
:101963000312012594C40312012562C50312012544
:10197300C2C50312012563A104120125D4A10412D7
:101983000125DFA104120125EFA104120125CDFFDA
:10199300031201253CA40412012572A4041201259B
:1019A300DBFF0212010002020000205104AA160903
:1019B3000001020301090243000201008019090426
:1019C30000000102020100052400100104240202A8
:1019D30005240600010524010001070582034000D8
:1019E3004009040100020A000000070584024000C8
:1019F3000107050402400001C1190000E4190000B9
:101A0300E066701008A3E066700A08A3E06670043D
:101A130008A3E06622C3E7960809E7960809E79654
:101A23000809E79622C3E09608A3E09608A3E09688
:101A330008A3E09622C008C3E096F50808A3E09641
:101A4300420808A3E096420808A3E09645087001FF
:101A5300D3D00822BB0102E722C082C08389828AD5
:101A630083BB0003E08002E493D083D08222BB00D7
:101A73000EC082C0838A838982F0D083D08222BB46
:101A83000101F722080808EAC0E0EBC0E086F0E7AE
:101A9300A4FA180986F0E7A42AFA180986F0E7A43D
:101AA3002AFA180986F0E7A42AFA1986F0E7A4FBB4
:101AB300E5F02AFA190886F0E7A42BFBE5F03AFAD9
:101AC300190886F0E7A42BFBE5F03AFA1818098603
:101AD300F0E7A4C5F02BFBE43AFA1908E7C5F0C612
:101AE300A426F6E5F03BFBE43AFA1886F0E7A4F601
:101AF300E5F00826F6E43B08F6E43A08F6D0E0FB06
:101B0300D0E0FA22E4CFC0E0E4CEC0E0E4CDC0E010
:101B1300E4CCC0E075F020C3E633F608E633F608FC
:101B2300E633F608E633F6181818EC33FCED33FD0C
:101B3300EE33FEEF33FFC3EC9709ED9709EE9709F8
:101B4300EF97191919400FFFEC97FC09ED97FD0961
:101B5300EE97FE191906D5F0BEECF709EDF709EE7D
:101B6300F709EFF7191919D0E0FCD0E0FDD0E0FE3A
:101B7300D0E0FF226016080808C6C313C618C613B0
:101B8300C618C613C618C613C6D5E0EA22700908DC
:101B93000808226016181818C6C333C608C633C609
:101BA30008C633C608C633C6D5E0EA22E627F608D8
:101BB30009E637F60809E637F60809E637F622E0BC
:101BC30026F608A3E036F608A3E036F608A3E036C7
:101BD300F622E026F008A3E036F008A3E036F0088A
:101BE300A3E036F022C3E697F60809E697F608095C
:101BF300E697F60809E697F622C3E096F008A3E015
:101C030096F008A3E096F008A3E096F022E657F6D4
:101C13000809E657F60809E657F60809E657F622D3
:101C2300E056F608A3E056F608A3E056F608A3E04C
:101C330056F622E056F008A3E056F008A3E056F06B
:101C430008A3E056F022E046F008A3E046F008A31C
:101C5300E046F008A3E046F022E066F608A3E0665B
:101C6300F608A3E066F608A3E066F622E0F608A30A
:101C7300E0F608A3E0F608A3E0F622E6F008A3E600
:101C8300F008A3E6F008A3E6F022E0FAA3E0FBA342
:101C9300E0FCA3E0FD22EAF0A3EBF0A3ECF0A3ED5C
:101CA300F022CAC0E0E6F0A308DAFAD0E0FA22CACA
:101CB300C0E0E0A3C582CCC582C583CDC583F0A3B4
:101CC300C582CCC582C583CDC583DAE6D0E0CA22FE
:101CD300C3E498F8E499F9121D148026C3E49AFA30
:101CE300E49BFBE920E7E9121D14E498F8E499F971
:101CF30022C3E498F8E499F9121D14E498F8E499DE
:101D0300F9C3E49AFAE49BFB22EB20E7CFE920E74F
:101D1300E0B90010BB0008E88AF084F8AAF022E4D6
:101D2300FBC8FA22EB70227B10C833C8C933C9330E
:101D33005007C39AC3DBF280069A50012ADBEAC834
:101D430033F4C8C933F4C9FA2275F008E4C833C8B8
:101D5300C933C933C99AC99B5004C92AC93BD5F0B1
:101D6300ECFBC833F4C8E4C9FA22600D08C6A2E745
:101D730013C618C613C6D5E0F322600C08C6C313F6
:101D8300C618C613C6D5E0F422700422600D18C627
:101D9300C333C608C633C6D5E0F41822251810AFDE
:101DA30008F518400215198008F51840021519D2D4
:101DB300AF22C0D0251810AF08F5185002051980BE
:101DC30008F51850020519D2AFD0D0222518F58294
:101DD30010AF08F518400215198008F518400215D0
:101DE30019D2AF85198322C5822518C582C58335CB
:101DF3001910AF07F5198582188007F51985821820
:101E0300D2AFC583222518F582E43519F58322E480
:101E1300732518C582C0E0E51934FFC583C0E0E52A
:101E230018C3958224F810AF08858319858218801A
:101E330008858319858218D2AFCEF0A3E520F0A3DD
:101E43007808E608F0A3DEFAEFF0A3E58124FAF8B8
:101E5300E608F0A3E608F0A3E608F0A30808E608FE
:101E6300F0A3E608F0A315811581D0E0FED0E0F8D9
:101E7300158115811581E8C0E0EEC0E0222518C563
:101E830082C0E0E51934FFC583C0E0E518C395823D
:101E930024F910AF08858319858218800885831972
:101EA300858218D2AFCEF0A3E520F0A37808E60828
:101EB300F0A3DEFAEFF0A3E58124FBF8E608F0A334
:101EC300E608F0A30808E608F0A3E608F0A31581E6
:101ED3001581D0E0FED0E0F815811581E8C0E0EE71
:101EE300C0E022851983851882E0A3FEE0A3F520D4
:101EF3007808E0A3F608DFFAE0A3FFE0A3C0E0E080
:101F0300A3C0E0E0A3C0E0E0A3C0E0E0A3C0E01012
:101F1300AF088582188583198008858218858319FF
:101F2300D2AFD083D082020122851983851882E043
:101F3300A3FEE0A3F5207808E0A3F608DFFAE0A308
:101F4300FFE0A3C0E0E0A3C0E0E0A3C0E0E0A3C0E3
:101F5300E010AF088582188583198008858218856B
:101F63008319D2AFD083D08222C0D02518C582C0B6
:101F7300E0E51934FFC583C0E0E518C3958224F377
:101F830010AF088583198582188008858319858297
:101F930018D2AFC8F0A3E9F0A3EAF0A3EBF0A3795A
:101FA30008E709F0A3D8FAECF0A3EDF0A3EEF0A351
:101FB300EFF0A3D0E0F0A3D0E0F0A3D0E0F0A3E5EE
:101FC30020F0A3E5F0F0A322851983851882E0C0F1
:101FD300E0A3E0F9A3E0FAA3E0FBA37808E0F608A6
:101FE300A3DFFAE0FCA3E0FDA3E0FEA3E0FFA3E090
:101FF300C0E0A3E0C0E0A3E0F5D0A3E0F520A3E0B8
:10200300A3F5F010AF0885831985821880088583AE
:1020130019858218D2AFD082D083D0E0F8D0E032D5
:102023007404800A74038006740280027401C0E0A1
:10203300F404121DCFD0E0121CA52274048008748E
:1020430003800474028000CCC0E0EDC0E0E518C357
:102053009CCCAD1950011D10AF068C188D1980064C
:102063008C188D19D2AF121CB2D0E0FDD0E0FC2247
:10207300D083D082E9C0E0E493A3C386F0C5F09592
:10208300F0F908E493A386F0C5F095F0700BE493A0
:10209300A3C3994005E9048002A3E475F002A425D3
:1020A30082F582E5F03583F583D0E0F9E493A3C0AC
:1020B300E0E493C0E022D083D082ECC0E0EDC0E046
:1020C300E493A3FCE493A3FDED4C600D122105EC16
:1020D30024FFFCED34FFFD80EFE493A3FCE493A322
:1020E300FDED4C600D122144EC24FFFCED34FFFDAB
:1020F30080EFD0E0FDD0E0FCE493A3C0E0E493C024
:10210300E022C0E0C3E49396087401939618400F4D
:10211300E49366700808740193661870007019A33D
:10212300A3C3E49396087401939618A3A3400DD018
:10213300E0D0E0D0E00220F5A3A3A3A3A3A3D0E0C3
:1021430022C0E0C0F088F0E493667008087401933D
:1021530066187000A8F0A3A3700BD0F0D0E0D0E015
:0C216300D0E00220F5A3A3D0F0D0E022D1
:1021700074F5121E80EAFEEBFFEE2434F8EF340013
:10218000F988088909EE24351222A8F8EE243712BE
:1021900022A8F50AEC850AF0A4FCAAF0850AF0ED65
:1021A000A42AFDE82CF8E43DF97A257B00121D14E1
:1021B000EA850882850983F05407F87401B80002A3
:1021C0008004C333D8FCC0E0E0131313541FF8EEAF
:1021D00028F8EF3400F9E8245DF582E93400F5834E
:1021E000D0E0F8E0586008850882850983801DEEFC
:1021F00024361222A8F5F0EA84A8F0EE28F8EF348D
:1022000000F9E82438F582E93400F583E0F97F0429
:10221000021F2C74F5121E80EAFEEBFFEE2434122E
:1022200022A8C0E0EE2435F582EF3400F583D0E03B
:10223000F08E828F83A3A3A3A3A3E0FAA3E0FB8E77
:10224000828F83A3A3A3A3A3A3A3E0FCA3E0FDEC3D
:10225000C39AF50AED9BF50BEE2480F508EF3400E8
:10226000F509850882F583E06401702BEE2481F581
:1022700082EF3400F5831220461222B17402121D3F
:10228000B5E960137CE97D07EEFAEFFB120DDC8502
:102290000882850983E4F0AC0AAD0BEEFAEFFB127D
:1022A000217012280402220EF582EF3400F583E03B
:1022B00022C082C083851882851983E0F8A3E0F9E3
:1022C000C3EA9CEB9D5012C3EC98ED994019C3EA08
:1022D00098EB99501279018010C3EA98EB9940F578
:1022E000C3EC98ED9950EE7900D083D08222EAC3F6
:1022F0009CFAEB9DFB2200008521878522C622C027
:10230000E074EF121F6C759B00906182E0A2E640C2
:10231000030223C0E591A2E640030223C07591BFEA
:102320009004A0E064057008120FE6120FF280031B
:10233000120FEC75210012106AE99004A1F07900E7
:1023400012104C120CF87A017B0090049FE0F912F5
:102350001532907803E06442600302240990087506
:10236000E014F06003022409C2AF12236D0078313B
:10237000D0E0F618D0E0F6E59F5407F97005909389
:10238000A1800390939D7808121C6FE9C4C0E07887
:1023900030E65508F50808E65509F509740B780884
:1023A000121D7DD0E02508F8906270E0A2E740F8A9
:1023B000E8C333906272F0906270E0D2E0F080493E
:1023C000E0A2E55024E591A2E5501E7591DF90044E
:1023D000A0E0640D70139004C2E004F06428700261
:1023E000E4F07A00E0F912112A906181E0A2E35052
:1023F00009E5E9A2E3500375E9F7A3E0A2E7500974
:10240000E591A2E7500375917F7F04021FCBC0E0E6
:10241000C0D0C082C083906183E0A2E05009E5BFD4
:10242000A2E0500375BFFEE0A2E15009E5BFA2E1C2
:10243000500375BFFDE0A2E25009E5BFA2E25003E0
:1024400075BFFBE0A2E35009E5BFA2E3500375BFEF
:10245000F7E0A2E45009E5BFA2E4500375BFEFE046
:10246000A2E55009E5BFA2E5500375BFDFE0A2E693
:102470005009E5BFA2E6500375BFBFD083D082D01C
:10248000D0D0E032C0E074F2121F6CE5A7A2E45095
:102490000FE5A1A2E4500953A7EF75A1EF1224D8CC
:1024A000E5A7A2E5500CE5A1A2E5500653A7DF750C
:1024B000A1DFE5A7A2E15009E5A1A2E1500375A1C2
:1024C000FDE5A7A2E2500CE5A1A2E2500653A7FB4E
:1024D00075A1FB7F01021FCB74F8121E80752101CC
:1024E0009004A0E0640670077A007B00120FCEA271
:1024F000AFE433FED2AF9004A6E0640170187A20F6
:102500007B0090049FE0F91215B07A207B009004C4
:102510009FE0F9121538906182E0D2E6F0900874DD
:10252000E0602185C62280169004A5E06401700851
:10253000E5C654F84405F5C653BEFC1222F87401F2
:10254000652160E4EEA2E092AF7F01021F2C000043
:102550008E238F2485822885832785188285198379
:10256000E0CEA3E0CF852882852783EBC9EAC8EDBA
:10257000CBECCA75F010C3E833C8E933C9EA33CAF3
:10258000EB33CBC3EA9EF526EB9FF525B35004ABA6
:1025900025AA26EC33CCED33CDD5F0DAAE23AF242B
:1025A0002274F1121E808A088B098C0A8D0B740F1D
:1025B000121E08780C121C6F9093557808121C2379
:1025C000909355780C121C237808790C121A185025
:1025D000157808790C121BE890937D7808121A3848
:1025E000401579018013780C7908121BE890937DCF
:1025F000780C121A3840EB79007F08021F2C74ED1A
:10260000121E808A088B098C0A8D0B7413121E0807
:10261000780C121C6F9093557808121C23909355D8
:10262000780C121C23780C7908121A1840117808BB
:10263000790C121BE8AA08AB09AC0AAD0B80227515
:1026400010007511007512007513017810790C12C5
:102650001BE878107908121BAFAA10AB11AC12ADB1
:10266000137F0C021F2C9093557808121C6F8A82DE
:102670008B837808121C367F04021F2C74F5121EFF
:10268000808C828D837808121C6F8A828B837808F5
:10269000121BFC1226D0C3E098F0A3E0991226C2C8
:1026A000401E9093097808121C6F8A828B837808E9
:1026B000121BD58E828F83E02420F0A3E0344EF0ED
:1026C00080A4F08E828F83C3E09420A3E0944E22F6
:1026D000EA2404F8EB3400F9E8FEE9FF8C828D83EC
:1026E000A3A3A3A3E0F8A3E0F98E828F832274F55D
:1026F000121E80E9FE900800E0FAA3E0FBEEC3336F
:10270000F8E433F9749928F582749139F583E02A55
:10271000F508A3E03BF509780812202B90930D12E1
:102720001C8D1225507402121DB58A088B098C0A63
:102730008D0B74107808121B77AA08AB097F04026E
:102740001F2C74F1121E808A0C8B0D8C0E8D0F7451
:102750000F121E08E0FAA3E0FB7411121E08E0F548
:1027600008A3E0F5097413121E08E0FEA3E0FF7849
:102770000812202BEA2401F508EB3400F509E4F5F2
:102780000AF50B780C7908121A879093757808125D
:102790001C6F780C7908121A87AA0CAB0DAC0EAD21
:1027A0000F1225507402121DB58B09EA4509600409
:1027B0007A0180027A00EC2AFCED3400FDECF8EDA1
:1027C000F97A717B02121D1488088909E4F50AF56B
:1027D0000B8E828F837808121C7EECF8EDF97A71EB
:1027E0007B02121D148A088B0974057808121D8C4F
:1027F0008E828F83A3A3A3A3E508F0A3E509F07F4E
:1028000008021F2CC082C083E9906000F0D083D002
:102810008222C0E074F2121F6CA2AFE433FED2AF8A
:10282000E58AA2E25007900F30E0D2E0F0E58AA2FC
:10283000E35007900F30E0D2E1F0758A00C2EB7AE6
:10284000107B00900F2CE0F9121532EEA2E092AF4F
:102850007F01021FCBC0E0C0D0E8C0E0E5A8D2AF46
:10286000C2C7A2E792AFD0E0F8D0D0D0E032C0E04B
:1028700074F1121F6CE59DA2E650FA906206E0FA30
:10288000A2E25035A82EE890620BF0F508852F09DA
:1028900074047808121D7DE508906207F0852E0803
:1028A000852F0974097808121D7DE508543E906251
:1028B00009F0906201E0D2E0F0782BEA46F69062EF
:1028C00002E0F50875090074047808121D8C782B55
:1028D000E50846F608E50946F6906204E0F5087555
:1028E000090074097808121D8C782CE50946F6EA6F
:1028F000A2E05003752D0174065A6003752D00E5A2
:102900008BA2E55006758BDF752D001218E6758BCE
:1029100000C2E87F02021FCBFFFFFFFFFFFFFFFFA8
:1029200074F4121E14E990049FF0121010907800B5
:10293000E0C4540F540764037004793F8002797F28
:10294000750806750900780812202B7C8D7D047AA5
:10295000EA7B071217247402121DB590048DE0F46F
:102960007049A3E0F47044A3E0F4703FA3E0F47076
:102970003AA3E0F47035A3E0F4703090780EE09064
:10298000048DF090780FE090048EF0907810E09035
:10299000048FF0907811E0900490F0907812E0901D
:1029A0000491F0907813E0900492F0900493122B2D
:1029B00005124DC29004BD7406F0A3740D12374A7F
:1029C0007432F0A37401F09007F4122B059007F312
:1029D000E4F09007FAF0A374A012374A7403F0A34E
:1029E000740712374A742812374A04F0A3E4F090AF
:1029F0000823F0900849122B05900848E4F090084D
:102A00004F0412374A122AF3E4F0A304F0A312375A
:102A10004A123748F0900860122B0590085FE4F0E6
:102A200090086604F0A3E4122AF3123748F0A37466
:102A300005F090087074FFF0A3E4F0900872F09035
:102A4000087404F0120D10120B06120FB679017AF9
:102A5000757B08120E5A900875E075F01484E5F045
:102A600004F0790C7A967B08120E5A120E7E7A00C8
:102A700090049FE0F9121586907803E06442705E3E
:102A8000900875E014F07056C2AF122A8D007831AC
:102A9000D0E0F618D0E0F6E59F5407F97005909362
:102AA000A1800390939D7808121C6FE9C4C0E07860
:102AB00030E65508F50808E65509F509740B78085D
:102AC000121D7DD0E02508F8906270E0A2E740F882
:102AD000E8C333906272F0906270E0D2E0F090044C
:102AE000CAE4F0A3F07A80FB90049FE0F91215325B
:102AF000023AF6122AFC122AFCF0A322F0A37480F8
:102B0000F0A374022274FF122E63F0A3F02274F675
:102B1000121E14EAFEEBFFEEA2E050439004A1E087
:102B2000C39480E0500FC333F8E433F9741128F5EF
:102B3000827411800EF4C333F8E433F9741F28F55E
:102B400082741139F583124397121E127A00900491
:102B50009FE0F9121586EE6401FAEFFB022D2A546C
:102B600008604590086E122D8275080078081220C2
:102B70002F122D58121D7D780812202BEA243012B6
:102B80002D2D122046122D6912202B7508E3750990
:102B900007780812202B9007E2E0FD7C00122D4000
:102BA000121DB5EE640880B1EE5410603E75080049
:102BB000780812202FE4F509780812202B780812E3
:102BC000202B780812202B7508E375090778081266
:102BD000202B9007E2E0FD7C007A007B0079021256
:102BE0002D52121DB5EE6410022B59EE54026036C0
:102BF000750800780812202FE4F509780812202BB8
:102C0000780812202B780812202B7508E375090725
:102C1000780812202B122D34793C122D52121DB53A
:102C2000EE6402022B59EE5404604E9004CE122D35
:102C300082EA242AF582EB124389F50878081220EB
:102C40002F122D58121D7D780812202BEA242012F5
:102C50002D2D122046122D6912202B7508E37509BF
:102C600007780812202B9007E2E0FD7C01122D402E
:102C7000121DB5EE6404022B59EE544060367508FF
:102C800000780812202FE4F509780812202B780824
:102C900012202B780812202B7508E3750907780895
:102CA00012202B122D34793B122D52121DB5EE64D9
:102CB00040022B59EE5480602279001215809093C7
:102CC0006912203E7A007B0190049FE0F91215A45E
:102CD0007404121DB5EE6480022B59EF5401600D8F
:102CE0007901121580EEFAEF6401022B5B9004A6C5
:102CF000E064017031EE5420602C9004A0E024F9CF
:102D0000600314701B793F9004CEE0FA75F006A4BE
:102D1000CAA8F028FB74D02AFA74043BFB120E0CEC
:102D2000EE6420022B597A007B00023B72F582EBA5
:102D30001246FF229007E2E0FD7C017A007B002230
:102D40008A828B83A3A3A3A3E0FA7B007900122DD0
:102D500052221209E6740922EA2432F582EB124665
:102D6000FF1243777404780822EA242EF582EB12CE
:102D700048B7F508A3E0C313F509E50813F508788B
:102D80000822E0F875F006A4C8AAF0122D8F222AB6
:102D9000F974D028FA740439FB22C082C083C2AF10
:102DA000120FECE5E170FC75E1011237CF1210282B
:102DB00079071210E279011210E87902121052120A
:102DC00010881210C479001210D679011210D69012
:102DD000935D121C8D12103A9007E2E4122B07A3A8
:102DE000F09007FAF0A3F0A3F09007FE7407F090BC
:102DF00007FD7403F0900803E4F0900802F09008D7
:102E000023F0900850F0900867F0120DF4120F2094
:102E1000120E1879001210EE9007E974FF122E635B
:102E2000741FF0906012E4F0A3F0906063F07521DD
:102E3000009004A0F09004A2F0A3F09007EEF090B0
:102E400007EF04F09007F0E4F09004A5F09004A6DA
:102E500004F09004BC7403F0900873E4F0D2AFF96E
:102E6000024A72F0A3F0A3F0A3F0A322C082C083B1
:102E700090048DE08A828B83123C778A828B83A3B5
:102E8000123C718A828B83A3A3123C6B8A828B8350
:102E9000A3A3A3123C658A828B83A3A3A3A3F09070
:102EA0000492E08A828B83A3A3A3A3A3024A6FC0E8
:102EB00082C0838A828B83E0900493122EE5E09097
:102EC0000494122EE5A3E0900495122EE5A3A3E04E
:102ED000900496122EEAE0900497122EEAA3E09056
:102EE0000498024A6F122EF2A322122EF2A3A3A379
:102EF000A322F08A828B8322C082C083120D1CE938
:102F000070051210887900024A7274F7121E14EAD2
:102F1000FEEBFF8908120D1CE9702CE508600A74AD
:102F2000016508600A7912801E7C00790080047CAB
:102F3000007901EEFAEFFB121094E9F8740368705F
:102F400004790780027900023B3474F7121E14EAF8
:102F5000FEEBFF8908120D1CE9702DE508600A746C
:102F600001650860087912801F790080027901EEFE
:102F7000FAEFFB12109AE9F87404687004791F8064
:102F80000774056860F77900023B3474F7121E1469
:102F9000EAFEEBFF12108E023B2C74F6121E147424
:102FA0000A121E08124AFC600AEC4D6006E508454C
:102FB0000970047912800F780812202B120E727497
:102FC00002121DB57900023B7274F4121E14EAFE5F
:102FD000EBFF89089004A0E064096014E0640A60D3
:102FE0000FE0640B600AE0640C6005E0640D70049F
:102FF000790C801E120F4A8B0BEA450B700BA90847
:10300000EEFAEFFB120E5A80099004A2E04440F061
:10301000790D023AF674F4121E14EAFEEBFF890BE6
:10302000EE4F6003E970047912801F750A00120EDA
:1030300054850A08EE2508F582EF122D30E9F005D7
:103040000AE50AC3950B40E67900023AF674F712D6
:103050001E148A828B83E04433F0A3A882A983E004
:103060004433122EF2E0D2E6F0EA2403FCEB340003
:10307000FD8C828D83E0D2E4F0EA240212319D447B
:10308000C0124DBD4403124DB6440F122EF2E0445F
:103090008C124DACE044CC124DBD440C124DB644E4
:1030A00030023B31C082C0837C008C82A8827900D0
:1030B0001248ACC0E0EA28122D2DD0E0F00CECC391
:1030C000940840E6024A7274F7121E147409121E24
:1030D0000812399E9004BDE08A828B83F09004BE72
:1030E000123E028C828D83123E4A9004C0123E0230
:1030F00088828983EAF0A3EB023B31C082C083E976
:10310000F8740168700B9008737401F07900024A3A
:1031100072E87006900873E480F1791280F074F719
:10312000121E141248997058EEF8EFF9E875F0067F
:10313000A4C8AAF02AFA75F006E9A4122D8F8A8293
:103140008B83A3A3A3E0700479028034EA24ED12F8
:1031500031A8702FEA24F3122D2D122046EA24F113
:10316000122D2D122046EA24F0F582EB124389FC41
:10317000EEFAEFFB79001209FE7404121DB5790016
:10318000023B34EA24EE12319D700E790C120DCA06
:103190008E828F837401F080E5793A80E3FEEB3410
:1031A00000FF8E828F83E022F582EB1248B7640124
:1031B0002274F7121E14ECFEEDFFEE4F700479122C
:1031C000801AEA600514600B80F4123B1E700B79C4
:1031D0003080098E828F837404F07900023B34744E
:1031E000F5121E14890AEAFEEBFF8908AA087B0083
:1031F00012489D7032A80A12323E245DF582E9120F
:1032000043898E828F83F0E8245E12322CF0E8240A
:103210005F12322CA3F0E82460123252F0E82461ED
:10322000123252A3F079007F03021EE612323022DE
:10323000F582E93400F583E08E828F83A322E8755E
:10324000F006A4C8AAF02AF974D028F8740439F951
:10325000E822123230A3A32274F6121E14EAFEEB07
:10326000FF8C088D099004A0E0640C700590618EBD
:10327000801212489D702F12503B74392EF58274C3
:10328000053FF583E0F9748069700A850882850935
:1032900083747F800E9004A4E0F8E9C398850882C7
:1032A000850983F07900023B7274F7121E14EAFE5E
:1032B000EBFF8908740565086028741365086022AF
:1032C00074146508601C741565086016741A650826
:1032D000601074296508600A743B650860047912FF
:1032E000804012489D703B123EF7241DF8EB3400DD
:1032F000F9EA24F7FCEB3400FDEA246A1231A870E5
:1033000019EA246BF582EB12438964027004793A5E
:103310008010123325120DD68006123325120DCAE5
:103320007900023B348C828D83E508124DB0E4F0C5
:10333000A3F079022274E8121E1474FE121D9FE994
:10334000851882851983F08A0C8B0D8C0A8D0B747D
:103350001A121E08E0F508EC450B601685188285E8
:103360001983E0C3941C500AE508600B74016508DA
:10337000600579120235EA12489D60030235EAA819
:103380000CE875F006A4C8AAF02AFA75F006E50D57
:10339000A42AF974D028FE740439FFEE2465F510D0
:1033A000EF3400F5118510821235F44970C4A2AFD4
:1033B000E433C0E07401121E08D0E0F0C2AF120F77
:1033C0004A8A148B158A828B83E0F87440686017F0
:1033D00074806860030235B09004CEE0650C700222
:1033E000E50D60030235B01210048A0C8B0D12102B
:1033F00004EA650C7003EB650D70030235B01250E2
:10340000C6E5142402F516E5153400F51790932946
:10341000780C121BC2780C12202385168285178324
:10342000121C8D124A16121DB5E9640160030235A3
:10343000B0E508F509780912202F7401121E08E082
:10344000F9AC0AAD0BEEFAEFFB120E3C7401121D43
:10345000B5E960030235B09007EFE0640160030254
:1034600035A2EE241DF582EF34001235F4497003C5
:103470000235A21250C6EE242EF508EF3400F509ED
:10348000850882F583E0F510A3E0F511E4F512F567
:1034900013780C7910121BAF909359780C121BC241
:1034A000780C122023851682851783121C8D124AF0
:1034B00016121DB5E9640160030235A2E514240863
:1034C000F50AE5153400F50B850A82F58312203ED6
:1034D000AA0CAB0DAC0EAD0F124A10121DB585082B
:1034E000828509831220461225507402121DB58A66
:1034F0000C8B0D8C0E8D0F7410780C121B778E8236
:103500008F83A3A3A3A3A3A3A3A3A312399E8E82F5
:103510008F83A3A3A3A3A31243CAE8250CF8E9351C
:103520000DF98E828F83A3A3A3A3A3A3A31243CADF
:10353000850A82850B83C082C083850882850983C2
:10354000123E1C780C7908121A87D083D082780C2E
:10355000121BC2909355780C121C23851682851776
:1035600083E50CF0A3E50DF0A3E50EF0A3E50FF065
:10357000851482851583A3A3A3A3A3A3E4F0A3F0DA
:10358000EE2435124386C0E0EE2434F582EF122D8E
:1035900030D0E0F0EEFAEFFB122213AA14AB1512B2
:1035A0000F2C7401121E08E0A2E092AF7900803A5D
:1035B000851082851183E50AF0A3E50BF08518825A
:1035C000851983E0C0E0EE2463F582EF122D30D040
:1035D000E0F0EE2464F582EF122D30E508F074017E
:1035E000121E08E0A2E092AF79077402121DB57FA7
:1035F00010021EE6F583E0F8A3E0F9E82274F51264
:103600001E14E9FEEAFF8B0AEEC394285033EFC381
:103610009426502DEB602F7401650A6029740265B1
:103620000A60237403650A601D7404650A601774D8
:1036300005650A60117406650A600B7407650A6007
:103640000579120236F79004A0E060057921023670
:10365000F7124C2B121C8D12373E9004BCE0F9126D
:103660000D0474022FF5D9850AD98FD9E50A6017A0
:1036700014602014602A14606814603114603B14D4
:10368000604514604F80BA7800E8C39F5053124CD5
:103690003D80F67800E8C39F504775D90F0880F544
:1036A0007800E8C39F503A75D9550880F57800E84E
:1036B000C39F502D75D9FF0880F57800E8C39F504F
:1036C0002075D9000880F57800E8C39F501375D99C
:1036D000F00880F57800800475D9AA08E8C39F40F7
:1036E000F775E195EE9004C2F0EFA3F0E50AA3129E
:1036F00037507409124C4E02322774F7121E14E927
:10370000FEC394284004791280319004A0E0600444
:1037100079218027124C3779001211189093511299
:103720001C8D12373EEE9004C212374A74FF1237D6
:1037300050740AF079181210DC7900023B34121030
:103740007C7A00EE124C21227425F0A3E4F0A3222F
:10375000F0A3E4122E637480F09004A02274F61299
:103760001E149004A0E064096009E0640A60047912
:10377000218059E5E170FC75E101E0640970147A7B
:10378000C57B0412111E79051210F479007A007BB2
:1037900000802DE0640A702B7508C975090478084B
:1037A00012202B7CC77D047AC57B0412112474027D
:1037B000121DB579051210F479019004C5123E026C
:1037C000120A161237CF9004A0E4F0F9023B7212ED
:1037D0000CE0120CD475E1F12274F3121E14EAFE0F
:1037E000EBFF8908740D121E08E0F509740E121E15
:1037F00008E0F50A740F121E0812399E7411121E89
:1038000008E0F50B7412121E08E0F50CE5086038AC
:103810007401650860227403650860067402650817
:103820007068EE2460FAEF12398D505EEC2460FA75
:10383000ED12398D40268052E849604EE50A601C41
:103840007401650A70448014EE24E0FAEF123982A4
:103850005038EC24E0FAED123982502EC3EC9EED84
:103860009F4027E509600674016509701DE50C603D
:10387000127401650C600C7402650C6006740365BB
:103880000C70077407550BFA7005791202397D9098
:1038900007FAE064017005790C02397DE5089007AC
:1038A000FDF0EAA3F0E50CA3F0E5099007F370271B
:1038B000E4F090048DE09007F4123C779007F51245
:1038C0003C719007F6123C6B9007F7123C6590072D
:1038D000F8F0900492802E7401F0900493E0900729
:1038E000F4F0900494E09007F5F0900495E09007D0
:1038F000F6F0900496E09007F7F0900497E09007B8
:10390000F8F0900498E09007F9F074016508703CB5
:10391000E50A9007E2124DACE09007E31239A4E00B
:103920009007E41239A4A3E09007E51239A4A3A3F9
:10393000E09007E61239A9E09007E71239A9A3E061
:103940009007E8F09007FBE4F0A3802EE50C7004EC
:103950007900801C7401650C700479018012740276
:10396000650C7004790280087403650C7005790396
:103970001210A09007FBEEF0A3EFF079007F050294
:103980001EE634FFFBC3EA94E1EB943F2234FFFBD5
:10399000C3EA9461EB943F22851882851983E0F88D
:1039A000A3E0F922124DB0A322124DB0A3A3A3A30A
:1039B0002274F6121E14E9FEC3942040047912808A
:1039C00029EE900803F0601AEA4B60F1123B77127F
:1039D000202BEAFCEBFD7A047B081214D27402124D
:1039E0001DB59008027401F07900023B7274F41264
:1039F0001E14E9FE9004A0E064096014E0640A600B
:103A00000FE0640B600AE0640C6005E0640D700573
:103A10007921023AF69007FDE0F8600F74016860C2
:103A20000A740368600574026870239007F3E0F974
:103A3000600574016970177403686005740268702A
:103A4000129007FBC3E094A0A3E094005005791204
:103A5000023AF6EE60651470F59007FAE0640160D2
:103A6000AFE860057401687008120F56E954FD70E4
:103A70009F7901120F3E9007F1123E4A9007FA74A7
:103A800001F09004A0E0706C123DEB90934D78082B
:103A9000121BC29093557808121C239007F1123E16
:103AA00008121C7E9007F1123E3E120D22E96006BC
:103AB000123AFB023A10120F2680399007FAE07092
:103AC00003023A10A2AFE433FFC2AF123AFB120F67
:103AD00062E9701B123DF7E5E170FC75E10175913B
:103AE000BF75E1F19004A6E064017003123E25EF7A
:103AF000A2E092AF79007F04021EE67AF17B071202
:103B00000F449007FAE4F02274F7121E14EAFEEB59
:103B1000FF123B1E70047930800279008016120D6E
:103B20000AE9F88E828F83F074806822E98E828F92
:103B300083F079007F01021EE674F6121E14E9FE7E
:103B4000C39420400479128029EE900823F0601A73
:103B5000EA4B60F1123B7712202BEAFCEBFD7A2452
:103B60007B081214D27402121DB59008027401F081
:103B700079007F02021EE6E0F50875090078082248
:103B800074F7121E14E9FE7409121E08E0FF740A8D
:103B9000121E08E0F508EE600574016E7028EF60F3
:103BA0000574016F7020123DE2501BEC24FCF8ED0F
:103BB000123DE75011C3EA9CEB9D400AE508600BFB
:103BC0007401650860057912023C62900850E06457
:103BD000017005790C023C62EEA3F0E508900856EE
:103BE000F0EF9008487027E4F090048DE0900849C9
:103BF000123C7790084A123C7190084B123C6B9033
:103C0000084C123C6590084DF0900492802E74018F
:103C1000F0900493E0900849F0900494E090084AF2
:103C2000F0900495E090084BF0900496E090084CDA
:103C3000F0900497E090084DF0900498E090084EC2
:103C4000F0900852123E4AA3ECF0A3EDF0E50870A4
:103C5000047900800874016508700579011210A6C6
:103C60007900023B34F0900491E022F0900490E05F
:103C700022F090048FE022F090048EE02274F4127F
:103C80001E14E9FEEAFF9004A0E064096014E064F9
:103C90000A600FE0640B600AE0640C6005E0640DEC
:103CA00070057921023DDF900851E0F8600574014C
:103CB00068703A900848E0F86005740168702E90CA
:103CC0000852123E02123DE25023A31235F624FCA4
:103CD000FCE934FFFDC3EC94FDED943F500FC3EAC3
:103CE00098EB994008EF600A74016F600579120241
:103CF0003DDFEE607C1470F5900850E0640160A236
:103D00007902120F3E900846123E4A900850740104
:103D1000F090084FF0EF900857F09004A0E0600397
:103D2000023DDD120D46123DEB9093497808121BBF
:103D3000C29093557808121C23900846123E081230
:103D40001C7E900846123E3E90084612438DC0826B
:103D5000C083900854123E1CD083D0827808121B76
:103D6000C2900846123E0E7808121C7E120F268062
:103D70006C900850E07003023CA2A2AFE433F50857
:103D8000C2AF7A467B08120F44900850E4F0120F3D
:103D900062E97020123DF7E5E170FC75E101759173
:103DA000BF79011210E875E1F19004A6E06401709A
:103DB00003123E25E508A2E092AF900856E0F874A1
:103DC000016870051210C48014A3E06401700EE84D
:103DD000700B1210881210C479011210D0790002F1
:103DE0003AF6EA24FCF8EB1243AA22120FFE8A08E4
:103DF0008B098C0A8D0B22120FEC906182E0C2E6D7
:103E0000F022E0FAA3E0FB22124391780822E0249A
:103E10000EF8A3E03400F98882898322124377E404
:103E2000F50AF50B227A207B0090049FE0F9121529
:103E3000B07A207B0090049FE0F9121538221243DB
:103E400091A3A3A3A3E4F0A3F022EAF0A3EBF02252
:103E500074F6121E14EAFEEBFF8C088D099004A084
:103E6000E064076004790C8049EC4509700479121C
:103E7000804012489D703B1248EE7E008E82AC82DC
:103E8000E5082CF582E509124389C0E0C3E49CF8FB
:103E900095E0F9EA28F8EB1248BDD0E0F00EEEC349
:103EA000941040D8EA24D4122D2D7401F079051213
:103EB000462B023B7274F7121E14EAFEEBFF9004CD
:103EC000A0E064076004790C802A12489D702512D6
:103ED0003EF724DD1231A8700DEA24F7122D2D745F
:103EE00006F07902800BEA24DE122D2D7406F0799B
:103EF0000D12462B023B341248F2EA2274E8121EDD
:103F00001474FC121D9F7402121E08123E4A85187A
:103F100082851983ECF0A3EDF08915741D121E083B
:103F2000E0F50AA3E0F50B741F121E08E0F5147407
:103F300020121E081243777422121E08E0F516A301
:103F4000E0F5177426121E08E0FEA3E0FF742812A5
:103F50001E08E0F50CA3E0F50D742A121E08E0F52A
:103F60000EA3E0F50F900867E06401600779041282
:103F7000437F700579210243729004A0E0640960D8
:103F8000F3E0640A60EEE0640B60E9E0640C60E476
:103F9000E0640D60DF7402121E081243A0505685C3
:103FA00018828519831243A0504B7402121E08C058
:103FB00082C083123998D083D082C3E098A3E0995D
:103FC0004033E51560087401651570298006E50A1F
:103FD000450B6021741C121E08E06004640170151A
:103FE000E514600674016514700BC3E50E950CE5CD
:103FF0000F950D50057912024372E50824FAF8E591
:104000000912462250EFE51624FAF8E51712462267
:1040100050E3C3E5169508E517950940D8742412B6
:104020001E08C3E094F4A3E0940150C91246145052
:10403000C4790112437F70129007FDE0F87003020B
:104040003F747401687003023F74794012437F70BB
:1040500003023F74851608851709E508C333F50880
:10406000E50933F5097424121E08E02401F510A3B4
:10407000E03400F511E4F512F51385080C85090DFF
:10408000F50EF50F7810790C121A878E0C8F0D74BF
:1040900003780C121D8C780C7910121A1840030248
:1040A0003FF5120E12E964017005793A02437290ED
:1040B00004CDE0605785080C85090D7AFF7BFF125F
:1040C0000E008A088B0974037808121D7D9004CDB8
:1040D000E0F8C3E50898E50994005005793B0243F0
:1040E00072C3EA950CEB950D5010A80CA90D121D8A
:1040F000148B09EA450970E48012EAF8EBF9AA0C7E
:10410000AB0D121D148B09EA450970D0E515700935
:10411000E50A450B7003023FF5120DE88A088B098A
:10412000A808A909E84970057909024372E824043E
:10413000F50CE93400F50D850C82F583E090086EEE
:10414000F07402121E0812399E9008681243CA12B7
:10415000399890086A1243CAE51590086DF07A0004
:104160008A82A8821246F4E0C0E0E50828F8EB3421
:1041700000F9E8245DF582E9122D30D0E0F00AEA7A
:10418000C3940540DBE508245DFCEB3400FDAA0880
:10419000120DDCE5082436F582E509124389C39443
:1041A00002500AAA08AB09120DEE023FF5850A82F9
:1041B000850B83E09007E31243BEE09007E41243CF
:1041C000B5E09007E51243B5A3E09007E61243D0AF
:1041D000E09007E71243D0A3E09007E8F0E51490E1
:1041E000085FF0702590048DE0900860123C779095
:1041F0000861123C71900862123C6B900863123C9B
:1042000065900864F0900492802B900493E09008ED
:1042100060F0900494E0900861F0900495E09008BC
:1042200062F0900496E0900863F0900497E09008A4
:1042300064F0900498E0900865F0741C121E08E089
:104240009007E2F0120E1EE5082426F582E5091219
:104250002D30121C99120C80E5082422F582E50904
:10426000122D30121C99E508242EF582E509122D35
:1042700030E516F0A3E517F0E5082432F582E509EC
:104280001246317424121E0812399EE5082430F5B6
:1042900082E5091243C790086FE0C0E0E508242AD0
:1042A000F582E509122D30D0E0F0E508242BF582E7
:1042B000E509122D307402F0120E54E975F00C84E9
:1042C000E5F02405C0E0E5082437F582E509122D64
:1042D00030D0E0F090086C7425F09004CDE0C394E9
:1042E000024005790112104C7904120F3E90085DCE
:1042F000123E4A9008677401F090085DE02416129F
:104300003E11746AF0A3740DF090085DE02414125D
:104310003E117417F09004A0E07055120FFE8A1041
:104320008B118C128D1390933D7810121BC29093B9
:10433000557810121C2390085D12438D7810121CC2
:104340007E90085D123E3E90086A123E1C781079FD
:1043500008121BAF90085D123E0E7810121C7E856D
:104360000C82850D83E0F9120D4C120D52120F26AE
:10437000790074040235ECE0F508A3E0F509221297
:104380000F50E9640122F582EF1248B722124391DF
:1043900022124397A3A322E0F8A3E0F583888222A8
:1043A000E024FCF8A3E01243AA2234FFF9C3E89406
:1043B000FDE9943F221243B9221243BEA322F085A5
:1043C0000A82850B83A3221246FFE8F0A3E9F022BC
:1043D0001243B9A3A322C082C083900867E060089B
:1043E0007904120F50E97004790C8018900867E482
:1043F000F0120F62E9700B9004A6E06401700312E2
:104400003E257900024A72C082C083C3EB940F50EC
:1044100009C3EA9403EB9400400479128024EA75FE
:10442000F006A4CAA8F028F875F006EBA428FB74DF
:10443000D32AF58274043BF583E07004790280028C
:104440007900024A7274EA121E148A088B097416E3
:10445000121E08E0F512A3E0F5137418121E08E00E
:10446000F514A3E0F515741A121E08E0FEA3E0FF90
:104470009004A0E064086005790C02460FEC24FA71
:10448000F8ED1246225025E51224FAF8E5131246FB
:10449000225019C3E5129CE5139D4010C3E5149406
:1044A000F4E51594015005124614400579120246B0
:1044B0000F12489D600302460FE50875F006A4C57B
:1044C00008A8F028F875F006E509A428F50974D0C5
:1044D0002508F51074043509F511E510246FF582EF
:1044E000E511124389600DE510246BF582E5111288
:1044F0004389600DE5102474F582E5111231AB702B
:1045000005793A02460FE512C333FAE51333FBE5AA
:10451000142401F508E5153400F509E4F50AF50B56
:104520008A0C8B0DF50EF50F7808790C121A878E10
:104530000C8F0D7403780C121D8C780C7908121AEC
:104540001840030244AC9004CDE0C3940240558A65
:10455000088B097AFF7BFF120E008A0A8B0B74030B
:10456000780A121D7D9004CDE0F8C3E50A98E50BAA
:1045700094005005793B02460FC3EA9508EB950974
:104580005010A808A909121D148B09EA450970E406
:104590008012EAF8EBF9AA08AB09121D148B09EA9C
:1045A000450970D0E5102477F582E511122D30749D
:1045B00002F0E5102478F582E511122D30E4F0A325
:1045C000F0E5102430F582E51112471EE510247540
:1045D000F582E5111243C7E510247AF582E5111240
:1045E0002D30E512F0A3E513F0E510247CF582E50B
:1045F00011122D30E514F0A3E515F0E510247EF539
:1046000082E5111246317900AA10AB1112462B7FB8
:104610000E021EE6EE24F6F8EF124DF39477E994BD
:104620000C22124DF3947BE9940C22120DCA7900EE
:10463000221246FFEEF0A3EFF02274F7121E14EAE6
:10464000FEEBFF9004A0E064086005790C0246F1DF
:10465000EE4F700579120246F18E828F83A3A3A3D9
:10466000A3E054E070EE120DE2E9640170E6750813
:10467000001247047027123248246FF582E9124372
:1046800089600BE8246BF582E91231AB600BE824FA
:1046900080F582E91231AB7004793A80540508E55F
:1046A00008C3940340CB750800850882A882EE28D1
:1046B000124386C0E01246F4D0E0F00508E508C3D6
:1046C000940540E5750800124704701A122D91EA0E
:1046D0002430F582EB12471EEA2481F582EB124367
:1046E000C77901120DCA0508E508C3940340D879BB
:1046F00000023B3474E928F58274071246FF223425
:1047000000F58322A808E875F006A4C8AAF02AF9E3
:1047100074D328F582740439F583E06401221248C9
:10472000B72407F8A3E03400F92274F2121E14EA49
:10473000FEEBFF8C088D09740E121E08E0F50CA329
:10474000E0F50D7410121E08E0F50AA3E0F50B90D9
:1047500004A0E064086005790C024894EC45096007
:104760000CE50C450D6006E50A450B700579120253
:10477000489412489D6003024894125034FE740419
:104780003FFFEE24E412438670257A008A82A882D5
:104790001248ACC0E0EE28F8EF3400F9E824E5F563
:1047A00082E9122D30D0E0F00AEAC3940840DDEE31
:1047B00024E5124386A2E0400579110248947A006C
:1047C0008A82A882E50828F582E509124389C0E0BB
:1047D000EE28F8EF3400F9E8249CF582E9122D3038
:1047E000D0E0F00AEAC3940840D6850C82850D8398
:1047F000E0C0E0EE24A4F582EF122D30D0E0F08589
:104800000C82850D83A3E0C0E0EE24A5F582EF12B3
:104810002D30D0E0F07A008A82AC82E50A2CF58255
:10482000E50B124389C0E0C3E49CF895E0F9EE285B
:10483000F8EF1248BDD0E0F00AEAC3941040D8EE79
:104840002494FAEF3400FB120E60EE2488FAEF3461
:1048500000FB120E669004A2E04480F0EE24621287
:1048600048A224D31248A224D41248A224DDF8EF8F
:104870003400F9EE2483F582EF1231AB888289830C
:1048800070077401F0790A8004E4F07903EEFAEF1E
:10489000FB12462B7F06021EE6EAFEEBFF120BD24E
:1048A000E922F582EF1246FFE4F0EE2274B428F517
:1048B0008274041248B7223400F583E02239F9E803
:1048C00024D2F582E91246FF2274F7121E14EAFE82
:1048D000EBFF9004A0E064086004790C800D12489E
:1048E0009D700879081248EE12462B023B3412489C
:1048F000F22212504374D02EFA74043FFB2274F05B
:10490000121E14124A28600A7401650A60047912A2
:104910008059EE4F603A124A1C1220238E828F83F8
:10492000121C8D124A16121DB5E9602B780C12204C
:10493000238E828F83121C8D124A10121DB58A0C91
:104940008B0D8C0E8D0F9092FD780C121A3850073B
:10495000A90A120CFE8012E50A9004A27005E04438
:10496000018003E044021250D679007F08021EE65F
:1049700074F0121E14124A2860167401650A601041
:104980007402650A600A7403650A60047912807D06
:10499000EE4F603A124A1C1220238E828F83121C23
:1049A0008D124A16121DB5E9602B780C1220238E49
:1049B000828F83121C8D124A10121DB58A0C8B0D2A
:1049C0008C0E8D0F9092FD780C121A385007A90AA0
:1049D000120D048036E50A600B1460101460151483
:1049E000601A801F9004A2E0440480169004A2E0A4
:1049F0004408800E9004A2E0441080069004A2E0D7
:104A00004420F0850882850983E4F0790002496B2F
:104A10001225FE7404221225A1740422EE24020E33
:104A20000EEF3400FF780C22890A8A088B09120FD6
:104A30004A8A0C8B0DAE0CAF0D1250CA85088285C8
:104A400009837401F0E50A22C082C083E9F8900767
:104A5000EEE0F9E8600E14700E7401F0E069700B7E
:104A600079FF8009E480F47912800279008003F0F4
:104A70007900D083D082020122C082C083E9F890FD
:104A80000874E07004790C800EE8600D14701090CA
:104A900004A57401F0790080D99004A5E480F5792B
:104AA0001280F4C082C083E9F89004A0E0701AE894
:104AB000600D1470109004A67401F07900800C90C1
:104AC00004A6E480F579128002790C80A574F612B0
:104AD0001E14740A121E08124AFC600AEC4D60068D
:104AE000E508450970047912800F780812202B120E
:104AF0000E787402121DB57900023B72124377EAF8
:104B00004B22C082C083EA4B7004791280168A82DD
:104B10008B83E0A2E09004B4E05004D2E08002C2B3
:104B2000E0F07900024A72C082C083E9600E14701E
:104B3000119007EF7401F07900024A729007EFE4D8
:104B400080F4791280F3C082C083E9F89004A0E079
:104B500064076004790C800EE8600E1470119007F1
:104B6000F07401F07900024A729007F0E480F47961
:104B70001280F374F7121E14E9FFEAFEC394285062
:104B800008EF600974016F60047912804A9004A0F4
:104B9000E0600479218040124C98121C8D12107C28
:104BA00074016F700D7A01EE124C1D9061907424A7
:104BB00080177A00EEF912112A79071210F4906129
:104BC000907404F09061E874FFF09004A0740BF00E
:104BD00079041210DC7900023B3474F6121E149032
:104BE00004A0E0600479218031124C2B121C8D123C
:104BF000107C9004C2E4F0FA124C1D75D92775D9C7
:104C00000075D9257800124C3DE8C3942540F7750E
:104C1000E1959004A0740D124C4E023B72124C218F
:104C200022F912112A79001210F422124C3779015C
:104C300012111290935122124C9F7A01228808740B
:104C4000AA2508F582748F1248B7F5D90822F0908A
:104C50006182E0D2E5F079191210DC7A007B001253
:104C60000FCE79002274F7121E14E9FEC394284077
:104C700004791280209004A0E0600479218016124B
:104C80004C98121C8D12373E9004A0740CF07903DE
:104C90001210DC7900023B34124C9F909351221287
:104CA0000FEC120CE675E1F122C082C0839004A0E3
:104CB000E0640B600EE0640C6009E0640D60047950
:104CC000218005120B067900024A7274F3121E1439
:104CD000EA4B70057912024DA99004A0E0600579B5
:104CE0000C024DA9EA2405F8EB3400F9EA2404FC8F
:104CF000EB3400FDEA2403FEEB3400FFEA2402F566
:104D000008EB3400F5098A828B83A385820A8583A8
:104D10000B8A828B83E0F47059850A82850B83E0CD
:104D2000F4704F850882850983E0F470458E828F88
:104D300083E0F4703D8C828D83E0F4703588828945
:104D400083E0F4702D900499E090048DF090049A23
:104D5000E090048EF090049BE090048FF090049C0F
:104D6000E0900490F090049DE0900491F090049EF7
:104D70008030124DC28A828B83E090048DF0850AC8
:104D800082850B83E090048EF0850882850983E09C
:104D900090048F124DB6900490124DBD9004911264
:104DA0004DACE0900492F0790002397D124DB022B2
:104DB000F08882898322F08E828F83E02212514C08
:104DC000E02290048DE0900499F090048EE090042D
:104DD0009AF090048FE090049BF0900490E090048F
:104DE0009CF0900491E090049DF0900492E0900477
:104DF0009EF02234FFF9C3E82274F7121E14E9FE74
:104E0000906185E0F974016E700EE9C3940F50044F
:104E100009120CDA7900800BEE7006E960F6198051
:104E2000F07912023B3474F4121E1474FC121D9FAC
:104E3000902918E493F46004790C8040906185E037
:104E4000851882851983F09093197808121C6F8554
:104E500018828519837808121C49750801750900A4
:104E6000780812202B7402121E08AC82AD837A4699
:104E70007B0A12172A7402121DB579007404121DE0
:104E8000B5023AF6C082C083E9F860137401686025
:104E90000E7402686009740368600479128007E880
:104EA0009004BCF07900024A7274F6121E14E9FBF9
:104EB00074FF6B700D90087074FFF0A3E4F0F902BA
:104EC0004F90750801750900EA7808121D8CA80832
:104ED000E8F4F9EB600814602B1460758006EAC3EF
:104EE000940840057912024F90E5AEC4540F540760
:104EF0006A700353AE7FE952F252F3E842FDE95281
:104F0000AB024F85EA601714601914601B14601D12
:104F100014601F14602114602314602080C6906206
:104F20004380179062448012906245800D906246E3
:104F300080089062478003906248E4F0E5AE540731
:104F40006A700353AEF7E952F4E842FEE9528D80ED
:104F500034E5C6A2E7400E74036A600574046A7003
:104F600004790C802BEA600A24FD600B14600D02AA
:104F70004EE453F5FE800853F5F7800353F5EFE850
:104F800042FFE952ACEBF9EA9008701243CB79008A
:104F9000023B7274F7121E14124899700A791612A5
:104FA00048EE120E0C7900023B3474F6121E14EA1D
:104FB000FEEBFF890812489D704B125034F87404C0
:104FC0003FF9E824F9FAE93400FBE824FBFCE93472
:104FD00000FDE824FDFEE93400FFE824FF18E93471
:104FE00000F9E508600514601F80458A828B83E420
:104FF000F012514BF0A3F08E828F83F0A3124DACD0
:10500000F0A3F07900023B72888289831220468ED9
:10501000828F831220468C828D83E0FCA3E0FD8A80
:10502000828B83123E0212096E7404121DB580D366
:10503000791280D112503F74D02E2212503F22128A
:10504000504322EE75F006A4CEA8F028F875F006BD
:10505000EFA428FF2274F0121E148A088B09120F85
:105060004A8A0A8B0BAE0AAF0B1250C6850882859E
:1050700009837401F0EE4F603A124A1C1220238E0D
:10508000828F83121C8D124A16121DB5E960297891
:105090000C1220238E828F83121C8D124A10121D37
:1050A000B58A0C8B0D8C0E8D0F9092FD780C121A18
:1050B000385005120D1680099004A3E044011250E7
:1050C000D6790002496B1250CA22120FFE8A0C8B4D
:1050D0000D8C0E8D0F22F0850882850983E4F02265
:1050E000C082C083E9F89004CCE06004790C800EA3
:1050F000E8600E1470119008747401F07900024A8F
:1051000072900874E480F4791280F374F7121E141C
:10511000E9600514600F802F9004CAEAF0A3EBF059
:105120007900023B349004CAE08C828D83F09004B5
:10513000CBE08C828D8312514BA3A3746E12514C21
:10514000A3A3A3748680D8791280D7A3F08C828D14
:105150008322C082C0839061907404F0A37448F0ED
:10516000A3E4F09061807440F09061BC7407F0900B
:1051700061877469F09061B67416F07900120CFEC4
:105180007902120D04902918E493F46006E493F96F
:10519000120CDA79051210F40255F8C082C083E9C6
:1051A000540FF9906185E0696012E5C65480444966
:1051B000F5C6E59E547F644970F8E9F053C680E572
:1051C0009E547F70FA0255F874F7121E14E5A8FE7B
:1051D00053A87E120CE6C2BA539AFEC289759B0090
:1051E000C2C2120CEC75A91175B905120CF2D2BA33
:1051F000439A0174805E42A802611FC082C08390FE
:105200006181E4F0A3F0A3F00255F875E90075910F
:105210000075BF00020122C082C083906181E4F06A
:10522000A374C0F0A3E480DFC082C08374F8121DB1
:105230009F9004A2126016E84970030252DF9004A6
:10524000A2E0544060237908851882851983AA82D8
:10525000AB83120E5A851882851983AA82AB8312FA
:10526000095C9004A2E054BFF0E054806010790C17
:105270007A967B08120E5A9004A2E0547FF0E0A2C6
:10528000E0500879001252E754FEF0E05402600842
:1052900079011252E754FDF0E054046008790012DD
:1052A00052F254FBF0E05408600879011252F254B3
:1052B000F7F0E05410600879021252F254EFF0E077
:1052C0005420600879031252F254DFF0A3E0540135
:1052D000600D120D161209749004A3E054FEF074D0
:1052E00008121DB50255F8120CFE1209629004A2B4
:1052F000E022120D041209689004A2E022C082C0CC
:1053000083E9600514602A804F90619A7433F0A39A
:105310007455F09061A0743AF0900872E0640170E6
:1053200009C2919004A47467802D9004A4746180D4
:105330002690619A743FF0A3745AF09061A0747F34
:10534000F0900872E064017009D2919004A4747125
:1053500080059004A4746AF00255F8C082C083E905
:10536000600B14600D14600F146011802090291CD4
:10537000801590291D801090291E800B900872E0E6
:10538000640160F390291FE493906186F00255F860
:10539000C082C083906186E0FB7A008A82A8827412
:1053A0001C28F58274291264E1E4936B700D74D8A3
:1053B00028F5827492126827F980090AEAC39404D6
:1053C00040D979800255F874EE121E1474F4121D3F
:1053D0009F851882851983AC82AD8375839375820E
:1053E0006D7404121CB290291C93F4600302555989
:1053F000907808E0C3940250030255397404121ED9
:1054000008AC82AD8375839275829B7408121CB2BE
:10541000F97AFF7BFF7FFF7E0089828582108018EA
:1054200074086E70030254EE74096E70030254EE39
:10543000740A6E70030254EEE510C333FCE433FDCE
:105440007404121E08E5822CF582E5833DF583E0A5
:10545000F50EA3E0F50F8E087509007402780812A6
:105460001D8C74482508FC74783509FD8C828D8369
:105470007808121C6F74087808121B7785080C8551
:10548000090D8C828D837808121C6F7418780812AD
:105490001B77E50C4508F508E50DF509C3E50E9504
:1054A00008E50F95098C828D837808121C6F8C8219
:1054B0008D837808121C6F741878084014121B77BB
:1054C000E50C4508FCAD0DE50EC39CFCE50F9D8089
:1054D0000F121B77E50C4508C3950EFCE50D950FE3
:1054E000FDC3EC9AED9B5006ECFAEDFBEEFF0EEEE1
:1054F000C39413500302542074FF6A700374FF6B4B
:10550000602D8F0874027808121D8C7448126A6529
:1055100074783509F5837808121C6F85188285190F
:1055200083E5822510F582E5831264E1E508F00940
:10553000E9C39404500302541175080175090078F9
:105540000812202B7402121E08AC82AD837A477BAE
:105550000A12172A7402121DB5740C121DB57F0AA7
:10556000021EE6C082C083906186E0F890291FE4A5
:105570009368700990291EE493906186F09061AE63
:105580007468F0A3746AF090624574FBF0A304F0B1
:1055900053F4FD43FE029008727401F09061A0E0A4
:1055A000643A7004790080027901120CFE0255F809
:1055B000C082C083900850E064017017900856E0E4
:1055C000F87401686009E8700AA3E0640170047966
:1055D0000C8020900867E06401700890086DE0641A
:1055E0000160EC9007FAE0640170069007FFE0703C
:1055F000DE790080031259EAD083D082020122C0F2
:1056000082C08375E1F19007FDE0604A14600814E0
:10561000604E146046804E120D289007F3E0F97A30
:10562000F47B0712102E909365121C8D1259E31211
:105630001C8D12103A9007FEE0F912104679011203
:1056400010E89007F1E024161258017458F0A37482
:105650000DF0790080A2120D2E80BF120D3480BA99
:10566000120D3A80B5791280EB74F4121E1475D9BC
:105670000D9007E2E0A2E0E4331313F812576B48F1
:105680004401F5D9780012577540FB7800880874FA
:10569000E3126A65740712577F40F275E19590072F
:1056A000E2E0F97AE37B0712103490111174B0F044
:1056B000A3740C1257851259F974CEF0A3740C120E
:1056C0005A0C9007F1125C6A7808121C6F9093795B
:1056D0007808121BC29093557808121C239007F18A
:1056E000E0240E1258017808121C7E1257FB741326
:1056F0001258A37402F07F04021EE674F6121E1400
:10570000125761FA8AD9780012577540FB780080E9
:10571000061257F0125E31E8C39940F51258911203
:10572000577540FB78008008126A617408125E3178
:10573000E8C39940F375E19590111174BCF0A3741E
:105740000C12578512578F121C8D9007F1E0240E12
:10575000125801121C991257FB74121258A30260BE
:10576000A7900803E0F9740729F5D99007F3E0C47E
:10577000333354C022880874F42508F58274071264
:10578000606D940622125B6174B6F0A3740C221251
:1057900059FFF0A374CEF0A3740C125A1090930921
:1057A0002274F6121E141257614402F5D9780012C1
:1057B000577540FB780080061257F0125E31E8C33F
:1057C0009940F575E195901111125810F0A31258F7
:1057D00010125792121C8D9007F1E0240E125801FE
:1057E000121C991257FB74141258A374040260A976
:1057F000880874042508F5827408229007F1E024D3
:1058000014F8A3E0125808223400F9888289832210
:1058100074C812581D12581DF0A3740C22F0A37402
:105820000CF0A374C82274F6121E14125761FA7495
:10583000064AF5D9780012577540FB7800800612A9
:1058400057F0125E31E8C39940F51258911257751E
:1058500040FB78008008126A617408125E31E8C368
:105860009940F375E19590111174C2F0A3740C1274
:105870005B5A12578F121C8D9007F1E0240E1258BC
:1058800001121C991257FB74151258A3740302607D
:10589000A9900823E0F9740729F5D974044AF5D9C9
:1058A000780022F09004A022C082C08390085A742D
:1058B00025F09008587401F0A3E4F07A01FB12106F
:1058C00058900846E024161258017464F0A3740D31
:1058D000F0900857E064017016900856E070107957
:1058E000011210CA1210881210C479001210D602C8
:1058F00055F874F6121E1474FA121D9F90084FE0AA
:1059000064017008120D4090084FE4F075E1F190C9
:105910000846E024151258017401F0900851E06423
:105920000170539092CCC082851882851983AC8215
:10593000AD83758392D0827406121CB275D90D9016
:10594000084812576E4403F5D97800880874491244
:105950006A65740812577F40F278008808851882BB
:10596000851983E582126A65E58312577F40EC75DD
:10597000E19579018002790012105E90111174FC9A
:10598000F0A3740EF0A37402F0A3740F1259F01276
:1059900059F01259F9125A05F0A37408F0A3740FC4
:1059A000125A0C900848E0F97A497B0812102E90A0
:1059B000085A1259EA7901121064909365121C8DED
:1059C0001259E3121C8D12103A79001210E8900857
:1059D000461257FE74161258A37405F004121DB532
:1059E0000260AA12107C90935D22E0F91228042232
:1059F000F0A374FCF0A3740E221259FFF0A322123C
:105A00005A0322F0A374CCF0A3740E22125A10226F
:105A1000F090111F125A05125B65125A05125A03B3
:105A2000F02274F4121E148908A8081268E3900882
:105A30005FE0F97A607B0812102E90086DE0701A12
:105A400079001210AC9007E2E0700B79007AE37BEA
:105A5000071210348009790180F379011210AC75B6
:105A6000E1F175D92390085F12576E4405F5D97896
:105A700000880A7460250AF582740812577F40F185
:105A800075D90075D90075D90075D90075D900751B
:105A9000D9007A00126DB62422125EE640F67A0032
:105AA000126DB62426F582E91261270AEAC394032F
:105AB00040EEEE242B1261247A00126DB6242C12D3
:105AC0005EEC40F67A00126DB6242E125EEC40F6C3
:105AD0007A00126DB62430125EEC40F67A00126D38
:105AE000B62432125EEC40F67A008A0AEE250AF8F5
:105AF000EF126591125EF9940540EFEE24371268BB
:105B000024541FF8EE242A126824C43354E048F5C4
:105B1000D975E19590111174D2F0A3740EF0A374AD
:105B2000D8F0A3740E125B5AF0A374DEF0A3740EC7
:105B3000125A0C90086C1259EA909365121C8D123F
