:020000040000FA
:0600000002010A02246E59
:03002B000228B5F3
:030033000228CED2
:030053000224E4A0
:03007B00022872E6
:1000830002235FE5C754F84401F5C7790122000054
:100093000080FB120086B900030200F4E4792178A2
:1000A3000FB800028004F709D8FCE479307802B86D
:1000B30000028004F709D8FCE49002817842790EAB
:1000C3008002F0A3D8FCD9FA900FC2AA82AB839026
:1000D300013A783579048015E493A3AC82AD838A21
:1000E300828B83F0A3AA82AB838C828D83D8E9D9D8
:1000F300E77582C575838A740412011C7582917534
:100103008300740012011C75D00075813F7518813E
:10011300751902759F00020096C09FF59FE473D086
:100123009F22D083D082C09FE493C0E0740193C028
:10013300E0740293F59F22FF0000B400002800281A
:1001430000283075A000A000A000A000000800084F
:10015300E001F0001000100010001000100010006B
:1001630050005000500010001000D00700000000A5
:1001730000000F00010005003075070010000100AA
:1001830081FF0000FF6C068A067206FF0202020866
:10019300025000A0000000E80302ED91010000DD21
:1001A3009102F191010000171002F791010000B2D2
:1001B3000202F191010000181002F991010000C838
:1001C3000202F191010000191002FB91010000CA23
:1001D3000202F1910100001A1002FD91080000CB08
:1001E3000202F1910100001B1002FF910100001CAB
:1001F30010FF0100FF2002ED91010000E69102F1E2
:10020300910100008010021F92000000000002F51F
:10021300910300002803960F960F960F960F960FE3
:10022300960F960F960F960F960F960F960F960FA3
:1002330014132C130E13FFFF020202020202020226
:1002430002010D000000100102ED91010000E09198
:1002530002F191010000C310020D92010000930D01
:1002630002F191010000C410020B92010000E5901D
:1002730002F191010000C510020992010000C9902A
:1002830002F191010000C61002079201000087905D
:1002930002F191010000C710020592010000759060
:1002A30002F191010000C810020392010000519075
:1002B30002F191010000C910020192010000639054
:1002C30002F191010000CA10022192010000D790AF
:1002D30002F191010000CB10021B92010000CC102F
:1002E30001E803053F10FF0001307503020106001A
:1002F30000000000000000000000000000000000FB
:100303000000000000000000000000FFFF06008066
:100313000CE803140953696D706C65424C455065D4
:10032300726970686572616C051214001400020A28
:10033300000201060302F0FF47686F737479755377
:10034300657269616C417070000000000002190061
:100353000008190A43686172616374657269737492
:100363006963203100024368617261637465726975
:100373007374696320320008436861726163746552
:100383007269737469632033001043686172616337
:10039300746572697374696320340002436861721F
:1003A3006163746572697374696320350002ED914A
:1003B300010000E39102F191010000DE11021192AC
:1003C300030000740F02F391010000DF1102F191A9
:1003D300010000F011021392010000880F02F39153
:1003E300010000F11102F1910100000212021592C5
:1003F300020000890F02F391010000031202F19140
:1004030001000014120217920000008A0F02F591F6
:100413000300008B0F02F391010000151202F1910A
:100423000100002612021992040000910F02F391B9
:100433000100002712000330003100320033003482
:100443000035003600370038003900300031003203
:1004530000330034003500360037003800390022FD
:100463001A771A771A771A771A7F1A120125B98120
:1004730004120125D08104120125FF8104120125F4
:100483003882041201256082041201258E8204122F
:100493000125A58204120125BC8204120125D28202
:1004A30004120125F982041201250C83041201258B
:1004B3002283041201253583041201255A83041271
:1004C300012535EB0212012534EC0212012569ECFA
:1004D300021201258AEC021201259AEC021201256F
:1004E300BBEC02120125C7ED0212012594EE0212A4
:1004F300012507EF021201258DEF02120125D0EF2E
:100503000212012507F0021201258DF002120125C6
:100513005FF102120125BDF102120125D5F102128C
:1005230001254FF20212012552F20212012555F262
:1005330002120125FCF20212012514F30212012515
:1005430044F30212012564F30212012552F402124C
:10055300012508F50212012553C2031201257BC2AE
:1005630003120125A9C203120125E0C203120125CA
:1005730048C30312012591C303120125DCC30312EF
:1005830001251AC40312012557C40312012585C48A
:10059300031201252CC50312012536C503120125BB
:1005A30043C50312012576C50312012538C603127C
:1005B300012544C6031201255CC60312012566C644
:1005C30003120125FD86041201250B870412012560
:1005D3002387041201253B87041201251B8F021276
:1005E3000125B98F0212012531900212012546918E
:1005F300021201258091021201252992021201257E
:10060300FE9202120125629402120125B99402128C
:1006130001254095021201252796021201257496A1
:1006230002120125029702120125269702120125C3
:10063300FB98021201253C99021201255E990212D0
:100643000125DF9902120125C99A021201258F9B08
:1006530002120125CA9F031201259CA00312012542
:1006630045A10312012588A10312012515A2031236
:100673000125A1A20312012582A303120125B1A31F
:1006830003120125ADA403120125F5A403120125CC
:10069300F7A5031201253BA60312012561A6031248
:1006A30001250589041201259FD803120125B5D818
:1006B30003120125DBD80312012503DA03120125F6
:1006C3000DDA0312012566DB0312012566DC031232
:1006D300012557B3031201258CB403120125BFB4BE
:1006E3000312012509B503120125C7B6031201251B
:1006F300C4E60112012519E7011201255EE8011282
:1007030001256EE80112012591E801120125DCE8BB
:100713000112012581E90112012577EA0112012560
:1007230041EB01120125B9EC01120125FBEC011289
:10073300012599ED01120125E6ED011201250CEECB
:1007430001120125FAEF01120125FFEF0112012524
:10075300E0F10112012534F20112012596F2011292
:100763000125BEF20112012562F30112012524F4D1
:100773000112012555F40112012558F40112012536
:10078300A0F401120125E2F40112012549F5011239
:100793000125A4F803120125B7F803120125D0F8A7
:1007A300031201251BF903120125F6F90312012592
:1007B30085FA03120125D0FA0312012524920112AE
:1007C3000125349201120125979201120125DC9231
:1007D300011201258C930112012560940112012558
:1007E300C89401120125F1940112012521950112EA
:1007F3000125359701120125119901120125F19A5D
:1008030001120125299C01120125A29E0112012535
:100813008E9F01120125D4A001120125E1A101122D
:10082300012523A2011201255BA20112012575A254
:1008330001120125DDA20112012577A7011201256D
:1008430018A8011201256CA80112012593A8011211
:100853000125D1A801120125F0A80112012544A9FF
:10086300011201251DAA01120125A4AB01120125C4
:100873002DAC01120125766E00120125856E001242
:1008830001254C6F001201255E6F00120125966F42
:1008930000120125DB6F00120125077000120125EC
:1008A3004570001201258E7000120125B6700012EA
:1008B30001251B7100120125D27100120125E87177
:1008C300001201252472001201254A72001201252B
:1008D300897200120125BC7200120125F472001204
:1008E30001251373001201253C7300120125B9730E
:1008F30000120125CE7300120125E37300120125B6
:10090300F873001201253174001201256B74001273
:1009130001258F74001201255875001201256E758B
:10092300001201258D7500120125A0750012012505
:10093300B57500120125CA75001201254076001213
:100943000125547600120125A87600120125B776F9
:1009530000120125067700120125407700120125B8
:100963007177001201259D7700120125CB770012C4
:100973000125FE770012012513780012012528783E
:1009830000120125697800120125B37800120125B0
:10099300237900120125657900120125907900124F
:1009A3000125D17900120125FC7900120125277A4E
:1009B30000120125957A00120125BF7A0012012544
:1009C300007B001201252F7B001201255E7B0012A4
:1009D3000125887B00120125B27B00120125DC7BF7
:1009E30000120125197C00120125427C0012012509
:1009F3006D7C00120125977C00120125C27C001238
:100A03000125ED7C00120125167D001201256D7D67
:100A130000120125D27D001201251B7E0012012543
:100A2300457E001201256A7E00120125EE7E00122A
:100A330001258DCB03120125C9CB0312012593CCCC
:100A430003120125E6CC03120125C9CD03120125AA
:100A53003FCE0312012581CE03120125AECF03122F
:100A630001250080021201252980021201254280FE
:100A730002120125878102120125658202120125D6
:100A8300848202120125118302120125548302126A
:100A930001258C8402120125F88402120125EE86B9
:100AA300021201257C89021201250F8A02120125F7
:100AB300E38A02120125868B02120125708C021231
:100AC3000125DC8D02120125728E02120125DD8EB5
:100AD3000212012576FE02120125DFFE0212012514
:100AE30033FF021201255AFF0212012508D0031217
:100AF300012575D003120125C0D003120125B5D1FC
:100B030003120125B1D2031201259BD30312012540
:100B13000080031201254280031201251C81031268
:100B23000125F58103120125F08203120125CF83EC
:100B3300031201253B8403120125028503120125BB
:100B43006D8503120125D48503120125FF85031248
:100B530001257086031201250387031201256C8783
:100B630003120125818703120125C9870312012579
:100B7300E287031201254788031201254A880312DD
:100B83000125E4E30312012520E4031201255EE4B9
:100B93000312012528E5031201259BE50312012514
:100BA300D6E50312012514E60312012544E60312D8
:100BB30001256BE603120125D6E60312012518E78A
:100BC300031201258029001201256E2B0012012535
:100BD300FA2D00120125CC2E001201250F2F001231
:100BE3000125582F001201256A2F00120125AA2F73
:100BF30000120125EB2F00120125FA2F0012012507
:100C0300293000120125753000120125AD30001284
:100C130001250431001201252731001201255B3122
:100C2300001201257E310012012511320012012527
:100C33003F3200120125B832001201250933001298
:100C430001259533001201255D36001201255A371F
:100C530000120125BD370012012539380012012584
:100C6300113A001201254D3A00120125683B00128A
:100C73000125993B00120125E03B00120125DD3CD3
:100C830000120125B03E00120125153F0012012577
:100C93005C3F00120125364400120125674400120F
:100CA3000125A544001201259A46001201258A4711
:100CB300001201252949001201255E490012012570
:100CC300D04900120125A84A00120125D94A001271
:100CD3000125034B001201252D4B00120125624B08
:100CE30000120125874B00120125A64B0012012596
:100CF300D34B001201253A4C00120125C54C0012BA
:100D03000125094D001201252B4D00120125594ED5
:100D130000120125864E00120125E44E0012012522
:100D2300094F00120125F34F001201250A5000124A
:100D33000125B550001201254051001201256B51C8
:100D43000012012575F303120125E7F303120125B0
:100D53003DF40312012581F403120125A1F40312CA
:100D63000125EEF40312012536F50312012589F559
:100D730003120125DAF50312012573F50212012589
:100D830090F5021201252AFB021201252CFC021206
:100D93000125A6FD0212012554FE02120125B251BE
:100DA30000120125FB5100120125285200120125D2
:100DB3005B52001201256B5200120125775200127B
:100DC30001258852001201255D5300120125BB53F2
:100DD30000120125F05300120125275400120125AA
:100DE300C355001201251056001201255F5600124B
:100DF3000125C956001201255B5700120125015830
:100E030000120125865800120125085900120125F8
:100E1300525900120125825A00120125DD5B00128E
:100E23000125B45C00120125D95C001201251E5D69
:100E3300001201252E5D001201254A5D00120125D5
:100E43004D5D00120125075E00120125D05E0012E0
:100E53000125605F00120125FC5F0012012521605E
:100E6300001201258060001201250F610012012587
:100E73006461001201258D6100120125ED610012EC
:100E830001257B6200120125446300120125E16301
:100E930000120125686400120125BF6400120125B8
:100EA3002065001201255A65001201250366001210
:100EB3000125516600120125416800120125916840
:100EC30000120125E168001201255669001201256F
:100ED300E069001201252B6A00120125506A0012F5
:100EE3000125A16A00120125CA6A001201250F6BB0
:100EF300001201257E6B00120125C06B0012012533
:100F0300C06C001201255A6D001201252B6E0012D0
:100F13000125446E0012012513F60112012566F620
:100F23000112012572F60112012547F7011201256D
:100F33006EF701120125A9F70112012515F8011217
:100F4300012539F80112012567F801120125A0F8DE
:100F530001120125B8F80112012511F90112012529
:100F63002AF90112012573F90112012586F90112EB
:100F73000125A0F901120125B6F901120125D2FAC2
:100F830001120125E3FB0112012530FD01120125A8
:100F930015FE01120125F37F001201257EBD031208
:100FA3000125F0C00312012508C203120125D1B99E
:100FB30002120125C4BF02120125CABF0212012574
:100FC3004AC2021201257DB80312012528B9031272
:100FD3000125D8B903120125FDB903120125F4BB7C
:100FE3000312012547BD0312012594AC011201250B
:100FF300C8AC01120125CDB60112012519B80112A1
:10100300012536B901120125C0BA01120125A2BB7F
:1010130001120125DCBB01120125FFBB01120125D1
:1010230041BC011201254ABC0112012594BC0112E5
:1010330001259EBC011201254ABD011201251EBED8
:101043000112012572BE01120125D4BE0112012530
:1010530027BF0112012556BF0112012595BF0112B9
:10106300012574D401120125CEDC01120125D4DC43
:10107300011201258FE20112012575E601120125F6
:1010830060E703120125D6E703120125ECE70312FB
:10109300012529E80312012561E803120125DEE891
:1010A3000312012519E90312012594E9031201250D
:1010B300D0E903120125D9E903120125E5E9031259
:1010C3000125FFE90312012524EA031201253AEA67
:1010D300031201257EEA03120125A49003120125C0
:1010E300B79003120125D19003120125FA90031240
:1010F30001253D91031201257C9103120125BA912B
:10110300031201251F9203120125349203120125B4
:101113003F92031201254C9203120125639203129D
:1011230001257192031201258092031201259592E4
:1011330003120125AA9203120125B5920312012578
:10114300C19203120125CE9203120125E1920312EB
:101153000125EC9203120125119303120125169325
:1011630003120125B29303120125189403120125DA
:101173002894031201253D9403120125529403126E
:1011830001256C9403120125879403120125A4946D
:1011930003120125AF94031201256B950312012558
:1011A3005796031201257396031201258A9603129B
:1011B3000125949603120125A89603120125C996C9
:1011C300031201252A9703120125309703120125E3
:1011D3003697031201253C97031201254297031208
:1011E3000125699703120125A49703120125BD97D1
:1011F30003120125FD9703120125309803120125DF
:1012030047AC02120125C9AC0212012572AD0212CC
:101213000125BAAE02120125C8B002120125AEB1F2
:1012230002120125E3B10212012505B202120125C2
:10123300AEB2021201257EB402120125A7B4021236
:1012430001251FB50212012551B5021201255EB514
:1012530002120125A9B502120125CDB502120125FD
:101263001EB80212012528B90212012584B90212FF
:101273000125C49D02120125D59E02120125B99FA5
:1012830002120125C39F02120125E59F02120125C7
:10129300F19F0212012595A102120125C2A102129A
:1012A3000125D8A2021201252DA3021201257CA437
:1012B3000212012551A502120125ADA50212012535
:1012C30018A6021201254DA60212012590A60212AC
:1012D30001255AA90212012572A90212012503AAA6
:1012E3000212012511AA021201255EAA021201258A
:1012F3006CAA02120125D8AA0212012553AB0212CD
:101303000125AAAB0212012517E00212012539E0DB
:10131300021201254AE20212012509E50212012502
:1013230033E602120125F1E602120125DDE702127E
:1013330001250080041201252580041201259B80CC
:1013430004120125AD9803120125B6980312012555
:10135300BF9803120125979903120125489B031295
:101363000125789B03120125A39B03120125D39B1F
:1013730003120125FE9B03120125329C0312012552
:101383005E9C03120125A19C03120125CC9C031230
:101393000125139D03120125689D03120125AA9DB2
:1013A30003120125049E031201252F9E031201251A
:1013B3007E9E03120125AE9E03120125D99E0312C0
:1013C3000125079F031201252A9F03120125E2D35A
:1013D3000212012518D4021201255BD40212012541
:1013E30066D40212012571D4021201257CD40212A3
:1013F3000125B8D7021201258DD80212012507D97C
:10140300021201257ED9021201258BD90212012570
:1014130098D902120125A2D902120125ACD90212D0
:101423000125C8D902120125D8D9021201251ADAD9
:101433000212012553DA021201255DDA0212012597
:1014430067DA0212012571DA021201257EDA02122D
:10145300012588DA0212012592DA021201259CDAAB
:1014630002120125A6DA02120125F0DA0212012581
:101473000DDB021201252ADB021201253ADB0212DF
:10148300012544DB021201259FDB02120125ACDB9F
:101493000212012570DC021201257ADC02120125F9
:1014A30084DC021201258EDC02120125ABDC021260
:1014B3000125C8DC021201258CDD0212012595DD10
:1014C30002120125A1DD02120125C6DD021201254A
:1014D300D3DD02120125DCDD0212012503DE021237
:1014E30001252ADE0212012536DE0212012540DE25
:1014F3000212012550DE0212012569DE02120125C6
:1015030073DE0212012583DE0212012593DE02122D
:1015130001259DDE02120125ADDE02120125BDDE8D
:1015230002120125DCDE02120125E9DE0212012589
:10153300F6DE0212012506DF0212012516DF021272
:10154300012526DF0212012558DF0212012562DF81
:101553000212012572DF0212012582DF0212012528
:101563008FDF02120125B8DF02120125C2DF02124A
:101573000125CFDF02120125D9DF02120125E9DFA0
:1015830002120125F3DF02120125FDDF02120125FC
:101593000DE002120125CBAD03120125D5AD0312D7
:1015A300012516AE031201255FAE0312012599AE84
:1015B30003120125EFAE0312012510AF031201251B
:1015C30019AF031201256DAF0312012596AF031264
:1015D3000125A0AF03120125AAAF0312012518B0FC
:1015E30003120125A8B00312012503B1031201253B
:1015F30031B103120125B9B103120125F8B1031268
:1016030001252DB2031201253FB2031201255EB25B
:101613000312012567B20312012529B30312012521
:1016230006860412012541FD0312012577FD0312ED
:101633000125ABFD03120125F8FE031201258BFFE3
:1016430002120125A1FF02120125ABFF021201259F
:10165300108A041201255DD40312012570D40312EC
:10166300012534D50312012573D50312012590D525
:1016730003120125C9D50312012516D6031201252C
:1016830048D6031201257FD60312012592D80312EF
:101693000125167F00120125397F00120125687F7D
:1016A30000120125AA7F00120125E3ED0312012593
:1016B30008EE0312012532EE031201256F8A04128C
:1016C300012594C00112012572C20112012511C422
:1016D30001120125BCC4011201253CC501120125DB
:1016E300C1C501120125EAC501120125C5C90112AF
:1016F30001253CCA0112012553CB011201258DCBD3
:1017030001120125CECB0112012515CD01120125B0
:101713006BCD01120125B4CD0112012523CE011297
:1017230001258FCE01120125C0CE01120125D8CE8D
:1017330001120125F1CF0112012501D0011201256A
:10174300B7D101120125CED10112012500D2011218
:101753000125A2D30112012536D401120125BE8B26
:1017630004120125638B04120125A28B04120125A7
:10177300EFFF03120125D48704120125E487041225
:101783000125FC87041201256488041201250485C0
:1017930004120125898504120125ED850412012512
:1017A30032FF0312012535FF031201256EFF0312D9
:1017B3000125BFFF0312012536E0031201254AE08C
:1017C30003120125C4E003120125A8E10312012538
:1017D3007FE303120125C7F00312012567F103120A
:1017E3000125AEF103120125FAF103120125B9F225
:1017F30003120125E0F2031201250CF30312012564
:101803001FF30312012534F3031201253DF30312E1
:101813000125AC8B04120125AF8B04120125B18B7A
:1018230004120125B38B04120125BA8B041201257E
:101833006C8304120125BE83041201253184041232
:1018430001259E8404120125FAFA0312012524FBC3
:1018530003120125F3FB03120125CFFC031201251B
:101863006E88031201253A89031201257B8903122D
:101873000125B58903120125138A03120125678AFD
:1018830003120125C58A031201255B8B031201256F
:10189300638C03120125ED8D031201258B8E031238
:1018A3000125F28E03120125058F03120125F98FFD
:1018B30003120125429003120125F3C602120125EA
:1018C30025CA02120125B6CB021201250DCC021244
:1018D30001252ACC02120125AACC0212012526CE0B
:1018E30002120125F5CE0212012562D20212012550
:1018F3004CD302120125FBC6031201256EC9031244
:101903000125D8C90312012599CA03120125FBCA6F
:101913000312012542CB0312012570DC03120125BA
:10192300B5DC03120125D2DC031201258DDD031280
:101933000125E9DD03120125C2DE03120125FDDFC6
:10194300031201258E8904120125BE890412012583
:10195300F38904120125F58904120125F78904127C
:101963000125088A041201250A8A041201250D8A19
:101973000412012522F60312012594F60312012510
:10198300B6F603120125EEF60312012524F703121E
:101993000125AEEA03120125F1EA031201250FEB3B
:1019A3000312012545ED031201257DED03120125E7
:1019B300A1ED03120125188B04120125D6A60312EB
:1019C3000125AFA7031201259AA803120125ABA88D
:1019D30003120125BCA80312012506A90312012540
:1019E30092AA03120125F3AB0312012523AC0312C0
:1019F3000125F1AC0312012551AD031201256E88B7
:101A030004120125DF8804120125EA880412012546
:101A1300FA8804120125D2FF01120125D1FF031216
:101A2300010002020000205104AA1609000102036A
:101A330001090243000201008019090400000102A8
:101A430002010005240010010424020205240600FB
:101A53000105240100010705820340004009040138
:101A630000020A0000000705840240000107050484
:101A7300024000013D1A0000601A0000E066701089
:101A830008A3E066700A08A3E066700408A3E06692
:101A930022C3E7960809E7960809E7960809E79637
:101AA30022C3E09608A3E09608A3E09608A3E09675
:101AB30022C008C3E096F50808A3E096420808A3ED
:101AC300E096420808A3E09645087001D3D00822A7
:101AD300BB0102E722C082C08389828A83BB0003E1
:101AE300E08002E493D083D08222BB000EC082C088
:101AF300838A838982F0D083D08222BB0101F722BB
:101B0300080808EAC0E0EBC0E086F0E7A4FA180989
:101B130086F0E7A42AFA180986F0E7A42AFA180936
:101B230086F0E7A42AFA1986F0E7A4FBE5F02AFA7F
:101B3300190886F0E7A42BFBE5F03AFA190886F0BA
:101B4300E7A42BFBE5F03AFA18180986F0E7A4C5D9
:101B5300F02BFBE43AFA1908E7C5F0C6A426F6E52C
:101B6300F03BFBE43AFA1886F0E7A4F6E5F0082622
:101B7300F6E43B08F6E43A08F6D0E0FBD0E0FA22BC
:101B8300E4CFC0E0E4CEC0E0E4CDC0E0E4CCC0E00C
:101B930075F020C3E633F608E633F608E633F608B5
:101BA300E633F6181818EC33FCED33FDEE33FEEF95
:101BB30033FFC3EC9709ED9709EE9709EF971919CE
:101BC30019400FFFEC97FC09ED97FD09EE97FE19FD
:101BD3001906D5F0BEECF709EDF709EEF709EFF7B3
:101BE300191919D0E0FCD0E0FDD0E0FED0E0FF22CF
:101BF3006016080808C6C313C618C613C618C6134A
:101C0300C618C613C6D5E0EA227009080808226080
:101C130016181818C6C333C608C633C608C633C653
:101C230008C633C6D5E0EA22E627F60809E637F602
:101C33000809E637F60809E637F622E026F608A390
:101C4300E036F608A3E036F608A3E036F622E026EF
:101C5300F008A3E036F008A3E036F008A3E036F07E
:101C630022C3E697F60809E697F60809E697F60809
:101C730009E697F622C3E096F008A3E096F008A3DE
:101C8300E096F008A3E096F022E657F60809E65737
:101C9300F60809E657F60809E657F622E056F6086D
:101CA300A3E056F608A3E056F608A3E056F622E0B2
:101CB30056F008A3E056F008A3E056F008A3E05658
:101CC300F022E046F008A3E046F008A3E046F0085F
:101CD300A3E046F022E066F608A3E066F608A3E078
:101CE30066F608A3E066F622E0F608A3E0F608A38A
:101CF300E0F608A3E0F622E6F008A3E6F008A3E680
:101D0300F008A3E6F022E0FAA3E0FBA3E0FCA3E0E3
:101D1300FD22EAF0A3EBF0A3ECF0A3EDF022CAC09E
:101D2300E0E6F0A308DAFAD0E0FA22CAC0E0E0A3C2
:101D3300C582CCC582C583CDC583F0A3C582CCC57E
:101D430082C583CDC583DAE6D0E0CA22C3E498F81E
:101D5300E499F9121D908026C3E49AFAE49BFBE907
:101D630020E7E9121D90E498F8E499F922C3E49876
:101D7300F8E499F9121D90E498F8E499F9C3E49A08
:101D8300FAE49BFB22EB20E7CFE920E7E0B9001060
:101D9300BB0008E88AF084F8AAF022E4FBC8FA2220
:101DA300EB70227B10C833C8C933C9335007C39AB9
:101DB300C3DBF280069A50012ADBEAC833F4C8C9B0
:101DC30033F4C9FA2275F008E4C833C8C933C933F8
:101DD300C99AC99B5004C92AC93BD5F0ECFBC83347
:101DE300F4C8E4C9FA22600D08C6A2E713C618C6F0
:101DF30013C6D5E0F322600C08C6C313C618C61376
:101E0300C6D5E0F422700422600D18C6C333C60899
:101E1300C633C6D5E0F41822251810AF08F51840CC
:101E23000215198008F51840021519D2AF22C0D047
:101E3300251810AF08F518500205198008F5185039
:101E4300020519D2AFD0D0222518F58210AF08F5BC
:101E530018400215198008F51840021519D2AF85EC
:101E63001983222518F582E43519F58322E47325B5
:101E730018C582C0E0E51934FFC583C0E0E518C387
:101E8300958224F810AF0885831985821880088508
:101E93008319858218D2AFCEF0A3E520F0A378088A
:101EA300E608F0A3DEFAEFF0A3E58124FAF8E608EA
:101EB300F0A3E608F0A3E608F0A30808E608F0A3F9
:101EC300E608F0A315811581D0E0FED0E0F8158176
:101ED30015811581E8C0E0EEC0E0222518C582C057
:101EE300E0E51934FFC583C0E0E518C3958224F902
:101EF30010AF088583198582188008858319858228
:101F030018D2AFCEF0A3E520F0A37808E608F0A33B
:101F1300DEFAEFF0A3E58124FBF8E608F0A3E60878
:101F2300F0A30808E608F0A3E608F0A315811581DD
:101F3300D0E0FED0E0F815811581E8C0E0EEC0E006
:101F430022851983851882E0A3FEE0A3F520780893
:101F5300E0A3F608DFFAE0A3FFE0A3C0E0E0A3C03C
:101F6300E0E0A3C0E0E0A3C0E0E0A3C0E010AF085E
:101F73008582188583198008858218858319D2AFD5
:101F8300D083D082020122851983851882E0A3FEC3
:101F9300E0A3F5207808E0A3F608DFFAE0A3FFE06A
:101FA300A3C0E0E0A3C0E0E0A3C0E0E0A3C0E01072
:101FB300AF0885821885831980088582188583195F
:101FC300D2AFD083D08222C0D02518C582C0E0E52D
:101FD3001934FFC583C0E0E518C3958224F310AF1D
:101FE300088583198582188008858319858218D20C
:101FF300AFC8F0A3E9F0A3EAF0A3EBF0A37908E7F5
:1020030009F0A3D8FAECF0A3EDF0A3EEF0A3EFF000
:10201300A3D0E0F0A3D0E0F0A3D0E0F0A3E520F05C
:10202300A3E5F0F0A322851983851882E0C0E0A31D
:10203300E0F9A3E0FAA3E0FBA37808E0F608A3DF46
:10204300FAE0FCA3E0FDA3E0FEA3E0FFA3E0C0E011
:10205300A3E0C0E0A3E0F5D0A3E0F520A3E0A3F55F
:10206300F010AF0885831985821880088583198548
:102073008218D2AFD082D083D0E0F8D0E03274049B
:10208300800A74038006740280027401C0E0F404C1
:10209300121E4BD0E0121D212274048008740380A9
:1020A3000474028000CCC0E0EDC0E0E518C39CCC12
:1020B300AD1950011D10AF068C188D1980068C18B0
:1020C3008D19D2AF121D2ED0E0FDD0E0FC22D083BB
:1020D300D082E9C0E0E493A3C386F0C5F095F0F99C
:1020E30008E493A386F0C5F095F0700BE493A3C3C3
:1020F300994005E9048002A3E475F002A42582F562
:1021030082E5F03583F583D0E0F9E493A3C0E0E4FE
:1021130093C0E022D083D082ECC0E0EDC0E0E49332
:10212300A3FCE493A3FDED4C600D122163EC24FFAB
:10213300FCED34FFFD80EFE493A3FCE493A3FDEDFA
:102143004C600D1221A2EC24FFFCED34FFFD80EF67
:10215300D0E0FDD0E0FCE493A3C0E0E493C0E02230
:10216300C0E0C3E49396087401939618400FE49378
:1021730066700808740193661870007019A3A3C3EE
:10218300E49396087401939618A3A3400DD0E0D06E
:10219300E0D0E0022153A3A3A3A3A3A3D0E022C0D2
:1021A300E0C0F088F0E49366700808740193661841
:1021B3007000A8F0A3A3700BD0F0D0E0D0E0D0E083
:0A21C300022153A3A3D0F0D0E022C4
:1021D00074F5121EDEEAFEEBFFEE2434F8EF340055
:1021E000F988088909EE2435122308F8EE243712FD
:1021F0002308F50AEC850AF0A4FCAAF0850AF0EDA4
:10220000A42AFDE82CF8E43DF97A257B00121D9004
:10221000EA850882850983F05407F87401B8000242
:102220008004C333D8FCC0E0E0131313541FF8EE4E
:1022300028F8EF3400F9E8245DF582E93400F583ED
:10224000D0E0F8E0586008850882850983801DEE9B
:102250002436122308F5F0EA84A8F0EE28F8EF34CB
:1022600000F9E82438F582E93400F583E0F97F04C9
:10227000021F8A74F5121EDEEAFEEBFFEE24341212
:102280002308C0E0EE2435F582EF3400F583D0E07A
:10229000F08E828F83A3A3A3A3A3E0FAA3E0FB8E17
:1022A000828F83A3A3A3A3A3A3A3E0FCA3E0FDECDD
:1022B000C39AF50AED9BF50BEE2480F508EF340088
:1022C000F509850882F583E06401702BEE2481F521
:1022D00082EF3400F5831220A41223117402121E1F
:1022E00031E960137C677D07EEFAEFFB120EA685DD
:1022F0000882850983E4F0AC0AAD0BEEFAEFFB121D
:1023000021D012286402226EF582EF3400F583E0BA
:1023100022C082C083851882851983E0F8A3E0F982
:10232000C3EA9CEB9D5012C3EC98ED994019C3EAA7
:1023300098EB99501279018010C3EA98EB9940F517
:10234000C3EC98ED9950EE7900D083D08222EAC395
:102350009CFAEB9DFB2200008521878522C622C0C6
:10236000E074EF121FCA759B00906182E0A2E64004
:1023700003022420E591A2E640030224207591BFC8
:1023800090041EE0640570081210B01210BC8003A7
:102390001210B6752100121134E990041FF0790073
:1023A000121116120DC27A017B0090041DE0F91281
:1023B00015F6907803E0644260030224699007F305
:1023C000E014F06003022469C2AF1223CD0078311B
:1023D000D0E0F618D0E0F6E59F5407F9700590912B
:1023E0004180039091457808121CEBE9C4C0E07865
:1023F00030E65508F50808E65509F509740B780824
:10240000121DF9D0E02508F8906270E0A2E740F8CC
:10241000E8C333906272F0906270E0D2E0F08049DD
:10242000E0A2E55024E591A2E5501E7591DF9004ED
:102430001EE0640D7013900440E004F06428700204
:10244000E4F07A00E0F91211F4906181E0A2E35027
:1024500009E5E9A2E3500375E9F7A3E0A2E7500913
:10246000E591A2E7500375917F7F04022029C0E027
:10247000C0D0C082C083906183E0A2E05009E5BF74
:10248000A2E0500375BFFEE0A2E15009E5BFA2E162
:10249000500375BFFDE0A2E25009E5BFA2E2500380
:1024A00075BFFBE0A2E35009E5BFA2E3500375BF8F
:1024B000F7E0A2E45009E5BFA2E4500375BFEFE0E6
:1024C000A2E55009E5BFA2E5500375BFDFE0A2E633
:1024D0005009E5BFA2E6500375BFBFD083D082D0BC
:1024E000D0D0E032C0E074F2121FCAE5A7A2E450D7
:1024F0000FE5A1A2E4500953A7EF75A1EF1225380B
:10250000E5A7A2E5500CE5A1A2E5500653A7DF75AB
:10251000A1DFE5A7A2E15009E5A1A2E1500375A161
:10252000FDE5A7A2E2500CE5A1A2E2500653A7FBED
:1025300075A1FB7F0102202974F8121EDE752101AE
:1025400090041EE0640670077A007B00121098A2C7
:10255000AFE433FED2AF900424E0640170187A2017
:102560007B0090041DE0F912167A7A207B0090041B
:102570001DE0F91215FC906182E0D2E6F09007F2BE
:10258000E0602185C6228016900423E06401700873
:10259000E5C654F84405F5C653BEFC122358740131
:1025A000652160E4EEA2E092AF7F01021F8A000085
:1025B0008E238F2485822885832785188285198319
:1025C000E0CEA3E0CF852882852783EBC9EAC8ED5A
:1025D000CBECCA75F010C3E833C8E933C9EA33CA93
:1025E000EB33CBC3EA9EF526EB9FF525B35004AB46
:1025F00025AA26EC33CCED33CDD5F0DAAE23AF24CB
:102600002274F1121EDE8A088B098C0A8D0B740F5E
:10261000121E66780C121CEB9091A17808121C9F78
:102620009091A1780C121C9F7808790C121A945082
:10263000157808790C121C649091657808121AB408
:10264000401579018013780C7908121C649091650B
:10265000780C121AB440EB79007F08021F8A74EDDF
:10266000121EDE8A088B098C0A8D0B7413121E66EB
:10267000780C121CEB9091A17808121C9F9091A1EC
:10268000780C121C9F780C7908121A944011780863
:10269000790C121C64AA08AB09AC0AAD0B80227538
:1026A00010007511007512007513017810790C1265
:1026B0001C6478107908121C2BAA10AB11AC12AD57
:1026C000137F0C021F8A9091A17808121CEB8A825A
:1026D0008B837808121CB27F04021F8A74F5121EC5
:1026E000DE8C828D837808121CEB8A828B837808BB
:1026F000121C78122730C3E098F0A3E09912272229
:10270000401E9091B17808121CEB8A828B83780866
:10271000121C518E828F83E02420F0A3E0344EF00F
:1027200080A4F08E828F83C3E09420A3E0944E2295
:10273000EA2404F8EB3400F9E8FEE9FF8C828D838B
:10274000A3A3A3A3E0F8A3E0F98E828F832274F5FC
:10275000121EDEE9FE90077EE0FAA3E0FBEEC33333
:10276000F8E433F9749928F582749039F583E02AF6
:10277000F508A3E03BF50978081220899091B91279
:102780001D091225B07402121E318A088B098C0AA9
:102790008D0B74107808121BF3AA08AB097F040292
:1027A0001F8A74F1121EDE8A0C8B0D8C0E8D0F7435
:1027B0000F121E66E0FAA3E0FB7411121E66E0F52C
:1027C00008A3E0F5097413121E66E0FEA3E0FF788B
:1027D00008122089EA2401F508EB3400F509E4F534
:1027E0000AF50B780C7908121B0390917178081286
:1027F0001CEB780C7908121B03AA0CAB0DAC0EADC8
:102800000F1225B07402121E318B09EA45096004CB
:102810007A0180027A00EC2AFCED3400FDECF8ED40
:10282000F97A717B02121D9088088909E4F50AF58E
:102830000B8E828F837808121CFAECF8EDF97A710E
:102840007B02121D908A088B0974057808121E08F5
:102850008E828F83A3A3A3A3E508F0A3E509F07FED
:1028600008021F8AC082C083E9906000F0D083D044
:102870008222C0E074F2121FCAA2AFE433FED2AFCC
:10288000E58AA2E25007900E74E0D2E0F0E58AA259
:10289000E35007900E74E0D2E1F0758A00C2EB7A43
:1028A000107B00900E70E0F91215F6EEA2E092AFE8
:1028B0007F01022029C0E0C0D0E8C0E0E5A8D2AF87
:1028C000C2C7A2E792AFD0E0F8D0D0D0E032C0E0EB
:1028D00074F1121FCAE59DA2E650FA906206E0FA72
:1028E000A2E25035A82EE890620BF0F508852F097A
:1028F00074047808121DF9E508906207F0852E0827
:10290000852F0974097808121DF9E508543E906274
:1029100009F0906201E0D2E0F0782BEA46F690628E
:1029200002E0F50875090074047808121E08782B77
:10293000E50846F608E50946F6906204E0F50875F4
:10294000090074097808121E08782CE50946F6EA91
:10295000A2E05003752D0174065A6003752D00E541
:102960008BA2E55006758BDF752D0012196E758BE5
:1029700000C2E87F02022029FFFFFFFFFFFFFFFFE9
:1029800074F4121E72E990041DF01210DA907800AF
:10299000E0C4540F540764037004793F8002797FC8
:1029A00075080675090078081220897C0B7D047A69
:1029B000EA7B0712178E7402121E3190040BE0F4AA
:1029C0007049A3E0F47044A3E0F4703FA3E0F47016
:1029D0003AA3E0F47035A3E0F4703090780EE09004
:1029E000040BF090780FE090040CF0907810E090D9
:1029F000040DF0907811E090040EF0907812E090C1
:102A0000040FF0907813E0900410F0900411122B52
:102A100065124E2290043B7406F0A3740D1237AA7F
:102A20007432F0A37401F0900772122B6590077155
:102A3000E4F0900778F0A374A01237AA7403F0A30F
:102A400074071237AA74281237AA04F0A3E4F0908E
:102A500007A1F09007C7122B659007C6E4F0900716
:102A6000CD041237AA122B53E4F0A304F0A31237BB
:102A7000AA1237A8F09007DE122B659007DDE4F06C
:102A80009007E404F0A3E4122B531237A8F0A374C8
:102A900005F09007EE74FFF0A3E4F09007F0F090DB
:102AA00007F204F0120DDA120BD012108079017ABD
:102AB000F37B07120F249007F3E075F01484E5F020
:102AC00004F0790C7A147B08120F24120F487A0054
:102AD00090041DE0F912164A907803E06442705E9B
:102AE0009007F3E014F07056C2AF122AED0078316F
:102AF000D0E0F618D0E0F6E59F5407F97005909104
:102B00004180039091457808121CEBE9C4C0E0783D
:102B100030E65508F50808E65509F509740B7808FC
:102B2000121DF9D0E02508F8906270E0A2E740F8A5
:102B3000E8C333906272F0906270E0D2E0F09004EB
:102B400048E4F0A3F07A80FB90041DE0F91215F63A
:102B5000023B56122B5C122B5CF0A322F0A3748074
:102B6000F0A374022274FF122EC3F0A3F02274F6B5
:102B7000121E72EAFEEBFFEEA2E0504390041FE04B
:102B8000C39480E0500FC333F8E433F974A128F5FF
:102B9000827410800EF4C333F8E433F974AF28F56F
:102BA00082741039F5831243F7121E707A00900474
:102BB0001DE0F912164AEE6401FAEFFB022D8A5469
:102BC0000860459007EC122DE27508007808122085
:102BD0008D122DB8121DF97808122089EA243012BE
:102BE0002D8D1220A4122DC9122089750861750936
:102BF000077808122089900760E0FD7C00122DA064
:102C0000121E31EE640880B1EE5410603E7508006B
:102C1000780812208DE4F5097808122089780812C6
:102C200020897808122089750861750907780812CB
:102C30002089900760E0FD7C007A007B0079021219
:102C40002DB2121E31EE6410022BB9EE5402603622
:102C5000750800780812208DE4F50978081220899B
:102C6000780812208978081220897508617509078B
:102C70007808122089122D94793C122DB2121E313F
:102C8000EE6402022BB9EE5404604E90044C122DF7
:102C9000E2EA242AF582EB1243E9F50878081220CB
:102CA0008D122DB8121DF97808122089EA242012FD
:102CB0002D8D1220A4122DC9122089750861750965
:102CC000077808122089900760E0FD7C01122DA092
:102CD000121E31EE6404022BB9EE544060367508C2
:102CE00000780812208DE4F5097808122089780808
:102CF00012208978081220897508617509077808FB
:102D0000122089122D94793B122DB2121E31EE64DD
:102D100040022BB9EE548060227900121644909143
:102D20007912209C7A007B0190041DE0F912166E46
:102D30007404121E31EE6480022BB9EF5401600D51
:102D40007901121644EEFAEF6401022BBB900424C1
:102D5000E064017031EE5420602C90041EE024F9F0
:102D6000600314701B793F90044CE0FA75F006A4E0
:102D7000CAA8F028FB744E2AFA74043BFB120ED644
:102D8000EE6420022BB97A007B00023BD2F582EB85
:102D900012475F22900760E0FD7C017A007B0022F1
:102DA0008A828B83A3A3A3A3E0FA7B007900122D70
:102DB000B222120A9E740922EA2432F582EB1247EB
:102DC0005F1243D77404780822EA242EF582EB12AE
:102DD0004917F508A3E0C313F509E50813F50878CA
:102DE0000822E0F875F006A4C8AAF0122DEF222AF6
:102DF000F9744E28FA740439FB22C082C083C2AF32
:102E00001210B6E5E170FC75E10112382F1210F2D4
:102E100079071211AC79011211B2790212111C1248
:102E2000115212118E79001211A079011211A09085
:102E30009175121D09121104900760E4122B67A30B
:102E4000F0900778F0A3F0A3F090077C7407F0905F
:102E5000077B7403F0900781E4F0900780F09007FF
:102E6000A1F09007CEF09007E5F0120EBE120FEA27
:102E7000120EE279001211B890076774FF122EC388
:102E8000741FF0906012E4F0A3F0906063F075217D
:102E90000090041EF0900420F0A3F090076CF090D6
:102EA000076D04F090076EE4F0900423F090042482
:102EB00004F090043A7403F09007F1E4F0D2AFF913
:102EC000024AD2F0A3F0A3F0A3F0A322C082C083F1
:102ED00090040BE08A828B83123CD78A828B83A377
:102EE000123CD18A828B83A3A3123CCB8A828B8330
:102EF000A3A3A3123CC58A828B83A3A3A3A3F090B0
:102F00000410E08A828B83A3A3A3A3A3024ACFC0A9
:102F100082C0838A828B83E0900411122F45E09057
:102F20000412122F45A3E0900413122F45A3A3E02F
:102F3000900414122F4AE0900415122F4AA3E09037
:102F40000416024ACF122F52A322122F52A3A3A378
:102F5000A322F08A828B8322C082C083120DE6E90D
:102F600070051211527900024AD274F7121E72EAE9
:102F7000FEEBFF8908120DE6E9702CE508600A7483
:102F8000016508600A7912801E7C00790080047C4B
:102F9000007901EEFAEFFB12115EE9F87403687034
:102FA00004790780027900023B9474F7121E72EADA
:102FB000FEEBFF8908120DE6E9702DE508600A7442
:102FC00001650860087912801F790080027901EE9E
:102FD000FAEFFB121164E9F87404687004791F8039
:102FE0000774056860F77900023B9474F7121E724B
:102FF000EAFEEBFF121158023B8C74F6121E72743B
:103000000A121E66124B5C600AEC4D6006E508452C
:103010000970047912800F7808122089120F3C740D
:1030200002121E317900023BD274F4121E72EAFEC3
:10303000EBFF890890041EE064096014E0640A60F4
:103040000FE0640B600AE0640C6005E0640D70043E
:10305000790C801E1210148B0BEA450B700BA9081B
:10306000EEFAEFFB120F248009900420E04440F0B8
:10307000790D023B5674F4121E72EAFEEBFF890BC7
:10308000EE4F6003E970047912801F750A00120F79
:103090001E850A08EE2508F582EF122D90E9F0054D
:1030A0000AE50AC3950B40E67900023B5674F71215
:1030B0001E728A828B83E04433F0A3A882A983E046
:1030C0004433122F52E0D2E6F0EA2403FCEB340042
:1030D000FD8C828D83E0D2E4F0EA24021231FD44BB
:1030E000C0124E1D4403124E16440F122F52E044DC
:1030F0008C124E0CE044CC124E1D440C124E164461
:1031000030023B91C082C0837C008C82A88279000F
:1031100012490CC0E0EA28122D8DD0E0F00CECC36F
:10312000940840E6024AD274F7121E727409121E05
:10313000661239FE90043BE08A828B83F090043C57
:10314000123E628C828D83123EAA90043E123E6231
:1031500088828983EAF0A3EB023B91C082C083E9B5
:10316000F8740168700B9007F17401F07900024A5D
:10317000D2E870069007F1E480F1791280F074F7DC
:10318000121E721248F97058EEF8EFF9E875F00661
:10319000A4C8AAF02AFA75F006E9A4122DEF8A82D3
:1031A0008B83A3A3A3E0700479028034EA24ED1298
:1031B0003208702FEA24F3122D8D1220A4EA24F194
:1031C000122D8D1220A4EA24F0F582EB1243E9FCC3
:1031D000EEFAEFFB7900120AB67404121E31790080
:1031E000023B94EA24EE1231FD700E790C120E941B
:1031F0008E828F837401F080E5793A80E3FEEB34B0
:1032000000FF8E828F83E022F582EB124917640162
:103210002274F7121E72ECFEEDFFEE4F700479126D
:10322000801AEA600514600B80F4123B7E700B7903
:103230003080098E828F837404F07900023B94748D
:10324000F5121E72890AEAFEEBFF8908AA087B00C4
:103250001248FD7032A80A12329E245DF582E912EE
:1032600043E98E828F83F0E8245E12328CF0E824EA
:103270005F12328CA3F0E824601232B2F0E82461CD
:103280001232B2A3F079007F03021F44123290225F
:10329000F582E93400F583E08E828F83A322E875FE
:1032A000F006A4C8AAF02AF9744E28F8740439F973
:1032B000E822123290A3A32274F6121E72EAFEEBE9
:1032C000FF8C088D0990041EE0640C700590618EDF
:1032D00080121248FD702F12509B74B72EF5827425
:1032E000043FF583E0F9748069700A8508828509D6
:1032F00083747F800E900422E0F8E9C398850882E9
:10330000850983F07900023BD274F7121E72EAFE3F
:10331000EBFF89087405650860287413650860224E
:1033200074146508601C741565086016741A6508C5
:10333000601074296508600A743B6508600479129E
:1033400080401248FD703B123F57241DF8EB3400BB
:10335000F9EA24F7FCEB3400FDEA246A1232087023
:1033600019EA246BF582EB1243E964027004793A9E
:103370008010123385120EA08006123385120E942F
:103380007900023B948C828D83E508124E10E4F0A4
:10339000A3F079022274E8121E7274FE121E1BE959
:1033A000851882851983F08A0C8B0D8C0A8D0B741D
:1033B0001A121E66E0F508EC450B6016851882852A
:1033C0001983E0C3941C500AE508600B740165087A
:1033D0006005791202364A1248FD600302364AA897
:1033E0000CE875F006A4C8AAF02AFA75F006E50DF7
:1033F000A42AF9744E28FE740439FFEE2465F510F2
:10340000EF3400F5118510821236544970C4A2AF12
:10341000E433C0E07401121E66D0E0F0C2AF1210B7
:10342000148A148B158A828B83E0F87440686017C5
:10343000748068600302361090044CE0650C7002E2
:10344000E50D60030236101210CE8A0C8B0D12109F
:10345000CEEA650C7003EB650D7003023610125155
:1034600026E5142402F516E5153400F51790919D14
:10347000780C121C3E780C122081851682851783E9
:10348000121D09124A76121E31E9640160030236E8
:1034900010E508F509780912208D7401121E66E006
:1034A000F9AC0AAD0BEEFAEFFB120F067401121E17
:1034B00031E9600302361090076DE0640160030299
:1034C0003602EE241DF582EF3400123654497003A3
:1034D000023602125126EE242EF508EF3400F509CB
:1034E000850882F583E0F510A3E0F511E4F512F507
:1034F00013780C7910121C2B9091CD780C121C3E75
:10350000780C122081851682851783121D09124AB4
:1035100076121E31E964016003023602E5142408C4
:10352000F50AE5153400F50B850A82F58312209C17
:10353000AA0CAB0DAC0EAD0F124A70121E318508ED
:10354000828509831220A41225B07402121E318ACA
:103550000C8B0D8C0E8D0F7410780C121BF38E8259
:103560008F83A3A3A3A3A3A3A3A3A31239FE8E8235
:103570008F83A3A3A3A3A312442AE8250CF8E9355B
:103580000DF98E828F83A3A3A3A3A3A3A312442A1E
:10359000850A82850B83C082C08385088285098362
:1035A000123E7C780C7908121B03D083D082780CF1
:1035B000121C3E9091A1780C121C9F8516828517D3
:1035C00083E50CF0A3E50DF0A3E50EF0A3E50FF005
:1035D000851482851583A3A3A3A3A3A3E4F0A3F07A
:1035E000EE24351243E6C0E0EE2434F582EF122DCE
:1035F00090D0E0F0EEFAEFFB122273AA14AB151292
:103600000FF67401121E66E0A2E092AF7900803AD4
:10361000851082851183E50AF0A3E50BF0851882F9
:10362000851983E0C0E0EE2463F582EF122D90D07F
:10363000E0F0EE2464F582EF122D90E508F07401BD
:10364000121E66E0A2E092AF79077402121E317F6B
:1036500010021F44F583E0F8A3E0F9E82274F512A4
:103660001E72E9FEEAFF8B0AEEC394285033EFC3C3
:103670009426502DEB602F7401650A602974026551
:103680000A60237403650A601D7404650A60177478
:1036900005650A60117406650A600B7407650A60A7
:1036A00005791202375790041EE060057921023730
:1036B00057124C8B121D0912379E90043AE0F912F2
:1036C0000DCE74022FF5D9850AD98FD9E50A601776
:1036D00014602014602A14606814603114603B1474
:1036E000604514604F80BA7800E8C39F5053124C75
:1036F0009D80F67800E8C39F504775D90F0880F584
:103700007800E8C39F503A75D9550880F57800E8ED
:10371000C39F502D75D9FF0880F57800E8C39F50EE
:103720002075D9000880F57800E8C39F501375D93B
:10373000F00880F57800800475D9AA08E8C39F4096
:10374000F775E195EE900440F0EFA3F0E50AA312BF
:1037500037B07409124CAE02328774F7121E72E948
:10376000FEC3942840047912803190041EE0600466
:1037700079218027124C9779001211E29091D91289
:103780001D0912379EEE9004401237AA74FF1237BB
:10379000B0740AF079181211A67900023B94121144
:1037A000467A00EE124C81227425F0A3E4F0A322A5
:1037B000F0A3E4122EC37480F090041E2274F6125B
:1037C0001E7290041EE064096009E0640A600479D6
:1037D000218059E5E170FC75E101E0640970147A1B
:1037E000437B041211E879051211BE79007A007B3F
:1037F00000802DE0640A702B75084775090478086D
:103800001220897C457D047A437B041211EE7402F8
:10381000121E3179051211BE7901900443123E62E5
:10382000120ACE12382F90041EE4F0F9023BD21295
:103830000DAA120D9E75E1F12274F3121E72EAFEBA
:10384000EBFF8908740D121E66E0F509740E121E56
:1038500066E0F50A740F121E661239FE7411121E0C
:1038600066E0F50B7412121E66E0F50CE508603890
:1038700074016508602274036508600674026508B7
:103880007068EE2460FAEF1239ED505EEC2460FAB5
:10389000ED1239ED40268052E849604EE50A601C81
:1038A0007401650A70448014EE24E0FAEF1239E2E4
:1038B0005038EC24E0FAED1239E2502EC3EC9EEDC4
:1038C0009F4027E509600674016509701DE50C60DD
:1038D000127401650C600C7402650C60067403655B
:1038E0000C70077407550BFA700579120239DD90D8
:1038F0000778E064017005790C0239DDE50890076E
:103900007BF0EAA3F0E50CA3F0E5099007717027BE
:10391000E4F090040BE0900772123CD7900773120A
:103920003CD1900774123CCB900775123CC59007B0
:1039300076F0900410802E7401F0900411E090074E
:1039400072F0900412E0900773F0900413E0900777
:1039500074F0900414E0900775F0900415E090075F
:1039600076F0900416E0900777F074016508703CDB
:10397000E50A900760124E0CE0900761123A04E0ED
:10398000900762123A04A3E0900763123A04A3A3DB
:10399000E0900764123A09E0900765123A09A3E043
:1039A000900766F0900779E4F0A3802EE50C700490
:1039B0007900801C7401650C700479018012740216
:1039C000650C7004790280087403650C7005790336
:1039D00012116A900779EEF0A3EFF079007F0502EB
:1039E0001F4434FFFBC3EA94E1EB943F2234FFFB16
:1039F000C3EA9461EB943F22851882851983E0F82D
:103A0000A3E0F922124E10A322124E10A3A3A3A3E7
:103A10002274F6121E72E9FEC394204004791280CB
:103A200029EE900781F0601AEA4B60F1123BD71241
:103A30002089EAFCEBFD7A827B0712159C74021246
:103A40001E319007807401F07900023BD274F412A9
:103A50001E72E9FE90041EE064096014E0640A60CE
:103A60000FE0640B600AE0640C6005E0640D700513
:103A70007921023B5690077BE0F8600F7401686083
:103A80000A74036860057402687023900771E0F996
:103A900060057401697017740368600574026870CA
:103AA00012900779C3E094A0A3E094005005791226
:103AB000023B56EE60651470F5900778E064016093
:103AC000AFE860057401687008121020E954FD70B9
:103AD0009F790112100890076F123EAA9007787420
:103AE00001F090041EE0706C123E4B9091C9780872
:103AF000121C3E9091A17808121C9F90076F123EF5
:103B000068121CFA90076F123E9E120DECE96006D7
:103B1000123B5B023A70120FF08039900778E07028
:103B200003023A70A2AFE433FFC2AF123B5B121044
:103B30002CE9701B123E57E5E170FC75E1017591AF
:103B4000BF75E1F1900424E064017003123E85EF3B
:103B5000A2E092AF79007F04021F447A6F7B0712C4
:103B6000100E900778E4F02274F7121E72EAFEEB52
:103B7000FF123B7E70047930800279008016120DAE
:103B8000D4E9F88E828F83F074806822E98E828F68
:103B900083F079007F01021F4474F6121E72E9FE61
:103BA000C39420400479128029EE9007A1F0601A96
:103BB000EA4B60F1123BD7122089EAFCEBFD7AA2B6
:103BC0007B0712159C7402121E319007807401F05D
:103BD00079007F02021F44E0F50875090078082289
:103BE00074F7121E72E9FE7409121E66E0FF740A71
:103BF000121E66E0F508EE600574016E7028EF6035
:103C00000574016F7020123E42501BEC24FCF8ED4D
:103C1000123E475011C3EA9CEB9D400AE508600B39
:103C20007401650860057912023CC29007CEE06419
:103C3000017005790C023CC2EEA3F0E5089007D4B0
:103C4000F0EF9007C67027E4F090040BE09007C7F0
:103C5000123CD79007C8123CD19007C9123CCB90B8
:103C600007CA123CC59007CBF0900410802E740157
:103C7000F0900411E09007C7F0900412E09007C89C
:103C8000F0900413E09007C9F0900414E09007CA84
:103C9000F0900415E09007CBF0900416E09007CC6C
:103CA000F09007D0123EAAA3ECF0A3EDF0E5087067
:103CB000047900800874016508700579011211709B
:103CC0007900023B94F090040FE022F090040EE0A3
:103CD00022F090040DE022F090040CE02274F41223
:103CE0001E72E9FEEAFF90041EE064096014E064BD
:103CF0000A600FE0640B600AE0640C6005E0640D8C
:103D000070057921023E3F9007CFE0F8600574010D
:103D100068703A9007C6E0F86005740168702E90EC
:103D200007D0123E62123E425023A312365624FCA4
:103D3000FCE934FFFDC3EC94FDED943F500FC3EA62
:103D400098EB994008EF600A74016F6005791202E0
:103D50003E3FEE607C1470F59007CEE0640160A2F7
:103D600079021210089007C4123EAA9007CE74017F
:103D7000F09007CDF0EF9007D5F090041EE06003BF
:103D8000023E3D120E10123E4B9091C57808121C57
:103D90003E9091A17808121C9F9007C4123E6812B1
:103DA0001CFA9007C4123E9E9007C41243EDC082D5
:103DB000C0839007D2123E7CD083D0827808121C38
:103DC0003E9007C4123E6E7808121CFA120FF08063
:103DD0006C9007CEE07003023D02A2AFE433F50819
:103DE000C2AF7AC47B0712100E9007CEE4F0121017
:103DF0002CE97020123E57E5E170FC75E1017591E8
:103E0000BF79011211B275E1F1900424E0640170F0
:103E100003123E85E508A2E092AF9007D4E0F87463
:103E20000168700512118E8014A3E06401700EE821
:103E3000700B12115212118E790112119A7900022F
:103E40003B56EA24FCF8EB12440A221210C88A08F6
:103E50008B098C0A8D0B221210B6906182E0C2E6AB
:103E6000F022E0FAA3E0FB221243F1780822E024DA
:103E70000EF8A3E03400F988828983221243D7E444
:103E8000F50AF50B227A207B0090041DE0F912164A
:103E90007A7A207B0090041DE0F91215FC2212436F
:103EA000F1A3A3A3A3E4F0A3F022EAF0A3EBF02292
:103EB00074F6121E72EAFEEBFF8C088D0990041E48
:103EC000E064076004790C8049EC450970047912BC
:103ED00080401248FD703B12494E7E008E82AC82BB
:103EE000E5082CF582E5091243E9C0E0C3E49CF83B
:103EF00095E0F9EA28F8EB12491DD0E0F00EEEC388
:103F0000941040D8EA24D4122D8D7401F079051252
:103F1000468B023BD274F7121E72EAFEEBFF90044E
:103F20001EE064076004790C802A1248FD70251297
:103F30003F5724DD123208700DEA24F7122D8D74DC
:103F400006F07902800BEA24DE122D8D7406F079DA
:103F50000D12468B023B94124952EA2274E8121E5B
:103F60007274FC121E1B7402121E66123EAA851881
:103F700082851983ECF0A3EDF08915741D121E667D
:103F8000E0F50AA3E0F50B741F121E66E0F5147449
:103F900020121E661243D77422121E66E0F516A385
:103FA000E0F5177426121E66E0FEA3E0FF742812E7
:103FB0001E66E0F50CA3E0F50D742A121E66E0F50E
:103FC0000EA3E0F50F9007E5E064016007790412A5
:103FD00043DF700579210243D290041EE06409603A
:103FE000F3E0640A60EEE0640B60E9E0640C60E416
:103FF000E0640D60DF7402121E66124400505685A4
:104000001882851983124400504B7402121E66C038
:1040100082C0831239F8D083D082C3E098A3E0999C
:104020004033E51560087401651570298006E50ABE
:10403000450B6021741C121E66E06004640170155B
:10404000E514600674016514700BC3E50E950CE56C
:104050000F950D500579120243D2E50824FAF8E5D0
:104060000912468250EFE51624FAF8E51712468247
:1040700050E3C3E5169508E517950940D874241256
:104080001E66C3E094F4A3E0940150C91246745034
:10409000C479011243DF701290077BE0F8700302CD
:1040A0003FD47401687003023FD479401243DF703B
:1040B00003023FD4851608851709E508C333F508C0
:1040C000E50933F5097424121E66E02401F510A3F6
:1040D000E03400F511E4F512F51385080C85090D9F
:1040E000F50EF50F7810790C121B038E0C8F0D74E2
:1040F00003780C121E08780C7910121A94400302EF
:104100004055120EDCE964017005793A0243D29001
:10411000044BE0605785080C85090D7AFF7BFF1280
:104120000ECA8A088B0974037808121DF990044B93
:10413000E0F8C3E50898E50994005005793B02438F
:10414000D2C3EA950CEB950D5010A80CA90D121DC9
:10415000908B09EA450970E48012EAF8EBF9AA0CA1
:10416000AB0D121D908B09EA450970D0E515700959
:10417000E50A450B7003024055120EB28A088B09FE
:10418000A808A909E849700579090243D2E824047E
:10419000F50CE93400F50D850C82F583E09007EC11
:1041A000F07402121E661239FE9007E612442A12BB
:1041B00039F89007E812442AE5159007EBF07A00E9
:1041C0008A82A882124754E0C0E0E50828F8EB3460
:1041D00000F9E8245DF582E9122D90D0E0F00AEABA
:1041E000C3940540DBE508245DFCEB3400FDAA0820
:1041F000120EA6E5082436F582E5091243E9C394B8
:1042000002500AAA08AB09120EB8024055850A826C
:10421000850B83E090076112441EE0900762124410
:1042200015E0900763124415A3E090076412443030
:10423000E0900765124430A3E0900766F0E5149023
:1042400007DDF0702590040BE09007DE123CD7905C
:1042500007DF123CD19007E0123CCB9007E1123C03
:10426000C59007E2F0900410802B900411E09007B5
:10427000DEF0900412E09007DFF0900413E0900766
:10428000E0F0900414E09007E1F0900415E090074E
:10429000E2F0900416E09007E3F0741C121E66E052
:1042A000900760F0120EE8E5082426F582E5091271
:1042B0002D90121D15120D4AE5082422F582E509FC
:1042C000122D90121D15E508242EF582E509122DF8
:1042D00090E516F0A3E517F0E5082432F582E5092C
:1042E0001246917424121E661239FEE5082430F538
:1042F00082E5091244279007EDE0C0E0E508242A92
:10430000F582E509122D90D0E0F0E508242BF58226
:10431000E509122D907402F0120F1EE975F00C845D
:10432000E5F02405C0E0E5082437F582E509122D03
:1043300090D0E0F09007EA7425F090044BE0C3942D
:10434000024005790112111679041210089007DB5A
:10435000123EAA9007E57401F09007DBE0241612E4
:104360003E717434F0A3740EF09007DBE024141255
:104370003E717417F090041EE070551210C88A1038
:104380008B118C128D139091C17810121C3E90915C
:10439000A17810121C9F9007DB1243ED7810121CBD
:1043A000FA9007DB123E9E9007E8123E7C78107967
:1043B00008121C2B9007DB123E6E7810121CFA8537
:1043C0000C82850D83E0F9120E16120E1C120FF0EE
:1043D0007900740402364CE0F508A3E0F5092212D6
:1043E000101AE9640122F582EF124917221243F1F3
:1043F000221243F7A3A322E0F8A3E0F583888222E8
:10440000E024FCF8A3E012440A2234FFF9C3E89444
:10441000FDE9943F221244192212441EA322F08582
:104420000A82850B83A32212475FE8F0A3E9F022FA
:10443000124419A3A322C082C0839007E5E060085C
:10444000790412101AE97004790C80189007E5E4D9
:10445000F012102CE9700B900424E0640170031238
:104460003E857900024AD2C082C083C3EB940F50CC
:1044700009C3EA9403EB9400400479128024EA759E
:10448000F006A4CAA8F028F875F006EBA428FB747F
:10449000512AF58274043BF583E0700479028002AE
:1044A0007900024AD274EA121E728A088B097416C5
:1044B000121E66E0F512A3E0F5137418121E66E0F2
:1044C000F514A3E0F515741A121E66E0FEA3E0FFD2
:1044D00090041EE064086005790C02466FEC24FA33
:1044E000F8ED1246825025E51224FAF8E51312463B
:1044F000825019C3E5129CE5139D4010C3E5149446
:10450000F4E51594015005124674400579120246EF
:104510006F1248FD600302466FE50875F006A4C5FA
:1045200008A8F028F875F006E509A428F509744EE6
:104530002508F51074043509F511E510246FF5828E
:10454000E5111243E9600DE510246BF582E51112C7
:1045500043E9600DE5102474F582E51112320B7009
:1045600005793A02466FE512C333FAE51333FBE5EA
:10457000142401F508E5153400F509E4F50AF50BF6
:104580008A0C8B0DF50EF50F7808790C121B038E33
:104590000C8F0D7403780C121E08780C7908121A0F
:1045A00094400302450C90044BE0C3940240558AAA
:1045B000088B097AFF7BFF120ECA8A0A8B0B7403E1
:1045C000780A121DF990044BE0F8C3E50A98E50B50
:1045D00094005005793B02466FC3EA9508EB9509B4
:1045E0005010A808A909121D908B09EA450970E42A
:1045F0008012EAF8EBF9AA08AB09121D908B09EAC0
:10460000450970D0E5102477F582E511122D9074DC
:1046100002F0E5102478F582E511122D90E4F0A364
:10462000F0E5102430F582E51112477EE51024757F
:10463000F582E511124427E510247AF582E511127E
:104640002D90E512F0A3E513F0E510247CF582E54A
:1046500011122D90E514F0A3E515F0E510247EF578
:1046600082E5111246917900AA10AB1112468B7F98
:104670000E021F44EE24F6F8EF124E539477E9949D
:104680000C22124E53947BE9940C22120E94790062
:104690002212475FEEF0A3EFF02274F7121E72EAC7
:1046A000FEEBFF90041EE064086005790C024751A0
:1046B000EE4F700579120247518E828F83A3A3A318
:1046C000A3E054E070EE120EACE9640170E67508E8
:1046D0000012476470271232A8246FF582E9124352
:1046E000E9600BE8246BF582E912320B600BE824D9
:1046F00080F582E912320B7004793A80540508E59E
:1047000008C3940340CB750800850882A882EE2870
:104710001243E6C0E0124754D0E0F00508E508C3B4
:10472000940540E5750800124764701A122DF1EAED
:104730002430F582EB12477EEA2481F582EB1244A5
:10474000277901120E940508E508C3940340D8792F
:1047500000023B94746728F582740712475F223485
:1047600000F58322A808E875F006A4C8AAF02AF983
:10477000745128F582740439F583E06401221249EA
:10478000172407F8A3E03400F92274F2121E72EA2B
:10479000FEEBFF8C088D09740E121E66E0F50CA36B
:1047A000E0F50D7410121E66E0F50AA3E0F50B901B
:1047B000041EE064086005790C0248F4EC450960C9
:1047C0000CE50C450D6006E50A450B7005791202F3
:1047D00048F41248FD60030248F4125094FE740439
:1047E0003FFFEE24E41243E670257A008A82A88215
:1047F00012490CC0E0EE28F8EF3400F9E824E5F5A2
:1048000082E9122D90D0E0F00AEAC3940840DDEE70
:1048100024E51243E6A2E0400579110248F47A004B
:104820008A82A882E50828F582E5091243E9C0E0FA
:10483000EE28F8EF3400F9E8249CF582E9122D9077
:10484000D0E0F00AEAC3940840D6850C82850D8337
:10485000E0C0E0EE24A4F582EF122D90D0E0F085C8
:104860000C82850D83A3E0C0E0EE24A5F582EF1253
:104870002D90D0E0F07A008A82AC82E50A2CF58295
:10488000E50B1243E9C0E0C3E49CF895E0F9EE289B
:10489000F8EF12491DD0E0F00AEAC3941040D8EEB8
:1048A0002494FAEF3400FB120F2AEE2488FAEF3436
:1048B00000FB120F30900420E04480F0EE246212DE
:1048C000490224D312490224D412490224DDF8EF0C
:1048D0003400F9EE2483F582EF12320B888289834B
:1048E00070077401F0790A8004E4F07903EEFAEFBE
:1048F000FB12468B7F06021F44EAFEEBFF120C9C64
:10490000E922F582EF12475FE4F0EE22743228F5D7
:10491000827404124917223400F583E02239F9E841
:1049200024D2F582E912475F2274F7121E72EAFE62
:10493000EBFF90041EE064086004790C800D1248BF
:10494000FD7008790812494E12468B023B941249B9
:1049500052221250A3744E2EFA74043FFB2274F0BC
:10496000121E72124A88600A7401650A6004791284
:104970008059EE4F603A124A7C1220818E828F83DA
:10498000121D09124A76121E31E9602B780C122092
:10499000818E828F83121D09124A70121E318A0C79
:1049A0008B0D8C0E8D0F9091BD780C121AB45007A0
:1049B000A90A120DC88012E50A9004207005E0448F
:1049C000018003E0440212513679007F08021F443F
:1049D00074F0121E72124A8860167401650A601023
:1049E0007402650A600A7403650A60047912807DA6
:1049F000EE4F603A124A7C1220818E828F83121D04
:104A000009124A76121E31E9602B780C1220818E31
:104A1000828F83121D09124A70121E318A0C8B0D6F
:104A20008C0E8D0F9091BD780C121AB45007A90A04
:104A3000120DCE8036E50A600B1460101460151458
:104A4000601A801F900420E044048016900420E047
:104A50004408800E900420E044108006900420E07A
:104A60004420F0850882850983E4F079000249CB6F
:104A700012265E740422122601740422EE24020E11
:104A80000EEF3400FF780C22890A8A088B09121075
:104A9000148A0C8B0DAE0CAF0D12512A850882853D
:104AA00009837401F0E50A22C082C083E9F8900707
:104AB0006CE0F9E8600E14700E7401F0E069700BA0
:104AC00079FF8009E480F47912800279008003F094
:104AD0007900D083D082020122C082C083E9F8909D
:104AE00007F2E07004790C800EE8600D14701090ED
:104AF00004237401F0790080D9900423E480F579CF
:104B00001280F4C082C083E9F890041EE0701AE8B5
:104B1000600D1470109004247401F07900800C90E2
:104B20000424E480F579128002790C80A574F612D1
:104B30001E72740A121E66124B5C600AEC4D60060F
:104B4000E508450970047912800F7808122089124F
:104B50000F427402121E317900023BD21243D7EA8F
:104B60004B22C082C083EA4B7004791280168A827D
:104B70008B83E0A2E0900432E05004D2E08002C2D5
:104B8000E0F07900024AD2C082C083E9600E14705E
:104B90001190076D7401F07900024AD290076DE41C
:104BA00080F4791280F3C082C083E9F890041EE09B
:104BB00064076004790C800EE8600E147011900791
:104BC0006E7401F07900024AD290076EE480F479A5
:104BD0001280F374F7121E72E9FFEAFEC3942850A4
:104BE00008EF600974016F60047912804A90041E16
:104BF000E0600479218040124CF8121D0912114620
:104C000074016F700D7A01EE124C7D9061907424E6
:104C100080177A00EEF91211F479071211BE906133
:104C2000907404F09061E874FFF090041E740BF02F
:104C300079041211A67900023B9474F6121E729048
:104C4000041EE0600479218031124C8B121D091280
:104C50001146900440E4F0FA124C7D75D92775D9BD
:104C60000075D9257800124C9DE8C3942540F7754E
:104C7000E19590041E740D124CAE023BD2124C8191
:104C800022F91211F479001211BE22124C97790107
:104C90001211DC9091D922124CFF7A0122880874FB
:104CA0007F2508F582748F124917F5D90822F090F4
:104CB0006182E0D2E5F079191211A67A007B001228
:104CC000109879002274F7121E72E9FEC3942840EE
:104CD000047912802090041EE0600479218016126D
:104CE0004CF8121D0912379E90041E740CF07903C3
:104CF0001211A67900023B94124CFF9091D9221216
:104D000010B6120DB075E1F122C082C08390041E6E
:104D1000E0640B600EE0640C6009E0640D600479EF
:104D2000218005120BD07900024AD274F3121E7250
:104D3000EA4B70057912024E0990041EE060057975
:104D40000C024E09EA2405F8EB3400F9EA2404FCCD
:104D5000EB3400FDEA2403FEEB3400FFEA2402F505
:104D600008EB3400F5098A828B83A385820A858348
:104D70000B8A828B83E0F47059850A82850B83E06D
:104D8000F4704F850882850983E0F470458E828F28
:104D900083E0F4703D8C828D83E0F47035888289E5
:104DA00083E0F4702D900417E090040BF090041849
:104DB000E090040CF0900419E090040DF090041AB7
:104DC000E090040EF090041BE090040FF090041C9F
:104DD0008030124E228A828B83E090040BF0850A89
:104DE00082850B83E090040CF0850882850983E0BE
:104DF00090040D124E1690040E124E1D90040F12C8
:104E00004E0CE0900410F079000239DD124E1022B1
:104E1000F08882898322F08E828F83E0221251AC47
:104E2000E02290040BE0900417F090040CE0900452
:104E300018F090040DE0900419F090040EE0900436
:104E40001AF090040FE090041BF0900410E090041E
:104E50001CF02234FFF9C3E82274F7121E72E9FE37
:104E6000906185E0F974016E700EE9C3940F5004EF
:104E700009120DA47900800BEE7006E960F6198026
:104E8000F07912023B9474F4121E7274FC121E1B11
:104E9000902978E493F46004790C8040906185E077
:104EA000851882851983F09091957808121CEB85FE
:104EB00018828519837808121CC5750801750900C8
:104EC00078081220897402121E66AC82AD837A5E65
:104ED0007B0A1217947402121E3179007404121E98
:104EE00031023B56C082C083E9F8601374016860E8
:104EF0000E7402686009740368600479128007E820
:104F000090043AF07900024AD274F6121E72E9FB5C
:104F100074FF6B700D9007EE74FFF0A3E4F0F902DC
:104F20004FF0750801750900EA7808121E08A808F4
:104F3000E8F4F9EB600814602B1460758006EAC38E
:104F4000940840057912024FF0E5AEC4540F54079F
:104F50006A700353AE7FE952F252F3E842FDE95220
:104F6000AB024FE5EA601714601914601B14601D52
:104F700014601F14602114602314602080C69062A6
:104F80004380179062448012906245800D90624683
:104F900080089062478003906248E4F0E5AE5407D1
:104FA0006A700353AEF7E952F4E842FEE9528D808D
:104FB00034E5C6A2E7400E74036A600574046A70A3
:104FC00004790C802BEA600A24FD600B14600D024A
:104FD0004F4453F5FE800853F5F7800353F5EFE88F
:104FE00042FFE952ACEBF9EA9007EE12442B79004C
:104FF000023BD274F7121E721248F9700A79161227
:10500000494E120ED67900023B9474F6121E72EAD3
:10501000FEEBFF89081248FD704B125094F874049F
:105020003FF9E824F9FAE93400FBE824FBFCE93411
:1050300000FDE824FDFEE93400FFE824FF18E93410
:1050400000F9E508600514601F80458A828B83E4BF
:10505000F01251ABF0A3F08E828F83F0A3124E0CAE
:10506000F0A3F07900023BD2888289831220A48EBB
:10507000828F831220A48C828D83E0FCA3E0FD8AC2
:10508000828B83123E62120A267404121E3180D370
:10509000791280D112509F744E2E2212509F2212EC
:1050A00050A322EE75F006A4CEA8F028F875F006FD
:1050B000EFA428FF2274F0121E728A088B091210C6
:1050C000148A0A8B0BAE0AAF0B1251268508828513
:1050D00009837401F0EE4F603A124A7C1220818EEF
:1050E000828F83121D09124A76121E31E9602978D7
:1050F0000C1220818E828F83121D09124A70121E9B
:10510000318A0C8B0D8C0E8D0F9091BD780C121A7C
:10511000B45005120DE08009900421E044011251C1
:105120003679000249CB12512A221210C88A0C8B00
:105130000D8C0E8D0F22F0850882850983E4F02204
:10514000C082C083E9F890044AE06004790C800EC4
:10515000E8600E1470119007F27401F07900024AB1
:10516000D29007F2E480F4791280F374F7121E7281
:10517000E9600514600F802F900448EAF0A3EBF07B
:105180007900023B94900448E08C828D83F0900477
:1051900049E08C828D831251ABA3A3746E1251AC83
:1051A000A3A3A3748680D8791280D7A3F08C828DB4
:1051B0008322C082C0839061907404F0A37448F08D
:1051C000A3E4F09061807440F09061BC7407F090AB
:1051D00061877469F09061B67416F07900120DC899
:1051E0007902120DCE902978E493F46006E493F9E5
:1051F000120DA479051211BE025658C082C083E96F
:10520000540FF9906185E0696012E5C65480444905
:10521000F5C6E59E547F644970F8E9F053C680E511
:105220009E547F70FA02565874F7121E72E5A8FE5B
:1052300053A87E120DB0C2BA539AFEC289759B0064
:10524000C2C2120DB675A91175B905120DBCD2BA3C
:10525000439A0174805E42A802617FC082C083903D
:105260006181E4F0A3F0A3F002565875E90075914E
:105270000075BF00020122C082C083906181E4F00A
:10528000A374C0F0A3E480DFC082C08374F8121E50
:105290001B900420126076E849700302533F90048B
:1052A00020E0544060237908851882851983AA82FA
:1052B000AB83120F24851882851983AA82AB8312CF
:1052C0000A14900420E054BFF0E054806010790C80
:1052D0007A147B08120F24900420E0547FF0E0A29F
:1052E000E05008790012534754FEF0E05402600881
:1052F000790112534754FDF0E0540460087900121C
:10530000535254FBF0E05408600879011253525490
:10531000F7F0E054106008790212535254EFF0E0B5
:1053200054206008790312535254DFF0A3E0540173
:10533000600D120DE0120A2C900421E054FEF0746E
:1053400008121E31025658120DC8120A1A90042073
:10535000E022120DCE120A20900420E022C082C06A
:1053600083E9600514602A804F90619A7433F0A33A
:105370007455F09061A0743AF09007F0E064017009
:1053800009C2919004227467802D90042274618078
:105390002690619A743FF0A3745AF09061A0747FD4
:1053A000F09007F0E064017009D2919004227471CA
:1053B0008005900422746AF0025658C082C083E9C6
:1053C000600B14600D14600F146011802090297C14
:1053D000801590297D801090297E800B9007F0E049
:1053E000640160F390297FE493906186F00256583F
:1053F000C082C083906186E0FB7A008A82A88274B2
:105400007C28F5827429126541E4936B700D743821
:1054100028F5827491126887F980090AEAC3940416
:1054200040D9798002565874EE121E7274F4121E1E
:105430001B851882851983AC82AD83758391758233
:10544000857404121D2E90297C93F460030255B9D3
:10545000907808E0C3940250030255997404121E18
:1054600066AC82AD837583917582047408121D2E1B
:10547000F97AFF7BFF7FFF7E00898285821080188A
:1054800074086E700302554E74096E700302554E17
:10549000740A6E700302554EE510C333FCE433FD0D
:1054A0007404121E66E5822CF582E5833DF583E0E7
:1054B000F50EA3E0F50F8E08750900740278081246
:1054C0001E0874482508FC74783509FD8C828D838C
:1054D0007808121CEB74087808121BF385080C85F9
:1054E000090D8C828D837808121CEB7418780812D1
:1054F0001BF3E50C4508F508E50DF509C3E50E9528
:1055000008E50F95098C828D837808121CEB8C823C
:105510008D837808121CEB741878084014121BF362
:10552000E50C4508FCAD0DE50EC39CFCE50F9D8028
:105530000F121BF3E50C4508C3950EFCE50D950F06
:10554000FDC3EC9AED9B5006ECFAEDFBEEFF0EEE80
:10555000C39413500302548074FF6A700374FF6B8A
:10556000602D8F0874027808121E087448126AC5EC
:1055700074783509F5837808121CEB851882851933
:1055800083E5822510F582E583126541E508F0097F
:10559000E9C3940450030254717508017509007839
:1055A000081220897402121E66AC82AD837A5F7B7A
:1055B0000A1217947402121E31740C121E317F0AE3
:1055C000021F44C082C083906186E0F890297FE486
:1055D0009368700990297EE493906186F09061AEA3
:1055E0007468F0A3746AF090624574FBF0A304F051
:1055F00053F4FD43FE029007F07401F09061A0E0C7
:10560000643A7004790080027901120DC80256587C
:10561000C082C0839007CEE0640170179007D4E089
:10562000F87401686009E8700AA3E0640170047905
:105630000C80209007E5E0640170089007EBE064BF
:105640000160EC900778E06401700690077DE070DF
:10565000DE79008003125A4AD083D082020122C030
:1056600082C08375E1F190077BE0604A1460081402
:10567000604E146046804E120DF2900771E0F97A88
:10568000727B071210F8909189121D09125A431269
:105690001D0912110490077CE0F912111079011212
:1056A00011B290076FE024161258617422F0A374AF
:1056B0000EF0790080A2120DF880BF120DFE80BAA4
:1056C000120E0480B5791280EB74F4121E7275D933
:1056D0000D900760E0A2E0E4331313F81257CB48B3
:1056E0004401F5D978001257D540FB78008808743A
:1056F00061126AC574071257DF40F275E195900791
:1057000060E0F97A617B071210FE9010A1747AF0C4
:10571000A3740D1257E5125A597498F0A3740D1220
:105720005A6C90076F125CCA7808121CEB90917D3E
:105730007808121C3E9091A17808121C9F90076F68
:10574000E0240E1258617808121CFA12585B741388
:105750001259037402F07F04021F4474F6121E7281
:105760001257C1FA8AD978001257D540FB780080C9
:1057700006125850125E91E8C39940F51258F11282
:1057800057D540FB78008008126AC17407125E91F9
:10579000E8C39940F375E1959010A17486F0A37465
:1057A0000D1257E51257EF121D0990076FE0240EF6
:1057B000125861121D1512585B74121259030261BE
:1057C00007900781E0F9740729F5D9900771E0C4C3
:1057D000333354C022880874722508F58274071286
:1057E00060CD940622125BC17480F0A3740D221266
:1057F0005A5FF0A37498F0A3740D125A709091B18F
:105800002274F6121E721257C14402F5D9780012A2
:1058100057D540FB78008006125850125E91E8C3BD
:105820009940F575E1959010A1125870F0A31258A7
:10583000701257F2121D0990076FE0240E12586182
:10584000121D1512585B7414125903740402610975
:10585000880874822508F58274072290076FE02477
:1058600014F8A3E0125868223400F9888289832250
:10587000749212587D12587DF0A3740D22F0A37417
:105880000DF0A374922274F6121E721257C1FA74AC
:10589000064AF5D978001257D540FB7800800612E9
:1058A0005850125E91E8C39940F51258F11257D53D
:1058B00040FB78008008126AC17407125E91E8C349
:1058C0009940F375E1959010A1748CF0A3740D12BA
:1058D0005BBA1257EF121D0990076FE0240E1258A1
:1058E00061121D1512585B7415125903740302617D
:1058F000099007A1E0F9740729F5D974044AF5D98C
:10590000780022F090041E22C082C0839007D874D1
:1059100025F09007D67401F0A3E4F07A01FB121190
:10592000229007C4E02416125861742EF0A3740E5E
:10593000F09007D5E0640170169007D4E0701079FC
:105940000112119412115212118E79001211A0023B
:10595000565874F6121E7274FA121E1B9007CDE090
:1059600064017008120E0A9007CDE4F075E1F19021
:1059700007C4E024151258617401F09007CFE06469
:10598000017053909118C082851882851983AC826A
:10599000AD83758391D0827406121D2E75D90D903A
:1059A00007C61257CE4403F5D97800880874C71289
:1059B0006AC574071257DF40F2780088088518829C
:1059C000851983E582126AC5E5831257DF40EC75BD
:1059D000E1957901800279001211289010A174C616
:1059E000F0A3740FF0A374CCF0A3740F125A5012EA
:1059F0005A50125A59125A65F0A374D2F0A3740F78
:105A0000125A6C9007C6E0F97AC77B071210F8901B
:105A100007D8125A4A790112112E909189121D0944
:105A2000125A43121D0912110479001211B2900783
:105A3000C412585E74161259037405F004121E3114
:105A400002610A12114690917522E0F9122864222F
:105A5000F0A374C6F0A3740F22125A5FF0A32212AF
:105A60005A6322F0A37496F0A3740F22125A702284
:105A7000F09010AF125A65125BC5125A65125A6344
:105A8000F02274F4121E728908A808126943900764
:105A9000DDE0F97ADE7B071210F89007EBE0701A70
:105AA0007900121176900760E0700B79007A617BC3
:105AB000071210FE8009790180F3790112117675C1
:105AC000E1F175D9239007DD1257CE4405F5D97859
:105AD00000880A74DE250AF58274071257DF40F148
:105AE00075D90075D90075D90075D90075D90075BB
:105AF000D9007A00126E162422125F4640F67A0010
:105B0000126E162426F582E91261870AEAC394030D
:105B100040EEEE242B1261847A00126E16242C12B1
:105B20005F4C40F67A00126E16242E125F4C40F63F
:105B30007A00126E162430125F4C40F67A00126E14
